{
	"contract/GPTStudentRecordSystem.sol": {
		"StudentRecordSystem": {
			"abi": [
				{
					"inputs": [
						{
							"internalType": "uint256",
							"name": "",
							"type": "uint256"
						}
					],
					"name": "Roll",
					"outputs": [
						{
							"internalType": "uint256",
							"name": "",
							"type": "uint256"
						}
					],
					"stateMutability": "view",
					"type": "function"
				},
				{
					"inputs": [
						{
							"internalType": "uint256",
							"name": "",
							"type": "uint256"
						}
					],
					"name": "Students",
					"outputs": [
						{
							"internalType": "string",
							"name": "name",
							"type": "string"
						},
						{
							"internalType": "uint256",
							"name": "age",
							"type": "uint256"
						},
						{
							"internalType": "address",
							"name": "wallet",
							"type": "address"
						}
					],
					"stateMutability": "view",
					"type": "function"
				},
				{
					"inputs": [],
					"name": "TotalStudent",
					"outputs": [
						{
							"internalType": "uint256",
							"name": "",
							"type": "uint256"
						}
					],
					"stateMutability": "view",
					"type": "function"
				},
				{
					"inputs": [
						{
							"internalType": "uint256",
							"name": "_roll",
							"type": "uint256"
						},
						{
							"internalType": "string",
							"name": "_name",
							"type": "string"
						},
						{
							"internalType": "uint256",
							"name": "_age",
							"type": "uint256"
						}
					],
					"name": "addStudent",
					"outputs": [],
					"stateMutability": "nonpayable",
					"type": "function"
				},
				{
					"inputs": [
						{
							"internalType": "uint256",
							"name": "_roll",
							"type": "uint256"
						}
					],
					"name": "getStudentInfo",
					"outputs": [
						{
							"internalType": "string",
							"name": "",
							"type": "string"
						},
						{
							"internalType": "uint256",
							"name": "",
							"type": "uint256"
						},
						{
							"internalType": "address",
							"name": "",
							"type": "address"
						}
					],
					"stateMutability": "view",
					"type": "function"
				},
				{
					"inputs": [
						{
							"internalType": "uint256",
							"name": "_roll",
							"type": "uint256"
						},
						{
							"internalType": "string",
							"name": "newname",
							"type": "string"
						}
					],
					"name": "updateName",
					"outputs": [],
					"stateMutability": "nonpayable",
					"type": "function"
				}
			],
			"devdoc": {
				"kind": "dev",
				"methods": {},
				"version": 1
			},
			"evm": {
				"assembly": "    /* \"contract/GPTStudentRecordSystem.sol\":60:878  contract StudentRecordSystem{\r... */\n  mstore(0x40, 0x80)\n  callvalue\n  dup1\n  iszero\n  tag_1\n  jumpi\n  0x00\n  dup1\n  revert\ntag_1:\n  pop\n  dataSize(sub_0)\n  dup1\n  dataOffset(sub_0)\n  0x00\n  codecopy\n  0x00\n  return\nstop\n\nsub_0: assembly {\n        /* \"contract/GPTStudentRecordSystem.sol\":60:878  contract StudentRecordSystem{\r... */\n      mstore(0x40, 0x80)\n      callvalue\n      dup1\n      iszero\n      tag_1\n      jumpi\n      0x00\n      dup1\n      revert\n    tag_1:\n      pop\n      jumpi(tag_2, lt(calldatasize, 0x04))\n      shr(0xe0, calldataload(0x00))\n      dup1\n      0x45d7117c\n      eq\n      tag_3\n      jumpi\n      dup1\n      0x53e76f2c\n      eq\n      tag_4\n      jumpi\n      dup1\n      0x57c8d71d\n      eq\n      tag_5\n      jumpi\n      dup1\n      0x65a81d7d\n      eq\n      tag_6\n      jumpi\n      dup1\n      0xb682b754\n      eq\n      tag_7\n      jumpi\n      dup1\n      0xc1bea1db\n      eq\n      tag_8\n      jumpi\n    tag_2:\n      0x00\n      dup1\n      revert\n        /* \"contract/GPTStudentRecordSystem.sol\":788:875  function TotalStudent() public view returns(uint) {\r... */\n    tag_3:\n      tag_9\n      tag_10\n      jump\t// in\n    tag_9:\n      mload(0x40)\n      tag_11\n      swap2\n      swap1\n      tag_12\n      jump\t// in\n    tag_11:\n      mload(0x40)\n      dup1\n      swap2\n      sub\n      swap1\n      return\n        /* \"contract/GPTStudentRecordSystem.sol\":446:590  function updateName(uint _roll, string memory newname) public {\r... */\n    tag_4:\n      tag_13\n      0x04\n      dup1\n      calldatasize\n      sub\n      dup2\n      add\n      swap1\n      tag_14\n      swap2\n      swap1\n      tag_15\n      jump\t// in\n    tag_14:\n      tag_16\n      jump\t// in\n    tag_13:\n      stop\n        /* \"contract/GPTStudentRecordSystem.sol\":194:234  mapping(uint => Student) public Students */\n    tag_5:\n      tag_17\n      0x04\n      dup1\n      calldatasize\n      sub\n      dup2\n      add\n      swap1\n      tag_18\n      swap2\n      swap1\n      tag_19\n      jump\t// in\n    tag_18:\n      tag_20\n      jump\t// in\n    tag_17:\n      mload(0x40)\n      tag_21\n      swap4\n      swap3\n      swap2\n      swap1\n      tag_22\n      jump\t// in\n    tag_21:\n      mload(0x40)\n      dup1\n      swap2\n      sub\n      swap1\n      return\n        /* \"contract/GPTStudentRecordSystem.sol\":598:780  function getStudentInfo(uint _roll) public view returns(string memory, uint, address) {\r... */\n    tag_6:\n      tag_23\n      0x04\n      dup1\n      calldatasize\n      sub\n      dup2\n      add\n      swap1\n      tag_24\n      swap2\n      swap1\n      tag_19\n      jump\t// in\n    tag_24:\n      tag_25\n      jump\t// in\n    tag_23:\n      mload(0x40)\n      tag_26\n      swap4\n      swap3\n      swap2\n      swap1\n      tag_22\n      jump\t// in\n    tag_26:\n      mload(0x40)\n      dup1\n      swap2\n      sub\n      swap1\n      return\n        /* \"contract/GPTStudentRecordSystem.sol\":243:261  uint[] public Roll */\n    tag_7:\n      tag_27\n      0x04\n      dup1\n      calldatasize\n      sub\n      dup2\n      add\n      swap1\n      tag_28\n      swap2\n      swap1\n      tag_19\n      jump\t// in\n    tag_28:\n      tag_29\n      jump\t// in\n    tag_27:\n      mload(0x40)\n      tag_30\n      swap2\n      swap1\n      tag_12\n      jump\t// in\n    tag_30:\n      mload(0x40)\n      dup1\n      swap2\n      sub\n      swap1\n      return\n        /* \"contract/GPTStudentRecordSystem.sol\":270:438  function addStudent(uint _roll, string memory _name, uint _age ) public {\r... */\n    tag_8:\n      tag_31\n      0x04\n      dup1\n      calldatasize\n      sub\n      dup2\n      add\n      swap1\n      tag_32\n      swap2\n      swap1\n      tag_33\n      jump\t// in\n    tag_32:\n      tag_34\n      jump\t// in\n    tag_31:\n      stop\n        /* \"contract/GPTStudentRecordSystem.sol\":788:875  function TotalStudent() public view returns(uint) {\r... */\n    tag_10:\n        /* \"contract/GPTStudentRecordSystem.sol\":832:836  uint */\n      0x00\n        /* \"contract/GPTStudentRecordSystem.sol\":856:860  Roll */\n      0x01\n        /* \"contract/GPTStudentRecordSystem.sol\":856:867  Roll.length */\n      dup1\n      sload\n      swap1\n      pop\n        /* \"contract/GPTStudentRecordSystem.sol\":849:867  return Roll.length */\n      swap1\n      pop\n        /* \"contract/GPTStudentRecordSystem.sol\":788:875  function TotalStudent() public view returns(uint) {\r... */\n      swap1\n      jump\t// out\n        /* \"contract/GPTStudentRecordSystem.sol\":446:590  function updateName(uint _roll, string memory newname) public {\r... */\n    tag_16:\n        /* \"contract/GPTStudentRecordSystem.sol\":519:536  Student storage s */\n      0x00\n        /* \"contract/GPTStudentRecordSystem.sol\":540:548  Students */\n      dup1\n        /* \"contract/GPTStudentRecordSystem.sol\":540:555  Students[_roll] */\n      0x00\n        /* \"contract/GPTStudentRecordSystem.sol\":549:554  _roll */\n      dup5\n        /* \"contract/GPTStudentRecordSystem.sol\":540:555  Students[_roll] */\n      dup2\n      mstore\n      0x20\n      add\n      swap1\n      dup2\n      mstore\n      0x20\n      add\n      0x00\n      keccak256\n        /* \"contract/GPTStudentRecordSystem.sol\":519:555  Student storage s =  Students[_roll] */\n      swap1\n      pop\n        /* \"contract/GPTStudentRecordSystem.sol\":575:582  newname */\n      dup2\n        /* \"contract/GPTStudentRecordSystem.sol\":566:567  s */\n      dup2\n        /* \"contract/GPTStudentRecordSystem.sol\":566:572  s.name */\n      0x00\n      add\n        /* \"contract/GPTStudentRecordSystem.sol\":566:582  s.name = newname */\n      swap1\n      dup1\n      mload\n      swap1\n      0x20\n      add\n      swap1\n      tag_37\n      swap3\n      swap2\n      swap1\n      tag_38\n      jump\t// in\n    tag_37:\n      pop\n        /* \"contract/GPTStudentRecordSystem.sol\":446:590  function updateName(uint _roll, string memory newname) public {\r... */\n      pop\n      pop\n      pop\n      jump\t// out\n        /* \"contract/GPTStudentRecordSystem.sol\":194:234  mapping(uint => Student) public Students */\n    tag_20:\n      mstore(0x20, 0x00)\n      dup1\n      0x00\n      mstore\n      keccak256(0x00, 0x40)\n      0x00\n      swap2\n      pop\n      swap1\n      pop\n      dup1\n      0x00\n      add\n      dup1\n      sload\n      tag_39\n      swap1\n      tag_40\n      jump\t// in\n    tag_39:\n      dup1\n      0x1f\n      add\n      0x20\n      dup1\n      swap2\n      div\n      mul\n      0x20\n      add\n      mload(0x40)\n      swap1\n      dup2\n      add\n      0x40\n      mstore\n      dup1\n      swap3\n      swap2\n      swap1\n      dup2\n      dup2\n      mstore\n      0x20\n      add\n      dup3\n      dup1\n      sload\n      tag_41\n      swap1\n      tag_40\n      jump\t// in\n    tag_41:\n      dup1\n      iszero\n      tag_42\n      jumpi\n      dup1\n      0x1f\n      lt\n      tag_43\n      jumpi\n      0x0100\n      dup1\n      dup4\n      sload\n      div\n      mul\n      dup4\n      mstore\n      swap2\n      0x20\n      add\n      swap2\n      jump(tag_42)\n    tag_43:\n      dup3\n      add\n      swap2\n      swap1\n      0x00\n      mstore\n      keccak256(0x00, 0x20)\n      swap1\n    tag_44:\n      dup2\n      sload\n      dup2\n      mstore\n      swap1\n      0x01\n      add\n      swap1\n      0x20\n      add\n      dup1\n      dup4\n      gt\n      tag_44\n      jumpi\n      dup3\n      swap1\n      sub\n      0x1f\n      and\n      dup3\n      add\n      swap2\n    tag_42:\n      pop\n      pop\n      pop\n      pop\n      pop\n      swap1\n      dup1\n      0x01\n      add\n      sload\n      swap1\n      dup1\n      0x02\n      add\n      0x00\n      swap1\n      sload\n      swap1\n      0x0100\n      exp\n      swap1\n      div\n      0xffffffffffffffffffffffffffffffffffffffff\n      and\n      swap1\n      pop\n      dup4\n      jump\t// out\n        /* \"contract/GPTStudentRecordSystem.sol\":598:780  function getStudentInfo(uint _roll) public view returns(string memory, uint, address) {\r... */\n    tag_25:\n        /* \"contract/GPTStudentRecordSystem.sol\":654:667  string memory */\n      0x60\n        /* \"contract/GPTStudentRecordSystem.sol\":669:673  uint */\n      0x00\n        /* \"contract/GPTStudentRecordSystem.sol\":675:682  address */\n      dup1\n        /* \"contract/GPTStudentRecordSystem.sol\":695:711  Student memory s */\n      0x00\n        /* \"contract/GPTStudentRecordSystem.sol\":714:722  Students */\n      dup1\n        /* \"contract/GPTStudentRecordSystem.sol\":714:729  Students[_roll] */\n      0x00\n        /* \"contract/GPTStudentRecordSystem.sol\":723:728  _roll */\n      dup7\n        /* \"contract/GPTStudentRecordSystem.sol\":714:729  Students[_roll] */\n      dup2\n      mstore\n      0x20\n      add\n      swap1\n      dup2\n      mstore\n      0x20\n      add\n      0x00\n      keccak256\n        /* \"contract/GPTStudentRecordSystem.sol\":695:729  Student memory s = Students[_roll] */\n      mload(0x40)\n      dup1\n      0x60\n      add\n      0x40\n      mstore\n      swap1\n      dup2\n      0x00\n      dup3\n      add\n      dup1\n      sload\n      tag_46\n      swap1\n      tag_40\n      jump\t// in\n    tag_46:\n      dup1\n      0x1f\n      add\n      0x20\n      dup1\n      swap2\n      div\n      mul\n      0x20\n      add\n      mload(0x40)\n      swap1\n      dup2\n      add\n      0x40\n      mstore\n      dup1\n      swap3\n      swap2\n      swap1\n      dup2\n      dup2\n      mstore\n      0x20\n      add\n      dup3\n      dup1\n      sload\n      tag_47\n      swap1\n      tag_40\n      jump\t// in\n    tag_47:\n      dup1\n      iszero\n      tag_48\n      jumpi\n      dup1\n      0x1f\n      lt\n      tag_49\n      jumpi\n      0x0100\n      dup1\n      dup4\n      sload\n      div\n      mul\n      dup4\n      mstore\n      swap2\n      0x20\n      add\n      swap2\n      jump(tag_48)\n    tag_49:\n      dup3\n      add\n      swap2\n      swap1\n      0x00\n      mstore\n      keccak256(0x00, 0x20)\n      swap1\n    tag_50:\n      dup2\n      sload\n      dup2\n      mstore\n      swap1\n      0x01\n      add\n      swap1\n      0x20\n      add\n      dup1\n      dup4\n      gt\n      tag_50\n      jumpi\n      dup3\n      swap1\n      sub\n      0x1f\n      and\n      dup3\n      add\n      swap2\n    tag_48:\n      pop\n      pop\n      pop\n      pop\n      pop\n      dup2\n      mstore\n      0x20\n      add\n      0x01\n      dup3\n      add\n      sload\n      dup2\n      mstore\n      0x20\n      add\n      0x02\n      dup3\n      add\n      0x00\n      swap1\n      sload\n      swap1\n      0x0100\n      exp\n      swap1\n      div\n      0xffffffffffffffffffffffffffffffffffffffff\n      and\n      0xffffffffffffffffffffffffffffffffffffffff\n      and\n      0xffffffffffffffffffffffffffffffffffffffff\n      and\n      dup2\n      mstore\n      pop\n      pop\n      swap1\n      pop\n        /* \"contract/GPTStudentRecordSystem.sol\":748:749  s */\n      dup1\n        /* \"contract/GPTStudentRecordSystem.sol\":748:754  s.name */\n      0x00\n      add\n      mload\n        /* \"contract/GPTStudentRecordSystem.sol\":756:757  s */\n      dup2\n        /* \"contract/GPTStudentRecordSystem.sol\":756:761  s.age */\n      0x20\n      add\n      mload\n        /* \"contract/GPTStudentRecordSystem.sol\":763:764  s */\n      dup3\n        /* \"contract/GPTStudentRecordSystem.sol\":763:771  s.wallet */\n      0x40\n      add\n      mload\n        /* \"contract/GPTStudentRecordSystem.sol\":740:772  return (s.name, s.age, s.wallet) */\n      swap4\n      pop\n      swap4\n      pop\n      swap4\n      pop\n      pop\n        /* \"contract/GPTStudentRecordSystem.sol\":598:780  function getStudentInfo(uint _roll) public view returns(string memory, uint, address) {\r... */\n      swap2\n      swap4\n      swap1\n      swap3\n      pop\n      jump\t// out\n        /* \"contract/GPTStudentRecordSystem.sol\":243:261  uint[] public Roll */\n    tag_29:\n      0x01\n      dup2\n      dup2\n      sload\n      dup2\n      lt\n      tag_51\n      jumpi\n      0x00\n      dup1\n      revert\n    tag_51:\n      swap1\n      0x00\n      mstore\n      keccak256(0x00, 0x20)\n      add\n      0x00\n      swap2\n      pop\n      swap1\n      pop\n      sload\n      dup2\n      jump\t// out\n        /* \"contract/GPTStudentRecordSystem.sol\":270:438  function addStudent(uint _roll, string memory _name, uint _age ) public {\r... */\n    tag_34:\n        /* \"contract/GPTStudentRecordSystem.sol\":371:403  Student(_name, _age, msg.sender) */\n      mload(0x40)\n      dup1\n      0x60\n      add\n      0x40\n      mstore\n      dup1\n        /* \"contract/GPTStudentRecordSystem.sol\":379:384  _name */\n      dup4\n        /* \"contract/GPTStudentRecordSystem.sol\":371:403  Student(_name, _age, msg.sender) */\n      dup2\n      mstore\n      0x20\n      add\n        /* \"contract/GPTStudentRecordSystem.sol\":386:390  _age */\n      dup3\n        /* \"contract/GPTStudentRecordSystem.sol\":371:403  Student(_name, _age, msg.sender) */\n      dup2\n      mstore\n      0x20\n      add\n        /* \"contract/GPTStudentRecordSystem.sol\":392:402  msg.sender */\n      caller\n        /* \"contract/GPTStudentRecordSystem.sol\":371:403  Student(_name, _age, msg.sender) */\n      0xffffffffffffffffffffffffffffffffffffffff\n      and\n      dup2\n      mstore\n      pop\n        /* \"contract/GPTStudentRecordSystem.sol\":353:361  Students */\n      0x00\n        /* \"contract/GPTStudentRecordSystem.sol\":353:368  Students[_roll] */\n      dup1\n        /* \"contract/GPTStudentRecordSystem.sol\":362:367  _roll */\n      dup6\n        /* \"contract/GPTStudentRecordSystem.sol\":353:368  Students[_roll] */\n      dup2\n      mstore\n      0x20\n      add\n      swap1\n      dup2\n      mstore\n      0x20\n      add\n      0x00\n      keccak256\n        /* \"contract/GPTStudentRecordSystem.sol\":353:403  Students[_roll] = Student(_name, _age, msg.sender) */\n      0x00\n      dup3\n      add\n      mload\n      dup2\n      0x00\n      add\n      swap1\n      dup1\n      mload\n      swap1\n      0x20\n      add\n      swap1\n      tag_54\n      swap3\n      swap2\n      swap1\n      tag_38\n      jump\t// in\n    tag_54:\n      pop\n      0x20\n      dup3\n      add\n      mload\n      dup2\n      0x01\n      add\n      sstore\n      0x40\n      dup3\n      add\n      mload\n      dup2\n      0x02\n      add\n      exp(0x0100, 0x00)\n      dup2\n      sload\n      dup2\n      0xffffffffffffffffffffffffffffffffffffffff\n      mul\n      not\n      and\n      swap1\n      dup4\n      0xffffffffffffffffffffffffffffffffffffffff\n      and\n      mul\n      or\n      swap1\n      sstore\n      pop\n      swap1\n      pop\n      pop\n        /* \"contract/GPTStudentRecordSystem.sol\":414:418  Roll */\n      0x01\n        /* \"contract/GPTStudentRecordSystem.sol\":424:429  _roll */\n      dup4\n        /* \"contract/GPTStudentRecordSystem.sol\":414:430  Roll.push(_roll) */\n      swap1\n      dup1\n      0x01\n      dup2\n      sload\n      add\n      dup1\n      dup3\n      sstore\n      dup1\n      swap2\n      pop\n      pop\n      0x01\n      swap1\n      sub\n      swap1\n      0x00\n      mstore\n      keccak256(0x00, 0x20)\n      add\n      0x00\n      swap1\n      swap2\n      swap1\n      swap2\n      swap1\n      swap2\n      pop\n      sstore\n        /* \"contract/GPTStudentRecordSystem.sol\":270:438  function addStudent(uint _roll, string memory _name, uint _age ) public {\r... */\n      pop\n      pop\n      pop\n      jump\t// out\n    tag_38:\n      dup3\n      dup1\n      sload\n      tag_56\n      swap1\n      tag_40\n      jump\t// in\n    tag_56:\n      swap1\n      0x00\n      mstore\n      keccak256(0x00, 0x20)\n      swap1\n      0x1f\n      add\n      0x20\n      swap1\n      div\n      dup2\n      add\n      swap3\n      dup3\n      tag_58\n      jumpi\n      0x00\n      dup6\n      sstore\n      jump(tag_57)\n    tag_58:\n      dup3\n      0x1f\n      lt\n      tag_59\n      jumpi\n      dup1\n      mload\n      not(0xff)\n      and\n      dup4\n      dup1\n      add\n      or\n      dup6\n      sstore\n      jump(tag_57)\n    tag_59:\n      dup3\n      dup1\n      add\n      0x01\n      add\n      dup6\n      sstore\n      dup3\n      iszero\n      tag_57\n      jumpi\n      swap2\n      dup3\n      add\n    tag_60:\n      dup3\n      dup2\n      gt\n      iszero\n      tag_61\n      jumpi\n      dup3\n      mload\n      dup3\n      sstore\n      swap2\n      0x20\n      add\n      swap2\n      swap1\n      0x01\n      add\n      swap1\n      jump(tag_60)\n    tag_61:\n    tag_57:\n      pop\n      swap1\n      pop\n      tag_62\n      swap2\n      swap1\n      tag_63\n      jump\t// in\n    tag_62:\n      pop\n      swap1\n      jump\t// out\n    tag_63:\n    tag_64:\n      dup1\n      dup3\n      gt\n      iszero\n      tag_65\n      jumpi\n      0x00\n      dup2\n      0x00\n      swap1\n      sstore\n      pop\n      0x01\n      add\n      jump(tag_64)\n    tag_65:\n      pop\n      swap1\n      jump\t// out\n        /* \"#utility.yul\":7:351   */\n    tag_67:\n      0x00\n        /* \"#utility.yul\":110:175   */\n      tag_69\n        /* \"#utility.yul\":125:174   */\n      tag_70\n        /* \"#utility.yul\":167:173   */\n      dup5\n        /* \"#utility.yul\":125:174   */\n      tag_71\n      jump\t// in\n    tag_70:\n        /* \"#utility.yul\":110:175   */\n      tag_72\n      jump\t// in\n    tag_69:\n        /* \"#utility.yul\":101:175   */\n      swap1\n      pop\n        /* \"#utility.yul\":198:204   */\n      dup3\n        /* \"#utility.yul\":191:196   */\n      dup2\n        /* \"#utility.yul\":184:205   */\n      mstore\n        /* \"#utility.yul\":236:240   */\n      0x20\n        /* \"#utility.yul\":229:234   */\n      dup2\n        /* \"#utility.yul\":225:241   */\n      add\n        /* \"#utility.yul\":274:277   */\n      dup5\n        /* \"#utility.yul\":265:271   */\n      dup5\n        /* \"#utility.yul\":260:263   */\n      dup5\n        /* \"#utility.yul\":256:272   */\n      add\n        /* \"#utility.yul\":253:278   */\n      gt\n        /* \"#utility.yul\":250:252   */\n      iszero\n      tag_73\n      jumpi\n        /* \"#utility.yul\":291:292   */\n      0x00\n        /* \"#utility.yul\":288:289   */\n      dup1\n        /* \"#utility.yul\":281:293   */\n      revert\n        /* \"#utility.yul\":250:252   */\n    tag_73:\n        /* \"#utility.yul\":304:345   */\n      tag_74\n        /* \"#utility.yul\":338:344   */\n      dup5\n        /* \"#utility.yul\":333:336   */\n      dup3\n        /* \"#utility.yul\":328:331   */\n      dup6\n        /* \"#utility.yul\":304:345   */\n      tag_75\n      jump\t// in\n    tag_74:\n        /* \"#utility.yul\":91:351   */\n      pop\n      swap4\n      swap3\n      pop\n      pop\n      pop\n      jump\t// out\n        /* \"#utility.yul\":371:644   */\n    tag_76:\n      0x00\n        /* \"#utility.yul\":476:479   */\n      dup3\n        /* \"#utility.yul\":469:473   */\n      0x1f\n        /* \"#utility.yul\":461:467   */\n      dup4\n        /* \"#utility.yul\":457:474   */\n      add\n        /* \"#utility.yul\":453:480   */\n      slt\n        /* \"#utility.yul\":443:445   */\n      tag_78\n      jumpi\n        /* \"#utility.yul\":494:495   */\n      0x00\n        /* \"#utility.yul\":491:492   */\n      dup1\n        /* \"#utility.yul\":484:496   */\n      revert\n        /* \"#utility.yul\":443:445   */\n    tag_78:\n        /* \"#utility.yul\":534:540   */\n      dup2\n        /* \"#utility.yul\":521:541   */\n      calldataload\n        /* \"#utility.yul\":559:638   */\n      tag_79\n        /* \"#utility.yul\":634:637   */\n      dup5\n        /* \"#utility.yul\":626:632   */\n      dup3\n        /* \"#utility.yul\":619:623   */\n      0x20\n        /* \"#utility.yul\":611:617   */\n      dup7\n        /* \"#utility.yul\":607:624   */\n      add\n        /* \"#utility.yul\":559:638   */\n      tag_67\n      jump\t// in\n    tag_79:\n        /* \"#utility.yul\":550:638   */\n      swap2\n      pop\n        /* \"#utility.yul\":433:644   */\n      pop\n      swap3\n      swap2\n      pop\n      pop\n      jump\t// out\n        /* \"#utility.yul\":650:789   */\n    tag_80:\n      0x00\n        /* \"#utility.yul\":734:740   */\n      dup2\n        /* \"#utility.yul\":721:741   */\n      calldataload\n        /* \"#utility.yul\":712:741   */\n      swap1\n      pop\n        /* \"#utility.yul\":750:783   */\n      tag_82\n        /* \"#utility.yul\":777:782   */\n      dup2\n        /* \"#utility.yul\":750:783   */\n      tag_83\n      jump\t// in\n    tag_82:\n        /* \"#utility.yul\":702:789   */\n      swap3\n      swap2\n      pop\n      pop\n      jump\t// out\n        /* \"#utility.yul\":795:1057   */\n    tag_19:\n      0x00\n        /* \"#utility.yul\":903:905   */\n      0x20\n        /* \"#utility.yul\":891:900   */\n      dup3\n        /* \"#utility.yul\":882:889   */\n      dup5\n        /* \"#utility.yul\":878:901   */\n      sub\n        /* \"#utility.yul\":874:906   */\n      slt\n        /* \"#utility.yul\":871:873   */\n      iszero\n      tag_85\n      jumpi\n        /* \"#utility.yul\":919:920   */\n      0x00\n        /* \"#utility.yul\":916:917   */\n      dup1\n        /* \"#utility.yul\":909:921   */\n      revert\n        /* \"#utility.yul\":871:873   */\n    tag_85:\n        /* \"#utility.yul\":962:963   */\n      0x00\n        /* \"#utility.yul\":987:1040   */\n      tag_86\n        /* \"#utility.yul\":1032:1039   */\n      dup5\n        /* \"#utility.yul\":1023:1029   */\n      dup3\n        /* \"#utility.yul\":1012:1021   */\n      dup6\n        /* \"#utility.yul\":1008:1030   */\n      add\n        /* \"#utility.yul\":987:1040   */\n      tag_80\n      jump\t// in\n    tag_86:\n        /* \"#utility.yul\":977:1040   */\n      swap2\n      pop\n        /* \"#utility.yul\":933:1050   */\n      pop\n        /* \"#utility.yul\":861:1057   */\n      swap3\n      swap2\n      pop\n      pop\n      jump\t// out\n        /* \"#utility.yul\":1063:1583   */\n    tag_15:\n      0x00\n      dup1\n        /* \"#utility.yul\":1198:1200   */\n      0x40\n        /* \"#utility.yul\":1186:1195   */\n      dup4\n        /* \"#utility.yul\":1177:1184   */\n      dup6\n        /* \"#utility.yul\":1173:1196   */\n      sub\n        /* \"#utility.yul\":1169:1201   */\n      slt\n        /* \"#utility.yul\":1166:1168   */\n      iszero\n      tag_88\n      jumpi\n        /* \"#utility.yul\":1214:1215   */\n      0x00\n        /* \"#utility.yul\":1211:1212   */\n      dup1\n        /* \"#utility.yul\":1204:1216   */\n      revert\n        /* \"#utility.yul\":1166:1168   */\n    tag_88:\n        /* \"#utility.yul\":1257:1258   */\n      0x00\n        /* \"#utility.yul\":1282:1335   */\n      tag_89\n        /* \"#utility.yul\":1327:1334   */\n      dup6\n        /* \"#utility.yul\":1318:1324   */\n      dup3\n        /* \"#utility.yul\":1307:1316   */\n      dup7\n        /* \"#utility.yul\":1303:1325   */\n      add\n        /* \"#utility.yul\":1282:1335   */\n      tag_80\n      jump\t// in\n    tag_89:\n        /* \"#utility.yul\":1272:1335   */\n      swap3\n      pop\n        /* \"#utility.yul\":1228:1345   */\n      pop\n        /* \"#utility.yul\":1412:1414   */\n      0x20\n        /* \"#utility.yul\":1401:1410   */\n      dup4\n        /* \"#utility.yul\":1397:1415   */\n      add\n        /* \"#utility.yul\":1384:1416   */\n      calldataload\n        /* \"#utility.yul\":1443:1461   */\n      0xffffffffffffffff\n        /* \"#utility.yul\":1435:1441   */\n      dup2\n        /* \"#utility.yul\":1432:1462   */\n      gt\n        /* \"#utility.yul\":1429:1431   */\n      iszero\n      tag_90\n      jumpi\n        /* \"#utility.yul\":1475:1476   */\n      0x00\n        /* \"#utility.yul\":1472:1473   */\n      dup1\n        /* \"#utility.yul\":1465:1477   */\n      revert\n        /* \"#utility.yul\":1429:1431   */\n    tag_90:\n        /* \"#utility.yul\":1503:1566   */\n      tag_91\n        /* \"#utility.yul\":1558:1565   */\n      dup6\n        /* \"#utility.yul\":1549:1555   */\n      dup3\n        /* \"#utility.yul\":1538:1547   */\n      dup7\n        /* \"#utility.yul\":1534:1556   */\n      add\n        /* \"#utility.yul\":1503:1566   */\n      tag_76\n      jump\t// in\n    tag_91:\n        /* \"#utility.yul\":1493:1566   */\n      swap2\n      pop\n        /* \"#utility.yul\":1355:1576   */\n      pop\n        /* \"#utility.yul\":1156:1583   */\n      swap3\n      pop\n      swap3\n      swap1\n      pop\n      jump\t// out\n        /* \"#utility.yul\":1589:2254   */\n    tag_33:\n      0x00\n      dup1\n      0x00\n        /* \"#utility.yul\":1741:1743   */\n      0x60\n        /* \"#utility.yul\":1729:1738   */\n      dup5\n        /* \"#utility.yul\":1720:1727   */\n      dup7\n        /* \"#utility.yul\":1716:1739   */\n      sub\n        /* \"#utility.yul\":1712:1744   */\n      slt\n        /* \"#utility.yul\":1709:1711   */\n      iszero\n      tag_93\n      jumpi\n        /* \"#utility.yul\":1757:1758   */\n      0x00\n        /* \"#utility.yul\":1754:1755   */\n      dup1\n        /* \"#utility.yul\":1747:1759   */\n      revert\n        /* \"#utility.yul\":1709:1711   */\n    tag_93:\n        /* \"#utility.yul\":1800:1801   */\n      0x00\n        /* \"#utility.yul\":1825:1878   */\n      tag_94\n        /* \"#utility.yul\":1870:1877   */\n      dup7\n        /* \"#utility.yul\":1861:1867   */\n      dup3\n        /* \"#utility.yul\":1850:1859   */\n      dup8\n        /* \"#utility.yul\":1846:1868   */\n      add\n        /* \"#utility.yul\":1825:1878   */\n      tag_80\n      jump\t// in\n    tag_94:\n        /* \"#utility.yul\":1815:1878   */\n      swap4\n      pop\n        /* \"#utility.yul\":1771:1888   */\n      pop\n        /* \"#utility.yul\":1955:1957   */\n      0x20\n        /* \"#utility.yul\":1944:1953   */\n      dup5\n        /* \"#utility.yul\":1940:1958   */\n      add\n        /* \"#utility.yul\":1927:1959   */\n      calldataload\n        /* \"#utility.yul\":1986:2004   */\n      0xffffffffffffffff\n        /* \"#utility.yul\":1978:1984   */\n      dup2\n        /* \"#utility.yul\":1975:2005   */\n      gt\n        /* \"#utility.yul\":1972:1974   */\n      iszero\n      tag_95\n      jumpi\n        /* \"#utility.yul\":2018:2019   */\n      0x00\n        /* \"#utility.yul\":2015:2016   */\n      dup1\n        /* \"#utility.yul\":2008:2020   */\n      revert\n        /* \"#utility.yul\":1972:1974   */\n    tag_95:\n        /* \"#utility.yul\":2046:2109   */\n      tag_96\n        /* \"#utility.yul\":2101:2108   */\n      dup7\n        /* \"#utility.yul\":2092:2098   */\n      dup3\n        /* \"#utility.yul\":2081:2090   */\n      dup8\n        /* \"#utility.yul\":2077:2099   */\n      add\n        /* \"#utility.yul\":2046:2109   */\n      tag_76\n      jump\t// in\n    tag_96:\n        /* \"#utility.yul\":2036:2109   */\n      swap3\n      pop\n        /* \"#utility.yul\":1898:2119   */\n      pop\n        /* \"#utility.yul\":2158:2160   */\n      0x40\n        /* \"#utility.yul\":2184:2237   */\n      tag_97\n        /* \"#utility.yul\":2229:2236   */\n      dup7\n        /* \"#utility.yul\":2220:2226   */\n      dup3\n        /* \"#utility.yul\":2209:2218   */\n      dup8\n        /* \"#utility.yul\":2205:2227   */\n      add\n        /* \"#utility.yul\":2184:2237   */\n      tag_80\n      jump\t// in\n    tag_97:\n        /* \"#utility.yul\":2174:2237   */\n      swap2\n      pop\n        /* \"#utility.yul\":2129:2247   */\n      pop\n        /* \"#utility.yul\":1699:2254   */\n      swap3\n      pop\n      swap3\n      pop\n      swap3\n      jump\t// out\n        /* \"#utility.yul\":2260:2378   */\n    tag_98:\n        /* \"#utility.yul\":2347:2371   */\n      tag_100\n        /* \"#utility.yul\":2365:2370   */\n      dup2\n        /* \"#utility.yul\":2347:2371   */\n      tag_101\n      jump\t// in\n    tag_100:\n        /* \"#utility.yul\":2342:2345   */\n      dup3\n        /* \"#utility.yul\":2335:2372   */\n      mstore\n        /* \"#utility.yul\":2325:2378   */\n      pop\n      pop\n      jump\t// out\n        /* \"#utility.yul\":2384:2748   */\n    tag_102:\n      0x00\n        /* \"#utility.yul\":2500:2539   */\n      tag_104\n        /* \"#utility.yul\":2533:2538   */\n      dup3\n        /* \"#utility.yul\":2500:2539   */\n      tag_105\n      jump\t// in\n    tag_104:\n        /* \"#utility.yul\":2555:2626   */\n      tag_106\n        /* \"#utility.yul\":2619:2625   */\n      dup2\n        /* \"#utility.yul\":2614:2617   */\n      dup6\n        /* \"#utility.yul\":2555:2626   */\n      tag_107\n      jump\t// in\n    tag_106:\n        /* \"#utility.yul\":2548:2626   */\n      swap4\n      pop\n        /* \"#utility.yul\":2635:2687   */\n      tag_108\n        /* \"#utility.yul\":2680:2686   */\n      dup2\n        /* \"#utility.yul\":2675:2678   */\n      dup6\n        /* \"#utility.yul\":2668:2672   */\n      0x20\n        /* \"#utility.yul\":2661:2666   */\n      dup7\n        /* \"#utility.yul\":2657:2673   */\n      add\n        /* \"#utility.yul\":2635:2687   */\n      tag_109\n      jump\t// in\n    tag_108:\n        /* \"#utility.yul\":2712:2741   */\n      tag_110\n        /* \"#utility.yul\":2734:2740   */\n      dup2\n        /* \"#utility.yul\":2712:2741   */\n      tag_111\n      jump\t// in\n    tag_110:\n        /* \"#utility.yul\":2707:2710   */\n      dup5\n        /* \"#utility.yul\":2703:2742   */\n      add\n        /* \"#utility.yul\":2696:2742   */\n      swap2\n      pop\n        /* \"#utility.yul\":2476:2748   */\n      pop\n      swap3\n      swap2\n      pop\n      pop\n      jump\t// out\n        /* \"#utility.yul\":2754:2872   */\n    tag_112:\n        /* \"#utility.yul\":2841:2865   */\n      tag_114\n        /* \"#utility.yul\":2859:2864   */\n      dup2\n        /* \"#utility.yul\":2841:2865   */\n      tag_115\n      jump\t// in\n    tag_114:\n        /* \"#utility.yul\":2836:2839   */\n      dup3\n        /* \"#utility.yul\":2829:2866   */\n      mstore\n        /* \"#utility.yul\":2819:2872   */\n      pop\n      pop\n      jump\t// out\n        /* \"#utility.yul\":2878:3411   */\n    tag_22:\n      0x00\n        /* \"#utility.yul\":3085:3087   */\n      0x60\n        /* \"#utility.yul\":3074:3083   */\n      dup3\n        /* \"#utility.yul\":3070:3088   */\n      add\n        /* \"#utility.yul\":3062:3088   */\n      swap1\n      pop\n        /* \"#utility.yul\":3134:3143   */\n      dup2\n        /* \"#utility.yul\":3128:3132   */\n      dup2\n        /* \"#utility.yul\":3124:3144   */\n      sub\n        /* \"#utility.yul\":3120:3121   */\n      0x00\n        /* \"#utility.yul\":3109:3118   */\n      dup4\n        /* \"#utility.yul\":3105:3122   */\n      add\n        /* \"#utility.yul\":3098:3145   */\n      mstore\n        /* \"#utility.yul\":3162:3240   */\n      tag_117\n        /* \"#utility.yul\":3235:3239   */\n      dup2\n        /* \"#utility.yul\":3226:3232   */\n      dup7\n        /* \"#utility.yul\":3162:3240   */\n      tag_102\n      jump\t// in\n    tag_117:\n        /* \"#utility.yul\":3154:3240   */\n      swap1\n      pop\n        /* \"#utility.yul\":3250:3322   */\n      tag_118\n        /* \"#utility.yul\":3318:3320   */\n      0x20\n        /* \"#utility.yul\":3307:3316   */\n      dup4\n        /* \"#utility.yul\":3303:3321   */\n      add\n        /* \"#utility.yul\":3294:3300   */\n      dup6\n        /* \"#utility.yul\":3250:3322   */\n      tag_112\n      jump\t// in\n    tag_118:\n        /* \"#utility.yul\":3332:3404   */\n      tag_119\n        /* \"#utility.yul\":3400:3402   */\n      0x40\n        /* \"#utility.yul\":3389:3398   */\n      dup4\n        /* \"#utility.yul\":3385:3403   */\n      add\n        /* \"#utility.yul\":3376:3382   */\n      dup5\n        /* \"#utility.yul\":3332:3404   */\n      tag_98\n      jump\t// in\n    tag_119:\n        /* \"#utility.yul\":3052:3411   */\n      swap5\n      swap4\n      pop\n      pop\n      pop\n      pop\n      jump\t// out\n        /* \"#utility.yul\":3417:3639   */\n    tag_12:\n      0x00\n        /* \"#utility.yul\":3548:3550   */\n      0x20\n        /* \"#utility.yul\":3537:3546   */\n      dup3\n        /* \"#utility.yul\":3533:3551   */\n      add\n        /* \"#utility.yul\":3525:3551   */\n      swap1\n      pop\n        /* \"#utility.yul\":3561:3632   */\n      tag_121\n        /* \"#utility.yul\":3629:3630   */\n      0x00\n        /* \"#utility.yul\":3618:3627   */\n      dup4\n        /* \"#utility.yul\":3614:3631   */\n      add\n        /* \"#utility.yul\":3605:3611   */\n      dup5\n        /* \"#utility.yul\":3561:3632   */\n      tag_112\n      jump\t// in\n    tag_121:\n        /* \"#utility.yul\":3515:3639   */\n      swap3\n      swap2\n      pop\n      pop\n      jump\t// out\n        /* \"#utility.yul\":3645:3928   */\n    tag_72:\n      0x00\n        /* \"#utility.yul\":3711:3713   */\n      0x40\n        /* \"#utility.yul\":3705:3714   */\n      mload\n        /* \"#utility.yul\":3695:3714   */\n      swap1\n      pop\n        /* \"#utility.yul\":3753:3757   */\n      dup2\n        /* \"#utility.yul\":3745:3751   */\n      dup2\n        /* \"#utility.yul\":3741:3758   */\n      add\n        /* \"#utility.yul\":3860:3866   */\n      dup2\n        /* \"#utility.yul\":3848:3858   */\n      dup2\n        /* \"#utility.yul\":3845:3867   */\n      lt\n        /* \"#utility.yul\":3824:3842   */\n      0xffffffffffffffff\n        /* \"#utility.yul\":3812:3822   */\n      dup3\n        /* \"#utility.yul\":3809:3843   */\n      gt\n        /* \"#utility.yul\":3806:3868   */\n      or\n        /* \"#utility.yul\":3803:3805   */\n      iszero\n      tag_123\n      jumpi\n        /* \"#utility.yul\":3871:3889   */\n      tag_124\n      tag_125\n      jump\t// in\n    tag_124:\n        /* \"#utility.yul\":3803:3805   */\n    tag_123:\n        /* \"#utility.yul\":3911:3921   */\n      dup1\n        /* \"#utility.yul\":3907:3909   */\n      0x40\n        /* \"#utility.yul\":3900:3922   */\n      mstore\n        /* \"#utility.yul\":3685:3928   */\n      pop\n      swap2\n      swap1\n      pop\n      jump\t// out\n        /* \"#utility.yul\":3934:4266   */\n    tag_71:\n      0x00\n        /* \"#utility.yul\":4086:4104   */\n      0xffffffffffffffff\n        /* \"#utility.yul\":4078:4084   */\n      dup3\n        /* \"#utility.yul\":4075:4105   */\n      gt\n        /* \"#utility.yul\":4072:4074   */\n      iszero\n      tag_127\n      jumpi\n        /* \"#utility.yul\":4108:4126   */\n      tag_128\n      tag_125\n      jump\t// in\n    tag_128:\n        /* \"#utility.yul\":4072:4074   */\n    tag_127:\n        /* \"#utility.yul\":4193:4197   */\n      0x1f\n        /* \"#utility.yul\":4189:4198   */\n      not\n        /* \"#utility.yul\":4182:4186   */\n      0x1f\n        /* \"#utility.yul\":4174:4180   */\n      dup4\n        /* \"#utility.yul\":4170:4187   */\n      add\n        /* \"#utility.yul\":4166:4199   */\n      and\n        /* \"#utility.yul\":4158:4199   */\n      swap1\n      pop\n        /* \"#utility.yul\":4254:4258   */\n      0x20\n        /* \"#utility.yul\":4248:4252   */\n      dup2\n        /* \"#utility.yul\":4244:4259   */\n      add\n        /* \"#utility.yul\":4236:4259   */\n      swap1\n      pop\n        /* \"#utility.yul\":4001:4266   */\n      swap2\n      swap1\n      pop\n      jump\t// out\n        /* \"#utility.yul\":4272:4371   */\n    tag_105:\n      0x00\n        /* \"#utility.yul\":4358:4363   */\n      dup2\n        /* \"#utility.yul\":4352:4364   */\n      mload\n        /* \"#utility.yul\":4342:4364   */\n      swap1\n      pop\n        /* \"#utility.yul\":4331:4371   */\n      swap2\n      swap1\n      pop\n      jump\t// out\n        /* \"#utility.yul\":4377:4546   */\n    tag_107:\n      0x00\n        /* \"#utility.yul\":4495:4501   */\n      dup3\n        /* \"#utility.yul\":4490:4493   */\n      dup3\n        /* \"#utility.yul\":4483:4502   */\n      mstore\n        /* \"#utility.yul\":4535:4539   */\n      0x20\n        /* \"#utility.yul\":4530:4533   */\n      dup3\n        /* \"#utility.yul\":4526:4540   */\n      add\n        /* \"#utility.yul\":4511:4540   */\n      swap1\n      pop\n        /* \"#utility.yul\":4473:4546   */\n      swap3\n      swap2\n      pop\n      pop\n      jump\t// out\n        /* \"#utility.yul\":4552:4648   */\n    tag_101:\n      0x00\n        /* \"#utility.yul\":4618:4642   */\n      tag_132\n        /* \"#utility.yul\":4636:4641   */\n      dup3\n        /* \"#utility.yul\":4618:4642   */\n      tag_133\n      jump\t// in\n    tag_132:\n        /* \"#utility.yul\":4607:4642   */\n      swap1\n      pop\n        /* \"#utility.yul\":4597:4648   */\n      swap2\n      swap1\n      pop\n      jump\t// out\n        /* \"#utility.yul\":4654:4780   */\n    tag_133:\n      0x00\n        /* \"#utility.yul\":4731:4773   */\n      0xffffffffffffffffffffffffffffffffffffffff\n        /* \"#utility.yul\":4724:4729   */\n      dup3\n        /* \"#utility.yul\":4720:4774   */\n      and\n        /* \"#utility.yul\":4709:4774   */\n      swap1\n      pop\n        /* \"#utility.yul\":4699:4780   */\n      swap2\n      swap1\n      pop\n      jump\t// out\n        /* \"#utility.yul\":4786:4863   */\n    tag_115:\n      0x00\n        /* \"#utility.yul\":4852:4857   */\n      dup2\n        /* \"#utility.yul\":4841:4857   */\n      swap1\n      pop\n        /* \"#utility.yul\":4831:4863   */\n      swap2\n      swap1\n      pop\n      jump\t// out\n        /* \"#utility.yul\":4869:5023   */\n    tag_75:\n        /* \"#utility.yul\":4953:4959   */\n      dup3\n        /* \"#utility.yul\":4948:4951   */\n      dup2\n        /* \"#utility.yul\":4943:4946   */\n      dup4\n        /* \"#utility.yul\":4930:4960   */\n      calldatacopy\n        /* \"#utility.yul\":5015:5016   */\n      0x00\n        /* \"#utility.yul\":5006:5012   */\n      dup4\n        /* \"#utility.yul\":5001:5004   */\n      dup4\n        /* \"#utility.yul\":4997:5013   */\n      add\n        /* \"#utility.yul\":4990:5017   */\n      mstore\n        /* \"#utility.yul\":4920:5023   */\n      pop\n      pop\n      pop\n      jump\t// out\n        /* \"#utility.yul\":5029:5336   */\n    tag_109:\n        /* \"#utility.yul\":5097:5098   */\n      0x00\n        /* \"#utility.yul\":5107:5220   */\n    tag_138:\n        /* \"#utility.yul\":5121:5127   */\n      dup4\n        /* \"#utility.yul\":5118:5119   */\n      dup2\n        /* \"#utility.yul\":5115:5128   */\n      lt\n        /* \"#utility.yul\":5107:5220   */\n      iszero\n      tag_140\n      jumpi\n        /* \"#utility.yul\":5206:5207   */\n      dup1\n        /* \"#utility.yul\":5201:5204   */\n      dup3\n        /* \"#utility.yul\":5197:5208   */\n      add\n        /* \"#utility.yul\":5191:5209   */\n      mload\n        /* \"#utility.yul\":5187:5188   */\n      dup2\n        /* \"#utility.yul\":5182:5185   */\n      dup5\n        /* \"#utility.yul\":5178:5189   */\n      add\n        /* \"#utility.yul\":5171:5210   */\n      mstore\n        /* \"#utility.yul\":5143:5145   */\n      0x20\n        /* \"#utility.yul\":5140:5141   */\n      dup2\n        /* \"#utility.yul\":5136:5146   */\n      add\n        /* \"#utility.yul\":5131:5146   */\n      swap1\n      pop\n        /* \"#utility.yul\":5107:5220   */\n      jump(tag_138)\n    tag_140:\n        /* \"#utility.yul\":5238:5244   */\n      dup4\n        /* \"#utility.yul\":5235:5236   */\n      dup2\n        /* \"#utility.yul\":5232:5245   */\n      gt\n        /* \"#utility.yul\":5229:5231   */\n      iszero\n      tag_141\n      jumpi\n        /* \"#utility.yul\":5318:5319   */\n      0x00\n        /* \"#utility.yul\":5309:5315   */\n      dup5\n        /* \"#utility.yul\":5304:5307   */\n      dup5\n        /* \"#utility.yul\":5300:5316   */\n      add\n        /* \"#utility.yul\":5293:5320   */\n      mstore\n        /* \"#utility.yul\":5229:5231   */\n    tag_141:\n        /* \"#utility.yul\":5078:5336   */\n      pop\n      pop\n      pop\n      pop\n      jump\t// out\n        /* \"#utility.yul\":5342:5662   */\n    tag_40:\n      0x00\n        /* \"#utility.yul\":5423:5424   */\n      0x02\n        /* \"#utility.yul\":5417:5421   */\n      dup3\n        /* \"#utility.yul\":5413:5425   */\n      div\n        /* \"#utility.yul\":5403:5425   */\n      swap1\n      pop\n        /* \"#utility.yul\":5470:5471   */\n      0x01\n        /* \"#utility.yul\":5464:5468   */\n      dup3\n        /* \"#utility.yul\":5460:5472   */\n      and\n        /* \"#utility.yul\":5491:5509   */\n      dup1\n        /* \"#utility.yul\":5481:5483   */\n      tag_143\n      jumpi\n        /* \"#utility.yul\":5547:5551   */\n      0x7f\n        /* \"#utility.yul\":5539:5545   */\n      dup3\n        /* \"#utility.yul\":5535:5552   */\n      and\n        /* \"#utility.yul\":5525:5552   */\n      swap2\n      pop\n        /* \"#utility.yul\":5481:5483   */\n    tag_143:\n        /* \"#utility.yul\":5609:5611   */\n      0x20\n        /* \"#utility.yul\":5601:5607   */\n      dup3\n        /* \"#utility.yul\":5598:5612   */\n      lt\n        /* \"#utility.yul\":5578:5596   */\n      dup2\n        /* \"#utility.yul\":5575:5613   */\n      eq\n        /* \"#utility.yul\":5572:5574   */\n      iszero\n      tag_144\n      jumpi\n        /* \"#utility.yul\":5628:5646   */\n      tag_145\n      tag_146\n      jump\t// in\n    tag_145:\n        /* \"#utility.yul\":5572:5574   */\n    tag_144:\n        /* \"#utility.yul\":5393:5662   */\n      pop\n      swap2\n      swap1\n      pop\n      jump\t// out\n        /* \"#utility.yul\":5668:5848   */\n    tag_146:\n        /* \"#utility.yul\":5716:5793   */\n      0x4e487b7100000000000000000000000000000000000000000000000000000000\n        /* \"#utility.yul\":5713:5714   */\n      0x00\n        /* \"#utility.yul\":5706:5794   */\n      mstore\n        /* \"#utility.yul\":5813:5817   */\n      0x22\n        /* \"#utility.yul\":5810:5811   */\n      0x04\n        /* \"#utility.yul\":5803:5818   */\n      mstore\n        /* \"#utility.yul\":5837:5841   */\n      0x24\n        /* \"#utility.yul\":5834:5835   */\n      0x00\n        /* \"#utility.yul\":5827:5842   */\n      revert\n        /* \"#utility.yul\":5854:6034   */\n    tag_125:\n        /* \"#utility.yul\":5902:5979   */\n      0x4e487b7100000000000000000000000000000000000000000000000000000000\n        /* \"#utility.yul\":5899:5900   */\n      0x00\n        /* \"#utility.yul\":5892:5980   */\n      mstore\n        /* \"#utility.yul\":5999:6003   */\n      0x41\n        /* \"#utility.yul\":5996:5997   */\n      0x04\n        /* \"#utility.yul\":5989:6004   */\n      mstore\n        /* \"#utility.yul\":6023:6027   */\n      0x24\n        /* \"#utility.yul\":6020:6021   */\n      0x00\n        /* \"#utility.yul\":6013:6028   */\n      revert\n        /* \"#utility.yul\":6040:6142   */\n    tag_111:\n      0x00\n        /* \"#utility.yul\":6132:6134   */\n      0x1f\n        /* \"#utility.yul\":6128:6135   */\n      not\n        /* \"#utility.yul\":6123:6125   */\n      0x1f\n        /* \"#utility.yul\":6116:6121   */\n      dup4\n        /* \"#utility.yul\":6112:6126   */\n      add\n        /* \"#utility.yul\":6108:6136   */\n      and\n        /* \"#utility.yul\":6098:6136   */\n      swap1\n      pop\n        /* \"#utility.yul\":6088:6142   */\n      swap2\n      swap1\n      pop\n      jump\t// out\n        /* \"#utility.yul\":6148:6270   */\n    tag_83:\n        /* \"#utility.yul\":6221:6245   */\n      tag_151\n        /* \"#utility.yul\":6239:6244   */\n      dup2\n        /* \"#utility.yul\":6221:6245   */\n      tag_115\n      jump\t// in\n    tag_151:\n        /* \"#utility.yul\":6214:6219   */\n      dup2\n        /* \"#utility.yul\":6211:6246   */\n      eq\n        /* \"#utility.yul\":6201:6203   */\n      tag_152\n      jumpi\n        /* \"#utility.yul\":6260:6261   */\n      0x00\n        /* \"#utility.yul\":6257:6258   */\n      dup1\n        /* \"#utility.yul\":6250:6262   */\n      revert\n        /* \"#utility.yul\":6201:6203   */\n    tag_152:\n        /* \"#utility.yul\":6191:6270   */\n      pop\n      jump\t// out\n\n    auxdata: 0xa2646970667358221220a1363c25cc5ae65e10d42586676ef7063b7b708fd0a65aa7c41d85d403ebff8664736f6c63430008000033\n}\n",
				"bytecode": {
					"linkReferences": {},
					"object": "608060405234801561001057600080fd5b5061093c806100206000396000f3fe608060405234801561001057600080fd5b50600436106100625760003560e01c806345d7117c1461006757806353e76f2c1461008557806357c8d71d146100a157806365a81d7d146100d3578063b682b75414610105578063c1bea1db14610135575b600080fd5b61006f610151565b60405161007c9190610738565b60405180910390f35b61009f600480360381019061009a91906105e8565b61015e565b005b6100bb60048036038101906100b691906105bf565b610192565b6040516100ca939291906106fa565b60405180910390f35b6100ed60048036038101906100e891906105bf565b610264565b6040516100fc939291906106fa565b60405180910390f35b61011f600480360381019061011a91906105bf565b610399565b60405161012c9190610738565b60405180910390f35b61014f600480360381019061014a919061063c565b6103bd565b005b6000600180549050905090565b600080600084815260200190815260200160002090508181600001908051906020019061018c92919061049f565b50505050565b60006020528060005260406000206000915090508060000180546101b59061084e565b80601f01602080910402602001604051908101604052809291908181526020018280546101e19061084e565b801561022e5780601f106102035761010080835404028352916020019161022e565b820191906000526020600020905b81548152906001019060200180831161021157829003601f168201915b5050505050908060010154908060020160009054906101000a900473ffffffffffffffffffffffffffffffffffffffff16905083565b606060008060008060008681526020019081526020016000206040518060600160405290816000820180546102989061084e565b80601f01602080910402602001604051908101604052809291908181526020018280546102c49061084e565b80156103115780601f106102e657610100808354040283529160200191610311565b820191906000526020600020905b8154815290600101906020018083116102f457829003601f168201915b50505050508152602001600182015481526020016002820160009054906101000a900473ffffffffffffffffffffffffffffffffffffffff1673ffffffffffffffffffffffffffffffffffffffff1673ffffffffffffffffffffffffffffffffffffffff16815250509050806000015181602001518260400151935093509350509193909250565b600181815481106103a957600080fd5b906000526020600020016000915090505481565b60405180606001604052808381526020018281526020013373ffffffffffffffffffffffffffffffffffffffff16815250600080858152602001908152602001600020600082015181600001908051906020019061041c92919061049f565b506020820151816001015560408201518160020160006101000a81548173ffffffffffffffffffffffffffffffffffffffff021916908373ffffffffffffffffffffffffffffffffffffffff1602179055509050506001839080600181540180825580915050600190039060005260206000200160009091909190915055505050565b8280546104ab9061084e565b90600052602060002090601f0160209004810192826104cd5760008555610514565b82601f106104e657805160ff1916838001178555610514565b82800160010185558215610514579182015b828111156105135782518255916020019190600101906104f8565b5b5090506105219190610525565b5090565b5b8082111561053e576000816000905550600101610526565b5090565b600061055561055084610784565b610753565b90508281526020810184848401111561056d57600080fd5b61057884828561080c565b509392505050565b600082601f83011261059157600080fd5b81356105a1848260208601610542565b91505092915050565b6000813590506105b9816108ef565b92915050565b6000602082840312156105d157600080fd5b60006105df848285016105aa565b91505092915050565b600080604083850312156105fb57600080fd5b6000610609858286016105aa565b925050602083013567ffffffffffffffff81111561062657600080fd5b61063285828601610580565b9150509250929050565b60008060006060848603121561065157600080fd5b600061065f868287016105aa565b935050602084013567ffffffffffffffff81111561067c57600080fd5b61068886828701610580565b9250506040610699868287016105aa565b9150509250925092565b6106ac816107d0565b82525050565b60006106bd826107b4565b6106c781856107bf565b93506106d781856020860161081b565b6106e0816108de565b840191505092915050565b6106f481610802565b82525050565b6000606082019050818103600083015261071481866106b2565b905061072360208301856106eb565b61073060408301846106a3565b949350505050565b600060208201905061074d60008301846106eb565b92915050565b6000604051905081810181811067ffffffffffffffff8211171561077a576107796108af565b5b8060405250919050565b600067ffffffffffffffff82111561079f5761079e6108af565b5b601f19601f8301169050602081019050919050565b600081519050919050565b600082825260208201905092915050565b60006107db826107e2565b9050919050565b600073ffffffffffffffffffffffffffffffffffffffff82169050919050565b6000819050919050565b82818337600083830152505050565b60005b8381101561083957808201518184015260208101905061081e565b83811115610848576000848401525b50505050565b6000600282049050600182168061086657607f821691505b6020821081141561087a57610879610880565b5b50919050565b7f4e487b7100000000000000000000000000000000000000000000000000000000600052602260045260246000fd5b7f4e487b7100000000000000000000000000000000000000000000000000000000600052604160045260246000fd5b6000601f19601f8301169050919050565b6108f881610802565b811461090357600080fd5b5056fea2646970667358221220a1363c25cc5ae65e10d42586676ef7063b7b708fd0a65aa7c41d85d403ebff8664736f6c63430008000033",
					"opcodes": "PUSH1 0x80 PUSH1 0x40 MSTORE CALLVALUE DUP1 ISZERO PUSH2 0x10 JUMPI PUSH1 0x0 DUP1 REVERT JUMPDEST POP PUSH2 0x93C DUP1 PUSH2 0x20 PUSH1 0x0 CODECOPY PUSH1 0x0 RETURN INVALID PUSH1 0x80 PUSH1 0x40 MSTORE CALLVALUE DUP1 ISZERO PUSH2 0x10 JUMPI PUSH1 0x0 DUP1 REVERT JUMPDEST POP PUSH1 0x4 CALLDATASIZE LT PUSH2 0x62 JUMPI PUSH1 0x0 CALLDATALOAD PUSH1 0xE0 SHR DUP1 PUSH4 0x45D7117C EQ PUSH2 0x67 JUMPI DUP1 PUSH4 0x53E76F2C EQ PUSH2 0x85 JUMPI DUP1 PUSH4 0x57C8D71D EQ PUSH2 0xA1 JUMPI DUP1 PUSH4 0x65A81D7D EQ PUSH2 0xD3 JUMPI DUP1 PUSH4 0xB682B754 EQ PUSH2 0x105 JUMPI DUP1 PUSH4 0xC1BEA1DB EQ PUSH2 0x135 JUMPI JUMPDEST PUSH1 0x0 DUP1 REVERT JUMPDEST PUSH2 0x6F PUSH2 0x151 JUMP JUMPDEST PUSH1 0x40 MLOAD PUSH2 0x7C SWAP2 SWAP1 PUSH2 0x738 JUMP JUMPDEST PUSH1 0x40 MLOAD DUP1 SWAP2 SUB SWAP1 RETURN JUMPDEST PUSH2 0x9F PUSH1 0x4 DUP1 CALLDATASIZE SUB DUP2 ADD SWAP1 PUSH2 0x9A SWAP2 SWAP1 PUSH2 0x5E8 JUMP JUMPDEST PUSH2 0x15E JUMP JUMPDEST STOP JUMPDEST PUSH2 0xBB PUSH1 0x4 DUP1 CALLDATASIZE SUB DUP2 ADD SWAP1 PUSH2 0xB6 SWAP2 SWAP1 PUSH2 0x5BF JUMP JUMPDEST PUSH2 0x192 JUMP JUMPDEST PUSH1 0x40 MLOAD PUSH2 0xCA SWAP4 SWAP3 SWAP2 SWAP1 PUSH2 0x6FA JUMP JUMPDEST PUSH1 0x40 MLOAD DUP1 SWAP2 SUB SWAP1 RETURN JUMPDEST PUSH2 0xED PUSH1 0x4 DUP1 CALLDATASIZE SUB DUP2 ADD SWAP1 PUSH2 0xE8 SWAP2 SWAP1 PUSH2 0x5BF JUMP JUMPDEST PUSH2 0x264 JUMP JUMPDEST PUSH1 0x40 MLOAD PUSH2 0xFC SWAP4 SWAP3 SWAP2 SWAP1 PUSH2 0x6FA JUMP JUMPDEST PUSH1 0x40 MLOAD DUP1 SWAP2 SUB SWAP1 RETURN JUMPDEST PUSH2 0x11F PUSH1 0x4 DUP1 CALLDATASIZE SUB DUP2 ADD SWAP1 PUSH2 0x11A SWAP2 SWAP1 PUSH2 0x5BF JUMP JUMPDEST PUSH2 0x399 JUMP JUMPDEST PUSH1 0x40 MLOAD PUSH2 0x12C SWAP2 SWAP1 PUSH2 0x738 JUMP JUMPDEST PUSH1 0x40 MLOAD DUP1 SWAP2 SUB SWAP1 RETURN JUMPDEST PUSH2 0x14F PUSH1 0x4 DUP1 CALLDATASIZE SUB DUP2 ADD SWAP1 PUSH2 0x14A SWAP2 SWAP1 PUSH2 0x63C JUMP JUMPDEST PUSH2 0x3BD JUMP JUMPDEST STOP JUMPDEST PUSH1 0x0 PUSH1 0x1 DUP1 SLOAD SWAP1 POP SWAP1 POP SWAP1 JUMP JUMPDEST PUSH1 0x0 DUP1 PUSH1 0x0 DUP5 DUP2 MSTORE PUSH1 0x20 ADD SWAP1 DUP2 MSTORE PUSH1 0x20 ADD PUSH1 0x0 KECCAK256 SWAP1 POP DUP2 DUP2 PUSH1 0x0 ADD SWAP1 DUP1 MLOAD SWAP1 PUSH1 0x20 ADD SWAP1 PUSH2 0x18C SWAP3 SWAP2 SWAP1 PUSH2 0x49F JUMP JUMPDEST POP POP POP POP JUMP JUMPDEST PUSH1 0x0 PUSH1 0x20 MSTORE DUP1 PUSH1 0x0 MSTORE PUSH1 0x40 PUSH1 0x0 KECCAK256 PUSH1 0x0 SWAP2 POP SWAP1 POP DUP1 PUSH1 0x0 ADD DUP1 SLOAD PUSH2 0x1B5 SWAP1 PUSH2 0x84E JUMP JUMPDEST DUP1 PUSH1 0x1F ADD PUSH1 0x20 DUP1 SWAP2 DIV MUL PUSH1 0x20 ADD PUSH1 0x40 MLOAD SWAP1 DUP2 ADD PUSH1 0x40 MSTORE DUP1 SWAP3 SWAP2 SWAP1 DUP2 DUP2 MSTORE PUSH1 0x20 ADD DUP3 DUP1 SLOAD PUSH2 0x1E1 SWAP1 PUSH2 0x84E JUMP JUMPDEST DUP1 ISZERO PUSH2 0x22E JUMPI DUP1 PUSH1 0x1F LT PUSH2 0x203 JUMPI PUSH2 0x100 DUP1 DUP4 SLOAD DIV MUL DUP4 MSTORE SWAP2 PUSH1 0x20 ADD SWAP2 PUSH2 0x22E JUMP JUMPDEST DUP3 ADD SWAP2 SWAP1 PUSH1 0x0 MSTORE PUSH1 0x20 PUSH1 0x0 KECCAK256 SWAP1 JUMPDEST DUP2 SLOAD DUP2 MSTORE SWAP1 PUSH1 0x1 ADD SWAP1 PUSH1 0x20 ADD DUP1 DUP4 GT PUSH2 0x211 JUMPI DUP3 SWAP1 SUB PUSH1 0x1F AND DUP3 ADD SWAP2 JUMPDEST POP POP POP POP POP SWAP1 DUP1 PUSH1 0x1 ADD SLOAD SWAP1 DUP1 PUSH1 0x2 ADD PUSH1 0x0 SWAP1 SLOAD SWAP1 PUSH2 0x100 EXP SWAP1 DIV PUSH20 0xFFFFFFFFFFFFFFFFFFFFFFFFFFFFFFFFFFFFFFFF AND SWAP1 POP DUP4 JUMP JUMPDEST PUSH1 0x60 PUSH1 0x0 DUP1 PUSH1 0x0 DUP1 PUSH1 0x0 DUP7 DUP2 MSTORE PUSH1 0x20 ADD SWAP1 DUP2 MSTORE PUSH1 0x20 ADD PUSH1 0x0 KECCAK256 PUSH1 0x40 MLOAD DUP1 PUSH1 0x60 ADD PUSH1 0x40 MSTORE SWAP1 DUP2 PUSH1 0x0 DUP3 ADD DUP1 SLOAD PUSH2 0x298 SWAP1 PUSH2 0x84E JUMP JUMPDEST DUP1 PUSH1 0x1F ADD PUSH1 0x20 DUP1 SWAP2 DIV MUL PUSH1 0x20 ADD PUSH1 0x40 MLOAD SWAP1 DUP2 ADD PUSH1 0x40 MSTORE DUP1 SWAP3 SWAP2 SWAP1 DUP2 DUP2 MSTORE PUSH1 0x20 ADD DUP3 DUP1 SLOAD PUSH2 0x2C4 SWAP1 PUSH2 0x84E JUMP JUMPDEST DUP1 ISZERO PUSH2 0x311 JUMPI DUP1 PUSH1 0x1F LT PUSH2 0x2E6 JUMPI PUSH2 0x100 DUP1 DUP4 SLOAD DIV MUL DUP4 MSTORE SWAP2 PUSH1 0x20 ADD SWAP2 PUSH2 0x311 JUMP JUMPDEST DUP3 ADD SWAP2 SWAP1 PUSH1 0x0 MSTORE PUSH1 0x20 PUSH1 0x0 KECCAK256 SWAP1 JUMPDEST DUP2 SLOAD DUP2 MSTORE SWAP1 PUSH1 0x1 ADD SWAP1 PUSH1 0x20 ADD DUP1 DUP4 GT PUSH2 0x2F4 JUMPI DUP3 SWAP1 SUB PUSH1 0x1F AND DUP3 ADD SWAP2 JUMPDEST POP POP POP POP POP DUP2 MSTORE PUSH1 0x20 ADD PUSH1 0x1 DUP3 ADD SLOAD DUP2 MSTORE PUSH1 0x20 ADD PUSH1 0x2 DUP3 ADD PUSH1 0x0 SWAP1 SLOAD SWAP1 PUSH2 0x100 EXP SWAP1 DIV PUSH20 0xFFFFFFFFFFFFFFFFFFFFFFFFFFFFFFFFFFFFFFFF AND PUSH20 0xFFFFFFFFFFFFFFFFFFFFFFFFFFFFFFFFFFFFFFFF AND PUSH20 0xFFFFFFFFFFFFFFFFFFFFFFFFFFFFFFFFFFFFFFFF AND DUP2 MSTORE POP POP SWAP1 POP DUP1 PUSH1 0x0 ADD MLOAD DUP2 PUSH1 0x20 ADD MLOAD DUP3 PUSH1 0x40 ADD MLOAD SWAP4 POP SWAP4 POP SWAP4 POP POP SWAP2 SWAP4 SWAP1 SWAP3 POP JUMP JUMPDEST PUSH1 0x1 DUP2 DUP2 SLOAD DUP2 LT PUSH2 0x3A9 JUMPI PUSH1 0x0 DUP1 REVERT JUMPDEST SWAP1 PUSH1 0x0 MSTORE PUSH1 0x20 PUSH1 0x0 KECCAK256 ADD PUSH1 0x0 SWAP2 POP SWAP1 POP SLOAD DUP2 JUMP JUMPDEST PUSH1 0x40 MLOAD DUP1 PUSH1 0x60 ADD PUSH1 0x40 MSTORE DUP1 DUP4 DUP2 MSTORE PUSH1 0x20 ADD DUP3 DUP2 MSTORE PUSH1 0x20 ADD CALLER PUSH20 0xFFFFFFFFFFFFFFFFFFFFFFFFFFFFFFFFFFFFFFFF AND DUP2 MSTORE POP PUSH1 0x0 DUP1 DUP6 DUP2 MSTORE PUSH1 0x20 ADD SWAP1 DUP2 MSTORE PUSH1 0x20 ADD PUSH1 0x0 KECCAK256 PUSH1 0x0 DUP3 ADD MLOAD DUP2 PUSH1 0x0 ADD SWAP1 DUP1 MLOAD SWAP1 PUSH1 0x20 ADD SWAP1 PUSH2 0x41C SWAP3 SWAP2 SWAP1 PUSH2 0x49F JUMP JUMPDEST POP PUSH1 0x20 DUP3 ADD MLOAD DUP2 PUSH1 0x1 ADD SSTORE PUSH1 0x40 DUP3 ADD MLOAD DUP2 PUSH1 0x2 ADD PUSH1 0x0 PUSH2 0x100 EXP DUP2 SLOAD DUP2 PUSH20 0xFFFFFFFFFFFFFFFFFFFFFFFFFFFFFFFFFFFFFFFF MUL NOT AND SWAP1 DUP4 PUSH20 0xFFFFFFFFFFFFFFFFFFFFFFFFFFFFFFFFFFFFFFFF AND MUL OR SWAP1 SSTORE POP SWAP1 POP POP PUSH1 0x1 DUP4 SWAP1 DUP1 PUSH1 0x1 DUP2 SLOAD ADD DUP1 DUP3 SSTORE DUP1 SWAP2 POP POP PUSH1 0x1 SWAP1 SUB SWAP1 PUSH1 0x0 MSTORE PUSH1 0x20 PUSH1 0x0 KECCAK256 ADD PUSH1 0x0 SWAP1 SWAP2 SWAP1 SWAP2 SWAP1 SWAP2 POP SSTORE POP POP POP JUMP JUMPDEST DUP3 DUP1 SLOAD PUSH2 0x4AB SWAP1 PUSH2 0x84E JUMP JUMPDEST SWAP1 PUSH1 0x0 MSTORE PUSH1 0x20 PUSH1 0x0 KECCAK256 SWAP1 PUSH1 0x1F ADD PUSH1 0x20 SWAP1 DIV DUP2 ADD SWAP3 DUP3 PUSH2 0x4CD JUMPI PUSH1 0x0 DUP6 SSTORE PUSH2 0x514 JUMP JUMPDEST DUP3 PUSH1 0x1F LT PUSH2 0x4E6 JUMPI DUP1 MLOAD PUSH1 0xFF NOT AND DUP4 DUP1 ADD OR DUP6 SSTORE PUSH2 0x514 JUMP JUMPDEST DUP3 DUP1 ADD PUSH1 0x1 ADD DUP6 SSTORE DUP3 ISZERO PUSH2 0x514 JUMPI SWAP2 DUP3 ADD JUMPDEST DUP3 DUP2 GT ISZERO PUSH2 0x513 JUMPI DUP3 MLOAD DUP3 SSTORE SWAP2 PUSH1 0x20 ADD SWAP2 SWAP1 PUSH1 0x1 ADD SWAP1 PUSH2 0x4F8 JUMP JUMPDEST JUMPDEST POP SWAP1 POP PUSH2 0x521 SWAP2 SWAP1 PUSH2 0x525 JUMP JUMPDEST POP SWAP1 JUMP JUMPDEST JUMPDEST DUP1 DUP3 GT ISZERO PUSH2 0x53E JUMPI PUSH1 0x0 DUP2 PUSH1 0x0 SWAP1 SSTORE POP PUSH1 0x1 ADD PUSH2 0x526 JUMP JUMPDEST POP SWAP1 JUMP JUMPDEST PUSH1 0x0 PUSH2 0x555 PUSH2 0x550 DUP5 PUSH2 0x784 JUMP JUMPDEST PUSH2 0x753 JUMP JUMPDEST SWAP1 POP DUP3 DUP2 MSTORE PUSH1 0x20 DUP2 ADD DUP5 DUP5 DUP5 ADD GT ISZERO PUSH2 0x56D JUMPI PUSH1 0x0 DUP1 REVERT JUMPDEST PUSH2 0x578 DUP5 DUP3 DUP6 PUSH2 0x80C JUMP JUMPDEST POP SWAP4 SWAP3 POP POP POP JUMP JUMPDEST PUSH1 0x0 DUP3 PUSH1 0x1F DUP4 ADD SLT PUSH2 0x591 JUMPI PUSH1 0x0 DUP1 REVERT JUMPDEST DUP2 CALLDATALOAD PUSH2 0x5A1 DUP5 DUP3 PUSH1 0x20 DUP7 ADD PUSH2 0x542 JUMP JUMPDEST SWAP2 POP POP SWAP3 SWAP2 POP POP JUMP JUMPDEST PUSH1 0x0 DUP2 CALLDATALOAD SWAP1 POP PUSH2 0x5B9 DUP2 PUSH2 0x8EF JUMP JUMPDEST SWAP3 SWAP2 POP POP JUMP JUMPDEST PUSH1 0x0 PUSH1 0x20 DUP3 DUP5 SUB SLT ISZERO PUSH2 0x5D1 JUMPI PUSH1 0x0 DUP1 REVERT JUMPDEST PUSH1 0x0 PUSH2 0x5DF DUP5 DUP3 DUP6 ADD PUSH2 0x5AA JUMP JUMPDEST SWAP2 POP POP SWAP3 SWAP2 POP POP JUMP JUMPDEST PUSH1 0x0 DUP1 PUSH1 0x40 DUP4 DUP6 SUB SLT ISZERO PUSH2 0x5FB JUMPI PUSH1 0x0 DUP1 REVERT JUMPDEST PUSH1 0x0 PUSH2 0x609 DUP6 DUP3 DUP7 ADD PUSH2 0x5AA JUMP JUMPDEST SWAP3 POP POP PUSH1 0x20 DUP4 ADD CALLDATALOAD PUSH8 0xFFFFFFFFFFFFFFFF DUP2 GT ISZERO PUSH2 0x626 JUMPI PUSH1 0x0 DUP1 REVERT JUMPDEST PUSH2 0x632 DUP6 DUP3 DUP7 ADD PUSH2 0x580 JUMP JUMPDEST SWAP2 POP POP SWAP3 POP SWAP3 SWAP1 POP JUMP JUMPDEST PUSH1 0x0 DUP1 PUSH1 0x0 PUSH1 0x60 DUP5 DUP7 SUB SLT ISZERO PUSH2 0x651 JUMPI PUSH1 0x0 DUP1 REVERT JUMPDEST PUSH1 0x0 PUSH2 0x65F DUP7 DUP3 DUP8 ADD PUSH2 0x5AA JUMP JUMPDEST SWAP4 POP POP PUSH1 0x20 DUP5 ADD CALLDATALOAD PUSH8 0xFFFFFFFFFFFFFFFF DUP2 GT ISZERO PUSH2 0x67C JUMPI PUSH1 0x0 DUP1 REVERT JUMPDEST PUSH2 0x688 DUP7 DUP3 DUP8 ADD PUSH2 0x580 JUMP JUMPDEST SWAP3 POP POP PUSH1 0x40 PUSH2 0x699 DUP7 DUP3 DUP8 ADD PUSH2 0x5AA JUMP JUMPDEST SWAP2 POP POP SWAP3 POP SWAP3 POP SWAP3 JUMP JUMPDEST PUSH2 0x6AC DUP2 PUSH2 0x7D0 JUMP JUMPDEST DUP3 MSTORE POP POP JUMP JUMPDEST PUSH1 0x0 PUSH2 0x6BD DUP3 PUSH2 0x7B4 JUMP JUMPDEST PUSH2 0x6C7 DUP2 DUP6 PUSH2 0x7BF JUMP JUMPDEST SWAP4 POP PUSH2 0x6D7 DUP2 DUP6 PUSH1 0x20 DUP7 ADD PUSH2 0x81B JUMP JUMPDEST PUSH2 0x6E0 DUP2 PUSH2 0x8DE JUMP JUMPDEST DUP5 ADD SWAP2 POP POP SWAP3 SWAP2 POP POP JUMP JUMPDEST PUSH2 0x6F4 DUP2 PUSH2 0x802 JUMP JUMPDEST DUP3 MSTORE POP POP JUMP JUMPDEST PUSH1 0x0 PUSH1 0x60 DUP3 ADD SWAP1 POP DUP2 DUP2 SUB PUSH1 0x0 DUP4 ADD MSTORE PUSH2 0x714 DUP2 DUP7 PUSH2 0x6B2 JUMP JUMPDEST SWAP1 POP PUSH2 0x723 PUSH1 0x20 DUP4 ADD DUP6 PUSH2 0x6EB JUMP JUMPDEST PUSH2 0x730 PUSH1 0x40 DUP4 ADD DUP5 PUSH2 0x6A3 JUMP JUMPDEST SWAP5 SWAP4 POP POP POP POP JUMP JUMPDEST PUSH1 0x0 PUSH1 0x20 DUP3 ADD SWAP1 POP PUSH2 0x74D PUSH1 0x0 DUP4 ADD DUP5 PUSH2 0x6EB JUMP JUMPDEST SWAP3 SWAP2 POP POP JUMP JUMPDEST PUSH1 0x0 PUSH1 0x40 MLOAD SWAP1 POP DUP2 DUP2 ADD DUP2 DUP2 LT PUSH8 0xFFFFFFFFFFFFFFFF DUP3 GT OR ISZERO PUSH2 0x77A JUMPI PUSH2 0x779 PUSH2 0x8AF JUMP JUMPDEST JUMPDEST DUP1 PUSH1 0x40 MSTORE POP SWAP2 SWAP1 POP JUMP JUMPDEST PUSH1 0x0 PUSH8 0xFFFFFFFFFFFFFFFF DUP3 GT ISZERO PUSH2 0x79F JUMPI PUSH2 0x79E PUSH2 0x8AF JUMP JUMPDEST JUMPDEST PUSH1 0x1F NOT PUSH1 0x1F DUP4 ADD AND SWAP1 POP PUSH1 0x20 DUP2 ADD SWAP1 POP SWAP2 SWAP1 POP JUMP JUMPDEST PUSH1 0x0 DUP2 MLOAD SWAP1 POP SWAP2 SWAP1 POP JUMP JUMPDEST PUSH1 0x0 DUP3 DUP3 MSTORE PUSH1 0x20 DUP3 ADD SWAP1 POP SWAP3 SWAP2 POP POP JUMP JUMPDEST PUSH1 0x0 PUSH2 0x7DB DUP3 PUSH2 0x7E2 JUMP JUMPDEST SWAP1 POP SWAP2 SWAP1 POP JUMP JUMPDEST PUSH1 0x0 PUSH20 0xFFFFFFFFFFFFFFFFFFFFFFFFFFFFFFFFFFFFFFFF DUP3 AND SWAP1 POP SWAP2 SWAP1 POP JUMP JUMPDEST PUSH1 0x0 DUP2 SWAP1 POP SWAP2 SWAP1 POP JUMP JUMPDEST DUP3 DUP2 DUP4 CALLDATACOPY PUSH1 0x0 DUP4 DUP4 ADD MSTORE POP POP POP JUMP JUMPDEST PUSH1 0x0 JUMPDEST DUP4 DUP2 LT ISZERO PUSH2 0x839 JUMPI DUP1 DUP3 ADD MLOAD DUP2 DUP5 ADD MSTORE PUSH1 0x20 DUP2 ADD SWAP1 POP PUSH2 0x81E JUMP JUMPDEST DUP4 DUP2 GT ISZERO PUSH2 0x848 JUMPI PUSH1 0x0 DUP5 DUP5 ADD MSTORE JUMPDEST POP POP POP POP JUMP JUMPDEST PUSH1 0x0 PUSH1 0x2 DUP3 DIV SWAP1 POP PUSH1 0x1 DUP3 AND DUP1 PUSH2 0x866 JUMPI PUSH1 0x7F DUP3 AND SWAP2 POP JUMPDEST PUSH1 0x20 DUP3 LT DUP2 EQ ISZERO PUSH2 0x87A JUMPI PUSH2 0x879 PUSH2 0x880 JUMP JUMPDEST JUMPDEST POP SWAP2 SWAP1 POP JUMP JUMPDEST PUSH32 0x4E487B7100000000000000000000000000000000000000000000000000000000 PUSH1 0x0 MSTORE PUSH1 0x22 PUSH1 0x4 MSTORE PUSH1 0x24 PUSH1 0x0 REVERT JUMPDEST PUSH32 0x4E487B7100000000000000000000000000000000000000000000000000000000 PUSH1 0x0 MSTORE PUSH1 0x41 PUSH1 0x4 MSTORE PUSH1 0x24 PUSH1 0x0 REVERT JUMPDEST PUSH1 0x0 PUSH1 0x1F NOT PUSH1 0x1F DUP4 ADD AND SWAP1 POP SWAP2 SWAP1 POP JUMP JUMPDEST PUSH2 0x8F8 DUP2 PUSH2 0x802 JUMP JUMPDEST DUP2 EQ PUSH2 0x903 JUMPI PUSH1 0x0 DUP1 REVERT JUMPDEST POP JUMP INVALID LOG2 PUSH5 0x6970667358 0x22 SLT KECCAK256 LOG1 CALLDATASIZE EXTCODECOPY 0x25 0xCC GAS 0xE6 0x5E LT 0xD4 0x25 DUP7 PUSH8 0x6EF7063B7B708FD0 0xA6 GAS 0xA7 0xC4 SAR DUP6 0xD4 SUB 0xEB SELFDESTRUCT DUP7 PUSH5 0x736F6C6343 STOP ADDMOD STOP STOP CALLER "
				},
				"gasEstimates": {
					"creation": {
						"codeDepositCost": "472800",
						"executionCost": "505",
						"totalCost": "473305"
					},
					"external": {
						"Roll(uint256)": "infinite",
						"Students(uint256)": "infinite",
						"TotalStudent()": "1123",
						"addStudent(uint256,string,uint256)": "infinite",
						"getStudentInfo(uint256)": "infinite",
						"updateName(uint256,string)": "infinite"
					}
				},
				"methodIdentifiers": {
					"Roll(uint256)": "b682b754",
					"Students(uint256)": "57c8d71d",
					"TotalStudent()": "45d7117c",
					"addStudent(uint256,string,uint256)": "c1bea1db",
					"getStudentInfo(uint256)": "65a81d7d",
					"updateName(uint256,string)": "53e76f2c"
				}
			},
			"storageLayout": {
				"storage": [
					{
						"astId": 13,
						"contract": "contract/GPTStudentRecordSystem.sol:StudentRecordSystem",
						"label": "Students",
						"offset": 0,
						"slot": "0",
						"type": "t_mapping(t_uint256,t_struct(Student)8_storage)"
					},
					{
						"astId": 16,
						"contract": "contract/GPTStudentRecordSystem.sol:StudentRecordSystem",
						"label": "Roll",
						"offset": 0,
						"slot": "1",
						"type": "t_array(t_uint256)dyn_storage"
					}
				],
				"types": {
					"t_address": {
						"encoding": "inplace",
						"label": "address",
						"numberOfBytes": "20"
					},
					"t_array(t_uint256)dyn_storage": {
						"base": "t_uint256",
						"encoding": "dynamic_array",
						"label": "uint256[]",
						"numberOfBytes": "32"
					},
					"t_mapping(t_uint256,t_struct(Student)8_storage)": {
						"encoding": "mapping",
						"key": "t_uint256",
						"label": "mapping(uint256 => struct StudentRecordSystem.Student)",
						"numberOfBytes": "32",
						"value": "t_struct(Student)8_storage"
					},
					"t_string_storage": {
						"encoding": "bytes",
						"label": "string",
						"numberOfBytes": "32"
					},
					"t_struct(Student)8_storage": {
						"encoding": "inplace",
						"label": "struct StudentRecordSystem.Student",
						"members": [
							{
								"astId": 3,
								"contract": "contract/GPTStudentRecordSystem.sol:StudentRecordSystem",
								"label": "name",
								"offset": 0,
								"slot": "0",
								"type": "t_string_storage"
							},
							{
								"astId": 5,
								"contract": "contract/GPTStudentRecordSystem.sol:StudentRecordSystem",
								"label": "age",
								"offset": 0,
								"slot": "1",
								"type": "t_uint256"
							},
							{
								"astId": 7,
								"contract": "contract/GPTStudentRecordSystem.sol:StudentRecordSystem",
								"label": "wallet",
								"offset": 0,
								"slot": "2",
								"type": "t_address"
							}
						],
						"numberOfBytes": "96"
					},
					"t_uint256": {
						"encoding": "inplace",
						"label": "uint256",
						"numberOfBytes": "32"
					}
				}
			},
			"userdoc": {
				"kind": "user",
				"methods": {},
				"version": 1
			}
		}
	}
}