{
	"contract/gpt.sol": {
		"Marketplace": {
			"abi": [
				{
					"anonymous": false,
					"inputs": [
						{
							"indexed": true,
							"internalType": "uint256",
							"name": "orderId",
							"type": "uint256"
						},
						{
							"indexed": true,
							"internalType": "address",
							"name": "buyer",
							"type": "address"
						},
						{
							"indexed": true,
							"internalType": "uint256",
							"name": "productId",
							"type": "uint256"
						},
						{
							"indexed": false,
							"internalType": "uint256",
							"name": "amount",
							"type": "uint256"
						}
					],
					"name": "OrderCreated",
					"type": "event"
				},
				{
					"anonymous": false,
					"inputs": [
						{
							"indexed": true,
							"internalType": "uint256",
							"name": "orderId",
							"type": "uint256"
						},
						{
							"indexed": false,
							"internalType": "enum Marketplace.OrderStatus",
							"name": "newStatus",
							"type": "uint8"
						}
					],
					"name": "OrderStatusUpdated",
					"type": "event"
				},
				{
					"inputs": [
						{
							"internalType": "uint256",
							"name": "price",
							"type": "uint256"
						}
					],
					"name": "addProduct",
					"outputs": [],
					"stateMutability": "nonpayable",
					"type": "function"
				},
				{
					"inputs": [
						{
							"internalType": "uint256",
							"name": "productId",
							"type": "uint256"
						}
					],
					"name": "createOrder",
					"outputs": [],
					"stateMutability": "payable",
					"type": "function"
				},
				{
					"inputs": [
						{
							"internalType": "uint256",
							"name": "",
							"type": "uint256"
						}
					],
					"name": "orders",
					"outputs": [
						{
							"internalType": "address",
							"name": "buyer",
							"type": "address"
						},
						{
							"internalType": "uint256",
							"name": "productId",
							"type": "uint256"
						},
						{
							"internalType": "enum Marketplace.OrderStatus",
							"name": "status",
							"type": "uint8"
						},
						{
							"internalType": "uint256",
							"name": "deadline",
							"type": "uint256"
						}
					],
					"stateMutability": "view",
					"type": "function"
				},
				{
					"inputs": [
						{
							"internalType": "uint256",
							"name": "",
							"type": "uint256"
						}
					],
					"name": "productById",
					"outputs": [
						{
							"internalType": "uint256",
							"name": "id",
							"type": "uint256"
						},
						{
							"internalType": "uint256",
							"name": "price",
							"type": "uint256"
						},
						{
							"internalType": "address",
							"name": "seller",
							"type": "address"
						},
						{
							"internalType": "bool",
							"name": "isAvailable",
							"type": "bool"
						}
					],
					"stateMutability": "view",
					"type": "function"
				},
				{
					"inputs": [
						{
							"internalType": "uint256",
							"name": "",
							"type": "uint256"
						}
					],
					"name": "products",
					"outputs": [
						{
							"internalType": "uint256",
							"name": "id",
							"type": "uint256"
						},
						{
							"internalType": "uint256",
							"name": "price",
							"type": "uint256"
						},
						{
							"internalType": "address",
							"name": "seller",
							"type": "address"
						},
						{
							"internalType": "bool",
							"name": "isAvailable",
							"type": "bool"
						}
					],
					"stateMutability": "view",
					"type": "function"
				},
				{
					"inputs": [
						{
							"internalType": "uint256",
							"name": "orderId",
							"type": "uint256"
						},
						{
							"internalType": "enum Marketplace.OrderStatus",
							"name": "newStatus",
							"type": "uint8"
						}
					],
					"name": "updateOrderStatus",
					"outputs": [],
					"stateMutability": "nonpayable",
					"type": "function"
				}
			],
			"devdoc": {
				"kind": "dev",
				"methods": {},
				"version": 1
			},
			"evm": {
				"assembly": "    /* \"contract/gpt.sol\":61:3295  contract Marketplace {... */\n  mstore(0x40, 0x80)\n  callvalue\n  dup1\n  iszero\n  tag_1\n  jumpi\n  revert(0x00, 0x00)\ntag_1:\n  pop\n  dataSize(sub_0)\n  dup1\n  dataOffset(sub_0)\n  0x00\n  codecopy\n  0x00\n  return\nstop\n\nsub_0: assembly {\n        /* \"contract/gpt.sol\":61:3295  contract Marketplace {... */\n      mstore(0x40, 0x80)\n      jumpi(tag_1, lt(calldatasize, 0x04))\n      shr(0xe0, calldataload(0x00))\n      dup1\n      0x327a48cc\n      eq\n      tag_2\n      jumpi\n      dup1\n      0x7acc0b20\n      eq\n      tag_3\n      jumpi\n      dup1\n      0xa30b475f\n      eq\n      tag_4\n      jumpi\n      dup1\n      0xa85c38ef\n      eq\n      tag_5\n      jumpi\n      dup1\n      0xaab3196d\n      eq\n      tag_6\n      jumpi\n      dup1\n      0xf8ad8cd7\n      eq\n      tag_7\n      jumpi\n    tag_1:\n      revert(0x00, 0x00)\n        /* \"contract/gpt.sol\":906:1225  function addProduct(uint256 price) external {... */\n    tag_2:\n      callvalue\n      dup1\n      iszero\n      tag_8\n      jumpi\n      revert(0x00, 0x00)\n    tag_8:\n      pop\n      tag_9\n      0x04\n      dup1\n      calldatasize\n      sub\n      dup2\n      add\n      swap1\n      tag_10\n      swap2\n      swap1\n      tag_11\n      jump\t// in\n    tag_10:\n      tag_12\n      jump\t// in\n    tag_9:\n      stop\n        /* \"contract/gpt.sol\":452:477  Product[] public products */\n    tag_3:\n      callvalue\n      dup1\n      iszero\n      tag_13\n      jumpi\n      revert(0x00, 0x00)\n    tag_13:\n      pop\n      tag_14\n      0x04\n      dup1\n      calldatasize\n      sub\n      dup2\n      add\n      swap1\n      tag_15\n      swap2\n      swap1\n      tag_11\n      jump\t// in\n    tag_15:\n      tag_16\n      jump\t// in\n    tag_14:\n      mload(0x40)\n      tag_17\n      swap5\n      swap4\n      swap3\n      swap2\n      swap1\n      tag_18\n      jump\t// in\n    tag_17:\n      mload(0x40)\n      dup1\n      swap2\n      sub\n      swap1\n      return\n        /* \"contract/gpt.sol\":484:530  mapping(uint256 => Product) public productById */\n    tag_4:\n      callvalue\n      dup1\n      iszero\n      tag_19\n      jumpi\n      revert(0x00, 0x00)\n    tag_19:\n      pop\n      tag_20\n      0x04\n      dup1\n      calldatasize\n      sub\n      dup2\n      add\n      swap1\n      tag_21\n      swap2\n      swap1\n      tag_11\n      jump\t// in\n    tag_21:\n      tag_22\n      jump\t// in\n    tag_20:\n      mload(0x40)\n      tag_23\n      swap5\n      swap4\n      swap3\n      swap2\n      swap1\n      tag_18\n      jump\t// in\n    tag_23:\n      mload(0x40)\n      dup1\n      swap2\n      sub\n      swap1\n      return\n        /* \"contract/gpt.sol\":537:576  mapping(uint256 => Order) public orders */\n    tag_5:\n      callvalue\n      dup1\n      iszero\n      tag_24\n      jumpi\n      revert(0x00, 0x00)\n    tag_24:\n      pop\n      tag_25\n      0x04\n      dup1\n      calldatasize\n      sub\n      dup2\n      add\n      swap1\n      tag_26\n      swap2\n      swap1\n      tag_11\n      jump\t// in\n    tag_26:\n      tag_27\n      jump\t// in\n    tag_25:\n      mload(0x40)\n      tag_28\n      swap5\n      swap4\n      swap3\n      swap2\n      swap1\n      tag_29\n      jump\t// in\n    tag_28:\n      mload(0x40)\n      dup1\n      swap2\n      sub\n      swap1\n      return\n        /* \"contract/gpt.sol\":2004:2746  function updateOrderStatus(uint256 orderId, OrderStatus newStatus) external {... */\n    tag_6:\n      callvalue\n      dup1\n      iszero\n      tag_30\n      jumpi\n      revert(0x00, 0x00)\n    tag_30:\n      pop\n      tag_31\n      0x04\n      dup1\n      calldatasize\n      sub\n      dup2\n      add\n      swap1\n      tag_32\n      swap2\n      swap1\n      tag_33\n      jump\t// in\n    tag_32:\n      tag_34\n      jump\t// in\n    tag_31:\n      stop\n        /* \"contract/gpt.sol\":1264:1968  function createOrder(uint256 productId) external payable {... */\n    tag_7:\n      tag_35\n      0x04\n      dup1\n      calldatasize\n      sub\n      dup2\n      add\n      swap1\n      tag_36\n      swap2\n      swap1\n      tag_11\n      jump\t// in\n    tag_36:\n      tag_37\n      jump\t// in\n    tag_35:\n      stop\n        /* \"contract/gpt.sol\":906:1225  function addProduct(uint256 price) external {... */\n    tag_12:\n        /* \"contract/gpt.sol\":961:978  uint256 productId */\n      0x00\n        /* \"contract/gpt.sol\":981:989  products */\n      0x00\n        /* \"contract/gpt.sol\":981:996  products.length */\n      dup1\n      sload\n      swap1\n      pop\n        /* \"contract/gpt.sol\":961:996  uint256 productId = products.length */\n      swap1\n      pop\n        /* \"contract/gpt.sol\":1007:1015  products */\n      0x00\n        /* \"contract/gpt.sol\":1021:1161  Product({... */\n      mload(0x40)\n      dup1\n      0x80\n      add\n      0x40\n      mstore\n      dup1\n        /* \"contract/gpt.sol\":1048:1057  productId */\n      dup4\n        /* \"contract/gpt.sol\":1021:1161  Product({... */\n      dup2\n      mstore\n      0x20\n      add\n        /* \"contract/gpt.sol\":1079:1084  price */\n      dup5\n        /* \"contract/gpt.sol\":1021:1161  Product({... */\n      dup2\n      mstore\n      0x20\n      add\n        /* \"contract/gpt.sol\":1107:1117  msg.sender */\n      caller\n        /* \"contract/gpt.sol\":1021:1161  Product({... */\n      0xffffffffffffffffffffffffffffffffffffffff\n      and\n      dup2\n      mstore\n      0x20\n      add\n        /* \"contract/gpt.sol\":1145:1149  true */\n      0x01\n        /* \"contract/gpt.sol\":1021:1161  Product({... */\n      iszero\n      iszero\n      dup2\n      mstore\n      pop\n        /* \"contract/gpt.sol\":1007:1162  products.push(Product({... */\n      swap1\n      dup1\n      0x01\n      dup2\n      sload\n      add\n      dup1\n      dup3\n      sstore\n      dup1\n      swap2\n      pop\n      pop\n      0x01\n      swap1\n      sub\n      swap1\n      0x00\n      mstore\n      keccak256(0x00, 0x20)\n      swap1\n      0x03\n      mul\n      add\n      0x00\n      swap1\n      swap2\n      swap1\n      swap2\n      swap1\n      swap2\n      pop\n      0x00\n      dup3\n      add\n      mload\n      dup2\n      0x00\n      add\n      sstore\n      0x20\n      dup3\n      add\n      mload\n      dup2\n      0x01\n      add\n      sstore\n      0x40\n      dup3\n      add\n      mload\n      dup2\n      0x02\n      add\n      exp(0x0100, 0x00)\n      dup2\n      sload\n      dup2\n      0xffffffffffffffffffffffffffffffffffffffff\n      mul\n      not\n      and\n      swap1\n      dup4\n      0xffffffffffffffffffffffffffffffffffffffff\n      and\n      mul\n      or\n      swap1\n      sstore\n      pop\n      0x60\n      dup3\n      add\n      mload\n      dup2\n      0x02\n      add\n      exp(0x0100, 0x14)\n      dup2\n      sload\n      dup2\n      0xff\n      mul\n      not\n      and\n      swap1\n      dup4\n      iszero\n      iszero\n      mul\n      or\n      swap1\n      sstore\n      pop\n      pop\n      pop\n        /* \"contract/gpt.sol\":1198:1206  products */\n      0x00\n        /* \"contract/gpt.sol\":1207:1216  productId */\n      dup2\n        /* \"contract/gpt.sol\":1198:1217  products[productId] */\n      dup2\n      sload\n      dup2\n      lt\n      tag_40\n      jumpi\n      tag_41\n      tag_42\n      jump\t// in\n    tag_41:\n    tag_40:\n      swap1\n      0x00\n      mstore\n      keccak256(0x00, 0x20)\n      swap1\n      0x03\n      mul\n      add\n        /* \"contract/gpt.sol\":1173:1184  productById */\n      0x01\n        /* \"contract/gpt.sol\":1173:1195  productById[productId] */\n      0x00\n        /* \"contract/gpt.sol\":1185:1194  productId */\n      dup4\n        /* \"contract/gpt.sol\":1173:1195  productById[productId] */\n      dup2\n      mstore\n      0x20\n      add\n      swap1\n      dup2\n      mstore\n      0x20\n      add\n      0x00\n      keccak256\n        /* \"contract/gpt.sol\":1173:1217  productById[productId] = products[productId] */\n      0x00\n      dup3\n      add\n      sload\n      dup2\n      0x00\n      add\n      sstore\n      0x01\n      dup3\n      add\n      sload\n      dup2\n      0x01\n      add\n      sstore\n      0x02\n      dup3\n      add\n      0x00\n      swap1\n      sload\n      swap1\n      0x0100\n      exp\n      swap1\n      div\n      0xffffffffffffffffffffffffffffffffffffffff\n      and\n      dup2\n      0x02\n      add\n      exp(0x0100, 0x00)\n      dup2\n      sload\n      dup2\n      0xffffffffffffffffffffffffffffffffffffffff\n      mul\n      not\n      and\n      swap1\n      dup4\n      0xffffffffffffffffffffffffffffffffffffffff\n      and\n      mul\n      or\n      swap1\n      sstore\n      pop\n      0x02\n      dup3\n      add\n      0x14\n      swap1\n      sload\n      swap1\n      0x0100\n      exp\n      swap1\n      div\n      0xff\n      and\n      dup2\n      0x02\n      add\n      exp(0x0100, 0x14)\n      dup2\n      sload\n      dup2\n      0xff\n      mul\n      not\n      and\n      swap1\n      dup4\n      iszero\n      iszero\n      mul\n      or\n      swap1\n      sstore\n      pop\n      swap1\n      pop\n      pop\n        /* \"contract/gpt.sol\":950:1225  {... */\n      pop\n        /* \"contract/gpt.sol\":906:1225  function addProduct(uint256 price) external {... */\n      pop\n      jump\t// out\n        /* \"contract/gpt.sol\":452:477  Product[] public products */\n    tag_16:\n      0x00\n      dup2\n      dup2\n      sload\n      dup2\n      lt\n      tag_44\n      jumpi\n      0x00\n      dup1\n      revert\n    tag_44:\n      swap1\n      0x00\n      mstore\n      keccak256(0x00, 0x20)\n      swap1\n      0x03\n      mul\n      add\n      0x00\n      swap2\n      pop\n      swap1\n      pop\n      dup1\n      0x00\n      add\n      sload\n      swap1\n      dup1\n      0x01\n      add\n      sload\n      swap1\n      dup1\n      0x02\n      add\n      0x00\n      swap1\n      sload\n      swap1\n      0x0100\n      exp\n      swap1\n      div\n      0xffffffffffffffffffffffffffffffffffffffff\n      and\n      swap1\n      dup1\n      0x02\n      add\n      0x14\n      swap1\n      sload\n      swap1\n      0x0100\n      exp\n      swap1\n      div\n      0xff\n      and\n      swap1\n      pop\n      dup5\n      jump\t// out\n        /* \"contract/gpt.sol\":484:530  mapping(uint256 => Product) public productById */\n    tag_22:\n      mstore(0x20, 0x01)\n      dup1\n      0x00\n      mstore\n      keccak256(0x00, 0x40)\n      0x00\n      swap2\n      pop\n      swap1\n      pop\n      dup1\n      0x00\n      add\n      sload\n      swap1\n      dup1\n      0x01\n      add\n      sload\n      swap1\n      dup1\n      0x02\n      add\n      0x00\n      swap1\n      sload\n      swap1\n      0x0100\n      exp\n      swap1\n      div\n      0xffffffffffffffffffffffffffffffffffffffff\n      and\n      swap1\n      dup1\n      0x02\n      add\n      0x14\n      swap1\n      sload\n      swap1\n      0x0100\n      exp\n      swap1\n      div\n      0xff\n      and\n      swap1\n      pop\n      dup5\n      jump\t// out\n        /* \"contract/gpt.sol\":537:576  mapping(uint256 => Order) public orders */\n    tag_27:\n      mstore(0x20, 0x02)\n      dup1\n      0x00\n      mstore\n      keccak256(0x00, 0x40)\n      0x00\n      swap2\n      pop\n      swap1\n      pop\n      dup1\n      0x00\n      add\n      0x00\n      swap1\n      sload\n      swap1\n      0x0100\n      exp\n      swap1\n      div\n      0xffffffffffffffffffffffffffffffffffffffff\n      and\n      swap1\n      dup1\n      0x01\n      add\n      sload\n      swap1\n      dup1\n      0x02\n      add\n      0x00\n      swap1\n      sload\n      swap1\n      0x0100\n      exp\n      swap1\n      div\n      0xff\n      and\n      swap1\n      dup1\n      0x03\n      add\n      sload\n      swap1\n      pop\n      dup5\n      jump\t// out\n        /* \"contract/gpt.sol\":2004:2746  function updateOrderStatus(uint256 orderId, OrderStatus newStatus) external {... */\n    tag_34:\n        /* \"contract/gpt.sol\":2091:2110  Order storage order */\n      0x00\n        /* \"contract/gpt.sol\":2113:2119  orders */\n      0x02\n        /* \"contract/gpt.sol\":2113:2128  orders[orderId] */\n      0x00\n        /* \"contract/gpt.sol\":2120:2127  orderId */\n      dup5\n        /* \"contract/gpt.sol\":2113:2128  orders[orderId] */\n      dup2\n      mstore\n      0x20\n      add\n      swap1\n      dup2\n      mstore\n      0x20\n      add\n      0x00\n      keccak256\n        /* \"contract/gpt.sol\":2091:2128  Order storage order = orders[orderId] */\n      swap1\n      pop\n        /* \"contract/gpt.sol\":2139:2162  Product storage product */\n      0x00\n        /* \"contract/gpt.sol\":2165:2176  productById */\n      0x01\n        /* \"contract/gpt.sol\":2165:2193  productById[order.productId] */\n      0x00\n        /* \"contract/gpt.sol\":2177:2182  order */\n      dup4\n        /* \"contract/gpt.sol\":2177:2192  order.productId */\n      0x01\n      add\n      sload\n        /* \"contract/gpt.sol\":2165:2193  productById[order.productId] */\n      dup2\n      mstore\n      0x20\n      add\n      swap1\n      dup2\n      mstore\n      0x20\n      add\n      0x00\n      keccak256\n        /* \"contract/gpt.sol\":2139:2193  Product storage product = productById[order.productId] */\n      swap1\n      pop\n        /* \"contract/gpt.sol\":2242:2247  order */\n      dup2\n        /* \"contract/gpt.sol\":2242:2253  order.buyer */\n      0x00\n      add\n      0x00\n      swap1\n      sload\n      swap1\n      0x0100\n      exp\n      swap1\n      div\n      0xffffffffffffffffffffffffffffffffffffffff\n      and\n        /* \"contract/gpt.sol\":2228:2253  msg.sender == order.buyer */\n      0xffffffffffffffffffffffffffffffffffffffff\n      and\n        /* \"contract/gpt.sol\":2228:2238  msg.sender */\n      caller\n        /* \"contract/gpt.sol\":2228:2253  msg.sender == order.buyer */\n      0xffffffffffffffffffffffffffffffffffffffff\n      and\n      eq\n        /* \"contract/gpt.sol\":2228:2285  msg.sender == order.buyer || msg.sender == product.seller */\n      dup1\n      tag_47\n      jumpi\n      pop\n        /* \"contract/gpt.sol\":2271:2278  product */\n      dup1\n        /* \"contract/gpt.sol\":2271:2285  product.seller */\n      0x02\n      add\n      0x00\n      swap1\n      sload\n      swap1\n      0x0100\n      exp\n      swap1\n      div\n      0xffffffffffffffffffffffffffffffffffffffff\n      and\n        /* \"contract/gpt.sol\":2257:2285  msg.sender == product.seller */\n      0xffffffffffffffffffffffffffffffffffffffff\n      and\n        /* \"contract/gpt.sol\":2257:2267  msg.sender */\n      caller\n        /* \"contract/gpt.sol\":2257:2285  msg.sender == product.seller */\n      0xffffffffffffffffffffffffffffffffffffffff\n      and\n      eq\n        /* \"contract/gpt.sol\":2228:2285  msg.sender == order.buyer || msg.sender == product.seller */\n    tag_47:\n        /* \"contract/gpt.sol\":2206:2325  require(... */\n      tag_48\n      jumpi\n      mload(0x40)\n      0x08c379a000000000000000000000000000000000000000000000000000000000\n      dup2\n      mstore\n      0x04\n      add\n      tag_49\n      swap1\n      tag_50\n      jump\t// in\n    tag_49:\n      mload(0x40)\n      dup1\n      swap2\n      sub\n      swap1\n      revert\n    tag_48:\n        /* \"contract/gpt.sol\":2363:2368  order */\n      dup2\n        /* \"contract/gpt.sol\":2363:2377  order.deadline */\n      0x03\n      add\n      sload\n        /* \"contract/gpt.sol\":2344:2359  block.timestamp */\n      timestamp\n        /* \"contract/gpt.sol\":2344:2377  block.timestamp <= order.deadline */\n      gt\n      iszero\n        /* \"contract/gpt.sol\":2336:2389  require(block.timestamp <= order.deadline, \"Expired\") */\n      tag_51\n      jumpi\n      mload(0x40)\n      0x08c379a000000000000000000000000000000000000000000000000000000000\n      dup2\n      mstore\n      0x04\n      add\n      tag_52\n      swap1\n      tag_53\n      jump\t// in\n    tag_52:\n      mload(0x40)\n      dup1\n      swap2\n      sub\n      swap1\n      revert\n    tag_51:\n        /* \"contract/gpt.sol\":2408:2451  _isValidTransition(order.status, newStatus) */\n      tag_54\n        /* \"contract/gpt.sol\":2427:2432  order */\n      dup3\n        /* \"contract/gpt.sol\":2427:2439  order.status */\n      0x02\n      add\n      0x00\n      swap1\n      sload\n      swap1\n      0x0100\n      exp\n      swap1\n      div\n      0xff\n      and\n        /* \"contract/gpt.sol\":2441:2450  newStatus */\n      dup5\n        /* \"contract/gpt.sol\":2408:2426  _isValidTransition */\n      tag_55\n        /* \"contract/gpt.sol\":2408:2451  _isValidTransition(order.status, newStatus) */\n      jump\t// in\n    tag_54:\n        /* \"contract/gpt.sol\":2400:2474  require(_isValidTransition(order.status, newStatus), \"Invalid transition\") */\n      tag_56\n      jumpi\n      mload(0x40)\n      0x08c379a000000000000000000000000000000000000000000000000000000000\n      dup2\n      mstore\n      0x04\n      add\n      tag_57\n      swap1\n      tag_58\n      jump\t// in\n    tag_57:\n      mload(0x40)\n      dup1\n      swap2\n      sub\n      swap1\n      revert\n    tag_56:\n        /* \"contract/gpt.sol\":2504:2525  OrderStatus.Cancelled */\n      0x05\n        /* \"contract/gpt.sol\":2491:2525  newStatus == OrderStatus.Cancelled */\n      dup1\n      dup2\n      gt\n      iszero\n      tag_59\n      jumpi\n      tag_60\n      tag_61\n      jump\t// in\n    tag_60:\n    tag_59:\n        /* \"contract/gpt.sol\":2491:2500  newStatus */\n      dup4\n        /* \"contract/gpt.sol\":2491:2525  newStatus == OrderStatus.Cancelled */\n      0x05\n      dup2\n      gt\n      iszero\n      tag_62\n      jumpi\n      tag_63\n      tag_61\n      jump\t// in\n    tag_63:\n    tag_62:\n      sub\n        /* \"contract/gpt.sol\":2487:2648  if (newStatus == OrderStatus.Cancelled) {... */\n      tag_64\n      jumpi\n        /* \"contract/gpt.sol\":2564:2568  true */\n      0x01\n        /* \"contract/gpt.sol\":2542:2549  product */\n      dup2\n        /* \"contract/gpt.sol\":2542:2561  product.isAvailable */\n      0x02\n      add\n      0x14\n        /* \"contract/gpt.sol\":2542:2568  product.isAvailable = true */\n      0x0100\n      exp\n      dup2\n      sload\n      dup2\n      0xff\n      mul\n      not\n      and\n      swap1\n      dup4\n      iszero\n      iszero\n      mul\n      or\n      swap1\n      sstore\n      pop\n        /* \"contract/gpt.sol\":2591:2596  order */\n      dup2\n        /* \"contract/gpt.sol\":2591:2602  order.buyer */\n      0x00\n      add\n      0x00\n      swap1\n      sload\n      swap1\n      0x0100\n      exp\n      swap1\n      div\n      0xffffffffffffffffffffffffffffffffffffffff\n      and\n        /* \"contract/gpt.sol\":2583:2612  payable(order.buyer).transfer */\n      0xffffffffffffffffffffffffffffffffffffffff\n      and\n        /* \"contract/gpt.sol\":2583:2636  payable(order.buyer).transfer(orderPayments[orderId]) */\n      0x08fc\n        /* \"contract/gpt.sol\":2613:2626  orderPayments */\n      0x03\n        /* \"contract/gpt.sol\":2613:2635  orderPayments[orderId] */\n      0x00\n        /* \"contract/gpt.sol\":2627:2634  orderId */\n      dup8\n        /* \"contract/gpt.sol\":2613:2635  orderPayments[orderId] */\n      dup2\n      mstore\n      0x20\n      add\n      swap1\n      dup2\n      mstore\n      0x20\n      add\n      0x00\n      keccak256\n      sload\n        /* \"contract/gpt.sol\":2583:2636  payable(order.buyer).transfer(orderPayments[orderId]) */\n      swap1\n      dup2\n      iszero\n      mul\n      swap1\n      mload(0x40)\n      0x00\n      mload(0x40)\n      dup1\n      dup4\n      sub\n      dup2\n      dup6\n      dup9\n      dup9\n      call\n      swap4\n      pop\n      pop\n      pop\n      pop\n      iszero\n      dup1\n      iszero\n      tag_66\n      jumpi\n      returndatacopy(0x00, 0x00, returndatasize)\n      revert(0x00, returndatasize)\n    tag_66:\n      pop\n        /* \"contract/gpt.sol\":2487:2648  if (newStatus == OrderStatus.Cancelled) {... */\n    tag_64:\n        /* \"contract/gpt.sol\":2675:2684  newStatus */\n      dup3\n        /* \"contract/gpt.sol\":2660:2665  order */\n      dup3\n        /* \"contract/gpt.sol\":2660:2672  order.status */\n      0x02\n      add\n      0x00\n        /* \"contract/gpt.sol\":2660:2684  order.status = newStatus */\n      0x0100\n      exp\n      dup2\n      sload\n      dup2\n      0xff\n      mul\n      not\n      and\n      swap1\n      dup4\n      0x05\n      dup2\n      gt\n      iszero\n      tag_67\n      jumpi\n      tag_68\n      tag_61\n      jump\t// in\n    tag_68:\n    tag_67:\n      mul\n      or\n      swap1\n      sstore\n      pop\n        /* \"contract/gpt.sol\":2719:2726  orderId */\n      dup4\n        /* \"contract/gpt.sol\":2700:2738  OrderStatusUpdated(orderId, newStatus) */\n      0xd9a86b644eb5f5b43cc8a700849852481080361c7a4b00ba646d1b46c5585f95\n        /* \"contract/gpt.sol\":2728:2737  newStatus */\n      dup5\n        /* \"contract/gpt.sol\":2700:2738  OrderStatusUpdated(orderId, newStatus) */\n      mload(0x40)\n      tag_69\n      swap2\n      swap1\n      tag_70\n      jump\t// in\n    tag_69:\n      mload(0x40)\n      dup1\n      swap2\n      sub\n      swap1\n      log2\n        /* \"contract/gpt.sol\":2080:2746  {... */\n      pop\n      pop\n        /* \"contract/gpt.sol\":2004:2746  function updateOrderStatus(uint256 orderId, OrderStatus newStatus) external {... */\n      pop\n      pop\n      jump\t// out\n        /* \"contract/gpt.sol\":1264:1968  function createOrder(uint256 productId) external payable {... */\n    tag_37:\n        /* \"contract/gpt.sol\":1332:1355  Product storage product */\n      0x00\n        /* \"contract/gpt.sol\":1358:1369  productById */\n      0x01\n        /* \"contract/gpt.sol\":1358:1380  productById[productId] */\n      0x00\n        /* \"contract/gpt.sol\":1370:1379  productId */\n      dup4\n        /* \"contract/gpt.sol\":1358:1380  productById[productId] */\n      dup2\n      mstore\n      0x20\n      add\n      swap1\n      dup2\n      mstore\n      0x20\n      add\n      0x00\n      keccak256\n        /* \"contract/gpt.sol\":1332:1380  Product storage product = productById[productId] */\n      swap1\n      pop\n        /* \"contract/gpt.sol\":1399:1406  product */\n      dup1\n        /* \"contract/gpt.sol\":1399:1418  product.isAvailable */\n      0x02\n      add\n      0x14\n      swap1\n      sload\n      swap1\n      0x0100\n      exp\n      swap1\n      div\n      0xff\n      and\n        /* \"contract/gpt.sol\":1391:1436  require(product.isAvailable, \"Not available\") */\n      tag_72\n      jumpi\n      mload(0x40)\n      0x08c379a000000000000000000000000000000000000000000000000000000000\n      dup2\n      mstore\n      0x04\n      add\n      tag_73\n      swap1\n      tag_74\n      jump\t// in\n    tag_73:\n      mload(0x40)\n      dup1\n      swap2\n      sub\n      swap1\n      revert\n    tag_72:\n        /* \"contract/gpt.sol\":1468:1475  product */\n      dup1\n        /* \"contract/gpt.sol\":1468:1481  product.price */\n      0x01\n      add\n      sload\n        /* \"contract/gpt.sol\":1455:1464  msg.value */\n      callvalue\n        /* \"contract/gpt.sol\":1455:1481  msg.value == product.price */\n      eq\n        /* \"contract/gpt.sol\":1447:1503  require(msg.value == product.price, \"Incorrect payment\") */\n      tag_75\n      jumpi\n      mload(0x40)\n      0x08c379a000000000000000000000000000000000000000000000000000000000\n      dup2\n      mstore\n      0x04\n      add\n      tag_76\n      swap1\n      tag_77\n      jump\t// in\n    tag_76:\n      mload(0x40)\n      dup1\n      swap2\n      sub\n      swap1\n      revert\n    tag_75:\n        /* \"contract/gpt.sol\":1516:1531  uint256 orderId */\n      0x00\n        /* \"contract/gpt.sol\":1563:1573  msg.sender */\n      caller\n        /* \"contract/gpt.sol\":1575:1584  productId */\n      dup4\n        /* \"contract/gpt.sol\":1586:1596  orderNonce */\n      0x04\n      0x00\n        /* \"contract/gpt.sol\":1586:1598  orderNonce++ */\n      dup2\n      sload\n      dup1\n      swap3\n      swap2\n      swap1\n      tag_78\n      swap1\n      tag_79\n      jump\t// in\n    tag_78:\n      swap2\n      swap1\n      pop\n      sstore\n        /* \"contract/gpt.sol\":1552:1599  abi.encode(msg.sender, productId, orderNonce++) */\n      add(0x20, mload(0x40))\n      tag_80\n      swap4\n      swap3\n      swap2\n      swap1\n      tag_81\n      jump\t// in\n    tag_80:\n      mload(0x40)\n      0x20\n      dup2\n      dup4\n      sub\n      sub\n      dup2\n      mstore\n      swap1\n      0x40\n      mstore\n        /* \"contract/gpt.sol\":1542:1600  keccak256(abi.encode(msg.sender, productId, orderNonce++)) */\n      dup1\n      mload\n      swap1\n      0x20\n      add\n      keccak256\n        /* \"contract/gpt.sol\":1534:1601  uint256(keccak256(abi.encode(msg.sender, productId, orderNonce++))) */\n      0x00\n      shr\n        /* \"contract/gpt.sol\":1516:1601  uint256 orderId = uint256(keccak256(abi.encode(msg.sender, productId, orderNonce++))) */\n      swap1\n      pop\n        /* \"contract/gpt.sol\":1630:1804  Order({... */\n      mload(0x40)\n      dup1\n      0x80\n      add\n      0x40\n      mstore\n      dup1\n        /* \"contract/gpt.sol\":1658:1668  msg.sender */\n      caller\n        /* \"contract/gpt.sol\":1630:1804  Order({... */\n      0xffffffffffffffffffffffffffffffffffffffff\n      and\n      dup2\n      mstore\n      0x20\n      add\n        /* \"contract/gpt.sol\":1694:1703  productId */\n      dup5\n        /* \"contract/gpt.sol\":1630:1804  Order({... */\n      dup2\n      mstore\n      0x20\n      add\n        /* \"contract/gpt.sol\":1726:1742  OrderStatus.Paid */\n      0x01\n        /* \"contract/gpt.sol\":1630:1804  Order({... */\n      0x05\n      dup2\n      gt\n      iszero\n      tag_82\n      jumpi\n      tag_83\n      tag_61\n      jump\t// in\n    tag_83:\n    tag_82:\n      dup2\n      mstore\n      0x20\n      add\n        /* \"contract/gpt.sol\":1785:1792  1 hours */\n      0x0e10\n        /* \"contract/gpt.sol\":1767:1782  block.timestamp */\n      timestamp\n        /* \"contract/gpt.sol\":1767:1792  block.timestamp + 1 hours */\n      tag_84\n      swap2\n      swap1\n      tag_85\n      jump\t// in\n    tag_84:\n        /* \"contract/gpt.sol\":1630:1804  Order({... */\n      dup2\n      mstore\n      pop\n        /* \"contract/gpt.sol\":1612:1618  orders */\n      0x02\n        /* \"contract/gpt.sol\":1612:1627  orders[orderId] */\n      0x00\n        /* \"contract/gpt.sol\":1619:1626  orderId */\n      dup4\n        /* \"contract/gpt.sol\":1612:1627  orders[orderId] */\n      dup2\n      mstore\n      0x20\n      add\n      swap1\n      dup2\n      mstore\n      0x20\n      add\n      0x00\n      keccak256\n        /* \"contract/gpt.sol\":1612:1804  orders[orderId] = Order({... */\n      0x00\n      dup3\n      add\n      mload\n      dup2\n      0x00\n      add\n      exp(0x0100, 0x00)\n      dup2\n      sload\n      dup2\n      0xffffffffffffffffffffffffffffffffffffffff\n      mul\n      not\n      and\n      swap1\n      dup4\n      0xffffffffffffffffffffffffffffffffffffffff\n      and\n      mul\n      or\n      swap1\n      sstore\n      pop\n      0x20\n      dup3\n      add\n      mload\n      dup2\n      0x01\n      add\n      sstore\n      0x40\n      dup3\n      add\n      mload\n      dup2\n      0x02\n      add\n      exp(0x0100, 0x00)\n      dup2\n      sload\n      dup2\n      0xff\n      mul\n      not\n      and\n      swap1\n      dup4\n      0x05\n      dup2\n      gt\n      iszero\n      tag_86\n      jumpi\n      tag_87\n      tag_61\n      jump\t// in\n    tag_87:\n    tag_86:\n      mul\n      or\n      swap1\n      sstore\n      pop\n      0x60\n      dup3\n      add\n      mload\n      dup2\n      0x03\n      add\n      sstore\n      swap1\n      pop\n      pop\n        /* \"contract/gpt.sol\":1840:1849  msg.value */\n      callvalue\n        /* \"contract/gpt.sol\":1815:1828  orderPayments */\n      0x03\n        /* \"contract/gpt.sol\":1815:1837  orderPayments[orderId] */\n      0x00\n        /* \"contract/gpt.sol\":1829:1836  orderId */\n      dup4\n        /* \"contract/gpt.sol\":1815:1837  orderPayments[orderId] */\n      dup2\n      mstore\n      0x20\n      add\n      swap1\n      dup2\n      mstore\n      0x20\n      add\n      0x00\n      keccak256\n        /* \"contract/gpt.sol\":1815:1849  orderPayments[orderId] = msg.value */\n      dup2\n      swap1\n      sstore\n      pop\n        /* \"contract/gpt.sol\":1882:1887  false */\n      0x00\n        /* \"contract/gpt.sol\":1860:1867  product */\n      dup3\n        /* \"contract/gpt.sol\":1860:1879  product.isAvailable */\n      0x02\n      add\n      0x14\n        /* \"contract/gpt.sol\":1860:1887  product.isAvailable = false */\n      0x0100\n      exp\n      dup2\n      sload\n      dup2\n      0xff\n      mul\n      not\n      and\n      swap1\n      dup4\n      iszero\n      iszero\n      mul\n      or\n      swap1\n      sstore\n      pop\n        /* \"contract/gpt.sol\":1939:1948  productId */\n      dup3\n        /* \"contract/gpt.sol\":1927:1937  msg.sender */\n      caller\n        /* \"contract/gpt.sol\":1905:1960  OrderCreated(orderId, msg.sender, productId, msg.value) */\n      0xffffffffffffffffffffffffffffffffffffffff\n      and\n        /* \"contract/gpt.sol\":1918:1925  orderId */\n      dup3\n        /* \"contract/gpt.sol\":1905:1960  OrderCreated(orderId, msg.sender, productId, msg.value) */\n      0xf7c110a6973307f2bc91245c2c06344ada13add2c1741e83ac5c0bb332bc85d5\n        /* \"contract/gpt.sol\":1950:1959  msg.value */\n      callvalue\n        /* \"contract/gpt.sol\":1905:1960  OrderCreated(orderId, msg.sender, productId, msg.value) */\n      mload(0x40)\n      tag_88\n      swap2\n      swap1\n      tag_89\n      jump\t// in\n    tag_88:\n      mload(0x40)\n      dup1\n      swap2\n      sub\n      swap1\n      log4\n        /* \"contract/gpt.sol\":1321:1968  {... */\n      pop\n      pop\n        /* \"contract/gpt.sol\":1264:1968  function createOrder(uint256 productId) external payable {... */\n      pop\n      jump\t// out\n        /* \"contract/gpt.sol\":2790:3292  function _isValidTransition(OrderStatus current, OrderStatus newStatus) private pure returns (bool) {... */\n    tag_55:\n        /* \"contract/gpt.sol\":2884:2888  bool */\n      0x00\n        /* \"contract/gpt.sol\":2933:2952  OrderStatus.Pending */\n      0x00\n        /* \"contract/gpt.sol\":2922:2952  current == OrderStatus.Pending */\n      0x05\n      dup2\n      gt\n      iszero\n      tag_91\n      jumpi\n      tag_92\n      tag_61\n      jump\t// in\n    tag_92:\n    tag_91:\n        /* \"contract/gpt.sol\":2922:2929  current */\n      dup4\n        /* \"contract/gpt.sol\":2922:2952  current == OrderStatus.Pending */\n      0x05\n      dup2\n      gt\n      iszero\n      tag_93\n      jumpi\n      tag_94\n      tag_61\n      jump\t// in\n    tag_94:\n    tag_93:\n      eq\n        /* \"contract/gpt.sol\":2922:2985  current == OrderStatus.Pending && newStatus == OrderStatus.Paid */\n      dup1\n      iszero\n      tag_95\n      jumpi\n      pop\n        /* \"contract/gpt.sol\":2969:2985  OrderStatus.Paid */\n      0x01\n        /* \"contract/gpt.sol\":2956:2985  newStatus == OrderStatus.Paid */\n      0x05\n      dup2\n      gt\n      iszero\n      tag_96\n      jumpi\n      tag_97\n      tag_61\n      jump\t// in\n    tag_97:\n    tag_96:\n        /* \"contract/gpt.sol\":2956:2965  newStatus */\n      dup3\n        /* \"contract/gpt.sol\":2956:2985  newStatus == OrderStatus.Paid */\n      0x05\n      dup2\n      gt\n      iszero\n      tag_98\n      jumpi\n      tag_99\n      tag_61\n      jump\t// in\n    tag_99:\n    tag_98:\n      eq\n        /* \"contract/gpt.sol\":2922:2985  current == OrderStatus.Pending && newStatus == OrderStatus.Paid */\n    tag_95:\n        /* \"contract/gpt.sol\":2921:3110  (current == OrderStatus.Pending && newStatus == OrderStatus.Paid) ||... */\n      dup1\n      tag_100\n      jumpi\n      pop\n        /* \"contract/gpt.sol\":3015:3031  OrderStatus.Paid */\n      0x01\n        /* \"contract/gpt.sol\":3004:3031  current == OrderStatus.Paid */\n      0x05\n      dup2\n      gt\n      iszero\n      tag_101\n      jumpi\n      tag_102\n      tag_61\n      jump\t// in\n    tag_102:\n    tag_101:\n        /* \"contract/gpt.sol\":3004:3011  current */\n      dup4\n        /* \"contract/gpt.sol\":3004:3031  current == OrderStatus.Paid */\n      0x05\n      dup2\n      gt\n      iszero\n      tag_103\n      jumpi\n      tag_104\n      tag_61\n      jump\t// in\n    tag_104:\n    tag_103:\n      eq\n        /* \"contract/gpt.sol\":3004:3109  current == OrderStatus.Paid && (newStatus == OrderStatus.Confirmed || newStatus == OrderStatus.Cancelled) */\n      dup1\n      iszero\n      tag_105\n      jumpi\n      pop\n        /* \"contract/gpt.sol\":3049:3070  OrderStatus.Confirmed */\n      0x02\n        /* \"contract/gpt.sol\":3036:3070  newStatus == OrderStatus.Confirmed */\n      0x05\n      dup2\n      gt\n      iszero\n      tag_106\n      jumpi\n      tag_107\n      tag_61\n      jump\t// in\n    tag_107:\n    tag_106:\n        /* \"contract/gpt.sol\":3036:3045  newStatus */\n      dup3\n        /* \"contract/gpt.sol\":3036:3070  newStatus == OrderStatus.Confirmed */\n      0x05\n      dup2\n      gt\n      iszero\n      tag_108\n      jumpi\n      tag_109\n      tag_61\n      jump\t// in\n    tag_109:\n    tag_108:\n      eq\n        /* \"contract/gpt.sol\":3036:3108  newStatus == OrderStatus.Confirmed || newStatus == OrderStatus.Cancelled */\n      dup1\n      tag_110\n      jumpi\n      pop\n        /* \"contract/gpt.sol\":3087:3108  OrderStatus.Cancelled */\n      0x05\n        /* \"contract/gpt.sol\":3074:3108  newStatus == OrderStatus.Cancelled */\n      dup1\n      dup2\n      gt\n      iszero\n      tag_111\n      jumpi\n      tag_112\n      tag_61\n      jump\t// in\n    tag_112:\n    tag_111:\n        /* \"contract/gpt.sol\":3074:3083  newStatus */\n      dup3\n        /* \"contract/gpt.sol\":3074:3108  newStatus == OrderStatus.Cancelled */\n      0x05\n      dup2\n      gt\n      iszero\n      tag_113\n      jumpi\n      tag_114\n      tag_61\n      jump\t// in\n    tag_114:\n    tag_113:\n      eq\n        /* \"contract/gpt.sol\":3036:3108  newStatus == OrderStatus.Confirmed || newStatus == OrderStatus.Cancelled */\n    tag_110:\n        /* \"contract/gpt.sol\":3004:3109  current == OrderStatus.Paid && (newStatus == OrderStatus.Confirmed || newStatus == OrderStatus.Cancelled) */\n    tag_105:\n        /* \"contract/gpt.sol\":2921:3110  (current == OrderStatus.Pending && newStatus == OrderStatus.Paid) ||... */\n    tag_100:\n        /* \"contract/gpt.sol\":2921:3197  (current == OrderStatus.Pending && newStatus == OrderStatus.Paid) ||... */\n      dup1\n      tag_115\n      jumpi\n      pop\n        /* \"contract/gpt.sol\":3139:3160  OrderStatus.Confirmed */\n      0x02\n        /* \"contract/gpt.sol\":3128:3160  current == OrderStatus.Confirmed */\n      0x05\n      dup2\n      gt\n      iszero\n      tag_116\n      jumpi\n      tag_117\n      tag_61\n      jump\t// in\n    tag_117:\n    tag_116:\n        /* \"contract/gpt.sol\":3128:3135  current */\n      dup4\n        /* \"contract/gpt.sol\":3128:3160  current == OrderStatus.Confirmed */\n      0x05\n      dup2\n      gt\n      iszero\n      tag_118\n      jumpi\n      tag_119\n      tag_61\n      jump\t// in\n    tag_119:\n    tag_118:\n      eq\n        /* \"contract/gpt.sol\":3128:3196  current == OrderStatus.Confirmed && newStatus == OrderStatus.Shipped */\n      dup1\n      iszero\n      tag_120\n      jumpi\n      pop\n        /* \"contract/gpt.sol\":3177:3196  OrderStatus.Shipped */\n      0x03\n        /* \"contract/gpt.sol\":3164:3196  newStatus == OrderStatus.Shipped */\n      0x05\n      dup2\n      gt\n      iszero\n      tag_121\n      jumpi\n      tag_122\n      tag_61\n      jump\t// in\n    tag_122:\n    tag_121:\n        /* \"contract/gpt.sol\":3164:3173  newStatus */\n      dup3\n        /* \"contract/gpt.sol\":3164:3196  newStatus == OrderStatus.Shipped */\n      0x05\n      dup2\n      gt\n      iszero\n      tag_123\n      jumpi\n      tag_124\n      tag_61\n      jump\t// in\n    tag_124:\n    tag_123:\n      eq\n        /* \"contract/gpt.sol\":3128:3196  current == OrderStatus.Confirmed && newStatus == OrderStatus.Shipped */\n    tag_120:\n        /* \"contract/gpt.sol\":2921:3197  (current == OrderStatus.Pending && newStatus == OrderStatus.Paid) ||... */\n    tag_115:\n        /* \"contract/gpt.sol\":2921:3284  (current == OrderStatus.Pending && newStatus == OrderStatus.Paid) ||... */\n      dup1\n      tag_125\n      jumpi\n      pop\n        /* \"contract/gpt.sol\":3226:3245  OrderStatus.Shipped */\n      0x03\n        /* \"contract/gpt.sol\":3215:3245  current == OrderStatus.Shipped */\n      0x05\n      dup2\n      gt\n      iszero\n      tag_126\n      jumpi\n      tag_127\n      tag_61\n      jump\t// in\n    tag_127:\n    tag_126:\n        /* \"contract/gpt.sol\":3215:3222  current */\n      dup4\n        /* \"contract/gpt.sol\":3215:3245  current == OrderStatus.Shipped */\n      0x05\n      dup2\n      gt\n      iszero\n      tag_128\n      jumpi\n      tag_129\n      tag_61\n      jump\t// in\n    tag_129:\n    tag_128:\n      eq\n        /* \"contract/gpt.sol\":3215:3283  current == OrderStatus.Shipped && newStatus == OrderStatus.Delivered */\n      dup1\n      iszero\n      tag_130\n      jumpi\n      pop\n        /* \"contract/gpt.sol\":3262:3283  OrderStatus.Delivered */\n      0x04\n        /* \"contract/gpt.sol\":3249:3283  newStatus == OrderStatus.Delivered */\n      0x05\n      dup2\n      gt\n      iszero\n      tag_131\n      jumpi\n      tag_132\n      tag_61\n      jump\t// in\n    tag_132:\n    tag_131:\n        /* \"contract/gpt.sol\":3249:3258  newStatus */\n      dup3\n        /* \"contract/gpt.sol\":3249:3283  newStatus == OrderStatus.Delivered */\n      0x05\n      dup2\n      gt\n      iszero\n      tag_133\n      jumpi\n      tag_134\n      tag_61\n      jump\t// in\n    tag_134:\n    tag_133:\n      eq\n        /* \"contract/gpt.sol\":3215:3283  current == OrderStatus.Shipped && newStatus == OrderStatus.Delivered */\n    tag_130:\n        /* \"contract/gpt.sol\":2921:3284  (current == OrderStatus.Pending && newStatus == OrderStatus.Paid) ||... */\n    tag_125:\n        /* \"contract/gpt.sol\":2901:3284  return... */\n      swap1\n      pop\n        /* \"contract/gpt.sol\":2790:3292  function _isValidTransition(OrderStatus current, OrderStatus newStatus) private pure returns (bool) {... */\n      swap3\n      swap2\n      pop\n      pop\n      jump\t// out\n        /* \"#utility.yul\":88:205   */\n    tag_136:\n        /* \"#utility.yul\":197:198   */\n      0x00\n        /* \"#utility.yul\":194:195   */\n      0x00\n        /* \"#utility.yul\":187:199   */\n      revert\n        /* \"#utility.yul\":334:411   */\n    tag_138:\n        /* \"#utility.yul\":371:378   */\n      0x00\n        /* \"#utility.yul\":400:405   */\n      dup2\n        /* \"#utility.yul\":389:405   */\n      swap1\n      pop\n        /* \"#utility.yul\":334:411   */\n      swap2\n      swap1\n      pop\n      jump\t// out\n        /* \"#utility.yul\":417:539   */\n    tag_139:\n        /* \"#utility.yul\":490:514   */\n      tag_171\n        /* \"#utility.yul\":508:513   */\n      dup2\n        /* \"#utility.yul\":490:514   */\n      tag_138\n      jump\t// in\n    tag_171:\n        /* \"#utility.yul\":483:488   */\n      dup2\n        /* \"#utility.yul\":480:515   */\n      eq\n        /* \"#utility.yul\":470:533   */\n      tag_172\n      jumpi\n        /* \"#utility.yul\":529:530   */\n      0x00\n        /* \"#utility.yul\":526:527   */\n      0x00\n        /* \"#utility.yul\":519:531   */\n      revert\n        /* \"#utility.yul\":470:533   */\n    tag_172:\n        /* \"#utility.yul\":417:539   */\n      pop\n      jump\t// out\n        /* \"#utility.yul\":545:684   */\n    tag_140:\n        /* \"#utility.yul\":591:596   */\n      0x00\n        /* \"#utility.yul\":629:635   */\n      dup2\n        /* \"#utility.yul\":616:636   */\n      calldataload\n        /* \"#utility.yul\":607:636   */\n      swap1\n      pop\n        /* \"#utility.yul\":645:678   */\n      tag_174\n        /* \"#utility.yul\":672:677   */\n      dup2\n        /* \"#utility.yul\":645:678   */\n      tag_139\n      jump\t// in\n    tag_174:\n        /* \"#utility.yul\":545:684   */\n      swap3\n      swap2\n      pop\n      pop\n      jump\t// out\n        /* \"#utility.yul\":690:1019   */\n    tag_11:\n        /* \"#utility.yul\":749:755   */\n      0x00\n        /* \"#utility.yul\":798:800   */\n      0x20\n        /* \"#utility.yul\":786:795   */\n      dup3\n        /* \"#utility.yul\":777:784   */\n      dup5\n        /* \"#utility.yul\":773:796   */\n      sub\n        /* \"#utility.yul\":769:801   */\n      slt\n        /* \"#utility.yul\":766:885   */\n      iszero\n      tag_176\n      jumpi\n        /* \"#utility.yul\":804:883   */\n      tag_177\n      tag_136\n      jump\t// in\n    tag_177:\n        /* \"#utility.yul\":766:885   */\n    tag_176:\n        /* \"#utility.yul\":924:925   */\n      0x00\n        /* \"#utility.yul\":949:1002   */\n      tag_178\n        /* \"#utility.yul\":994:1001   */\n      dup5\n        /* \"#utility.yul\":985:991   */\n      dup3\n        /* \"#utility.yul\":974:983   */\n      dup6\n        /* \"#utility.yul\":970:992   */\n      add\n        /* \"#utility.yul\":949:1002   */\n      tag_140\n      jump\t// in\n    tag_178:\n        /* \"#utility.yul\":939:1002   */\n      swap2\n      pop\n        /* \"#utility.yul\":895:1012   */\n      pop\n        /* \"#utility.yul\":690:1019   */\n      swap3\n      swap2\n      pop\n      pop\n      jump\t// out\n        /* \"#utility.yul\":1025:1143   */\n    tag_141:\n        /* \"#utility.yul\":1112:1136   */\n      tag_180\n        /* \"#utility.yul\":1130:1135   */\n      dup2\n        /* \"#utility.yul\":1112:1136   */\n      tag_138\n      jump\t// in\n    tag_180:\n        /* \"#utility.yul\":1107:1110   */\n      dup3\n        /* \"#utility.yul\":1100:1137   */\n      mstore\n        /* \"#utility.yul\":1025:1143   */\n      pop\n      pop\n      jump\t// out\n        /* \"#utility.yul\":1149:1275   */\n    tag_142:\n        /* \"#utility.yul\":1186:1193   */\n      0x00\n        /* \"#utility.yul\":1226:1268   */\n      0xffffffffffffffffffffffffffffffffffffffff\n        /* \"#utility.yul\":1219:1224   */\n      dup3\n        /* \"#utility.yul\":1215:1269   */\n      and\n        /* \"#utility.yul\":1204:1269   */\n      swap1\n      pop\n        /* \"#utility.yul\":1149:1275   */\n      swap2\n      swap1\n      pop\n      jump\t// out\n        /* \"#utility.yul\":1281:1377   */\n    tag_143:\n        /* \"#utility.yul\":1318:1325   */\n      0x00\n        /* \"#utility.yul\":1347:1371   */\n      tag_183\n        /* \"#utility.yul\":1365:1370   */\n      dup3\n        /* \"#utility.yul\":1347:1371   */\n      tag_142\n      jump\t// in\n    tag_183:\n        /* \"#utility.yul\":1336:1371   */\n      swap1\n      pop\n        /* \"#utility.yul\":1281:1377   */\n      swap2\n      swap1\n      pop\n      jump\t// out\n        /* \"#utility.yul\":1383:1501   */\n    tag_144:\n        /* \"#utility.yul\":1470:1494   */\n      tag_185\n        /* \"#utility.yul\":1488:1493   */\n      dup2\n        /* \"#utility.yul\":1470:1494   */\n      tag_143\n      jump\t// in\n    tag_185:\n        /* \"#utility.yul\":1465:1468   */\n      dup3\n        /* \"#utility.yul\":1458:1495   */\n      mstore\n        /* \"#utility.yul\":1383:1501   */\n      pop\n      pop\n      jump\t// out\n        /* \"#utility.yul\":1507:1597   */\n    tag_145:\n        /* \"#utility.yul\":1541:1548   */\n      0x00\n        /* \"#utility.yul\":1584:1589   */\n      dup2\n        /* \"#utility.yul\":1577:1590   */\n      iszero\n        /* \"#utility.yul\":1570:1591   */\n      iszero\n        /* \"#utility.yul\":1559:1591   */\n      swap1\n      pop\n        /* \"#utility.yul\":1507:1597   */\n      swap2\n      swap1\n      pop\n      jump\t// out\n        /* \"#utility.yul\":1603:1712   */\n    tag_146:\n        /* \"#utility.yul\":1684:1705   */\n      tag_188\n        /* \"#utility.yul\":1699:1704   */\n      dup2\n        /* \"#utility.yul\":1684:1705   */\n      tag_145\n      jump\t// in\n    tag_188:\n        /* \"#utility.yul\":1679:1682   */\n      dup3\n        /* \"#utility.yul\":1672:1706   */\n      mstore\n        /* \"#utility.yul\":1603:1712   */\n      pop\n      pop\n      jump\t// out\n        /* \"#utility.yul\":1718:2259   */\n    tag_18:\n        /* \"#utility.yul\":1889:1893   */\n      0x00\n        /* \"#utility.yul\":1927:1930   */\n      0x80\n        /* \"#utility.yul\":1916:1925   */\n      dup3\n        /* \"#utility.yul\":1912:1931   */\n      add\n        /* \"#utility.yul\":1904:1931   */\n      swap1\n      pop\n        /* \"#utility.yul\":1941:2012   */\n      tag_190\n        /* \"#utility.yul\":2009:2010   */\n      0x00\n        /* \"#utility.yul\":1998:2007   */\n      dup4\n        /* \"#utility.yul\":1994:2011   */\n      add\n        /* \"#utility.yul\":1985:1991   */\n      dup8\n        /* \"#utility.yul\":1941:2012   */\n      tag_141\n      jump\t// in\n    tag_190:\n        /* \"#utility.yul\":2022:2094   */\n      tag_191\n        /* \"#utility.yul\":2090:2092   */\n      0x20\n        /* \"#utility.yul\":2079:2088   */\n      dup4\n        /* \"#utility.yul\":2075:2093   */\n      add\n        /* \"#utility.yul\":2066:2072   */\n      dup7\n        /* \"#utility.yul\":2022:2094   */\n      tag_141\n      jump\t// in\n    tag_191:\n        /* \"#utility.yul\":2104:2176   */\n      tag_192\n        /* \"#utility.yul\":2172:2174   */\n      0x40\n        /* \"#utility.yul\":2161:2170   */\n      dup4\n        /* \"#utility.yul\":2157:2175   */\n      add\n        /* \"#utility.yul\":2148:2154   */\n      dup6\n        /* \"#utility.yul\":2104:2176   */\n      tag_144\n      jump\t// in\n    tag_192:\n        /* \"#utility.yul\":2186:2252   */\n      tag_193\n        /* \"#utility.yul\":2248:2250   */\n      0x60\n        /* \"#utility.yul\":2237:2246   */\n      dup4\n        /* \"#utility.yul\":2233:2251   */\n      add\n        /* \"#utility.yul\":2224:2230   */\n      dup5\n        /* \"#utility.yul\":2186:2252   */\n      tag_146\n      jump\t// in\n    tag_193:\n        /* \"#utility.yul\":1718:2259   */\n      swap6\n      swap5\n      pop\n      pop\n      pop\n      pop\n      pop\n      jump\t// out\n        /* \"#utility.yul\":2265:2445   */\n    tag_61:\n        /* \"#utility.yul\":2313:2390   */\n      0x4e487b7100000000000000000000000000000000000000000000000000000000\n        /* \"#utility.yul\":2310:2311   */\n      0x00\n        /* \"#utility.yul\":2303:2391   */\n      mstore\n        /* \"#utility.yul\":2410:2414   */\n      0x21\n        /* \"#utility.yul\":2407:2408   */\n      0x04\n        /* \"#utility.yul\":2400:2415   */\n      mstore\n        /* \"#utility.yul\":2434:2438   */\n      0x24\n        /* \"#utility.yul\":2431:2432   */\n      0x00\n        /* \"#utility.yul\":2424:2439   */\n      revert\n        /* \"#utility.yul\":2451:2570   */\n    tag_147:\n        /* \"#utility.yul\":2538:2539   */\n      0x06\n        /* \"#utility.yul\":2531:2536   */\n      dup2\n        /* \"#utility.yul\":2528:2540   */\n      lt\n        /* \"#utility.yul\":2518:2564   */\n      tag_196\n      jumpi\n        /* \"#utility.yul\":2544:2562   */\n      tag_197\n      tag_61\n      jump\t// in\n    tag_197:\n        /* \"#utility.yul\":2518:2564   */\n    tag_196:\n        /* \"#utility.yul\":2451:2570   */\n      pop\n      jump\t// out\n        /* \"#utility.yul\":2576:2715   */\n    tag_148:\n        /* \"#utility.yul\":2627:2634   */\n      0x00\n        /* \"#utility.yul\":2656:2661   */\n      dup2\n        /* \"#utility.yul\":2645:2661   */\n      swap1\n      pop\n        /* \"#utility.yul\":2662:2709   */\n      tag_199\n        /* \"#utility.yul\":2703:2708   */\n      dup3\n        /* \"#utility.yul\":2662:2709   */\n      tag_147\n      jump\t// in\n    tag_199:\n        /* \"#utility.yul\":2576:2715   */\n      swap2\n      swap1\n      pop\n      jump\t// out\n        /* \"#utility.yul\":2721:2860   */\n    tag_149:\n        /* \"#utility.yul\":2783:2792   */\n      0x00\n        /* \"#utility.yul\":2816:2854   */\n      tag_201\n        /* \"#utility.yul\":2848:2853   */\n      dup3\n        /* \"#utility.yul\":2816:2854   */\n      tag_148\n      jump\t// in\n    tag_201:\n        /* \"#utility.yul\":2803:2854   */\n      swap1\n      pop\n        /* \"#utility.yul\":2721:2860   */\n      swap2\n      swap1\n      pop\n      jump\t// out\n        /* \"#utility.yul\":2866:3021   */\n    tag_150:\n        /* \"#utility.yul\":2965:3014   */\n      tag_203\n        /* \"#utility.yul\":3008:3013   */\n      dup2\n        /* \"#utility.yul\":2965:3014   */\n      tag_149\n      jump\t// in\n    tag_203:\n        /* \"#utility.yul\":2960:2963   */\n      dup3\n        /* \"#utility.yul\":2953:3015   */\n      mstore\n        /* \"#utility.yul\":2866:3021   */\n      pop\n      pop\n      jump\t// out\n        /* \"#utility.yul\":3027:3604   */\n    tag_29:\n        /* \"#utility.yul\":3216:3220   */\n      0x00\n        /* \"#utility.yul\":3254:3257   */\n      0x80\n        /* \"#utility.yul\":3243:3252   */\n      dup3\n        /* \"#utility.yul\":3239:3258   */\n      add\n        /* \"#utility.yul\":3231:3258   */\n      swap1\n      pop\n        /* \"#utility.yul\":3268:3339   */\n      tag_205\n        /* \"#utility.yul\":3336:3337   */\n      0x00\n        /* \"#utility.yul\":3325:3334   */\n      dup4\n        /* \"#utility.yul\":3321:3338   */\n      add\n        /* \"#utility.yul\":3312:3318   */\n      dup8\n        /* \"#utility.yul\":3268:3339   */\n      tag_144\n      jump\t// in\n    tag_205:\n        /* \"#utility.yul\":3349:3421   */\n      tag_206\n        /* \"#utility.yul\":3417:3419   */\n      0x20\n        /* \"#utility.yul\":3406:3415   */\n      dup4\n        /* \"#utility.yul\":3402:3420   */\n      add\n        /* \"#utility.yul\":3393:3399   */\n      dup7\n        /* \"#utility.yul\":3349:3421   */\n      tag_141\n      jump\t// in\n    tag_206:\n        /* \"#utility.yul\":3431:3515   */\n      tag_207\n        /* \"#utility.yul\":3511:3513   */\n      0x40\n        /* \"#utility.yul\":3500:3509   */\n      dup4\n        /* \"#utility.yul\":3496:3514   */\n      add\n        /* \"#utility.yul\":3487:3493   */\n      dup6\n        /* \"#utility.yul\":3431:3515   */\n      tag_150\n      jump\t// in\n    tag_207:\n        /* \"#utility.yul\":3525:3597   */\n      tag_208\n        /* \"#utility.yul\":3593:3595   */\n      0x60\n        /* \"#utility.yul\":3582:3591   */\n      dup4\n        /* \"#utility.yul\":3578:3596   */\n      add\n        /* \"#utility.yul\":3569:3575   */\n      dup5\n        /* \"#utility.yul\":3525:3597   */\n      tag_141\n      jump\t// in\n    tag_208:\n        /* \"#utility.yul\":3027:3604   */\n      swap6\n      swap5\n      pop\n      pop\n      pop\n      pop\n      pop\n      jump\t// out\n        /* \"#utility.yul\":3610:3723   */\n    tag_151:\n        /* \"#utility.yul\":3697:3698   */\n      0x06\n        /* \"#utility.yul\":3690:3695   */\n      dup2\n        /* \"#utility.yul\":3687:3699   */\n      lt\n        /* \"#utility.yul\":3677:3717   */\n      tag_210\n      jumpi\n        /* \"#utility.yul\":3713:3714   */\n      0x00\n        /* \"#utility.yul\":3710:3711   */\n      0x00\n        /* \"#utility.yul\":3703:3715   */\n      revert\n        /* \"#utility.yul\":3677:3717   */\n    tag_210:\n        /* \"#utility.yul\":3610:3723   */\n      pop\n      jump\t// out\n        /* \"#utility.yul\":3729:3896   */\n    tag_152:\n        /* \"#utility.yul\":3789:3794   */\n      0x00\n        /* \"#utility.yul\":3827:3833   */\n      dup2\n        /* \"#utility.yul\":3814:3834   */\n      calldataload\n        /* \"#utility.yul\":3805:3834   */\n      swap1\n      pop\n        /* \"#utility.yul\":3843:3890   */\n      tag_212\n        /* \"#utility.yul\":3884:3889   */\n      dup2\n        /* \"#utility.yul\":3843:3890   */\n      tag_151\n      jump\t// in\n    tag_212:\n        /* \"#utility.yul\":3729:3896   */\n      swap3\n      swap2\n      pop\n      pop\n      jump\t// out\n        /* \"#utility.yul\":3902:4404   */\n    tag_33:\n        /* \"#utility.yul\":3984:3990   */\n      0x00\n        /* \"#utility.yul\":3992:3998   */\n      0x00\n        /* \"#utility.yul\":4041:4043   */\n      0x40\n        /* \"#utility.yul\":4029:4038   */\n      dup4\n        /* \"#utility.yul\":4020:4027   */\n      dup6\n        /* \"#utility.yul\":4016:4039   */\n      sub\n        /* \"#utility.yul\":4012:4044   */\n      slt\n        /* \"#utility.yul\":4009:4128   */\n      iszero\n      tag_214\n      jumpi\n        /* \"#utility.yul\":4047:4126   */\n      tag_215\n      tag_136\n      jump\t// in\n    tag_215:\n        /* \"#utility.yul\":4009:4128   */\n    tag_214:\n        /* \"#utility.yul\":4167:4168   */\n      0x00\n        /* \"#utility.yul\":4192:4245   */\n      tag_216\n        /* \"#utility.yul\":4237:4244   */\n      dup6\n        /* \"#utility.yul\":4228:4234   */\n      dup3\n        /* \"#utility.yul\":4217:4226   */\n      dup7\n        /* \"#utility.yul\":4213:4235   */\n      add\n        /* \"#utility.yul\":4192:4245   */\n      tag_140\n      jump\t// in\n    tag_216:\n        /* \"#utility.yul\":4182:4245   */\n      swap3\n      pop\n        /* \"#utility.yul\":4138:4255   */\n      pop\n        /* \"#utility.yul\":4294:4296   */\n      0x20\n        /* \"#utility.yul\":4320:4387   */\n      tag_217\n        /* \"#utility.yul\":4379:4386   */\n      dup6\n        /* \"#utility.yul\":4370:4376   */\n      dup3\n        /* \"#utility.yul\":4359:4368   */\n      dup7\n        /* \"#utility.yul\":4355:4377   */\n      add\n        /* \"#utility.yul\":4320:4387   */\n      tag_152\n      jump\t// in\n    tag_217:\n        /* \"#utility.yul\":4310:4387   */\n      swap2\n      pop\n        /* \"#utility.yul\":4265:4397   */\n      pop\n        /* \"#utility.yul\":3902:4404   */\n      swap3\n      pop\n      swap3\n      swap1\n      pop\n      jump\t// out\n        /* \"#utility.yul\":4410:4590   */\n    tag_42:\n        /* \"#utility.yul\":4458:4535   */\n      0x4e487b7100000000000000000000000000000000000000000000000000000000\n        /* \"#utility.yul\":4455:4456   */\n      0x00\n        /* \"#utility.yul\":4448:4536   */\n      mstore\n        /* \"#utility.yul\":4555:4559   */\n      0x32\n        /* \"#utility.yul\":4552:4553   */\n      0x04\n        /* \"#utility.yul\":4545:4560   */\n      mstore\n        /* \"#utility.yul\":4579:4583   */\n      0x24\n        /* \"#utility.yul\":4576:4577   */\n      0x00\n        /* \"#utility.yul\":4569:4584   */\n      revert\n        /* \"#utility.yul\":4596:4765   */\n    tag_153:\n        /* \"#utility.yul\":4680:4691   */\n      0x00\n        /* \"#utility.yul\":4714:4720   */\n      dup3\n        /* \"#utility.yul\":4709:4712   */\n      dup3\n        /* \"#utility.yul\":4702:4721   */\n      mstore\n        /* \"#utility.yul\":4754:4758   */\n      0x20\n        /* \"#utility.yul\":4749:4752   */\n      dup3\n        /* \"#utility.yul\":4745:4759   */\n      add\n        /* \"#utility.yul\":4730:4759   */\n      swap1\n      pop\n        /* \"#utility.yul\":4596:4765   */\n      swap3\n      swap2\n      pop\n      pop\n      jump\t// out\n        /* \"#utility.yul\":4771:4933   */\n    tag_154:\n        /* \"#utility.yul\":4911:4925   */\n      0x556e617574686f72697a65640000000000000000000000000000000000000000\n        /* \"#utility.yul\":4907:4908   */\n      0x00\n        /* \"#utility.yul\":4899:4905   */\n      dup3\n        /* \"#utility.yul\":4895:4909   */\n      add\n        /* \"#utility.yul\":4888:4926   */\n      mstore\n        /* \"#utility.yul\":4771:4933   */\n      pop\n      jump\t// out\n        /* \"#utility.yul\":4939:5305   */\n    tag_155:\n        /* \"#utility.yul\":5081:5084   */\n      0x00\n        /* \"#utility.yul\":5102:5169   */\n      tag_222\n        /* \"#utility.yul\":5166:5168   */\n      0x0c\n        /* \"#utility.yul\":5161:5164   */\n      dup4\n        /* \"#utility.yul\":5102:5169   */\n      tag_153\n      jump\t// in\n    tag_222:\n        /* \"#utility.yul\":5095:5169   */\n      swap2\n      pop\n        /* \"#utility.yul\":5178:5271   */\n      tag_223\n        /* \"#utility.yul\":5267:5270   */\n      dup3\n        /* \"#utility.yul\":5178:5271   */\n      tag_154\n      jump\t// in\n    tag_223:\n        /* \"#utility.yul\":5296:5298   */\n      0x20\n        /* \"#utility.yul\":5291:5294   */\n      dup3\n        /* \"#utility.yul\":5287:5299   */\n      add\n        /* \"#utility.yul\":5280:5299   */\n      swap1\n      pop\n        /* \"#utility.yul\":4939:5305   */\n      swap2\n      swap1\n      pop\n      jump\t// out\n        /* \"#utility.yul\":5311:5730   */\n    tag_50:\n        /* \"#utility.yul\":5477:5481   */\n      0x00\n        /* \"#utility.yul\":5515:5517   */\n      0x20\n        /* \"#utility.yul\":5504:5513   */\n      dup3\n        /* \"#utility.yul\":5500:5518   */\n      add\n        /* \"#utility.yul\":5492:5518   */\n      swap1\n      pop\n        /* \"#utility.yul\":5564:5573   */\n      dup2\n        /* \"#utility.yul\":5558:5562   */\n      dup2\n        /* \"#utility.yul\":5554:5574   */\n      sub\n        /* \"#utility.yul\":5550:5551   */\n      0x00\n        /* \"#utility.yul\":5539:5548   */\n      dup4\n        /* \"#utility.yul\":5535:5552   */\n      add\n        /* \"#utility.yul\":5528:5575   */\n      mstore\n        /* \"#utility.yul\":5592:5723   */\n      tag_225\n        /* \"#utility.yul\":5718:5722   */\n      dup2\n        /* \"#utility.yul\":5592:5723   */\n      tag_155\n      jump\t// in\n    tag_225:\n        /* \"#utility.yul\":5584:5723   */\n      swap1\n      pop\n        /* \"#utility.yul\":5311:5730   */\n      swap2\n      swap1\n      pop\n      jump\t// out\n        /* \"#utility.yul\":5736:5893   */\n    tag_156:\n        /* \"#utility.yul\":5876:5885   */\n      0x4578706972656400000000000000000000000000000000000000000000000000\n        /* \"#utility.yul\":5872:5873   */\n      0x00\n        /* \"#utility.yul\":5864:5870   */\n      dup3\n        /* \"#utility.yul\":5860:5874   */\n      add\n        /* \"#utility.yul\":5853:5886   */\n      mstore\n        /* \"#utility.yul\":5736:5893   */\n      pop\n      jump\t// out\n        /* \"#utility.yul\":5899:6264   */\n    tag_157:\n        /* \"#utility.yul\":6041:6044   */\n      0x00\n        /* \"#utility.yul\":6062:6128   */\n      tag_228\n        /* \"#utility.yul\":6126:6127   */\n      0x07\n        /* \"#utility.yul\":6121:6124   */\n      dup4\n        /* \"#utility.yul\":6062:6128   */\n      tag_153\n      jump\t// in\n    tag_228:\n        /* \"#utility.yul\":6055:6128   */\n      swap2\n      pop\n        /* \"#utility.yul\":6137:6230   */\n      tag_229\n        /* \"#utility.yul\":6226:6229   */\n      dup3\n        /* \"#utility.yul\":6137:6230   */\n      tag_156\n      jump\t// in\n    tag_229:\n        /* \"#utility.yul\":6255:6257   */\n      0x20\n        /* \"#utility.yul\":6250:6253   */\n      dup3\n        /* \"#utility.yul\":6246:6258   */\n      add\n        /* \"#utility.yul\":6239:6258   */\n      swap1\n      pop\n        /* \"#utility.yul\":5899:6264   */\n      swap2\n      swap1\n      pop\n      jump\t// out\n        /* \"#utility.yul\":6270:6689   */\n    tag_53:\n        /* \"#utility.yul\":6436:6440   */\n      0x00\n        /* \"#utility.yul\":6474:6476   */\n      0x20\n        /* \"#utility.yul\":6463:6472   */\n      dup3\n        /* \"#utility.yul\":6459:6477   */\n      add\n        /* \"#utility.yul\":6451:6477   */\n      swap1\n      pop\n        /* \"#utility.yul\":6523:6532   */\n      dup2\n        /* \"#utility.yul\":6517:6521   */\n      dup2\n        /* \"#utility.yul\":6513:6533   */\n      sub\n        /* \"#utility.yul\":6509:6510   */\n      0x00\n        /* \"#utility.yul\":6498:6507   */\n      dup4\n        /* \"#utility.yul\":6494:6511   */\n      add\n        /* \"#utility.yul\":6487:6534   */\n      mstore\n        /* \"#utility.yul\":6551:6682   */\n      tag_231\n        /* \"#utility.yul\":6677:6681   */\n      dup2\n        /* \"#utility.yul\":6551:6682   */\n      tag_157\n      jump\t// in\n    tag_231:\n        /* \"#utility.yul\":6543:6682   */\n      swap1\n      pop\n        /* \"#utility.yul\":6270:6689   */\n      swap2\n      swap1\n      pop\n      jump\t// out\n        /* \"#utility.yul\":6695:6863   */\n    tag_158:\n        /* \"#utility.yul\":6835:6855   */\n      0x496e76616c6964207472616e736974696f6e0000000000000000000000000000\n        /* \"#utility.yul\":6831:6832   */\n      0x00\n        /* \"#utility.yul\":6823:6829   */\n      dup3\n        /* \"#utility.yul\":6819:6833   */\n      add\n        /* \"#utility.yul\":6812:6856   */\n      mstore\n        /* \"#utility.yul\":6695:6863   */\n      pop\n      jump\t// out\n        /* \"#utility.yul\":6869:7235   */\n    tag_159:\n        /* \"#utility.yul\":7011:7014   */\n      0x00\n        /* \"#utility.yul\":7032:7099   */\n      tag_234\n        /* \"#utility.yul\":7096:7098   */\n      0x12\n        /* \"#utility.yul\":7091:7094   */\n      dup4\n        /* \"#utility.yul\":7032:7099   */\n      tag_153\n      jump\t// in\n    tag_234:\n        /* \"#utility.yul\":7025:7099   */\n      swap2\n      pop\n        /* \"#utility.yul\":7108:7201   */\n      tag_235\n        /* \"#utility.yul\":7197:7200   */\n      dup3\n        /* \"#utility.yul\":7108:7201   */\n      tag_158\n      jump\t// in\n    tag_235:\n        /* \"#utility.yul\":7226:7228   */\n      0x20\n        /* \"#utility.yul\":7221:7224   */\n      dup3\n        /* \"#utility.yul\":7217:7229   */\n      add\n        /* \"#utility.yul\":7210:7229   */\n      swap1\n      pop\n        /* \"#utility.yul\":6869:7235   */\n      swap2\n      swap1\n      pop\n      jump\t// out\n        /* \"#utility.yul\":7241:7660   */\n    tag_58:\n        /* \"#utility.yul\":7407:7411   */\n      0x00\n        /* \"#utility.yul\":7445:7447   */\n      0x20\n        /* \"#utility.yul\":7434:7443   */\n      dup3\n        /* \"#utility.yul\":7430:7448   */\n      add\n        /* \"#utility.yul\":7422:7448   */\n      swap1\n      pop\n        /* \"#utility.yul\":7494:7503   */\n      dup2\n        /* \"#utility.yul\":7488:7492   */\n      dup2\n        /* \"#utility.yul\":7484:7504   */\n      sub\n        /* \"#utility.yul\":7480:7481   */\n      0x00\n        /* \"#utility.yul\":7469:7478   */\n      dup4\n        /* \"#utility.yul\":7465:7482   */\n      add\n        /* \"#utility.yul\":7458:7505   */\n      mstore\n        /* \"#utility.yul\":7522:7653   */\n      tag_237\n        /* \"#utility.yul\":7648:7652   */\n      dup2\n        /* \"#utility.yul\":7522:7653   */\n      tag_159\n      jump\t// in\n    tag_237:\n        /* \"#utility.yul\":7514:7653   */\n      swap1\n      pop\n        /* \"#utility.yul\":7241:7660   */\n      swap2\n      swap1\n      pop\n      jump\t// out\n        /* \"#utility.yul\":7666:7912   */\n    tag_70:\n        /* \"#utility.yul\":7771:7775   */\n      0x00\n        /* \"#utility.yul\":7809:7811   */\n      0x20\n        /* \"#utility.yul\":7798:7807   */\n      dup3\n        /* \"#utility.yul\":7794:7812   */\n      add\n        /* \"#utility.yul\":7786:7812   */\n      swap1\n      pop\n        /* \"#utility.yul\":7822:7905   */\n      tag_239\n        /* \"#utility.yul\":7902:7903   */\n      0x00\n        /* \"#utility.yul\":7891:7900   */\n      dup4\n        /* \"#utility.yul\":7887:7904   */\n      add\n        /* \"#utility.yul\":7878:7884   */\n      dup5\n        /* \"#utility.yul\":7822:7905   */\n      tag_150\n      jump\t// in\n    tag_239:\n        /* \"#utility.yul\":7666:7912   */\n      swap3\n      swap2\n      pop\n      pop\n      jump\t// out\n        /* \"#utility.yul\":7918:8081   */\n    tag_160:\n        /* \"#utility.yul\":8058:8073   */\n      0x4e6f7420617661696c61626c6500000000000000000000000000000000000000\n        /* \"#utility.yul\":8054:8055   */\n      0x00\n        /* \"#utility.yul\":8046:8052   */\n      dup3\n        /* \"#utility.yul\":8042:8056   */\n      add\n        /* \"#utility.yul\":8035:8074   */\n      mstore\n        /* \"#utility.yul\":7918:8081   */\n      pop\n      jump\t// out\n        /* \"#utility.yul\":8087:8453   */\n    tag_161:\n        /* \"#utility.yul\":8229:8232   */\n      0x00\n        /* \"#utility.yul\":8250:8317   */\n      tag_242\n        /* \"#utility.yul\":8314:8316   */\n      0x0d\n        /* \"#utility.yul\":8309:8312   */\n      dup4\n        /* \"#utility.yul\":8250:8317   */\n      tag_153\n      jump\t// in\n    tag_242:\n        /* \"#utility.yul\":8243:8317   */\n      swap2\n      pop\n        /* \"#utility.yul\":8326:8419   */\n      tag_243\n        /* \"#utility.yul\":8415:8418   */\n      dup3\n        /* \"#utility.yul\":8326:8419   */\n      tag_160\n      jump\t// in\n    tag_243:\n        /* \"#utility.yul\":8444:8446   */\n      0x20\n        /* \"#utility.yul\":8439:8442   */\n      dup3\n        /* \"#utility.yul\":8435:8447   */\n      add\n        /* \"#utility.yul\":8428:8447   */\n      swap1\n      pop\n        /* \"#utility.yul\":8087:8453   */\n      swap2\n      swap1\n      pop\n      jump\t// out\n        /* \"#utility.yul\":8459:8878   */\n    tag_74:\n        /* \"#utility.yul\":8625:8629   */\n      0x00\n        /* \"#utility.yul\":8663:8665   */\n      0x20\n        /* \"#utility.yul\":8652:8661   */\n      dup3\n        /* \"#utility.yul\":8648:8666   */\n      add\n        /* \"#utility.yul\":8640:8666   */\n      swap1\n      pop\n        /* \"#utility.yul\":8712:8721   */\n      dup2\n        /* \"#utility.yul\":8706:8710   */\n      dup2\n        /* \"#utility.yul\":8702:8722   */\n      sub\n        /* \"#utility.yul\":8698:8699   */\n      0x00\n        /* \"#utility.yul\":8687:8696   */\n      dup4\n        /* \"#utility.yul\":8683:8700   */\n      add\n        /* \"#utility.yul\":8676:8723   */\n      mstore\n        /* \"#utility.yul\":8740:8871   */\n      tag_245\n        /* \"#utility.yul\":8866:8870   */\n      dup2\n        /* \"#utility.yul\":8740:8871   */\n      tag_161\n      jump\t// in\n    tag_245:\n        /* \"#utility.yul\":8732:8871   */\n      swap1\n      pop\n        /* \"#utility.yul\":8459:8878   */\n      swap2\n      swap1\n      pop\n      jump\t// out\n        /* \"#utility.yul\":8884:9051   */\n    tag_162:\n        /* \"#utility.yul\":9024:9043   */\n      0x496e636f7272656374207061796d656e74000000000000000000000000000000\n        /* \"#utility.yul\":9020:9021   */\n      0x00\n        /* \"#utility.yul\":9012:9018   */\n      dup3\n        /* \"#utility.yul\":9008:9022   */\n      add\n        /* \"#utility.yul\":9001:9044   */\n      mstore\n        /* \"#utility.yul\":8884:9051   */\n      pop\n      jump\t// out\n        /* \"#utility.yul\":9057:9423   */\n    tag_163:\n        /* \"#utility.yul\":9199:9202   */\n      0x00\n        /* \"#utility.yul\":9220:9287   */\n      tag_248\n        /* \"#utility.yul\":9284:9286   */\n      0x11\n        /* \"#utility.yul\":9279:9282   */\n      dup4\n        /* \"#utility.yul\":9220:9287   */\n      tag_153\n      jump\t// in\n    tag_248:\n        /* \"#utility.yul\":9213:9287   */\n      swap2\n      pop\n        /* \"#utility.yul\":9296:9389   */\n      tag_249\n        /* \"#utility.yul\":9385:9388   */\n      dup3\n        /* \"#utility.yul\":9296:9389   */\n      tag_162\n      jump\t// in\n    tag_249:\n        /* \"#utility.yul\":9414:9416   */\n      0x20\n        /* \"#utility.yul\":9409:9412   */\n      dup3\n        /* \"#utility.yul\":9405:9417   */\n      add\n        /* \"#utility.yul\":9398:9417   */\n      swap1\n      pop\n        /* \"#utility.yul\":9057:9423   */\n      swap2\n      swap1\n      pop\n      jump\t// out\n        /* \"#utility.yul\":9429:9848   */\n    tag_77:\n        /* \"#utility.yul\":9595:9599   */\n      0x00\n        /* \"#utility.yul\":9633:9635   */\n      0x20\n        /* \"#utility.yul\":9622:9631   */\n      dup3\n        /* \"#utility.yul\":9618:9636   */\n      add\n        /* \"#utility.yul\":9610:9636   */\n      swap1\n      pop\n        /* \"#utility.yul\":9682:9691   */\n      dup2\n        /* \"#utility.yul\":9676:9680   */\n      dup2\n        /* \"#utility.yul\":9672:9692   */\n      sub\n        /* \"#utility.yul\":9668:9669   */\n      0x00\n        /* \"#utility.yul\":9657:9666   */\n      dup4\n        /* \"#utility.yul\":9653:9670   */\n      add\n        /* \"#utility.yul\":9646:9693   */\n      mstore\n        /* \"#utility.yul\":9710:9841   */\n      tag_251\n        /* \"#utility.yul\":9836:9840   */\n      dup2\n        /* \"#utility.yul\":9710:9841   */\n      tag_163\n      jump\t// in\n    tag_251:\n        /* \"#utility.yul\":9702:9841   */\n      swap1\n      pop\n        /* \"#utility.yul\":9429:9848   */\n      swap2\n      swap1\n      pop\n      jump\t// out\n        /* \"#utility.yul\":9854:10034   */\n    tag_164:\n        /* \"#utility.yul\":9902:9979   */\n      0x4e487b7100000000000000000000000000000000000000000000000000000000\n        /* \"#utility.yul\":9899:9900   */\n      0x00\n        /* \"#utility.yul\":9892:9980   */\n      mstore\n        /* \"#utility.yul\":9999:10003   */\n      0x11\n        /* \"#utility.yul\":9996:9997   */\n      0x04\n        /* \"#utility.yul\":9989:10004   */\n      mstore\n        /* \"#utility.yul\":10023:10027   */\n      0x24\n        /* \"#utility.yul\":10020:10021   */\n      0x00\n        /* \"#utility.yul\":10013:10028   */\n      revert\n        /* \"#utility.yul\":10040:10273   */\n    tag_79:\n        /* \"#utility.yul\":10079:10082   */\n      0x00\n        /* \"#utility.yul\":10102:10126   */\n      tag_254\n        /* \"#utility.yul\":10120:10125   */\n      dup3\n        /* \"#utility.yul\":10102:10126   */\n      tag_138\n      jump\t// in\n    tag_254:\n        /* \"#utility.yul\":10093:10126   */\n      swap2\n      pop\n        /* \"#utility.yul\":10148:10214   */\n      0xffffffffffffffffffffffffffffffffffffffffffffffffffffffffffffffff\n        /* \"#utility.yul\":10141:10146   */\n      dup3\n        /* \"#utility.yul\":10138:10215   */\n      sub\n        /* \"#utility.yul\":10135:10238   */\n      tag_255\n      jumpi\n        /* \"#utility.yul\":10218:10236   */\n      tag_256\n      tag_164\n      jump\t// in\n    tag_256:\n        /* \"#utility.yul\":10135:10238   */\n    tag_255:\n        /* \"#utility.yul\":10265:10266   */\n      0x01\n        /* \"#utility.yul\":10258:10263   */\n      dup3\n        /* \"#utility.yul\":10254:10267   */\n      add\n        /* \"#utility.yul\":10247:10267   */\n      swap1\n      pop\n        /* \"#utility.yul\":10040:10273   */\n      swap2\n      swap1\n      pop\n      jump\t// out\n        /* \"#utility.yul\":10279:10721   */\n    tag_81:\n        /* \"#utility.yul\":10428:10432   */\n      0x00\n        /* \"#utility.yul\":10466:10468   */\n      0x60\n        /* \"#utility.yul\":10455:10464   */\n      dup3\n        /* \"#utility.yul\":10451:10469   */\n      add\n        /* \"#utility.yul\":10443:10469   */\n      swap1\n      pop\n        /* \"#utility.yul\":10479:10550   */\n      tag_258\n        /* \"#utility.yul\":10547:10548   */\n      0x00\n        /* \"#utility.yul\":10536:10545   */\n      dup4\n        /* \"#utility.yul\":10532:10549   */\n      add\n        /* \"#utility.yul\":10523:10529   */\n      dup7\n        /* \"#utility.yul\":10479:10550   */\n      tag_144\n      jump\t// in\n    tag_258:\n        /* \"#utility.yul\":10560:10632   */\n      tag_259\n        /* \"#utility.yul\":10628:10630   */\n      0x20\n        /* \"#utility.yul\":10617:10626   */\n      dup4\n        /* \"#utility.yul\":10613:10631   */\n      add\n        /* \"#utility.yul\":10604:10610   */\n      dup6\n        /* \"#utility.yul\":10560:10632   */\n      tag_141\n      jump\t// in\n    tag_259:\n        /* \"#utility.yul\":10642:10714   */\n      tag_260\n        /* \"#utility.yul\":10710:10712   */\n      0x40\n        /* \"#utility.yul\":10699:10708   */\n      dup4\n        /* \"#utility.yul\":10695:10713   */\n      add\n        /* \"#utility.yul\":10686:10692   */\n      dup5\n        /* \"#utility.yul\":10642:10714   */\n      tag_141\n      jump\t// in\n    tag_260:\n        /* \"#utility.yul\":10279:10721   */\n      swap5\n      swap4\n      pop\n      pop\n      pop\n      pop\n      jump\t// out\n        /* \"#utility.yul\":10727:10918   */\n    tag_85:\n        /* \"#utility.yul\":10767:10770   */\n      0x00\n        /* \"#utility.yul\":10786:10806   */\n      tag_262\n        /* \"#utility.yul\":10804:10805   */\n      dup3\n        /* \"#utility.yul\":10786:10806   */\n      tag_138\n      jump\t// in\n    tag_262:\n        /* \"#utility.yul\":10781:10806   */\n      swap2\n      pop\n        /* \"#utility.yul\":10820:10840   */\n      tag_263\n        /* \"#utility.yul\":10838:10839   */\n      dup4\n        /* \"#utility.yul\":10820:10840   */\n      tag_138\n      jump\t// in\n    tag_263:\n        /* \"#utility.yul\":10815:10840   */\n      swap3\n      pop\n        /* \"#utility.yul\":10863:10864   */\n      dup3\n        /* \"#utility.yul\":10860:10861   */\n      dup3\n        /* \"#utility.yul\":10856:10865   */\n      add\n        /* \"#utility.yul\":10849:10865   */\n      swap1\n      pop\n        /* \"#utility.yul\":10884:10887   */\n      dup1\n        /* \"#utility.yul\":10881:10882   */\n      dup3\n        /* \"#utility.yul\":10878:10888   */\n      gt\n        /* \"#utility.yul\":10875:10911   */\n      iszero\n      tag_264\n      jumpi\n        /* \"#utility.yul\":10891:10909   */\n      tag_265\n      tag_164\n      jump\t// in\n    tag_265:\n        /* \"#utility.yul\":10875:10911   */\n    tag_264:\n        /* \"#utility.yul\":10727:10918   */\n      swap3\n      swap2\n      pop\n      pop\n      jump\t// out\n        /* \"#utility.yul\":10924:11146   */\n    tag_89:\n        /* \"#utility.yul\":11017:11021   */\n      0x00\n        /* \"#utility.yul\":11055:11057   */\n      0x20\n        /* \"#utility.yul\":11044:11053   */\n      dup3\n        /* \"#utility.yul\":11040:11058   */\n      add\n        /* \"#utility.yul\":11032:11058   */\n      swap1\n      pop\n        /* \"#utility.yul\":11068:11139   */\n      tag_267\n        /* \"#utility.yul\":11136:11137   */\n      0x00\n        /* \"#utility.yul\":11125:11134   */\n      dup4\n        /* \"#utility.yul\":11121:11138   */\n      add\n        /* \"#utility.yul\":11112:11118   */\n      dup5\n        /* \"#utility.yul\":11068:11139   */\n      tag_141\n      jump\t// in\n    tag_267:\n        /* \"#utility.yul\":10924:11146   */\n      swap3\n      swap2\n      pop\n      pop\n      jump\t// out\n\n    auxdata: 0xa2646970667358221220ef344c4eac5f2800295c53df90dc0328edab63aaba58913749c896e5fce2ca3e64736f6c634300081e0033\n}\n",
				"bytecode": {
					"linkReferences": {},
					"object": "6080604052348015600e575f5ffd5b506110f38061001c5f395ff3fe608060405260043610610054575f3560e01c8063327a48cc146100585780637acc0b2014610080578063a30b475f146100bf578063a85c38ef146100fe578063aab3196d1461013d578063f8ad8cd714610165575b5f5ffd5b348015610063575f5ffd5b5061007e60048036038101906100799190610b7d565b610181565b005b34801561008b575f5ffd5b506100a660048036038101906100a19190610b7d565b61033f565b6040516100b69493929190610c10565b60405180910390f35b3480156100ca575f5ffd5b506100e560048036038101906100e09190610b7d565b6103a5565b6040516100f59493929190610c10565b60405180910390f35b348015610109575f5ffd5b50610124600480360381019061011f9190610b7d565b6103fd565b6040516101349493929190610cc6565b60405180910390f35b348015610148575f5ffd5b50610163600480360381019061015e9190610d2c565b610454565b005b61017f600480360381019061017a9190610b7d565b610732565b005b5f5f8054905090505f60405180608001604052808381526020018481526020013373ffffffffffffffffffffffffffffffffffffffff16815260200160011515815250908060018154018082558091505060019003905f5260205f2090600302015f909190919091505f820151815f0155602082015181600101556040820151816002015f6101000a81548173ffffffffffffffffffffffffffffffffffffffff021916908373ffffffffffffffffffffffffffffffffffffffff16021790555060608201518160020160146101000a81548160ff02191690831515021790555050505f818154811061027757610276610d6a565b5b905f5260205f20906003020160015f8381526020019081526020015f205f820154815f015560018201548160010155600282015f9054906101000a900473ffffffffffffffffffffffffffffffffffffffff16816002015f6101000a81548173ffffffffffffffffffffffffffffffffffffffff021916908373ffffffffffffffffffffffffffffffffffffffff1602179055506002820160149054906101000a900460ff168160020160146101000a81548160ff0219169083151502179055509050505050565b5f818154811061034d575f80fd5b905f5260205f2090600302015f91509050805f015490806001015490806002015f9054906101000a900473ffffffffffffffffffffffffffffffffffffffff16908060020160149054906101000a900460ff16905084565b6001602052805f5260405f205f91509050805f015490806001015490806002015f9054906101000a900473ffffffffffffffffffffffffffffffffffffffff16908060020160149054906101000a900460ff16905084565b6002602052805f5260405f205f91509050805f015f9054906101000a900473ffffffffffffffffffffffffffffffffffffffff1690806001015490806002015f9054906101000a900460ff16908060030154905084565b5f60025f8481526020019081526020015f2090505f60015f836001015481526020019081526020015f209050815f015f9054906101000a900473ffffffffffffffffffffffffffffffffffffffff1673ffffffffffffffffffffffffffffffffffffffff163373ffffffffffffffffffffffffffffffffffffffff16148061052a5750806002015f9054906101000a900473ffffffffffffffffffffffffffffffffffffffff1673ffffffffffffffffffffffffffffffffffffffff163373ffffffffffffffffffffffffffffffffffffffff16145b610569576040517f08c379a000000000000000000000000000000000000000000000000000000000815260040161056090610df1565b60405180910390fd5b81600301544211156105b0576040517f08c379a00000000000000000000000000000000000000000000000000000000081526004016105a790610e59565b60405180910390fd5b6105ca826002015f9054906101000a900460ff168461099b565b610609576040517f08c379a000000000000000000000000000000000000000000000000000000000815260040161060090610ec1565b60405180910390fd5b60058081111561061c5761061b610c53565b5b83600581111561062f5761062e610c53565b5b036106c95760018160020160146101000a81548160ff021916908315150217905550815f015f9054906101000a900473ffffffffffffffffffffffffffffffffffffffff1673ffffffffffffffffffffffffffffffffffffffff166108fc60035f8781526020019081526020015f205490811502906040515f60405180830381858888f193505050501580156106c7573d5f5f3e3d5ffd5b505b82826002015f6101000a81548160ff021916908360058111156106ef576106ee610c53565b5b0217905550837fd9a86b644eb5f5b43cc8a700849852481080361c7a4b00ba646d1b46c5585f95846040516107249190610edf565b60405180910390a250505050565b5f60015f8381526020019081526020015f2090508060020160149054906101000a900460ff16610797576040517f08c379a000000000000000000000000000000000000000000000000000000000815260040161078e90610f42565b60405180910390fd5b806001015434146107dd576040517f08c379a00000000000000000000000000000000000000000000000000000000081526004016107d490610faa565b60405180910390fd5b5f338360045f8154809291906107f290610ff5565b919050556040516020016108089392919061103c565b604051602081830303815290604052805190602001205f1c905060405180608001604052803373ffffffffffffffffffffffffffffffffffffffff1681526020018481526020016001600581111561086357610862610c53565b5b8152602001610e10426108769190611071565b81525060025f8381526020019081526020015f205f820151815f015f6101000a81548173ffffffffffffffffffffffffffffffffffffffff021916908373ffffffffffffffffffffffffffffffffffffffff160217905550602082015181600101556040820151816002015f6101000a81548160ff0219169083600581111561090257610901610c53565b5b0217905550606082015181600301559050503460035f8381526020019081526020015f20819055505f8260020160146101000a81548160ff021916908315150217905550823373ffffffffffffffffffffffffffffffffffffffff16827ff7c110a6973307f2bc91245c2c06344ada13add2c1741e83ac5c0bb332bc85d53460405161098e91906110a4565b60405180910390a4505050565b5f5f60058111156109af576109ae610c53565b5b8360058111156109c2576109c1610c53565b5b1480156109f35750600160058111156109de576109dd610c53565b5b8260058111156109f1576109f0610c53565b5b145b80610a80575060016005811115610a0d57610a0c610c53565b5b836005811115610a2057610a1f610c53565b5b148015610a7f575060026005811115610a3c57610a3b610c53565b5b826005811115610a4f57610a4e610c53565b5b1480610a7e5750600580811115610a6957610a68610c53565b5b826005811115610a7c57610a7b610c53565b5b145b5b5b80610adf575060026005811115610a9a57610a99610c53565b5b836005811115610aad57610aac610c53565b5b148015610ade575060036005811115610ac957610ac8610c53565b5b826005811115610adc57610adb610c53565b5b145b5b80610b3e575060036005811115610af957610af8610c53565b5b836005811115610b0c57610b0b610c53565b5b148015610b3d575060046005811115610b2857610b27610c53565b5b826005811115610b3b57610b3a610c53565b5b145b5b905092915050565b5f5ffd5b5f819050919050565b610b5c81610b4a565b8114610b66575f5ffd5b50565b5f81359050610b7781610b53565b92915050565b5f60208284031215610b9257610b91610b46565b5b5f610b9f84828501610b69565b91505092915050565b610bb181610b4a565b82525050565b5f73ffffffffffffffffffffffffffffffffffffffff82169050919050565b5f610be082610bb7565b9050919050565b610bf081610bd6565b82525050565b5f8115159050919050565b610c0a81610bf6565b82525050565b5f608082019050610c235f830187610ba8565b610c306020830186610ba8565b610c3d6040830185610be7565b610c4a6060830184610c01565b95945050505050565b7f4e487b71000000000000000000000000000000000000000000000000000000005f52602160045260245ffd5b60068110610c9157610c90610c53565b5b50565b5f819050610ca182610c80565b919050565b5f610cb082610c94565b9050919050565b610cc081610ca6565b82525050565b5f608082019050610cd95f830187610be7565b610ce66020830186610ba8565b610cf36040830185610cb7565b610d006060830184610ba8565b95945050505050565b60068110610d15575f5ffd5b50565b5f81359050610d2681610d09565b92915050565b5f5f60408385031215610d4257610d41610b46565b5b5f610d4f85828601610b69565b9250506020610d6085828601610d18565b9150509250929050565b7f4e487b71000000000000000000000000000000000000000000000000000000005f52603260045260245ffd5b5f82825260208201905092915050565b7f556e617574686f72697a656400000000000000000000000000000000000000005f82015250565b5f610ddb600c83610d97565b9150610de682610da7565b602082019050919050565b5f6020820190508181035f830152610e0881610dcf565b9050919050565b7f45787069726564000000000000000000000000000000000000000000000000005f82015250565b5f610e43600783610d97565b9150610e4e82610e0f565b602082019050919050565b5f6020820190508181035f830152610e7081610e37565b9050919050565b7f496e76616c6964207472616e736974696f6e00000000000000000000000000005f82015250565b5f610eab601283610d97565b9150610eb682610e77565b602082019050919050565b5f6020820190508181035f830152610ed881610e9f565b9050919050565b5f602082019050610ef25f830184610cb7565b92915050565b7f4e6f7420617661696c61626c65000000000000000000000000000000000000005f82015250565b5f610f2c600d83610d97565b9150610f3782610ef8565b602082019050919050565b5f6020820190508181035f830152610f5981610f20565b9050919050565b7f496e636f7272656374207061796d656e740000000000000000000000000000005f82015250565b5f610f94601183610d97565b9150610f9f82610f60565b602082019050919050565b5f6020820190508181035f830152610fc181610f88565b9050919050565b7f4e487b71000000000000000000000000000000000000000000000000000000005f52601160045260245ffd5b5f610fff82610b4a565b91507fffffffffffffffffffffffffffffffffffffffffffffffffffffffffffffffff820361103157611030610fc8565b5b600182019050919050565b5f60608201905061104f5f830186610be7565b61105c6020830185610ba8565b6110696040830184610ba8565b949350505050565b5f61107b82610b4a565b915061108683610b4a565b925082820190508082111561109e5761109d610fc8565b5b92915050565b5f6020820190506110b75f830184610ba8565b9291505056fea2646970667358221220ef344c4eac5f2800295c53df90dc0328edab63aaba58913749c896e5fce2ca3e64736f6c634300081e0033",
					"opcodes": "PUSH1 0x80 PUSH1 0x40 MSTORE CALLVALUE DUP1 ISZERO PUSH1 0xE JUMPI PUSH0 PUSH0 REVERT JUMPDEST POP PUSH2 0x10F3 DUP1 PUSH2 0x1C PUSH0 CODECOPY PUSH0 RETURN INVALID PUSH1 0x80 PUSH1 0x40 MSTORE PUSH1 0x4 CALLDATASIZE LT PUSH2 0x54 JUMPI PUSH0 CALLDATALOAD PUSH1 0xE0 SHR DUP1 PUSH4 0x327A48CC EQ PUSH2 0x58 JUMPI DUP1 PUSH4 0x7ACC0B20 EQ PUSH2 0x80 JUMPI DUP1 PUSH4 0xA30B475F EQ PUSH2 0xBF JUMPI DUP1 PUSH4 0xA85C38EF EQ PUSH2 0xFE JUMPI DUP1 PUSH4 0xAAB3196D EQ PUSH2 0x13D JUMPI DUP1 PUSH4 0xF8AD8CD7 EQ PUSH2 0x165 JUMPI JUMPDEST PUSH0 PUSH0 REVERT JUMPDEST CALLVALUE DUP1 ISZERO PUSH2 0x63 JUMPI PUSH0 PUSH0 REVERT JUMPDEST POP PUSH2 0x7E PUSH1 0x4 DUP1 CALLDATASIZE SUB DUP2 ADD SWAP1 PUSH2 0x79 SWAP2 SWAP1 PUSH2 0xB7D JUMP JUMPDEST PUSH2 0x181 JUMP JUMPDEST STOP JUMPDEST CALLVALUE DUP1 ISZERO PUSH2 0x8B JUMPI PUSH0 PUSH0 REVERT JUMPDEST POP PUSH2 0xA6 PUSH1 0x4 DUP1 CALLDATASIZE SUB DUP2 ADD SWAP1 PUSH2 0xA1 SWAP2 SWAP1 PUSH2 0xB7D JUMP JUMPDEST PUSH2 0x33F JUMP JUMPDEST PUSH1 0x40 MLOAD PUSH2 0xB6 SWAP5 SWAP4 SWAP3 SWAP2 SWAP1 PUSH2 0xC10 JUMP JUMPDEST PUSH1 0x40 MLOAD DUP1 SWAP2 SUB SWAP1 RETURN JUMPDEST CALLVALUE DUP1 ISZERO PUSH2 0xCA JUMPI PUSH0 PUSH0 REVERT JUMPDEST POP PUSH2 0xE5 PUSH1 0x4 DUP1 CALLDATASIZE SUB DUP2 ADD SWAP1 PUSH2 0xE0 SWAP2 SWAP1 PUSH2 0xB7D JUMP JUMPDEST PUSH2 0x3A5 JUMP JUMPDEST PUSH1 0x40 MLOAD PUSH2 0xF5 SWAP5 SWAP4 SWAP3 SWAP2 SWAP1 PUSH2 0xC10 JUMP JUMPDEST PUSH1 0x40 MLOAD DUP1 SWAP2 SUB SWAP1 RETURN JUMPDEST CALLVALUE DUP1 ISZERO PUSH2 0x109 JUMPI PUSH0 PUSH0 REVERT JUMPDEST POP PUSH2 0x124 PUSH1 0x4 DUP1 CALLDATASIZE SUB DUP2 ADD SWAP1 PUSH2 0x11F SWAP2 SWAP1 PUSH2 0xB7D JUMP JUMPDEST PUSH2 0x3FD JUMP JUMPDEST PUSH1 0x40 MLOAD PUSH2 0x134 SWAP5 SWAP4 SWAP3 SWAP2 SWAP1 PUSH2 0xCC6 JUMP JUMPDEST PUSH1 0x40 MLOAD DUP1 SWAP2 SUB SWAP1 RETURN JUMPDEST CALLVALUE DUP1 ISZERO PUSH2 0x148 JUMPI PUSH0 PUSH0 REVERT JUMPDEST POP PUSH2 0x163 PUSH1 0x4 DUP1 CALLDATASIZE SUB DUP2 ADD SWAP1 PUSH2 0x15E SWAP2 SWAP1 PUSH2 0xD2C JUMP JUMPDEST PUSH2 0x454 JUMP JUMPDEST STOP JUMPDEST PUSH2 0x17F PUSH1 0x4 DUP1 CALLDATASIZE SUB DUP2 ADD SWAP1 PUSH2 0x17A SWAP2 SWAP1 PUSH2 0xB7D JUMP JUMPDEST PUSH2 0x732 JUMP JUMPDEST STOP JUMPDEST PUSH0 PUSH0 DUP1 SLOAD SWAP1 POP SWAP1 POP PUSH0 PUSH1 0x40 MLOAD DUP1 PUSH1 0x80 ADD PUSH1 0x40 MSTORE DUP1 DUP4 DUP2 MSTORE PUSH1 0x20 ADD DUP5 DUP2 MSTORE PUSH1 0x20 ADD CALLER PUSH20 0xFFFFFFFFFFFFFFFFFFFFFFFFFFFFFFFFFFFFFFFF AND DUP2 MSTORE PUSH1 0x20 ADD PUSH1 0x1 ISZERO ISZERO DUP2 MSTORE POP SWAP1 DUP1 PUSH1 0x1 DUP2 SLOAD ADD DUP1 DUP3 SSTORE DUP1 SWAP2 POP POP PUSH1 0x1 SWAP1 SUB SWAP1 PUSH0 MSTORE PUSH1 0x20 PUSH0 KECCAK256 SWAP1 PUSH1 0x3 MUL ADD PUSH0 SWAP1 SWAP2 SWAP1 SWAP2 SWAP1 SWAP2 POP PUSH0 DUP3 ADD MLOAD DUP2 PUSH0 ADD SSTORE PUSH1 0x20 DUP3 ADD MLOAD DUP2 PUSH1 0x1 ADD SSTORE PUSH1 0x40 DUP3 ADD MLOAD DUP2 PUSH1 0x2 ADD PUSH0 PUSH2 0x100 EXP DUP2 SLOAD DUP2 PUSH20 0xFFFFFFFFFFFFFFFFFFFFFFFFFFFFFFFFFFFFFFFF MUL NOT AND SWAP1 DUP4 PUSH20 0xFFFFFFFFFFFFFFFFFFFFFFFFFFFFFFFFFFFFFFFF AND MUL OR SWAP1 SSTORE POP PUSH1 0x60 DUP3 ADD MLOAD DUP2 PUSH1 0x2 ADD PUSH1 0x14 PUSH2 0x100 EXP DUP2 SLOAD DUP2 PUSH1 0xFF MUL NOT AND SWAP1 DUP4 ISZERO ISZERO MUL OR SWAP1 SSTORE POP POP POP PUSH0 DUP2 DUP2 SLOAD DUP2 LT PUSH2 0x277 JUMPI PUSH2 0x276 PUSH2 0xD6A JUMP JUMPDEST JUMPDEST SWAP1 PUSH0 MSTORE PUSH1 0x20 PUSH0 KECCAK256 SWAP1 PUSH1 0x3 MUL ADD PUSH1 0x1 PUSH0 DUP4 DUP2 MSTORE PUSH1 0x20 ADD SWAP1 DUP2 MSTORE PUSH1 0x20 ADD PUSH0 KECCAK256 PUSH0 DUP3 ADD SLOAD DUP2 PUSH0 ADD SSTORE PUSH1 0x1 DUP3 ADD SLOAD DUP2 PUSH1 0x1 ADD SSTORE PUSH1 0x2 DUP3 ADD PUSH0 SWAP1 SLOAD SWAP1 PUSH2 0x100 EXP SWAP1 DIV PUSH20 0xFFFFFFFFFFFFFFFFFFFFFFFFFFFFFFFFFFFFFFFF AND DUP2 PUSH1 0x2 ADD PUSH0 PUSH2 0x100 EXP DUP2 SLOAD DUP2 PUSH20 0xFFFFFFFFFFFFFFFFFFFFFFFFFFFFFFFFFFFFFFFF MUL NOT AND SWAP1 DUP4 PUSH20 0xFFFFFFFFFFFFFFFFFFFFFFFFFFFFFFFFFFFFFFFF AND MUL OR SWAP1 SSTORE POP PUSH1 0x2 DUP3 ADD PUSH1 0x14 SWAP1 SLOAD SWAP1 PUSH2 0x100 EXP SWAP1 DIV PUSH1 0xFF AND DUP2 PUSH1 0x2 ADD PUSH1 0x14 PUSH2 0x100 EXP DUP2 SLOAD DUP2 PUSH1 0xFF MUL NOT AND SWAP1 DUP4 ISZERO ISZERO MUL OR SWAP1 SSTORE POP SWAP1 POP POP POP POP JUMP JUMPDEST PUSH0 DUP2 DUP2 SLOAD DUP2 LT PUSH2 0x34D JUMPI PUSH0 DUP1 REVERT JUMPDEST SWAP1 PUSH0 MSTORE PUSH1 0x20 PUSH0 KECCAK256 SWAP1 PUSH1 0x3 MUL ADD PUSH0 SWAP2 POP SWAP1 POP DUP1 PUSH0 ADD SLOAD SWAP1 DUP1 PUSH1 0x1 ADD SLOAD SWAP1 DUP1 PUSH1 0x2 ADD PUSH0 SWAP1 SLOAD SWAP1 PUSH2 0x100 EXP SWAP1 DIV PUSH20 0xFFFFFFFFFFFFFFFFFFFFFFFFFFFFFFFFFFFFFFFF AND SWAP1 DUP1 PUSH1 0x2 ADD PUSH1 0x14 SWAP1 SLOAD SWAP1 PUSH2 0x100 EXP SWAP1 DIV PUSH1 0xFF AND SWAP1 POP DUP5 JUMP JUMPDEST PUSH1 0x1 PUSH1 0x20 MSTORE DUP1 PUSH0 MSTORE PUSH1 0x40 PUSH0 KECCAK256 PUSH0 SWAP2 POP SWAP1 POP DUP1 PUSH0 ADD SLOAD SWAP1 DUP1 PUSH1 0x1 ADD SLOAD SWAP1 DUP1 PUSH1 0x2 ADD PUSH0 SWAP1 SLOAD SWAP1 PUSH2 0x100 EXP SWAP1 DIV PUSH20 0xFFFFFFFFFFFFFFFFFFFFFFFFFFFFFFFFFFFFFFFF AND SWAP1 DUP1 PUSH1 0x2 ADD PUSH1 0x14 SWAP1 SLOAD SWAP1 PUSH2 0x100 EXP SWAP1 DIV PUSH1 0xFF AND SWAP1 POP DUP5 JUMP JUMPDEST PUSH1 0x2 PUSH1 0x20 MSTORE DUP1 PUSH0 MSTORE PUSH1 0x40 PUSH0 KECCAK256 PUSH0 SWAP2 POP SWAP1 POP DUP1 PUSH0 ADD PUSH0 SWAP1 SLOAD SWAP1 PUSH2 0x100 EXP SWAP1 DIV PUSH20 0xFFFFFFFFFFFFFFFFFFFFFFFFFFFFFFFFFFFFFFFF AND SWAP1 DUP1 PUSH1 0x1 ADD SLOAD SWAP1 DUP1 PUSH1 0x2 ADD PUSH0 SWAP1 SLOAD SWAP1 PUSH2 0x100 EXP SWAP1 DIV PUSH1 0xFF AND SWAP1 DUP1 PUSH1 0x3 ADD SLOAD SWAP1 POP DUP5 JUMP JUMPDEST PUSH0 PUSH1 0x2 PUSH0 DUP5 DUP2 MSTORE PUSH1 0x20 ADD SWAP1 DUP2 MSTORE PUSH1 0x20 ADD PUSH0 KECCAK256 SWAP1 POP PUSH0 PUSH1 0x1 PUSH0 DUP4 PUSH1 0x1 ADD SLOAD DUP2 MSTORE PUSH1 0x20 ADD SWAP1 DUP2 MSTORE PUSH1 0x20 ADD PUSH0 KECCAK256 SWAP1 POP DUP2 PUSH0 ADD PUSH0 SWAP1 SLOAD SWAP1 PUSH2 0x100 EXP SWAP1 DIV PUSH20 0xFFFFFFFFFFFFFFFFFFFFFFFFFFFFFFFFFFFFFFFF AND PUSH20 0xFFFFFFFFFFFFFFFFFFFFFFFFFFFFFFFFFFFFFFFF AND CALLER PUSH20 0xFFFFFFFFFFFFFFFFFFFFFFFFFFFFFFFFFFFFFFFF AND EQ DUP1 PUSH2 0x52A JUMPI POP DUP1 PUSH1 0x2 ADD PUSH0 SWAP1 SLOAD SWAP1 PUSH2 0x100 EXP SWAP1 DIV PUSH20 0xFFFFFFFFFFFFFFFFFFFFFFFFFFFFFFFFFFFFFFFF AND PUSH20 0xFFFFFFFFFFFFFFFFFFFFFFFFFFFFFFFFFFFFFFFF AND CALLER PUSH20 0xFFFFFFFFFFFFFFFFFFFFFFFFFFFFFFFFFFFFFFFF AND EQ JUMPDEST PUSH2 0x569 JUMPI PUSH1 0x40 MLOAD PUSH32 0x8C379A000000000000000000000000000000000000000000000000000000000 DUP2 MSTORE PUSH1 0x4 ADD PUSH2 0x560 SWAP1 PUSH2 0xDF1 JUMP JUMPDEST PUSH1 0x40 MLOAD DUP1 SWAP2 SUB SWAP1 REVERT JUMPDEST DUP2 PUSH1 0x3 ADD SLOAD TIMESTAMP GT ISZERO PUSH2 0x5B0 JUMPI PUSH1 0x40 MLOAD PUSH32 0x8C379A000000000000000000000000000000000000000000000000000000000 DUP2 MSTORE PUSH1 0x4 ADD PUSH2 0x5A7 SWAP1 PUSH2 0xE59 JUMP JUMPDEST PUSH1 0x40 MLOAD DUP1 SWAP2 SUB SWAP1 REVERT JUMPDEST PUSH2 0x5CA DUP3 PUSH1 0x2 ADD PUSH0 SWAP1 SLOAD SWAP1 PUSH2 0x100 EXP SWAP1 DIV PUSH1 0xFF AND DUP5 PUSH2 0x99B JUMP JUMPDEST PUSH2 0x609 JUMPI PUSH1 0x40 MLOAD PUSH32 0x8C379A000000000000000000000000000000000000000000000000000000000 DUP2 MSTORE PUSH1 0x4 ADD PUSH2 0x600 SWAP1 PUSH2 0xEC1 JUMP JUMPDEST PUSH1 0x40 MLOAD DUP1 SWAP2 SUB SWAP1 REVERT JUMPDEST PUSH1 0x5 DUP1 DUP2 GT ISZERO PUSH2 0x61C JUMPI PUSH2 0x61B PUSH2 0xC53 JUMP JUMPDEST JUMPDEST DUP4 PUSH1 0x5 DUP2 GT ISZERO PUSH2 0x62F JUMPI PUSH2 0x62E PUSH2 0xC53 JUMP JUMPDEST JUMPDEST SUB PUSH2 0x6C9 JUMPI PUSH1 0x1 DUP2 PUSH1 0x2 ADD PUSH1 0x14 PUSH2 0x100 EXP DUP2 SLOAD DUP2 PUSH1 0xFF MUL NOT AND SWAP1 DUP4 ISZERO ISZERO MUL OR SWAP1 SSTORE POP DUP2 PUSH0 ADD PUSH0 SWAP1 SLOAD SWAP1 PUSH2 0x100 EXP SWAP1 DIV PUSH20 0xFFFFFFFFFFFFFFFFFFFFFFFFFFFFFFFFFFFFFFFF AND PUSH20 0xFFFFFFFFFFFFFFFFFFFFFFFFFFFFFFFFFFFFFFFF AND PUSH2 0x8FC PUSH1 0x3 PUSH0 DUP8 DUP2 MSTORE PUSH1 0x20 ADD SWAP1 DUP2 MSTORE PUSH1 0x20 ADD PUSH0 KECCAK256 SLOAD SWAP1 DUP2 ISZERO MUL SWAP1 PUSH1 0x40 MLOAD PUSH0 PUSH1 0x40 MLOAD DUP1 DUP4 SUB DUP2 DUP6 DUP9 DUP9 CALL SWAP4 POP POP POP POP ISZERO DUP1 ISZERO PUSH2 0x6C7 JUMPI RETURNDATASIZE PUSH0 PUSH0 RETURNDATACOPY RETURNDATASIZE PUSH0 REVERT JUMPDEST POP JUMPDEST DUP3 DUP3 PUSH1 0x2 ADD PUSH0 PUSH2 0x100 EXP DUP2 SLOAD DUP2 PUSH1 0xFF MUL NOT AND SWAP1 DUP4 PUSH1 0x5 DUP2 GT ISZERO PUSH2 0x6EF JUMPI PUSH2 0x6EE PUSH2 0xC53 JUMP JUMPDEST JUMPDEST MUL OR SWAP1 SSTORE POP DUP4 PUSH32 0xD9A86B644EB5F5B43CC8A700849852481080361C7A4B00BA646D1B46C5585F95 DUP5 PUSH1 0x40 MLOAD PUSH2 0x724 SWAP2 SWAP1 PUSH2 0xEDF JUMP JUMPDEST PUSH1 0x40 MLOAD DUP1 SWAP2 SUB SWAP1 LOG2 POP POP POP POP JUMP JUMPDEST PUSH0 PUSH1 0x1 PUSH0 DUP4 DUP2 MSTORE PUSH1 0x20 ADD SWAP1 DUP2 MSTORE PUSH1 0x20 ADD PUSH0 KECCAK256 SWAP1 POP DUP1 PUSH1 0x2 ADD PUSH1 0x14 SWAP1 SLOAD SWAP1 PUSH2 0x100 EXP SWAP1 DIV PUSH1 0xFF AND PUSH2 0x797 JUMPI PUSH1 0x40 MLOAD PUSH32 0x8C379A000000000000000000000000000000000000000000000000000000000 DUP2 MSTORE PUSH1 0x4 ADD PUSH2 0x78E SWAP1 PUSH2 0xF42 JUMP JUMPDEST PUSH1 0x40 MLOAD DUP1 SWAP2 SUB SWAP1 REVERT JUMPDEST DUP1 PUSH1 0x1 ADD SLOAD CALLVALUE EQ PUSH2 0x7DD JUMPI PUSH1 0x40 MLOAD PUSH32 0x8C379A000000000000000000000000000000000000000000000000000000000 DUP2 MSTORE PUSH1 0x4 ADD PUSH2 0x7D4 SWAP1 PUSH2 0xFAA JUMP JUMPDEST PUSH1 0x40 MLOAD DUP1 SWAP2 SUB SWAP1 REVERT JUMPDEST PUSH0 CALLER DUP4 PUSH1 0x4 PUSH0 DUP2 SLOAD DUP1 SWAP3 SWAP2 SWAP1 PUSH2 0x7F2 SWAP1 PUSH2 0xFF5 JUMP JUMPDEST SWAP2 SWAP1 POP SSTORE PUSH1 0x40 MLOAD PUSH1 0x20 ADD PUSH2 0x808 SWAP4 SWAP3 SWAP2 SWAP1 PUSH2 0x103C JUMP JUMPDEST PUSH1 0x40 MLOAD PUSH1 0x20 DUP2 DUP4 SUB SUB DUP2 MSTORE SWAP1 PUSH1 0x40 MSTORE DUP1 MLOAD SWAP1 PUSH1 0x20 ADD KECCAK256 PUSH0 SHR SWAP1 POP PUSH1 0x40 MLOAD DUP1 PUSH1 0x80 ADD PUSH1 0x40 MSTORE DUP1 CALLER PUSH20 0xFFFFFFFFFFFFFFFFFFFFFFFFFFFFFFFFFFFFFFFF AND DUP2 MSTORE PUSH1 0x20 ADD DUP5 DUP2 MSTORE PUSH1 0x20 ADD PUSH1 0x1 PUSH1 0x5 DUP2 GT ISZERO PUSH2 0x863 JUMPI PUSH2 0x862 PUSH2 0xC53 JUMP JUMPDEST JUMPDEST DUP2 MSTORE PUSH1 0x20 ADD PUSH2 0xE10 TIMESTAMP PUSH2 0x876 SWAP2 SWAP1 PUSH2 0x1071 JUMP JUMPDEST DUP2 MSTORE POP PUSH1 0x2 PUSH0 DUP4 DUP2 MSTORE PUSH1 0x20 ADD SWAP1 DUP2 MSTORE PUSH1 0x20 ADD PUSH0 KECCAK256 PUSH0 DUP3 ADD MLOAD DUP2 PUSH0 ADD PUSH0 PUSH2 0x100 EXP DUP2 SLOAD DUP2 PUSH20 0xFFFFFFFFFFFFFFFFFFFFFFFFFFFFFFFFFFFFFFFF MUL NOT AND SWAP1 DUP4 PUSH20 0xFFFFFFFFFFFFFFFFFFFFFFFFFFFFFFFFFFFFFFFF AND MUL OR SWAP1 SSTORE POP PUSH1 0x20 DUP3 ADD MLOAD DUP2 PUSH1 0x1 ADD SSTORE PUSH1 0x40 DUP3 ADD MLOAD DUP2 PUSH1 0x2 ADD PUSH0 PUSH2 0x100 EXP DUP2 SLOAD DUP2 PUSH1 0xFF MUL NOT AND SWAP1 DUP4 PUSH1 0x5 DUP2 GT ISZERO PUSH2 0x902 JUMPI PUSH2 0x901 PUSH2 0xC53 JUMP JUMPDEST JUMPDEST MUL OR SWAP1 SSTORE POP PUSH1 0x60 DUP3 ADD MLOAD DUP2 PUSH1 0x3 ADD SSTORE SWAP1 POP POP CALLVALUE PUSH1 0x3 PUSH0 DUP4 DUP2 MSTORE PUSH1 0x20 ADD SWAP1 DUP2 MSTORE PUSH1 0x20 ADD PUSH0 KECCAK256 DUP2 SWAP1 SSTORE POP PUSH0 DUP3 PUSH1 0x2 ADD PUSH1 0x14 PUSH2 0x100 EXP DUP2 SLOAD DUP2 PUSH1 0xFF MUL NOT AND SWAP1 DUP4 ISZERO ISZERO MUL OR SWAP1 SSTORE POP DUP3 CALLER PUSH20 0xFFFFFFFFFFFFFFFFFFFFFFFFFFFFFFFFFFFFFFFF AND DUP3 PUSH32 0xF7C110A6973307F2BC91245C2C06344ADA13ADD2C1741E83AC5C0BB332BC85D5 CALLVALUE PUSH1 0x40 MLOAD PUSH2 0x98E SWAP2 SWAP1 PUSH2 0x10A4 JUMP JUMPDEST PUSH1 0x40 MLOAD DUP1 SWAP2 SUB SWAP1 LOG4 POP POP POP JUMP JUMPDEST PUSH0 PUSH0 PUSH1 0x5 DUP2 GT ISZERO PUSH2 0x9AF JUMPI PUSH2 0x9AE PUSH2 0xC53 JUMP JUMPDEST JUMPDEST DUP4 PUSH1 0x5 DUP2 GT ISZERO PUSH2 0x9C2 JUMPI PUSH2 0x9C1 PUSH2 0xC53 JUMP JUMPDEST JUMPDEST EQ DUP1 ISZERO PUSH2 0x9F3 JUMPI POP PUSH1 0x1 PUSH1 0x5 DUP2 GT ISZERO PUSH2 0x9DE JUMPI PUSH2 0x9DD PUSH2 0xC53 JUMP JUMPDEST JUMPDEST DUP3 PUSH1 0x5 DUP2 GT ISZERO PUSH2 0x9F1 JUMPI PUSH2 0x9F0 PUSH2 0xC53 JUMP JUMPDEST JUMPDEST EQ JUMPDEST DUP1 PUSH2 0xA80 JUMPI POP PUSH1 0x1 PUSH1 0x5 DUP2 GT ISZERO PUSH2 0xA0D JUMPI PUSH2 0xA0C PUSH2 0xC53 JUMP JUMPDEST JUMPDEST DUP4 PUSH1 0x5 DUP2 GT ISZERO PUSH2 0xA20 JUMPI PUSH2 0xA1F PUSH2 0xC53 JUMP JUMPDEST JUMPDEST EQ DUP1 ISZERO PUSH2 0xA7F JUMPI POP PUSH1 0x2 PUSH1 0x5 DUP2 GT ISZERO PUSH2 0xA3C JUMPI PUSH2 0xA3B PUSH2 0xC53 JUMP JUMPDEST JUMPDEST DUP3 PUSH1 0x5 DUP2 GT ISZERO PUSH2 0xA4F JUMPI PUSH2 0xA4E PUSH2 0xC53 JUMP JUMPDEST JUMPDEST EQ DUP1 PUSH2 0xA7E JUMPI POP PUSH1 0x5 DUP1 DUP2 GT ISZERO PUSH2 0xA69 JUMPI PUSH2 0xA68 PUSH2 0xC53 JUMP JUMPDEST JUMPDEST DUP3 PUSH1 0x5 DUP2 GT ISZERO PUSH2 0xA7C JUMPI PUSH2 0xA7B PUSH2 0xC53 JUMP JUMPDEST JUMPDEST EQ JUMPDEST JUMPDEST JUMPDEST DUP1 PUSH2 0xADF JUMPI POP PUSH1 0x2 PUSH1 0x5 DUP2 GT ISZERO PUSH2 0xA9A JUMPI PUSH2 0xA99 PUSH2 0xC53 JUMP JUMPDEST JUMPDEST DUP4 PUSH1 0x5 DUP2 GT ISZERO PUSH2 0xAAD JUMPI PUSH2 0xAAC PUSH2 0xC53 JUMP JUMPDEST JUMPDEST EQ DUP1 ISZERO PUSH2 0xADE JUMPI POP PUSH1 0x3 PUSH1 0x5 DUP2 GT ISZERO PUSH2 0xAC9 JUMPI PUSH2 0xAC8 PUSH2 0xC53 JUMP JUMPDEST JUMPDEST DUP3 PUSH1 0x5 DUP2 GT ISZERO PUSH2 0xADC JUMPI PUSH2 0xADB PUSH2 0xC53 JUMP JUMPDEST JUMPDEST EQ JUMPDEST JUMPDEST DUP1 PUSH2 0xB3E JUMPI POP PUSH1 0x3 PUSH1 0x5 DUP2 GT ISZERO PUSH2 0xAF9 JUMPI PUSH2 0xAF8 PUSH2 0xC53 JUMP JUMPDEST JUMPDEST DUP4 PUSH1 0x5 DUP2 GT ISZERO PUSH2 0xB0C JUMPI PUSH2 0xB0B PUSH2 0xC53 JUMP JUMPDEST JUMPDEST EQ DUP1 ISZERO PUSH2 0xB3D JUMPI POP PUSH1 0x4 PUSH1 0x5 DUP2 GT ISZERO PUSH2 0xB28 JUMPI PUSH2 0xB27 PUSH2 0xC53 JUMP JUMPDEST JUMPDEST DUP3 PUSH1 0x5 DUP2 GT ISZERO PUSH2 0xB3B JUMPI PUSH2 0xB3A PUSH2 0xC53 JUMP JUMPDEST JUMPDEST EQ JUMPDEST JUMPDEST SWAP1 POP SWAP3 SWAP2 POP POP JUMP JUMPDEST PUSH0 PUSH0 REVERT JUMPDEST PUSH0 DUP2 SWAP1 POP SWAP2 SWAP1 POP JUMP JUMPDEST PUSH2 0xB5C DUP2 PUSH2 0xB4A JUMP JUMPDEST DUP2 EQ PUSH2 0xB66 JUMPI PUSH0 PUSH0 REVERT JUMPDEST POP JUMP JUMPDEST PUSH0 DUP2 CALLDATALOAD SWAP1 POP PUSH2 0xB77 DUP2 PUSH2 0xB53 JUMP JUMPDEST SWAP3 SWAP2 POP POP JUMP JUMPDEST PUSH0 PUSH1 0x20 DUP3 DUP5 SUB SLT ISZERO PUSH2 0xB92 JUMPI PUSH2 0xB91 PUSH2 0xB46 JUMP JUMPDEST JUMPDEST PUSH0 PUSH2 0xB9F DUP5 DUP3 DUP6 ADD PUSH2 0xB69 JUMP JUMPDEST SWAP2 POP POP SWAP3 SWAP2 POP POP JUMP JUMPDEST PUSH2 0xBB1 DUP2 PUSH2 0xB4A JUMP JUMPDEST DUP3 MSTORE POP POP JUMP JUMPDEST PUSH0 PUSH20 0xFFFFFFFFFFFFFFFFFFFFFFFFFFFFFFFFFFFFFFFF DUP3 AND SWAP1 POP SWAP2 SWAP1 POP JUMP JUMPDEST PUSH0 PUSH2 0xBE0 DUP3 PUSH2 0xBB7 JUMP JUMPDEST SWAP1 POP SWAP2 SWAP1 POP JUMP JUMPDEST PUSH2 0xBF0 DUP2 PUSH2 0xBD6 JUMP JUMPDEST DUP3 MSTORE POP POP JUMP JUMPDEST PUSH0 DUP2 ISZERO ISZERO SWAP1 POP SWAP2 SWAP1 POP JUMP JUMPDEST PUSH2 0xC0A DUP2 PUSH2 0xBF6 JUMP JUMPDEST DUP3 MSTORE POP POP JUMP JUMPDEST PUSH0 PUSH1 0x80 DUP3 ADD SWAP1 POP PUSH2 0xC23 PUSH0 DUP4 ADD DUP8 PUSH2 0xBA8 JUMP JUMPDEST PUSH2 0xC30 PUSH1 0x20 DUP4 ADD DUP7 PUSH2 0xBA8 JUMP JUMPDEST PUSH2 0xC3D PUSH1 0x40 DUP4 ADD DUP6 PUSH2 0xBE7 JUMP JUMPDEST PUSH2 0xC4A PUSH1 0x60 DUP4 ADD DUP5 PUSH2 0xC01 JUMP JUMPDEST SWAP6 SWAP5 POP POP POP POP POP JUMP JUMPDEST PUSH32 0x4E487B7100000000000000000000000000000000000000000000000000000000 PUSH0 MSTORE PUSH1 0x21 PUSH1 0x4 MSTORE PUSH1 0x24 PUSH0 REVERT JUMPDEST PUSH1 0x6 DUP2 LT PUSH2 0xC91 JUMPI PUSH2 0xC90 PUSH2 0xC53 JUMP JUMPDEST JUMPDEST POP JUMP JUMPDEST PUSH0 DUP2 SWAP1 POP PUSH2 0xCA1 DUP3 PUSH2 0xC80 JUMP JUMPDEST SWAP2 SWAP1 POP JUMP JUMPDEST PUSH0 PUSH2 0xCB0 DUP3 PUSH2 0xC94 JUMP JUMPDEST SWAP1 POP SWAP2 SWAP1 POP JUMP JUMPDEST PUSH2 0xCC0 DUP2 PUSH2 0xCA6 JUMP JUMPDEST DUP3 MSTORE POP POP JUMP JUMPDEST PUSH0 PUSH1 0x80 DUP3 ADD SWAP1 POP PUSH2 0xCD9 PUSH0 DUP4 ADD DUP8 PUSH2 0xBE7 JUMP JUMPDEST PUSH2 0xCE6 PUSH1 0x20 DUP4 ADD DUP7 PUSH2 0xBA8 JUMP JUMPDEST PUSH2 0xCF3 PUSH1 0x40 DUP4 ADD DUP6 PUSH2 0xCB7 JUMP JUMPDEST PUSH2 0xD00 PUSH1 0x60 DUP4 ADD DUP5 PUSH2 0xBA8 JUMP JUMPDEST SWAP6 SWAP5 POP POP POP POP POP JUMP JUMPDEST PUSH1 0x6 DUP2 LT PUSH2 0xD15 JUMPI PUSH0 PUSH0 REVERT JUMPDEST POP JUMP JUMPDEST PUSH0 DUP2 CALLDATALOAD SWAP1 POP PUSH2 0xD26 DUP2 PUSH2 0xD09 JUMP JUMPDEST SWAP3 SWAP2 POP POP JUMP JUMPDEST PUSH0 PUSH0 PUSH1 0x40 DUP4 DUP6 SUB SLT ISZERO PUSH2 0xD42 JUMPI PUSH2 0xD41 PUSH2 0xB46 JUMP JUMPDEST JUMPDEST PUSH0 PUSH2 0xD4F DUP6 DUP3 DUP7 ADD PUSH2 0xB69 JUMP JUMPDEST SWAP3 POP POP PUSH1 0x20 PUSH2 0xD60 DUP6 DUP3 DUP7 ADD PUSH2 0xD18 JUMP JUMPDEST SWAP2 POP POP SWAP3 POP SWAP3 SWAP1 POP JUMP JUMPDEST PUSH32 0x4E487B7100000000000000000000000000000000000000000000000000000000 PUSH0 MSTORE PUSH1 0x32 PUSH1 0x4 MSTORE PUSH1 0x24 PUSH0 REVERT JUMPDEST PUSH0 DUP3 DUP3 MSTORE PUSH1 0x20 DUP3 ADD SWAP1 POP SWAP3 SWAP2 POP POP JUMP JUMPDEST PUSH32 0x556E617574686F72697A65640000000000000000000000000000000000000000 PUSH0 DUP3 ADD MSTORE POP JUMP JUMPDEST PUSH0 PUSH2 0xDDB PUSH1 0xC DUP4 PUSH2 0xD97 JUMP JUMPDEST SWAP2 POP PUSH2 0xDE6 DUP3 PUSH2 0xDA7 JUMP JUMPDEST PUSH1 0x20 DUP3 ADD SWAP1 POP SWAP2 SWAP1 POP JUMP JUMPDEST PUSH0 PUSH1 0x20 DUP3 ADD SWAP1 POP DUP2 DUP2 SUB PUSH0 DUP4 ADD MSTORE PUSH2 0xE08 DUP2 PUSH2 0xDCF JUMP JUMPDEST SWAP1 POP SWAP2 SWAP1 POP JUMP JUMPDEST PUSH32 0x4578706972656400000000000000000000000000000000000000000000000000 PUSH0 DUP3 ADD MSTORE POP JUMP JUMPDEST PUSH0 PUSH2 0xE43 PUSH1 0x7 DUP4 PUSH2 0xD97 JUMP JUMPDEST SWAP2 POP PUSH2 0xE4E DUP3 PUSH2 0xE0F JUMP JUMPDEST PUSH1 0x20 DUP3 ADD SWAP1 POP SWAP2 SWAP1 POP JUMP JUMPDEST PUSH0 PUSH1 0x20 DUP3 ADD SWAP1 POP DUP2 DUP2 SUB PUSH0 DUP4 ADD MSTORE PUSH2 0xE70 DUP2 PUSH2 0xE37 JUMP JUMPDEST SWAP1 POP SWAP2 SWAP1 POP JUMP JUMPDEST PUSH32 0x496E76616C6964207472616E736974696F6E0000000000000000000000000000 PUSH0 DUP3 ADD MSTORE POP JUMP JUMPDEST PUSH0 PUSH2 0xEAB PUSH1 0x12 DUP4 PUSH2 0xD97 JUMP JUMPDEST SWAP2 POP PUSH2 0xEB6 DUP3 PUSH2 0xE77 JUMP JUMPDEST PUSH1 0x20 DUP3 ADD SWAP1 POP SWAP2 SWAP1 POP JUMP JUMPDEST PUSH0 PUSH1 0x20 DUP3 ADD SWAP1 POP DUP2 DUP2 SUB PUSH0 DUP4 ADD MSTORE PUSH2 0xED8 DUP2 PUSH2 0xE9F JUMP JUMPDEST SWAP1 POP SWAP2 SWAP1 POP JUMP JUMPDEST PUSH0 PUSH1 0x20 DUP3 ADD SWAP1 POP PUSH2 0xEF2 PUSH0 DUP4 ADD DUP5 PUSH2 0xCB7 JUMP JUMPDEST SWAP3 SWAP2 POP POP JUMP JUMPDEST PUSH32 0x4E6F7420617661696C61626C6500000000000000000000000000000000000000 PUSH0 DUP3 ADD MSTORE POP JUMP JUMPDEST PUSH0 PUSH2 0xF2C PUSH1 0xD DUP4 PUSH2 0xD97 JUMP JUMPDEST SWAP2 POP PUSH2 0xF37 DUP3 PUSH2 0xEF8 JUMP JUMPDEST PUSH1 0x20 DUP3 ADD SWAP1 POP SWAP2 SWAP1 POP JUMP JUMPDEST PUSH0 PUSH1 0x20 DUP3 ADD SWAP1 POP DUP2 DUP2 SUB PUSH0 DUP4 ADD MSTORE PUSH2 0xF59 DUP2 PUSH2 0xF20 JUMP JUMPDEST SWAP1 POP SWAP2 SWAP1 POP JUMP JUMPDEST PUSH32 0x496E636F7272656374207061796D656E74000000000000000000000000000000 PUSH0 DUP3 ADD MSTORE POP JUMP JUMPDEST PUSH0 PUSH2 0xF94 PUSH1 0x11 DUP4 PUSH2 0xD97 JUMP JUMPDEST SWAP2 POP PUSH2 0xF9F DUP3 PUSH2 0xF60 JUMP JUMPDEST PUSH1 0x20 DUP3 ADD SWAP1 POP SWAP2 SWAP1 POP JUMP JUMPDEST PUSH0 PUSH1 0x20 DUP3 ADD SWAP1 POP DUP2 DUP2 SUB PUSH0 DUP4 ADD MSTORE PUSH2 0xFC1 DUP2 PUSH2 0xF88 JUMP JUMPDEST SWAP1 POP SWAP2 SWAP1 POP JUMP JUMPDEST PUSH32 0x4E487B7100000000000000000000000000000000000000000000000000000000 PUSH0 MSTORE PUSH1 0x11 PUSH1 0x4 MSTORE PUSH1 0x24 PUSH0 REVERT JUMPDEST PUSH0 PUSH2 0xFFF DUP3 PUSH2 0xB4A JUMP JUMPDEST SWAP2 POP PUSH32 0xFFFFFFFFFFFFFFFFFFFFFFFFFFFFFFFFFFFFFFFFFFFFFFFFFFFFFFFFFFFFFFFF DUP3 SUB PUSH2 0x1031 JUMPI PUSH2 0x1030 PUSH2 0xFC8 JUMP JUMPDEST JUMPDEST PUSH1 0x1 DUP3 ADD SWAP1 POP SWAP2 SWAP1 POP JUMP JUMPDEST PUSH0 PUSH1 0x60 DUP3 ADD SWAP1 POP PUSH2 0x104F PUSH0 DUP4 ADD DUP7 PUSH2 0xBE7 JUMP JUMPDEST PUSH2 0x105C PUSH1 0x20 DUP4 ADD DUP6 PUSH2 0xBA8 JUMP JUMPDEST PUSH2 0x1069 PUSH1 0x40 DUP4 ADD DUP5 PUSH2 0xBA8 JUMP JUMPDEST SWAP5 SWAP4 POP POP POP POP JUMP JUMPDEST PUSH0 PUSH2 0x107B DUP3 PUSH2 0xB4A JUMP JUMPDEST SWAP2 POP PUSH2 0x1086 DUP4 PUSH2 0xB4A JUMP JUMPDEST SWAP3 POP DUP3 DUP3 ADD SWAP1 POP DUP1 DUP3 GT ISZERO PUSH2 0x109E JUMPI PUSH2 0x109D PUSH2 0xFC8 JUMP JUMPDEST JUMPDEST SWAP3 SWAP2 POP POP JUMP JUMPDEST PUSH0 PUSH1 0x20 DUP3 ADD SWAP1 POP PUSH2 0x10B7 PUSH0 DUP4 ADD DUP5 PUSH2 0xBA8 JUMP JUMPDEST SWAP3 SWAP2 POP POP JUMP INVALID LOG2 PUSH5 0x6970667358 0x22 SLT KECCAK256 0xEF CALLVALUE 0x4C 0x4E 0xAC PUSH0 0x28 STOP 0x29 TLOAD MSTORE8 0xDF SWAP1 0xDC SUB 0x28 0xED 0xAB PUSH4 0xAABA5891 CALLDATACOPY BLOBHASH 0xC8 SWAP7 JUMPF 0xFCE2 0xCA RETURNDATACOPY PUSH5 0x736F6C6343 STOP ADDMOD 0x1E STOP CALLER "
				},
				"gasEstimates": {
					"creation": {
						"codeDepositCost": "867800",
						"executionCost": "901",
						"totalCost": "868701"
					},
					"external": {
						"addProduct(uint256)": "223427",
						"createOrder(uint256)": "infinite",
						"orders(uint256)": "infinite",
						"productById(uint256)": "infinite",
						"products(uint256)": "infinite",
						"updateOrderStatus(uint256,uint8)": "infinite"
					},
					"internal": {
						"_isValidTransition(enum Marketplace.OrderStatus,enum Marketplace.OrderStatus)": "752"
					}
				},
				"methodIdentifiers": {
					"addProduct(uint256)": "327a48cc",
					"createOrder(uint256)": "f8ad8cd7",
					"orders(uint256)": "a85c38ef",
					"productById(uint256)": "a30b475f",
					"products(uint256)": "7acc0b20",
					"updateOrderStatus(uint256,uint8)": "aab3196d"
				}
			},
			"storageLayout": {
				"storage": [
					{
						"astId": 31,
						"contract": "contract/gpt.sol:Marketplace",
						"label": "products",
						"offset": 0,
						"slot": "0",
						"type": "t_array(t_struct(Product)10_storage)dyn_storage"
					},
					{
						"astId": 36,
						"contract": "contract/gpt.sol:Marketplace",
						"label": "productById",
						"offset": 0,
						"slot": "1",
						"type": "t_mapping(t_uint256,t_struct(Product)10_storage)"
					},
					{
						"astId": 41,
						"contract": "contract/gpt.sol:Marketplace",
						"label": "orders",
						"offset": 0,
						"slot": "2",
						"type": "t_mapping(t_uint256,t_struct(Order)27_storage)"
					},
					{
						"astId": 45,
						"contract": "contract/gpt.sol:Marketplace",
						"label": "orderPayments",
						"offset": 0,
						"slot": "3",
						"type": "t_mapping(t_uint256,t_uint256)"
					},
					{
						"astId": 47,
						"contract": "contract/gpt.sol:Marketplace",
						"label": "orderNonce",
						"offset": 0,
						"slot": "4",
						"type": "t_uint256"
					}
				],
				"types": {
					"t_address": {
						"encoding": "inplace",
						"label": "address",
						"numberOfBytes": "20"
					},
					"t_array(t_struct(Product)10_storage)dyn_storage": {
						"base": "t_struct(Product)10_storage",
						"encoding": "dynamic_array",
						"label": "struct Marketplace.Product[]",
						"numberOfBytes": "32"
					},
					"t_bool": {
						"encoding": "inplace",
						"label": "bool",
						"numberOfBytes": "1"
					},
					"t_enum(OrderStatus)17": {
						"encoding": "inplace",
						"label": "enum Marketplace.OrderStatus",
						"numberOfBytes": "1"
					},
					"t_mapping(t_uint256,t_struct(Order)27_storage)": {
						"encoding": "mapping",
						"key": "t_uint256",
						"label": "mapping(uint256 => struct Marketplace.Order)",
						"numberOfBytes": "32",
						"value": "t_struct(Order)27_storage"
					},
					"t_mapping(t_uint256,t_struct(Product)10_storage)": {
						"encoding": "mapping",
						"key": "t_uint256",
						"label": "mapping(uint256 => struct Marketplace.Product)",
						"numberOfBytes": "32",
						"value": "t_struct(Product)10_storage"
					},
					"t_mapping(t_uint256,t_uint256)": {
						"encoding": "mapping",
						"key": "t_uint256",
						"label": "mapping(uint256 => uint256)",
						"numberOfBytes": "32",
						"value": "t_uint256"
					},
					"t_struct(Order)27_storage": {
						"encoding": "inplace",
						"label": "struct Marketplace.Order",
						"members": [
							{
								"astId": 19,
								"contract": "contract/gpt.sol:Marketplace",
								"label": "buyer",
								"offset": 0,
								"slot": "0",
								"type": "t_address"
							},
							{
								"astId": 21,
								"contract": "contract/gpt.sol:Marketplace",
								"label": "productId",
								"offset": 0,
								"slot": "1",
								"type": "t_uint256"
							},
							{
								"astId": 24,
								"contract": "contract/gpt.sol:Marketplace",
								"label": "status",
								"offset": 0,
								"slot": "2",
								"type": "t_enum(OrderStatus)17"
							},
							{
								"astId": 26,
								"contract": "contract/gpt.sol:Marketplace",
								"label": "deadline",
								"offset": 0,
								"slot": "3",
								"type": "t_uint256"
							}
						],
						"numberOfBytes": "128"
					},
					"t_struct(Product)10_storage": {
						"encoding": "inplace",
						"label": "struct Marketplace.Product",
						"members": [
							{
								"astId": 3,
								"contract": "contract/gpt.sol:Marketplace",
								"label": "id",
								"offset": 0,
								"slot": "0",
								"type": "t_uint256"
							},
							{
								"astId": 5,
								"contract": "contract/gpt.sol:Marketplace",
								"label": "price",
								"offset": 0,
								"slot": "1",
								"type": "t_uint256"
							},
							{
								"astId": 7,
								"contract": "contract/gpt.sol:Marketplace",
								"label": "seller",
								"offset": 0,
								"slot": "2",
								"type": "t_address"
							},
							{
								"astId": 9,
								"contract": "contract/gpt.sol:Marketplace",
								"label": "isAvailable",
								"offset": 20,
								"slot": "2",
								"type": "t_bool"
							}
						],
						"numberOfBytes": "96"
					},
					"t_uint256": {
						"encoding": "inplace",
						"label": "uint256",
						"numberOfBytes": "32"
					}
				}
			},
			"userdoc": {
				"kind": "user",
				"methods": {},
				"version": 1
			}
		}
	}
}