{
	"contract/1stClass.sol": {
		"MyFirstContract": {
			"abi": [
				{
					"inputs": [
						{
							"internalType": "uint256",
							"name": "_addAge",
							"type": "uint256"
						}
					],
					"name": "addAge",
					"outputs": [
						{
							"internalType": "uint256",
							"name": "",
							"type": "uint256"
						}
					],
					"stateMutability": "nonpayable",
					"type": "function"
				},
				{
					"inputs": [],
					"name": "age",
					"outputs": [
						{
							"internalType": "uint256",
							"name": "",
							"type": "uint256"
						}
					],
					"stateMutability": "view",
					"type": "function"
				},
				{
					"inputs": [],
					"name": "getInfo",
					"outputs": [
						{
							"internalType": "string",
							"name": "",
							"type": "string"
						},
						{
							"internalType": "uint256",
							"name": "",
							"type": "uint256"
						},
						{
							"internalType": "uint256",
							"name": "",
							"type": "uint256"
						}
					],
					"stateMutability": "view",
					"type": "function"
				},
				{
					"inputs": [],
					"name": "name",
					"outputs": [
						{
							"internalType": "string",
							"name": "",
							"type": "string"
						}
					],
					"stateMutability": "view",
					"type": "function"
				},
				{
					"inputs": [],
					"name": "newAge",
					"outputs": [
						{
							"internalType": "uint256",
							"name": "",
							"type": "uint256"
						}
					],
					"stateMutability": "view",
					"type": "function"
				},
				{
					"inputs": [
						{
							"internalType": "uint256",
							"name": "_age",
							"type": "uint256"
						}
					],
					"name": "setAge",
					"outputs": [],
					"stateMutability": "nonpayable",
					"type": "function"
				},
				{
					"inputs": [
						{
							"internalType": "string",
							"name": "_name",
							"type": "string"
						}
					],
					"name": "setName",
					"outputs": [],
					"stateMutability": "nonpayable",
					"type": "function"
				}
			],
			"devdoc": {
				"kind": "dev",
				"methods": {},
				"version": 1
			},
			"evm": {
				"assembly": "    /* \"contract/1stClass.sol\":61:1405  contract MyFirstContract{... */\n  mstore(0x40, 0x80)\n  callvalue\n  dup1\n  iszero\n  tag_1\n  jumpi\n  revert(0x00, 0x00)\ntag_1:\n  pop\n  dataSize(sub_0)\n  dup1\n  dataOffset(sub_0)\n  0x00\n  codecopy\n  0x00\n  return\nstop\n\nsub_0: assembly {\n        /* \"contract/1stClass.sol\":61:1405  contract MyFirstContract{... */\n      mstore(0x40, 0x80)\n      callvalue\n      dup1\n      iszero\n      tag_1\n      jumpi\n      revert(0x00, 0x00)\n    tag_1:\n      pop\n      jumpi(tag_2, lt(calldatasize, 0x04))\n      shr(0xe0, calldataload(0x00))\n      dup1\n      0xbbb060ef\n      gt\n      tag_10\n      jumpi\n      dup1\n      0xbbb060ef\n      eq\n      tag_6\n      jumpi\n      dup1\n      0xc47f0027\n      eq\n      tag_7\n      jumpi\n      dup1\n      0xd5dcf127\n      eq\n      tag_8\n      jumpi\n      dup1\n      0xe5506953\n      eq\n      tag_9\n      jumpi\n      jump(tag_2)\n    tag_10:\n      dup1\n      0x06fdde03\n      eq\n      tag_3\n      jumpi\n      dup1\n      0x262a9dff\n      eq\n      tag_4\n      jumpi\n      dup1\n      0x5a9b0b89\n      eq\n      tag_5\n      jumpi\n    tag_2:\n      revert(0x00, 0x00)\n        /* \"contract/1stClass.sol\":860:878  string public name */\n    tag_3:\n      tag_11\n      tag_12\n      jump\t// in\n    tag_11:\n      mload(0x40)\n      tag_13\n      swap2\n      swap1\n      tag_14\n      jump\t// in\n    tag_13:\n      mload(0x40)\n      dup1\n      swap2\n      sub\n      swap1\n      return\n        /* \"contract/1stClass.sol\":885:900  uint public age */\n    tag_4:\n      tag_15\n      tag_16\n      jump\t// in\n    tag_15:\n      mload(0x40)\n      tag_17\n      swap2\n      swap1\n      tag_18\n      jump\t// in\n    tag_17:\n      mload(0x40)\n      dup1\n      swap2\n      sub\n      swap1\n      return\n        /* \"contract/1stClass.sol\":1289:1400  function getInfo() public view returns(string memory, uint, uint) {... */\n    tag_5:\n      tag_19\n      tag_20\n      jump\t// in\n    tag_19:\n      mload(0x40)\n      tag_21\n      swap4\n      swap3\n      swap2\n      swap1\n      tag_22\n      jump\t// in\n    tag_21:\n      mload(0x40)\n      dup1\n      swap2\n      sub\n      swap1\n      return\n        /* \"contract/1stClass.sol\":1165:1281  function addAge(uint _addAge) public returns(uint) {... */\n    tag_6:\n      tag_23\n      0x04\n      dup1\n      calldatasize\n      sub\n      dup2\n      add\n      swap1\n      tag_24\n      swap2\n      swap1\n      tag_25\n      jump\t// in\n    tag_24:\n      tag_26\n      jump\t// in\n    tag_23:\n      mload(0x40)\n      tag_27\n      swap2\n      swap1\n      tag_18\n      jump\t// in\n    tag_27:\n      mload(0x40)\n      dup1\n      swap2\n      sub\n      swap1\n      return\n        /* \"contract/1stClass.sol\":954:1030  function setName(string memory _name) public {... */\n    tag_7:\n      tag_28\n      0x04\n      dup1\n      calldatasize\n      sub\n      dup2\n      add\n      swap1\n      tag_29\n      swap2\n      swap1\n      tag_30\n      jump\t// in\n    tag_29:\n      tag_31\n      jump\t// in\n    tag_28:\n      stop\n        /* \"contract/1stClass.sol\":1038:1101  function setAge(uint _age) public {... */\n    tag_8:\n      tag_32\n      0x04\n      dup1\n      calldatasize\n      sub\n      dup2\n      add\n      swap1\n      tag_33\n      swap2\n      swap1\n      tag_25\n      jump\t// in\n    tag_33:\n      tag_34\n      jump\t// in\n    tag_32:\n      stop\n        /* \"contract/1stClass.sol\":907:925  uint public newAge */\n    tag_9:\n      tag_35\n      tag_36\n      jump\t// in\n    tag_35:\n      mload(0x40)\n      tag_37\n      swap2\n      swap1\n      tag_18\n      jump\t// in\n    tag_37:\n      mload(0x40)\n      dup1\n      swap2\n      sub\n      swap1\n      return\n        /* \"contract/1stClass.sol\":860:878  string public name */\n    tag_12:\n      0x00\n      dup1\n      sload\n      tag_38\n      swap1\n      tag_39\n      jump\t// in\n    tag_38:\n      dup1\n      0x1f\n      add\n      0x20\n      dup1\n      swap2\n      div\n      mul\n      0x20\n      add\n      mload(0x40)\n      swap1\n      dup2\n      add\n      0x40\n      mstore\n      dup1\n      swap3\n      swap2\n      swap1\n      dup2\n      dup2\n      mstore\n      0x20\n      add\n      dup3\n      dup1\n      sload\n      tag_40\n      swap1\n      tag_39\n      jump\t// in\n    tag_40:\n      dup1\n      iszero\n      tag_41\n      jumpi\n      dup1\n      0x1f\n      lt\n      tag_42\n      jumpi\n      0x0100\n      dup1\n      dup4\n      sload\n      div\n      mul\n      dup4\n      mstore\n      swap2\n      0x20\n      add\n      swap2\n      jump(tag_41)\n    tag_42:\n      dup3\n      add\n      swap2\n      swap1\n      0x00\n      mstore\n      keccak256(0x00, 0x20)\n      swap1\n    tag_43:\n      dup2\n      sload\n      dup2\n      mstore\n      swap1\n      0x01\n      add\n      swap1\n      0x20\n      add\n      dup1\n      dup4\n      gt\n      tag_43\n      jumpi\n      dup3\n      swap1\n      sub\n      0x1f\n      and\n      dup3\n      add\n      swap2\n    tag_41:\n      pop\n      pop\n      pop\n      pop\n      pop\n      dup2\n      jump\t// out\n        /* \"contract/1stClass.sol\":885:900  uint public age */\n    tag_16:\n      sload(0x01)\n      dup2\n      jump\t// out\n        /* \"contract/1stClass.sol\":1289:1400  function getInfo() public view returns(string memory, uint, uint) {... */\n    tag_20:\n        /* \"contract/1stClass.sol\":1328:1341  string memory */\n      0x60\n        /* \"contract/1stClass.sol\":1343:1347  uint */\n      0x00\n        /* \"contract/1stClass.sol\":1349:1353  uint */\n      0x00\n        /* \"contract/1stClass.sol\":1374:1378  name */\n      0x00\n        /* \"contract/1stClass.sol\":1380:1383  age */\n      sload(0x01)\n        /* \"contract/1stClass.sol\":1385:1391  newAge */\n      sload(0x02)\n        /* \"contract/1stClass.sol\":1366:1392  return (name, age, newAge) */\n      dup3\n      dup1\n      sload\n      tag_45\n      swap1\n      tag_39\n      jump\t// in\n    tag_45:\n      dup1\n      0x1f\n      add\n      0x20\n      dup1\n      swap2\n      div\n      mul\n      0x20\n      add\n      mload(0x40)\n      swap1\n      dup2\n      add\n      0x40\n      mstore\n      dup1\n      swap3\n      swap2\n      swap1\n      dup2\n      dup2\n      mstore\n      0x20\n      add\n      dup3\n      dup1\n      sload\n      tag_46\n      swap1\n      tag_39\n      jump\t// in\n    tag_46:\n      dup1\n      iszero\n      tag_47\n      jumpi\n      dup1\n      0x1f\n      lt\n      tag_48\n      jumpi\n      0x0100\n      dup1\n      dup4\n      sload\n      div\n      mul\n      dup4\n      mstore\n      swap2\n      0x20\n      add\n      swap2\n      jump(tag_47)\n    tag_48:\n      dup3\n      add\n      swap2\n      swap1\n      0x00\n      mstore\n      keccak256(0x00, 0x20)\n      swap1\n    tag_49:\n      dup2\n      sload\n      dup2\n      mstore\n      swap1\n      0x01\n      add\n      swap1\n      0x20\n      add\n      dup1\n      dup4\n      gt\n      tag_49\n      jumpi\n      dup3\n      swap1\n      sub\n      0x1f\n      and\n      dup3\n      add\n      swap2\n    tag_47:\n      pop\n      pop\n      pop\n      pop\n      pop\n      swap3\n      pop\n      swap3\n      pop\n      swap3\n      pop\n      swap3\n      pop\n        /* \"contract/1stClass.sol\":1289:1400  function getInfo() public view returns(string memory, uint, uint) {... */\n      swap1\n      swap2\n      swap3\n      jump\t// out\n        /* \"contract/1stClass.sol\":1165:1281  function addAge(uint _addAge) public returns(uint) {... */\n    tag_26:\n        /* \"contract/1stClass.sol\":1210:1214  uint */\n      0x00\n        /* \"contract/1stClass.sol\":1242:1249  _addAge */\n      dup2\n        /* \"contract/1stClass.sol\":1236:1239  age */\n      sload(0x01)\n        /* \"contract/1stClass.sol\":1236:1249  age + _addAge */\n      tag_51\n      swap2\n      swap1\n      tag_52\n      jump\t// in\n    tag_51:\n        /* \"contract/1stClass.sol\":1227:1233  newAge */\n      0x02\n        /* \"contract/1stClass.sol\":1227:1249  newAge = age + _addAge */\n      dup2\n      swap1\n      sstore\n      pop\n        /* \"contract/1stClass.sol\":1267:1273  newAge */\n      sload(0x02)\n        /* \"contract/1stClass.sol\":1260:1273  return newAge */\n      swap1\n      pop\n        /* \"contract/1stClass.sol\":1165:1281  function addAge(uint _addAge) public returns(uint) {... */\n      swap2\n      swap1\n      pop\n      jump\t// out\n        /* \"contract/1stClass.sol\":954:1030  function setName(string memory _name) public {... */\n    tag_31:\n        /* \"contract/1stClass.sol\":1017:1022  _name */\n      dup1\n        /* \"contract/1stClass.sol\":1010:1014  name */\n      0x00\n        /* \"contract/1stClass.sol\":1010:1022  name = _name */\n      swap1\n      dup2\n      tag_54\n      swap2\n      swap1\n      tag_55\n      jump\t// in\n    tag_54:\n      pop\n        /* \"contract/1stClass.sol\":954:1030  function setName(string memory _name) public {... */\n      pop\n      jump\t// out\n        /* \"contract/1stClass.sol\":1038:1101  function setAge(uint _age) public {... */\n    tag_34:\n        /* \"contract/1stClass.sol\":1089:1093  _age */\n      dup1\n        /* \"contract/1stClass.sol\":1083:1086  age */\n      0x01\n        /* \"contract/1stClass.sol\":1083:1093  age = _age */\n      dup2\n      swap1\n      sstore\n      pop\n        /* \"contract/1stClass.sol\":1038:1101  function setAge(uint _age) public {... */\n      pop\n      jump\t// out\n        /* \"contract/1stClass.sol\":907:925  uint public newAge */\n    tag_36:\n      sload(0x02)\n      dup2\n      jump\t// out\n        /* \"#utility.yul\":7:106   */\n    tag_57:\n        /* \"#utility.yul\":59:65   */\n      0x00\n        /* \"#utility.yul\":93:98   */\n      dup2\n        /* \"#utility.yul\":87:99   */\n      mload\n        /* \"#utility.yul\":77:99   */\n      swap1\n      pop\n        /* \"#utility.yul\":7:106   */\n      swap2\n      swap1\n      pop\n      jump\t// out\n        /* \"#utility.yul\":112:281   */\n    tag_58:\n        /* \"#utility.yul\":196:207   */\n      0x00\n        /* \"#utility.yul\":230:236   */\n      dup3\n        /* \"#utility.yul\":225:228   */\n      dup3\n        /* \"#utility.yul\":218:237   */\n      mstore\n        /* \"#utility.yul\":270:274   */\n      0x20\n        /* \"#utility.yul\":265:268   */\n      dup3\n        /* \"#utility.yul\":261:275   */\n      add\n        /* \"#utility.yul\":246:275   */\n      swap1\n      pop\n        /* \"#utility.yul\":112:281   */\n      swap3\n      swap2\n      pop\n      pop\n      jump\t// out\n        /* \"#utility.yul\":287:426   */\n    tag_59:\n        /* \"#utility.yul\":376:382   */\n      dup3\n        /* \"#utility.yul\":371:374   */\n      dup2\n        /* \"#utility.yul\":366:369   */\n      dup4\n        /* \"#utility.yul\":360:383   */\n      mcopy\n        /* \"#utility.yul\":417:418   */\n      0x00\n        /* \"#utility.yul\":408:414   */\n      dup4\n        /* \"#utility.yul\":403:406   */\n      dup4\n        /* \"#utility.yul\":399:415   */\n      add\n        /* \"#utility.yul\":392:419   */\n      mstore\n        /* \"#utility.yul\":287:426   */\n      pop\n      pop\n      pop\n      jump\t// out\n        /* \"#utility.yul\":432:534   */\n    tag_60:\n        /* \"#utility.yul\":473:479   */\n      0x00\n        /* \"#utility.yul\":524:526   */\n      0x1f\n        /* \"#utility.yul\":520:527   */\n      not\n        /* \"#utility.yul\":515:517   */\n      0x1f\n        /* \"#utility.yul\":508:513   */\n      dup4\n        /* \"#utility.yul\":504:518   */\n      add\n        /* \"#utility.yul\":500:528   */\n      and\n        /* \"#utility.yul\":490:528   */\n      swap1\n      pop\n        /* \"#utility.yul\":432:534   */\n      swap2\n      swap1\n      pop\n      jump\t// out\n        /* \"#utility.yul\":540:917   */\n    tag_61:\n        /* \"#utility.yul\":628:631   */\n      0x00\n        /* \"#utility.yul\":656:695   */\n      tag_101\n        /* \"#utility.yul\":689:694   */\n      dup3\n        /* \"#utility.yul\":656:695   */\n      tag_57\n      jump\t// in\n    tag_101:\n        /* \"#utility.yul\":711:782   */\n      tag_102\n        /* \"#utility.yul\":775:781   */\n      dup2\n        /* \"#utility.yul\":770:773   */\n      dup6\n        /* \"#utility.yul\":711:782   */\n      tag_58\n      jump\t// in\n    tag_102:\n        /* \"#utility.yul\":704:782   */\n      swap4\n      pop\n        /* \"#utility.yul\":791:856   */\n      tag_103\n        /* \"#utility.yul\":849:855   */\n      dup2\n        /* \"#utility.yul\":844:847   */\n      dup6\n        /* \"#utility.yul\":837:841   */\n      0x20\n        /* \"#utility.yul\":830:835   */\n      dup7\n        /* \"#utility.yul\":826:842   */\n      add\n        /* \"#utility.yul\":791:856   */\n      tag_59\n      jump\t// in\n    tag_103:\n        /* \"#utility.yul\":881:910   */\n      tag_104\n        /* \"#utility.yul\":903:909   */\n      dup2\n        /* \"#utility.yul\":881:910   */\n      tag_60\n      jump\t// in\n    tag_104:\n        /* \"#utility.yul\":876:879   */\n      dup5\n        /* \"#utility.yul\":872:911   */\n      add\n        /* \"#utility.yul\":865:911   */\n      swap2\n      pop\n        /* \"#utility.yul\":632:917   */\n      pop\n        /* \"#utility.yul\":540:917   */\n      swap3\n      swap2\n      pop\n      pop\n      jump\t// out\n        /* \"#utility.yul\":923:1236   */\n    tag_14:\n        /* \"#utility.yul\":1036:1040   */\n      0x00\n        /* \"#utility.yul\":1074:1076   */\n      0x20\n        /* \"#utility.yul\":1063:1072   */\n      dup3\n        /* \"#utility.yul\":1059:1077   */\n      add\n        /* \"#utility.yul\":1051:1077   */\n      swap1\n      pop\n        /* \"#utility.yul\":1123:1132   */\n      dup2\n        /* \"#utility.yul\":1117:1121   */\n      dup2\n        /* \"#utility.yul\":1113:1133   */\n      sub\n        /* \"#utility.yul\":1109:1110   */\n      0x00\n        /* \"#utility.yul\":1098:1107   */\n      dup4\n        /* \"#utility.yul\":1094:1111   */\n      add\n        /* \"#utility.yul\":1087:1134   */\n      mstore\n        /* \"#utility.yul\":1151:1229   */\n      tag_106\n        /* \"#utility.yul\":1224:1228   */\n      dup2\n        /* \"#utility.yul\":1215:1221   */\n      dup5\n        /* \"#utility.yul\":1151:1229   */\n      tag_61\n      jump\t// in\n    tag_106:\n        /* \"#utility.yul\":1143:1229   */\n      swap1\n      pop\n        /* \"#utility.yul\":923:1236   */\n      swap3\n      swap2\n      pop\n      pop\n      jump\t// out\n        /* \"#utility.yul\":1242:1319   */\n    tag_62:\n        /* \"#utility.yul\":1279:1286   */\n      0x00\n        /* \"#utility.yul\":1308:1313   */\n      dup2\n        /* \"#utility.yul\":1297:1313   */\n      swap1\n      pop\n        /* \"#utility.yul\":1242:1319   */\n      swap2\n      swap1\n      pop\n      jump\t// out\n        /* \"#utility.yul\":1325:1443   */\n    tag_63:\n        /* \"#utility.yul\":1412:1436   */\n      tag_109\n        /* \"#utility.yul\":1430:1435   */\n      dup2\n        /* \"#utility.yul\":1412:1436   */\n      tag_62\n      jump\t// in\n    tag_109:\n        /* \"#utility.yul\":1407:1410   */\n      dup3\n        /* \"#utility.yul\":1400:1437   */\n      mstore\n        /* \"#utility.yul\":1325:1443   */\n      pop\n      pop\n      jump\t// out\n        /* \"#utility.yul\":1449:1671   */\n    tag_18:\n        /* \"#utility.yul\":1542:1546   */\n      0x00\n        /* \"#utility.yul\":1580:1582   */\n      0x20\n        /* \"#utility.yul\":1569:1578   */\n      dup3\n        /* \"#utility.yul\":1565:1583   */\n      add\n        /* \"#utility.yul\":1557:1583   */\n      swap1\n      pop\n        /* \"#utility.yul\":1593:1664   */\n      tag_111\n        /* \"#utility.yul\":1661:1662   */\n      0x00\n        /* \"#utility.yul\":1650:1659   */\n      dup4\n        /* \"#utility.yul\":1646:1663   */\n      add\n        /* \"#utility.yul\":1637:1643   */\n      dup5\n        /* \"#utility.yul\":1593:1664   */\n      tag_63\n      jump\t// in\n    tag_111:\n        /* \"#utility.yul\":1449:1671   */\n      swap3\n      swap2\n      pop\n      pop\n      jump\t// out\n        /* \"#utility.yul\":1677:2210   */\n    tag_22:\n        /* \"#utility.yul\":1846:1850   */\n      0x00\n        /* \"#utility.yul\":1884:1886   */\n      0x60\n        /* \"#utility.yul\":1873:1882   */\n      dup3\n        /* \"#utility.yul\":1869:1887   */\n      add\n        /* \"#utility.yul\":1861:1887   */\n      swap1\n      pop\n        /* \"#utility.yul\":1933:1942   */\n      dup2\n        /* \"#utility.yul\":1927:1931   */\n      dup2\n        /* \"#utility.yul\":1923:1943   */\n      sub\n        /* \"#utility.yul\":1919:1920   */\n      0x00\n        /* \"#utility.yul\":1908:1917   */\n      dup4\n        /* \"#utility.yul\":1904:1921   */\n      add\n        /* \"#utility.yul\":1897:1944   */\n      mstore\n        /* \"#utility.yul\":1961:2039   */\n      tag_113\n        /* \"#utility.yul\":2034:2038   */\n      dup2\n        /* \"#utility.yul\":2025:2031   */\n      dup7\n        /* \"#utility.yul\":1961:2039   */\n      tag_61\n      jump\t// in\n    tag_113:\n        /* \"#utility.yul\":1953:2039   */\n      swap1\n      pop\n        /* \"#utility.yul\":2049:2121   */\n      tag_114\n        /* \"#utility.yul\":2117:2119   */\n      0x20\n        /* \"#utility.yul\":2106:2115   */\n      dup4\n        /* \"#utility.yul\":2102:2120   */\n      add\n        /* \"#utility.yul\":2093:2099   */\n      dup6\n        /* \"#utility.yul\":2049:2121   */\n      tag_63\n      jump\t// in\n    tag_114:\n        /* \"#utility.yul\":2131:2203   */\n      tag_115\n        /* \"#utility.yul\":2199:2201   */\n      0x40\n        /* \"#utility.yul\":2188:2197   */\n      dup4\n        /* \"#utility.yul\":2184:2202   */\n      add\n        /* \"#utility.yul\":2175:2181   */\n      dup5\n        /* \"#utility.yul\":2131:2203   */\n      tag_63\n      jump\t// in\n    tag_115:\n        /* \"#utility.yul\":1677:2210   */\n      swap5\n      swap4\n      pop\n      pop\n      pop\n      pop\n      jump\t// out\n        /* \"#utility.yul\":2216:2291   */\n    tag_64:\n        /* \"#utility.yul\":2249:2255   */\n      0x00\n        /* \"#utility.yul\":2282:2284   */\n      0x40\n        /* \"#utility.yul\":2276:2285   */\n      mload\n        /* \"#utility.yul\":2266:2285   */\n      swap1\n      pop\n        /* \"#utility.yul\":2216:2291   */\n      swap1\n      jump\t// out\n        /* \"#utility.yul\":2297:2414   */\n    tag_65:\n        /* \"#utility.yul\":2406:2407   */\n      0x00\n        /* \"#utility.yul\":2403:2404   */\n      0x00\n        /* \"#utility.yul\":2396:2408   */\n      revert\n        /* \"#utility.yul\":2420:2537   */\n    tag_66:\n        /* \"#utility.yul\":2529:2530   */\n      0x00\n        /* \"#utility.yul\":2526:2527   */\n      0x00\n        /* \"#utility.yul\":2519:2531   */\n      revert\n        /* \"#utility.yul\":2543:2665   */\n    tag_67:\n        /* \"#utility.yul\":2616:2640   */\n      tag_120\n        /* \"#utility.yul\":2634:2639   */\n      dup2\n        /* \"#utility.yul\":2616:2640   */\n      tag_62\n      jump\t// in\n    tag_120:\n        /* \"#utility.yul\":2609:2614   */\n      dup2\n        /* \"#utility.yul\":2606:2641   */\n      eq\n        /* \"#utility.yul\":2596:2659   */\n      tag_121\n      jumpi\n        /* \"#utility.yul\":2655:2656   */\n      0x00\n        /* \"#utility.yul\":2652:2653   */\n      0x00\n        /* \"#utility.yul\":2645:2657   */\n      revert\n        /* \"#utility.yul\":2596:2659   */\n    tag_121:\n        /* \"#utility.yul\":2543:2665   */\n      pop\n      jump\t// out\n        /* \"#utility.yul\":2671:2810   */\n    tag_68:\n        /* \"#utility.yul\":2717:2722   */\n      0x00\n        /* \"#utility.yul\":2755:2761   */\n      dup2\n        /* \"#utility.yul\":2742:2762   */\n      calldataload\n        /* \"#utility.yul\":2733:2762   */\n      swap1\n      pop\n        /* \"#utility.yul\":2771:2804   */\n      tag_123\n        /* \"#utility.yul\":2798:2803   */\n      dup2\n        /* \"#utility.yul\":2771:2804   */\n      tag_67\n      jump\t// in\n    tag_123:\n        /* \"#utility.yul\":2671:2810   */\n      swap3\n      swap2\n      pop\n      pop\n      jump\t// out\n        /* \"#utility.yul\":2816:3145   */\n    tag_25:\n        /* \"#utility.yul\":2875:2881   */\n      0x00\n        /* \"#utility.yul\":2924:2926   */\n      0x20\n        /* \"#utility.yul\":2912:2921   */\n      dup3\n        /* \"#utility.yul\":2903:2910   */\n      dup5\n        /* \"#utility.yul\":2899:2922   */\n      sub\n        /* \"#utility.yul\":2895:2927   */\n      slt\n        /* \"#utility.yul\":2892:3011   */\n      iszero\n      tag_125\n      jumpi\n        /* \"#utility.yul\":2930:3009   */\n      tag_126\n      tag_65\n      jump\t// in\n    tag_126:\n        /* \"#utility.yul\":2892:3011   */\n    tag_125:\n        /* \"#utility.yul\":3050:3051   */\n      0x00\n        /* \"#utility.yul\":3075:3128   */\n      tag_127\n        /* \"#utility.yul\":3120:3127   */\n      dup5\n        /* \"#utility.yul\":3111:3117   */\n      dup3\n        /* \"#utility.yul\":3100:3109   */\n      dup6\n        /* \"#utility.yul\":3096:3118   */\n      add\n        /* \"#utility.yul\":3075:3128   */\n      tag_68\n      jump\t// in\n    tag_127:\n        /* \"#utility.yul\":3065:3128   */\n      swap2\n      pop\n        /* \"#utility.yul\":3021:3138   */\n      pop\n        /* \"#utility.yul\":2816:3145   */\n      swap3\n      swap2\n      pop\n      pop\n      jump\t// out\n        /* \"#utility.yul\":3151:3268   */\n    tag_69:\n        /* \"#utility.yul\":3260:3261   */\n      0x00\n        /* \"#utility.yul\":3257:3258   */\n      0x00\n        /* \"#utility.yul\":3250:3262   */\n      revert\n        /* \"#utility.yul\":3274:3391   */\n    tag_70:\n        /* \"#utility.yul\":3383:3384   */\n      0x00\n        /* \"#utility.yul\":3380:3381   */\n      0x00\n        /* \"#utility.yul\":3373:3385   */\n      revert\n        /* \"#utility.yul\":3397:3577   */\n    tag_71:\n        /* \"#utility.yul\":3445:3522   */\n      0x4e487b7100000000000000000000000000000000000000000000000000000000\n        /* \"#utility.yul\":3442:3443   */\n      0x00\n        /* \"#utility.yul\":3435:3523   */\n      mstore\n        /* \"#utility.yul\":3542:3546   */\n      0x41\n        /* \"#utility.yul\":3539:3540   */\n      0x04\n        /* \"#utility.yul\":3532:3547   */\n      mstore\n        /* \"#utility.yul\":3566:3570   */\n      0x24\n        /* \"#utility.yul\":3563:3564   */\n      0x00\n        /* \"#utility.yul\":3556:3571   */\n      revert\n        /* \"#utility.yul\":3583:3864   */\n    tag_72:\n        /* \"#utility.yul\":3666:3693   */\n      tag_132\n        /* \"#utility.yul\":3688:3692   */\n      dup3\n        /* \"#utility.yul\":3666:3693   */\n      tag_60\n      jump\t// in\n    tag_132:\n        /* \"#utility.yul\":3658:3664   */\n      dup2\n        /* \"#utility.yul\":3654:3694   */\n      add\n        /* \"#utility.yul\":3796:3802   */\n      dup2\n        /* \"#utility.yul\":3784:3794   */\n      dup2\n        /* \"#utility.yul\":3781:3803   */\n      lt\n        /* \"#utility.yul\":3760:3778   */\n      0xffffffffffffffff\n        /* \"#utility.yul\":3748:3758   */\n      dup3\n        /* \"#utility.yul\":3745:3779   */\n      gt\n        /* \"#utility.yul\":3742:3804   */\n      or\n        /* \"#utility.yul\":3739:3827   */\n      iszero\n      tag_133\n      jumpi\n        /* \"#utility.yul\":3807:3825   */\n      tag_134\n      tag_71\n      jump\t// in\n    tag_134:\n        /* \"#utility.yul\":3739:3827   */\n    tag_133:\n        /* \"#utility.yul\":3847:3857   */\n      dup1\n        /* \"#utility.yul\":3843:3845   */\n      0x40\n        /* \"#utility.yul\":3836:3858   */\n      mstore\n        /* \"#utility.yul\":3626:3864   */\n      pop\n        /* \"#utility.yul\":3583:3864   */\n      pop\n      pop\n      jump\t// out\n        /* \"#utility.yul\":3870:3999   */\n    tag_73:\n        /* \"#utility.yul\":3904:3910   */\n      0x00\n        /* \"#utility.yul\":3931:3951   */\n      tag_136\n      tag_64\n      jump\t// in\n    tag_136:\n        /* \"#utility.yul\":3921:3951   */\n      swap1\n      pop\n        /* \"#utility.yul\":3960:3993   */\n      tag_137\n        /* \"#utility.yul\":3988:3992   */\n      dup3\n        /* \"#utility.yul\":3980:3986   */\n      dup3\n        /* \"#utility.yul\":3960:3993   */\n      tag_72\n      jump\t// in\n    tag_137:\n        /* \"#utility.yul\":3870:3999   */\n      swap2\n      swap1\n      pop\n      jump\t// out\n        /* \"#utility.yul\":4005:4313   */\n    tag_74:\n        /* \"#utility.yul\":4067:4071   */\n      0x00\n        /* \"#utility.yul\":4157:4175   */\n      0xffffffffffffffff\n        /* \"#utility.yul\":4149:4155   */\n      dup3\n        /* \"#utility.yul\":4146:4176   */\n      gt\n        /* \"#utility.yul\":4143:4199   */\n      iszero\n      tag_139\n      jumpi\n        /* \"#utility.yul\":4179:4197   */\n      tag_140\n      tag_71\n      jump\t// in\n    tag_140:\n        /* \"#utility.yul\":4143:4199   */\n    tag_139:\n        /* \"#utility.yul\":4217:4246   */\n      tag_141\n        /* \"#utility.yul\":4239:4245   */\n      dup3\n        /* \"#utility.yul\":4217:4246   */\n      tag_60\n      jump\t// in\n    tag_141:\n        /* \"#utility.yul\":4209:4246   */\n      swap1\n      pop\n        /* \"#utility.yul\":4301:4305   */\n      0x20\n        /* \"#utility.yul\":4295:4299   */\n      dup2\n        /* \"#utility.yul\":4291:4306   */\n      add\n        /* \"#utility.yul\":4283:4306   */\n      swap1\n      pop\n        /* \"#utility.yul\":4005:4313   */\n      swap2\n      swap1\n      pop\n      jump\t// out\n        /* \"#utility.yul\":4319:4467   */\n    tag_75:\n        /* \"#utility.yul\":4417:4423   */\n      dup3\n        /* \"#utility.yul\":4412:4415   */\n      dup2\n        /* \"#utility.yul\":4407:4410   */\n      dup4\n        /* \"#utility.yul\":4394:4424   */\n      calldatacopy\n        /* \"#utility.yul\":4458:4459   */\n      0x00\n        /* \"#utility.yul\":4449:4455   */\n      dup4\n        /* \"#utility.yul\":4444:4447   */\n      dup4\n        /* \"#utility.yul\":4440:4456   */\n      add\n        /* \"#utility.yul\":4433:4460   */\n      mstore\n        /* \"#utility.yul\":4319:4467   */\n      pop\n      pop\n      pop\n      jump\t// out\n        /* \"#utility.yul\":4473:4898   */\n    tag_76:\n        /* \"#utility.yul\":4551:4556   */\n      0x00\n        /* \"#utility.yul\":4576:4642   */\n      tag_144\n        /* \"#utility.yul\":4592:4641   */\n      tag_145\n        /* \"#utility.yul\":4634:4640   */\n      dup5\n        /* \"#utility.yul\":4592:4641   */\n      tag_74\n      jump\t// in\n    tag_145:\n        /* \"#utility.yul\":4576:4642   */\n      tag_73\n      jump\t// in\n    tag_144:\n        /* \"#utility.yul\":4567:4642   */\n      swap1\n      pop\n        /* \"#utility.yul\":4665:4671   */\n      dup3\n        /* \"#utility.yul\":4658:4663   */\n      dup2\n        /* \"#utility.yul\":4651:4672   */\n      mstore\n        /* \"#utility.yul\":4703:4707   */\n      0x20\n        /* \"#utility.yul\":4696:4701   */\n      dup2\n        /* \"#utility.yul\":4692:4708   */\n      add\n        /* \"#utility.yul\":4741:4744   */\n      dup5\n        /* \"#utility.yul\":4732:4738   */\n      dup5\n        /* \"#utility.yul\":4727:4730   */\n      dup5\n        /* \"#utility.yul\":4723:4739   */\n      add\n        /* \"#utility.yul\":4720:4745   */\n      gt\n        /* \"#utility.yul\":4717:4829   */\n      iszero\n      tag_146\n      jumpi\n        /* \"#utility.yul\":4748:4827   */\n      tag_147\n      tag_70\n      jump\t// in\n    tag_147:\n        /* \"#utility.yul\":4717:4829   */\n    tag_146:\n        /* \"#utility.yul\":4838:4892   */\n      tag_148\n        /* \"#utility.yul\":4885:4891   */\n      dup5\n        /* \"#utility.yul\":4880:4883   */\n      dup3\n        /* \"#utility.yul\":4875:4878   */\n      dup6\n        /* \"#utility.yul\":4838:4892   */\n      tag_75\n      jump\t// in\n    tag_148:\n        /* \"#utility.yul\":4557:4898   */\n      pop\n        /* \"#utility.yul\":4473:4898   */\n      swap4\n      swap3\n      pop\n      pop\n      pop\n      jump\t// out\n        /* \"#utility.yul\":4918:5258   */\n    tag_77:\n        /* \"#utility.yul\":4974:4979   */\n      0x00\n        /* \"#utility.yul\":5023:5026   */\n      dup3\n        /* \"#utility.yul\":5016:5020   */\n      0x1f\n        /* \"#utility.yul\":5008:5014   */\n      dup4\n        /* \"#utility.yul\":5004:5021   */\n      add\n        /* \"#utility.yul\":5000:5027   */\n      slt\n        /* \"#utility.yul\":4990:5112   */\n      tag_150\n      jumpi\n        /* \"#utility.yul\":5031:5110   */\n      tag_151\n      tag_69\n      jump\t// in\n    tag_151:\n        /* \"#utility.yul\":4990:5112   */\n    tag_150:\n        /* \"#utility.yul\":5148:5154   */\n      dup2\n        /* \"#utility.yul\":5135:5155   */\n      calldataload\n        /* \"#utility.yul\":5173:5252   */\n      tag_152\n        /* \"#utility.yul\":5248:5251   */\n      dup5\n        /* \"#utility.yul\":5240:5246   */\n      dup3\n        /* \"#utility.yul\":5233:5237   */\n      0x20\n        /* \"#utility.yul\":5225:5231   */\n      dup7\n        /* \"#utility.yul\":5221:5238   */\n      add\n        /* \"#utility.yul\":5173:5252   */\n      tag_76\n      jump\t// in\n    tag_152:\n        /* \"#utility.yul\":5164:5252   */\n      swap2\n      pop\n        /* \"#utility.yul\":4980:5258   */\n      pop\n        /* \"#utility.yul\":4918:5258   */\n      swap3\n      swap2\n      pop\n      pop\n      jump\t// out\n        /* \"#utility.yul\":5264:5773   */\n    tag_30:\n        /* \"#utility.yul\":5333:5339   */\n      0x00\n        /* \"#utility.yul\":5382:5384   */\n      0x20\n        /* \"#utility.yul\":5370:5379   */\n      dup3\n        /* \"#utility.yul\":5361:5368   */\n      dup5\n        /* \"#utility.yul\":5357:5380   */\n      sub\n        /* \"#utility.yul\":5353:5385   */\n      slt\n        /* \"#utility.yul\":5350:5469   */\n      iszero\n      tag_154\n      jumpi\n        /* \"#utility.yul\":5388:5467   */\n      tag_155\n      tag_65\n      jump\t// in\n    tag_155:\n        /* \"#utility.yul\":5350:5469   */\n    tag_154:\n        /* \"#utility.yul\":5536:5537   */\n      0x00\n        /* \"#utility.yul\":5525:5534   */\n      dup3\n        /* \"#utility.yul\":5521:5538   */\n      add\n        /* \"#utility.yul\":5508:5539   */\n      calldataload\n        /* \"#utility.yul\":5566:5584   */\n      0xffffffffffffffff\n        /* \"#utility.yul\":5558:5564   */\n      dup2\n        /* \"#utility.yul\":5555:5585   */\n      gt\n        /* \"#utility.yul\":5552:5669   */\n      iszero\n      tag_156\n      jumpi\n        /* \"#utility.yul\":5588:5667   */\n      tag_157\n      tag_66\n      jump\t// in\n    tag_157:\n        /* \"#utility.yul\":5552:5669   */\n    tag_156:\n        /* \"#utility.yul\":5693:5756   */\n      tag_158\n        /* \"#utility.yul\":5748:5755   */\n      dup5\n        /* \"#utility.yul\":5739:5745   */\n      dup3\n        /* \"#utility.yul\":5728:5737   */\n      dup6\n        /* \"#utility.yul\":5724:5746   */\n      add\n        /* \"#utility.yul\":5693:5756   */\n      tag_77\n      jump\t// in\n    tag_158:\n        /* \"#utility.yul\":5683:5756   */\n      swap2\n      pop\n        /* \"#utility.yul\":5479:5766   */\n      pop\n        /* \"#utility.yul\":5264:5773   */\n      swap3\n      swap2\n      pop\n      pop\n      jump\t// out\n        /* \"#utility.yul\":5779:5959   */\n    tag_78:\n        /* \"#utility.yul\":5827:5904   */\n      0x4e487b7100000000000000000000000000000000000000000000000000000000\n        /* \"#utility.yul\":5824:5825   */\n      0x00\n        /* \"#utility.yul\":5817:5905   */\n      mstore\n        /* \"#utility.yul\":5924:5928   */\n      0x22\n        /* \"#utility.yul\":5921:5922   */\n      0x04\n        /* \"#utility.yul\":5914:5929   */\n      mstore\n        /* \"#utility.yul\":5948:5952   */\n      0x24\n        /* \"#utility.yul\":5945:5946   */\n      0x00\n        /* \"#utility.yul\":5938:5953   */\n      revert\n        /* \"#utility.yul\":5965:6285   */\n    tag_39:\n        /* \"#utility.yul\":6009:6015   */\n      0x00\n        /* \"#utility.yul\":6046:6047   */\n      0x02\n        /* \"#utility.yul\":6040:6044   */\n      dup3\n        /* \"#utility.yul\":6036:6048   */\n      div\n        /* \"#utility.yul\":6026:6048   */\n      swap1\n      pop\n        /* \"#utility.yul\":6093:6094   */\n      0x01\n        /* \"#utility.yul\":6087:6091   */\n      dup3\n        /* \"#utility.yul\":6083:6095   */\n      and\n        /* \"#utility.yul\":6114:6132   */\n      dup1\n        /* \"#utility.yul\":6104:6185   */\n      tag_161\n      jumpi\n        /* \"#utility.yul\":6170:6174   */\n      0x7f\n        /* \"#utility.yul\":6162:6168   */\n      dup3\n        /* \"#utility.yul\":6158:6175   */\n      and\n        /* \"#utility.yul\":6148:6175   */\n      swap2\n      pop\n        /* \"#utility.yul\":6104:6185   */\n    tag_161:\n        /* \"#utility.yul\":6232:6234   */\n      0x20\n        /* \"#utility.yul\":6224:6230   */\n      dup3\n        /* \"#utility.yul\":6221:6235   */\n      lt\n        /* \"#utility.yul\":6201:6219   */\n      dup2\n        /* \"#utility.yul\":6198:6236   */\n      sub\n        /* \"#utility.yul\":6195:6279   */\n      tag_162\n      jumpi\n        /* \"#utility.yul\":6251:6269   */\n      tag_163\n      tag_78\n      jump\t// in\n    tag_163:\n        /* \"#utility.yul\":6195:6279   */\n    tag_162:\n        /* \"#utility.yul\":6016:6285   */\n      pop\n        /* \"#utility.yul\":5965:6285   */\n      swap2\n      swap1\n      pop\n      jump\t// out\n        /* \"#utility.yul\":6291:6471   */\n    tag_79:\n        /* \"#utility.yul\":6339:6416   */\n      0x4e487b7100000000000000000000000000000000000000000000000000000000\n        /* \"#utility.yul\":6336:6337   */\n      0x00\n        /* \"#utility.yul\":6329:6417   */\n      mstore\n        /* \"#utility.yul\":6436:6440   */\n      0x11\n        /* \"#utility.yul\":6433:6434   */\n      0x04\n        /* \"#utility.yul\":6426:6441   */\n      mstore\n        /* \"#utility.yul\":6460:6464   */\n      0x24\n        /* \"#utility.yul\":6457:6458   */\n      0x00\n        /* \"#utility.yul\":6450:6465   */\n      revert\n        /* \"#utility.yul\":6477:6668   */\n    tag_52:\n        /* \"#utility.yul\":6517:6520   */\n      0x00\n        /* \"#utility.yul\":6536:6556   */\n      tag_166\n        /* \"#utility.yul\":6554:6555   */\n      dup3\n        /* \"#utility.yul\":6536:6556   */\n      tag_62\n      jump\t// in\n    tag_166:\n        /* \"#utility.yul\":6531:6556   */\n      swap2\n      pop\n        /* \"#utility.yul\":6570:6590   */\n      tag_167\n        /* \"#utility.yul\":6588:6589   */\n      dup4\n        /* \"#utility.yul\":6570:6590   */\n      tag_62\n      jump\t// in\n    tag_167:\n        /* \"#utility.yul\":6565:6590   */\n      swap3\n      pop\n        /* \"#utility.yul\":6613:6614   */\n      dup3\n        /* \"#utility.yul\":6610:6611   */\n      dup3\n        /* \"#utility.yul\":6606:6615   */\n      add\n        /* \"#utility.yul\":6599:6615   */\n      swap1\n      pop\n        /* \"#utility.yul\":6634:6637   */\n      dup1\n        /* \"#utility.yul\":6631:6632   */\n      dup3\n        /* \"#utility.yul\":6628:6638   */\n      gt\n        /* \"#utility.yul\":6625:6661   */\n      iszero\n      tag_168\n      jumpi\n        /* \"#utility.yul\":6641:6659   */\n      tag_169\n      tag_79\n      jump\t// in\n    tag_169:\n        /* \"#utility.yul\":6625:6661   */\n    tag_168:\n        /* \"#utility.yul\":6477:6668   */\n      swap3\n      swap2\n      pop\n      pop\n      jump\t// out\n        /* \"#utility.yul\":6674:6815   */\n    tag_80:\n        /* \"#utility.yul\":6723:6727   */\n      0x00\n        /* \"#utility.yul\":6746:6749   */\n      dup2\n        /* \"#utility.yul\":6738:6749   */\n      swap1\n      pop\n        /* \"#utility.yul\":6769:6772   */\n      dup2\n        /* \"#utility.yul\":6766:6767   */\n      0x00\n        /* \"#utility.yul\":6759:6773   */\n      mstore\n        /* \"#utility.yul\":6803:6807   */\n      0x20\n        /* \"#utility.yul\":6800:6801   */\n      0x00\n        /* \"#utility.yul\":6790:6808   */\n      keccak256\n        /* \"#utility.yul\":6782:6808   */\n      swap1\n      pop\n        /* \"#utility.yul\":6674:6815   */\n      swap2\n      swap1\n      pop\n      jump\t// out\n        /* \"#utility.yul\":6821:6914   */\n    tag_81:\n        /* \"#utility.yul\":6858:6864   */\n      0x00\n        /* \"#utility.yul\":6905:6907   */\n      0x20\n        /* \"#utility.yul\":6900:6902   */\n      0x1f\n        /* \"#utility.yul\":6893:6898   */\n      dup4\n        /* \"#utility.yul\":6889:6903   */\n      add\n        /* \"#utility.yul\":6885:6908   */\n      div\n        /* \"#utility.yul\":6875:6908   */\n      swap1\n      pop\n        /* \"#utility.yul\":6821:6914   */\n      swap2\n      swap1\n      pop\n      jump\t// out\n        /* \"#utility.yul\":6920:7027   */\n    tag_82:\n        /* \"#utility.yul\":6964:6972   */\n      0x00\n        /* \"#utility.yul\":7014:7019   */\n      dup3\n        /* \"#utility.yul\":7008:7012   */\n      dup3\n        /* \"#utility.yul\":7004:7020   */\n      shl\n        /* \"#utility.yul\":6983:7020   */\n      swap1\n      pop\n        /* \"#utility.yul\":6920:7027   */\n      swap3\n      swap2\n      pop\n      pop\n      jump\t// out\n        /* \"#utility.yul\":7033:7426   */\n    tag_83:\n        /* \"#utility.yul\":7102:7108   */\n      0x00\n        /* \"#utility.yul\":7152:7153   */\n      0x08\n        /* \"#utility.yul\":7140:7150   */\n      dup4\n        /* \"#utility.yul\":7136:7154   */\n      mul\n        /* \"#utility.yul\":7175:7272   */\n      tag_174\n        /* \"#utility.yul\":7205:7271   */\n      0xffffffffffffffffffffffffffffffffffffffffffffffffffffffffffffffff\n        /* \"#utility.yul\":7194:7203   */\n      dup3\n        /* \"#utility.yul\":7175:7272   */\n      tag_82\n      jump\t// in\n    tag_174:\n        /* \"#utility.yul\":7293:7332   */\n      tag_175\n        /* \"#utility.yul\":7323:7331   */\n      dup7\n        /* \"#utility.yul\":7312:7321   */\n      dup4\n        /* \"#utility.yul\":7293:7332   */\n      tag_82\n      jump\t// in\n    tag_175:\n        /* \"#utility.yul\":7281:7332   */\n      swap6\n      pop\n        /* \"#utility.yul\":7365:7369   */\n      dup1\n        /* \"#utility.yul\":7361:7370   */\n      not\n        /* \"#utility.yul\":7354:7359   */\n      dup5\n        /* \"#utility.yul\":7350:7371   */\n      and\n        /* \"#utility.yul\":7341:7371   */\n      swap4\n      pop\n        /* \"#utility.yul\":7414:7418   */\n      dup1\n        /* \"#utility.yul\":7404:7412   */\n      dup7\n        /* \"#utility.yul\":7400:7419   */\n      and\n        /* \"#utility.yul\":7393:7398   */\n      dup5\n        /* \"#utility.yul\":7390:7420   */\n      or\n        /* \"#utility.yul\":7380:7420   */\n      swap3\n      pop\n        /* \"#utility.yul\":7109:7426   */\n      pop\n      pop\n        /* \"#utility.yul\":7033:7426   */\n      swap4\n      swap3\n      pop\n      pop\n      pop\n      jump\t// out\n        /* \"#utility.yul\":7432:7492   */\n    tag_84:\n        /* \"#utility.yul\":7460:7463   */\n      0x00\n        /* \"#utility.yul\":7481:7486   */\n      dup2\n        /* \"#utility.yul\":7474:7486   */\n      swap1\n      pop\n        /* \"#utility.yul\":7432:7492   */\n      swap2\n      swap1\n      pop\n      jump\t// out\n        /* \"#utility.yul\":7498:7640   */\n    tag_85:\n        /* \"#utility.yul\":7548:7557   */\n      0x00\n        /* \"#utility.yul\":7581:7634   */\n      tag_178\n        /* \"#utility.yul\":7599:7633   */\n      tag_179\n        /* \"#utility.yul\":7608:7632   */\n      tag_180\n        /* \"#utility.yul\":7626:7631   */\n      dup5\n        /* \"#utility.yul\":7608:7632   */\n      tag_62\n      jump\t// in\n    tag_180:\n        /* \"#utility.yul\":7599:7633   */\n      tag_84\n      jump\t// in\n    tag_179:\n        /* \"#utility.yul\":7581:7634   */\n      tag_62\n      jump\t// in\n    tag_178:\n        /* \"#utility.yul\":7568:7634   */\n      swap1\n      pop\n        /* \"#utility.yul\":7498:7640   */\n      swap2\n      swap1\n      pop\n      jump\t// out\n        /* \"#utility.yul\":7646:7721   */\n    tag_86:\n        /* \"#utility.yul\":7689:7692   */\n      0x00\n        /* \"#utility.yul\":7710:7715   */\n      dup2\n        /* \"#utility.yul\":7703:7715   */\n      swap1\n      pop\n        /* \"#utility.yul\":7646:7721   */\n      swap2\n      swap1\n      pop\n      jump\t// out\n        /* \"#utility.yul\":7727:7996   */\n    tag_87:\n        /* \"#utility.yul\":7837:7876   */\n      tag_183\n        /* \"#utility.yul\":7868:7875   */\n      dup4\n        /* \"#utility.yul\":7837:7876   */\n      tag_85\n      jump\t// in\n    tag_183:\n        /* \"#utility.yul\":7898:7989   */\n      tag_184\n        /* \"#utility.yul\":7947:7988   */\n      tag_185\n        /* \"#utility.yul\":7971:7987   */\n      dup3\n        /* \"#utility.yul\":7947:7988   */\n      tag_86\n      jump\t// in\n    tag_185:\n        /* \"#utility.yul\":7939:7945   */\n      dup5\n        /* \"#utility.yul\":7932:7936   */\n      dup5\n        /* \"#utility.yul\":7926:7937   */\n      sload\n        /* \"#utility.yul\":7898:7989   */\n      tag_83\n      jump\t// in\n    tag_184:\n        /* \"#utility.yul\":7892:7896   */\n      dup3\n        /* \"#utility.yul\":7885:7990   */\n      sstore\n        /* \"#utility.yul\":7803:7996   */\n      pop\n        /* \"#utility.yul\":7727:7996   */\n      pop\n      pop\n      pop\n      jump\t// out\n        /* \"#utility.yul\":8002:8075   */\n    tag_88:\n        /* \"#utility.yul\":8047:8050   */\n      0x00\n        /* \"#utility.yul\":8068:8069   */\n      0x00\n        /* \"#utility.yul\":8061:8069   */\n      swap1\n      pop\n        /* \"#utility.yul\":8002:8075   */\n      swap1\n      jump\t// out\n        /* \"#utility.yul\":8081:8270   */\n    tag_89:\n        /* \"#utility.yul\":8158:8190   */\n      tag_188\n      tag_88\n      jump\t// in\n    tag_188:\n        /* \"#utility.yul\":8199:8264   */\n      tag_189\n        /* \"#utility.yul\":8257:8263   */\n      dup2\n        /* \"#utility.yul\":8249:8255   */\n      dup5\n        /* \"#utility.yul\":8243:8247   */\n      dup5\n        /* \"#utility.yul\":8199:8264   */\n      tag_87\n      jump\t// in\n    tag_189:\n        /* \"#utility.yul\":8134:8270   */\n      pop\n        /* \"#utility.yul\":8081:8270   */\n      pop\n      pop\n      jump\t// out\n        /* \"#utility.yul\":8276:8462   */\n    tag_90:\n        /* \"#utility.yul\":8336:8456   */\n    tag_191:\n        /* \"#utility.yul\":8353:8356   */\n      dup2\n        /* \"#utility.yul\":8346:8351   */\n      dup2\n        /* \"#utility.yul\":8343:8357   */\n      lt\n        /* \"#utility.yul\":8336:8456   */\n      iszero\n      tag_193\n      jumpi\n        /* \"#utility.yul\":8407:8446   */\n      tag_194\n        /* \"#utility.yul\":8444:8445   */\n      0x00\n        /* \"#utility.yul\":8437:8442   */\n      dup3\n        /* \"#utility.yul\":8407:8446   */\n      tag_89\n      jump\t// in\n    tag_194:\n        /* \"#utility.yul\":8380:8381   */\n      0x01\n        /* \"#utility.yul\":8373:8378   */\n      dup2\n        /* \"#utility.yul\":8369:8382   */\n      add\n        /* \"#utility.yul\":8360:8382   */\n      swap1\n      pop\n        /* \"#utility.yul\":8336:8456   */\n      jump(tag_191)\n    tag_193:\n        /* \"#utility.yul\":8276:8462   */\n      pop\n      pop\n      jump\t// out\n        /* \"#utility.yul\":8468:9011   */\n    tag_91:\n        /* \"#utility.yul\":8569:8571   */\n      0x1f\n        /* \"#utility.yul\":8564:8567   */\n      dup3\n        /* \"#utility.yul\":8561:8572   */\n      gt\n        /* \"#utility.yul\":8558:9004   */\n      iszero\n      tag_196\n      jumpi\n        /* \"#utility.yul\":8603:8641   */\n      tag_197\n        /* \"#utility.yul\":8635:8640   */\n      dup2\n        /* \"#utility.yul\":8603:8641   */\n      tag_80\n      jump\t// in\n    tag_197:\n        /* \"#utility.yul\":8687:8716   */\n      tag_198\n        /* \"#utility.yul\":8705:8715   */\n      dup5\n        /* \"#utility.yul\":8687:8716   */\n      tag_81\n      jump\t// in\n    tag_198:\n        /* \"#utility.yul\":8677:8685   */\n      dup2\n        /* \"#utility.yul\":8673:8717   */\n      add\n        /* \"#utility.yul\":8870:8872   */\n      0x20\n        /* \"#utility.yul\":8858:8868   */\n      dup6\n        /* \"#utility.yul\":8855:8873   */\n      lt\n        /* \"#utility.yul\":8852:8901   */\n      iszero\n      tag_199\n      jumpi\n        /* \"#utility.yul\":8891:8899   */\n      dup2\n        /* \"#utility.yul\":8876:8899   */\n      swap1\n      pop\n        /* \"#utility.yul\":8852:8901   */\n    tag_199:\n        /* \"#utility.yul\":8914:8994   */\n      tag_200\n        /* \"#utility.yul\":8970:8992   */\n      tag_201\n        /* \"#utility.yul\":8988:8991   */\n      dup6\n        /* \"#utility.yul\":8970:8992   */\n      tag_81\n      jump\t// in\n    tag_201:\n        /* \"#utility.yul\":8960:8968   */\n      dup4\n        /* \"#utility.yul\":8956:8993   */\n      add\n        /* \"#utility.yul\":8943:8954   */\n      dup3\n        /* \"#utility.yul\":8914:8994   */\n      tag_90\n      jump\t// in\n    tag_200:\n        /* \"#utility.yul\":8573:9004   */\n      pop\n      pop\n        /* \"#utility.yul\":8558:9004   */\n    tag_196:\n        /* \"#utility.yul\":8468:9011   */\n      pop\n      pop\n      pop\n      jump\t// out\n        /* \"#utility.yul\":9017:9134   */\n    tag_92:\n        /* \"#utility.yul\":9071:9079   */\n      0x00\n        /* \"#utility.yul\":9121:9126   */\n      dup3\n        /* \"#utility.yul\":9115:9119   */\n      dup3\n        /* \"#utility.yul\":9111:9127   */\n      shr\n        /* \"#utility.yul\":9090:9127   */\n      swap1\n      pop\n        /* \"#utility.yul\":9017:9134   */\n      swap3\n      swap2\n      pop\n      pop\n      jump\t// out\n        /* \"#utility.yul\":9140:9309   */\n    tag_93:\n        /* \"#utility.yul\":9184:9190   */\n      0x00\n        /* \"#utility.yul\":9217:9268   */\n      tag_204\n        /* \"#utility.yul\":9265:9266   */\n      0x00\n        /* \"#utility.yul\":9261:9267   */\n      not\n        /* \"#utility.yul\":9253:9258   */\n      dup5\n        /* \"#utility.yul\":9250:9251   */\n      0x08\n        /* \"#utility.yul\":9246:9259   */\n      mul\n        /* \"#utility.yul\":9217:9268   */\n      tag_92\n      jump\t// in\n    tag_204:\n        /* \"#utility.yul\":9213:9269   */\n      not\n        /* \"#utility.yul\":9298:9302   */\n      dup1\n        /* \"#utility.yul\":9292:9296   */\n      dup4\n        /* \"#utility.yul\":9288:9303   */\n      and\n        /* \"#utility.yul\":9278:9303   */\n      swap2\n      pop\n        /* \"#utility.yul\":9191:9309   */\n      pop\n        /* \"#utility.yul\":9140:9309   */\n      swap3\n      swap2\n      pop\n      pop\n      jump\t// out\n        /* \"#utility.yul\":9314:9609   */\n    tag_94:\n        /* \"#utility.yul\":9390:9394   */\n      0x00\n        /* \"#utility.yul\":9536:9565   */\n      tag_206\n        /* \"#utility.yul\":9561:9564   */\n      dup4\n        /* \"#utility.yul\":9555:9559   */\n      dup4\n        /* \"#utility.yul\":9536:9565   */\n      tag_93\n      jump\t// in\n    tag_206:\n        /* \"#utility.yul\":9528:9565   */\n      swap2\n      pop\n        /* \"#utility.yul\":9598:9601   */\n      dup3\n        /* \"#utility.yul\":9595:9596   */\n      0x02\n        /* \"#utility.yul\":9591:9602   */\n      mul\n        /* \"#utility.yul\":9585:9589   */\n      dup3\n        /* \"#utility.yul\":9582:9603   */\n      or\n        /* \"#utility.yul\":9574:9603   */\n      swap1\n      pop\n        /* \"#utility.yul\":9314:9609   */\n      swap3\n      swap2\n      pop\n      pop\n      jump\t// out\n        /* \"#utility.yul\":9614:11009   */\n    tag_55:\n        /* \"#utility.yul\":9731:9768   */\n      tag_208\n        /* \"#utility.yul\":9764:9767   */\n      dup3\n        /* \"#utility.yul\":9731:9768   */\n      tag_57\n      jump\t// in\n    tag_208:\n        /* \"#utility.yul\":9833:9851   */\n      0xffffffffffffffff\n        /* \"#utility.yul\":9825:9831   */\n      dup2\n        /* \"#utility.yul\":9822:9852   */\n      gt\n        /* \"#utility.yul\":9819:9875   */\n      iszero\n      tag_209\n      jumpi\n        /* \"#utility.yul\":9855:9873   */\n      tag_210\n      tag_71\n      jump\t// in\n    tag_210:\n        /* \"#utility.yul\":9819:9875   */\n    tag_209:\n        /* \"#utility.yul\":9899:9937   */\n      tag_211\n        /* \"#utility.yul\":9931:9935   */\n      dup3\n        /* \"#utility.yul\":9925:9936   */\n      sload\n        /* \"#utility.yul\":9899:9937   */\n      tag_39\n      jump\t// in\n    tag_211:\n        /* \"#utility.yul\":9984:10051   */\n      tag_212\n        /* \"#utility.yul\":10044:10050   */\n      dup3\n        /* \"#utility.yul\":10036:10042   */\n      dup3\n        /* \"#utility.yul\":10030:10034   */\n      dup6\n        /* \"#utility.yul\":9984:10051   */\n      tag_91\n      jump\t// in\n    tag_212:\n        /* \"#utility.yul\":10078:10079   */\n      0x00\n        /* \"#utility.yul\":10102:10106   */\n      0x20\n        /* \"#utility.yul\":10089:10106   */\n      swap1\n      pop\n        /* \"#utility.yul\":10134:10136   */\n      0x1f\n        /* \"#utility.yul\":10126:10132   */\n      dup4\n        /* \"#utility.yul\":10123:10137   */\n      gt\n        /* \"#utility.yul\":10151:10152   */\n      0x01\n        /* \"#utility.yul\":10146:10764   */\n      dup2\n      eq\n      tag_214\n      jumpi\n        /* \"#utility.yul\":10808:10809   */\n      0x00\n        /* \"#utility.yul\":10825:10831   */\n      dup5\n        /* \"#utility.yul\":10822:10899   */\n      iszero\n      tag_215\n      jumpi\n        /* \"#utility.yul\":10874:10883   */\n      dup3\n        /* \"#utility.yul\":10869:10872   */\n      dup8\n        /* \"#utility.yul\":10865:10884   */\n      add\n        /* \"#utility.yul\":10859:10885   */\n      mload\n        /* \"#utility.yul\":10850:10885   */\n      swap1\n      pop\n        /* \"#utility.yul\":10822:10899   */\n    tag_215:\n        /* \"#utility.yul\":10925:10992   */\n      tag_216\n        /* \"#utility.yul\":10985:10991   */\n      dup6\n        /* \"#utility.yul\":10978:10983   */\n      dup3\n        /* \"#utility.yul\":10925:10992   */\n      tag_94\n      jump\t// in\n    tag_216:\n        /* \"#utility.yul\":10919:10923   */\n      dup7\n        /* \"#utility.yul\":10912:10993   */\n      sstore\n        /* \"#utility.yul\":10781:11003   */\n      pop\n        /* \"#utility.yul\":10116:11003   */\n      jump(tag_213)\n        /* \"#utility.yul\":10146:10764   */\n    tag_214:\n        /* \"#utility.yul\":10198:10202   */\n      0x1f\n        /* \"#utility.yul\":10194:10203   */\n      not\n        /* \"#utility.yul\":10186:10192   */\n      dup5\n        /* \"#utility.yul\":10182:10204   */\n      and\n        /* \"#utility.yul\":10232:10269   */\n      tag_217\n        /* \"#utility.yul\":10264:10268   */\n      dup7\n        /* \"#utility.yul\":10232:10269   */\n      tag_80\n      jump\t// in\n    tag_217:\n        /* \"#utility.yul\":10291:10292   */\n      0x00\n        /* \"#utility.yul\":10305:10513   */\n    tag_218:\n        /* \"#utility.yul\":10319:10326   */\n      dup3\n        /* \"#utility.yul\":10316:10317   */\n      dup2\n        /* \"#utility.yul\":10313:10327   */\n      lt\n        /* \"#utility.yul\":10305:10513   */\n      iszero\n      tag_220\n      jumpi\n        /* \"#utility.yul\":10398:10407   */\n      dup5\n        /* \"#utility.yul\":10393:10396   */\n      dup10\n        /* \"#utility.yul\":10389:10408   */\n      add\n        /* \"#utility.yul\":10383:10409   */\n      mload\n        /* \"#utility.yul\":10375:10381   */\n      dup3\n        /* \"#utility.yul\":10368:10410   */\n      sstore\n        /* \"#utility.yul\":10449:10450   */\n      0x01\n        /* \"#utility.yul\":10441:10447   */\n      dup3\n        /* \"#utility.yul\":10437:10451   */\n      add\n        /* \"#utility.yul\":10427:10451   */\n      swap2\n      pop\n        /* \"#utility.yul\":10496:10498   */\n      0x20\n        /* \"#utility.yul\":10485:10494   */\n      dup6\n        /* \"#utility.yul\":10481:10499   */\n      add\n        /* \"#utility.yul\":10468:10499   */\n      swap5\n      pop\n        /* \"#utility.yul\":10342:10346   */\n      0x20\n        /* \"#utility.yul\":10339:10340   */\n      dup2\n        /* \"#utility.yul\":10335:10347   */\n      add\n        /* \"#utility.yul\":10330:10347   */\n      swap1\n      pop\n        /* \"#utility.yul\":10305:10513   */\n      jump(tag_218)\n    tag_220:\n        /* \"#utility.yul\":10541:10547   */\n      dup7\n        /* \"#utility.yul\":10532:10539   */\n      dup4\n        /* \"#utility.yul\":10529:10548   */\n      lt\n        /* \"#utility.yul\":10526:10705   */\n      iszero\n      tag_221\n      jumpi\n        /* \"#utility.yul\":10599:10608   */\n      dup5\n        /* \"#utility.yul\":10594:10597   */\n      dup10\n        /* \"#utility.yul\":10590:10609   */\n      add\n        /* \"#utility.yul\":10584:10610   */\n      mload\n        /* \"#utility.yul\":10642:10690   */\n      tag_222\n        /* \"#utility.yul\":10684:10688   */\n      0x1f\n        /* \"#utility.yul\":10676:10682   */\n      dup10\n        /* \"#utility.yul\":10672:10689   */\n      and\n        /* \"#utility.yul\":10661:10670   */\n      dup3\n        /* \"#utility.yul\":10642:10690   */\n      tag_93\n      jump\t// in\n    tag_222:\n        /* \"#utility.yul\":10634:10640   */\n      dup4\n        /* \"#utility.yul\":10627:10691   */\n      sstore\n        /* \"#utility.yul\":10549:10705   */\n      pop\n        /* \"#utility.yul\":10526:10705   */\n    tag_221:\n        /* \"#utility.yul\":10751:10752   */\n      0x01\n        /* \"#utility.yul\":10747:10748   */\n      0x02\n        /* \"#utility.yul\":10739:10745   */\n      dup9\n        /* \"#utility.yul\":10735:10749   */\n      mul\n        /* \"#utility.yul\":10731:10753   */\n      add\n        /* \"#utility.yul\":10725:10729   */\n      dup9\n        /* \"#utility.yul\":10718:10754   */\n      sstore\n        /* \"#utility.yul\":10153:10764   */\n      pop\n      pop\n      pop\n        /* \"#utility.yul\":10116:11003   */\n    tag_213:\n      pop\n        /* \"#utility.yul\":9706:11009   */\n      pop\n      pop\n      pop\n        /* \"#utility.yul\":9614:11009   */\n      pop\n      pop\n      jump\t// out\n\n    auxdata: 0xa26469706673582212208f9393d55947bb0c8dbe0b007a9fecefa06f0638a960ee5d5885a97aa088156064736f6c634300081e0033\n}\n",
				"bytecode": {
					"linkReferences": {},
					"object": "6080604052348015600e575f5ffd5b5061090b8061001c5f395ff3fe608060405234801561000f575f5ffd5b506004361061007b575f3560e01c8063bbb060ef11610059578063bbb060ef146100db578063c47f00271461010b578063d5dcf12714610127578063e5506953146101435761007b565b806306fdde031461007f578063262a9dff1461009d5780635a9b0b89146100bb575b5f5ffd5b610087610161565b6040516100949190610343565b60405180910390f35b6100a56101ec565b6040516100b2919061037b565b60405180910390f35b6100c36101f2565b6040516100d293929190610394565b60405180910390f35b6100f560048036038101906100f0919061040b565b610292565b604051610102919061037b565b60405180910390f35b61012560048036038101906101209190610562565b6102b1565b005b610141600480360381019061013c919061040b565b6102c3565b005b61014b6102cd565b604051610158919061037b565b60405180910390f35b5f805461016d906105d6565b80601f0160208091040260200160405190810160405280929190818152602001828054610199906105d6565b80156101e45780601f106101bb576101008083540402835291602001916101e4565b820191905f5260205f20905b8154815290600101906020018083116101c757829003601f168201915b505050505081565b60015481565b60605f5f5f600154600254828054610209906105d6565b80601f0160208091040260200160405190810160405280929190818152602001828054610235906105d6565b80156102805780601f1061025757610100808354040283529160200191610280565b820191905f5260205f20905b81548152906001019060200180831161026357829003601f168201915b50505050509250925092509250909192565b5f816001546102a19190610633565b6002819055506002549050919050565b805f90816102bf9190610806565b5050565b8060018190555050565b60025481565b5f81519050919050565b5f82825260208201905092915050565b8281835e5f83830152505050565b5f601f19601f8301169050919050565b5f610315826102d3565b61031f81856102dd565b935061032f8185602086016102ed565b610338816102fb565b840191505092915050565b5f6020820190508181035f83015261035b818461030b565b905092915050565b5f819050919050565b61037581610363565b82525050565b5f60208201905061038e5f83018461036c565b92915050565b5f6060820190508181035f8301526103ac818661030b565b90506103bb602083018561036c565b6103c8604083018461036c565b949350505050565b5f604051905090565b5f5ffd5b5f5ffd5b6103ea81610363565b81146103f4575f5ffd5b50565b5f81359050610405816103e1565b92915050565b5f602082840312156104205761041f6103d9565b5b5f61042d848285016103f7565b91505092915050565b5f5ffd5b5f5ffd5b7f4e487b71000000000000000000000000000000000000000000000000000000005f52604160045260245ffd5b610474826102fb565b810181811067ffffffffffffffff821117156104935761049261043e565b5b80604052505050565b5f6104a56103d0565b90506104b1828261046b565b919050565b5f67ffffffffffffffff8211156104d0576104cf61043e565b5b6104d9826102fb565b9050602081019050919050565b828183375f83830152505050565b5f610506610501846104b6565b61049c565b9050828152602081018484840111156105225761052161043a565b5b61052d8482856104e6565b509392505050565b5f82601f83011261054957610548610436565b5b81356105598482602086016104f4565b91505092915050565b5f60208284031215610577576105766103d9565b5b5f82013567ffffffffffffffff811115610594576105936103dd565b5b6105a084828501610535565b91505092915050565b7f4e487b71000000000000000000000000000000000000000000000000000000005f52602260045260245ffd5b5f60028204905060018216806105ed57607f821691505b602082108103610600576105ff6105a9565b5b50919050565b7f4e487b71000000000000000000000000000000000000000000000000000000005f52601160045260245ffd5b5f61063d82610363565b915061064883610363565b92508282019050808211156106605761065f610606565b5b92915050565b5f819050815f5260205f209050919050565b5f6020601f8301049050919050565b5f82821b905092915050565b5f600883026106c27fffffffffffffffffffffffffffffffffffffffffffffffffffffffffffffffff82610687565b6106cc8683610687565b95508019841693508086168417925050509392505050565b5f819050919050565b5f6107076107026106fd84610363565b6106e4565b610363565b9050919050565b5f819050919050565b610720836106ed565b61073461072c8261070e565b848454610693565b825550505050565b5f5f905090565b61074b61073c565b610756818484610717565b505050565b5b818110156107795761076e5f82610743565b60018101905061075c565b5050565b601f8211156107be5761078f81610666565b61079884610678565b810160208510156107a7578190505b6107bb6107b385610678565b83018261075b565b50505b505050565b5f82821c905092915050565b5f6107de5f19846008026107c3565b1980831691505092915050565b5f6107f683836107cf565b9150826002028217905092915050565b61080f826102d3565b67ffffffffffffffff8111156108285761082761043e565b5b61083282546105d6565b61083d82828561077d565b5f60209050601f83116001811461086e575f841561085c578287015190505b61086685826107eb565b8655506108cd565b601f19841661087c86610666565b5f5b828110156108a35784890151825560018201915060208501945060208101905061087e565b868310156108c057848901516108bc601f8916826107cf565b8355505b6001600288020188555050505b50505050505056fea26469706673582212208f9393d55947bb0c8dbe0b007a9fecefa06f0638a960ee5d5885a97aa088156064736f6c634300081e0033",
					"opcodes": "PUSH1 0x80 PUSH1 0x40 MSTORE CALLVALUE DUP1 ISZERO PUSH1 0xE JUMPI PUSH0 PUSH0 REVERT JUMPDEST POP PUSH2 0x90B DUP1 PUSH2 0x1C PUSH0 CODECOPY PUSH0 RETURN INVALID PUSH1 0x80 PUSH1 0x40 MSTORE CALLVALUE DUP1 ISZERO PUSH2 0xF JUMPI PUSH0 PUSH0 REVERT JUMPDEST POP PUSH1 0x4 CALLDATASIZE LT PUSH2 0x7B JUMPI PUSH0 CALLDATALOAD PUSH1 0xE0 SHR DUP1 PUSH4 0xBBB060EF GT PUSH2 0x59 JUMPI DUP1 PUSH4 0xBBB060EF EQ PUSH2 0xDB JUMPI DUP1 PUSH4 0xC47F0027 EQ PUSH2 0x10B JUMPI DUP1 PUSH4 0xD5DCF127 EQ PUSH2 0x127 JUMPI DUP1 PUSH4 0xE5506953 EQ PUSH2 0x143 JUMPI PUSH2 0x7B JUMP JUMPDEST DUP1 PUSH4 0x6FDDE03 EQ PUSH2 0x7F JUMPI DUP1 PUSH4 0x262A9DFF EQ PUSH2 0x9D JUMPI DUP1 PUSH4 0x5A9B0B89 EQ PUSH2 0xBB JUMPI JUMPDEST PUSH0 PUSH0 REVERT JUMPDEST PUSH2 0x87 PUSH2 0x161 JUMP JUMPDEST PUSH1 0x40 MLOAD PUSH2 0x94 SWAP2 SWAP1 PUSH2 0x343 JUMP JUMPDEST PUSH1 0x40 MLOAD DUP1 SWAP2 SUB SWAP1 RETURN JUMPDEST PUSH2 0xA5 PUSH2 0x1EC JUMP JUMPDEST PUSH1 0x40 MLOAD PUSH2 0xB2 SWAP2 SWAP1 PUSH2 0x37B JUMP JUMPDEST PUSH1 0x40 MLOAD DUP1 SWAP2 SUB SWAP1 RETURN JUMPDEST PUSH2 0xC3 PUSH2 0x1F2 JUMP JUMPDEST PUSH1 0x40 MLOAD PUSH2 0xD2 SWAP4 SWAP3 SWAP2 SWAP1 PUSH2 0x394 JUMP JUMPDEST PUSH1 0x40 MLOAD DUP1 SWAP2 SUB SWAP1 RETURN JUMPDEST PUSH2 0xF5 PUSH1 0x4 DUP1 CALLDATASIZE SUB DUP2 ADD SWAP1 PUSH2 0xF0 SWAP2 SWAP1 PUSH2 0x40B JUMP JUMPDEST PUSH2 0x292 JUMP JUMPDEST PUSH1 0x40 MLOAD PUSH2 0x102 SWAP2 SWAP1 PUSH2 0x37B JUMP JUMPDEST PUSH1 0x40 MLOAD DUP1 SWAP2 SUB SWAP1 RETURN JUMPDEST PUSH2 0x125 PUSH1 0x4 DUP1 CALLDATASIZE SUB DUP2 ADD SWAP1 PUSH2 0x120 SWAP2 SWAP1 PUSH2 0x562 JUMP JUMPDEST PUSH2 0x2B1 JUMP JUMPDEST STOP JUMPDEST PUSH2 0x141 PUSH1 0x4 DUP1 CALLDATASIZE SUB DUP2 ADD SWAP1 PUSH2 0x13C SWAP2 SWAP1 PUSH2 0x40B JUMP JUMPDEST PUSH2 0x2C3 JUMP JUMPDEST STOP JUMPDEST PUSH2 0x14B PUSH2 0x2CD JUMP JUMPDEST PUSH1 0x40 MLOAD PUSH2 0x158 SWAP2 SWAP1 PUSH2 0x37B JUMP JUMPDEST PUSH1 0x40 MLOAD DUP1 SWAP2 SUB SWAP1 RETURN JUMPDEST PUSH0 DUP1 SLOAD PUSH2 0x16D SWAP1 PUSH2 0x5D6 JUMP JUMPDEST DUP1 PUSH1 0x1F ADD PUSH1 0x20 DUP1 SWAP2 DIV MUL PUSH1 0x20 ADD PUSH1 0x40 MLOAD SWAP1 DUP2 ADD PUSH1 0x40 MSTORE DUP1 SWAP3 SWAP2 SWAP1 DUP2 DUP2 MSTORE PUSH1 0x20 ADD DUP3 DUP1 SLOAD PUSH2 0x199 SWAP1 PUSH2 0x5D6 JUMP JUMPDEST DUP1 ISZERO PUSH2 0x1E4 JUMPI DUP1 PUSH1 0x1F LT PUSH2 0x1BB JUMPI PUSH2 0x100 DUP1 DUP4 SLOAD DIV MUL DUP4 MSTORE SWAP2 PUSH1 0x20 ADD SWAP2 PUSH2 0x1E4 JUMP JUMPDEST DUP3 ADD SWAP2 SWAP1 PUSH0 MSTORE PUSH1 0x20 PUSH0 KECCAK256 SWAP1 JUMPDEST DUP2 SLOAD DUP2 MSTORE SWAP1 PUSH1 0x1 ADD SWAP1 PUSH1 0x20 ADD DUP1 DUP4 GT PUSH2 0x1C7 JUMPI DUP3 SWAP1 SUB PUSH1 0x1F AND DUP3 ADD SWAP2 JUMPDEST POP POP POP POP POP DUP2 JUMP JUMPDEST PUSH1 0x1 SLOAD DUP2 JUMP JUMPDEST PUSH1 0x60 PUSH0 PUSH0 PUSH0 PUSH1 0x1 SLOAD PUSH1 0x2 SLOAD DUP3 DUP1 SLOAD PUSH2 0x209 SWAP1 PUSH2 0x5D6 JUMP JUMPDEST DUP1 PUSH1 0x1F ADD PUSH1 0x20 DUP1 SWAP2 DIV MUL PUSH1 0x20 ADD PUSH1 0x40 MLOAD SWAP1 DUP2 ADD PUSH1 0x40 MSTORE DUP1 SWAP3 SWAP2 SWAP1 DUP2 DUP2 MSTORE PUSH1 0x20 ADD DUP3 DUP1 SLOAD PUSH2 0x235 SWAP1 PUSH2 0x5D6 JUMP JUMPDEST DUP1 ISZERO PUSH2 0x280 JUMPI DUP1 PUSH1 0x1F LT PUSH2 0x257 JUMPI PUSH2 0x100 DUP1 DUP4 SLOAD DIV MUL DUP4 MSTORE SWAP2 PUSH1 0x20 ADD SWAP2 PUSH2 0x280 JUMP JUMPDEST DUP3 ADD SWAP2 SWAP1 PUSH0 MSTORE PUSH1 0x20 PUSH0 KECCAK256 SWAP1 JUMPDEST DUP2 SLOAD DUP2 MSTORE SWAP1 PUSH1 0x1 ADD SWAP1 PUSH1 0x20 ADD DUP1 DUP4 GT PUSH2 0x263 JUMPI DUP3 SWAP1 SUB PUSH1 0x1F AND DUP3 ADD SWAP2 JUMPDEST POP POP POP POP POP SWAP3 POP SWAP3 POP SWAP3 POP SWAP3 POP SWAP1 SWAP2 SWAP3 JUMP JUMPDEST PUSH0 DUP2 PUSH1 0x1 SLOAD PUSH2 0x2A1 SWAP2 SWAP1 PUSH2 0x633 JUMP JUMPDEST PUSH1 0x2 DUP2 SWAP1 SSTORE POP PUSH1 0x2 SLOAD SWAP1 POP SWAP2 SWAP1 POP JUMP JUMPDEST DUP1 PUSH0 SWAP1 DUP2 PUSH2 0x2BF SWAP2 SWAP1 PUSH2 0x806 JUMP JUMPDEST POP POP JUMP JUMPDEST DUP1 PUSH1 0x1 DUP2 SWAP1 SSTORE POP POP JUMP JUMPDEST PUSH1 0x2 SLOAD DUP2 JUMP JUMPDEST PUSH0 DUP2 MLOAD SWAP1 POP SWAP2 SWAP1 POP JUMP JUMPDEST PUSH0 DUP3 DUP3 MSTORE PUSH1 0x20 DUP3 ADD SWAP1 POP SWAP3 SWAP2 POP POP JUMP JUMPDEST DUP3 DUP2 DUP4 MCOPY PUSH0 DUP4 DUP4 ADD MSTORE POP POP POP JUMP JUMPDEST PUSH0 PUSH1 0x1F NOT PUSH1 0x1F DUP4 ADD AND SWAP1 POP SWAP2 SWAP1 POP JUMP JUMPDEST PUSH0 PUSH2 0x315 DUP3 PUSH2 0x2D3 JUMP JUMPDEST PUSH2 0x31F DUP2 DUP6 PUSH2 0x2DD JUMP JUMPDEST SWAP4 POP PUSH2 0x32F DUP2 DUP6 PUSH1 0x20 DUP7 ADD PUSH2 0x2ED JUMP JUMPDEST PUSH2 0x338 DUP2 PUSH2 0x2FB JUMP JUMPDEST DUP5 ADD SWAP2 POP POP SWAP3 SWAP2 POP POP JUMP JUMPDEST PUSH0 PUSH1 0x20 DUP3 ADD SWAP1 POP DUP2 DUP2 SUB PUSH0 DUP4 ADD MSTORE PUSH2 0x35B DUP2 DUP5 PUSH2 0x30B JUMP JUMPDEST SWAP1 POP SWAP3 SWAP2 POP POP JUMP JUMPDEST PUSH0 DUP2 SWAP1 POP SWAP2 SWAP1 POP JUMP JUMPDEST PUSH2 0x375 DUP2 PUSH2 0x363 JUMP JUMPDEST DUP3 MSTORE POP POP JUMP JUMPDEST PUSH0 PUSH1 0x20 DUP3 ADD SWAP1 POP PUSH2 0x38E PUSH0 DUP4 ADD DUP5 PUSH2 0x36C JUMP JUMPDEST SWAP3 SWAP2 POP POP JUMP JUMPDEST PUSH0 PUSH1 0x60 DUP3 ADD SWAP1 POP DUP2 DUP2 SUB PUSH0 DUP4 ADD MSTORE PUSH2 0x3AC DUP2 DUP7 PUSH2 0x30B JUMP JUMPDEST SWAP1 POP PUSH2 0x3BB PUSH1 0x20 DUP4 ADD DUP6 PUSH2 0x36C JUMP JUMPDEST PUSH2 0x3C8 PUSH1 0x40 DUP4 ADD DUP5 PUSH2 0x36C JUMP JUMPDEST SWAP5 SWAP4 POP POP POP POP JUMP JUMPDEST PUSH0 PUSH1 0x40 MLOAD SWAP1 POP SWAP1 JUMP JUMPDEST PUSH0 PUSH0 REVERT JUMPDEST PUSH0 PUSH0 REVERT JUMPDEST PUSH2 0x3EA DUP2 PUSH2 0x363 JUMP JUMPDEST DUP2 EQ PUSH2 0x3F4 JUMPI PUSH0 PUSH0 REVERT JUMPDEST POP JUMP JUMPDEST PUSH0 DUP2 CALLDATALOAD SWAP1 POP PUSH2 0x405 DUP2 PUSH2 0x3E1 JUMP JUMPDEST SWAP3 SWAP2 POP POP JUMP JUMPDEST PUSH0 PUSH1 0x20 DUP3 DUP5 SUB SLT ISZERO PUSH2 0x420 JUMPI PUSH2 0x41F PUSH2 0x3D9 JUMP JUMPDEST JUMPDEST PUSH0 PUSH2 0x42D DUP5 DUP3 DUP6 ADD PUSH2 0x3F7 JUMP JUMPDEST SWAP2 POP POP SWAP3 SWAP2 POP POP JUMP JUMPDEST PUSH0 PUSH0 REVERT JUMPDEST PUSH0 PUSH0 REVERT JUMPDEST PUSH32 0x4E487B7100000000000000000000000000000000000000000000000000000000 PUSH0 MSTORE PUSH1 0x41 PUSH1 0x4 MSTORE PUSH1 0x24 PUSH0 REVERT JUMPDEST PUSH2 0x474 DUP3 PUSH2 0x2FB JUMP JUMPDEST DUP2 ADD DUP2 DUP2 LT PUSH8 0xFFFFFFFFFFFFFFFF DUP3 GT OR ISZERO PUSH2 0x493 JUMPI PUSH2 0x492 PUSH2 0x43E JUMP JUMPDEST JUMPDEST DUP1 PUSH1 0x40 MSTORE POP POP POP JUMP JUMPDEST PUSH0 PUSH2 0x4A5 PUSH2 0x3D0 JUMP JUMPDEST SWAP1 POP PUSH2 0x4B1 DUP3 DUP3 PUSH2 0x46B JUMP JUMPDEST SWAP2 SWAP1 POP JUMP JUMPDEST PUSH0 PUSH8 0xFFFFFFFFFFFFFFFF DUP3 GT ISZERO PUSH2 0x4D0 JUMPI PUSH2 0x4CF PUSH2 0x43E JUMP JUMPDEST JUMPDEST PUSH2 0x4D9 DUP3 PUSH2 0x2FB JUMP JUMPDEST SWAP1 POP PUSH1 0x20 DUP2 ADD SWAP1 POP SWAP2 SWAP1 POP JUMP JUMPDEST DUP3 DUP2 DUP4 CALLDATACOPY PUSH0 DUP4 DUP4 ADD MSTORE POP POP POP JUMP JUMPDEST PUSH0 PUSH2 0x506 PUSH2 0x501 DUP5 PUSH2 0x4B6 JUMP JUMPDEST PUSH2 0x49C JUMP JUMPDEST SWAP1 POP DUP3 DUP2 MSTORE PUSH1 0x20 DUP2 ADD DUP5 DUP5 DUP5 ADD GT ISZERO PUSH2 0x522 JUMPI PUSH2 0x521 PUSH2 0x43A JUMP JUMPDEST JUMPDEST PUSH2 0x52D DUP5 DUP3 DUP6 PUSH2 0x4E6 JUMP JUMPDEST POP SWAP4 SWAP3 POP POP POP JUMP JUMPDEST PUSH0 DUP3 PUSH1 0x1F DUP4 ADD SLT PUSH2 0x549 JUMPI PUSH2 0x548 PUSH2 0x436 JUMP JUMPDEST JUMPDEST DUP2 CALLDATALOAD PUSH2 0x559 DUP5 DUP3 PUSH1 0x20 DUP7 ADD PUSH2 0x4F4 JUMP JUMPDEST SWAP2 POP POP SWAP3 SWAP2 POP POP JUMP JUMPDEST PUSH0 PUSH1 0x20 DUP3 DUP5 SUB SLT ISZERO PUSH2 0x577 JUMPI PUSH2 0x576 PUSH2 0x3D9 JUMP JUMPDEST JUMPDEST PUSH0 DUP3 ADD CALLDATALOAD PUSH8 0xFFFFFFFFFFFFFFFF DUP2 GT ISZERO PUSH2 0x594 JUMPI PUSH2 0x593 PUSH2 0x3DD JUMP JUMPDEST JUMPDEST PUSH2 0x5A0 DUP5 DUP3 DUP6 ADD PUSH2 0x535 JUMP JUMPDEST SWAP2 POP POP SWAP3 SWAP2 POP POP JUMP JUMPDEST PUSH32 0x4E487B7100000000000000000000000000000000000000000000000000000000 PUSH0 MSTORE PUSH1 0x22 PUSH1 0x4 MSTORE PUSH1 0x24 PUSH0 REVERT JUMPDEST PUSH0 PUSH1 0x2 DUP3 DIV SWAP1 POP PUSH1 0x1 DUP3 AND DUP1 PUSH2 0x5ED JUMPI PUSH1 0x7F DUP3 AND SWAP2 POP JUMPDEST PUSH1 0x20 DUP3 LT DUP2 SUB PUSH2 0x600 JUMPI PUSH2 0x5FF PUSH2 0x5A9 JUMP JUMPDEST JUMPDEST POP SWAP2 SWAP1 POP JUMP JUMPDEST PUSH32 0x4E487B7100000000000000000000000000000000000000000000000000000000 PUSH0 MSTORE PUSH1 0x11 PUSH1 0x4 MSTORE PUSH1 0x24 PUSH0 REVERT JUMPDEST PUSH0 PUSH2 0x63D DUP3 PUSH2 0x363 JUMP JUMPDEST SWAP2 POP PUSH2 0x648 DUP4 PUSH2 0x363 JUMP JUMPDEST SWAP3 POP DUP3 DUP3 ADD SWAP1 POP DUP1 DUP3 GT ISZERO PUSH2 0x660 JUMPI PUSH2 0x65F PUSH2 0x606 JUMP JUMPDEST JUMPDEST SWAP3 SWAP2 POP POP JUMP JUMPDEST PUSH0 DUP2 SWAP1 POP DUP2 PUSH0 MSTORE PUSH1 0x20 PUSH0 KECCAK256 SWAP1 POP SWAP2 SWAP1 POP JUMP JUMPDEST PUSH0 PUSH1 0x20 PUSH1 0x1F DUP4 ADD DIV SWAP1 POP SWAP2 SWAP1 POP JUMP JUMPDEST PUSH0 DUP3 DUP3 SHL SWAP1 POP SWAP3 SWAP2 POP POP JUMP JUMPDEST PUSH0 PUSH1 0x8 DUP4 MUL PUSH2 0x6C2 PUSH32 0xFFFFFFFFFFFFFFFFFFFFFFFFFFFFFFFFFFFFFFFFFFFFFFFFFFFFFFFFFFFFFFFF DUP3 PUSH2 0x687 JUMP JUMPDEST PUSH2 0x6CC DUP7 DUP4 PUSH2 0x687 JUMP JUMPDEST SWAP6 POP DUP1 NOT DUP5 AND SWAP4 POP DUP1 DUP7 AND DUP5 OR SWAP3 POP POP POP SWAP4 SWAP3 POP POP POP JUMP JUMPDEST PUSH0 DUP2 SWAP1 POP SWAP2 SWAP1 POP JUMP JUMPDEST PUSH0 PUSH2 0x707 PUSH2 0x702 PUSH2 0x6FD DUP5 PUSH2 0x363 JUMP JUMPDEST PUSH2 0x6E4 JUMP JUMPDEST PUSH2 0x363 JUMP JUMPDEST SWAP1 POP SWAP2 SWAP1 POP JUMP JUMPDEST PUSH0 DUP2 SWAP1 POP SWAP2 SWAP1 POP JUMP JUMPDEST PUSH2 0x720 DUP4 PUSH2 0x6ED JUMP JUMPDEST PUSH2 0x734 PUSH2 0x72C DUP3 PUSH2 0x70E JUMP JUMPDEST DUP5 DUP5 SLOAD PUSH2 0x693 JUMP JUMPDEST DUP3 SSTORE POP POP POP POP JUMP JUMPDEST PUSH0 PUSH0 SWAP1 POP SWAP1 JUMP JUMPDEST PUSH2 0x74B PUSH2 0x73C JUMP JUMPDEST PUSH2 0x756 DUP2 DUP5 DUP5 PUSH2 0x717 JUMP JUMPDEST POP POP POP JUMP JUMPDEST JUMPDEST DUP2 DUP2 LT ISZERO PUSH2 0x779 JUMPI PUSH2 0x76E PUSH0 DUP3 PUSH2 0x743 JUMP JUMPDEST PUSH1 0x1 DUP2 ADD SWAP1 POP PUSH2 0x75C JUMP JUMPDEST POP POP JUMP JUMPDEST PUSH1 0x1F DUP3 GT ISZERO PUSH2 0x7BE JUMPI PUSH2 0x78F DUP2 PUSH2 0x666 JUMP JUMPDEST PUSH2 0x798 DUP5 PUSH2 0x678 JUMP JUMPDEST DUP2 ADD PUSH1 0x20 DUP6 LT ISZERO PUSH2 0x7A7 JUMPI DUP2 SWAP1 POP JUMPDEST PUSH2 0x7BB PUSH2 0x7B3 DUP6 PUSH2 0x678 JUMP JUMPDEST DUP4 ADD DUP3 PUSH2 0x75B JUMP JUMPDEST POP POP JUMPDEST POP POP POP JUMP JUMPDEST PUSH0 DUP3 DUP3 SHR SWAP1 POP SWAP3 SWAP2 POP POP JUMP JUMPDEST PUSH0 PUSH2 0x7DE PUSH0 NOT DUP5 PUSH1 0x8 MUL PUSH2 0x7C3 JUMP JUMPDEST NOT DUP1 DUP4 AND SWAP2 POP POP SWAP3 SWAP2 POP POP JUMP JUMPDEST PUSH0 PUSH2 0x7F6 DUP4 DUP4 PUSH2 0x7CF JUMP JUMPDEST SWAP2 POP DUP3 PUSH1 0x2 MUL DUP3 OR SWAP1 POP SWAP3 SWAP2 POP POP JUMP JUMPDEST PUSH2 0x80F DUP3 PUSH2 0x2D3 JUMP JUMPDEST PUSH8 0xFFFFFFFFFFFFFFFF DUP2 GT ISZERO PUSH2 0x828 JUMPI PUSH2 0x827 PUSH2 0x43E JUMP JUMPDEST JUMPDEST PUSH2 0x832 DUP3 SLOAD PUSH2 0x5D6 JUMP JUMPDEST PUSH2 0x83D DUP3 DUP3 DUP6 PUSH2 0x77D JUMP JUMPDEST PUSH0 PUSH1 0x20 SWAP1 POP PUSH1 0x1F DUP4 GT PUSH1 0x1 DUP2 EQ PUSH2 0x86E JUMPI PUSH0 DUP5 ISZERO PUSH2 0x85C JUMPI DUP3 DUP8 ADD MLOAD SWAP1 POP JUMPDEST PUSH2 0x866 DUP6 DUP3 PUSH2 0x7EB JUMP JUMPDEST DUP7 SSTORE POP PUSH2 0x8CD JUMP JUMPDEST PUSH1 0x1F NOT DUP5 AND PUSH2 0x87C DUP7 PUSH2 0x666 JUMP JUMPDEST PUSH0 JUMPDEST DUP3 DUP2 LT ISZERO PUSH2 0x8A3 JUMPI DUP5 DUP10 ADD MLOAD DUP3 SSTORE PUSH1 0x1 DUP3 ADD SWAP2 POP PUSH1 0x20 DUP6 ADD SWAP5 POP PUSH1 0x20 DUP2 ADD SWAP1 POP PUSH2 0x87E JUMP JUMPDEST DUP7 DUP4 LT ISZERO PUSH2 0x8C0 JUMPI DUP5 DUP10 ADD MLOAD PUSH2 0x8BC PUSH1 0x1F DUP10 AND DUP3 PUSH2 0x7CF JUMP JUMPDEST DUP4 SSTORE POP JUMPDEST PUSH1 0x1 PUSH1 0x2 DUP9 MUL ADD DUP9 SSTORE POP POP POP JUMPDEST POP POP POP POP POP POP JUMP INVALID LOG2 PUSH5 0x6970667358 0x22 SLT KECCAK256 DUP16 SWAP4 SWAP4 0xD5 MSIZE SELFBALANCE 0xBB 0xC DUP14 0xBE SIGNEXTEND STOP PUSH27 0x9FECEFA06F0638A960EE5D5885A97AA088156064736F6C63430008 0x1E STOP CALLER "
				},
				"gasEstimates": {
					"creation": {
						"codeDepositCost": "463000",
						"executionCost": "497",
						"totalCost": "463497"
					},
					"external": {
						"addAge(uint256)": "infinite",
						"age()": "2448",
						"getInfo()": "infinite",
						"name()": "infinite",
						"newAge()": "2491",
						"setAge(uint256)": "22559",
						"setName(string)": "infinite"
					}
				},
				"methodIdentifiers": {
					"addAge(uint256)": "bbb060ef",
					"age()": "262a9dff",
					"getInfo()": "5a9b0b89",
					"name()": "06fdde03",
					"newAge()": "e5506953",
					"setAge(uint256)": "d5dcf127",
					"setName(string)": "c47f0027"
				}
			},
			"storageLayout": {
				"storage": [
					{
						"astId": 3,
						"contract": "contract/1stClass.sol:MyFirstContract",
						"label": "name",
						"offset": 0,
						"slot": "0",
						"type": "t_string_storage"
					},
					{
						"astId": 5,
						"contract": "contract/1stClass.sol:MyFirstContract",
						"label": "age",
						"offset": 0,
						"slot": "1",
						"type": "t_uint256"
					},
					{
						"astId": 7,
						"contract": "contract/1stClass.sol:MyFirstContract",
						"label": "newAge",
						"offset": 0,
						"slot": "2",
						"type": "t_uint256"
					}
				],
				"types": {
					"t_string_storage": {
						"encoding": "bytes",
						"label": "string",
						"numberOfBytes": "32"
					},
					"t_uint256": {
						"encoding": "inplace",
						"label": "uint256",
						"numberOfBytes": "32"
					}
				}
			},
			"userdoc": {
				"kind": "user",
				"methods": {},
				"version": 1
			}
		}
	}
}