{
	"contract/3rdClass.sol": {
		"dynamicArray": {
			"abi": [
				{
					"inputs": [
						{
							"internalType": "uint256",
							"name": "score",
							"type": "uint256"
						}
					],
					"name": "addScore",
					"outputs": [],
					"stateMutability": "nonpayable",
					"type": "function"
				},
				{
					"inputs": [
						{
							"internalType": "uint256",
							"name": "",
							"type": "uint256"
						}
					],
					"name": "names",
					"outputs": [
						{
							"internalType": "string",
							"name": "",
							"type": "string"
						}
					],
					"stateMutability": "view",
					"type": "function"
				},
				{
					"inputs": [
						{
							"internalType": "uint256",
							"name": "",
							"type": "uint256"
						}
					],
					"name": "participants",
					"outputs": [
						{
							"internalType": "address",
							"name": "",
							"type": "address"
						}
					],
					"stateMutability": "view",
					"type": "function"
				},
				{
					"inputs": [
						{
							"internalType": "uint256",
							"name": "",
							"type": "uint256"
						}
					],
					"name": "scores",
					"outputs": [
						{
							"internalType": "uint256",
							"name": "",
							"type": "uint256"
						}
					],
					"stateMutability": "view",
					"type": "function"
				}
			],
			"devdoc": {
				"kind": "dev",
				"methods": {},
				"version": 1
			},
			"evm": {
				"assembly": "    /* \"contract/3rdClass.sol\":948:1152  contract dynamicArray{... */\n  mstore(0x40, 0x80)\n  callvalue\n  dup1\n  iszero\n  tag_1\n  jumpi\n  revert(0x00, 0x00)\ntag_1:\n  pop\n  dataSize(sub_0)\n  dup1\n  dataOffset(sub_0)\n  0x00\n  codecopy\n  0x00\n  return\nstop\n\nsub_0: assembly {\n        /* \"contract/3rdClass.sol\":948:1152  contract dynamicArray{... */\n      mstore(0x40, 0x80)\n      callvalue\n      dup1\n      iszero\n      tag_1\n      jumpi\n      revert(0x00, 0x00)\n    tag_1:\n      pop\n      jumpi(tag_2, lt(calldatasize, 0x04))\n      shr(0xe0, calldataload(0x00))\n      dup1\n      0x10b2afce\n      eq\n      tag_3\n      jumpi\n      dup1\n      0x2ee691a3\n      eq\n      tag_4\n      jumpi\n      dup1\n      0x35c1d349\n      eq\n      tag_5\n      jumpi\n      dup1\n      0x4622ab03\n      eq\n      tag_6\n      jumpi\n    tag_2:\n      revert(0x00, 0x00)\n        /* \"contract/3rdClass.sol\":1072:1149  function addScore(uint256 score) public {... */\n    tag_3:\n      tag_7\n      0x04\n      dup1\n      calldatasize\n      sub\n      dup2\n      add\n      swap1\n      tag_8\n      swap2\n      swap1\n      tag_9\n      jump\t// in\n    tag_8:\n      tag_10\n      jump\t// in\n    tag_7:\n      stop\n        /* \"contract/3rdClass.sol\":976:999  uint256[] public scores */\n    tag_4:\n      tag_11\n      0x04\n      dup1\n      calldatasize\n      sub\n      dup2\n      add\n      swap1\n      tag_12\n      swap2\n      swap1\n      tag_9\n      jump\t// in\n    tag_12:\n      tag_13\n      jump\t// in\n    tag_11:\n      mload(0x40)\n      tag_14\n      swap2\n      swap1\n      tag_15\n      jump\t// in\n    tag_14:\n      mload(0x40)\n      dup1\n      swap2\n      sub\n      swap1\n      return\n        /* \"contract/3rdClass.sol\":1006:1035  address[] public participants */\n    tag_5:\n      tag_16\n      0x04\n      dup1\n      calldatasize\n      sub\n      dup2\n      add\n      swap1\n      tag_17\n      swap2\n      swap1\n      tag_9\n      jump\t// in\n    tag_17:\n      tag_18\n      jump\t// in\n    tag_16:\n      mload(0x40)\n      tag_19\n      swap2\n      swap1\n      tag_20\n      jump\t// in\n    tag_19:\n      mload(0x40)\n      dup1\n      swap2\n      sub\n      swap1\n      return\n        /* \"contract/3rdClass.sol\":1042:1063  string[] public names */\n    tag_6:\n      tag_21\n      0x04\n      dup1\n      calldatasize\n      sub\n      dup2\n      add\n      swap1\n      tag_22\n      swap2\n      swap1\n      tag_9\n      jump\t// in\n    tag_22:\n      tag_23\n      jump\t// in\n    tag_21:\n      mload(0x40)\n      tag_24\n      swap2\n      swap1\n      tag_25\n      jump\t// in\n    tag_24:\n      mload(0x40)\n      dup1\n      swap2\n      sub\n      swap1\n      return\n        /* \"contract/3rdClass.sol\":1072:1149  function addScore(uint256 score) public {... */\n    tag_10:\n        /* \"contract/3rdClass.sol\":1123:1129  scores */\n      0x00\n        /* \"contract/3rdClass.sol\":1135:1140  score */\n      dup2\n        /* \"contract/3rdClass.sol\":1123:1141  scores.push(score) */\n      swap1\n      dup1\n      0x01\n      dup2\n      sload\n      add\n      dup1\n      dup3\n      sstore\n      dup1\n      swap2\n      pop\n      pop\n      0x01\n      swap1\n      sub\n      swap1\n      0x00\n      mstore\n      keccak256(0x00, 0x20)\n      add\n      0x00\n      swap1\n      swap2\n      swap1\n      swap2\n      swap1\n      swap2\n      pop\n      sstore\n        /* \"contract/3rdClass.sol\":1072:1149  function addScore(uint256 score) public {... */\n      pop\n      jump\t// out\n        /* \"contract/3rdClass.sol\":976:999  uint256[] public scores */\n    tag_13:\n      0x00\n      dup2\n      dup2\n      sload\n      dup2\n      lt\n      tag_28\n      jumpi\n      0x00\n      dup1\n      revert\n    tag_28:\n      swap1\n      0x00\n      mstore\n      keccak256(0x00, 0x20)\n      add\n      0x00\n      swap2\n      pop\n      swap1\n      pop\n      sload\n      dup2\n      jump\t// out\n        /* \"contract/3rdClass.sol\":1006:1035  address[] public participants */\n    tag_18:\n      0x01\n      dup2\n      dup2\n      sload\n      dup2\n      lt\n      tag_30\n      jumpi\n      0x00\n      dup1\n      revert\n    tag_30:\n      swap1\n      0x00\n      mstore\n      keccak256(0x00, 0x20)\n      add\n      0x00\n      swap2\n      pop\n      sload\n      swap1\n      0x0100\n      exp\n      swap1\n      div\n      0xffffffffffffffffffffffffffffffffffffffff\n      and\n      dup2\n      jump\t// out\n        /* \"contract/3rdClass.sol\":1042:1063  string[] public names */\n    tag_23:\n      0x02\n      dup2\n      dup2\n      sload\n      dup2\n      lt\n      tag_32\n      jumpi\n      0x00\n      dup1\n      revert\n    tag_32:\n      swap1\n      0x00\n      mstore\n      keccak256(0x00, 0x20)\n      add\n      0x00\n      swap2\n      pop\n      swap1\n      pop\n      dup1\n      sload\n      tag_34\n      swap1\n      tag_35\n      jump\t// in\n    tag_34:\n      dup1\n      0x1f\n      add\n      0x20\n      dup1\n      swap2\n      div\n      mul\n      0x20\n      add\n      mload(0x40)\n      swap1\n      dup2\n      add\n      0x40\n      mstore\n      dup1\n      swap3\n      swap2\n      swap1\n      dup2\n      dup2\n      mstore\n      0x20\n      add\n      dup3\n      dup1\n      sload\n      tag_36\n      swap1\n      tag_35\n      jump\t// in\n    tag_36:\n      dup1\n      iszero\n      tag_37\n      jumpi\n      dup1\n      0x1f\n      lt\n      tag_38\n      jumpi\n      0x0100\n      dup1\n      dup4\n      sload\n      div\n      mul\n      dup4\n      mstore\n      swap2\n      0x20\n      add\n      swap2\n      jump(tag_37)\n    tag_38:\n      dup3\n      add\n      swap2\n      swap1\n      0x00\n      mstore\n      keccak256(0x00, 0x20)\n      swap1\n    tag_39:\n      dup2\n      sload\n      dup2\n      mstore\n      swap1\n      0x01\n      add\n      swap1\n      0x20\n      add\n      dup1\n      dup4\n      gt\n      tag_39\n      jumpi\n      dup3\n      swap1\n      sub\n      0x1f\n      and\n      dup3\n      add\n      swap2\n    tag_37:\n      pop\n      pop\n      pop\n      pop\n      pop\n      dup2\n      jump\t// out\n        /* \"#utility.yul\":88:205   */\n    tag_41:\n        /* \"#utility.yul\":197:198   */\n      0x00\n        /* \"#utility.yul\":194:195   */\n      0x00\n        /* \"#utility.yul\":187:199   */\n      revert\n        /* \"#utility.yul\":334:411   */\n    tag_43:\n        /* \"#utility.yul\":371:378   */\n      0x00\n        /* \"#utility.yul\":400:405   */\n      dup2\n        /* \"#utility.yul\":389:405   */\n      swap1\n      pop\n        /* \"#utility.yul\":334:411   */\n      swap2\n      swap1\n      pop\n      jump\t// out\n        /* \"#utility.yul\":417:539   */\n    tag_44:\n        /* \"#utility.yul\":490:514   */\n      tag_62\n        /* \"#utility.yul\":508:513   */\n      dup2\n        /* \"#utility.yul\":490:514   */\n      tag_43\n      jump\t// in\n    tag_62:\n        /* \"#utility.yul\":483:488   */\n      dup2\n        /* \"#utility.yul\":480:515   */\n      eq\n        /* \"#utility.yul\":470:533   */\n      tag_63\n      jumpi\n        /* \"#utility.yul\":529:530   */\n      0x00\n        /* \"#utility.yul\":526:527   */\n      0x00\n        /* \"#utility.yul\":519:531   */\n      revert\n        /* \"#utility.yul\":470:533   */\n    tag_63:\n        /* \"#utility.yul\":417:539   */\n      pop\n      jump\t// out\n        /* \"#utility.yul\":545:684   */\n    tag_45:\n        /* \"#utility.yul\":591:596   */\n      0x00\n        /* \"#utility.yul\":629:635   */\n      dup2\n        /* \"#utility.yul\":616:636   */\n      calldataload\n        /* \"#utility.yul\":607:636   */\n      swap1\n      pop\n        /* \"#utility.yul\":645:678   */\n      tag_65\n        /* \"#utility.yul\":672:677   */\n      dup2\n        /* \"#utility.yul\":645:678   */\n      tag_44\n      jump\t// in\n    tag_65:\n        /* \"#utility.yul\":545:684   */\n      swap3\n      swap2\n      pop\n      pop\n      jump\t// out\n        /* \"#utility.yul\":690:1019   */\n    tag_9:\n        /* \"#utility.yul\":749:755   */\n      0x00\n        /* \"#utility.yul\":798:800   */\n      0x20\n        /* \"#utility.yul\":786:795   */\n      dup3\n        /* \"#utility.yul\":777:784   */\n      dup5\n        /* \"#utility.yul\":773:796   */\n      sub\n        /* \"#utility.yul\":769:801   */\n      slt\n        /* \"#utility.yul\":766:885   */\n      iszero\n      tag_67\n      jumpi\n        /* \"#utility.yul\":804:883   */\n      tag_68\n      tag_41\n      jump\t// in\n    tag_68:\n        /* \"#utility.yul\":766:885   */\n    tag_67:\n        /* \"#utility.yul\":924:925   */\n      0x00\n        /* \"#utility.yul\":949:1002   */\n      tag_69\n        /* \"#utility.yul\":994:1001   */\n      dup5\n        /* \"#utility.yul\":985:991   */\n      dup3\n        /* \"#utility.yul\":974:983   */\n      dup6\n        /* \"#utility.yul\":970:992   */\n      add\n        /* \"#utility.yul\":949:1002   */\n      tag_45\n      jump\t// in\n    tag_69:\n        /* \"#utility.yul\":939:1002   */\n      swap2\n      pop\n        /* \"#utility.yul\":895:1012   */\n      pop\n        /* \"#utility.yul\":690:1019   */\n      swap3\n      swap2\n      pop\n      pop\n      jump\t// out\n        /* \"#utility.yul\":1025:1143   */\n    tag_46:\n        /* \"#utility.yul\":1112:1136   */\n      tag_71\n        /* \"#utility.yul\":1130:1135   */\n      dup2\n        /* \"#utility.yul\":1112:1136   */\n      tag_43\n      jump\t// in\n    tag_71:\n        /* \"#utility.yul\":1107:1110   */\n      dup3\n        /* \"#utility.yul\":1100:1137   */\n      mstore\n        /* \"#utility.yul\":1025:1143   */\n      pop\n      pop\n      jump\t// out\n        /* \"#utility.yul\":1149:1371   */\n    tag_15:\n        /* \"#utility.yul\":1242:1246   */\n      0x00\n        /* \"#utility.yul\":1280:1282   */\n      0x20\n        /* \"#utility.yul\":1269:1278   */\n      dup3\n        /* \"#utility.yul\":1265:1283   */\n      add\n        /* \"#utility.yul\":1257:1283   */\n      swap1\n      pop\n        /* \"#utility.yul\":1293:1364   */\n      tag_73\n        /* \"#utility.yul\":1361:1362   */\n      0x00\n        /* \"#utility.yul\":1350:1359   */\n      dup4\n        /* \"#utility.yul\":1346:1363   */\n      add\n        /* \"#utility.yul\":1337:1343   */\n      dup5\n        /* \"#utility.yul\":1293:1364   */\n      tag_46\n      jump\t// in\n    tag_73:\n        /* \"#utility.yul\":1149:1371   */\n      swap3\n      swap2\n      pop\n      pop\n      jump\t// out\n        /* \"#utility.yul\":1377:1503   */\n    tag_47:\n        /* \"#utility.yul\":1414:1421   */\n      0x00\n        /* \"#utility.yul\":1454:1496   */\n      0xffffffffffffffffffffffffffffffffffffffff\n        /* \"#utility.yul\":1447:1452   */\n      dup3\n        /* \"#utility.yul\":1443:1497   */\n      and\n        /* \"#utility.yul\":1432:1497   */\n      swap1\n      pop\n        /* \"#utility.yul\":1377:1503   */\n      swap2\n      swap1\n      pop\n      jump\t// out\n        /* \"#utility.yul\":1509:1605   */\n    tag_48:\n        /* \"#utility.yul\":1546:1553   */\n      0x00\n        /* \"#utility.yul\":1575:1599   */\n      tag_76\n        /* \"#utility.yul\":1593:1598   */\n      dup3\n        /* \"#utility.yul\":1575:1599   */\n      tag_47\n      jump\t// in\n    tag_76:\n        /* \"#utility.yul\":1564:1599   */\n      swap1\n      pop\n        /* \"#utility.yul\":1509:1605   */\n      swap2\n      swap1\n      pop\n      jump\t// out\n        /* \"#utility.yul\":1611:1729   */\n    tag_49:\n        /* \"#utility.yul\":1698:1722   */\n      tag_78\n        /* \"#utility.yul\":1716:1721   */\n      dup2\n        /* \"#utility.yul\":1698:1722   */\n      tag_48\n      jump\t// in\n    tag_78:\n        /* \"#utility.yul\":1693:1696   */\n      dup3\n        /* \"#utility.yul\":1686:1723   */\n      mstore\n        /* \"#utility.yul\":1611:1729   */\n      pop\n      pop\n      jump\t// out\n        /* \"#utility.yul\":1735:1957   */\n    tag_20:\n        /* \"#utility.yul\":1828:1832   */\n      0x00\n        /* \"#utility.yul\":1866:1868   */\n      0x20\n        /* \"#utility.yul\":1855:1864   */\n      dup3\n        /* \"#utility.yul\":1851:1869   */\n      add\n        /* \"#utility.yul\":1843:1869   */\n      swap1\n      pop\n        /* \"#utility.yul\":1879:1950   */\n      tag_80\n        /* \"#utility.yul\":1947:1948   */\n      0x00\n        /* \"#utility.yul\":1936:1945   */\n      dup4\n        /* \"#utility.yul\":1932:1949   */\n      add\n        /* \"#utility.yul\":1923:1929   */\n      dup5\n        /* \"#utility.yul\":1879:1950   */\n      tag_49\n      jump\t// in\n    tag_80:\n        /* \"#utility.yul\":1735:1957   */\n      swap3\n      swap2\n      pop\n      pop\n      jump\t// out\n        /* \"#utility.yul\":1963:2062   */\n    tag_50:\n        /* \"#utility.yul\":2015:2021   */\n      0x00\n        /* \"#utility.yul\":2049:2054   */\n      dup2\n        /* \"#utility.yul\":2043:2055   */\n      mload\n        /* \"#utility.yul\":2033:2055   */\n      swap1\n      pop\n        /* \"#utility.yul\":1963:2062   */\n      swap2\n      swap1\n      pop\n      jump\t// out\n        /* \"#utility.yul\":2068:2237   */\n    tag_51:\n        /* \"#utility.yul\":2152:2163   */\n      0x00\n        /* \"#utility.yul\":2186:2192   */\n      dup3\n        /* \"#utility.yul\":2181:2184   */\n      dup3\n        /* \"#utility.yul\":2174:2193   */\n      mstore\n        /* \"#utility.yul\":2226:2230   */\n      0x20\n        /* \"#utility.yul\":2221:2224   */\n      dup3\n        /* \"#utility.yul\":2217:2231   */\n      add\n        /* \"#utility.yul\":2202:2231   */\n      swap1\n      pop\n        /* \"#utility.yul\":2068:2237   */\n      swap3\n      swap2\n      pop\n      pop\n      jump\t// out\n        /* \"#utility.yul\":2243:2382   */\n    tag_52:\n        /* \"#utility.yul\":2332:2338   */\n      dup3\n        /* \"#utility.yul\":2327:2330   */\n      dup2\n        /* \"#utility.yul\":2322:2325   */\n      dup4\n        /* \"#utility.yul\":2316:2339   */\n      mcopy\n        /* \"#utility.yul\":2373:2374   */\n      0x00\n        /* \"#utility.yul\":2364:2370   */\n      dup4\n        /* \"#utility.yul\":2359:2362   */\n      dup4\n        /* \"#utility.yul\":2355:2371   */\n      add\n        /* \"#utility.yul\":2348:2375   */\n      mstore\n        /* \"#utility.yul\":2243:2382   */\n      pop\n      pop\n      pop\n      jump\t// out\n        /* \"#utility.yul\":2388:2490   */\n    tag_53:\n        /* \"#utility.yul\":2429:2435   */\n      0x00\n        /* \"#utility.yul\":2480:2482   */\n      0x1f\n        /* \"#utility.yul\":2476:2483   */\n      not\n        /* \"#utility.yul\":2471:2473   */\n      0x1f\n        /* \"#utility.yul\":2464:2469   */\n      dup4\n        /* \"#utility.yul\":2460:2474   */\n      add\n        /* \"#utility.yul\":2456:2484   */\n      and\n        /* \"#utility.yul\":2446:2484   */\n      swap1\n      pop\n        /* \"#utility.yul\":2388:2490   */\n      swap2\n      swap1\n      pop\n      jump\t// out\n        /* \"#utility.yul\":2496:2873   */\n    tag_54:\n        /* \"#utility.yul\":2584:2587   */\n      0x00\n        /* \"#utility.yul\":2612:2651   */\n      tag_86\n        /* \"#utility.yul\":2645:2650   */\n      dup3\n        /* \"#utility.yul\":2612:2651   */\n      tag_50\n      jump\t// in\n    tag_86:\n        /* \"#utility.yul\":2667:2738   */\n      tag_87\n        /* \"#utility.yul\":2731:2737   */\n      dup2\n        /* \"#utility.yul\":2726:2729   */\n      dup6\n        /* \"#utility.yul\":2667:2738   */\n      tag_51\n      jump\t// in\n    tag_87:\n        /* \"#utility.yul\":2660:2738   */\n      swap4\n      pop\n        /* \"#utility.yul\":2747:2812   */\n      tag_88\n        /* \"#utility.yul\":2805:2811   */\n      dup2\n        /* \"#utility.yul\":2800:2803   */\n      dup6\n        /* \"#utility.yul\":2793:2797   */\n      0x20\n        /* \"#utility.yul\":2786:2791   */\n      dup7\n        /* \"#utility.yul\":2782:2798   */\n      add\n        /* \"#utility.yul\":2747:2812   */\n      tag_52\n      jump\t// in\n    tag_88:\n        /* \"#utility.yul\":2837:2866   */\n      tag_89\n        /* \"#utility.yul\":2859:2865   */\n      dup2\n        /* \"#utility.yul\":2837:2866   */\n      tag_53\n      jump\t// in\n    tag_89:\n        /* \"#utility.yul\":2832:2835   */\n      dup5\n        /* \"#utility.yul\":2828:2867   */\n      add\n        /* \"#utility.yul\":2821:2867   */\n      swap2\n      pop\n        /* \"#utility.yul\":2588:2873   */\n      pop\n        /* \"#utility.yul\":2496:2873   */\n      swap3\n      swap2\n      pop\n      pop\n      jump\t// out\n        /* \"#utility.yul\":2879:3192   */\n    tag_25:\n        /* \"#utility.yul\":2992:2996   */\n      0x00\n        /* \"#utility.yul\":3030:3032   */\n      0x20\n        /* \"#utility.yul\":3019:3028   */\n      dup3\n        /* \"#utility.yul\":3015:3033   */\n      add\n        /* \"#utility.yul\":3007:3033   */\n      swap1\n      pop\n        /* \"#utility.yul\":3079:3088   */\n      dup2\n        /* \"#utility.yul\":3073:3077   */\n      dup2\n        /* \"#utility.yul\":3069:3089   */\n      sub\n        /* \"#utility.yul\":3065:3066   */\n      0x00\n        /* \"#utility.yul\":3054:3063   */\n      dup4\n        /* \"#utility.yul\":3050:3067   */\n      add\n        /* \"#utility.yul\":3043:3090   */\n      mstore\n        /* \"#utility.yul\":3107:3185   */\n      tag_91\n        /* \"#utility.yul\":3180:3184   */\n      dup2\n        /* \"#utility.yul\":3171:3177   */\n      dup5\n        /* \"#utility.yul\":3107:3185   */\n      tag_54\n      jump\t// in\n    tag_91:\n        /* \"#utility.yul\":3099:3185   */\n      swap1\n      pop\n        /* \"#utility.yul\":2879:3192   */\n      swap3\n      swap2\n      pop\n      pop\n      jump\t// out\n        /* \"#utility.yul\":3198:3378   */\n    tag_55:\n        /* \"#utility.yul\":3246:3323   */\n      0x4e487b7100000000000000000000000000000000000000000000000000000000\n        /* \"#utility.yul\":3243:3244   */\n      0x00\n        /* \"#utility.yul\":3236:3324   */\n      mstore\n        /* \"#utility.yul\":3343:3347   */\n      0x22\n        /* \"#utility.yul\":3340:3341   */\n      0x04\n        /* \"#utility.yul\":3333:3348   */\n      mstore\n        /* \"#utility.yul\":3367:3371   */\n      0x24\n        /* \"#utility.yul\":3364:3365   */\n      0x00\n        /* \"#utility.yul\":3357:3372   */\n      revert\n        /* \"#utility.yul\":3384:3704   */\n    tag_35:\n        /* \"#utility.yul\":3428:3434   */\n      0x00\n        /* \"#utility.yul\":3465:3466   */\n      0x02\n        /* \"#utility.yul\":3459:3463   */\n      dup3\n        /* \"#utility.yul\":3455:3467   */\n      div\n        /* \"#utility.yul\":3445:3467   */\n      swap1\n      pop\n        /* \"#utility.yul\":3512:3513   */\n      0x01\n        /* \"#utility.yul\":3506:3510   */\n      dup3\n        /* \"#utility.yul\":3502:3514   */\n      and\n        /* \"#utility.yul\":3533:3551   */\n      dup1\n        /* \"#utility.yul\":3523:3604   */\n      tag_94\n      jumpi\n        /* \"#utility.yul\":3589:3593   */\n      0x7f\n        /* \"#utility.yul\":3581:3587   */\n      dup3\n        /* \"#utility.yul\":3577:3594   */\n      and\n        /* \"#utility.yul\":3567:3594   */\n      swap2\n      pop\n        /* \"#utility.yul\":3523:3604   */\n    tag_94:\n        /* \"#utility.yul\":3651:3653   */\n      0x20\n        /* \"#utility.yul\":3643:3649   */\n      dup3\n        /* \"#utility.yul\":3640:3654   */\n      lt\n        /* \"#utility.yul\":3620:3638   */\n      dup2\n        /* \"#utility.yul\":3617:3655   */\n      sub\n        /* \"#utility.yul\":3614:3698   */\n      tag_95\n      jumpi\n        /* \"#utility.yul\":3670:3688   */\n      tag_96\n      tag_55\n      jump\t// in\n    tag_96:\n        /* \"#utility.yul\":3614:3698   */\n    tag_95:\n        /* \"#utility.yul\":3435:3704   */\n      pop\n        /* \"#utility.yul\":3384:3704   */\n      swap2\n      swap1\n      pop\n      jump\t// out\n\n    auxdata: 0xa2646970667358221220a934f5910b39b1522732dcf89c907455c90675956b6d3efb3539036d2e5eeadd64736f6c634300081e0033\n}\n",
				"bytecode": {
					"linkReferences": {},
					"object": "6080604052348015600e575f5ffd5b506104278061001c5f395ff3fe608060405234801561000f575f5ffd5b506004361061004a575f3560e01c806310b2afce1461004e5780632ee691a31461006a57806335c1d3491461009a5780634622ab03146100ca575b5f5ffd5b61006860048036038101906100639190610259565b6100fa565b005b610084600480360381019061007f9190610259565b610122565b6040516100919190610293565b60405180910390f35b6100b460048036038101906100af9190610259565b610141565b6040516100c191906102eb565b60405180910390f35b6100e460048036038101906100df9190610259565b61017c565b6040516100f19190610374565b60405180910390f35b5f81908060018154018082558091505060019003905f5260205f20015f909190919091505550565b5f8181548110610130575f80fd5b905f5260205f20015f915090505481565b60018181548110610150575f80fd5b905f5260205f20015f915054906101000a900473ffffffffffffffffffffffffffffffffffffffff1681565b6002818154811061018b575f80fd5b905f5260205f20015f9150905080546101a3906103c1565b80601f01602080910402602001604051908101604052809291908181526020018280546101cf906103c1565b801561021a5780601f106101f15761010080835404028352916020019161021a565b820191905f5260205f20905b8154815290600101906020018083116101fd57829003601f168201915b505050505081565b5f5ffd5b5f819050919050565b61023881610226565b8114610242575f5ffd5b50565b5f813590506102538161022f565b92915050565b5f6020828403121561026e5761026d610222565b5b5f61027b84828501610245565b91505092915050565b61028d81610226565b82525050565b5f6020820190506102a65f830184610284565b92915050565b5f73ffffffffffffffffffffffffffffffffffffffff82169050919050565b5f6102d5826102ac565b9050919050565b6102e5816102cb565b82525050565b5f6020820190506102fe5f8301846102dc565b92915050565b5f81519050919050565b5f82825260208201905092915050565b8281835e5f83830152505050565b5f601f19601f8301169050919050565b5f61034682610304565b610350818561030e565b935061036081856020860161031e565b6103698161032c565b840191505092915050565b5f6020820190508181035f83015261038c818461033c565b905092915050565b7f4e487b71000000000000000000000000000000000000000000000000000000005f52602260045260245ffd5b5f60028204905060018216806103d857607f821691505b6020821081036103eb576103ea610394565b5b5091905056fea2646970667358221220a934f5910b39b1522732dcf89c907455c90675956b6d3efb3539036d2e5eeadd64736f6c634300081e0033",
					"opcodes": "PUSH1 0x80 PUSH1 0x40 MSTORE CALLVALUE DUP1 ISZERO PUSH1 0xE JUMPI PUSH0 PUSH0 REVERT JUMPDEST POP PUSH2 0x427 DUP1 PUSH2 0x1C PUSH0 CODECOPY PUSH0 RETURN INVALID PUSH1 0x80 PUSH1 0x40 MSTORE CALLVALUE DUP1 ISZERO PUSH2 0xF JUMPI PUSH0 PUSH0 REVERT JUMPDEST POP PUSH1 0x4 CALLDATASIZE LT PUSH2 0x4A JUMPI PUSH0 CALLDATALOAD PUSH1 0xE0 SHR DUP1 PUSH4 0x10B2AFCE EQ PUSH2 0x4E JUMPI DUP1 PUSH4 0x2EE691A3 EQ PUSH2 0x6A JUMPI DUP1 PUSH4 0x35C1D349 EQ PUSH2 0x9A JUMPI DUP1 PUSH4 0x4622AB03 EQ PUSH2 0xCA JUMPI JUMPDEST PUSH0 PUSH0 REVERT JUMPDEST PUSH2 0x68 PUSH1 0x4 DUP1 CALLDATASIZE SUB DUP2 ADD SWAP1 PUSH2 0x63 SWAP2 SWAP1 PUSH2 0x259 JUMP JUMPDEST PUSH2 0xFA JUMP JUMPDEST STOP JUMPDEST PUSH2 0x84 PUSH1 0x4 DUP1 CALLDATASIZE SUB DUP2 ADD SWAP1 PUSH2 0x7F SWAP2 SWAP1 PUSH2 0x259 JUMP JUMPDEST PUSH2 0x122 JUMP JUMPDEST PUSH1 0x40 MLOAD PUSH2 0x91 SWAP2 SWAP1 PUSH2 0x293 JUMP JUMPDEST PUSH1 0x40 MLOAD DUP1 SWAP2 SUB SWAP1 RETURN JUMPDEST PUSH2 0xB4 PUSH1 0x4 DUP1 CALLDATASIZE SUB DUP2 ADD SWAP1 PUSH2 0xAF SWAP2 SWAP1 PUSH2 0x259 JUMP JUMPDEST PUSH2 0x141 JUMP JUMPDEST PUSH1 0x40 MLOAD PUSH2 0xC1 SWAP2 SWAP1 PUSH2 0x2EB JUMP JUMPDEST PUSH1 0x40 MLOAD DUP1 SWAP2 SUB SWAP1 RETURN JUMPDEST PUSH2 0xE4 PUSH1 0x4 DUP1 CALLDATASIZE SUB DUP2 ADD SWAP1 PUSH2 0xDF SWAP2 SWAP1 PUSH2 0x259 JUMP JUMPDEST PUSH2 0x17C JUMP JUMPDEST PUSH1 0x40 MLOAD PUSH2 0xF1 SWAP2 SWAP1 PUSH2 0x374 JUMP JUMPDEST PUSH1 0x40 MLOAD DUP1 SWAP2 SUB SWAP1 RETURN JUMPDEST PUSH0 DUP2 SWAP1 DUP1 PUSH1 0x1 DUP2 SLOAD ADD DUP1 DUP3 SSTORE DUP1 SWAP2 POP POP PUSH1 0x1 SWAP1 SUB SWAP1 PUSH0 MSTORE PUSH1 0x20 PUSH0 KECCAK256 ADD PUSH0 SWAP1 SWAP2 SWAP1 SWAP2 SWAP1 SWAP2 POP SSTORE POP JUMP JUMPDEST PUSH0 DUP2 DUP2 SLOAD DUP2 LT PUSH2 0x130 JUMPI PUSH0 DUP1 REVERT JUMPDEST SWAP1 PUSH0 MSTORE PUSH1 0x20 PUSH0 KECCAK256 ADD PUSH0 SWAP2 POP SWAP1 POP SLOAD DUP2 JUMP JUMPDEST PUSH1 0x1 DUP2 DUP2 SLOAD DUP2 LT PUSH2 0x150 JUMPI PUSH0 DUP1 REVERT JUMPDEST SWAP1 PUSH0 MSTORE PUSH1 0x20 PUSH0 KECCAK256 ADD PUSH0 SWAP2 POP SLOAD SWAP1 PUSH2 0x100 EXP SWAP1 DIV PUSH20 0xFFFFFFFFFFFFFFFFFFFFFFFFFFFFFFFFFFFFFFFF AND DUP2 JUMP JUMPDEST PUSH1 0x2 DUP2 DUP2 SLOAD DUP2 LT PUSH2 0x18B JUMPI PUSH0 DUP1 REVERT JUMPDEST SWAP1 PUSH0 MSTORE PUSH1 0x20 PUSH0 KECCAK256 ADD PUSH0 SWAP2 POP SWAP1 POP DUP1 SLOAD PUSH2 0x1A3 SWAP1 PUSH2 0x3C1 JUMP JUMPDEST DUP1 PUSH1 0x1F ADD PUSH1 0x20 DUP1 SWAP2 DIV MUL PUSH1 0x20 ADD PUSH1 0x40 MLOAD SWAP1 DUP2 ADD PUSH1 0x40 MSTORE DUP1 SWAP3 SWAP2 SWAP1 DUP2 DUP2 MSTORE PUSH1 0x20 ADD DUP3 DUP1 SLOAD PUSH2 0x1CF SWAP1 PUSH2 0x3C1 JUMP JUMPDEST DUP1 ISZERO PUSH2 0x21A JUMPI DUP1 PUSH1 0x1F LT PUSH2 0x1F1 JUMPI PUSH2 0x100 DUP1 DUP4 SLOAD DIV MUL DUP4 MSTORE SWAP2 PUSH1 0x20 ADD SWAP2 PUSH2 0x21A JUMP JUMPDEST DUP3 ADD SWAP2 SWAP1 PUSH0 MSTORE PUSH1 0x20 PUSH0 KECCAK256 SWAP1 JUMPDEST DUP2 SLOAD DUP2 MSTORE SWAP1 PUSH1 0x1 ADD SWAP1 PUSH1 0x20 ADD DUP1 DUP4 GT PUSH2 0x1FD JUMPI DUP3 SWAP1 SUB PUSH1 0x1F AND DUP3 ADD SWAP2 JUMPDEST POP POP POP POP POP DUP2 JUMP JUMPDEST PUSH0 PUSH0 REVERT JUMPDEST PUSH0 DUP2 SWAP1 POP SWAP2 SWAP1 POP JUMP JUMPDEST PUSH2 0x238 DUP2 PUSH2 0x226 JUMP JUMPDEST DUP2 EQ PUSH2 0x242 JUMPI PUSH0 PUSH0 REVERT JUMPDEST POP JUMP JUMPDEST PUSH0 DUP2 CALLDATALOAD SWAP1 POP PUSH2 0x253 DUP2 PUSH2 0x22F JUMP JUMPDEST SWAP3 SWAP2 POP POP JUMP JUMPDEST PUSH0 PUSH1 0x20 DUP3 DUP5 SUB SLT ISZERO PUSH2 0x26E JUMPI PUSH2 0x26D PUSH2 0x222 JUMP JUMPDEST JUMPDEST PUSH0 PUSH2 0x27B DUP5 DUP3 DUP6 ADD PUSH2 0x245 JUMP JUMPDEST SWAP2 POP POP SWAP3 SWAP2 POP POP JUMP JUMPDEST PUSH2 0x28D DUP2 PUSH2 0x226 JUMP JUMPDEST DUP3 MSTORE POP POP JUMP JUMPDEST PUSH0 PUSH1 0x20 DUP3 ADD SWAP1 POP PUSH2 0x2A6 PUSH0 DUP4 ADD DUP5 PUSH2 0x284 JUMP JUMPDEST SWAP3 SWAP2 POP POP JUMP JUMPDEST PUSH0 PUSH20 0xFFFFFFFFFFFFFFFFFFFFFFFFFFFFFFFFFFFFFFFF DUP3 AND SWAP1 POP SWAP2 SWAP1 POP JUMP JUMPDEST PUSH0 PUSH2 0x2D5 DUP3 PUSH2 0x2AC JUMP JUMPDEST SWAP1 POP SWAP2 SWAP1 POP JUMP JUMPDEST PUSH2 0x2E5 DUP2 PUSH2 0x2CB JUMP JUMPDEST DUP3 MSTORE POP POP JUMP JUMPDEST PUSH0 PUSH1 0x20 DUP3 ADD SWAP1 POP PUSH2 0x2FE PUSH0 DUP4 ADD DUP5 PUSH2 0x2DC JUMP JUMPDEST SWAP3 SWAP2 POP POP JUMP JUMPDEST PUSH0 DUP2 MLOAD SWAP1 POP SWAP2 SWAP1 POP JUMP JUMPDEST PUSH0 DUP3 DUP3 MSTORE PUSH1 0x20 DUP3 ADD SWAP1 POP SWAP3 SWAP2 POP POP JUMP JUMPDEST DUP3 DUP2 DUP4 MCOPY PUSH0 DUP4 DUP4 ADD MSTORE POP POP POP JUMP JUMPDEST PUSH0 PUSH1 0x1F NOT PUSH1 0x1F DUP4 ADD AND SWAP1 POP SWAP2 SWAP1 POP JUMP JUMPDEST PUSH0 PUSH2 0x346 DUP3 PUSH2 0x304 JUMP JUMPDEST PUSH2 0x350 DUP2 DUP6 PUSH2 0x30E JUMP JUMPDEST SWAP4 POP PUSH2 0x360 DUP2 DUP6 PUSH1 0x20 DUP7 ADD PUSH2 0x31E JUMP JUMPDEST PUSH2 0x369 DUP2 PUSH2 0x32C JUMP JUMPDEST DUP5 ADD SWAP2 POP POP SWAP3 SWAP2 POP POP JUMP JUMPDEST PUSH0 PUSH1 0x20 DUP3 ADD SWAP1 POP DUP2 DUP2 SUB PUSH0 DUP4 ADD MSTORE PUSH2 0x38C DUP2 DUP5 PUSH2 0x33C JUMP JUMPDEST SWAP1 POP SWAP3 SWAP2 POP POP JUMP JUMPDEST PUSH32 0x4E487B7100000000000000000000000000000000000000000000000000000000 PUSH0 MSTORE PUSH1 0x22 PUSH1 0x4 MSTORE PUSH1 0x24 PUSH0 REVERT JUMPDEST PUSH0 PUSH1 0x2 DUP3 DIV SWAP1 POP PUSH1 0x1 DUP3 AND DUP1 PUSH2 0x3D8 JUMPI PUSH1 0x7F DUP3 AND SWAP2 POP JUMPDEST PUSH1 0x20 DUP3 LT DUP2 SUB PUSH2 0x3EB JUMPI PUSH2 0x3EA PUSH2 0x394 JUMP JUMPDEST JUMPDEST POP SWAP2 SWAP1 POP JUMP INVALID LOG2 PUSH5 0x6970667358 0x22 SLT KECCAK256 0xA9 CALLVALUE CREATE2 SWAP2 SIGNEXTEND CODECOPY 0xB1 MSTORE 0x27 ORIGIN 0xDC EXTCALL SWAP13 SWAP1 PUSH21 0x55C90675956B6D3EFB3539036D2E5EEADD64736F6C PUSH4 0x4300081E STOP CALLER "
				},
				"gasEstimates": {
					"creation": {
						"codeDepositCost": "212600",
						"executionCost": "255",
						"totalCost": "212855"
					},
					"external": {
						"addScore(uint256)": "46798",
						"names(uint256)": "infinite",
						"participants(uint256)": "4966",
						"scores(uint256)": "infinite"
					}
				},
				"methodIdentifiers": {
					"addScore(uint256)": "10b2afce",
					"names(uint256)": "4622ab03",
					"participants(uint256)": "35c1d349",
					"scores(uint256)": "2ee691a3"
				}
			},
			"storageLayout": {
				"storage": [
					{
						"astId": 108,
						"contract": "contract/3rdClass.sol:dynamicArray",
						"label": "scores",
						"offset": 0,
						"slot": "0",
						"type": "t_array(t_uint256)dyn_storage"
					},
					{
						"astId": 111,
						"contract": "contract/3rdClass.sol:dynamicArray",
						"label": "participants",
						"offset": 0,
						"slot": "1",
						"type": "t_array(t_address)dyn_storage"
					},
					{
						"astId": 114,
						"contract": "contract/3rdClass.sol:dynamicArray",
						"label": "names",
						"offset": 0,
						"slot": "2",
						"type": "t_array(t_string_storage)dyn_storage"
					}
				],
				"types": {
					"t_address": {
						"encoding": "inplace",
						"label": "address",
						"numberOfBytes": "20"
					},
					"t_array(t_address)dyn_storage": {
						"base": "t_address",
						"encoding": "dynamic_array",
						"label": "address[]",
						"numberOfBytes": "32"
					},
					"t_array(t_string_storage)dyn_storage": {
						"base": "t_string_storage",
						"encoding": "dynamic_array",
						"label": "string[]",
						"numberOfBytes": "32"
					},
					"t_array(t_uint256)dyn_storage": {
						"base": "t_uint256",
						"encoding": "dynamic_array",
						"label": "uint256[]",
						"numberOfBytes": "32"
					},
					"t_string_storage": {
						"encoding": "bytes",
						"label": "string",
						"numberOfBytes": "32"
					},
					"t_uint256": {
						"encoding": "inplace",
						"label": "uint256",
						"numberOfBytes": "32"
					}
				}
			},
			"userdoc": {
				"kind": "user",
				"methods": {},
				"version": 1
			}
		}
	}
}