{
	"contract/3rdClass.sol": {
		"variableDemo": {
			"abi": [
				{
					"inputs": [],
					"stateMutability": "nonpayable",
					"type": "constructor"
				},
				{
					"inputs": [
						{
							"internalType": "uint256",
							"name": "input",
							"type": "uint256"
						}
					],
					"name": "fun",
					"outputs": [
						{
							"internalType": "uint256",
							"name": "",
							"type": "uint256"
						}
					],
					"stateMutability": "pure",
					"type": "function"
				},
				{
					"inputs": [],
					"name": "totalSupply",
					"outputs": [
						{
							"internalType": "uint256",
							"name": "",
							"type": "uint256"
						}
					],
					"stateMutability": "view",
					"type": "function"
				}
			],
			"devdoc": {
				"kind": "dev",
				"methods": {},
				"version": 1
			},
			"evm": {
				"assembly": "    /* \"contract/3rdClass.sol\":63:610  contract variableDemo {... */\n  mstore(0x40, 0x80)\n    /* \"contract/3rdClass.sol\":207:277  constructor(){... */\n  callvalue\n  dup1\n  iszero\n  tag_1\n  jumpi\n  revert(0x00, 0x00)\ntag_1:\n  pop\n    /* \"contract/3rdClass.sol\":235:245  msg.sender */\n  caller\n    /* \"contract/3rdClass.sol\":227:232  owner */\n  0x01\n  0x00\n    /* \"contract/3rdClass.sol\":227:245  owner = msg.sender */\n  0x0100\n  exp\n  dup2\n  sload\n  dup2\n  0xffffffffffffffffffffffffffffffffffffffff\n  mul\n  not\n  and\n  swap1\n  dup4\n  0xffffffffffffffffffffffffffffffffffffffff\n  and\n  mul\n  or\n  swap1\n  sstore\n  pop\n    /* \"contract/3rdClass.sol\":266:273  1000000 */\n  0x0f4240\n    /* \"contract/3rdClass.sol\":252:263  totalSupply */\n  0x00\n    /* \"contract/3rdClass.sol\":252:273  totalSupply = 1000000 */\n  dup2\n  swap1\n  sstore\n  pop\n    /* \"contract/3rdClass.sol\":63:610  contract variableDemo {... */\n  dataSize(sub_0)\n  dup1\n  dataOffset(sub_0)\n  0x00\n  codecopy\n  0x00\n  return\nstop\n\nsub_0: assembly {\n        /* \"contract/3rdClass.sol\":63:610  contract variableDemo {... */\n      mstore(0x40, 0x80)\n      callvalue\n      dup1\n      iszero\n      tag_1\n      jumpi\n      revert(0x00, 0x00)\n    tag_1:\n      pop\n      jumpi(tag_2, lt(calldatasize, 0x04))\n      shr(0xe0, calldataload(0x00))\n      dup1\n      0x18160ddd\n      eq\n      tag_3\n      jumpi\n      dup1\n      0x7a9839c2\n      eq\n      tag_4\n      jumpi\n    tag_2:\n      revert(0x00, 0x00)\n        /* \"contract/3rdClass.sol\":92:118  uint256 public totalSupply */\n    tag_3:\n      tag_5\n      tag_6\n      jump\t// in\n    tag_5:\n      mload(0x40)\n      tag_7\n      swap2\n      swap1\n      tag_8\n      jump\t// in\n    tag_7:\n      mload(0x40)\n      dup1\n      swap2\n      sub\n      swap1\n      return\n        /* \"contract/3rdClass.sol\":285:605  function fun(uint256 input) public pure returns(uint256){... */\n    tag_4:\n      tag_9\n      0x04\n      dup1\n      calldatasize\n      sub\n      dup2\n      add\n      swap1\n      tag_10\n      swap2\n      swap1\n      tag_11\n      jump\t// in\n    tag_10:\n      tag_12\n      jump\t// in\n    tag_9:\n      mload(0x40)\n      tag_13\n      swap2\n      swap1\n      tag_8\n      jump\t// in\n    tag_13:\n      mload(0x40)\n      dup1\n      swap2\n      sub\n      swap1\n      return\n        /* \"contract/3rdClass.sol\":92:118  uint256 public totalSupply */\n    tag_6:\n      sload(0x00)\n      dup2\n      jump\t// out\n        /* \"contract/3rdClass.sol\":285:605  function fun(uint256 input) public pure returns(uint256){... */\n    tag_12:\n        /* \"contract/3rdClass.sol\":333:340  uint256 */\n      0x00\n        /* \"contract/3rdClass.sol\":352:370  uint256 multiplier */\n      0x00\n        /* \"contract/3rdClass.sol\":373:374  5 */\n      0x05\n        /* \"contract/3rdClass.sol\":352:374  uint256 multiplier = 5 */\n      swap1\n      pop\n        /* \"contract/3rdClass.sol\":385:399  uint256 result */\n      0x00\n        /* \"contract/3rdClass.sol\":410:420  multiplier */\n      dup2\n        /* \"contract/3rdClass.sol\":402:407  input */\n      dup5\n        /* \"contract/3rdClass.sol\":402:420  input * multiplier */\n      tag_15\n      swap2\n      swap1\n      tag_16\n      jump\t// in\n    tag_15:\n        /* \"contract/3rdClass.sol\":385:420  uint256 result = input * multiplier */\n      swap1\n      pop\n        /* \"contract/3rdClass.sol\":431:444  uint256 bonus */\n      0x00\n        /* \"contract/3rdClass.sol\":447:450  100 */\n      0x64\n        /* \"contract/3rdClass.sol\":431:450  uint256 bonus = 100 */\n      swap1\n      pop\n        /* \"contract/3rdClass.sol\":475:479  1000 */\n      0x03e8\n        /* \"contract/3rdClass.sol\":466:472  result */\n      dup3\n        /* \"contract/3rdClass.sol\":466:479  result > 1000 */\n      gt\n        /* \"contract/3rdClass.sol\":463:564  if(result > 1000){... */\n      iszero\n      tag_17\n      jumpi\n        /* \"contract/3rdClass.sol\":495:513  uint256 extraBonus */\n      0x00\n        /* \"contract/3rdClass.sol\":516:518  50 */\n      0x32\n        /* \"contract/3rdClass.sol\":495:518  uint256 extraBonus = 50 */\n      swap1\n      pop\n        /* \"contract/3rdClass.sol\":542:552  extraBonus */\n      dup1\n        /* \"contract/3rdClass.sol\":533:552  bonus += extraBonus */\n      dup3\n      tag_18\n      swap2\n      swap1\n      tag_19\n      jump\t// in\n    tag_18:\n      swap2\n      pop\n        /* \"contract/3rdClass.sol\":480:564  {... */\n      pop\n        /* \"contract/3rdClass.sol\":463:564  if(result > 1000){... */\n    tag_17:\n        /* \"contract/3rdClass.sol\":592:597  bonus */\n      dup1\n        /* \"contract/3rdClass.sol\":583:589  result */\n      dup3\n        /* \"contract/3rdClass.sol\":583:597  result + bonus */\n      tag_20\n      swap2\n      swap1\n      tag_19\n      jump\t// in\n    tag_20:\n        /* \"contract/3rdClass.sol\":576:597  return result + bonus */\n      swap4\n      pop\n      pop\n      pop\n      pop\n        /* \"contract/3rdClass.sol\":285:605  function fun(uint256 input) public pure returns(uint256){... */\n      swap2\n      swap1\n      pop\n      jump\t// out\n        /* \"#utility.yul\":7:84   */\n    tag_21:\n        /* \"#utility.yul\":44:51   */\n      0x00\n        /* \"#utility.yul\":73:78   */\n      dup2\n        /* \"#utility.yul\":62:78   */\n      swap1\n      pop\n        /* \"#utility.yul\":7:84   */\n      swap2\n      swap1\n      pop\n      jump\t// out\n        /* \"#utility.yul\":90:208   */\n    tag_22:\n        /* \"#utility.yul\":177:201   */\n      tag_32\n        /* \"#utility.yul\":195:200   */\n      dup2\n        /* \"#utility.yul\":177:201   */\n      tag_21\n      jump\t// in\n    tag_32:\n        /* \"#utility.yul\":172:175   */\n      dup3\n        /* \"#utility.yul\":165:202   */\n      mstore\n        /* \"#utility.yul\":90:208   */\n      pop\n      pop\n      jump\t// out\n        /* \"#utility.yul\":214:436   */\n    tag_8:\n        /* \"#utility.yul\":307:311   */\n      0x00\n        /* \"#utility.yul\":345:347   */\n      0x20\n        /* \"#utility.yul\":334:343   */\n      dup3\n        /* \"#utility.yul\":330:348   */\n      add\n        /* \"#utility.yul\":322:348   */\n      swap1\n      pop\n        /* \"#utility.yul\":358:429   */\n      tag_34\n        /* \"#utility.yul\":426:427   */\n      0x00\n        /* \"#utility.yul\":415:424   */\n      dup4\n        /* \"#utility.yul\":411:428   */\n      add\n        /* \"#utility.yul\":402:408   */\n      dup5\n        /* \"#utility.yul\":358:429   */\n      tag_22\n      jump\t// in\n    tag_34:\n        /* \"#utility.yul\":214:436   */\n      swap3\n      swap2\n      pop\n      pop\n      jump\t// out\n        /* \"#utility.yul\":523:640   */\n    tag_24:\n        /* \"#utility.yul\":632:633   */\n      0x00\n        /* \"#utility.yul\":629:630   */\n      0x00\n        /* \"#utility.yul\":622:634   */\n      revert\n        /* \"#utility.yul\":769:891   */\n    tag_26:\n        /* \"#utility.yul\":842:866   */\n      tag_39\n        /* \"#utility.yul\":860:865   */\n      dup2\n        /* \"#utility.yul\":842:866   */\n      tag_21\n      jump\t// in\n    tag_39:\n        /* \"#utility.yul\":835:840   */\n      dup2\n        /* \"#utility.yul\":832:867   */\n      eq\n        /* \"#utility.yul\":822:885   */\n      tag_40\n      jumpi\n        /* \"#utility.yul\":881:882   */\n      0x00\n        /* \"#utility.yul\":878:879   */\n      0x00\n        /* \"#utility.yul\":871:883   */\n      revert\n        /* \"#utility.yul\":822:885   */\n    tag_40:\n        /* \"#utility.yul\":769:891   */\n      pop\n      jump\t// out\n        /* \"#utility.yul\":897:1036   */\n    tag_27:\n        /* \"#utility.yul\":943:948   */\n      0x00\n        /* \"#utility.yul\":981:987   */\n      dup2\n        /* \"#utility.yul\":968:988   */\n      calldataload\n        /* \"#utility.yul\":959:988   */\n      swap1\n      pop\n        /* \"#utility.yul\":997:1030   */\n      tag_42\n        /* \"#utility.yul\":1024:1029   */\n      dup2\n        /* \"#utility.yul\":997:1030   */\n      tag_26\n      jump\t// in\n    tag_42:\n        /* \"#utility.yul\":897:1036   */\n      swap3\n      swap2\n      pop\n      pop\n      jump\t// out\n        /* \"#utility.yul\":1042:1371   */\n    tag_11:\n        /* \"#utility.yul\":1101:1107   */\n      0x00\n        /* \"#utility.yul\":1150:1152   */\n      0x20\n        /* \"#utility.yul\":1138:1147   */\n      dup3\n        /* \"#utility.yul\":1129:1136   */\n      dup5\n        /* \"#utility.yul\":1125:1148   */\n      sub\n        /* \"#utility.yul\":1121:1153   */\n      slt\n        /* \"#utility.yul\":1118:1237   */\n      iszero\n      tag_44\n      jumpi\n        /* \"#utility.yul\":1156:1235   */\n      tag_45\n      tag_24\n      jump\t// in\n    tag_45:\n        /* \"#utility.yul\":1118:1237   */\n    tag_44:\n        /* \"#utility.yul\":1276:1277   */\n      0x00\n        /* \"#utility.yul\":1301:1354   */\n      tag_46\n        /* \"#utility.yul\":1346:1353   */\n      dup5\n        /* \"#utility.yul\":1337:1343   */\n      dup3\n        /* \"#utility.yul\":1326:1335   */\n      dup6\n        /* \"#utility.yul\":1322:1344   */\n      add\n        /* \"#utility.yul\":1301:1354   */\n      tag_27\n      jump\t// in\n    tag_46:\n        /* \"#utility.yul\":1291:1354   */\n      swap2\n      pop\n        /* \"#utility.yul\":1247:1364   */\n      pop\n        /* \"#utility.yul\":1042:1371   */\n      swap3\n      swap2\n      pop\n      pop\n      jump\t// out\n        /* \"#utility.yul\":1377:1557   */\n    tag_28:\n        /* \"#utility.yul\":1425:1502   */\n      0x4e487b7100000000000000000000000000000000000000000000000000000000\n        /* \"#utility.yul\":1422:1423   */\n      0x00\n        /* \"#utility.yul\":1415:1503   */\n      mstore\n        /* \"#utility.yul\":1522:1526   */\n      0x11\n        /* \"#utility.yul\":1519:1520   */\n      0x04\n        /* \"#utility.yul\":1512:1527   */\n      mstore\n        /* \"#utility.yul\":1546:1550   */\n      0x24\n        /* \"#utility.yul\":1543:1544   */\n      0x00\n        /* \"#utility.yul\":1536:1551   */\n      revert\n        /* \"#utility.yul\":1563:1973   */\n    tag_16:\n        /* \"#utility.yul\":1603:1610   */\n      0x00\n        /* \"#utility.yul\":1626:1646   */\n      tag_49\n        /* \"#utility.yul\":1644:1645   */\n      dup3\n        /* \"#utility.yul\":1626:1646   */\n      tag_21\n      jump\t// in\n    tag_49:\n        /* \"#utility.yul\":1621:1646   */\n      swap2\n      pop\n        /* \"#utility.yul\":1660:1680   */\n      tag_50\n        /* \"#utility.yul\":1678:1679   */\n      dup4\n        /* \"#utility.yul\":1660:1680   */\n      tag_21\n      jump\t// in\n    tag_50:\n        /* \"#utility.yul\":1655:1680   */\n      swap3\n      pop\n        /* \"#utility.yul\":1715:1716   */\n      dup3\n        /* \"#utility.yul\":1712:1713   */\n      dup3\n        /* \"#utility.yul\":1708:1717   */\n      mul\n        /* \"#utility.yul\":1737:1767   */\n      tag_51\n        /* \"#utility.yul\":1755:1766   */\n      dup2\n        /* \"#utility.yul\":1737:1767   */\n      tag_21\n      jump\t// in\n    tag_51:\n        /* \"#utility.yul\":1726:1767   */\n      swap2\n      pop\n        /* \"#utility.yul\":1916:1917   */\n      dup3\n        /* \"#utility.yul\":1907:1914   */\n      dup3\n        /* \"#utility.yul\":1903:1918   */\n      div\n        /* \"#utility.yul\":1900:1901   */\n      dup5\n        /* \"#utility.yul\":1897:1919   */\n      eq\n        /* \"#utility.yul\":1877:1878   */\n      dup4\n        /* \"#utility.yul\":1870:1879   */\n      iszero\n        /* \"#utility.yul\":1850:1933   */\n      or\n        /* \"#utility.yul\":1827:1966   */\n      tag_52\n      jumpi\n        /* \"#utility.yul\":1946:1964   */\n      tag_53\n      tag_28\n      jump\t// in\n    tag_53:\n        /* \"#utility.yul\":1827:1966   */\n    tag_52:\n        /* \"#utility.yul\":1611:1973   */\n      pop\n        /* \"#utility.yul\":1563:1973   */\n      swap3\n      swap2\n      pop\n      pop\n      jump\t// out\n        /* \"#utility.yul\":1979:2170   */\n    tag_19:\n        /* \"#utility.yul\":2019:2022   */\n      0x00\n        /* \"#utility.yul\":2038:2058   */\n      tag_55\n        /* \"#utility.yul\":2056:2057   */\n      dup3\n        /* \"#utility.yul\":2038:2058   */\n      tag_21\n      jump\t// in\n    tag_55:\n        /* \"#utility.yul\":2033:2058   */\n      swap2\n      pop\n        /* \"#utility.yul\":2072:2092   */\n      tag_56\n        /* \"#utility.yul\":2090:2091   */\n      dup4\n        /* \"#utility.yul\":2072:2092   */\n      tag_21\n      jump\t// in\n    tag_56:\n        /* \"#utility.yul\":2067:2092   */\n      swap3\n      pop\n        /* \"#utility.yul\":2115:2116   */\n      dup3\n        /* \"#utility.yul\":2112:2113   */\n      dup3\n        /* \"#utility.yul\":2108:2117   */\n      add\n        /* \"#utility.yul\":2101:2117   */\n      swap1\n      pop\n        /* \"#utility.yul\":2136:2139   */\n      dup1\n        /* \"#utility.yul\":2133:2134   */\n      dup3\n        /* \"#utility.yul\":2130:2140   */\n      gt\n        /* \"#utility.yul\":2127:2163   */\n      iszero\n      tag_57\n      jumpi\n        /* \"#utility.yul\":2143:2161   */\n      tag_58\n      tag_28\n      jump\t// in\n    tag_58:\n        /* \"#utility.yul\":2127:2163   */\n    tag_57:\n        /* \"#utility.yul\":1979:2170   */\n      swap3\n      swap2\n      pop\n      pop\n      jump\t// out\n\n    auxdata: 0xa2646970667358221220722462aaa8e4eacdcf43f22fb707a0335d8621f94de69069d5ad4f4a4b697cb764736f6c634300081e0033\n}\n",
				"bytecode": {
					"linkReferences": {},
					"object": "6080604052348015600e575f5ffd5b503360015f6101000a81548173ffffffffffffffffffffffffffffffffffffffff021916908373ffffffffffffffffffffffffffffffffffffffff160217905550620f42405f8190555061023b806100655f395ff3fe608060405234801561000f575f5ffd5b5060043610610034575f3560e01c806318160ddd146100385780637a9839c214610056575b5f5ffd5b610040610086565b60405161004d91906100f2565b60405180910390f35b610070600480360381019061006b9190610139565b61008b565b60405161007d91906100f2565b60405180910390f35b5f5481565b5f5f600590505f818461009e9190610191565b90505f606490506103e88211156100c4575f6032905080826100c091906101d2565b9150505b80826100d091906101d2565b9350505050919050565b5f819050919050565b6100ec816100da565b82525050565b5f6020820190506101055f8301846100e3565b92915050565b5f5ffd5b610118816100da565b8114610122575f5ffd5b50565b5f813590506101338161010f565b92915050565b5f6020828403121561014e5761014d61010b565b5b5f61015b84828501610125565b91505092915050565b7f4e487b71000000000000000000000000000000000000000000000000000000005f52601160045260245ffd5b5f61019b826100da565b91506101a6836100da565b92508282026101b4816100da565b915082820484148315176101cb576101ca610164565b5b5092915050565b5f6101dc826100da565b91506101e7836100da565b92508282019050808211156101ff576101fe610164565b5b9291505056fea2646970667358221220722462aaa8e4eacdcf43f22fb707a0335d8621f94de69069d5ad4f4a4b697cb764736f6c634300081e0033",
					"opcodes": "PUSH1 0x80 PUSH1 0x40 MSTORE CALLVALUE DUP1 ISZERO PUSH1 0xE JUMPI PUSH0 PUSH0 REVERT JUMPDEST POP CALLER PUSH1 0x1 PUSH0 PUSH2 0x100 EXP DUP2 SLOAD DUP2 PUSH20 0xFFFFFFFFFFFFFFFFFFFFFFFFFFFFFFFFFFFFFFFF MUL NOT AND SWAP1 DUP4 PUSH20 0xFFFFFFFFFFFFFFFFFFFFFFFFFFFFFFFFFFFFFFFF AND MUL OR SWAP1 SSTORE POP PUSH3 0xF4240 PUSH0 DUP2 SWAP1 SSTORE POP PUSH2 0x23B DUP1 PUSH2 0x65 PUSH0 CODECOPY PUSH0 RETURN INVALID PUSH1 0x80 PUSH1 0x40 MSTORE CALLVALUE DUP1 ISZERO PUSH2 0xF JUMPI PUSH0 PUSH0 REVERT JUMPDEST POP PUSH1 0x4 CALLDATASIZE LT PUSH2 0x34 JUMPI PUSH0 CALLDATALOAD PUSH1 0xE0 SHR DUP1 PUSH4 0x18160DDD EQ PUSH2 0x38 JUMPI DUP1 PUSH4 0x7A9839C2 EQ PUSH2 0x56 JUMPI JUMPDEST PUSH0 PUSH0 REVERT JUMPDEST PUSH2 0x40 PUSH2 0x86 JUMP JUMPDEST PUSH1 0x40 MLOAD PUSH2 0x4D SWAP2 SWAP1 PUSH2 0xF2 JUMP JUMPDEST PUSH1 0x40 MLOAD DUP1 SWAP2 SUB SWAP1 RETURN JUMPDEST PUSH2 0x70 PUSH1 0x4 DUP1 CALLDATASIZE SUB DUP2 ADD SWAP1 PUSH2 0x6B SWAP2 SWAP1 PUSH2 0x139 JUMP JUMPDEST PUSH2 0x8B JUMP JUMPDEST PUSH1 0x40 MLOAD PUSH2 0x7D SWAP2 SWAP1 PUSH2 0xF2 JUMP JUMPDEST PUSH1 0x40 MLOAD DUP1 SWAP2 SUB SWAP1 RETURN JUMPDEST PUSH0 SLOAD DUP2 JUMP JUMPDEST PUSH0 PUSH0 PUSH1 0x5 SWAP1 POP PUSH0 DUP2 DUP5 PUSH2 0x9E SWAP2 SWAP1 PUSH2 0x191 JUMP JUMPDEST SWAP1 POP PUSH0 PUSH1 0x64 SWAP1 POP PUSH2 0x3E8 DUP3 GT ISZERO PUSH2 0xC4 JUMPI PUSH0 PUSH1 0x32 SWAP1 POP DUP1 DUP3 PUSH2 0xC0 SWAP2 SWAP1 PUSH2 0x1D2 JUMP JUMPDEST SWAP2 POP POP JUMPDEST DUP1 DUP3 PUSH2 0xD0 SWAP2 SWAP1 PUSH2 0x1D2 JUMP JUMPDEST SWAP4 POP POP POP POP SWAP2 SWAP1 POP JUMP JUMPDEST PUSH0 DUP2 SWAP1 POP SWAP2 SWAP1 POP JUMP JUMPDEST PUSH2 0xEC DUP2 PUSH2 0xDA JUMP JUMPDEST DUP3 MSTORE POP POP JUMP JUMPDEST PUSH0 PUSH1 0x20 DUP3 ADD SWAP1 POP PUSH2 0x105 PUSH0 DUP4 ADD DUP5 PUSH2 0xE3 JUMP JUMPDEST SWAP3 SWAP2 POP POP JUMP JUMPDEST PUSH0 PUSH0 REVERT JUMPDEST PUSH2 0x118 DUP2 PUSH2 0xDA JUMP JUMPDEST DUP2 EQ PUSH2 0x122 JUMPI PUSH0 PUSH0 REVERT JUMPDEST POP JUMP JUMPDEST PUSH0 DUP2 CALLDATALOAD SWAP1 POP PUSH2 0x133 DUP2 PUSH2 0x10F JUMP JUMPDEST SWAP3 SWAP2 POP POP JUMP JUMPDEST PUSH0 PUSH1 0x20 DUP3 DUP5 SUB SLT ISZERO PUSH2 0x14E JUMPI PUSH2 0x14D PUSH2 0x10B JUMP JUMPDEST JUMPDEST PUSH0 PUSH2 0x15B DUP5 DUP3 DUP6 ADD PUSH2 0x125 JUMP JUMPDEST SWAP2 POP POP SWAP3 SWAP2 POP POP JUMP JUMPDEST PUSH32 0x4E487B7100000000000000000000000000000000000000000000000000000000 PUSH0 MSTORE PUSH1 0x11 PUSH1 0x4 MSTORE PUSH1 0x24 PUSH0 REVERT JUMPDEST PUSH0 PUSH2 0x19B DUP3 PUSH2 0xDA JUMP JUMPDEST SWAP2 POP PUSH2 0x1A6 DUP4 PUSH2 0xDA JUMP JUMPDEST SWAP3 POP DUP3 DUP3 MUL PUSH2 0x1B4 DUP2 PUSH2 0xDA JUMP JUMPDEST SWAP2 POP DUP3 DUP3 DIV DUP5 EQ DUP4 ISZERO OR PUSH2 0x1CB JUMPI PUSH2 0x1CA PUSH2 0x164 JUMP JUMPDEST JUMPDEST POP SWAP3 SWAP2 POP POP JUMP JUMPDEST PUSH0 PUSH2 0x1DC DUP3 PUSH2 0xDA JUMP JUMPDEST SWAP2 POP PUSH2 0x1E7 DUP4 PUSH2 0xDA JUMP JUMPDEST SWAP3 POP DUP3 DUP3 ADD SWAP1 POP DUP1 DUP3 GT ISZERO PUSH2 0x1FF JUMPI PUSH2 0x1FE PUSH2 0x164 JUMP JUMPDEST JUMPDEST SWAP3 SWAP2 POP POP JUMP INVALID LOG2 PUSH5 0x6970667358 0x22 SLT KECCAK256 PUSH19 0x2462AAA8E4EACDCF43F22FB707A0335D8621F9 0x4D DUPN 0x90 PUSH10 0xD5AD4F4A4B697CB76473 PUSH16 0x6C634300081E00330000000000000000 "
				},
				"gasEstimates": {
					"creation": {
						"codeDepositCost": "114200",
						"executionCost": "46535",
						"totalCost": "160735"
					},
					"external": {
						"fun(uint256)": "infinite",
						"totalSupply()": "2402"
					}
				},
				"methodIdentifiers": {
					"fun(uint256)": "7a9839c2",
					"totalSupply()": "18160ddd"
				}
			},
			"storageLayout": {
				"storage": [
					{
						"astId": 3,
						"contract": "contract/3rdClass.sol:variableDemo",
						"label": "totalSupply",
						"offset": 0,
						"slot": "0",
						"type": "t_uint256"
					},
					{
						"astId": 5,
						"contract": "contract/3rdClass.sol:variableDemo",
						"label": "owner",
						"offset": 0,
						"slot": "1",
						"type": "t_address"
					},
					{
						"astId": 9,
						"contract": "contract/3rdClass.sol:variableDemo",
						"label": "balances",
						"offset": 0,
						"slot": "2",
						"type": "t_mapping(t_address,t_uint256)"
					}
				],
				"types": {
					"t_address": {
						"encoding": "inplace",
						"label": "address",
						"numberOfBytes": "20"
					},
					"t_mapping(t_address,t_uint256)": {
						"encoding": "mapping",
						"key": "t_address",
						"label": "mapping(address => uint256)",
						"numberOfBytes": "32",
						"value": "t_uint256"
					},
					"t_uint256": {
						"encoding": "inplace",
						"label": "uint256",
						"numberOfBytes": "32"
					}
				}
			},
			"userdoc": {
				"kind": "user",
				"methods": {},
				"version": 1
			}
		}
	}
}