{
	"contract/quiz.sol": {
		"QuizContract": {
			"abi": [
				{
					"inputs": [
						{
							"internalType": "address",
							"name": "",
							"type": "address"
						}
					],
					"name": "answers",
					"outputs": [
						{
							"internalType": "uint256",
							"name": "",
							"type": "uint256"
						}
					],
					"stateMutability": "view",
					"type": "function"
				},
				{
					"inputs": [
						{
							"internalType": "address",
							"name": "_player",
							"type": "address"
						}
					],
					"name": "checkAnswer",
					"outputs": [
						{
							"internalType": "bool",
							"name": "",
							"type": "bool"
						}
					],
					"stateMutability": "view",
					"type": "function"
				},
				{
					"inputs": [],
					"name": "correctAnswer",
					"outputs": [
						{
							"internalType": "uint256",
							"name": "",
							"type": "uint256"
						}
					],
					"stateMutability": "view",
					"type": "function"
				},
				{
					"inputs": [
						{
							"internalType": "address",
							"name": "",
							"type": "address"
						}
					],
					"name": "hasAnswered",
					"outputs": [
						{
							"internalType": "bool",
							"name": "",
							"type": "bool"
						}
					],
					"stateMutability": "view",
					"type": "function"
				},
				{
					"inputs": [
						{
							"internalType": "uint256",
							"name": "",
							"type": "uint256"
						}
					],
					"name": "options",
					"outputs": [
						{
							"internalType": "string",
							"name": "",
							"type": "string"
						}
					],
					"stateMutability": "view",
					"type": "function"
				},
				{
					"inputs": [],
					"name": "question",
					"outputs": [
						{
							"internalType": "string",
							"name": "",
							"type": "string"
						}
					],
					"stateMutability": "view",
					"type": "function"
				},
				{
					"inputs": [
						{
							"internalType": "uint256",
							"name": "_option",
							"type": "uint256"
						}
					],
					"name": "submitAnswer",
					"outputs": [],
					"stateMutability": "nonpayable",
					"type": "function"
				}
			],
			"devdoc": {
				"kind": "dev",
				"methods": {},
				"version": 1
			},
			"evm": {
				"assembly": "    /* \"contract/quiz.sol\":60:1415  contract QuizContract {... */\n  mstore(0x40, 0x80)\n    /* \"contract/quiz.sol\":123:184  string public question = \"What is the capital of Bangladesh?\" */\n  mload(0x40)\n  dup1\n  0x60\n  add\n  0x40\n  mstore\n  dup1\n  0x22\n  dup2\n  mstore\n  0x20\n  add\n  data_7c94560c067e7a4ce211bd0635ea5d2478c334f5eed955141edd8404fa27ceca\n  0x22\n  swap2\n  codecopy\n  0x00\n  swap1\n  dup2\n  tag_1\n  swap2\n  swap1\n  tag_2\n  jump\t// in\ntag_1:\n  pop\n    /* \"contract/quiz.sol\":191:261  string[4] public options = [\"Dhaka\", \"Chittagong\", \"Khulna\", \"Sylhet\"] */\n  mload(0x40)\n  dup1\n  0x80\n  add\n  0x40\n  mstore\n  dup1\n  mload(0x40)\n  dup1\n  0x40\n  add\n  0x40\n  mstore\n  dup1\n  0x05\n  dup2\n  mstore\n  0x20\n  add\n  0x4468616b61000000000000000000000000000000000000000000000000000000\n  dup2\n  mstore\n  pop\n  dup2\n  mstore\n  0x20\n  add\n  mload(0x40)\n  dup1\n  0x40\n  add\n  0x40\n  mstore\n  dup1\n  0x0a\n  dup2\n  mstore\n  0x20\n  add\n  0x436869747461676f6e6700000000000000000000000000000000000000000000\n  dup2\n  mstore\n  pop\n  dup2\n  mstore\n  0x20\n  add\n  mload(0x40)\n  dup1\n  0x40\n  add\n  0x40\n  mstore\n  dup1\n  0x06\n  dup2\n  mstore\n  0x20\n  add\n  0x4b68756c6e610000000000000000000000000000000000000000000000000000\n  dup2\n  mstore\n  pop\n  dup2\n  mstore\n  0x20\n  add\n  mload(0x40)\n  dup1\n  0x40\n  add\n  0x40\n  mstore\n  dup1\n  0x06\n  dup2\n  mstore\n  0x20\n  add\n  0x53796c6865740000000000000000000000000000000000000000000000000000\n  dup2\n  mstore\n  pop\n  dup2\n  mstore\n  pop\n  0x01\n  swap1\n  0x04\n  tag_3\n  swap3\n  swap2\n  swap1\n  tag_4\n  jump\t// in\ntag_3:\n  pop\n    /* \"contract/quiz.sol\":382:383  0 */\n  0x00\n    /* \"contract/quiz.sol\":354:383  uint public correctAnswer = 0 */\n  0x05\n  sstore\n    /* \"contract/quiz.sol\":60:1415  contract QuizContract {... */\n  callvalue\n  dup1\n  iszero\n  tag_5\n  jumpi\n  revert(0x00, 0x00)\ntag_5:\n  pop\n  jump(tag_6)\ntag_4:\n  dup3\n  0x04\n  dup2\n  add\n  swap3\n  dup3\n  iszero\n  tag_7\n  jumpi\n  swap2\n  0x20\n  mul\n  dup3\n  add\ntag_8:\n  dup3\n  dup2\n  gt\n  iszero\n  tag_9\n  jumpi\n  dup3\n  mload\n  dup3\n  swap1\n  dup2\n  tag_10\n  swap2\n  swap1\n  tag_2\n  jump\t// in\ntag_10:\n  pop\n  swap2\n  0x20\n  add\n  swap2\n  swap1\n  0x01\n  add\n  swap1\n  jump(tag_8)\ntag_9:\ntag_7:\n  pop\n  swap1\n  pop\n  tag_11\n  swap2\n  swap1\n  tag_12\n  jump\t// in\ntag_11:\n  pop\n  swap1\n  jump\t// out\ntag_12:\ntag_13:\n  dup1\n  dup3\n  gt\n  iszero\n  tag_14\n  jumpi\n  0x00\n  dup2\n  dup2\n  tag_15\n  swap2\n  swap1\n  tag_16\n  jump\t// in\ntag_15:\n  pop\n  0x01\n  add\n  jump(tag_13)\ntag_14:\n  pop\n  swap1\n  jump\t// out\ntag_16:\n  pop\n  dup1\n  sload\n  tag_17\n  swap1\n  tag_18\n  jump\t// in\ntag_17:\n  0x00\n  dup3\n  sstore\n  dup1\n  0x1f\n  lt\n  tag_20\n  jumpi\n  pop\n  jump(tag_19)\ntag_20:\n  0x1f\n  add\n  0x20\n  swap1\n  div\n  swap1\n  0x00\n  mstore\n  keccak256(0x00, 0x20)\n  swap1\n  dup2\n  add\n  swap1\n  tag_21\n  swap2\n  swap1\n  tag_22\n  jump\t// in\ntag_21:\ntag_19:\n  pop\n  jump\t// out\ntag_22:\ntag_23:\n  dup1\n  dup3\n  gt\n  iszero\n  tag_24\n  jumpi\n  0x00\n  dup2\n  0x00\n  swap1\n  sstore\n  pop\n  0x01\n  add\n  jump(tag_23)\ntag_24:\n  pop\n  swap1\n  jump\t// out\n    /* \"#utility.yul\":7:106   */\ntag_25:\n    /* \"#utility.yul\":59:65   */\n  0x00\n    /* \"#utility.yul\":93:98   */\n  dup2\n    /* \"#utility.yul\":87:99   */\n  mload\n    /* \"#utility.yul\":77:99   */\n  swap1\n  pop\n    /* \"#utility.yul\":7:106   */\n  swap2\n  swap1\n  pop\n  jump\t// out\n    /* \"#utility.yul\":112:292   */\ntag_26:\n    /* \"#utility.yul\":160:237   */\n  0x4e487b7100000000000000000000000000000000000000000000000000000000\n    /* \"#utility.yul\":157:158   */\n  0x00\n    /* \"#utility.yul\":150:238   */\n  mstore\n    /* \"#utility.yul\":257:261   */\n  0x41\n    /* \"#utility.yul\":254:255   */\n  0x04\n    /* \"#utility.yul\":247:262   */\n  mstore\n    /* \"#utility.yul\":281:285   */\n  0x24\n    /* \"#utility.yul\":278:279   */\n  0x00\n    /* \"#utility.yul\":271:286   */\n  revert\n    /* \"#utility.yul\":298:478   */\ntag_27:\n    /* \"#utility.yul\":346:423   */\n  0x4e487b7100000000000000000000000000000000000000000000000000000000\n    /* \"#utility.yul\":343:344   */\n  0x00\n    /* \"#utility.yul\":336:424   */\n  mstore\n    /* \"#utility.yul\":443:447   */\n  0x22\n    /* \"#utility.yul\":440:441   */\n  0x04\n    /* \"#utility.yul\":433:448   */\n  mstore\n    /* \"#utility.yul\":467:471   */\n  0x24\n    /* \"#utility.yul\":464:465   */\n  0x00\n    /* \"#utility.yul\":457:472   */\n  revert\n    /* \"#utility.yul\":484:804   */\ntag_18:\n    /* \"#utility.yul\":528:534   */\n  0x00\n    /* \"#utility.yul\":565:566   */\n  0x02\n    /* \"#utility.yul\":559:563   */\n  dup3\n    /* \"#utility.yul\":555:567   */\n  div\n    /* \"#utility.yul\":545:567   */\n  swap1\n  pop\n    /* \"#utility.yul\":612:613   */\n  0x01\n    /* \"#utility.yul\":606:610   */\n  dup3\n    /* \"#utility.yul\":602:614   */\n  and\n    /* \"#utility.yul\":633:651   */\n  dup1\n    /* \"#utility.yul\":623:704   */\n  tag_49\n  jumpi\n    /* \"#utility.yul\":689:693   */\n  0x7f\n    /* \"#utility.yul\":681:687   */\n  dup3\n    /* \"#utility.yul\":677:694   */\n  and\n    /* \"#utility.yul\":667:694   */\n  swap2\n  pop\n    /* \"#utility.yul\":623:704   */\ntag_49:\n    /* \"#utility.yul\":751:753   */\n  0x20\n    /* \"#utility.yul\":743:749   */\n  dup3\n    /* \"#utility.yul\":740:754   */\n  lt\n    /* \"#utility.yul\":720:738   */\n  dup2\n    /* \"#utility.yul\":717:755   */\n  sub\n    /* \"#utility.yul\":714:798   */\n  tag_50\n  jumpi\n    /* \"#utility.yul\":770:788   */\n  tag_51\n  tag_27\n  jump\t// in\ntag_51:\n    /* \"#utility.yul\":714:798   */\ntag_50:\n    /* \"#utility.yul\":535:804   */\n  pop\n    /* \"#utility.yul\":484:804   */\n  swap2\n  swap1\n  pop\n  jump\t// out\n    /* \"#utility.yul\":810:951   */\ntag_28:\n    /* \"#utility.yul\":859:863   */\n  0x00\n    /* \"#utility.yul\":882:885   */\n  dup2\n    /* \"#utility.yul\":874:885   */\n  swap1\n  pop\n    /* \"#utility.yul\":905:908   */\n  dup2\n    /* \"#utility.yul\":902:903   */\n  0x00\n    /* \"#utility.yul\":895:909   */\n  mstore\n    /* \"#utility.yul\":939:943   */\n  0x20\n    /* \"#utility.yul\":936:937   */\n  0x00\n    /* \"#utility.yul\":926:944   */\n  keccak256\n    /* \"#utility.yul\":918:944   */\n  swap1\n  pop\n    /* \"#utility.yul\":810:951   */\n  swap2\n  swap1\n  pop\n  jump\t// out\n    /* \"#utility.yul\":957:1050   */\ntag_29:\n    /* \"#utility.yul\":994:1000   */\n  0x00\n    /* \"#utility.yul\":1041:1043   */\n  0x20\n    /* \"#utility.yul\":1036:1038   */\n  0x1f\n    /* \"#utility.yul\":1029:1034   */\n  dup4\n    /* \"#utility.yul\":1025:1039   */\n  add\n    /* \"#utility.yul\":1021:1044   */\n  div\n    /* \"#utility.yul\":1011:1044   */\n  swap1\n  pop\n    /* \"#utility.yul\":957:1050   */\n  swap2\n  swap1\n  pop\n  jump\t// out\n    /* \"#utility.yul\":1056:1163   */\ntag_30:\n    /* \"#utility.yul\":1100:1108   */\n  0x00\n    /* \"#utility.yul\":1150:1155   */\n  dup3\n    /* \"#utility.yul\":1144:1148   */\n  dup3\n    /* \"#utility.yul\":1140:1156   */\n  shl\n    /* \"#utility.yul\":1119:1156   */\n  swap1\n  pop\n    /* \"#utility.yul\":1056:1163   */\n  swap3\n  swap2\n  pop\n  pop\n  jump\t// out\n    /* \"#utility.yul\":1169:1562   */\ntag_31:\n    /* \"#utility.yul\":1238:1244   */\n  0x00\n    /* \"#utility.yul\":1288:1289   */\n  0x08\n    /* \"#utility.yul\":1276:1286   */\n  dup4\n    /* \"#utility.yul\":1272:1290   */\n  mul\n    /* \"#utility.yul\":1311:1408   */\n  tag_56\n    /* \"#utility.yul\":1341:1407   */\n  0xffffffffffffffffffffffffffffffffffffffffffffffffffffffffffffffff\n    /* \"#utility.yul\":1330:1339   */\n  dup3\n    /* \"#utility.yul\":1311:1408   */\n  tag_30\n  jump\t// in\ntag_56:\n    /* \"#utility.yul\":1429:1468   */\n  tag_57\n    /* \"#utility.yul\":1459:1467   */\n  dup7\n    /* \"#utility.yul\":1448:1457   */\n  dup4\n    /* \"#utility.yul\":1429:1468   */\n  tag_30\n  jump\t// in\ntag_57:\n    /* \"#utility.yul\":1417:1468   */\n  swap6\n  pop\n    /* \"#utility.yul\":1501:1505   */\n  dup1\n    /* \"#utility.yul\":1497:1506   */\n  not\n    /* \"#utility.yul\":1490:1495   */\n  dup5\n    /* \"#utility.yul\":1486:1507   */\n  and\n    /* \"#utility.yul\":1477:1507   */\n  swap4\n  pop\n    /* \"#utility.yul\":1550:1554   */\n  dup1\n    /* \"#utility.yul\":1540:1548   */\n  dup7\n    /* \"#utility.yul\":1536:1555   */\n  and\n    /* \"#utility.yul\":1529:1534   */\n  dup5\n    /* \"#utility.yul\":1526:1556   */\n  or\n    /* \"#utility.yul\":1516:1556   */\n  swap3\n  pop\n    /* \"#utility.yul\":1245:1562   */\n  pop\n  pop\n    /* \"#utility.yul\":1169:1562   */\n  swap4\n  swap3\n  pop\n  pop\n  pop\n  jump\t// out\n    /* \"#utility.yul\":1568:1645   */\ntag_32:\n    /* \"#utility.yul\":1605:1612   */\n  0x00\n    /* \"#utility.yul\":1634:1639   */\n  dup2\n    /* \"#utility.yul\":1623:1639   */\n  swap1\n  pop\n    /* \"#utility.yul\":1568:1645   */\n  swap2\n  swap1\n  pop\n  jump\t// out\n    /* \"#utility.yul\":1651:1711   */\ntag_33:\n    /* \"#utility.yul\":1679:1682   */\n  0x00\n    /* \"#utility.yul\":1700:1705   */\n  dup2\n    /* \"#utility.yul\":1693:1705   */\n  swap1\n  pop\n    /* \"#utility.yul\":1651:1711   */\n  swap2\n  swap1\n  pop\n  jump\t// out\n    /* \"#utility.yul\":1717:1859   */\ntag_34:\n    /* \"#utility.yul\":1767:1776   */\n  0x00\n    /* \"#utility.yul\":1800:1853   */\n  tag_61\n    /* \"#utility.yul\":1818:1852   */\n  tag_62\n    /* \"#utility.yul\":1827:1851   */\n  tag_63\n    /* \"#utility.yul\":1845:1850   */\n  dup5\n    /* \"#utility.yul\":1827:1851   */\n  tag_32\n  jump\t// in\ntag_63:\n    /* \"#utility.yul\":1818:1852   */\n  tag_33\n  jump\t// in\ntag_62:\n    /* \"#utility.yul\":1800:1853   */\n  tag_32\n  jump\t// in\ntag_61:\n    /* \"#utility.yul\":1787:1853   */\n  swap1\n  pop\n    /* \"#utility.yul\":1717:1859   */\n  swap2\n  swap1\n  pop\n  jump\t// out\n    /* \"#utility.yul\":1865:1940   */\ntag_35:\n    /* \"#utility.yul\":1908:1911   */\n  0x00\n    /* \"#utility.yul\":1929:1934   */\n  dup2\n    /* \"#utility.yul\":1922:1934   */\n  swap1\n  pop\n    /* \"#utility.yul\":1865:1940   */\n  swap2\n  swap1\n  pop\n  jump\t// out\n    /* \"#utility.yul\":1946:2215   */\ntag_36:\n    /* \"#utility.yul\":2056:2095   */\n  tag_66\n    /* \"#utility.yul\":2087:2094   */\n  dup4\n    /* \"#utility.yul\":2056:2095   */\n  tag_34\n  jump\t// in\ntag_66:\n    /* \"#utility.yul\":2117:2208   */\n  tag_67\n    /* \"#utility.yul\":2166:2207   */\n  tag_68\n    /* \"#utility.yul\":2190:2206   */\n  dup3\n    /* \"#utility.yul\":2166:2207   */\n  tag_35\n  jump\t// in\ntag_68:\n    /* \"#utility.yul\":2158:2164   */\n  dup5\n    /* \"#utility.yul\":2151:2155   */\n  dup5\n    /* \"#utility.yul\":2145:2156   */\n  sload\n    /* \"#utility.yul\":2117:2208   */\n  tag_31\n  jump\t// in\ntag_67:\n    /* \"#utility.yul\":2111:2115   */\n  dup3\n    /* \"#utility.yul\":2104:2209   */\n  sstore\n    /* \"#utility.yul\":2022:2215   */\n  pop\n    /* \"#utility.yul\":1946:2215   */\n  pop\n  pop\n  pop\n  jump\t// out\n    /* \"#utility.yul\":2221:2294   */\ntag_37:\n    /* \"#utility.yul\":2266:2269   */\n  0x00\n    /* \"#utility.yul\":2287:2288   */\n  0x00\n    /* \"#utility.yul\":2280:2288   */\n  swap1\n  pop\n    /* \"#utility.yul\":2221:2294   */\n  swap1\n  jump\t// out\n    /* \"#utility.yul\":2300:2489   */\ntag_38:\n    /* \"#utility.yul\":2377:2409   */\n  tag_71\n  tag_37\n  jump\t// in\ntag_71:\n    /* \"#utility.yul\":2418:2483   */\n  tag_72\n    /* \"#utility.yul\":2476:2482   */\n  dup2\n    /* \"#utility.yul\":2468:2474   */\n  dup5\n    /* \"#utility.yul\":2462:2466   */\n  dup5\n    /* \"#utility.yul\":2418:2483   */\n  tag_36\n  jump\t// in\ntag_72:\n    /* \"#utility.yul\":2353:2489   */\n  pop\n    /* \"#utility.yul\":2300:2489   */\n  pop\n  pop\n  jump\t// out\n    /* \"#utility.yul\":2495:2681   */\ntag_39:\n    /* \"#utility.yul\":2555:2675   */\ntag_74:\n    /* \"#utility.yul\":2572:2575   */\n  dup2\n    /* \"#utility.yul\":2565:2570   */\n  dup2\n    /* \"#utility.yul\":2562:2576   */\n  lt\n    /* \"#utility.yul\":2555:2675   */\n  iszero\n  tag_76\n  jumpi\n    /* \"#utility.yul\":2626:2665   */\n  tag_77\n    /* \"#utility.yul\":2663:2664   */\n  0x00\n    /* \"#utility.yul\":2656:2661   */\n  dup3\n    /* \"#utility.yul\":2626:2665   */\n  tag_38\n  jump\t// in\ntag_77:\n    /* \"#utility.yul\":2599:2600   */\n  0x01\n    /* \"#utility.yul\":2592:2597   */\n  dup2\n    /* \"#utility.yul\":2588:2601   */\n  add\n    /* \"#utility.yul\":2579:2601   */\n  swap1\n  pop\n    /* \"#utility.yul\":2555:2675   */\n  jump(tag_74)\ntag_76:\n    /* \"#utility.yul\":2495:2681   */\n  pop\n  pop\n  jump\t// out\n    /* \"#utility.yul\":2687:3230   */\ntag_40:\n    /* \"#utility.yul\":2788:2790   */\n  0x1f\n    /* \"#utility.yul\":2783:2786   */\n  dup3\n    /* \"#utility.yul\":2780:2791   */\n  gt\n    /* \"#utility.yul\":2777:3223   */\n  iszero\n  tag_79\n  jumpi\n    /* \"#utility.yul\":2822:2860   */\n  tag_80\n    /* \"#utility.yul\":2854:2859   */\n  dup2\n    /* \"#utility.yul\":2822:2860   */\n  tag_28\n  jump\t// in\ntag_80:\n    /* \"#utility.yul\":2906:2935   */\n  tag_81\n    /* \"#utility.yul\":2924:2934   */\n  dup5\n    /* \"#utility.yul\":2906:2935   */\n  tag_29\n  jump\t// in\ntag_81:\n    /* \"#utility.yul\":2896:2904   */\n  dup2\n    /* \"#utility.yul\":2892:2936   */\n  add\n    /* \"#utility.yul\":3089:3091   */\n  0x20\n    /* \"#utility.yul\":3077:3087   */\n  dup6\n    /* \"#utility.yul\":3074:3092   */\n  lt\n    /* \"#utility.yul\":3071:3120   */\n  iszero\n  tag_82\n  jumpi\n    /* \"#utility.yul\":3110:3118   */\n  dup2\n    /* \"#utility.yul\":3095:3118   */\n  swap1\n  pop\n    /* \"#utility.yul\":3071:3120   */\ntag_82:\n    /* \"#utility.yul\":3133:3213   */\n  tag_83\n    /* \"#utility.yul\":3189:3211   */\n  tag_84\n    /* \"#utility.yul\":3207:3210   */\n  dup6\n    /* \"#utility.yul\":3189:3211   */\n  tag_29\n  jump\t// in\ntag_84:\n    /* \"#utility.yul\":3179:3187   */\n  dup4\n    /* \"#utility.yul\":3175:3212   */\n  add\n    /* \"#utility.yul\":3162:3173   */\n  dup3\n    /* \"#utility.yul\":3133:3213   */\n  tag_39\n  jump\t// in\ntag_83:\n    /* \"#utility.yul\":2792:3223   */\n  pop\n  pop\n    /* \"#utility.yul\":2777:3223   */\ntag_79:\n    /* \"#utility.yul\":2687:3230   */\n  pop\n  pop\n  pop\n  jump\t// out\n    /* \"#utility.yul\":3236:3353   */\ntag_41:\n    /* \"#utility.yul\":3290:3298   */\n  0x00\n    /* \"#utility.yul\":3340:3345   */\n  dup3\n    /* \"#utility.yul\":3334:3338   */\n  dup3\n    /* \"#utility.yul\":3330:3346   */\n  shr\n    /* \"#utility.yul\":3309:3346   */\n  swap1\n  pop\n    /* \"#utility.yul\":3236:3353   */\n  swap3\n  swap2\n  pop\n  pop\n  jump\t// out\n    /* \"#utility.yul\":3359:3528   */\ntag_42:\n    /* \"#utility.yul\":3403:3409   */\n  0x00\n    /* \"#utility.yul\":3436:3487   */\n  tag_87\n    /* \"#utility.yul\":3484:3485   */\n  0x00\n    /* \"#utility.yul\":3480:3486   */\n  not\n    /* \"#utility.yul\":3472:3477   */\n  dup5\n    /* \"#utility.yul\":3469:3470   */\n  0x08\n    /* \"#utility.yul\":3465:3478   */\n  mul\n    /* \"#utility.yul\":3436:3487   */\n  tag_41\n  jump\t// in\ntag_87:\n    /* \"#utility.yul\":3432:3488   */\n  not\n    /* \"#utility.yul\":3517:3521   */\n  dup1\n    /* \"#utility.yul\":3511:3515   */\n  dup4\n    /* \"#utility.yul\":3507:3522   */\n  and\n    /* \"#utility.yul\":3497:3522   */\n  swap2\n  pop\n    /* \"#utility.yul\":3410:3528   */\n  pop\n    /* \"#utility.yul\":3359:3528   */\n  swap3\n  swap2\n  pop\n  pop\n  jump\t// out\n    /* \"#utility.yul\":3533:3828   */\ntag_43:\n    /* \"#utility.yul\":3609:3613   */\n  0x00\n    /* \"#utility.yul\":3755:3784   */\n  tag_89\n    /* \"#utility.yul\":3780:3783   */\n  dup4\n    /* \"#utility.yul\":3774:3778   */\n  dup4\n    /* \"#utility.yul\":3755:3784   */\n  tag_42\n  jump\t// in\ntag_89:\n    /* \"#utility.yul\":3747:3784   */\n  swap2\n  pop\n    /* \"#utility.yul\":3817:3820   */\n  dup3\n    /* \"#utility.yul\":3814:3815   */\n  0x02\n    /* \"#utility.yul\":3810:3821   */\n  mul\n    /* \"#utility.yul\":3804:3808   */\n  dup3\n    /* \"#utility.yul\":3801:3822   */\n  or\n    /* \"#utility.yul\":3793:3822   */\n  swap1\n  pop\n    /* \"#utility.yul\":3533:3828   */\n  swap3\n  swap2\n  pop\n  pop\n  jump\t// out\n    /* \"#utility.yul\":3833:5228   */\ntag_2:\n    /* \"#utility.yul\":3950:3987   */\n  tag_91\n    /* \"#utility.yul\":3983:3986   */\n  dup3\n    /* \"#utility.yul\":3950:3987   */\n  tag_25\n  jump\t// in\ntag_91:\n    /* \"#utility.yul\":4052:4070   */\n  0xffffffffffffffff\n    /* \"#utility.yul\":4044:4050   */\n  dup2\n    /* \"#utility.yul\":4041:4071   */\n  gt\n    /* \"#utility.yul\":4038:4094   */\n  iszero\n  tag_92\n  jumpi\n    /* \"#utility.yul\":4074:4092   */\n  tag_93\n  tag_26\n  jump\t// in\ntag_93:\n    /* \"#utility.yul\":4038:4094   */\ntag_92:\n    /* \"#utility.yul\":4118:4156   */\n  tag_94\n    /* \"#utility.yul\":4150:4154   */\n  dup3\n    /* \"#utility.yul\":4144:4155   */\n  sload\n    /* \"#utility.yul\":4118:4156   */\n  tag_18\n  jump\t// in\ntag_94:\n    /* \"#utility.yul\":4203:4270   */\n  tag_95\n    /* \"#utility.yul\":4263:4269   */\n  dup3\n    /* \"#utility.yul\":4255:4261   */\n  dup3\n    /* \"#utility.yul\":4249:4253   */\n  dup6\n    /* \"#utility.yul\":4203:4270   */\n  tag_40\n  jump\t// in\ntag_95:\n    /* \"#utility.yul\":4297:4298   */\n  0x00\n    /* \"#utility.yul\":4321:4325   */\n  0x20\n    /* \"#utility.yul\":4308:4325   */\n  swap1\n  pop\n    /* \"#utility.yul\":4353:4355   */\n  0x1f\n    /* \"#utility.yul\":4345:4351   */\n  dup4\n    /* \"#utility.yul\":4342:4356   */\n  gt\n    /* \"#utility.yul\":4370:4371   */\n  0x01\n    /* \"#utility.yul\":4365:4983   */\n  dup2\n  eq\n  tag_97\n  jumpi\n    /* \"#utility.yul\":5027:5028   */\n  0x00\n    /* \"#utility.yul\":5044:5050   */\n  dup5\n    /* \"#utility.yul\":5041:5118   */\n  iszero\n  tag_98\n  jumpi\n    /* \"#utility.yul\":5093:5102   */\n  dup3\n    /* \"#utility.yul\":5088:5091   */\n  dup8\n    /* \"#utility.yul\":5084:5103   */\n  add\n    /* \"#utility.yul\":5078:5104   */\n  mload\n    /* \"#utility.yul\":5069:5104   */\n  swap1\n  pop\n    /* \"#utility.yul\":5041:5118   */\ntag_98:\n    /* \"#utility.yul\":5144:5211   */\n  tag_99\n    /* \"#utility.yul\":5204:5210   */\n  dup6\n    /* \"#utility.yul\":5197:5202   */\n  dup3\n    /* \"#utility.yul\":5144:5211   */\n  tag_43\n  jump\t// in\ntag_99:\n    /* \"#utility.yul\":5138:5142   */\n  dup7\n    /* \"#utility.yul\":5131:5212   */\n  sstore\n    /* \"#utility.yul\":5000:5222   */\n  pop\n    /* \"#utility.yul\":4335:5222   */\n  jump(tag_96)\n    /* \"#utility.yul\":4365:4983   */\ntag_97:\n    /* \"#utility.yul\":4417:4421   */\n  0x1f\n    /* \"#utility.yul\":4413:4422   */\n  not\n    /* \"#utility.yul\":4405:4411   */\n  dup5\n    /* \"#utility.yul\":4401:4423   */\n  and\n    /* \"#utility.yul\":4451:4488   */\n  tag_100\n    /* \"#utility.yul\":4483:4487   */\n  dup7\n    /* \"#utility.yul\":4451:4488   */\n  tag_28\n  jump\t// in\ntag_100:\n    /* \"#utility.yul\":4510:4511   */\n  0x00\n    /* \"#utility.yul\":4524:4732   */\ntag_101:\n    /* \"#utility.yul\":4538:4545   */\n  dup3\n    /* \"#utility.yul\":4535:4536   */\n  dup2\n    /* \"#utility.yul\":4532:4546   */\n  lt\n    /* \"#utility.yul\":4524:4732   */\n  iszero\n  tag_103\n  jumpi\n    /* \"#utility.yul\":4617:4626   */\n  dup5\n    /* \"#utility.yul\":4612:4615   */\n  dup10\n    /* \"#utility.yul\":4608:4627   */\n  add\n    /* \"#utility.yul\":4602:4628   */\n  mload\n    /* \"#utility.yul\":4594:4600   */\n  dup3\n    /* \"#utility.yul\":4587:4629   */\n  sstore\n    /* \"#utility.yul\":4668:4669   */\n  0x01\n    /* \"#utility.yul\":4660:4666   */\n  dup3\n    /* \"#utility.yul\":4656:4670   */\n  add\n    /* \"#utility.yul\":4646:4670   */\n  swap2\n  pop\n    /* \"#utility.yul\":4715:4717   */\n  0x20\n    /* \"#utility.yul\":4704:4713   */\n  dup6\n    /* \"#utility.yul\":4700:4718   */\n  add\n    /* \"#utility.yul\":4687:4718   */\n  swap5\n  pop\n    /* \"#utility.yul\":4561:4565   */\n  0x20\n    /* \"#utility.yul\":4558:4559   */\n  dup2\n    /* \"#utility.yul\":4554:4566   */\n  add\n    /* \"#utility.yul\":4549:4566   */\n  swap1\n  pop\n    /* \"#utility.yul\":4524:4732   */\n  jump(tag_101)\ntag_103:\n    /* \"#utility.yul\":4760:4766   */\n  dup7\n    /* \"#utility.yul\":4751:4758   */\n  dup4\n    /* \"#utility.yul\":4748:4767   */\n  lt\n    /* \"#utility.yul\":4745:4924   */\n  iszero\n  tag_104\n  jumpi\n    /* \"#utility.yul\":4818:4827   */\n  dup5\n    /* \"#utility.yul\":4813:4816   */\n  dup10\n    /* \"#utility.yul\":4809:4828   */\n  add\n    /* \"#utility.yul\":4803:4829   */\n  mload\n    /* \"#utility.yul\":4861:4909   */\n  tag_105\n    /* \"#utility.yul\":4903:4907   */\n  0x1f\n    /* \"#utility.yul\":4895:4901   */\n  dup10\n    /* \"#utility.yul\":4891:4908   */\n  and\n    /* \"#utility.yul\":4880:4889   */\n  dup3\n    /* \"#utility.yul\":4861:4909   */\n  tag_42\n  jump\t// in\ntag_105:\n    /* \"#utility.yul\":4853:4859   */\n  dup4\n    /* \"#utility.yul\":4846:4910   */\n  sstore\n    /* \"#utility.yul\":4768:4924   */\n  pop\n    /* \"#utility.yul\":4745:4924   */\ntag_104:\n    /* \"#utility.yul\":4970:4971   */\n  0x01\n    /* \"#utility.yul\":4966:4967   */\n  0x02\n    /* \"#utility.yul\":4958:4964   */\n  dup9\n    /* \"#utility.yul\":4954:4968   */\n  mul\n    /* \"#utility.yul\":4950:4972   */\n  add\n    /* \"#utility.yul\":4944:4948   */\n  dup9\n    /* \"#utility.yul\":4937:4973   */\n  sstore\n    /* \"#utility.yul\":4372:4983   */\n  pop\n  pop\n  pop\n    /* \"#utility.yul\":4335:5222   */\ntag_96:\n  pop\n    /* \"#utility.yul\":3925:5228   */\n  pop\n  pop\n  pop\n    /* \"#utility.yul\":3833:5228   */\n  pop\n  pop\n  jump\t// out\n    /* \"contract/quiz.sol\":60:1415  contract QuizContract {... */\ntag_6:\n  dataSize(sub_0)\n  dup1\n  dataOffset(sub_0)\n  0x00\n  codecopy\n  0x00\n  return\nstop\ndata_7c94560c067e7a4ce211bd0635ea5d2478c334f5eed955141edd8404fa27ceca 5768617420697320746865206361706974616c206f662042616e676c61646573683f\n\nsub_0: assembly {\n        /* \"contract/quiz.sol\":60:1415  contract QuizContract {... */\n      mstore(0x40, 0x80)\n      callvalue\n      dup1\n      iszero\n      tag_1\n      jumpi\n      revert(0x00, 0x00)\n    tag_1:\n      pop\n      jumpi(tag_2, lt(calldatasize, 0x04))\n      shr(0xe0, calldataload(0x00))\n      dup1\n      0x5e9618e7\n      gt\n      tag_10\n      jumpi\n      dup1\n      0x5e9618e7\n      eq\n      tag_6\n      jumpi\n      dup1\n      0x7c3572c2\n      eq\n      tag_7\n      jumpi\n      dup1\n      0x9cc4959e\n      eq\n      tag_8\n      jumpi\n      dup1\n      0xb23ab54c\n      eq\n      tag_9\n      jumpi\n      jump(tag_2)\n    tag_10:\n      dup1\n      0x3fad9ae0\n      eq\n      tag_3\n      jumpi\n      dup1\n      0x409e2205\n      eq\n      tag_4\n      jumpi\n      dup1\n      0x5b67bdb4\n      eq\n      tag_5\n      jumpi\n    tag_2:\n      revert(0x00, 0x00)\n        /* \"contract/quiz.sol\":123:184  string public question = \"What is the capital of Bangladesh?\" */\n    tag_3:\n      tag_11\n      tag_12\n      jump\t// in\n    tag_11:\n      mload(0x40)\n      tag_13\n      swap2\n      swap1\n      tag_14\n      jump\t// in\n    tag_13:\n      mload(0x40)\n      dup1\n      swap2\n      sub\n      swap1\n      return\n        /* \"contract/quiz.sol\":191:261  string[4] public options = [\"Dhaka\", \"Chittagong\", \"Khulna\", \"Sylhet\"] */\n    tag_4:\n      tag_15\n      0x04\n      dup1\n      calldatasize\n      sub\n      dup2\n      add\n      swap1\n      tag_16\n      swap2\n      swap1\n      tag_17\n      jump\t// in\n    tag_16:\n      tag_18\n      jump\t// in\n    tag_15:\n      mload(0x40)\n      tag_19\n      swap2\n      swap1\n      tag_14\n      jump\t// in\n    tag_19:\n      mload(0x40)\n      dup1\n      swap2\n      sub\n      swap1\n      return\n        /* \"contract/quiz.sol\":670:713  mapping(address => bool) public hasAnswered */\n    tag_5:\n      tag_20\n      0x04\n      dup1\n      calldatasize\n      sub\n      dup2\n      add\n      swap1\n      tag_21\n      swap2\n      swap1\n      tag_22\n      jump\t// in\n    tag_21:\n      tag_23\n      jump\t// in\n    tag_20:\n      mload(0x40)\n      tag_24\n      swap2\n      swap1\n      tag_25\n      jump\t// in\n    tag_24:\n      mload(0x40)\n      dup1\n      swap2\n      sub\n      swap1\n      return\n        /* \"contract/quiz.sol\":505:544  mapping(address => uint) public answers */\n    tag_6:\n      tag_26\n      0x04\n      dup1\n      calldatasize\n      sub\n      dup2\n      add\n      swap1\n      tag_27\n      swap2\n      swap1\n      tag_22\n      jump\t// in\n    tag_27:\n      tag_28\n      jump\t// in\n    tag_26:\n      mload(0x40)\n      tag_29\n      swap2\n      swap1\n      tag_30\n      jump\t// in\n    tag_29:\n      mload(0x40)\n      dup1\n      swap2\n      sub\n      swap1\n      return\n        /* \"contract/quiz.sol\":764:1135  function submitAnswer(uint _option) public {... */\n    tag_7:\n      tag_31\n      0x04\n      dup1\n      calldatasize\n      sub\n      dup2\n      add\n      swap1\n      tag_32\n      swap2\n      swap1\n      tag_17\n      jump\t// in\n    tag_32:\n      tag_33\n      jump\t// in\n    tag_31:\n      stop\n        /* \"contract/quiz.sol\":354:383  uint public correctAnswer = 0 */\n    tag_8:\n      tag_34\n      tag_35\n      jump\t// in\n    tag_34:\n      mload(0x40)\n      tag_36\n      swap2\n      swap1\n      tag_30\n      jump\t// in\n    tag_36:\n      mload(0x40)\n      dup1\n      swap2\n      sub\n      swap1\n      return\n        /* \"contract/quiz.sol\":1218:1412  function checkAnswer(address _player) public view returns(bool) {... */\n    tag_9:\n      tag_37\n      0x04\n      dup1\n      calldatasize\n      sub\n      dup2\n      add\n      swap1\n      tag_38\n      swap2\n      swap1\n      tag_22\n      jump\t// in\n    tag_38:\n      tag_39\n      jump\t// in\n    tag_37:\n      mload(0x40)\n      tag_40\n      swap2\n      swap1\n      tag_25\n      jump\t// in\n    tag_40:\n      mload(0x40)\n      dup1\n      swap2\n      sub\n      swap1\n      return\n        /* \"contract/quiz.sol\":123:184  string public question = \"What is the capital of Bangladesh?\" */\n    tag_12:\n      0x00\n      dup1\n      sload\n      tag_41\n      swap1\n      tag_42\n      jump\t// in\n    tag_41:\n      dup1\n      0x1f\n      add\n      0x20\n      dup1\n      swap2\n      div\n      mul\n      0x20\n      add\n      mload(0x40)\n      swap1\n      dup2\n      add\n      0x40\n      mstore\n      dup1\n      swap3\n      swap2\n      swap1\n      dup2\n      dup2\n      mstore\n      0x20\n      add\n      dup3\n      dup1\n      sload\n      tag_43\n      swap1\n      tag_42\n      jump\t// in\n    tag_43:\n      dup1\n      iszero\n      tag_44\n      jumpi\n      dup1\n      0x1f\n      lt\n      tag_45\n      jumpi\n      0x0100\n      dup1\n      dup4\n      sload\n      div\n      mul\n      dup4\n      mstore\n      swap2\n      0x20\n      add\n      swap2\n      jump(tag_44)\n    tag_45:\n      dup3\n      add\n      swap2\n      swap1\n      0x00\n      mstore\n      keccak256(0x00, 0x20)\n      swap1\n    tag_46:\n      dup2\n      sload\n      dup2\n      mstore\n      swap1\n      0x01\n      add\n      swap1\n      0x20\n      add\n      dup1\n      dup4\n      gt\n      tag_46\n      jumpi\n      dup3\n      swap1\n      sub\n      0x1f\n      and\n      dup3\n      add\n      swap2\n    tag_44:\n      pop\n      pop\n      pop\n      pop\n      pop\n      dup2\n      jump\t// out\n        /* \"contract/quiz.sol\":191:261  string[4] public options = [\"Dhaka\", \"Chittagong\", \"Khulna\", \"Sylhet\"] */\n    tag_18:\n      0x01\n      dup2\n      0x04\n      dup2\n      lt\n      tag_47\n      jumpi\n      0x00\n      dup1\n      revert\n    tag_47:\n      add\n      0x00\n      swap2\n      pop\n      swap1\n      pop\n      dup1\n      sload\n      tag_49\n      swap1\n      tag_42\n      jump\t// in\n    tag_49:\n      dup1\n      0x1f\n      add\n      0x20\n      dup1\n      swap2\n      div\n      mul\n      0x20\n      add\n      mload(0x40)\n      swap1\n      dup2\n      add\n      0x40\n      mstore\n      dup1\n      swap3\n      swap2\n      swap1\n      dup2\n      dup2\n      mstore\n      0x20\n      add\n      dup3\n      dup1\n      sload\n      tag_50\n      swap1\n      tag_42\n      jump\t// in\n    tag_50:\n      dup1\n      iszero\n      tag_51\n      jumpi\n      dup1\n      0x1f\n      lt\n      tag_52\n      jumpi\n      0x0100\n      dup1\n      dup4\n      sload\n      div\n      mul\n      dup4\n      mstore\n      swap2\n      0x20\n      add\n      swap2\n      jump(tag_51)\n    tag_52:\n      dup3\n      add\n      swap2\n      swap1\n      0x00\n      mstore\n      keccak256(0x00, 0x20)\n      swap1\n    tag_53:\n      dup2\n      sload\n      dup2\n      mstore\n      swap1\n      0x01\n      add\n      swap1\n      0x20\n      add\n      dup1\n      dup4\n      gt\n      tag_53\n      jumpi\n      dup3\n      swap1\n      sub\n      0x1f\n      and\n      dup3\n      add\n      swap2\n    tag_51:\n      pop\n      pop\n      pop\n      pop\n      pop\n      dup2\n      jump\t// out\n        /* \"contract/quiz.sol\":670:713  mapping(address => bool) public hasAnswered */\n    tag_23:\n      mstore(0x20, 0x07)\n      dup1\n      0x00\n      mstore\n      keccak256(0x00, 0x40)\n      0x00\n      swap2\n      pop\n      sload\n      swap1\n      0x0100\n      exp\n      swap1\n      div\n      0xff\n      and\n      dup2\n      jump\t// out\n        /* \"contract/quiz.sol\":505:544  mapping(address => uint) public answers */\n    tag_28:\n      mstore(0x20, 0x06)\n      dup1\n      0x00\n      mstore\n      keccak256(0x00, 0x40)\n      0x00\n      swap2\n      pop\n      swap1\n      pop\n      sload\n      dup2\n      jump\t// out\n        /* \"contract/quiz.sol\":764:1135  function submitAnswer(uint _option) public {... */\n    tag_33:\n        /* \"contract/quiz.sol\":836:837  4 */\n      0x04\n        /* \"contract/quiz.sol\":826:833  _option */\n      dup2\n        /* \"contract/quiz.sol\":826:837  _option < 4 */\n      lt\n        /* \"contract/quiz.sol\":818:856  require(_option < 4, \"Invalid option\") */\n      tag_55\n      jumpi\n      mload(0x40)\n      0x08c379a000000000000000000000000000000000000000000000000000000000\n      dup2\n      mstore\n      0x04\n      add\n      tag_56\n      swap1\n      tag_57\n      jump\t// in\n    tag_56:\n      mload(0x40)\n      dup1\n      swap2\n      sub\n      swap1\n      revert\n    tag_55:\n        /* \"contract/quiz.sol\":912:923  hasAnswered */\n      0x07\n        /* \"contract/quiz.sol\":912:935  hasAnswered[msg.sender] */\n      0x00\n        /* \"contract/quiz.sol\":924:934  msg.sender */\n      caller\n        /* \"contract/quiz.sol\":912:935  hasAnswered[msg.sender] */\n      0xffffffffffffffffffffffffffffffffffffffff\n      and\n      0xffffffffffffffffffffffffffffffffffffffff\n      and\n      dup2\n      mstore\n      0x20\n      add\n      swap1\n      dup2\n      mstore\n      0x20\n      add\n      0x00\n      keccak256\n      0x00\n      swap1\n      sload\n      swap1\n      0x0100\n      exp\n      swap1\n      div\n      0xff\n      and\n        /* \"contract/quiz.sol\":911:935  !hasAnswered[msg.sender] */\n      iszero\n        /* \"contract/quiz.sol\":903:957  require(!hasAnswered[msg.sender], \"Already answered!\") */\n      tag_58\n      jumpi\n      mload(0x40)\n      0x08c379a000000000000000000000000000000000000000000000000000000000\n      dup2\n      mstore\n      0x04\n      add\n      tag_59\n      swap1\n      tag_60\n      jump\t// in\n    tag_59:\n      mload(0x40)\n      dup1\n      swap2\n      sub\n      swap1\n      revert\n    tag_58:\n        /* \"contract/quiz.sol\":1079:1086  _option */\n      dup1\n        /* \"contract/quiz.sol\":1057:1064  answers */\n      0x06\n        /* \"contract/quiz.sol\":1057:1076  answers[msg.sender] */\n      0x00\n        /* \"contract/quiz.sol\":1065:1075  msg.sender */\n      caller\n        /* \"contract/quiz.sol\":1057:1076  answers[msg.sender] */\n      0xffffffffffffffffffffffffffffffffffffffff\n      and\n      0xffffffffffffffffffffffffffffffffffffffff\n      and\n      dup2\n      mstore\n      0x20\n      add\n      swap1\n      dup2\n      mstore\n      0x20\n      add\n      0x00\n      keccak256\n        /* \"contract/quiz.sol\":1057:1086  answers[msg.sender] = _option */\n      dup2\n      swap1\n      sstore\n      pop\n        /* \"contract/quiz.sol\":1123:1127  true */\n      0x01\n        /* \"contract/quiz.sol\":1097:1108  hasAnswered */\n      0x07\n        /* \"contract/quiz.sol\":1097:1120  hasAnswered[msg.sender] */\n      0x00\n        /* \"contract/quiz.sol\":1109:1119  msg.sender */\n      caller\n        /* \"contract/quiz.sol\":1097:1120  hasAnswered[msg.sender] */\n      0xffffffffffffffffffffffffffffffffffffffff\n      and\n      0xffffffffffffffffffffffffffffffffffffffff\n      and\n      dup2\n      mstore\n      0x20\n      add\n      swap1\n      dup2\n      mstore\n      0x20\n      add\n      0x00\n      keccak256\n      0x00\n        /* \"contract/quiz.sol\":1097:1127  hasAnswered[msg.sender] = true */\n      0x0100\n      exp\n      dup2\n      sload\n      dup2\n      0xff\n      mul\n      not\n      and\n      swap1\n      dup4\n      iszero\n      iszero\n      mul\n      or\n      swap1\n      sstore\n      pop\n        /* \"contract/quiz.sol\":764:1135  function submitAnswer(uint _option) public {... */\n      pop\n      jump\t// out\n        /* \"contract/quiz.sol\":354:383  uint public correctAnswer = 0 */\n    tag_35:\n      sload(0x05)\n      dup2\n      jump\t// out\n        /* \"contract/quiz.sol\":1218:1412  function checkAnswer(address _player) public view returns(bool) {... */\n    tag_39:\n        /* \"contract/quiz.sol\":1276:1280  bool */\n      0x00\n        /* \"contract/quiz.sol\":1301:1312  hasAnswered */\n      0x07\n        /* \"contract/quiz.sol\":1301:1321  hasAnswered[_player] */\n      0x00\n        /* \"contract/quiz.sol\":1313:1320  _player */\n      dup4\n        /* \"contract/quiz.sol\":1301:1321  hasAnswered[_player] */\n      0xffffffffffffffffffffffffffffffffffffffff\n      and\n      0xffffffffffffffffffffffffffffffffffffffff\n      and\n      dup2\n      mstore\n      0x20\n      add\n      swap1\n      dup2\n      mstore\n      0x20\n      add\n      0x00\n      keccak256\n      0x00\n      swap1\n      sload\n      swap1\n      0x0100\n      exp\n      swap1\n      div\n      0xff\n      and\n        /* \"contract/quiz.sol\":1293:1353  require(hasAnswered[_player], \"Player has not answered yet\") */\n      tag_62\n      jumpi\n      mload(0x40)\n      0x08c379a000000000000000000000000000000000000000000000000000000000\n      dup2\n      mstore\n      0x04\n      add\n      tag_63\n      swap1\n      tag_64\n      jump\t// in\n    tag_63:\n      mload(0x40)\n      dup1\n      swap2\n      sub\n      swap1\n      revert\n    tag_62:\n        /* \"contract/quiz.sol\":1391:1404  correctAnswer */\n      sload(0x05)\n        /* \"contract/quiz.sol\":1371:1378  answers */\n      0x06\n        /* \"contract/quiz.sol\":1371:1387  answers[_player] */\n      0x00\n        /* \"contract/quiz.sol\":1379:1386  _player */\n      dup5\n        /* \"contract/quiz.sol\":1371:1387  answers[_player] */\n      0xffffffffffffffffffffffffffffffffffffffff\n      and\n      0xffffffffffffffffffffffffffffffffffffffff\n      and\n      dup2\n      mstore\n      0x20\n      add\n      swap1\n      dup2\n      mstore\n      0x20\n      add\n      0x00\n      keccak256\n      sload\n        /* \"contract/quiz.sol\":1371:1404  answers[_player] == correctAnswer */\n      eq\n        /* \"contract/quiz.sol\":1364:1404  return answers[_player] == correctAnswer */\n      swap1\n      pop\n        /* \"contract/quiz.sol\":1218:1412  function checkAnswer(address _player) public view returns(bool) {... */\n      swap2\n      swap1\n      pop\n      jump\t// out\n        /* \"#utility.yul\":7:106   */\n    tag_65:\n        /* \"#utility.yul\":59:65   */\n      0x00\n        /* \"#utility.yul\":93:98   */\n      dup2\n        /* \"#utility.yul\":87:99   */\n      mload\n        /* \"#utility.yul\":77:99   */\n      swap1\n      pop\n        /* \"#utility.yul\":7:106   */\n      swap2\n      swap1\n      pop\n      jump\t// out\n        /* \"#utility.yul\":112:281   */\n    tag_66:\n        /* \"#utility.yul\":196:207   */\n      0x00\n        /* \"#utility.yul\":230:236   */\n      dup3\n        /* \"#utility.yul\":225:228   */\n      dup3\n        /* \"#utility.yul\":218:237   */\n      mstore\n        /* \"#utility.yul\":270:274   */\n      0x20\n        /* \"#utility.yul\":265:268   */\n      dup3\n        /* \"#utility.yul\":261:275   */\n      add\n        /* \"#utility.yul\":246:275   */\n      swap1\n      pop\n        /* \"#utility.yul\":112:281   */\n      swap3\n      swap2\n      pop\n      pop\n      jump\t// out\n        /* \"#utility.yul\":287:426   */\n    tag_67:\n        /* \"#utility.yul\":376:382   */\n      dup3\n        /* \"#utility.yul\":371:374   */\n      dup2\n        /* \"#utility.yul\":366:369   */\n      dup4\n        /* \"#utility.yul\":360:383   */\n      mcopy\n        /* \"#utility.yul\":417:418   */\n      0x00\n        /* \"#utility.yul\":408:414   */\n      dup4\n        /* \"#utility.yul\":403:406   */\n      dup4\n        /* \"#utility.yul\":399:415   */\n      add\n        /* \"#utility.yul\":392:419   */\n      mstore\n        /* \"#utility.yul\":287:426   */\n      pop\n      pop\n      pop\n      jump\t// out\n        /* \"#utility.yul\":432:534   */\n    tag_68:\n        /* \"#utility.yul\":473:479   */\n      0x00\n        /* \"#utility.yul\":524:526   */\n      0x1f\n        /* \"#utility.yul\":520:527   */\n      not\n        /* \"#utility.yul\":515:517   */\n      0x1f\n        /* \"#utility.yul\":508:513   */\n      dup4\n        /* \"#utility.yul\":504:518   */\n      add\n        /* \"#utility.yul\":500:528   */\n      and\n        /* \"#utility.yul\":490:528   */\n      swap1\n      pop\n        /* \"#utility.yul\":432:534   */\n      swap2\n      swap1\n      pop\n      jump\t// out\n        /* \"#utility.yul\":540:917   */\n    tag_69:\n        /* \"#utility.yul\":628:631   */\n      0x00\n        /* \"#utility.yul\":656:695   */\n      tag_96\n        /* \"#utility.yul\":689:694   */\n      dup3\n        /* \"#utility.yul\":656:695   */\n      tag_65\n      jump\t// in\n    tag_96:\n        /* \"#utility.yul\":711:782   */\n      tag_97\n        /* \"#utility.yul\":775:781   */\n      dup2\n        /* \"#utility.yul\":770:773   */\n      dup6\n        /* \"#utility.yul\":711:782   */\n      tag_66\n      jump\t// in\n    tag_97:\n        /* \"#utility.yul\":704:782   */\n      swap4\n      pop\n        /* \"#utility.yul\":791:856   */\n      tag_98\n        /* \"#utility.yul\":849:855   */\n      dup2\n        /* \"#utility.yul\":844:847   */\n      dup6\n        /* \"#utility.yul\":837:841   */\n      0x20\n        /* \"#utility.yul\":830:835   */\n      dup7\n        /* \"#utility.yul\":826:842   */\n      add\n        /* \"#utility.yul\":791:856   */\n      tag_67\n      jump\t// in\n    tag_98:\n        /* \"#utility.yul\":881:910   */\n      tag_99\n        /* \"#utility.yul\":903:909   */\n      dup2\n        /* \"#utility.yul\":881:910   */\n      tag_68\n      jump\t// in\n    tag_99:\n        /* \"#utility.yul\":876:879   */\n      dup5\n        /* \"#utility.yul\":872:911   */\n      add\n        /* \"#utility.yul\":865:911   */\n      swap2\n      pop\n        /* \"#utility.yul\":632:917   */\n      pop\n        /* \"#utility.yul\":540:917   */\n      swap3\n      swap2\n      pop\n      pop\n      jump\t// out\n        /* \"#utility.yul\":923:1236   */\n    tag_14:\n        /* \"#utility.yul\":1036:1040   */\n      0x00\n        /* \"#utility.yul\":1074:1076   */\n      0x20\n        /* \"#utility.yul\":1063:1072   */\n      dup3\n        /* \"#utility.yul\":1059:1077   */\n      add\n        /* \"#utility.yul\":1051:1077   */\n      swap1\n      pop\n        /* \"#utility.yul\":1123:1132   */\n      dup2\n        /* \"#utility.yul\":1117:1121   */\n      dup2\n        /* \"#utility.yul\":1113:1133   */\n      sub\n        /* \"#utility.yul\":1109:1110   */\n      0x00\n        /* \"#utility.yul\":1098:1107   */\n      dup4\n        /* \"#utility.yul\":1094:1111   */\n      add\n        /* \"#utility.yul\":1087:1134   */\n      mstore\n        /* \"#utility.yul\":1151:1229   */\n      tag_101\n        /* \"#utility.yul\":1224:1228   */\n      dup2\n        /* \"#utility.yul\":1215:1221   */\n      dup5\n        /* \"#utility.yul\":1151:1229   */\n      tag_69\n      jump\t// in\n    tag_101:\n        /* \"#utility.yul\":1143:1229   */\n      swap1\n      pop\n        /* \"#utility.yul\":923:1236   */\n      swap3\n      swap2\n      pop\n      pop\n      jump\t// out\n        /* \"#utility.yul\":1323:1440   */\n    tag_71:\n        /* \"#utility.yul\":1432:1433   */\n      0x00\n        /* \"#utility.yul\":1429:1430   */\n      0x00\n        /* \"#utility.yul\":1422:1434   */\n      revert\n        /* \"#utility.yul\":1569:1646   */\n    tag_73:\n        /* \"#utility.yul\":1606:1613   */\n      0x00\n        /* \"#utility.yul\":1635:1640   */\n      dup2\n        /* \"#utility.yul\":1624:1640   */\n      swap1\n      pop\n        /* \"#utility.yul\":1569:1646   */\n      swap2\n      swap1\n      pop\n      jump\t// out\n        /* \"#utility.yul\":1652:1774   */\n    tag_74:\n        /* \"#utility.yul\":1725:1749   */\n      tag_107\n        /* \"#utility.yul\":1743:1748   */\n      dup2\n        /* \"#utility.yul\":1725:1749   */\n      tag_73\n      jump\t// in\n    tag_107:\n        /* \"#utility.yul\":1718:1723   */\n      dup2\n        /* \"#utility.yul\":1715:1750   */\n      eq\n        /* \"#utility.yul\":1705:1768   */\n      tag_108\n      jumpi\n        /* \"#utility.yul\":1764:1765   */\n      0x00\n        /* \"#utility.yul\":1761:1762   */\n      0x00\n        /* \"#utility.yul\":1754:1766   */\n      revert\n        /* \"#utility.yul\":1705:1768   */\n    tag_108:\n        /* \"#utility.yul\":1652:1774   */\n      pop\n      jump\t// out\n        /* \"#utility.yul\":1780:1919   */\n    tag_75:\n        /* \"#utility.yul\":1826:1831   */\n      0x00\n        /* \"#utility.yul\":1864:1870   */\n      dup2\n        /* \"#utility.yul\":1851:1871   */\n      calldataload\n        /* \"#utility.yul\":1842:1871   */\n      swap1\n      pop\n        /* \"#utility.yul\":1880:1913   */\n      tag_110\n        /* \"#utility.yul\":1907:1912   */\n      dup2\n        /* \"#utility.yul\":1880:1913   */\n      tag_74\n      jump\t// in\n    tag_110:\n        /* \"#utility.yul\":1780:1919   */\n      swap3\n      swap2\n      pop\n      pop\n      jump\t// out\n        /* \"#utility.yul\":1925:2254   */\n    tag_17:\n        /* \"#utility.yul\":1984:1990   */\n      0x00\n        /* \"#utility.yul\":2033:2035   */\n      0x20\n        /* \"#utility.yul\":2021:2030   */\n      dup3\n        /* \"#utility.yul\":2012:2019   */\n      dup5\n        /* \"#utility.yul\":2008:2031   */\n      sub\n        /* \"#utility.yul\":2004:2036   */\n      slt\n        /* \"#utility.yul\":2001:2120   */\n      iszero\n      tag_112\n      jumpi\n        /* \"#utility.yul\":2039:2118   */\n      tag_113\n      tag_71\n      jump\t// in\n    tag_113:\n        /* \"#utility.yul\":2001:2120   */\n    tag_112:\n        /* \"#utility.yul\":2159:2160   */\n      0x00\n        /* \"#utility.yul\":2184:2237   */\n      tag_114\n        /* \"#utility.yul\":2229:2236   */\n      dup5\n        /* \"#utility.yul\":2220:2226   */\n      dup3\n        /* \"#utility.yul\":2209:2218   */\n      dup6\n        /* \"#utility.yul\":2205:2227   */\n      add\n        /* \"#utility.yul\":2184:2237   */\n      tag_75\n      jump\t// in\n    tag_114:\n        /* \"#utility.yul\":2174:2237   */\n      swap2\n      pop\n        /* \"#utility.yul\":2130:2247   */\n      pop\n        /* \"#utility.yul\":1925:2254   */\n      swap3\n      swap2\n      pop\n      pop\n      jump\t// out\n        /* \"#utility.yul\":2260:2386   */\n    tag_76:\n        /* \"#utility.yul\":2297:2304   */\n      0x00\n        /* \"#utility.yul\":2337:2379   */\n      0xffffffffffffffffffffffffffffffffffffffff\n        /* \"#utility.yul\":2330:2335   */\n      dup3\n        /* \"#utility.yul\":2326:2380   */\n      and\n        /* \"#utility.yul\":2315:2380   */\n      swap1\n      pop\n        /* \"#utility.yul\":2260:2386   */\n      swap2\n      swap1\n      pop\n      jump\t// out\n        /* \"#utility.yul\":2392:2488   */\n    tag_77:\n        /* \"#utility.yul\":2429:2436   */\n      0x00\n        /* \"#utility.yul\":2458:2482   */\n      tag_117\n        /* \"#utility.yul\":2476:2481   */\n      dup3\n        /* \"#utility.yul\":2458:2482   */\n      tag_76\n      jump\t// in\n    tag_117:\n        /* \"#utility.yul\":2447:2482   */\n      swap1\n      pop\n        /* \"#utility.yul\":2392:2488   */\n      swap2\n      swap1\n      pop\n      jump\t// out\n        /* \"#utility.yul\":2494:2616   */\n    tag_78:\n        /* \"#utility.yul\":2567:2591   */\n      tag_119\n        /* \"#utility.yul\":2585:2590   */\n      dup2\n        /* \"#utility.yul\":2567:2591   */\n      tag_77\n      jump\t// in\n    tag_119:\n        /* \"#utility.yul\":2560:2565   */\n      dup2\n        /* \"#utility.yul\":2557:2592   */\n      eq\n        /* \"#utility.yul\":2547:2610   */\n      tag_120\n      jumpi\n        /* \"#utility.yul\":2606:2607   */\n      0x00\n        /* \"#utility.yul\":2603:2604   */\n      0x00\n        /* \"#utility.yul\":2596:2608   */\n      revert\n        /* \"#utility.yul\":2547:2610   */\n    tag_120:\n        /* \"#utility.yul\":2494:2616   */\n      pop\n      jump\t// out\n        /* \"#utility.yul\":2622:2761   */\n    tag_79:\n        /* \"#utility.yul\":2668:2673   */\n      0x00\n        /* \"#utility.yul\":2706:2712   */\n      dup2\n        /* \"#utility.yul\":2693:2713   */\n      calldataload\n        /* \"#utility.yul\":2684:2713   */\n      swap1\n      pop\n        /* \"#utility.yul\":2722:2755   */\n      tag_122\n        /* \"#utility.yul\":2749:2754   */\n      dup2\n        /* \"#utility.yul\":2722:2755   */\n      tag_78\n      jump\t// in\n    tag_122:\n        /* \"#utility.yul\":2622:2761   */\n      swap3\n      swap2\n      pop\n      pop\n      jump\t// out\n        /* \"#utility.yul\":2767:3096   */\n    tag_22:\n        /* \"#utility.yul\":2826:2832   */\n      0x00\n        /* \"#utility.yul\":2875:2877   */\n      0x20\n        /* \"#utility.yul\":2863:2872   */\n      dup3\n        /* \"#utility.yul\":2854:2861   */\n      dup5\n        /* \"#utility.yul\":2850:2873   */\n      sub\n        /* \"#utility.yul\":2846:2878   */\n      slt\n        /* \"#utility.yul\":2843:2962   */\n      iszero\n      tag_124\n      jumpi\n        /* \"#utility.yul\":2881:2960   */\n      tag_125\n      tag_71\n      jump\t// in\n    tag_125:\n        /* \"#utility.yul\":2843:2962   */\n    tag_124:\n        /* \"#utility.yul\":3001:3002   */\n      0x00\n        /* \"#utility.yul\":3026:3079   */\n      tag_126\n        /* \"#utility.yul\":3071:3078   */\n      dup5\n        /* \"#utility.yul\":3062:3068   */\n      dup3\n        /* \"#utility.yul\":3051:3060   */\n      dup6\n        /* \"#utility.yul\":3047:3069   */\n      add\n        /* \"#utility.yul\":3026:3079   */\n      tag_79\n      jump\t// in\n    tag_126:\n        /* \"#utility.yul\":3016:3079   */\n      swap2\n      pop\n        /* \"#utility.yul\":2972:3089   */\n      pop\n        /* \"#utility.yul\":2767:3096   */\n      swap3\n      swap2\n      pop\n      pop\n      jump\t// out\n        /* \"#utility.yul\":3102:3192   */\n    tag_80:\n        /* \"#utility.yul\":3136:3143   */\n      0x00\n        /* \"#utility.yul\":3179:3184   */\n      dup2\n        /* \"#utility.yul\":3172:3185   */\n      iszero\n        /* \"#utility.yul\":3165:3186   */\n      iszero\n        /* \"#utility.yul\":3154:3186   */\n      swap1\n      pop\n        /* \"#utility.yul\":3102:3192   */\n      swap2\n      swap1\n      pop\n      jump\t// out\n        /* \"#utility.yul\":3198:3307   */\n    tag_81:\n        /* \"#utility.yul\":3279:3300   */\n      tag_129\n        /* \"#utility.yul\":3294:3299   */\n      dup2\n        /* \"#utility.yul\":3279:3300   */\n      tag_80\n      jump\t// in\n    tag_129:\n        /* \"#utility.yul\":3274:3277   */\n      dup3\n        /* \"#utility.yul\":3267:3301   */\n      mstore\n        /* \"#utility.yul\":3198:3307   */\n      pop\n      pop\n      jump\t// out\n        /* \"#utility.yul\":3313:3523   */\n    tag_25:\n        /* \"#utility.yul\":3400:3404   */\n      0x00\n        /* \"#utility.yul\":3438:3440   */\n      0x20\n        /* \"#utility.yul\":3427:3436   */\n      dup3\n        /* \"#utility.yul\":3423:3441   */\n      add\n        /* \"#utility.yul\":3415:3441   */\n      swap1\n      pop\n        /* \"#utility.yul\":3451:3516   */\n      tag_131\n        /* \"#utility.yul\":3513:3514   */\n      0x00\n        /* \"#utility.yul\":3502:3511   */\n      dup4\n        /* \"#utility.yul\":3498:3515   */\n      add\n        /* \"#utility.yul\":3489:3495   */\n      dup5\n        /* \"#utility.yul\":3451:3516   */\n      tag_81\n      jump\t// in\n    tag_131:\n        /* \"#utility.yul\":3313:3523   */\n      swap3\n      swap2\n      pop\n      pop\n      jump\t// out\n        /* \"#utility.yul\":3529:3647   */\n    tag_82:\n        /* \"#utility.yul\":3616:3640   */\n      tag_133\n        /* \"#utility.yul\":3634:3639   */\n      dup2\n        /* \"#utility.yul\":3616:3640   */\n      tag_73\n      jump\t// in\n    tag_133:\n        /* \"#utility.yul\":3611:3614   */\n      dup3\n        /* \"#utility.yul\":3604:3641   */\n      mstore\n        /* \"#utility.yul\":3529:3647   */\n      pop\n      pop\n      jump\t// out\n        /* \"#utility.yul\":3653:3875   */\n    tag_30:\n        /* \"#utility.yul\":3746:3750   */\n      0x00\n        /* \"#utility.yul\":3784:3786   */\n      0x20\n        /* \"#utility.yul\":3773:3782   */\n      dup3\n        /* \"#utility.yul\":3769:3787   */\n      add\n        /* \"#utility.yul\":3761:3787   */\n      swap1\n      pop\n        /* \"#utility.yul\":3797:3868   */\n      tag_135\n        /* \"#utility.yul\":3865:3866   */\n      0x00\n        /* \"#utility.yul\":3854:3863   */\n      dup4\n        /* \"#utility.yul\":3850:3867   */\n      add\n        /* \"#utility.yul\":3841:3847   */\n      dup5\n        /* \"#utility.yul\":3797:3868   */\n      tag_82\n      jump\t// in\n    tag_135:\n        /* \"#utility.yul\":3653:3875   */\n      swap3\n      swap2\n      pop\n      pop\n      jump\t// out\n        /* \"#utility.yul\":3881:4061   */\n    tag_83:\n        /* \"#utility.yul\":3929:4006   */\n      0x4e487b7100000000000000000000000000000000000000000000000000000000\n        /* \"#utility.yul\":3926:3927   */\n      0x00\n        /* \"#utility.yul\":3919:4007   */\n      mstore\n        /* \"#utility.yul\":4026:4030   */\n      0x22\n        /* \"#utility.yul\":4023:4024   */\n      0x04\n        /* \"#utility.yul\":4016:4031   */\n      mstore\n        /* \"#utility.yul\":4050:4054   */\n      0x24\n        /* \"#utility.yul\":4047:4048   */\n      0x00\n        /* \"#utility.yul\":4040:4055   */\n      revert\n        /* \"#utility.yul\":4067:4387   */\n    tag_42:\n        /* \"#utility.yul\":4111:4117   */\n      0x00\n        /* \"#utility.yul\":4148:4149   */\n      0x02\n        /* \"#utility.yul\":4142:4146   */\n      dup3\n        /* \"#utility.yul\":4138:4150   */\n      div\n        /* \"#utility.yul\":4128:4150   */\n      swap1\n      pop\n        /* \"#utility.yul\":4195:4196   */\n      0x01\n        /* \"#utility.yul\":4189:4193   */\n      dup3\n        /* \"#utility.yul\":4185:4197   */\n      and\n        /* \"#utility.yul\":4216:4234   */\n      dup1\n        /* \"#utility.yul\":4206:4287   */\n      tag_138\n      jumpi\n        /* \"#utility.yul\":4272:4276   */\n      0x7f\n        /* \"#utility.yul\":4264:4270   */\n      dup3\n        /* \"#utility.yul\":4260:4277   */\n      and\n        /* \"#utility.yul\":4250:4277   */\n      swap2\n      pop\n        /* \"#utility.yul\":4206:4287   */\n    tag_138:\n        /* \"#utility.yul\":4334:4336   */\n      0x20\n        /* \"#utility.yul\":4326:4332   */\n      dup3\n        /* \"#utility.yul\":4323:4337   */\n      lt\n        /* \"#utility.yul\":4303:4321   */\n      dup2\n        /* \"#utility.yul\":4300:4338   */\n      sub\n        /* \"#utility.yul\":4297:4381   */\n      tag_139\n      jumpi\n        /* \"#utility.yul\":4353:4371   */\n      tag_140\n      tag_83\n      jump\t// in\n    tag_140:\n        /* \"#utility.yul\":4297:4381   */\n    tag_139:\n        /* \"#utility.yul\":4118:4387   */\n      pop\n        /* \"#utility.yul\":4067:4387   */\n      swap2\n      swap1\n      pop\n      jump\t// out\n        /* \"#utility.yul\":4393:4557   */\n    tag_84:\n        /* \"#utility.yul\":4533:4549   */\n      0x496e76616c6964206f7074696f6e000000000000000000000000000000000000\n        /* \"#utility.yul\":4529:4530   */\n      0x00\n        /* \"#utility.yul\":4521:4527   */\n      dup3\n        /* \"#utility.yul\":4517:4531   */\n      add\n        /* \"#utility.yul\":4510:4550   */\n      mstore\n        /* \"#utility.yul\":4393:4557   */\n      pop\n      jump\t// out\n        /* \"#utility.yul\":4563:4929   */\n    tag_85:\n        /* \"#utility.yul\":4705:4708   */\n      0x00\n        /* \"#utility.yul\":4726:4793   */\n      tag_143\n        /* \"#utility.yul\":4790:4792   */\n      0x0e\n        /* \"#utility.yul\":4785:4788   */\n      dup4\n        /* \"#utility.yul\":4726:4793   */\n      tag_66\n      jump\t// in\n    tag_143:\n        /* \"#utility.yul\":4719:4793   */\n      swap2\n      pop\n        /* \"#utility.yul\":4802:4895   */\n      tag_144\n        /* \"#utility.yul\":4891:4894   */\n      dup3\n        /* \"#utility.yul\":4802:4895   */\n      tag_84\n      jump\t// in\n    tag_144:\n        /* \"#utility.yul\":4920:4922   */\n      0x20\n        /* \"#utility.yul\":4915:4918   */\n      dup3\n        /* \"#utility.yul\":4911:4923   */\n      add\n        /* \"#utility.yul\":4904:4923   */\n      swap1\n      pop\n        /* \"#utility.yul\":4563:4929   */\n      swap2\n      swap1\n      pop\n      jump\t// out\n        /* \"#utility.yul\":4935:5354   */\n    tag_57:\n        /* \"#utility.yul\":5101:5105   */\n      0x00\n        /* \"#utility.yul\":5139:5141   */\n      0x20\n        /* \"#utility.yul\":5128:5137   */\n      dup3\n        /* \"#utility.yul\":5124:5142   */\n      add\n        /* \"#utility.yul\":5116:5142   */\n      swap1\n      pop\n        /* \"#utility.yul\":5188:5197   */\n      dup2\n        /* \"#utility.yul\":5182:5186   */\n      dup2\n        /* \"#utility.yul\":5178:5198   */\n      sub\n        /* \"#utility.yul\":5174:5175   */\n      0x00\n        /* \"#utility.yul\":5163:5172   */\n      dup4\n        /* \"#utility.yul\":5159:5176   */\n      add\n        /* \"#utility.yul\":5152:5199   */\n      mstore\n        /* \"#utility.yul\":5216:5347   */\n      tag_146\n        /* \"#utility.yul\":5342:5346   */\n      dup2\n        /* \"#utility.yul\":5216:5347   */\n      tag_85\n      jump\t// in\n    tag_146:\n        /* \"#utility.yul\":5208:5347   */\n      swap1\n      pop\n        /* \"#utility.yul\":4935:5354   */\n      swap2\n      swap1\n      pop\n      jump\t// out\n        /* \"#utility.yul\":5360:5527   */\n    tag_86:\n        /* \"#utility.yul\":5500:5519   */\n      0x416c726561647920616e73776572656421000000000000000000000000000000\n        /* \"#utility.yul\":5496:5497   */\n      0x00\n        /* \"#utility.yul\":5488:5494   */\n      dup3\n        /* \"#utility.yul\":5484:5498   */\n      add\n        /* \"#utility.yul\":5477:5520   */\n      mstore\n        /* \"#utility.yul\":5360:5527   */\n      pop\n      jump\t// out\n        /* \"#utility.yul\":5533:5899   */\n    tag_87:\n        /* \"#utility.yul\":5675:5678   */\n      0x00\n        /* \"#utility.yul\":5696:5763   */\n      tag_149\n        /* \"#utility.yul\":5760:5762   */\n      0x11\n        /* \"#utility.yul\":5755:5758   */\n      dup4\n        /* \"#utility.yul\":5696:5763   */\n      tag_66\n      jump\t// in\n    tag_149:\n        /* \"#utility.yul\":5689:5763   */\n      swap2\n      pop\n        /* \"#utility.yul\":5772:5865   */\n      tag_150\n        /* \"#utility.yul\":5861:5864   */\n      dup3\n        /* \"#utility.yul\":5772:5865   */\n      tag_86\n      jump\t// in\n    tag_150:\n        /* \"#utility.yul\":5890:5892   */\n      0x20\n        /* \"#utility.yul\":5885:5888   */\n      dup3\n        /* \"#utility.yul\":5881:5893   */\n      add\n        /* \"#utility.yul\":5874:5893   */\n      swap1\n      pop\n        /* \"#utility.yul\":5533:5899   */\n      swap2\n      swap1\n      pop\n      jump\t// out\n        /* \"#utility.yul\":5905:6324   */\n    tag_60:\n        /* \"#utility.yul\":6071:6075   */\n      0x00\n        /* \"#utility.yul\":6109:6111   */\n      0x20\n        /* \"#utility.yul\":6098:6107   */\n      dup3\n        /* \"#utility.yul\":6094:6112   */\n      add\n        /* \"#utility.yul\":6086:6112   */\n      swap1\n      pop\n        /* \"#utility.yul\":6158:6167   */\n      dup2\n        /* \"#utility.yul\":6152:6156   */\n      dup2\n        /* \"#utility.yul\":6148:6168   */\n      sub\n        /* \"#utility.yul\":6144:6145   */\n      0x00\n        /* \"#utility.yul\":6133:6142   */\n      dup4\n        /* \"#utility.yul\":6129:6146   */\n      add\n        /* \"#utility.yul\":6122:6169   */\n      mstore\n        /* \"#utility.yul\":6186:6317   */\n      tag_152\n        /* \"#utility.yul\":6312:6316   */\n      dup2\n        /* \"#utility.yul\":6186:6317   */\n      tag_87\n      jump\t// in\n    tag_152:\n        /* \"#utility.yul\":6178:6317   */\n      swap1\n      pop\n        /* \"#utility.yul\":5905:6324   */\n      swap2\n      swap1\n      pop\n      jump\t// out\n        /* \"#utility.yul\":6330:6507   */\n    tag_88:\n        /* \"#utility.yul\":6470:6499   */\n      0x506c6179657220686173206e6f7420616e737765726564207965740000000000\n        /* \"#utility.yul\":6466:6467   */\n      0x00\n        /* \"#utility.yul\":6458:6464   */\n      dup3\n        /* \"#utility.yul\":6454:6468   */\n      add\n        /* \"#utility.yul\":6447:6500   */\n      mstore\n        /* \"#utility.yul\":6330:6507   */\n      pop\n      jump\t// out\n        /* \"#utility.yul\":6513:6879   */\n    tag_89:\n        /* \"#utility.yul\":6655:6658   */\n      0x00\n        /* \"#utility.yul\":6676:6743   */\n      tag_155\n        /* \"#utility.yul\":6740:6742   */\n      0x1b\n        /* \"#utility.yul\":6735:6738   */\n      dup4\n        /* \"#utility.yul\":6676:6743   */\n      tag_66\n      jump\t// in\n    tag_155:\n        /* \"#utility.yul\":6669:6743   */\n      swap2\n      pop\n        /* \"#utility.yul\":6752:6845   */\n      tag_156\n        /* \"#utility.yul\":6841:6844   */\n      dup3\n        /* \"#utility.yul\":6752:6845   */\n      tag_88\n      jump\t// in\n    tag_156:\n        /* \"#utility.yul\":6870:6872   */\n      0x20\n        /* \"#utility.yul\":6865:6868   */\n      dup3\n        /* \"#utility.yul\":6861:6873   */\n      add\n        /* \"#utility.yul\":6854:6873   */\n      swap1\n      pop\n        /* \"#utility.yul\":6513:6879   */\n      swap2\n      swap1\n      pop\n      jump\t// out\n        /* \"#utility.yul\":6885:7304   */\n    tag_64:\n        /* \"#utility.yul\":7051:7055   */\n      0x00\n        /* \"#utility.yul\":7089:7091   */\n      0x20\n        /* \"#utility.yul\":7078:7087   */\n      dup3\n        /* \"#utility.yul\":7074:7092   */\n      add\n        /* \"#utility.yul\":7066:7092   */\n      swap1\n      pop\n        /* \"#utility.yul\":7138:7147   */\n      dup2\n        /* \"#utility.yul\":7132:7136   */\n      dup2\n        /* \"#utility.yul\":7128:7148   */\n      sub\n        /* \"#utility.yul\":7124:7125   */\n      0x00\n        /* \"#utility.yul\":7113:7122   */\n      dup4\n        /* \"#utility.yul\":7109:7126   */\n      add\n        /* \"#utility.yul\":7102:7149   */\n      mstore\n        /* \"#utility.yul\":7166:7297   */\n      tag_158\n        /* \"#utility.yul\":7292:7296   */\n      dup2\n        /* \"#utility.yul\":7166:7297   */\n      tag_89\n      jump\t// in\n    tag_158:\n        /* \"#utility.yul\":7158:7297   */\n      swap1\n      pop\n        /* \"#utility.yul\":6885:7304   */\n      swap2\n      swap1\n      pop\n      jump\t// out\n\n    auxdata: 0xa2646970667358221220ac1dab01dbae780746863f8d6836380b8f66fec09d33dbd4b8bea66273acda8564736f6c634300081e0033\n}\n",
				"bytecode": {
					"linkReferences": {},
					"object": "6080604052604051806060016040528060228152602001610df6602291395f908161002a919061044a565b5060405180608001604052806040518060400160405280600581526020017f4468616b6100000000000000000000000000000000000000000000000000000081525081526020016040518060400160405280600a81526020017f436869747461676f6e670000000000000000000000000000000000000000000081525081526020016040518060400160405280600681526020017f4b68756c6e61000000000000000000000000000000000000000000000000000081525081526020016040518060400160405280600681526020017f53796c68657400000000000000000000000000000000000000000000000000008152508152506001906004610130929190610146565b505f600555348015610140575f5ffd5b50610519565b8260048101928215610181579160200282015b82811115610180578251829081610170919061044a565b5091602001919060010190610159565b5b50905061018e9190610192565b5090565b5b808211156101b1575f81816101a891906101b5565b50600101610193565b5090565b5080546101c190610271565b5f825580601f106101d257506101ef565b601f0160209004905f5260205f20908101906101ee91906101f2565b5b50565b5b80821115610209575f815f9055506001016101f3565b5090565b5f81519050919050565b7f4e487b71000000000000000000000000000000000000000000000000000000005f52604160045260245ffd5b7f4e487b71000000000000000000000000000000000000000000000000000000005f52602260045260245ffd5b5f600282049050600182168061028857607f821691505b60208210810361029b5761029a610244565b5b50919050565b5f819050815f5260205f209050919050565b5f6020601f8301049050919050565b5f82821b905092915050565b5f600883026102fd7fffffffffffffffffffffffffffffffffffffffffffffffffffffffffffffffff826102c2565b61030786836102c2565b95508019841693508086168417925050509392505050565b5f819050919050565b5f819050919050565b5f61034b6103466103418461031f565b610328565b61031f565b9050919050565b5f819050919050565b61036483610331565b61037861037082610352565b8484546102ce565b825550505050565b5f5f905090565b61038f610380565b61039a81848461035b565b505050565b5b818110156103bd576103b25f82610387565b6001810190506103a0565b5050565b601f821115610402576103d3816102a1565b6103dc846102b3565b810160208510156103eb578190505b6103ff6103f7856102b3565b83018261039f565b50505b505050565b5f82821c905092915050565b5f6104225f1984600802610407565b1980831691505092915050565b5f61043a8383610413565b9150826002028217905092915050565b6104538261020d565b67ffffffffffffffff81111561046c5761046b610217565b5b6104768254610271565b6104818282856103c1565b5f60209050601f8311600181146104b2575f84156104a0578287015190505b6104aa858261042f565b865550610511565b601f1984166104c0866102a1565b5f5b828110156104e7578489015182556001820191506020850194506020810190506104c2565b868310156105045784890151610500601f891682610413565b8355505b6001600288020188555050505b505050505050565b6108d0806105265f395ff3fe608060405234801561000f575f5ffd5b506004361061007b575f3560e01c80635e9618e7116100595780635e9618e7146100fd5780637c3572c21461012d5780639cc4959e14610149578063b23ab54c146101675761007b565b80633fad9ae01461007f578063409e22051461009d5780635b67bdb4146100cd575b5f5ffd5b610087610197565b60405161009491906105a3565b60405180910390f35b6100b760048036038101906100b291906105fa565b610222565b6040516100c491906105a3565b60405180910390f35b6100e760048036038101906100e2919061067f565b6102c1565b6040516100f491906106c4565b60405180910390f35b6101176004803603810190610112919061067f565b6102de565b60405161012491906106ec565b60405180910390f35b610147600480360381019061014291906105fa565b6102f3565b005b61015161045a565b60405161015e91906106ec565b60405180910390f35b610181600480360381019061017c919061067f565b610460565b60405161018e91906106c4565b60405180910390f35b5f80546101a390610732565b80601f01602080910402602001604051908101604052809291908181526020018280546101cf90610732565b801561021a5780601f106101f15761010080835404028352916020019161021a565b820191905f5260205f20905b8154815290600101906020018083116101fd57829003601f168201915b505050505081565b60018160048110610231575f80fd5b015f91509050805461024290610732565b80601f016020809104026020016040519081016040528092919081815260200182805461026e90610732565b80156102b95780601f10610290576101008083540402835291602001916102b9565b820191905f5260205f20905b81548152906001019060200180831161029c57829003601f168201915b505050505081565b6007602052805f5260405f205f915054906101000a900460ff1681565b6006602052805f5260405f205f915090505481565b60048110610336576040517f08c379a000000000000000000000000000000000000000000000000000000000815260040161032d906107ac565b60405180910390fd5b60075f3373ffffffffffffffffffffffffffffffffffffffff1673ffffffffffffffffffffffffffffffffffffffff1681526020019081526020015f205f9054906101000a900460ff16156103c0576040517f08c379a00000000000000000000000000000000000000000000000000000000081526004016103b790610814565b60405180910390fd5b8060065f3373ffffffffffffffffffffffffffffffffffffffff1673ffffffffffffffffffffffffffffffffffffffff1681526020019081526020015f2081905550600160075f3373ffffffffffffffffffffffffffffffffffffffff1673ffffffffffffffffffffffffffffffffffffffff1681526020019081526020015f205f6101000a81548160ff02191690831515021790555050565b60055481565b5f60075f8373ffffffffffffffffffffffffffffffffffffffff1673ffffffffffffffffffffffffffffffffffffffff1681526020019081526020015f205f9054906101000a900460ff166104ea576040517f08c379a00000000000000000000000000000000000000000000000000000000081526004016104e19061087c565b60405180910390fd5b60055460065f8473ffffffffffffffffffffffffffffffffffffffff1673ffffffffffffffffffffffffffffffffffffffff1681526020019081526020015f2054149050919050565b5f81519050919050565b5f82825260208201905092915050565b8281835e5f83830152505050565b5f601f19601f8301169050919050565b5f61057582610533565b61057f818561053d565b935061058f81856020860161054d565b6105988161055b565b840191505092915050565b5f6020820190508181035f8301526105bb818461056b565b905092915050565b5f5ffd5b5f819050919050565b6105d9816105c7565b81146105e3575f5ffd5b50565b5f813590506105f4816105d0565b92915050565b5f6020828403121561060f5761060e6105c3565b5b5f61061c848285016105e6565b91505092915050565b5f73ffffffffffffffffffffffffffffffffffffffff82169050919050565b5f61064e82610625565b9050919050565b61065e81610644565b8114610668575f5ffd5b50565b5f8135905061067981610655565b92915050565b5f60208284031215610694576106936105c3565b5b5f6106a18482850161066b565b91505092915050565b5f8115159050919050565b6106be816106aa565b82525050565b5f6020820190506106d75f8301846106b5565b92915050565b6106e6816105c7565b82525050565b5f6020820190506106ff5f8301846106dd565b92915050565b7f4e487b71000000000000000000000000000000000000000000000000000000005f52602260045260245ffd5b5f600282049050600182168061074957607f821691505b60208210810361075c5761075b610705565b5b50919050565b7f496e76616c6964206f7074696f6e0000000000000000000000000000000000005f82015250565b5f610796600e8361053d565b91506107a182610762565b602082019050919050565b5f6020820190508181035f8301526107c38161078a565b9050919050565b7f416c726561647920616e737765726564210000000000000000000000000000005f82015250565b5f6107fe60118361053d565b9150610809826107ca565b602082019050919050565b5f6020820190508181035f83015261082b816107f2565b9050919050565b7f506c6179657220686173206e6f7420616e7377657265642079657400000000005f82015250565b5f610866601b8361053d565b915061087182610832565b602082019050919050565b5f6020820190508181035f8301526108938161085a565b905091905056fea2646970667358221220ac1dab01dbae780746863f8d6836380b8f66fec09d33dbd4b8bea66273acda8564736f6c634300081e00335768617420697320746865206361706974616c206f662042616e676c61646573683f",
					"opcodes": "PUSH1 0x80 PUSH1 0x40 MSTORE PUSH1 0x40 MLOAD DUP1 PUSH1 0x60 ADD PUSH1 0x40 MSTORE DUP1 PUSH1 0x22 DUP2 MSTORE PUSH1 0x20 ADD PUSH2 0xDF6 PUSH1 0x22 SWAP2 CODECOPY PUSH0 SWAP1 DUP2 PUSH2 0x2A SWAP2 SWAP1 PUSH2 0x44A JUMP JUMPDEST POP PUSH1 0x40 MLOAD DUP1 PUSH1 0x80 ADD PUSH1 0x40 MSTORE DUP1 PUSH1 0x40 MLOAD DUP1 PUSH1 0x40 ADD PUSH1 0x40 MSTORE DUP1 PUSH1 0x5 DUP2 MSTORE PUSH1 0x20 ADD PUSH32 0x4468616B61000000000000000000000000000000000000000000000000000000 DUP2 MSTORE POP DUP2 MSTORE PUSH1 0x20 ADD PUSH1 0x40 MLOAD DUP1 PUSH1 0x40 ADD PUSH1 0x40 MSTORE DUP1 PUSH1 0xA DUP2 MSTORE PUSH1 0x20 ADD PUSH32 0x436869747461676F6E6700000000000000000000000000000000000000000000 DUP2 MSTORE POP DUP2 MSTORE PUSH1 0x20 ADD PUSH1 0x40 MLOAD DUP1 PUSH1 0x40 ADD PUSH1 0x40 MSTORE DUP1 PUSH1 0x6 DUP2 MSTORE PUSH1 0x20 ADD PUSH32 0x4B68756C6E610000000000000000000000000000000000000000000000000000 DUP2 MSTORE POP DUP2 MSTORE PUSH1 0x20 ADD PUSH1 0x40 MLOAD DUP1 PUSH1 0x40 ADD PUSH1 0x40 MSTORE DUP1 PUSH1 0x6 DUP2 MSTORE PUSH1 0x20 ADD PUSH32 0x53796C6865740000000000000000000000000000000000000000000000000000 DUP2 MSTORE POP DUP2 MSTORE POP PUSH1 0x1 SWAP1 PUSH1 0x4 PUSH2 0x130 SWAP3 SWAP2 SWAP1 PUSH2 0x146 JUMP JUMPDEST POP PUSH0 PUSH1 0x5 SSTORE CALLVALUE DUP1 ISZERO PUSH2 0x140 JUMPI PUSH0 PUSH0 REVERT JUMPDEST POP PUSH2 0x519 JUMP JUMPDEST DUP3 PUSH1 0x4 DUP2 ADD SWAP3 DUP3 ISZERO PUSH2 0x181 JUMPI SWAP2 PUSH1 0x20 MUL DUP3 ADD JUMPDEST DUP3 DUP2 GT ISZERO PUSH2 0x180 JUMPI DUP3 MLOAD DUP3 SWAP1 DUP2 PUSH2 0x170 SWAP2 SWAP1 PUSH2 0x44A JUMP JUMPDEST POP SWAP2 PUSH1 0x20 ADD SWAP2 SWAP1 PUSH1 0x1 ADD SWAP1 PUSH2 0x159 JUMP JUMPDEST JUMPDEST POP SWAP1 POP PUSH2 0x18E SWAP2 SWAP1 PUSH2 0x192 JUMP JUMPDEST POP SWAP1 JUMP JUMPDEST JUMPDEST DUP1 DUP3 GT ISZERO PUSH2 0x1B1 JUMPI PUSH0 DUP2 DUP2 PUSH2 0x1A8 SWAP2 SWAP1 PUSH2 0x1B5 JUMP JUMPDEST POP PUSH1 0x1 ADD PUSH2 0x193 JUMP JUMPDEST POP SWAP1 JUMP JUMPDEST POP DUP1 SLOAD PUSH2 0x1C1 SWAP1 PUSH2 0x271 JUMP JUMPDEST PUSH0 DUP3 SSTORE DUP1 PUSH1 0x1F LT PUSH2 0x1D2 JUMPI POP PUSH2 0x1EF JUMP JUMPDEST PUSH1 0x1F ADD PUSH1 0x20 SWAP1 DIV SWAP1 PUSH0 MSTORE PUSH1 0x20 PUSH0 KECCAK256 SWAP1 DUP2 ADD SWAP1 PUSH2 0x1EE SWAP2 SWAP1 PUSH2 0x1F2 JUMP JUMPDEST JUMPDEST POP JUMP JUMPDEST JUMPDEST DUP1 DUP3 GT ISZERO PUSH2 0x209 JUMPI PUSH0 DUP2 PUSH0 SWAP1 SSTORE POP PUSH1 0x1 ADD PUSH2 0x1F3 JUMP JUMPDEST POP SWAP1 JUMP JUMPDEST PUSH0 DUP2 MLOAD SWAP1 POP SWAP2 SWAP1 POP JUMP JUMPDEST PUSH32 0x4E487B7100000000000000000000000000000000000000000000000000000000 PUSH0 MSTORE PUSH1 0x41 PUSH1 0x4 MSTORE PUSH1 0x24 PUSH0 REVERT JUMPDEST PUSH32 0x4E487B7100000000000000000000000000000000000000000000000000000000 PUSH0 MSTORE PUSH1 0x22 PUSH1 0x4 MSTORE PUSH1 0x24 PUSH0 REVERT JUMPDEST PUSH0 PUSH1 0x2 DUP3 DIV SWAP1 POP PUSH1 0x1 DUP3 AND DUP1 PUSH2 0x288 JUMPI PUSH1 0x7F DUP3 AND SWAP2 POP JUMPDEST PUSH1 0x20 DUP3 LT DUP2 SUB PUSH2 0x29B JUMPI PUSH2 0x29A PUSH2 0x244 JUMP JUMPDEST JUMPDEST POP SWAP2 SWAP1 POP JUMP JUMPDEST PUSH0 DUP2 SWAP1 POP DUP2 PUSH0 MSTORE PUSH1 0x20 PUSH0 KECCAK256 SWAP1 POP SWAP2 SWAP1 POP JUMP JUMPDEST PUSH0 PUSH1 0x20 PUSH1 0x1F DUP4 ADD DIV SWAP1 POP SWAP2 SWAP1 POP JUMP JUMPDEST PUSH0 DUP3 DUP3 SHL SWAP1 POP SWAP3 SWAP2 POP POP JUMP JUMPDEST PUSH0 PUSH1 0x8 DUP4 MUL PUSH2 0x2FD PUSH32 0xFFFFFFFFFFFFFFFFFFFFFFFFFFFFFFFFFFFFFFFFFFFFFFFFFFFFFFFFFFFFFFFF DUP3 PUSH2 0x2C2 JUMP JUMPDEST PUSH2 0x307 DUP7 DUP4 PUSH2 0x2C2 JUMP JUMPDEST SWAP6 POP DUP1 NOT DUP5 AND SWAP4 POP DUP1 DUP7 AND DUP5 OR SWAP3 POP POP POP SWAP4 SWAP3 POP POP POP JUMP JUMPDEST PUSH0 DUP2 SWAP1 POP SWAP2 SWAP1 POP JUMP JUMPDEST PUSH0 DUP2 SWAP1 POP SWAP2 SWAP1 POP JUMP JUMPDEST PUSH0 PUSH2 0x34B PUSH2 0x346 PUSH2 0x341 DUP5 PUSH2 0x31F JUMP JUMPDEST PUSH2 0x328 JUMP JUMPDEST PUSH2 0x31F JUMP JUMPDEST SWAP1 POP SWAP2 SWAP1 POP JUMP JUMPDEST PUSH0 DUP2 SWAP1 POP SWAP2 SWAP1 POP JUMP JUMPDEST PUSH2 0x364 DUP4 PUSH2 0x331 JUMP JUMPDEST PUSH2 0x378 PUSH2 0x370 DUP3 PUSH2 0x352 JUMP JUMPDEST DUP5 DUP5 SLOAD PUSH2 0x2CE JUMP JUMPDEST DUP3 SSTORE POP POP POP POP JUMP JUMPDEST PUSH0 PUSH0 SWAP1 POP SWAP1 JUMP JUMPDEST PUSH2 0x38F PUSH2 0x380 JUMP JUMPDEST PUSH2 0x39A DUP2 DUP5 DUP5 PUSH2 0x35B JUMP JUMPDEST POP POP POP JUMP JUMPDEST JUMPDEST DUP2 DUP2 LT ISZERO PUSH2 0x3BD JUMPI PUSH2 0x3B2 PUSH0 DUP3 PUSH2 0x387 JUMP JUMPDEST PUSH1 0x1 DUP2 ADD SWAP1 POP PUSH2 0x3A0 JUMP JUMPDEST POP POP JUMP JUMPDEST PUSH1 0x1F DUP3 GT ISZERO PUSH2 0x402 JUMPI PUSH2 0x3D3 DUP2 PUSH2 0x2A1 JUMP JUMPDEST PUSH2 0x3DC DUP5 PUSH2 0x2B3 JUMP JUMPDEST DUP2 ADD PUSH1 0x20 DUP6 LT ISZERO PUSH2 0x3EB JUMPI DUP2 SWAP1 POP JUMPDEST PUSH2 0x3FF PUSH2 0x3F7 DUP6 PUSH2 0x2B3 JUMP JUMPDEST DUP4 ADD DUP3 PUSH2 0x39F JUMP JUMPDEST POP POP JUMPDEST POP POP POP JUMP JUMPDEST PUSH0 DUP3 DUP3 SHR SWAP1 POP SWAP3 SWAP2 POP POP JUMP JUMPDEST PUSH0 PUSH2 0x422 PUSH0 NOT DUP5 PUSH1 0x8 MUL PUSH2 0x407 JUMP JUMPDEST NOT DUP1 DUP4 AND SWAP2 POP POP SWAP3 SWAP2 POP POP JUMP JUMPDEST PUSH0 PUSH2 0x43A DUP4 DUP4 PUSH2 0x413 JUMP JUMPDEST SWAP2 POP DUP3 PUSH1 0x2 MUL DUP3 OR SWAP1 POP SWAP3 SWAP2 POP POP JUMP JUMPDEST PUSH2 0x453 DUP3 PUSH2 0x20D JUMP JUMPDEST PUSH8 0xFFFFFFFFFFFFFFFF DUP2 GT ISZERO PUSH2 0x46C JUMPI PUSH2 0x46B PUSH2 0x217 JUMP JUMPDEST JUMPDEST PUSH2 0x476 DUP3 SLOAD PUSH2 0x271 JUMP JUMPDEST PUSH2 0x481 DUP3 DUP3 DUP6 PUSH2 0x3C1 JUMP JUMPDEST PUSH0 PUSH1 0x20 SWAP1 POP PUSH1 0x1F DUP4 GT PUSH1 0x1 DUP2 EQ PUSH2 0x4B2 JUMPI PUSH0 DUP5 ISZERO PUSH2 0x4A0 JUMPI DUP3 DUP8 ADD MLOAD SWAP1 POP JUMPDEST PUSH2 0x4AA DUP6 DUP3 PUSH2 0x42F JUMP JUMPDEST DUP7 SSTORE POP PUSH2 0x511 JUMP JUMPDEST PUSH1 0x1F NOT DUP5 AND PUSH2 0x4C0 DUP7 PUSH2 0x2A1 JUMP JUMPDEST PUSH0 JUMPDEST DUP3 DUP2 LT ISZERO PUSH2 0x4E7 JUMPI DUP5 DUP10 ADD MLOAD DUP3 SSTORE PUSH1 0x1 DUP3 ADD SWAP2 POP PUSH1 0x20 DUP6 ADD SWAP5 POP PUSH1 0x20 DUP2 ADD SWAP1 POP PUSH2 0x4C2 JUMP JUMPDEST DUP7 DUP4 LT ISZERO PUSH2 0x504 JUMPI DUP5 DUP10 ADD MLOAD PUSH2 0x500 PUSH1 0x1F DUP10 AND DUP3 PUSH2 0x413 JUMP JUMPDEST DUP4 SSTORE POP JUMPDEST PUSH1 0x1 PUSH1 0x2 DUP9 MUL ADD DUP9 SSTORE POP POP POP JUMPDEST POP POP POP POP POP POP JUMP JUMPDEST PUSH2 0x8D0 DUP1 PUSH2 0x526 PUSH0 CODECOPY PUSH0 RETURN INVALID PUSH1 0x80 PUSH1 0x40 MSTORE CALLVALUE DUP1 ISZERO PUSH2 0xF JUMPI PUSH0 PUSH0 REVERT JUMPDEST POP PUSH1 0x4 CALLDATASIZE LT PUSH2 0x7B JUMPI PUSH0 CALLDATALOAD PUSH1 0xE0 SHR DUP1 PUSH4 0x5E9618E7 GT PUSH2 0x59 JUMPI DUP1 PUSH4 0x5E9618E7 EQ PUSH2 0xFD JUMPI DUP1 PUSH4 0x7C3572C2 EQ PUSH2 0x12D JUMPI DUP1 PUSH4 0x9CC4959E EQ PUSH2 0x149 JUMPI DUP1 PUSH4 0xB23AB54C EQ PUSH2 0x167 JUMPI PUSH2 0x7B JUMP JUMPDEST DUP1 PUSH4 0x3FAD9AE0 EQ PUSH2 0x7F JUMPI DUP1 PUSH4 0x409E2205 EQ PUSH2 0x9D JUMPI DUP1 PUSH4 0x5B67BDB4 EQ PUSH2 0xCD JUMPI JUMPDEST PUSH0 PUSH0 REVERT JUMPDEST PUSH2 0x87 PUSH2 0x197 JUMP JUMPDEST PUSH1 0x40 MLOAD PUSH2 0x94 SWAP2 SWAP1 PUSH2 0x5A3 JUMP JUMPDEST PUSH1 0x40 MLOAD DUP1 SWAP2 SUB SWAP1 RETURN JUMPDEST PUSH2 0xB7 PUSH1 0x4 DUP1 CALLDATASIZE SUB DUP2 ADD SWAP1 PUSH2 0xB2 SWAP2 SWAP1 PUSH2 0x5FA JUMP JUMPDEST PUSH2 0x222 JUMP JUMPDEST PUSH1 0x40 MLOAD PUSH2 0xC4 SWAP2 SWAP1 PUSH2 0x5A3 JUMP JUMPDEST PUSH1 0x40 MLOAD DUP1 SWAP2 SUB SWAP1 RETURN JUMPDEST PUSH2 0xE7 PUSH1 0x4 DUP1 CALLDATASIZE SUB DUP2 ADD SWAP1 PUSH2 0xE2 SWAP2 SWAP1 PUSH2 0x67F JUMP JUMPDEST PUSH2 0x2C1 JUMP JUMPDEST PUSH1 0x40 MLOAD PUSH2 0xF4 SWAP2 SWAP1 PUSH2 0x6C4 JUMP JUMPDEST PUSH1 0x40 MLOAD DUP1 SWAP2 SUB SWAP1 RETURN JUMPDEST PUSH2 0x117 PUSH1 0x4 DUP1 CALLDATASIZE SUB DUP2 ADD SWAP1 PUSH2 0x112 SWAP2 SWAP1 PUSH2 0x67F JUMP JUMPDEST PUSH2 0x2DE JUMP JUMPDEST PUSH1 0x40 MLOAD PUSH2 0x124 SWAP2 SWAP1 PUSH2 0x6EC JUMP JUMPDEST PUSH1 0x40 MLOAD DUP1 SWAP2 SUB SWAP1 RETURN JUMPDEST PUSH2 0x147 PUSH1 0x4 DUP1 CALLDATASIZE SUB DUP2 ADD SWAP1 PUSH2 0x142 SWAP2 SWAP1 PUSH2 0x5FA JUMP JUMPDEST PUSH2 0x2F3 JUMP JUMPDEST STOP JUMPDEST PUSH2 0x151 PUSH2 0x45A JUMP JUMPDEST PUSH1 0x40 MLOAD PUSH2 0x15E SWAP2 SWAP1 PUSH2 0x6EC JUMP JUMPDEST PUSH1 0x40 MLOAD DUP1 SWAP2 SUB SWAP1 RETURN JUMPDEST PUSH2 0x181 PUSH1 0x4 DUP1 CALLDATASIZE SUB DUP2 ADD SWAP1 PUSH2 0x17C SWAP2 SWAP1 PUSH2 0x67F JUMP JUMPDEST PUSH2 0x460 JUMP JUMPDEST PUSH1 0x40 MLOAD PUSH2 0x18E SWAP2 SWAP1 PUSH2 0x6C4 JUMP JUMPDEST PUSH1 0x40 MLOAD DUP1 SWAP2 SUB SWAP1 RETURN JUMPDEST PUSH0 DUP1 SLOAD PUSH2 0x1A3 SWAP1 PUSH2 0x732 JUMP JUMPDEST DUP1 PUSH1 0x1F ADD PUSH1 0x20 DUP1 SWAP2 DIV MUL PUSH1 0x20 ADD PUSH1 0x40 MLOAD SWAP1 DUP2 ADD PUSH1 0x40 MSTORE DUP1 SWAP3 SWAP2 SWAP1 DUP2 DUP2 MSTORE PUSH1 0x20 ADD DUP3 DUP1 SLOAD PUSH2 0x1CF SWAP1 PUSH2 0x732 JUMP JUMPDEST DUP1 ISZERO PUSH2 0x21A JUMPI DUP1 PUSH1 0x1F LT PUSH2 0x1F1 JUMPI PUSH2 0x100 DUP1 DUP4 SLOAD DIV MUL DUP4 MSTORE SWAP2 PUSH1 0x20 ADD SWAP2 PUSH2 0x21A JUMP JUMPDEST DUP3 ADD SWAP2 SWAP1 PUSH0 MSTORE PUSH1 0x20 PUSH0 KECCAK256 SWAP1 JUMPDEST DUP2 SLOAD DUP2 MSTORE SWAP1 PUSH1 0x1 ADD SWAP1 PUSH1 0x20 ADD DUP1 DUP4 GT PUSH2 0x1FD JUMPI DUP3 SWAP1 SUB PUSH1 0x1F AND DUP3 ADD SWAP2 JUMPDEST POP POP POP POP POP DUP2 JUMP JUMPDEST PUSH1 0x1 DUP2 PUSH1 0x4 DUP2 LT PUSH2 0x231 JUMPI PUSH0 DUP1 REVERT JUMPDEST ADD PUSH0 SWAP2 POP SWAP1 POP DUP1 SLOAD PUSH2 0x242 SWAP1 PUSH2 0x732 JUMP JUMPDEST DUP1 PUSH1 0x1F ADD PUSH1 0x20 DUP1 SWAP2 DIV MUL PUSH1 0x20 ADD PUSH1 0x40 MLOAD SWAP1 DUP2 ADD PUSH1 0x40 MSTORE DUP1 SWAP3 SWAP2 SWAP1 DUP2 DUP2 MSTORE PUSH1 0x20 ADD DUP3 DUP1 SLOAD PUSH2 0x26E SWAP1 PUSH2 0x732 JUMP JUMPDEST DUP1 ISZERO PUSH2 0x2B9 JUMPI DUP1 PUSH1 0x1F LT PUSH2 0x290 JUMPI PUSH2 0x100 DUP1 DUP4 SLOAD DIV MUL DUP4 MSTORE SWAP2 PUSH1 0x20 ADD SWAP2 PUSH2 0x2B9 JUMP JUMPDEST DUP3 ADD SWAP2 SWAP1 PUSH0 MSTORE PUSH1 0x20 PUSH0 KECCAK256 SWAP1 JUMPDEST DUP2 SLOAD DUP2 MSTORE SWAP1 PUSH1 0x1 ADD SWAP1 PUSH1 0x20 ADD DUP1 DUP4 GT PUSH2 0x29C JUMPI DUP3 SWAP1 SUB PUSH1 0x1F AND DUP3 ADD SWAP2 JUMPDEST POP POP POP POP POP DUP2 JUMP JUMPDEST PUSH1 0x7 PUSH1 0x20 MSTORE DUP1 PUSH0 MSTORE PUSH1 0x40 PUSH0 KECCAK256 PUSH0 SWAP2 POP SLOAD SWAP1 PUSH2 0x100 EXP SWAP1 DIV PUSH1 0xFF AND DUP2 JUMP JUMPDEST PUSH1 0x6 PUSH1 0x20 MSTORE DUP1 PUSH0 MSTORE PUSH1 0x40 PUSH0 KECCAK256 PUSH0 SWAP2 POP SWAP1 POP SLOAD DUP2 JUMP JUMPDEST PUSH1 0x4 DUP2 LT PUSH2 0x336 JUMPI PUSH1 0x40 MLOAD PUSH32 0x8C379A000000000000000000000000000000000000000000000000000000000 DUP2 MSTORE PUSH1 0x4 ADD PUSH2 0x32D SWAP1 PUSH2 0x7AC JUMP JUMPDEST PUSH1 0x40 MLOAD DUP1 SWAP2 SUB SWAP1 REVERT JUMPDEST PUSH1 0x7 PUSH0 CALLER PUSH20 0xFFFFFFFFFFFFFFFFFFFFFFFFFFFFFFFFFFFFFFFF AND PUSH20 0xFFFFFFFFFFFFFFFFFFFFFFFFFFFFFFFFFFFFFFFF AND DUP2 MSTORE PUSH1 0x20 ADD SWAP1 DUP2 MSTORE PUSH1 0x20 ADD PUSH0 KECCAK256 PUSH0 SWAP1 SLOAD SWAP1 PUSH2 0x100 EXP SWAP1 DIV PUSH1 0xFF AND ISZERO PUSH2 0x3C0 JUMPI PUSH1 0x40 MLOAD PUSH32 0x8C379A000000000000000000000000000000000000000000000000000000000 DUP2 MSTORE PUSH1 0x4 ADD PUSH2 0x3B7 SWAP1 PUSH2 0x814 JUMP JUMPDEST PUSH1 0x40 MLOAD DUP1 SWAP2 SUB SWAP1 REVERT JUMPDEST DUP1 PUSH1 0x6 PUSH0 CALLER PUSH20 0xFFFFFFFFFFFFFFFFFFFFFFFFFFFFFFFFFFFFFFFF AND PUSH20 0xFFFFFFFFFFFFFFFFFFFFFFFFFFFFFFFFFFFFFFFF AND DUP2 MSTORE PUSH1 0x20 ADD SWAP1 DUP2 MSTORE PUSH1 0x20 ADD PUSH0 KECCAK256 DUP2 SWAP1 SSTORE POP PUSH1 0x1 PUSH1 0x7 PUSH0 CALLER PUSH20 0xFFFFFFFFFFFFFFFFFFFFFFFFFFFFFFFFFFFFFFFF AND PUSH20 0xFFFFFFFFFFFFFFFFFFFFFFFFFFFFFFFFFFFFFFFF AND DUP2 MSTORE PUSH1 0x20 ADD SWAP1 DUP2 MSTORE PUSH1 0x20 ADD PUSH0 KECCAK256 PUSH0 PUSH2 0x100 EXP DUP2 SLOAD DUP2 PUSH1 0xFF MUL NOT AND SWAP1 DUP4 ISZERO ISZERO MUL OR SWAP1 SSTORE POP POP JUMP JUMPDEST PUSH1 0x5 SLOAD DUP2 JUMP JUMPDEST PUSH0 PUSH1 0x7 PUSH0 DUP4 PUSH20 0xFFFFFFFFFFFFFFFFFFFFFFFFFFFFFFFFFFFFFFFF AND PUSH20 0xFFFFFFFFFFFFFFFFFFFFFFFFFFFFFFFFFFFFFFFF AND DUP2 MSTORE PUSH1 0x20 ADD SWAP1 DUP2 MSTORE PUSH1 0x20 ADD PUSH0 KECCAK256 PUSH0 SWAP1 SLOAD SWAP1 PUSH2 0x100 EXP SWAP1 DIV PUSH1 0xFF AND PUSH2 0x4EA JUMPI PUSH1 0x40 MLOAD PUSH32 0x8C379A000000000000000000000000000000000000000000000000000000000 DUP2 MSTORE PUSH1 0x4 ADD PUSH2 0x4E1 SWAP1 PUSH2 0x87C JUMP JUMPDEST PUSH1 0x40 MLOAD DUP1 SWAP2 SUB SWAP1 REVERT JUMPDEST PUSH1 0x5 SLOAD PUSH1 0x6 PUSH0 DUP5 PUSH20 0xFFFFFFFFFFFFFFFFFFFFFFFFFFFFFFFFFFFFFFFF AND PUSH20 0xFFFFFFFFFFFFFFFFFFFFFFFFFFFFFFFFFFFFFFFF AND DUP2 MSTORE PUSH1 0x20 ADD SWAP1 DUP2 MSTORE PUSH1 0x20 ADD PUSH0 KECCAK256 SLOAD EQ SWAP1 POP SWAP2 SWAP1 POP JUMP JUMPDEST PUSH0 DUP2 MLOAD SWAP1 POP SWAP2 SWAP1 POP JUMP JUMPDEST PUSH0 DUP3 DUP3 MSTORE PUSH1 0x20 DUP3 ADD SWAP1 POP SWAP3 SWAP2 POP POP JUMP JUMPDEST DUP3 DUP2 DUP4 MCOPY PUSH0 DUP4 DUP4 ADD MSTORE POP POP POP JUMP JUMPDEST PUSH0 PUSH1 0x1F NOT PUSH1 0x1F DUP4 ADD AND SWAP1 POP SWAP2 SWAP1 POP JUMP JUMPDEST PUSH0 PUSH2 0x575 DUP3 PUSH2 0x533 JUMP JUMPDEST PUSH2 0x57F DUP2 DUP6 PUSH2 0x53D JUMP JUMPDEST SWAP4 POP PUSH2 0x58F DUP2 DUP6 PUSH1 0x20 DUP7 ADD PUSH2 0x54D JUMP JUMPDEST PUSH2 0x598 DUP2 PUSH2 0x55B JUMP JUMPDEST DUP5 ADD SWAP2 POP POP SWAP3 SWAP2 POP POP JUMP JUMPDEST PUSH0 PUSH1 0x20 DUP3 ADD SWAP1 POP DUP2 DUP2 SUB PUSH0 DUP4 ADD MSTORE PUSH2 0x5BB DUP2 DUP5 PUSH2 0x56B JUMP JUMPDEST SWAP1 POP SWAP3 SWAP2 POP POP JUMP JUMPDEST PUSH0 PUSH0 REVERT JUMPDEST PUSH0 DUP2 SWAP1 POP SWAP2 SWAP1 POP JUMP JUMPDEST PUSH2 0x5D9 DUP2 PUSH2 0x5C7 JUMP JUMPDEST DUP2 EQ PUSH2 0x5E3 JUMPI PUSH0 PUSH0 REVERT JUMPDEST POP JUMP JUMPDEST PUSH0 DUP2 CALLDATALOAD SWAP1 POP PUSH2 0x5F4 DUP2 PUSH2 0x5D0 JUMP JUMPDEST SWAP3 SWAP2 POP POP JUMP JUMPDEST PUSH0 PUSH1 0x20 DUP3 DUP5 SUB SLT ISZERO PUSH2 0x60F JUMPI PUSH2 0x60E PUSH2 0x5C3 JUMP JUMPDEST JUMPDEST PUSH0 PUSH2 0x61C DUP5 DUP3 DUP6 ADD PUSH2 0x5E6 JUMP JUMPDEST SWAP2 POP POP SWAP3 SWAP2 POP POP JUMP JUMPDEST PUSH0 PUSH20 0xFFFFFFFFFFFFFFFFFFFFFFFFFFFFFFFFFFFFFFFF DUP3 AND SWAP1 POP SWAP2 SWAP1 POP JUMP JUMPDEST PUSH0 PUSH2 0x64E DUP3 PUSH2 0x625 JUMP JUMPDEST SWAP1 POP SWAP2 SWAP1 POP JUMP JUMPDEST PUSH2 0x65E DUP2 PUSH2 0x644 JUMP JUMPDEST DUP2 EQ PUSH2 0x668 JUMPI PUSH0 PUSH0 REVERT JUMPDEST POP JUMP JUMPDEST PUSH0 DUP2 CALLDATALOAD SWAP1 POP PUSH2 0x679 DUP2 PUSH2 0x655 JUMP JUMPDEST SWAP3 SWAP2 POP POP JUMP JUMPDEST PUSH0 PUSH1 0x20 DUP3 DUP5 SUB SLT ISZERO PUSH2 0x694 JUMPI PUSH2 0x693 PUSH2 0x5C3 JUMP JUMPDEST JUMPDEST PUSH0 PUSH2 0x6A1 DUP5 DUP3 DUP6 ADD PUSH2 0x66B JUMP JUMPDEST SWAP2 POP POP SWAP3 SWAP2 POP POP JUMP JUMPDEST PUSH0 DUP2 ISZERO ISZERO SWAP1 POP SWAP2 SWAP1 POP JUMP JUMPDEST PUSH2 0x6BE DUP2 PUSH2 0x6AA JUMP JUMPDEST DUP3 MSTORE POP POP JUMP JUMPDEST PUSH0 PUSH1 0x20 DUP3 ADD SWAP1 POP PUSH2 0x6D7 PUSH0 DUP4 ADD DUP5 PUSH2 0x6B5 JUMP JUMPDEST SWAP3 SWAP2 POP POP JUMP JUMPDEST PUSH2 0x6E6 DUP2 PUSH2 0x5C7 JUMP JUMPDEST DUP3 MSTORE POP POP JUMP JUMPDEST PUSH0 PUSH1 0x20 DUP3 ADD SWAP1 POP PUSH2 0x6FF PUSH0 DUP4 ADD DUP5 PUSH2 0x6DD JUMP JUMPDEST SWAP3 SWAP2 POP POP JUMP JUMPDEST PUSH32 0x4E487B7100000000000000000000000000000000000000000000000000000000 PUSH0 MSTORE PUSH1 0x22 PUSH1 0x4 MSTORE PUSH1 0x24 PUSH0 REVERT JUMPDEST PUSH0 PUSH1 0x2 DUP3 DIV SWAP1 POP PUSH1 0x1 DUP3 AND DUP1 PUSH2 0x749 JUMPI PUSH1 0x7F DUP3 AND SWAP2 POP JUMPDEST PUSH1 0x20 DUP3 LT DUP2 SUB PUSH2 0x75C JUMPI PUSH2 0x75B PUSH2 0x705 JUMP JUMPDEST JUMPDEST POP SWAP2 SWAP1 POP JUMP JUMPDEST PUSH32 0x496E76616C6964206F7074696F6E000000000000000000000000000000000000 PUSH0 DUP3 ADD MSTORE POP JUMP JUMPDEST PUSH0 PUSH2 0x796 PUSH1 0xE DUP4 PUSH2 0x53D JUMP JUMPDEST SWAP2 POP PUSH2 0x7A1 DUP3 PUSH2 0x762 JUMP JUMPDEST PUSH1 0x20 DUP3 ADD SWAP1 POP SWAP2 SWAP1 POP JUMP JUMPDEST PUSH0 PUSH1 0x20 DUP3 ADD SWAP1 POP DUP2 DUP2 SUB PUSH0 DUP4 ADD MSTORE PUSH2 0x7C3 DUP2 PUSH2 0x78A JUMP JUMPDEST SWAP1 POP SWAP2 SWAP1 POP JUMP JUMPDEST PUSH32 0x416C726561647920616E73776572656421000000000000000000000000000000 PUSH0 DUP3 ADD MSTORE POP JUMP JUMPDEST PUSH0 PUSH2 0x7FE PUSH1 0x11 DUP4 PUSH2 0x53D JUMP JUMPDEST SWAP2 POP PUSH2 0x809 DUP3 PUSH2 0x7CA JUMP JUMPDEST PUSH1 0x20 DUP3 ADD SWAP1 POP SWAP2 SWAP1 POP JUMP JUMPDEST PUSH0 PUSH1 0x20 DUP3 ADD SWAP1 POP DUP2 DUP2 SUB PUSH0 DUP4 ADD MSTORE PUSH2 0x82B DUP2 PUSH2 0x7F2 JUMP JUMPDEST SWAP1 POP SWAP2 SWAP1 POP JUMP JUMPDEST PUSH32 0x506C6179657220686173206E6F7420616E737765726564207965740000000000 PUSH0 DUP3 ADD MSTORE POP JUMP JUMPDEST PUSH0 PUSH2 0x866 PUSH1 0x1B DUP4 PUSH2 0x53D JUMP JUMPDEST SWAP2 POP PUSH2 0x871 DUP3 PUSH2 0x832 JUMP JUMPDEST PUSH1 0x20 DUP3 ADD SWAP1 POP SWAP2 SWAP1 POP JUMP JUMPDEST PUSH0 PUSH1 0x20 DUP3 ADD SWAP1 POP DUP2 DUP2 SUB PUSH0 DUP4 ADD MSTORE PUSH2 0x893 DUP2 PUSH2 0x85A JUMP JUMPDEST SWAP1 POP SWAP2 SWAP1 POP JUMP INVALID LOG2 PUSH5 0x6970667358 0x22 SLT KECCAK256 0xAC SAR 0xAB ADD 0xDB 0xAE PUSH25 0x746863F8D6836380B8F66FEC09D33DBD4B8BEA66273ACDA85 PUSH5 0x736F6C6343 STOP ADDMOD 0x1E STOP CALLER JUMPI PUSH9 0x617420697320746865 KECCAK256 PUSH4 0x61706974 PUSH2 0x6C20 PUSH16 0x662042616E676C61646573683F000000 "
				},
				"gasEstimates": {
					"creation": {
						"codeDepositCost": "451200",
						"executionCost": "infinite",
						"totalCost": "infinite"
					},
					"external": {
						"answers(address)": "2802",
						"checkAnswer(address)": "7247",
						"correctAnswer()": "2469",
						"hasAnswered(address)": "2878",
						"options(uint256)": "infinite",
						"question()": "infinite",
						"submitAnswer(uint256)": "49242"
					}
				},
				"methodIdentifiers": {
					"answers(address)": "5e9618e7",
					"checkAnswer(address)": "b23ab54c",
					"correctAnswer()": "9cc4959e",
					"hasAnswered(address)": "5b67bdb4",
					"options(uint256)": "409e2205",
					"question()": "3fad9ae0",
					"submitAnswer(uint256)": "7c3572c2"
				}
			},
			"storageLayout": {
				"storage": [
					{
						"astId": 4,
						"contract": "contract/quiz.sol:QuizContract",
						"label": "question",
						"offset": 0,
						"slot": "0",
						"type": "t_string_storage"
					},
					{
						"astId": 13,
						"contract": "contract/quiz.sol:QuizContract",
						"label": "options",
						"offset": 0,
						"slot": "1",
						"type": "t_array(t_string_storage)4_storage"
					},
					{
						"astId": 16,
						"contract": "contract/quiz.sol:QuizContract",
						"label": "correctAnswer",
						"offset": 0,
						"slot": "5",
						"type": "t_uint256"
					},
					{
						"astId": 20,
						"contract": "contract/quiz.sol:QuizContract",
						"label": "answers",
						"offset": 0,
						"slot": "6",
						"type": "t_mapping(t_address,t_uint256)"
					},
					{
						"astId": 24,
						"contract": "contract/quiz.sol:QuizContract",
						"label": "hasAnswered",
						"offset": 0,
						"slot": "7",
						"type": "t_mapping(t_address,t_bool)"
					}
				],
				"types": {
					"t_address": {
						"encoding": "inplace",
						"label": "address",
						"numberOfBytes": "20"
					},
					"t_array(t_string_storage)4_storage": {
						"base": "t_string_storage",
						"encoding": "inplace",
						"label": "string[4]",
						"numberOfBytes": "128"
					},
					"t_bool": {
						"encoding": "inplace",
						"label": "bool",
						"numberOfBytes": "1"
					},
					"t_mapping(t_address,t_bool)": {
						"encoding": "mapping",
						"key": "t_address",
						"label": "mapping(address => bool)",
						"numberOfBytes": "32",
						"value": "t_bool"
					},
					"t_mapping(t_address,t_uint256)": {
						"encoding": "mapping",
						"key": "t_address",
						"label": "mapping(address => uint256)",
						"numberOfBytes": "32",
						"value": "t_uint256"
					},
					"t_string_storage": {
						"encoding": "bytes",
						"label": "string",
						"numberOfBytes": "32"
					},
					"t_uint256": {
						"encoding": "inplace",
						"label": "uint256",
						"numberOfBytes": "32"
					}
				}
			},
			"userdoc": {
				"kind": "user",
				"methods": {},
				"version": 1
			}
		}
	}
}