{
	"contract/5thClass.sol": {
		"Marketplace": {
			"abi": [
				{
					"inputs": [
						{
							"internalType": "string",
							"name": "name",
							"type": "string"
						},
						{
							"internalType": "uint256",
							"name": "price",
							"type": "uint256"
						}
					],
					"name": "addProduct",
					"outputs": [
						{
							"internalType": "uint256",
							"name": "",
							"type": "uint256"
						}
					],
					"stateMutability": "nonpayable",
					"type": "function"
				},
				{
					"inputs": [
						{
							"internalType": "uint256",
							"name": "",
							"type": "uint256"
						}
					],
					"name": "productById",
					"outputs": [
						{
							"internalType": "uint256",
							"name": "id",
							"type": "uint256"
						},
						{
							"internalType": "string",
							"name": "name",
							"type": "string"
						},
						{
							"internalType": "uint256",
							"name": "price",
							"type": "uint256"
						},
						{
							"internalType": "address",
							"name": "seller",
							"type": "address"
						},
						{
							"internalType": "bool",
							"name": "isAvailable",
							"type": "bool"
						}
					],
					"stateMutability": "view",
					"type": "function"
				},
				{
					"inputs": [
						{
							"internalType": "uint256",
							"name": "",
							"type": "uint256"
						}
					],
					"name": "products",
					"outputs": [
						{
							"internalType": "uint256",
							"name": "id",
							"type": "uint256"
						},
						{
							"internalType": "string",
							"name": "name",
							"type": "string"
						},
						{
							"internalType": "uint256",
							"name": "price",
							"type": "uint256"
						},
						{
							"internalType": "address",
							"name": "seller",
							"type": "address"
						},
						{
							"internalType": "bool",
							"name": "isAvailable",
							"type": "bool"
						}
					],
					"stateMutability": "view",
					"type": "function"
				},
				{
					"inputs": [
						{
							"internalType": "uint256",
							"name": "productId",
							"type": "uint256"
						},
						{
							"internalType": "string",
							"name": "newName",
							"type": "string"
						}
					],
					"name": "updateProductName",
					"outputs": [],
					"stateMutability": "nonpayable",
					"type": "function"
				},
				{
					"inputs": [
						{
							"internalType": "uint256",
							"name": "productId",
							"type": "uint256"
						},
						{
							"internalType": "uint256",
							"name": "newPrice",
							"type": "uint256"
						}
					],
					"name": "updateProductPrice",
					"outputs": [],
					"stateMutability": "nonpayable",
					"type": "function"
				}
			],
			"devdoc": {
				"kind": "dev",
				"methods": {},
				"version": 1
			},
			"evm": {
				"assembly": "    /* \"contract/5thClass.sol\":60:1253  contract Marketplace {... */\n  mstore(0x40, 0x80)\n  callvalue\n  dup1\n  iszero\n  tag_1\n  jumpi\n  0x00\n  dup1\n  revert\ntag_1:\n  pop\n  dataSize(sub_0)\n  dup1\n  dataOffset(sub_0)\n  0x00\n  codecopy\n  0x00\n  return\nstop\n\nsub_0: assembly {\n        /* \"contract/5thClass.sol\":60:1253  contract Marketplace {... */\n      mstore(0x40, 0x80)\n      callvalue\n      dup1\n      iszero\n      tag_1\n      jumpi\n      0x00\n      dup1\n      revert\n    tag_1:\n      pop\n      jumpi(tag_2, lt(calldatasize, 0x04))\n      shr(0xe0, calldataload(0x00))\n      dup1\n      0x26af03e2\n      eq\n      tag_3\n      jumpi\n      dup1\n      0x7acc0b20\n      eq\n      tag_4\n      jumpi\n      dup1\n      0x9c3bddb2\n      eq\n      tag_5\n      jumpi\n      dup1\n      0xa30b475f\n      eq\n      tag_6\n      jumpi\n      dup1\n      0xb15247d9\n      eq\n      tag_7\n      jumpi\n    tag_2:\n      0x00\n      dup1\n      revert\n        /* \"contract/5thClass.sol\":784:1068  function updateProductName(uint256 productId, string memory newName) public {... */\n    tag_3:\n      tag_8\n      0x04\n      dup1\n      calldatasize\n      sub\n      dup2\n      add\n      swap1\n      tag_9\n      swap2\n      swap1\n      tag_10\n      jump\t// in\n    tag_9:\n      tag_11\n      jump\t// in\n    tag_8:\n      stop\n        /* \"contract/5thClass.sol\":237:262  Product[] public products */\n    tag_4:\n      tag_12\n      0x04\n      dup1\n      calldatasize\n      sub\n      dup2\n      add\n      swap1\n      tag_13\n      swap2\n      swap1\n      tag_14\n      jump\t// in\n    tag_13:\n      tag_15\n      jump\t// in\n    tag_12:\n      mload(0x40)\n      tag_16\n      swap6\n      swap5\n      swap4\n      swap3\n      swap2\n      swap1\n      tag_17\n      jump\t// in\n    tag_16:\n      mload(0x40)\n      dup1\n      swap2\n      sub\n      swap1\n      return\n        /* \"contract/5thClass.sol\":1076:1250  function updateProductPrice(uint256 productId, uint256 newPrice) public {... */\n    tag_5:\n      tag_18\n      0x04\n      dup1\n      calldatasize\n      sub\n      dup2\n      add\n      swap1\n      tag_19\n      swap2\n      swap1\n      tag_20\n      jump\t// in\n    tag_19:\n      tag_21\n      jump\t// in\n    tag_18:\n      stop\n        /* \"contract/5thClass.sol\":269:315  mapping(uint256 => Product) public productById */\n    tag_6:\n      tag_22\n      0x04\n      dup1\n      calldatasize\n      sub\n      dup2\n      add\n      swap1\n      tag_23\n      swap2\n      swap1\n      tag_14\n      jump\t// in\n    tag_23:\n      tag_24\n      jump\t// in\n    tag_22:\n      mload(0x40)\n      tag_25\n      swap6\n      swap5\n      swap4\n      swap3\n      swap2\n      swap1\n      tag_17\n      jump\t// in\n    tag_25:\n      mload(0x40)\n      dup1\n      swap2\n      sub\n      swap1\n      return\n        /* \"contract/5thClass.sol\":324:776  function addProduct(string memory name, uint256 price)  public returns(uint256){... */\n    tag_7:\n      tag_26\n      0x04\n      dup1\n      calldatasize\n      sub\n      dup2\n      add\n      swap1\n      tag_27\n      swap2\n      swap1\n      tag_28\n      jump\t// in\n    tag_27:\n      tag_29\n      jump\t// in\n    tag_26:\n      mload(0x40)\n      tag_30\n      swap2\n      swap1\n      tag_31\n      jump\t// in\n    tag_30:\n      mload(0x40)\n      dup1\n      swap2\n      sub\n      swap1\n      return\n        /* \"contract/5thClass.sol\":784:1068  function updateProductName(uint256 productId, string memory newName) public {... */\n    tag_11:\n        /* \"contract/5thClass.sol\":871:894  Product storage product */\n      0x00\n        /* \"contract/5thClass.sol\":897:908  productById */\n      0x01\n        /* \"contract/5thClass.sol\":897:919  productById[productId] */\n      0x00\n        /* \"contract/5thClass.sol\":909:918  productId */\n      dup5\n        /* \"contract/5thClass.sol\":897:919  productById[productId] */\n      dup2\n      mstore\n      0x20\n      add\n      swap1\n      dup2\n      mstore\n      0x20\n      add\n      0x00\n      keccak256\n        /* \"contract/5thClass.sol\":871:919  Product storage product = productById[productId] */\n      swap1\n      pop\n        /* \"contract/5thClass.sol\":945:952  newName */\n      dup2\n        /* \"contract/5thClass.sol\":930:937  product */\n      dup2\n        /* \"contract/5thClass.sol\":930:942  product.name */\n      0x01\n      add\n        /* \"contract/5thClass.sol\":930:952  product.name = newName */\n      swap1\n      dup1\n      mload\n      swap1\n      0x20\n      add\n      swap1\n      tag_33\n      swap3\n      swap2\n      swap1\n      tag_34\n      jump\t// in\n    tag_33:\n      pop\n        /* \"contract/5thClass.sol\":965:991  Product memory tempProduct */\n      0x00\n        /* \"contract/5thClass.sol\":994:1005  productById */\n      0x01\n        /* \"contract/5thClass.sol\":994:1016  productById[productId] */\n      0x00\n        /* \"contract/5thClass.sol\":1006:1015  productId */\n      dup6\n        /* \"contract/5thClass.sol\":994:1016  productById[productId] */\n      dup2\n      mstore\n      0x20\n      add\n      swap1\n      dup2\n      mstore\n      0x20\n      add\n      0x00\n      keccak256\n        /* \"contract/5thClass.sol\":965:1016  Product memory tempProduct = productById[productId] */\n      mload(0x40)\n      dup1\n      0xa0\n      add\n      0x40\n      mstore\n      swap1\n      dup2\n      0x00\n      dup3\n      add\n      sload\n      dup2\n      mstore\n      0x20\n      add\n      0x01\n      dup3\n      add\n      dup1\n      sload\n      tag_35\n      swap1\n      tag_36\n      jump\t// in\n    tag_35:\n      dup1\n      0x1f\n      add\n      0x20\n      dup1\n      swap2\n      div\n      mul\n      0x20\n      add\n      mload(0x40)\n      swap1\n      dup2\n      add\n      0x40\n      mstore\n      dup1\n      swap3\n      swap2\n      swap1\n      dup2\n      dup2\n      mstore\n      0x20\n      add\n      dup3\n      dup1\n      sload\n      tag_37\n      swap1\n      tag_36\n      jump\t// in\n    tag_37:\n      dup1\n      iszero\n      tag_38\n      jumpi\n      dup1\n      0x1f\n      lt\n      tag_39\n      jumpi\n      0x0100\n      dup1\n      dup4\n      sload\n      div\n      mul\n      dup4\n      mstore\n      swap2\n      0x20\n      add\n      swap2\n      jump(tag_38)\n    tag_39:\n      dup3\n      add\n      swap2\n      swap1\n      0x00\n      mstore\n      keccak256(0x00, 0x20)\n      swap1\n    tag_40:\n      dup2\n      sload\n      dup2\n      mstore\n      swap1\n      0x01\n      add\n      swap1\n      0x20\n      add\n      dup1\n      dup4\n      gt\n      tag_40\n      jumpi\n      dup3\n      swap1\n      sub\n      0x1f\n      and\n      dup3\n      add\n      swap2\n    tag_38:\n      pop\n      pop\n      pop\n      pop\n      pop\n      dup2\n      mstore\n      0x20\n      add\n      0x02\n      dup3\n      add\n      sload\n      dup2\n      mstore\n      0x20\n      add\n      0x03\n      dup3\n      add\n      0x00\n      swap1\n      sload\n      swap1\n      0x0100\n      exp\n      swap1\n      div\n      0xffffffffffffffffffffffffffffffffffffffff\n      and\n      0xffffffffffffffffffffffffffffffffffffffff\n      and\n      0xffffffffffffffffffffffffffffffffffffffff\n      and\n      dup2\n      mstore\n      0x20\n      add\n      0x03\n      dup3\n      add\n      0x14\n      swap1\n      sload\n      swap1\n      0x0100\n      exp\n      swap1\n      div\n      0xff\n      and\n      iszero\n      iszero\n      iszero\n      iszero\n      dup2\n      mstore\n      pop\n      pop\n      swap1\n      pop\n        /* \"contract/5thClass.sol\":1027:1060  tempProduct.name = \"I am nothing\" */\n      mload(0x40)\n      dup1\n      0x40\n      add\n      0x40\n      mstore\n      dup1\n      0x0c\n      dup2\n      mstore\n      0x20\n      add\n      0x4920616d206e6f7468696e670000000000000000000000000000000000000000\n      dup2\n      mstore\n      pop\n        /* \"contract/5thClass.sol\":1027:1038  tempProduct */\n      dup2\n        /* \"contract/5thClass.sol\":1027:1043  tempProduct.name */\n      0x20\n      add\n        /* \"contract/5thClass.sol\":1027:1060  tempProduct.name = \"I am nothing\" */\n      dup2\n      swap1\n      mstore\n      pop\n        /* \"contract/5thClass.sol\":860:1068  {... */\n      pop\n      pop\n        /* \"contract/5thClass.sol\":784:1068  function updateProductName(uint256 productId, string memory newName) public {... */\n      pop\n      pop\n      jump\t// out\n        /* \"contract/5thClass.sol\":237:262  Product[] public products */\n    tag_15:\n      0x00\n      dup2\n      dup2\n      sload\n      dup2\n      lt\n      tag_41\n      jumpi\n      0x00\n      dup1\n      revert\n    tag_41:\n      swap1\n      0x00\n      mstore\n      keccak256(0x00, 0x20)\n      swap1\n      0x04\n      mul\n      add\n      0x00\n      swap2\n      pop\n      swap1\n      pop\n      dup1\n      0x00\n      add\n      sload\n      swap1\n      dup1\n      0x01\n      add\n      dup1\n      sload\n      tag_43\n      swap1\n      tag_36\n      jump\t// in\n    tag_43:\n      dup1\n      0x1f\n      add\n      0x20\n      dup1\n      swap2\n      div\n      mul\n      0x20\n      add\n      mload(0x40)\n      swap1\n      dup2\n      add\n      0x40\n      mstore\n      dup1\n      swap3\n      swap2\n      swap1\n      dup2\n      dup2\n      mstore\n      0x20\n      add\n      dup3\n      dup1\n      sload\n      tag_44\n      swap1\n      tag_36\n      jump\t// in\n    tag_44:\n      dup1\n      iszero\n      tag_45\n      jumpi\n      dup1\n      0x1f\n      lt\n      tag_46\n      jumpi\n      0x0100\n      dup1\n      dup4\n      sload\n      div\n      mul\n      dup4\n      mstore\n      swap2\n      0x20\n      add\n      swap2\n      jump(tag_45)\n    tag_46:\n      dup3\n      add\n      swap2\n      swap1\n      0x00\n      mstore\n      keccak256(0x00, 0x20)\n      swap1\n    tag_47:\n      dup2\n      sload\n      dup2\n      mstore\n      swap1\n      0x01\n      add\n      swap1\n      0x20\n      add\n      dup1\n      dup4\n      gt\n      tag_47\n      jumpi\n      dup3\n      swap1\n      sub\n      0x1f\n      and\n      dup3\n      add\n      swap2\n    tag_45:\n      pop\n      pop\n      pop\n      pop\n      pop\n      swap1\n      dup1\n      0x02\n      add\n      sload\n      swap1\n      dup1\n      0x03\n      add\n      0x00\n      swap1\n      sload\n      swap1\n      0x0100\n      exp\n      swap1\n      div\n      0xffffffffffffffffffffffffffffffffffffffff\n      and\n      swap1\n      dup1\n      0x03\n      add\n      0x14\n      swap1\n      sload\n      swap1\n      0x0100\n      exp\n      swap1\n      div\n      0xff\n      and\n      swap1\n      pop\n      dup6\n      jump\t// out\n        /* \"contract/5thClass.sol\":1076:1250  function updateProductPrice(uint256 productId, uint256 newPrice) public {... */\n    tag_21:\n        /* \"contract/5thClass.sol\":1159:1182  Product storage product */\n      0x00\n        /* \"contract/5thClass.sol\":1185:1196  productById */\n      0x01\n        /* \"contract/5thClass.sol\":1185:1207  productById[productId] */\n      0x00\n        /* \"contract/5thClass.sol\":1197:1206  productId */\n      dup5\n        /* \"contract/5thClass.sol\":1185:1207  productById[productId] */\n      dup2\n      mstore\n      0x20\n      add\n      swap1\n      dup2\n      mstore\n      0x20\n      add\n      0x00\n      keccak256\n        /* \"contract/5thClass.sol\":1159:1207  Product storage product = productById[productId] */\n      swap1\n      pop\n        /* \"contract/5thClass.sol\":1234:1242  newPrice */\n      dup2\n        /* \"contract/5thClass.sol\":1218:1225  product */\n      dup2\n        /* \"contract/5thClass.sol\":1218:1231  product.price */\n      0x02\n      add\n        /* \"contract/5thClass.sol\":1218:1242  product.price = newPrice */\n      dup2\n      swap1\n      sstore\n      pop\n        /* \"contract/5thClass.sol\":1148:1250  {... */\n      pop\n        /* \"contract/5thClass.sol\":1076:1250  function updateProductPrice(uint256 productId, uint256 newPrice) public {... */\n      pop\n      pop\n      jump\t// out\n        /* \"contract/5thClass.sol\":269:315  mapping(uint256 => Product) public productById */\n    tag_24:\n      mstore(0x20, 0x01)\n      dup1\n      0x00\n      mstore\n      keccak256(0x00, 0x40)\n      0x00\n      swap2\n      pop\n      swap1\n      pop\n      dup1\n      0x00\n      add\n      sload\n      swap1\n      dup1\n      0x01\n      add\n      dup1\n      sload\n      tag_49\n      swap1\n      tag_36\n      jump\t// in\n    tag_49:\n      dup1\n      0x1f\n      add\n      0x20\n      dup1\n      swap2\n      div\n      mul\n      0x20\n      add\n      mload(0x40)\n      swap1\n      dup2\n      add\n      0x40\n      mstore\n      dup1\n      swap3\n      swap2\n      swap1\n      dup2\n      dup2\n      mstore\n      0x20\n      add\n      dup3\n      dup1\n      sload\n      tag_50\n      swap1\n      tag_36\n      jump\t// in\n    tag_50:\n      dup1\n      iszero\n      tag_51\n      jumpi\n      dup1\n      0x1f\n      lt\n      tag_52\n      jumpi\n      0x0100\n      dup1\n      dup4\n      sload\n      div\n      mul\n      dup4\n      mstore\n      swap2\n      0x20\n      add\n      swap2\n      jump(tag_51)\n    tag_52:\n      dup3\n      add\n      swap2\n      swap1\n      0x00\n      mstore\n      keccak256(0x00, 0x20)\n      swap1\n    tag_53:\n      dup2\n      sload\n      dup2\n      mstore\n      swap1\n      0x01\n      add\n      swap1\n      0x20\n      add\n      dup1\n      dup4\n      gt\n      tag_53\n      jumpi\n      dup3\n      swap1\n      sub\n      0x1f\n      and\n      dup3\n      add\n      swap2\n    tag_51:\n      pop\n      pop\n      pop\n      pop\n      pop\n      swap1\n      dup1\n      0x02\n      add\n      sload\n      swap1\n      dup1\n      0x03\n      add\n      0x00\n      swap1\n      sload\n      swap1\n      0x0100\n      exp\n      swap1\n      div\n      0xffffffffffffffffffffffffffffffffffffffff\n      and\n      swap1\n      dup1\n      0x03\n      add\n      0x14\n      swap1\n      sload\n      swap1\n      0x0100\n      exp\n      swap1\n      div\n      0xff\n      and\n      swap1\n      pop\n      dup6\n      jump\t// out\n        /* \"contract/5thClass.sol\":324:776  function addProduct(string memory name, uint256 price)  public returns(uint256){... */\n    tag_29:\n        /* \"contract/5thClass.sol\":395:402  uint256 */\n      0x00\n        /* \"contract/5thClass.sol\":414:431  uint256 productId */\n      dup1\n        /* \"contract/5thClass.sol\":434:442  products */\n      0x00\n        /* \"contract/5thClass.sol\":434:449  products.length */\n      dup1\n      sload\n      swap1\n      pop\n        /* \"contract/5thClass.sol\":414:449  uint256 productId = products.length */\n      swap1\n      pop\n        /* \"contract/5thClass.sol\":462:487  Product memory newProduct */\n      0x00\n        /* \"contract/5thClass.sol\":490:655  Product({... */\n      mload(0x40)\n      dup1\n      0xa0\n      add\n      0x40\n      mstore\n      dup1\n        /* \"contract/5thClass.sol\":517:526  productId */\n      dup4\n        /* \"contract/5thClass.sol\":490:655  Product({... */\n      dup2\n      mstore\n      0x20\n      add\n        /* \"contract/5thClass.sol\":547:551  name */\n      dup7\n        /* \"contract/5thClass.sol\":490:655  Product({... */\n      dup2\n      mstore\n      0x20\n      add\n        /* \"contract/5thClass.sol\":573:578  price */\n      dup6\n        /* \"contract/5thClass.sol\":490:655  Product({... */\n      dup2\n      mstore\n      0x20\n      add\n        /* \"contract/5thClass.sol\":601:611  msg.sender */\n      caller\n        /* \"contract/5thClass.sol\":490:655  Product({... */\n      0xffffffffffffffffffffffffffffffffffffffff\n      and\n      dup2\n      mstore\n      0x20\n      add\n        /* \"contract/5thClass.sol\":639:643  true */\n      0x01\n        /* \"contract/5thClass.sol\":490:655  Product({... */\n      iszero\n      iszero\n      dup2\n      mstore\n      pop\n        /* \"contract/5thClass.sol\":462:655  Product memory newProduct = Product({... */\n      swap1\n      pop\n        /* \"contract/5thClass.sol\":668:676  products */\n      0x00\n        /* \"contract/5thClass.sol\":682:692  newProduct */\n      dup2\n        /* \"contract/5thClass.sol\":668:693  products.push(newProduct) */\n      swap1\n      dup1\n      0x01\n      dup2\n      sload\n      add\n      dup1\n      dup3\n      sstore\n      dup1\n      swap2\n      pop\n      pop\n      0x01\n      swap1\n      sub\n      swap1\n      0x00\n      mstore\n      keccak256(0x00, 0x20)\n      swap1\n      0x04\n      mul\n      add\n      0x00\n      swap1\n      swap2\n      swap1\n      swap2\n      swap1\n      swap2\n      pop\n      0x00\n      dup3\n      add\n      mload\n      dup2\n      0x00\n      add\n      sstore\n      0x20\n      dup3\n      add\n      mload\n      dup2\n      0x01\n      add\n      swap1\n      dup1\n      mload\n      swap1\n      0x20\n      add\n      swap1\n      tag_56\n      swap3\n      swap2\n      swap1\n      tag_34\n      jump\t// in\n    tag_56:\n      pop\n      0x40\n      dup3\n      add\n      mload\n      dup2\n      0x02\n      add\n      sstore\n      0x60\n      dup3\n      add\n      mload\n      dup2\n      0x03\n      add\n      exp(0x0100, 0x00)\n      dup2\n      sload\n      dup2\n      0xffffffffffffffffffffffffffffffffffffffff\n      mul\n      not\n      and\n      swap1\n      dup4\n      0xffffffffffffffffffffffffffffffffffffffff\n      and\n      mul\n      or\n      swap1\n      sstore\n      pop\n      0x80\n      dup3\n      add\n      mload\n      dup2\n      0x03\n      add\n      exp(0x0100, 0x14)\n      dup2\n      sload\n      dup2\n      0xff\n      mul\n      not\n      and\n      swap1\n      dup4\n      iszero\n      iszero\n      mul\n      or\n      swap1\n      sstore\n      pop\n      pop\n      pop\n        /* \"contract/5thClass.sol\":729:739  newProduct */\n      dup1\n        /* \"contract/5thClass.sol\":704:715  productById */\n      0x01\n        /* \"contract/5thClass.sol\":704:726  productById[productId] */\n      0x00\n        /* \"contract/5thClass.sol\":716:725  productId */\n      dup5\n        /* \"contract/5thClass.sol\":704:726  productById[productId] */\n      dup2\n      mstore\n      0x20\n      add\n      swap1\n      dup2\n      mstore\n      0x20\n      add\n      0x00\n      keccak256\n        /* \"contract/5thClass.sol\":704:739  productById[productId] = newProduct */\n      0x00\n      dup3\n      add\n      mload\n      dup2\n      0x00\n      add\n      sstore\n      0x20\n      dup3\n      add\n      mload\n      dup2\n      0x01\n      add\n      swap1\n      dup1\n      mload\n      swap1\n      0x20\n      add\n      swap1\n      tag_57\n      swap3\n      swap2\n      swap1\n      tag_34\n      jump\t// in\n    tag_57:\n      pop\n      0x40\n      dup3\n      add\n      mload\n      dup2\n      0x02\n      add\n      sstore\n      0x60\n      dup3\n      add\n      mload\n      dup2\n      0x03\n      add\n      exp(0x0100, 0x00)\n      dup2\n      sload\n      dup2\n      0xffffffffffffffffffffffffffffffffffffffff\n      mul\n      not\n      and\n      swap1\n      dup4\n      0xffffffffffffffffffffffffffffffffffffffff\n      and\n      mul\n      or\n      swap1\n      sstore\n      pop\n      0x80\n      dup3\n      add\n      mload\n      dup2\n      0x03\n      add\n      exp(0x0100, 0x14)\n      dup2\n      sload\n      dup2\n      0xff\n      mul\n      not\n      and\n      swap1\n      dup4\n      iszero\n      iszero\n      mul\n      or\n      swap1\n      sstore\n      pop\n      swap1\n      pop\n      pop\n        /* \"contract/5thClass.sol\":759:768  productId */\n      dup2\n        /* \"contract/5thClass.sol\":752:768  return productId */\n      swap3\n      pop\n      pop\n      pop\n        /* \"contract/5thClass.sol\":324:776  function addProduct(string memory name, uint256 price)  public returns(uint256){... */\n      swap3\n      swap2\n      pop\n      pop\n      jump\t// out\n    tag_34:\n      dup3\n      dup1\n      sload\n      tag_58\n      swap1\n      tag_36\n      jump\t// in\n    tag_58:\n      swap1\n      0x00\n      mstore\n      keccak256(0x00, 0x20)\n      swap1\n      0x1f\n      add\n      0x20\n      swap1\n      div\n      dup2\n      add\n      swap3\n      dup3\n      tag_60\n      jumpi\n      0x00\n      dup6\n      sstore\n      jump(tag_59)\n    tag_60:\n      dup3\n      0x1f\n      lt\n      tag_61\n      jumpi\n      dup1\n      mload\n      not(0xff)\n      and\n      dup4\n      dup1\n      add\n      or\n      dup6\n      sstore\n      jump(tag_59)\n    tag_61:\n      dup3\n      dup1\n      add\n      0x01\n      add\n      dup6\n      sstore\n      dup3\n      iszero\n      tag_59\n      jumpi\n      swap2\n      dup3\n      add\n    tag_62:\n      dup3\n      dup2\n      gt\n      iszero\n      tag_63\n      jumpi\n      dup3\n      mload\n      dup3\n      sstore\n      swap2\n      0x20\n      add\n      swap2\n      swap1\n      0x01\n      add\n      swap1\n      jump(tag_62)\n    tag_63:\n    tag_59:\n      pop\n      swap1\n      pop\n      tag_64\n      swap2\n      swap1\n      tag_65\n      jump\t// in\n    tag_64:\n      pop\n      swap1\n      jump\t// out\n    tag_65:\n    tag_66:\n      dup1\n      dup3\n      gt\n      iszero\n      tag_67\n      jumpi\n      0x00\n      dup2\n      0x00\n      swap1\n      sstore\n      pop\n      0x01\n      add\n      jump(tag_66)\n    tag_67:\n      pop\n      swap1\n      jump\t// out\n        /* \"#utility.yul\":7:82   */\n    tag_68:\n        /* \"#utility.yul\":40:46   */\n      0x00\n        /* \"#utility.yul\":73:75   */\n      0x40\n        /* \"#utility.yul\":67:76   */\n      mload\n        /* \"#utility.yul\":57:76   */\n      swap1\n      pop\n        /* \"#utility.yul\":7:82   */\n      swap1\n      jump\t// out\n        /* \"#utility.yul\":88:205   */\n    tag_69:\n        /* \"#utility.yul\":197:198   */\n      0x00\n        /* \"#utility.yul\":194:195   */\n      dup1\n        /* \"#utility.yul\":187:199   */\n      revert\n        /* \"#utility.yul\":211:328   */\n    tag_70:\n        /* \"#utility.yul\":320:321   */\n      0x00\n        /* \"#utility.yul\":317:318   */\n      dup1\n        /* \"#utility.yul\":310:322   */\n      revert\n        /* \"#utility.yul\":334:411   */\n    tag_71:\n        /* \"#utility.yul\":371:378   */\n      0x00\n        /* \"#utility.yul\":400:405   */\n      dup2\n        /* \"#utility.yul\":389:405   */\n      swap1\n      pop\n        /* \"#utility.yul\":334:411   */\n      swap2\n      swap1\n      pop\n      jump\t// out\n        /* \"#utility.yul\":417:539   */\n    tag_72:\n        /* \"#utility.yul\":490:514   */\n      tag_101\n        /* \"#utility.yul\":508:513   */\n      dup2\n        /* \"#utility.yul\":490:514   */\n      tag_71\n      jump\t// in\n    tag_101:\n        /* \"#utility.yul\":483:488   */\n      dup2\n        /* \"#utility.yul\":480:515   */\n      eq\n        /* \"#utility.yul\":470:533   */\n      tag_102\n      jumpi\n        /* \"#utility.yul\":529:530   */\n      0x00\n        /* \"#utility.yul\":526:527   */\n      dup1\n        /* \"#utility.yul\":519:531   */\n      revert\n        /* \"#utility.yul\":470:533   */\n    tag_102:\n        /* \"#utility.yul\":417:539   */\n      pop\n      jump\t// out\n        /* \"#utility.yul\":545:684   */\n    tag_73:\n        /* \"#utility.yul\":591:596   */\n      0x00\n        /* \"#utility.yul\":629:635   */\n      dup2\n        /* \"#utility.yul\":616:636   */\n      calldataload\n        /* \"#utility.yul\":607:636   */\n      swap1\n      pop\n        /* \"#utility.yul\":645:678   */\n      tag_104\n        /* \"#utility.yul\":672:677   */\n      dup2\n        /* \"#utility.yul\":645:678   */\n      tag_72\n      jump\t// in\n    tag_104:\n        /* \"#utility.yul\":545:684   */\n      swap3\n      swap2\n      pop\n      pop\n      jump\t// out\n        /* \"#utility.yul\":690:807   */\n    tag_74:\n        /* \"#utility.yul\":799:800   */\n      0x00\n        /* \"#utility.yul\":796:797   */\n      dup1\n        /* \"#utility.yul\":789:801   */\n      revert\n        /* \"#utility.yul\":813:930   */\n    tag_75:\n        /* \"#utility.yul\":922:923   */\n      0x00\n        /* \"#utility.yul\":919:920   */\n      dup1\n        /* \"#utility.yul\":912:924   */\n      revert\n        /* \"#utility.yul\":936:1038   */\n    tag_76:\n        /* \"#utility.yul\":977:983   */\n      0x00\n        /* \"#utility.yul\":1028:1030   */\n      0x1f\n        /* \"#utility.yul\":1024:1031   */\n      not\n        /* \"#utility.yul\":1019:1021   */\n      0x1f\n        /* \"#utility.yul\":1012:1017   */\n      dup4\n        /* \"#utility.yul\":1008:1022   */\n      add\n        /* \"#utility.yul\":1004:1032   */\n      and\n        /* \"#utility.yul\":994:1032   */\n      swap1\n      pop\n        /* \"#utility.yul\":936:1038   */\n      swap2\n      swap1\n      pop\n      jump\t// out\n        /* \"#utility.yul\":1044:1224   */\n    tag_77:\n        /* \"#utility.yul\":1092:1169   */\n      0x4e487b7100000000000000000000000000000000000000000000000000000000\n        /* \"#utility.yul\":1089:1090   */\n      0x00\n        /* \"#utility.yul\":1082:1170   */\n      mstore\n        /* \"#utility.yul\":1189:1193   */\n      0x41\n        /* \"#utility.yul\":1186:1187   */\n      0x04\n        /* \"#utility.yul\":1179:1194   */\n      mstore\n        /* \"#utility.yul\":1213:1217   */\n      0x24\n        /* \"#utility.yul\":1210:1211   */\n      0x00\n        /* \"#utility.yul\":1203:1218   */\n      revert\n        /* \"#utility.yul\":1230:1511   */\n    tag_78:\n        /* \"#utility.yul\":1313:1340   */\n      tag_110\n        /* \"#utility.yul\":1335:1339   */\n      dup3\n        /* \"#utility.yul\":1313:1340   */\n      tag_76\n      jump\t// in\n    tag_110:\n        /* \"#utility.yul\":1305:1311   */\n      dup2\n        /* \"#utility.yul\":1301:1341   */\n      add\n        /* \"#utility.yul\":1443:1449   */\n      dup2\n        /* \"#utility.yul\":1431:1441   */\n      dup2\n        /* \"#utility.yul\":1428:1450   */\n      lt\n        /* \"#utility.yul\":1407:1425   */\n      0xffffffffffffffff\n        /* \"#utility.yul\":1395:1405   */\n      dup3\n        /* \"#utility.yul\":1392:1426   */\n      gt\n        /* \"#utility.yul\":1389:1451   */\n      or\n        /* \"#utility.yul\":1386:1474   */\n      iszero\n      tag_111\n      jumpi\n        /* \"#utility.yul\":1454:1472   */\n      tag_112\n      tag_77\n      jump\t// in\n    tag_112:\n        /* \"#utility.yul\":1386:1474   */\n    tag_111:\n        /* \"#utility.yul\":1494:1504   */\n      dup1\n        /* \"#utility.yul\":1490:1492   */\n      0x40\n        /* \"#utility.yul\":1483:1505   */\n      mstore\n        /* \"#utility.yul\":1273:1511   */\n      pop\n        /* \"#utility.yul\":1230:1511   */\n      pop\n      pop\n      jump\t// out\n        /* \"#utility.yul\":1517:1646   */\n    tag_79:\n        /* \"#utility.yul\":1551:1557   */\n      0x00\n        /* \"#utility.yul\":1578:1598   */\n      tag_114\n      tag_68\n      jump\t// in\n    tag_114:\n        /* \"#utility.yul\":1568:1598   */\n      swap1\n      pop\n        /* \"#utility.yul\":1607:1640   */\n      tag_115\n        /* \"#utility.yul\":1635:1639   */\n      dup3\n        /* \"#utility.yul\":1627:1633   */\n      dup3\n        /* \"#utility.yul\":1607:1640   */\n      tag_78\n      jump\t// in\n    tag_115:\n        /* \"#utility.yul\":1517:1646   */\n      swap2\n      swap1\n      pop\n      jump\t// out\n        /* \"#utility.yul\":1652:1960   */\n    tag_80:\n        /* \"#utility.yul\":1714:1718   */\n      0x00\n        /* \"#utility.yul\":1804:1822   */\n      0xffffffffffffffff\n        /* \"#utility.yul\":1796:1802   */\n      dup3\n        /* \"#utility.yul\":1793:1823   */\n      gt\n        /* \"#utility.yul\":1790:1846   */\n      iszero\n      tag_117\n      jumpi\n        /* \"#utility.yul\":1826:1844   */\n      tag_118\n      tag_77\n      jump\t// in\n    tag_118:\n        /* \"#utility.yul\":1790:1846   */\n    tag_117:\n        /* \"#utility.yul\":1864:1893   */\n      tag_119\n        /* \"#utility.yul\":1886:1892   */\n      dup3\n        /* \"#utility.yul\":1864:1893   */\n      tag_76\n      jump\t// in\n    tag_119:\n        /* \"#utility.yul\":1856:1893   */\n      swap1\n      pop\n        /* \"#utility.yul\":1948:1952   */\n      0x20\n        /* \"#utility.yul\":1942:1946   */\n      dup2\n        /* \"#utility.yul\":1938:1953   */\n      add\n        /* \"#utility.yul\":1930:1953   */\n      swap1\n      pop\n        /* \"#utility.yul\":1652:1960   */\n      swap2\n      swap1\n      pop\n      jump\t// out\n        /* \"#utility.yul\":1966:2120   */\n    tag_81:\n        /* \"#utility.yul\":2050:2056   */\n      dup3\n        /* \"#utility.yul\":2045:2048   */\n      dup2\n        /* \"#utility.yul\":2040:2043   */\n      dup4\n        /* \"#utility.yul\":2027:2057   */\n      calldatacopy\n        /* \"#utility.yul\":2112:2113   */\n      0x00\n        /* \"#utility.yul\":2103:2109   */\n      dup4\n        /* \"#utility.yul\":2098:2101   */\n      dup4\n        /* \"#utility.yul\":2094:2110   */\n      add\n        /* \"#utility.yul\":2087:2114   */\n      mstore\n        /* \"#utility.yul\":1966:2120   */\n      pop\n      pop\n      pop\n      jump\t// out\n        /* \"#utility.yul\":2126:2538   */\n    tag_82:\n        /* \"#utility.yul\":2204:2209   */\n      0x00\n        /* \"#utility.yul\":2229:2295   */\n      tag_122\n        /* \"#utility.yul\":2245:2294   */\n      tag_123\n        /* \"#utility.yul\":2287:2293   */\n      dup5\n        /* \"#utility.yul\":2245:2294   */\n      tag_80\n      jump\t// in\n    tag_123:\n        /* \"#utility.yul\":2229:2295   */\n      tag_79\n      jump\t// in\n    tag_122:\n        /* \"#utility.yul\":2220:2295   */\n      swap1\n      pop\n        /* \"#utility.yul\":2318:2324   */\n      dup3\n        /* \"#utility.yul\":2311:2316   */\n      dup2\n        /* \"#utility.yul\":2304:2325   */\n      mstore\n        /* \"#utility.yul\":2356:2360   */\n      0x20\n        /* \"#utility.yul\":2349:2354   */\n      dup2\n        /* \"#utility.yul\":2345:2361   */\n      add\n        /* \"#utility.yul\":2394:2397   */\n      dup5\n        /* \"#utility.yul\":2385:2391   */\n      dup5\n        /* \"#utility.yul\":2380:2383   */\n      dup5\n        /* \"#utility.yul\":2376:2392   */\n      add\n        /* \"#utility.yul\":2373:2398   */\n      gt\n        /* \"#utility.yul\":2370:2482   */\n      iszero\n      tag_124\n      jumpi\n        /* \"#utility.yul\":2401:2480   */\n      tag_125\n      tag_75\n      jump\t// in\n    tag_125:\n        /* \"#utility.yul\":2370:2482   */\n    tag_124:\n        /* \"#utility.yul\":2491:2532   */\n      tag_126\n        /* \"#utility.yul\":2525:2531   */\n      dup5\n        /* \"#utility.yul\":2520:2523   */\n      dup3\n        /* \"#utility.yul\":2515:2518   */\n      dup6\n        /* \"#utility.yul\":2491:2532   */\n      tag_81\n      jump\t// in\n    tag_126:\n        /* \"#utility.yul\":2210:2538   */\n      pop\n        /* \"#utility.yul\":2126:2538   */\n      swap4\n      swap3\n      pop\n      pop\n      pop\n      jump\t// out\n        /* \"#utility.yul\":2558:2898   */\n    tag_83:\n        /* \"#utility.yul\":2614:2619   */\n      0x00\n        /* \"#utility.yul\":2663:2666   */\n      dup3\n        /* \"#utility.yul\":2656:2660   */\n      0x1f\n        /* \"#utility.yul\":2648:2654   */\n      dup4\n        /* \"#utility.yul\":2644:2661   */\n      add\n        /* \"#utility.yul\":2640:2667   */\n      slt\n        /* \"#utility.yul\":2630:2752   */\n      tag_128\n      jumpi\n        /* \"#utility.yul\":2671:2750   */\n      tag_129\n      tag_74\n      jump\t// in\n    tag_129:\n        /* \"#utility.yul\":2630:2752   */\n    tag_128:\n        /* \"#utility.yul\":2788:2794   */\n      dup2\n        /* \"#utility.yul\":2775:2795   */\n      calldataload\n        /* \"#utility.yul\":2813:2892   */\n      tag_130\n        /* \"#utility.yul\":2888:2891   */\n      dup5\n        /* \"#utility.yul\":2880:2886   */\n      dup3\n        /* \"#utility.yul\":2873:2877   */\n      0x20\n        /* \"#utility.yul\":2865:2871   */\n      dup7\n        /* \"#utility.yul\":2861:2878   */\n      add\n        /* \"#utility.yul\":2813:2892   */\n      tag_82\n      jump\t// in\n    tag_130:\n        /* \"#utility.yul\":2804:2892   */\n      swap2\n      pop\n        /* \"#utility.yul\":2620:2898   */\n      pop\n        /* \"#utility.yul\":2558:2898   */\n      swap3\n      swap2\n      pop\n      pop\n      jump\t// out\n        /* \"#utility.yul\":2904:3558   */\n    tag_10:\n        /* \"#utility.yul\":2982:2988   */\n      0x00\n        /* \"#utility.yul\":2990:2996   */\n      dup1\n        /* \"#utility.yul\":3039:3041   */\n      0x40\n        /* \"#utility.yul\":3027:3036   */\n      dup4\n        /* \"#utility.yul\":3018:3025   */\n      dup6\n        /* \"#utility.yul\":3014:3037   */\n      sub\n        /* \"#utility.yul\":3010:3042   */\n      slt\n        /* \"#utility.yul\":3007:3126   */\n      iszero\n      tag_132\n      jumpi\n        /* \"#utility.yul\":3045:3124   */\n      tag_133\n      tag_69\n      jump\t// in\n    tag_133:\n        /* \"#utility.yul\":3007:3126   */\n    tag_132:\n        /* \"#utility.yul\":3165:3166   */\n      0x00\n        /* \"#utility.yul\":3190:3243   */\n      tag_134\n        /* \"#utility.yul\":3235:3242   */\n      dup6\n        /* \"#utility.yul\":3226:3232   */\n      dup3\n        /* \"#utility.yul\":3215:3224   */\n      dup7\n        /* \"#utility.yul\":3211:3233   */\n      add\n        /* \"#utility.yul\":3190:3243   */\n      tag_73\n      jump\t// in\n    tag_134:\n        /* \"#utility.yul\":3180:3243   */\n      swap3\n      pop\n        /* \"#utility.yul\":3136:3253   */\n      pop\n        /* \"#utility.yul\":3320:3322   */\n      0x20\n        /* \"#utility.yul\":3309:3318   */\n      dup4\n        /* \"#utility.yul\":3305:3323   */\n      add\n        /* \"#utility.yul\":3292:3324   */\n      calldataload\n        /* \"#utility.yul\":3351:3369   */\n      0xffffffffffffffff\n        /* \"#utility.yul\":3343:3349   */\n      dup2\n        /* \"#utility.yul\":3340:3370   */\n      gt\n        /* \"#utility.yul\":3337:3454   */\n      iszero\n      tag_135\n      jumpi\n        /* \"#utility.yul\":3373:3452   */\n      tag_136\n      tag_70\n      jump\t// in\n    tag_136:\n        /* \"#utility.yul\":3337:3454   */\n    tag_135:\n        /* \"#utility.yul\":3478:3541   */\n      tag_137\n        /* \"#utility.yul\":3533:3540   */\n      dup6\n        /* \"#utility.yul\":3524:3530   */\n      dup3\n        /* \"#utility.yul\":3513:3522   */\n      dup7\n        /* \"#utility.yul\":3509:3531   */\n      add\n        /* \"#utility.yul\":3478:3541   */\n      tag_83\n      jump\t// in\n    tag_137:\n        /* \"#utility.yul\":3468:3541   */\n      swap2\n      pop\n        /* \"#utility.yul\":3263:3551   */\n      pop\n        /* \"#utility.yul\":2904:3558   */\n      swap3\n      pop\n      swap3\n      swap1\n      pop\n      jump\t// out\n        /* \"#utility.yul\":3564:3893   */\n    tag_14:\n        /* \"#utility.yul\":3623:3629   */\n      0x00\n        /* \"#utility.yul\":3672:3674   */\n      0x20\n        /* \"#utility.yul\":3660:3669   */\n      dup3\n        /* \"#utility.yul\":3651:3658   */\n      dup5\n        /* \"#utility.yul\":3647:3670   */\n      sub\n        /* \"#utility.yul\":3643:3675   */\n      slt\n        /* \"#utility.yul\":3640:3759   */\n      iszero\n      tag_139\n      jumpi\n        /* \"#utility.yul\":3678:3757   */\n      tag_140\n      tag_69\n      jump\t// in\n    tag_140:\n        /* \"#utility.yul\":3640:3759   */\n    tag_139:\n        /* \"#utility.yul\":3798:3799   */\n      0x00\n        /* \"#utility.yul\":3823:3876   */\n      tag_141\n        /* \"#utility.yul\":3868:3875   */\n      dup5\n        /* \"#utility.yul\":3859:3865   */\n      dup3\n        /* \"#utility.yul\":3848:3857   */\n      dup6\n        /* \"#utility.yul\":3844:3866   */\n      add\n        /* \"#utility.yul\":3823:3876   */\n      tag_73\n      jump\t// in\n    tag_141:\n        /* \"#utility.yul\":3813:3876   */\n      swap2\n      pop\n        /* \"#utility.yul\":3769:3886   */\n      pop\n        /* \"#utility.yul\":3564:3893   */\n      swap3\n      swap2\n      pop\n      pop\n      jump\t// out\n        /* \"#utility.yul\":3899:4017   */\n    tag_84:\n        /* \"#utility.yul\":3986:4010   */\n      tag_143\n        /* \"#utility.yul\":4004:4009   */\n      dup2\n        /* \"#utility.yul\":3986:4010   */\n      tag_71\n      jump\t// in\n    tag_143:\n        /* \"#utility.yul\":3981:3984   */\n      dup3\n        /* \"#utility.yul\":3974:4011   */\n      mstore\n        /* \"#utility.yul\":3899:4017   */\n      pop\n      pop\n      jump\t// out\n        /* \"#utility.yul\":4023:4122   */\n    tag_85:\n        /* \"#utility.yul\":4075:4081   */\n      0x00\n        /* \"#utility.yul\":4109:4114   */\n      dup2\n        /* \"#utility.yul\":4103:4115   */\n      mload\n        /* \"#utility.yul\":4093:4115   */\n      swap1\n      pop\n        /* \"#utility.yul\":4023:4122   */\n      swap2\n      swap1\n      pop\n      jump\t// out\n        /* \"#utility.yul\":4128:4297   */\n    tag_86:\n        /* \"#utility.yul\":4212:4223   */\n      0x00\n        /* \"#utility.yul\":4246:4252   */\n      dup3\n        /* \"#utility.yul\":4241:4244   */\n      dup3\n        /* \"#utility.yul\":4234:4253   */\n      mstore\n        /* \"#utility.yul\":4286:4290   */\n      0x20\n        /* \"#utility.yul\":4281:4284   */\n      dup3\n        /* \"#utility.yul\":4277:4291   */\n      add\n        /* \"#utility.yul\":4262:4291   */\n      swap1\n      pop\n        /* \"#utility.yul\":4128:4297   */\n      swap3\n      swap2\n      pop\n      pop\n      jump\t// out\n        /* \"#utility.yul\":4303:4610   */\n    tag_87:\n        /* \"#utility.yul\":4371:4372   */\n      0x00\n        /* \"#utility.yul\":4381:4494   */\n    tag_147:\n        /* \"#utility.yul\":4395:4401   */\n      dup4\n        /* \"#utility.yul\":4392:4393   */\n      dup2\n        /* \"#utility.yul\":4389:4402   */\n      lt\n        /* \"#utility.yul\":4381:4494   */\n      iszero\n      tag_149\n      jumpi\n        /* \"#utility.yul\":4480:4481   */\n      dup1\n        /* \"#utility.yul\":4475:4478   */\n      dup3\n        /* \"#utility.yul\":4471:4482   */\n      add\n        /* \"#utility.yul\":4465:4483   */\n      mload\n        /* \"#utility.yul\":4461:4462   */\n      dup2\n        /* \"#utility.yul\":4456:4459   */\n      dup5\n        /* \"#utility.yul\":4452:4463   */\n      add\n        /* \"#utility.yul\":4445:4484   */\n      mstore\n        /* \"#utility.yul\":4417:4419   */\n      0x20\n        /* \"#utility.yul\":4414:4415   */\n      dup2\n        /* \"#utility.yul\":4410:4420   */\n      add\n        /* \"#utility.yul\":4405:4420   */\n      swap1\n      pop\n        /* \"#utility.yul\":4381:4494   */\n      jump(tag_147)\n    tag_149:\n        /* \"#utility.yul\":4512:4518   */\n      dup4\n        /* \"#utility.yul\":4509:4510   */\n      dup2\n        /* \"#utility.yul\":4506:4519   */\n      gt\n        /* \"#utility.yul\":4503:4604   */\n      iszero\n      tag_150\n      jumpi\n        /* \"#utility.yul\":4592:4593   */\n      0x00\n        /* \"#utility.yul\":4583:4589   */\n      dup5\n        /* \"#utility.yul\":4578:4581   */\n      dup5\n        /* \"#utility.yul\":4574:4590   */\n      add\n        /* \"#utility.yul\":4567:4594   */\n      mstore\n        /* \"#utility.yul\":4503:4604   */\n    tag_150:\n        /* \"#utility.yul\":4352:4610   */\n      pop\n        /* \"#utility.yul\":4303:4610   */\n      pop\n      pop\n      pop\n      jump\t// out\n        /* \"#utility.yul\":4616:4980   */\n    tag_88:\n        /* \"#utility.yul\":4704:4707   */\n      0x00\n        /* \"#utility.yul\":4732:4771   */\n      tag_152\n        /* \"#utility.yul\":4765:4770   */\n      dup3\n        /* \"#utility.yul\":4732:4771   */\n      tag_85\n      jump\t// in\n    tag_152:\n        /* \"#utility.yul\":4787:4858   */\n      tag_153\n        /* \"#utility.yul\":4851:4857   */\n      dup2\n        /* \"#utility.yul\":4846:4849   */\n      dup6\n        /* \"#utility.yul\":4787:4858   */\n      tag_86\n      jump\t// in\n    tag_153:\n        /* \"#utility.yul\":4780:4858   */\n      swap4\n      pop\n        /* \"#utility.yul\":4867:4919   */\n      tag_154\n        /* \"#utility.yul\":4912:4918   */\n      dup2\n        /* \"#utility.yul\":4907:4910   */\n      dup6\n        /* \"#utility.yul\":4900:4904   */\n      0x20\n        /* \"#utility.yul\":4893:4898   */\n      dup7\n        /* \"#utility.yul\":4889:4905   */\n      add\n        /* \"#utility.yul\":4867:4919   */\n      tag_87\n      jump\t// in\n    tag_154:\n        /* \"#utility.yul\":4944:4973   */\n      tag_155\n        /* \"#utility.yul\":4966:4972   */\n      dup2\n        /* \"#utility.yul\":4944:4973   */\n      tag_76\n      jump\t// in\n    tag_155:\n        /* \"#utility.yul\":4939:4942   */\n      dup5\n        /* \"#utility.yul\":4935:4974   */\n      add\n        /* \"#utility.yul\":4928:4974   */\n      swap2\n      pop\n        /* \"#utility.yul\":4708:4980   */\n      pop\n        /* \"#utility.yul\":4616:4980   */\n      swap3\n      swap2\n      pop\n      pop\n      jump\t// out\n        /* \"#utility.yul\":4986:5112   */\n    tag_89:\n        /* \"#utility.yul\":5023:5030   */\n      0x00\n        /* \"#utility.yul\":5063:5105   */\n      0xffffffffffffffffffffffffffffffffffffffff\n        /* \"#utility.yul\":5056:5061   */\n      dup3\n        /* \"#utility.yul\":5052:5106   */\n      and\n        /* \"#utility.yul\":5041:5106   */\n      swap1\n      pop\n        /* \"#utility.yul\":4986:5112   */\n      swap2\n      swap1\n      pop\n      jump\t// out\n        /* \"#utility.yul\":5118:5214   */\n    tag_90:\n        /* \"#utility.yul\":5155:5162   */\n      0x00\n        /* \"#utility.yul\":5184:5208   */\n      tag_158\n        /* \"#utility.yul\":5202:5207   */\n      dup3\n        /* \"#utility.yul\":5184:5208   */\n      tag_89\n      jump\t// in\n    tag_158:\n        /* \"#utility.yul\":5173:5208   */\n      swap1\n      pop\n        /* \"#utility.yul\":5118:5214   */\n      swap2\n      swap1\n      pop\n      jump\t// out\n        /* \"#utility.yul\":5220:5338   */\n    tag_91:\n        /* \"#utility.yul\":5307:5331   */\n      tag_160\n        /* \"#utility.yul\":5325:5330   */\n      dup2\n        /* \"#utility.yul\":5307:5331   */\n      tag_90\n      jump\t// in\n    tag_160:\n        /* \"#utility.yul\":5302:5305   */\n      dup3\n        /* \"#utility.yul\":5295:5332   */\n      mstore\n        /* \"#utility.yul\":5220:5338   */\n      pop\n      pop\n      jump\t// out\n        /* \"#utility.yul\":5344:5434   */\n    tag_92:\n        /* \"#utility.yul\":5378:5385   */\n      0x00\n        /* \"#utility.yul\":5421:5426   */\n      dup2\n        /* \"#utility.yul\":5414:5427   */\n      iszero\n        /* \"#utility.yul\":5407:5428   */\n      iszero\n        /* \"#utility.yul\":5396:5428   */\n      swap1\n      pop\n        /* \"#utility.yul\":5344:5434   */\n      swap2\n      swap1\n      pop\n      jump\t// out\n        /* \"#utility.yul\":5440:5549   */\n    tag_93:\n        /* \"#utility.yul\":5521:5542   */\n      tag_163\n        /* \"#utility.yul\":5536:5541   */\n      dup2\n        /* \"#utility.yul\":5521:5542   */\n      tag_92\n      jump\t// in\n    tag_163:\n        /* \"#utility.yul\":5516:5519   */\n      dup3\n        /* \"#utility.yul\":5509:5543   */\n      mstore\n        /* \"#utility.yul\":5440:5549   */\n      pop\n      pop\n      jump\t// out\n        /* \"#utility.yul\":5555:6298   */\n    tag_17:\n        /* \"#utility.yul\":5774:5778   */\n      0x00\n        /* \"#utility.yul\":5812:5815   */\n      0xa0\n        /* \"#utility.yul\":5801:5810   */\n      dup3\n        /* \"#utility.yul\":5797:5816   */\n      add\n        /* \"#utility.yul\":5789:5816   */\n      swap1\n      pop\n        /* \"#utility.yul\":5826:5897   */\n      tag_165\n        /* \"#utility.yul\":5894:5895   */\n      0x00\n        /* \"#utility.yul\":5883:5892   */\n      dup4\n        /* \"#utility.yul\":5879:5896   */\n      add\n        /* \"#utility.yul\":5870:5876   */\n      dup9\n        /* \"#utility.yul\":5826:5897   */\n      tag_84\n      jump\t// in\n    tag_165:\n        /* \"#utility.yul\":5944:5953   */\n      dup2\n        /* \"#utility.yul\":5938:5942   */\n      dup2\n        /* \"#utility.yul\":5934:5954   */\n      sub\n        /* \"#utility.yul\":5929:5931   */\n      0x20\n        /* \"#utility.yul\":5918:5927   */\n      dup4\n        /* \"#utility.yul\":5914:5932   */\n      add\n        /* \"#utility.yul\":5907:5955   */\n      mstore\n        /* \"#utility.yul\":5972:6050   */\n      tag_166\n        /* \"#utility.yul\":6045:6049   */\n      dup2\n        /* \"#utility.yul\":6036:6042   */\n      dup8\n        /* \"#utility.yul\":5972:6050   */\n      tag_88\n      jump\t// in\n    tag_166:\n        /* \"#utility.yul\":5964:6050   */\n      swap1\n      pop\n        /* \"#utility.yul\":6060:6132   */\n      tag_167\n        /* \"#utility.yul\":6128:6130   */\n      0x40\n        /* \"#utility.yul\":6117:6126   */\n      dup4\n        /* \"#utility.yul\":6113:6131   */\n      add\n        /* \"#utility.yul\":6104:6110   */\n      dup7\n        /* \"#utility.yul\":6060:6132   */\n      tag_84\n      jump\t// in\n    tag_167:\n        /* \"#utility.yul\":6142:6214   */\n      tag_168\n        /* \"#utility.yul\":6210:6212   */\n      0x60\n        /* \"#utility.yul\":6199:6208   */\n      dup4\n        /* \"#utility.yul\":6195:6213   */\n      add\n        /* \"#utility.yul\":6186:6192   */\n      dup6\n        /* \"#utility.yul\":6142:6214   */\n      tag_91\n      jump\t// in\n    tag_168:\n        /* \"#utility.yul\":6224:6291   */\n      tag_169\n        /* \"#utility.yul\":6286:6289   */\n      0x80\n        /* \"#utility.yul\":6275:6284   */\n      dup4\n        /* \"#utility.yul\":6271:6290   */\n      add\n        /* \"#utility.yul\":6262:6268   */\n      dup5\n        /* \"#utility.yul\":6224:6291   */\n      tag_93\n      jump\t// in\n    tag_169:\n        /* \"#utility.yul\":5555:6298   */\n      swap7\n      swap6\n      pop\n      pop\n      pop\n      pop\n      pop\n      pop\n      jump\t// out\n        /* \"#utility.yul\":6304:6778   */\n    tag_20:\n        /* \"#utility.yul\":6372:6378   */\n      0x00\n        /* \"#utility.yul\":6380:6386   */\n      dup1\n        /* \"#utility.yul\":6429:6431   */\n      0x40\n        /* \"#utility.yul\":6417:6426   */\n      dup4\n        /* \"#utility.yul\":6408:6415   */\n      dup6\n        /* \"#utility.yul\":6404:6427   */\n      sub\n        /* \"#utility.yul\":6400:6432   */\n      slt\n        /* \"#utility.yul\":6397:6516   */\n      iszero\n      tag_171\n      jumpi\n        /* \"#utility.yul\":6435:6514   */\n      tag_172\n      tag_69\n      jump\t// in\n    tag_172:\n        /* \"#utility.yul\":6397:6516   */\n    tag_171:\n        /* \"#utility.yul\":6555:6556   */\n      0x00\n        /* \"#utility.yul\":6580:6633   */\n      tag_173\n        /* \"#utility.yul\":6625:6632   */\n      dup6\n        /* \"#utility.yul\":6616:6622   */\n      dup3\n        /* \"#utility.yul\":6605:6614   */\n      dup7\n        /* \"#utility.yul\":6601:6623   */\n      add\n        /* \"#utility.yul\":6580:6633   */\n      tag_73\n      jump\t// in\n    tag_173:\n        /* \"#utility.yul\":6570:6633   */\n      swap3\n      pop\n        /* \"#utility.yul\":6526:6643   */\n      pop\n        /* \"#utility.yul\":6682:6684   */\n      0x20\n        /* \"#utility.yul\":6708:6761   */\n      tag_174\n        /* \"#utility.yul\":6753:6760   */\n      dup6\n        /* \"#utility.yul\":6744:6750   */\n      dup3\n        /* \"#utility.yul\":6733:6742   */\n      dup7\n        /* \"#utility.yul\":6729:6751   */\n      add\n        /* \"#utility.yul\":6708:6761   */\n      tag_73\n      jump\t// in\n    tag_174:\n        /* \"#utility.yul\":6698:6761   */\n      swap2\n      pop\n        /* \"#utility.yul\":6653:6771   */\n      pop\n        /* \"#utility.yul\":6304:6778   */\n      swap3\n      pop\n      swap3\n      swap1\n      pop\n      jump\t// out\n        /* \"#utility.yul\":6784:7438   */\n    tag_28:\n        /* \"#utility.yul\":6862:6868   */\n      0x00\n        /* \"#utility.yul\":6870:6876   */\n      dup1\n        /* \"#utility.yul\":6919:6921   */\n      0x40\n        /* \"#utility.yul\":6907:6916   */\n      dup4\n        /* \"#utility.yul\":6898:6905   */\n      dup6\n        /* \"#utility.yul\":6894:6917   */\n      sub\n        /* \"#utility.yul\":6890:6922   */\n      slt\n        /* \"#utility.yul\":6887:7006   */\n      iszero\n      tag_176\n      jumpi\n        /* \"#utility.yul\":6925:7004   */\n      tag_177\n      tag_69\n      jump\t// in\n    tag_177:\n        /* \"#utility.yul\":6887:7006   */\n    tag_176:\n        /* \"#utility.yul\":7073:7074   */\n      0x00\n        /* \"#utility.yul\":7062:7071   */\n      dup4\n        /* \"#utility.yul\":7058:7075   */\n      add\n        /* \"#utility.yul\":7045:7076   */\n      calldataload\n        /* \"#utility.yul\":7103:7121   */\n      0xffffffffffffffff\n        /* \"#utility.yul\":7095:7101   */\n      dup2\n        /* \"#utility.yul\":7092:7122   */\n      gt\n        /* \"#utility.yul\":7089:7206   */\n      iszero\n      tag_178\n      jumpi\n        /* \"#utility.yul\":7125:7204   */\n      tag_179\n      tag_70\n      jump\t// in\n    tag_179:\n        /* \"#utility.yul\":7089:7206   */\n    tag_178:\n        /* \"#utility.yul\":7230:7293   */\n      tag_180\n        /* \"#utility.yul\":7285:7292   */\n      dup6\n        /* \"#utility.yul\":7276:7282   */\n      dup3\n        /* \"#utility.yul\":7265:7274   */\n      dup7\n        /* \"#utility.yul\":7261:7283   */\n      add\n        /* \"#utility.yul\":7230:7293   */\n      tag_83\n      jump\t// in\n    tag_180:\n        /* \"#utility.yul\":7220:7293   */\n      swap3\n      pop\n        /* \"#utility.yul\":7016:7303   */\n      pop\n        /* \"#utility.yul\":7342:7344   */\n      0x20\n        /* \"#utility.yul\":7368:7421   */\n      tag_181\n        /* \"#utility.yul\":7413:7420   */\n      dup6\n        /* \"#utility.yul\":7404:7410   */\n      dup3\n        /* \"#utility.yul\":7393:7402   */\n      dup7\n        /* \"#utility.yul\":7389:7411   */\n      add\n        /* \"#utility.yul\":7368:7421   */\n      tag_73\n      jump\t// in\n    tag_181:\n        /* \"#utility.yul\":7358:7421   */\n      swap2\n      pop\n        /* \"#utility.yul\":7313:7431   */\n      pop\n        /* \"#utility.yul\":6784:7438   */\n      swap3\n      pop\n      swap3\n      swap1\n      pop\n      jump\t// out\n        /* \"#utility.yul\":7444:7666   */\n    tag_31:\n        /* \"#utility.yul\":7537:7541   */\n      0x00\n        /* \"#utility.yul\":7575:7577   */\n      0x20\n        /* \"#utility.yul\":7564:7573   */\n      dup3\n        /* \"#utility.yul\":7560:7578   */\n      add\n        /* \"#utility.yul\":7552:7578   */\n      swap1\n      pop\n        /* \"#utility.yul\":7588:7659   */\n      tag_183\n        /* \"#utility.yul\":7656:7657   */\n      0x00\n        /* \"#utility.yul\":7645:7654   */\n      dup4\n        /* \"#utility.yul\":7641:7658   */\n      add\n        /* \"#utility.yul\":7632:7638   */\n      dup5\n        /* \"#utility.yul\":7588:7659   */\n      tag_84\n      jump\t// in\n    tag_183:\n        /* \"#utility.yul\":7444:7666   */\n      swap3\n      swap2\n      pop\n      pop\n      jump\t// out\n        /* \"#utility.yul\":7672:7852   */\n    tag_94:\n        /* \"#utility.yul\":7720:7797   */\n      0x4e487b7100000000000000000000000000000000000000000000000000000000\n        /* \"#utility.yul\":7717:7718   */\n      0x00\n        /* \"#utility.yul\":7710:7798   */\n      mstore\n        /* \"#utility.yul\":7817:7821   */\n      0x22\n        /* \"#utility.yul\":7814:7815   */\n      0x04\n        /* \"#utility.yul\":7807:7822   */\n      mstore\n        /* \"#utility.yul\":7841:7845   */\n      0x24\n        /* \"#utility.yul\":7838:7839   */\n      0x00\n        /* \"#utility.yul\":7831:7846   */\n      revert\n        /* \"#utility.yul\":7858:8178   */\n    tag_36:\n        /* \"#utility.yul\":7902:7908   */\n      0x00\n        /* \"#utility.yul\":7939:7940   */\n      0x02\n        /* \"#utility.yul\":7933:7937   */\n      dup3\n        /* \"#utility.yul\":7929:7941   */\n      div\n        /* \"#utility.yul\":7919:7941   */\n      swap1\n      pop\n        /* \"#utility.yul\":7986:7987   */\n      0x01\n        /* \"#utility.yul\":7980:7984   */\n      dup3\n        /* \"#utility.yul\":7976:7988   */\n      and\n        /* \"#utility.yul\":8007:8025   */\n      dup1\n        /* \"#utility.yul\":7997:8078   */\n      tag_186\n      jumpi\n        /* \"#utility.yul\":8063:8067   */\n      0x7f\n        /* \"#utility.yul\":8055:8061   */\n      dup3\n        /* \"#utility.yul\":8051:8068   */\n      and\n        /* \"#utility.yul\":8041:8068   */\n      swap2\n      pop\n        /* \"#utility.yul\":7997:8078   */\n    tag_186:\n        /* \"#utility.yul\":8125:8127   */\n      0x20\n        /* \"#utility.yul\":8117:8123   */\n      dup3\n        /* \"#utility.yul\":8114:8128   */\n      lt\n        /* \"#utility.yul\":8094:8112   */\n      dup2\n        /* \"#utility.yul\":8091:8129   */\n      eq\n        /* \"#utility.yul\":8088:8172   */\n      iszero\n      tag_187\n      jumpi\n        /* \"#utility.yul\":8144:8162   */\n      tag_188\n      tag_94\n      jump\t// in\n    tag_188:\n        /* \"#utility.yul\":8088:8172   */\n    tag_187:\n        /* \"#utility.yul\":7909:8178   */\n      pop\n        /* \"#utility.yul\":7858:8178   */\n      swap2\n      swap1\n      pop\n      jump\t// out\n\n    auxdata: 0xa2646970667358221220023911a6b12ef2f259ca00567fd20450120a1145792de279007a2a218ddb196f64736f6c63430008090033\n}\n",
				"bytecode": {
					"linkReferences": {},
					"object": "608060405234801561001057600080fd5b50610c0a806100206000396000f3fe608060405234801561001057600080fd5b50600436106100575760003560e01c806326af03e21461005c5780637acc0b20146100785780639c3bddb2146100ac578063a30b475f146100c8578063b15247d9146100fc575b600080fd5b610076600480360381019061007191906108e6565b61012c565b005b610092600480360381019061008d9190610942565b6102d9565b6040516100a3959493929190610a62565b60405180910390f35b6100c660048036038101906100c19190610abc565b6103d4565b005b6100e260048036038101906100dd9190610942565b6103f9565b6040516100f3959493929190610a62565b60405180910390f35b61011660048036038101906101119190610afc565b6104e4565b6040516101239190610b58565b60405180910390f35b60006001600084815260200190815260200160002090508181600101908051906020019061015b9291906106b3565b506000600160008581526020019081526020016000206040518060a00160405290816000820154815260200160018201805461019690610ba2565b80601f01602080910402602001604051908101604052809291908181526020018280546101c290610ba2565b801561020f5780601f106101e45761010080835404028352916020019161020f565b820191906000526020600020905b8154815290600101906020018083116101f257829003601f168201915b50505050508152602001600282015481526020016003820160009054906101000a900473ffffffffffffffffffffffffffffffffffffffff1673ffffffffffffffffffffffffffffffffffffffff1673ffffffffffffffffffffffffffffffffffffffff1681526020016003820160149054906101000a900460ff16151515158152505090506040518060400160405280600c81526020017f4920616d206e6f7468696e670000000000000000000000000000000000000000815250816020018190525050505050565b600081815481106102e957600080fd5b906000526020600020906004020160009150905080600001549080600101805461031290610ba2565b80601f016020809104026020016040519081016040528092919081815260200182805461033e90610ba2565b801561038b5780601f106103605761010080835404028352916020019161038b565b820191906000526020600020905b81548152906001019060200180831161036e57829003601f168201915b5050505050908060020154908060030160009054906101000a900473ffffffffffffffffffffffffffffffffffffffff16908060030160149054906101000a900460ff16905085565b6000600160008481526020019081526020016000209050818160020181905550505050565b600160205280600052604060002060009150905080600001549080600101805461042290610ba2565b80601f016020809104026020016040519081016040528092919081815260200182805461044e90610ba2565b801561049b5780601f106104705761010080835404028352916020019161049b565b820191906000526020600020905b81548152906001019060200180831161047e57829003601f168201915b5050505050908060020154908060030160009054906101000a900473ffffffffffffffffffffffffffffffffffffffff16908060030160149054906101000a900460ff16905085565b600080600080549050905060006040518060a001604052808381526020018681526020018581526020013373ffffffffffffffffffffffffffffffffffffffff16815260200160011515815250905060008190806001815401808255809150506001900390600052602060002090600402016000909190919091506000820151816000015560208201518160010190805190602001906105859291906106b3565b506040820151816002015560608201518160030160006101000a81548173ffffffffffffffffffffffffffffffffffffffff021916908373ffffffffffffffffffffffffffffffffffffffff16021790555060808201518160030160146101000a81548160ff021916908315150217905550505080600160008481526020019081526020016000206000820151816000015560208201518160010190805190602001906106339291906106b3565b506040820151816002015560608201518160030160006101000a81548173ffffffffffffffffffffffffffffffffffffffff021916908373ffffffffffffffffffffffffffffffffffffffff16021790555060808201518160030160146101000a81548160ff021916908315150217905550905050819250505092915050565b8280546106bf90610ba2565b90600052602060002090601f0160209004810192826106e15760008555610728565b82601f106106fa57805160ff1916838001178555610728565b82800160010185558215610728579182015b8281111561072757825182559160200191906001019061070c565b5b5090506107359190610739565b5090565b5b8082111561075257600081600090555060010161073a565b5090565b6000604051905090565b600080fd5b600080fd5b6000819050919050565b61077d8161076a565b811461078857600080fd5b50565b60008135905061079a81610774565b92915050565b600080fd5b600080fd5b6000601f19601f8301169050919050565b7f4e487b7100000000000000000000000000000000000000000000000000000000600052604160045260246000fd5b6107f3826107aa565b810181811067ffffffffffffffff82111715610812576108116107bb565b5b80604052505050565b6000610825610756565b905061083182826107ea565b919050565b600067ffffffffffffffff821115610851576108506107bb565b5b61085a826107aa565b9050602081019050919050565b82818337600083830152505050565b600061088961088484610836565b61081b565b9050828152602081018484840111156108a5576108a46107a5565b5b6108b0848285610867565b509392505050565b600082601f8301126108cd576108cc6107a0565b5b81356108dd848260208601610876565b91505092915050565b600080604083850312156108fd576108fc610760565b5b600061090b8582860161078b565b925050602083013567ffffffffffffffff81111561092c5761092b610765565b5b610938858286016108b8565b9150509250929050565b60006020828403121561095857610957610760565b5b60006109668482850161078b565b91505092915050565b6109788161076a565b82525050565b600081519050919050565b600082825260208201905092915050565b60005b838110156109b857808201518184015260208101905061099d565b838111156109c7576000848401525b50505050565b60006109d88261097e565b6109e28185610989565b93506109f281856020860161099a565b6109fb816107aa565b840191505092915050565b600073ffffffffffffffffffffffffffffffffffffffff82169050919050565b6000610a3182610a06565b9050919050565b610a4181610a26565b82525050565b60008115159050919050565b610a5c81610a47565b82525050565b600060a082019050610a77600083018861096f565b8181036020830152610a8981876109cd565b9050610a98604083018661096f565b610aa56060830185610a38565b610ab26080830184610a53565b9695505050505050565b60008060408385031215610ad357610ad2610760565b5b6000610ae18582860161078b565b9250506020610af28582860161078b565b9150509250929050565b60008060408385031215610b1357610b12610760565b5b600083013567ffffffffffffffff811115610b3157610b30610765565b5b610b3d858286016108b8565b9250506020610b4e8582860161078b565b9150509250929050565b6000602082019050610b6d600083018461096f565b92915050565b7f4e487b7100000000000000000000000000000000000000000000000000000000600052602260045260246000fd5b60006002820490506001821680610bba57607f821691505b60208210811415610bce57610bcd610b73565b5b5091905056fea2646970667358221220023911a6b12ef2f259ca00567fd20450120a1145792de279007a2a218ddb196f64736f6c63430008090033",
					"opcodes": "PUSH1 0x80 PUSH1 0x40 MSTORE CALLVALUE DUP1 ISZERO PUSH2 0x10 JUMPI PUSH1 0x0 DUP1 REVERT JUMPDEST POP PUSH2 0xC0A DUP1 PUSH2 0x20 PUSH1 0x0 CODECOPY PUSH1 0x0 RETURN INVALID PUSH1 0x80 PUSH1 0x40 MSTORE CALLVALUE DUP1 ISZERO PUSH2 0x10 JUMPI PUSH1 0x0 DUP1 REVERT JUMPDEST POP PUSH1 0x4 CALLDATASIZE LT PUSH2 0x57 JUMPI PUSH1 0x0 CALLDATALOAD PUSH1 0xE0 SHR DUP1 PUSH4 0x26AF03E2 EQ PUSH2 0x5C JUMPI DUP1 PUSH4 0x7ACC0B20 EQ PUSH2 0x78 JUMPI DUP1 PUSH4 0x9C3BDDB2 EQ PUSH2 0xAC JUMPI DUP1 PUSH4 0xA30B475F EQ PUSH2 0xC8 JUMPI DUP1 PUSH4 0xB15247D9 EQ PUSH2 0xFC JUMPI JUMPDEST PUSH1 0x0 DUP1 REVERT JUMPDEST PUSH2 0x76 PUSH1 0x4 DUP1 CALLDATASIZE SUB DUP2 ADD SWAP1 PUSH2 0x71 SWAP2 SWAP1 PUSH2 0x8E6 JUMP JUMPDEST PUSH2 0x12C JUMP JUMPDEST STOP JUMPDEST PUSH2 0x92 PUSH1 0x4 DUP1 CALLDATASIZE SUB DUP2 ADD SWAP1 PUSH2 0x8D SWAP2 SWAP1 PUSH2 0x942 JUMP JUMPDEST PUSH2 0x2D9 JUMP JUMPDEST PUSH1 0x40 MLOAD PUSH2 0xA3 SWAP6 SWAP5 SWAP4 SWAP3 SWAP2 SWAP1 PUSH2 0xA62 JUMP JUMPDEST PUSH1 0x40 MLOAD DUP1 SWAP2 SUB SWAP1 RETURN JUMPDEST PUSH2 0xC6 PUSH1 0x4 DUP1 CALLDATASIZE SUB DUP2 ADD SWAP1 PUSH2 0xC1 SWAP2 SWAP1 PUSH2 0xABC JUMP JUMPDEST PUSH2 0x3D4 JUMP JUMPDEST STOP JUMPDEST PUSH2 0xE2 PUSH1 0x4 DUP1 CALLDATASIZE SUB DUP2 ADD SWAP1 PUSH2 0xDD SWAP2 SWAP1 PUSH2 0x942 JUMP JUMPDEST PUSH2 0x3F9 JUMP JUMPDEST PUSH1 0x40 MLOAD PUSH2 0xF3 SWAP6 SWAP5 SWAP4 SWAP3 SWAP2 SWAP1 PUSH2 0xA62 JUMP JUMPDEST PUSH1 0x40 MLOAD DUP1 SWAP2 SUB SWAP1 RETURN JUMPDEST PUSH2 0x116 PUSH1 0x4 DUP1 CALLDATASIZE SUB DUP2 ADD SWAP1 PUSH2 0x111 SWAP2 SWAP1 PUSH2 0xAFC JUMP JUMPDEST PUSH2 0x4E4 JUMP JUMPDEST PUSH1 0x40 MLOAD PUSH2 0x123 SWAP2 SWAP1 PUSH2 0xB58 JUMP JUMPDEST PUSH1 0x40 MLOAD DUP1 SWAP2 SUB SWAP1 RETURN JUMPDEST PUSH1 0x0 PUSH1 0x1 PUSH1 0x0 DUP5 DUP2 MSTORE PUSH1 0x20 ADD SWAP1 DUP2 MSTORE PUSH1 0x20 ADD PUSH1 0x0 KECCAK256 SWAP1 POP DUP2 DUP2 PUSH1 0x1 ADD SWAP1 DUP1 MLOAD SWAP1 PUSH1 0x20 ADD SWAP1 PUSH2 0x15B SWAP3 SWAP2 SWAP1 PUSH2 0x6B3 JUMP JUMPDEST POP PUSH1 0x0 PUSH1 0x1 PUSH1 0x0 DUP6 DUP2 MSTORE PUSH1 0x20 ADD SWAP1 DUP2 MSTORE PUSH1 0x20 ADD PUSH1 0x0 KECCAK256 PUSH1 0x40 MLOAD DUP1 PUSH1 0xA0 ADD PUSH1 0x40 MSTORE SWAP1 DUP2 PUSH1 0x0 DUP3 ADD SLOAD DUP2 MSTORE PUSH1 0x20 ADD PUSH1 0x1 DUP3 ADD DUP1 SLOAD PUSH2 0x196 SWAP1 PUSH2 0xBA2 JUMP JUMPDEST DUP1 PUSH1 0x1F ADD PUSH1 0x20 DUP1 SWAP2 DIV MUL PUSH1 0x20 ADD PUSH1 0x40 MLOAD SWAP1 DUP2 ADD PUSH1 0x40 MSTORE DUP1 SWAP3 SWAP2 SWAP1 DUP2 DUP2 MSTORE PUSH1 0x20 ADD DUP3 DUP1 SLOAD PUSH2 0x1C2 SWAP1 PUSH2 0xBA2 JUMP JUMPDEST DUP1 ISZERO PUSH2 0x20F JUMPI DUP1 PUSH1 0x1F LT PUSH2 0x1E4 JUMPI PUSH2 0x100 DUP1 DUP4 SLOAD DIV MUL DUP4 MSTORE SWAP2 PUSH1 0x20 ADD SWAP2 PUSH2 0x20F JUMP JUMPDEST DUP3 ADD SWAP2 SWAP1 PUSH1 0x0 MSTORE PUSH1 0x20 PUSH1 0x0 KECCAK256 SWAP1 JUMPDEST DUP2 SLOAD DUP2 MSTORE SWAP1 PUSH1 0x1 ADD SWAP1 PUSH1 0x20 ADD DUP1 DUP4 GT PUSH2 0x1F2 JUMPI DUP3 SWAP1 SUB PUSH1 0x1F AND DUP3 ADD SWAP2 JUMPDEST POP POP POP POP POP DUP2 MSTORE PUSH1 0x20 ADD PUSH1 0x2 DUP3 ADD SLOAD DUP2 MSTORE PUSH1 0x20 ADD PUSH1 0x3 DUP3 ADD PUSH1 0x0 SWAP1 SLOAD SWAP1 PUSH2 0x100 EXP SWAP1 DIV PUSH20 0xFFFFFFFFFFFFFFFFFFFFFFFFFFFFFFFFFFFFFFFF AND PUSH20 0xFFFFFFFFFFFFFFFFFFFFFFFFFFFFFFFFFFFFFFFF AND PUSH20 0xFFFFFFFFFFFFFFFFFFFFFFFFFFFFFFFFFFFFFFFF AND DUP2 MSTORE PUSH1 0x20 ADD PUSH1 0x3 DUP3 ADD PUSH1 0x14 SWAP1 SLOAD SWAP1 PUSH2 0x100 EXP SWAP1 DIV PUSH1 0xFF AND ISZERO ISZERO ISZERO ISZERO DUP2 MSTORE POP POP SWAP1 POP PUSH1 0x40 MLOAD DUP1 PUSH1 0x40 ADD PUSH1 0x40 MSTORE DUP1 PUSH1 0xC DUP2 MSTORE PUSH1 0x20 ADD PUSH32 0x4920616D206E6F7468696E670000000000000000000000000000000000000000 DUP2 MSTORE POP DUP2 PUSH1 0x20 ADD DUP2 SWAP1 MSTORE POP POP POP POP POP JUMP JUMPDEST PUSH1 0x0 DUP2 DUP2 SLOAD DUP2 LT PUSH2 0x2E9 JUMPI PUSH1 0x0 DUP1 REVERT JUMPDEST SWAP1 PUSH1 0x0 MSTORE PUSH1 0x20 PUSH1 0x0 KECCAK256 SWAP1 PUSH1 0x4 MUL ADD PUSH1 0x0 SWAP2 POP SWAP1 POP DUP1 PUSH1 0x0 ADD SLOAD SWAP1 DUP1 PUSH1 0x1 ADD DUP1 SLOAD PUSH2 0x312 SWAP1 PUSH2 0xBA2 JUMP JUMPDEST DUP1 PUSH1 0x1F ADD PUSH1 0x20 DUP1 SWAP2 DIV MUL PUSH1 0x20 ADD PUSH1 0x40 MLOAD SWAP1 DUP2 ADD PUSH1 0x40 MSTORE DUP1 SWAP3 SWAP2 SWAP1 DUP2 DUP2 MSTORE PUSH1 0x20 ADD DUP3 DUP1 SLOAD PUSH2 0x33E SWAP1 PUSH2 0xBA2 JUMP JUMPDEST DUP1 ISZERO PUSH2 0x38B JUMPI DUP1 PUSH1 0x1F LT PUSH2 0x360 JUMPI PUSH2 0x100 DUP1 DUP4 SLOAD DIV MUL DUP4 MSTORE SWAP2 PUSH1 0x20 ADD SWAP2 PUSH2 0x38B JUMP JUMPDEST DUP3 ADD SWAP2 SWAP1 PUSH1 0x0 MSTORE PUSH1 0x20 PUSH1 0x0 KECCAK256 SWAP1 JUMPDEST DUP2 SLOAD DUP2 MSTORE SWAP1 PUSH1 0x1 ADD SWAP1 PUSH1 0x20 ADD DUP1 DUP4 GT PUSH2 0x36E JUMPI DUP3 SWAP1 SUB PUSH1 0x1F AND DUP3 ADD SWAP2 JUMPDEST POP POP POP POP POP SWAP1 DUP1 PUSH1 0x2 ADD SLOAD SWAP1 DUP1 PUSH1 0x3 ADD PUSH1 0x0 SWAP1 SLOAD SWAP1 PUSH2 0x100 EXP SWAP1 DIV PUSH20 0xFFFFFFFFFFFFFFFFFFFFFFFFFFFFFFFFFFFFFFFF AND SWAP1 DUP1 PUSH1 0x3 ADD PUSH1 0x14 SWAP1 SLOAD SWAP1 PUSH2 0x100 EXP SWAP1 DIV PUSH1 0xFF AND SWAP1 POP DUP6 JUMP JUMPDEST PUSH1 0x0 PUSH1 0x1 PUSH1 0x0 DUP5 DUP2 MSTORE PUSH1 0x20 ADD SWAP1 DUP2 MSTORE PUSH1 0x20 ADD PUSH1 0x0 KECCAK256 SWAP1 POP DUP2 DUP2 PUSH1 0x2 ADD DUP2 SWAP1 SSTORE POP POP POP POP JUMP JUMPDEST PUSH1 0x1 PUSH1 0x20 MSTORE DUP1 PUSH1 0x0 MSTORE PUSH1 0x40 PUSH1 0x0 KECCAK256 PUSH1 0x0 SWAP2 POP SWAP1 POP DUP1 PUSH1 0x0 ADD SLOAD SWAP1 DUP1 PUSH1 0x1 ADD DUP1 SLOAD PUSH2 0x422 SWAP1 PUSH2 0xBA2 JUMP JUMPDEST DUP1 PUSH1 0x1F ADD PUSH1 0x20 DUP1 SWAP2 DIV MUL PUSH1 0x20 ADD PUSH1 0x40 MLOAD SWAP1 DUP2 ADD PUSH1 0x40 MSTORE DUP1 SWAP3 SWAP2 SWAP1 DUP2 DUP2 MSTORE PUSH1 0x20 ADD DUP3 DUP1 SLOAD PUSH2 0x44E SWAP1 PUSH2 0xBA2 JUMP JUMPDEST DUP1 ISZERO PUSH2 0x49B JUMPI DUP1 PUSH1 0x1F LT PUSH2 0x470 JUMPI PUSH2 0x100 DUP1 DUP4 SLOAD DIV MUL DUP4 MSTORE SWAP2 PUSH1 0x20 ADD SWAP2 PUSH2 0x49B JUMP JUMPDEST DUP3 ADD SWAP2 SWAP1 PUSH1 0x0 MSTORE PUSH1 0x20 PUSH1 0x0 KECCAK256 SWAP1 JUMPDEST DUP2 SLOAD DUP2 MSTORE SWAP1 PUSH1 0x1 ADD SWAP1 PUSH1 0x20 ADD DUP1 DUP4 GT PUSH2 0x47E JUMPI DUP3 SWAP1 SUB PUSH1 0x1F AND DUP3 ADD SWAP2 JUMPDEST POP POP POP POP POP SWAP1 DUP1 PUSH1 0x2 ADD SLOAD SWAP1 DUP1 PUSH1 0x3 ADD PUSH1 0x0 SWAP1 SLOAD SWAP1 PUSH2 0x100 EXP SWAP1 DIV PUSH20 0xFFFFFFFFFFFFFFFFFFFFFFFFFFFFFFFFFFFFFFFF AND SWAP1 DUP1 PUSH1 0x3 ADD PUSH1 0x14 SWAP1 SLOAD SWAP1 PUSH2 0x100 EXP SWAP1 DIV PUSH1 0xFF AND SWAP1 POP DUP6 JUMP JUMPDEST PUSH1 0x0 DUP1 PUSH1 0x0 DUP1 SLOAD SWAP1 POP SWAP1 POP PUSH1 0x0 PUSH1 0x40 MLOAD DUP1 PUSH1 0xA0 ADD PUSH1 0x40 MSTORE DUP1 DUP4 DUP2 MSTORE PUSH1 0x20 ADD DUP7 DUP2 MSTORE PUSH1 0x20 ADD DUP6 DUP2 MSTORE PUSH1 0x20 ADD CALLER PUSH20 0xFFFFFFFFFFFFFFFFFFFFFFFFFFFFFFFFFFFFFFFF AND DUP2 MSTORE PUSH1 0x20 ADD PUSH1 0x1 ISZERO ISZERO DUP2 MSTORE POP SWAP1 POP PUSH1 0x0 DUP2 SWAP1 DUP1 PUSH1 0x1 DUP2 SLOAD ADD DUP1 DUP3 SSTORE DUP1 SWAP2 POP POP PUSH1 0x1 SWAP1 SUB SWAP1 PUSH1 0x0 MSTORE PUSH1 0x20 PUSH1 0x0 KECCAK256 SWAP1 PUSH1 0x4 MUL ADD PUSH1 0x0 SWAP1 SWAP2 SWAP1 SWAP2 SWAP1 SWAP2 POP PUSH1 0x0 DUP3 ADD MLOAD DUP2 PUSH1 0x0 ADD SSTORE PUSH1 0x20 DUP3 ADD MLOAD DUP2 PUSH1 0x1 ADD SWAP1 DUP1 MLOAD SWAP1 PUSH1 0x20 ADD SWAP1 PUSH2 0x585 SWAP3 SWAP2 SWAP1 PUSH2 0x6B3 JUMP JUMPDEST POP PUSH1 0x40 DUP3 ADD MLOAD DUP2 PUSH1 0x2 ADD SSTORE PUSH1 0x60 DUP3 ADD MLOAD DUP2 PUSH1 0x3 ADD PUSH1 0x0 PUSH2 0x100 EXP DUP2 SLOAD DUP2 PUSH20 0xFFFFFFFFFFFFFFFFFFFFFFFFFFFFFFFFFFFFFFFF MUL NOT AND SWAP1 DUP4 PUSH20 0xFFFFFFFFFFFFFFFFFFFFFFFFFFFFFFFFFFFFFFFF AND MUL OR SWAP1 SSTORE POP PUSH1 0x80 DUP3 ADD MLOAD DUP2 PUSH1 0x3 ADD PUSH1 0x14 PUSH2 0x100 EXP DUP2 SLOAD DUP2 PUSH1 0xFF MUL NOT AND SWAP1 DUP4 ISZERO ISZERO MUL OR SWAP1 SSTORE POP POP POP DUP1 PUSH1 0x1 PUSH1 0x0 DUP5 DUP2 MSTORE PUSH1 0x20 ADD SWAP1 DUP2 MSTORE PUSH1 0x20 ADD PUSH1 0x0 KECCAK256 PUSH1 0x0 DUP3 ADD MLOAD DUP2 PUSH1 0x0 ADD SSTORE PUSH1 0x20 DUP3 ADD MLOAD DUP2 PUSH1 0x1 ADD SWAP1 DUP1 MLOAD SWAP1 PUSH1 0x20 ADD SWAP1 PUSH2 0x633 SWAP3 SWAP2 SWAP1 PUSH2 0x6B3 JUMP JUMPDEST POP PUSH1 0x40 DUP3 ADD MLOAD DUP2 PUSH1 0x2 ADD SSTORE PUSH1 0x60 DUP3 ADD MLOAD DUP2 PUSH1 0x3 ADD PUSH1 0x0 PUSH2 0x100 EXP DUP2 SLOAD DUP2 PUSH20 0xFFFFFFFFFFFFFFFFFFFFFFFFFFFFFFFFFFFFFFFF MUL NOT AND SWAP1 DUP4 PUSH20 0xFFFFFFFFFFFFFFFFFFFFFFFFFFFFFFFFFFFFFFFF AND MUL OR SWAP1 SSTORE POP PUSH1 0x80 DUP3 ADD MLOAD DUP2 PUSH1 0x3 ADD PUSH1 0x14 PUSH2 0x100 EXP DUP2 SLOAD DUP2 PUSH1 0xFF MUL NOT AND SWAP1 DUP4 ISZERO ISZERO MUL OR SWAP1 SSTORE POP SWAP1 POP POP DUP2 SWAP3 POP POP POP SWAP3 SWAP2 POP POP JUMP JUMPDEST DUP3 DUP1 SLOAD PUSH2 0x6BF SWAP1 PUSH2 0xBA2 JUMP JUMPDEST SWAP1 PUSH1 0x0 MSTORE PUSH1 0x20 PUSH1 0x0 KECCAK256 SWAP1 PUSH1 0x1F ADD PUSH1 0x20 SWAP1 DIV DUP2 ADD SWAP3 DUP3 PUSH2 0x6E1 JUMPI PUSH1 0x0 DUP6 SSTORE PUSH2 0x728 JUMP JUMPDEST DUP3 PUSH1 0x1F LT PUSH2 0x6FA JUMPI DUP1 MLOAD PUSH1 0xFF NOT AND DUP4 DUP1 ADD OR DUP6 SSTORE PUSH2 0x728 JUMP JUMPDEST DUP3 DUP1 ADD PUSH1 0x1 ADD DUP6 SSTORE DUP3 ISZERO PUSH2 0x728 JUMPI SWAP2 DUP3 ADD JUMPDEST DUP3 DUP2 GT ISZERO PUSH2 0x727 JUMPI DUP3 MLOAD DUP3 SSTORE SWAP2 PUSH1 0x20 ADD SWAP2 SWAP1 PUSH1 0x1 ADD SWAP1 PUSH2 0x70C JUMP JUMPDEST JUMPDEST POP SWAP1 POP PUSH2 0x735 SWAP2 SWAP1 PUSH2 0x739 JUMP JUMPDEST POP SWAP1 JUMP JUMPDEST JUMPDEST DUP1 DUP3 GT ISZERO PUSH2 0x752 JUMPI PUSH1 0x0 DUP2 PUSH1 0x0 SWAP1 SSTORE POP PUSH1 0x1 ADD PUSH2 0x73A JUMP JUMPDEST POP SWAP1 JUMP JUMPDEST PUSH1 0x0 PUSH1 0x40 MLOAD SWAP1 POP SWAP1 JUMP JUMPDEST PUSH1 0x0 DUP1 REVERT JUMPDEST PUSH1 0x0 DUP1 REVERT JUMPDEST PUSH1 0x0 DUP2 SWAP1 POP SWAP2 SWAP1 POP JUMP JUMPDEST PUSH2 0x77D DUP2 PUSH2 0x76A JUMP JUMPDEST DUP2 EQ PUSH2 0x788 JUMPI PUSH1 0x0 DUP1 REVERT JUMPDEST POP JUMP JUMPDEST PUSH1 0x0 DUP2 CALLDATALOAD SWAP1 POP PUSH2 0x79A DUP2 PUSH2 0x774 JUMP JUMPDEST SWAP3 SWAP2 POP POP JUMP JUMPDEST PUSH1 0x0 DUP1 REVERT JUMPDEST PUSH1 0x0 DUP1 REVERT JUMPDEST PUSH1 0x0 PUSH1 0x1F NOT PUSH1 0x1F DUP4 ADD AND SWAP1 POP SWAP2 SWAP1 POP JUMP JUMPDEST PUSH32 0x4E487B7100000000000000000000000000000000000000000000000000000000 PUSH1 0x0 MSTORE PUSH1 0x41 PUSH1 0x4 MSTORE PUSH1 0x24 PUSH1 0x0 REVERT JUMPDEST PUSH2 0x7F3 DUP3 PUSH2 0x7AA JUMP JUMPDEST DUP2 ADD DUP2 DUP2 LT PUSH8 0xFFFFFFFFFFFFFFFF DUP3 GT OR ISZERO PUSH2 0x812 JUMPI PUSH2 0x811 PUSH2 0x7BB JUMP JUMPDEST JUMPDEST DUP1 PUSH1 0x40 MSTORE POP POP POP JUMP JUMPDEST PUSH1 0x0 PUSH2 0x825 PUSH2 0x756 JUMP JUMPDEST SWAP1 POP PUSH2 0x831 DUP3 DUP3 PUSH2 0x7EA JUMP JUMPDEST SWAP2 SWAP1 POP JUMP JUMPDEST PUSH1 0x0 PUSH8 0xFFFFFFFFFFFFFFFF DUP3 GT ISZERO PUSH2 0x851 JUMPI PUSH2 0x850 PUSH2 0x7BB JUMP JUMPDEST JUMPDEST PUSH2 0x85A DUP3 PUSH2 0x7AA JUMP JUMPDEST SWAP1 POP PUSH1 0x20 DUP2 ADD SWAP1 POP SWAP2 SWAP1 POP JUMP JUMPDEST DUP3 DUP2 DUP4 CALLDATACOPY PUSH1 0x0 DUP4 DUP4 ADD MSTORE POP POP POP JUMP JUMPDEST PUSH1 0x0 PUSH2 0x889 PUSH2 0x884 DUP5 PUSH2 0x836 JUMP JUMPDEST PUSH2 0x81B JUMP JUMPDEST SWAP1 POP DUP3 DUP2 MSTORE PUSH1 0x20 DUP2 ADD DUP5 DUP5 DUP5 ADD GT ISZERO PUSH2 0x8A5 JUMPI PUSH2 0x8A4 PUSH2 0x7A5 JUMP JUMPDEST JUMPDEST PUSH2 0x8B0 DUP5 DUP3 DUP6 PUSH2 0x867 JUMP JUMPDEST POP SWAP4 SWAP3 POP POP POP JUMP JUMPDEST PUSH1 0x0 DUP3 PUSH1 0x1F DUP4 ADD SLT PUSH2 0x8CD JUMPI PUSH2 0x8CC PUSH2 0x7A0 JUMP JUMPDEST JUMPDEST DUP2 CALLDATALOAD PUSH2 0x8DD DUP5 DUP3 PUSH1 0x20 DUP7 ADD PUSH2 0x876 JUMP JUMPDEST SWAP2 POP POP SWAP3 SWAP2 POP POP JUMP JUMPDEST PUSH1 0x0 DUP1 PUSH1 0x40 DUP4 DUP6 SUB SLT ISZERO PUSH2 0x8FD JUMPI PUSH2 0x8FC PUSH2 0x760 JUMP JUMPDEST JUMPDEST PUSH1 0x0 PUSH2 0x90B DUP6 DUP3 DUP7 ADD PUSH2 0x78B JUMP JUMPDEST SWAP3 POP POP PUSH1 0x20 DUP4 ADD CALLDATALOAD PUSH8 0xFFFFFFFFFFFFFFFF DUP2 GT ISZERO PUSH2 0x92C JUMPI PUSH2 0x92B PUSH2 0x765 JUMP JUMPDEST JUMPDEST PUSH2 0x938 DUP6 DUP3 DUP7 ADD PUSH2 0x8B8 JUMP JUMPDEST SWAP2 POP POP SWAP3 POP SWAP3 SWAP1 POP JUMP JUMPDEST PUSH1 0x0 PUSH1 0x20 DUP3 DUP5 SUB SLT ISZERO PUSH2 0x958 JUMPI PUSH2 0x957 PUSH2 0x760 JUMP JUMPDEST JUMPDEST PUSH1 0x0 PUSH2 0x966 DUP5 DUP3 DUP6 ADD PUSH2 0x78B JUMP JUMPDEST SWAP2 POP POP SWAP3 SWAP2 POP POP JUMP JUMPDEST PUSH2 0x978 DUP2 PUSH2 0x76A JUMP JUMPDEST DUP3 MSTORE POP POP JUMP JUMPDEST PUSH1 0x0 DUP2 MLOAD SWAP1 POP SWAP2 SWAP1 POP JUMP JUMPDEST PUSH1 0x0 DUP3 DUP3 MSTORE PUSH1 0x20 DUP3 ADD SWAP1 POP SWAP3 SWAP2 POP POP JUMP JUMPDEST PUSH1 0x0 JUMPDEST DUP4 DUP2 LT ISZERO PUSH2 0x9B8 JUMPI DUP1 DUP3 ADD MLOAD DUP2 DUP5 ADD MSTORE PUSH1 0x20 DUP2 ADD SWAP1 POP PUSH2 0x99D JUMP JUMPDEST DUP4 DUP2 GT ISZERO PUSH2 0x9C7 JUMPI PUSH1 0x0 DUP5 DUP5 ADD MSTORE JUMPDEST POP POP POP POP JUMP JUMPDEST PUSH1 0x0 PUSH2 0x9D8 DUP3 PUSH2 0x97E JUMP JUMPDEST PUSH2 0x9E2 DUP2 DUP6 PUSH2 0x989 JUMP JUMPDEST SWAP4 POP PUSH2 0x9F2 DUP2 DUP6 PUSH1 0x20 DUP7 ADD PUSH2 0x99A JUMP JUMPDEST PUSH2 0x9FB DUP2 PUSH2 0x7AA JUMP JUMPDEST DUP5 ADD SWAP2 POP POP SWAP3 SWAP2 POP POP JUMP JUMPDEST PUSH1 0x0 PUSH20 0xFFFFFFFFFFFFFFFFFFFFFFFFFFFFFFFFFFFFFFFF DUP3 AND SWAP1 POP SWAP2 SWAP1 POP JUMP JUMPDEST PUSH1 0x0 PUSH2 0xA31 DUP3 PUSH2 0xA06 JUMP JUMPDEST SWAP1 POP SWAP2 SWAP1 POP JUMP JUMPDEST PUSH2 0xA41 DUP2 PUSH2 0xA26 JUMP JUMPDEST DUP3 MSTORE POP POP JUMP JUMPDEST PUSH1 0x0 DUP2 ISZERO ISZERO SWAP1 POP SWAP2 SWAP1 POP JUMP JUMPDEST PUSH2 0xA5C DUP2 PUSH2 0xA47 JUMP JUMPDEST DUP3 MSTORE POP POP JUMP JUMPDEST PUSH1 0x0 PUSH1 0xA0 DUP3 ADD SWAP1 POP PUSH2 0xA77 PUSH1 0x0 DUP4 ADD DUP9 PUSH2 0x96F JUMP JUMPDEST DUP2 DUP2 SUB PUSH1 0x20 DUP4 ADD MSTORE PUSH2 0xA89 DUP2 DUP8 PUSH2 0x9CD JUMP JUMPDEST SWAP1 POP PUSH2 0xA98 PUSH1 0x40 DUP4 ADD DUP7 PUSH2 0x96F JUMP JUMPDEST PUSH2 0xAA5 PUSH1 0x60 DUP4 ADD DUP6 PUSH2 0xA38 JUMP JUMPDEST PUSH2 0xAB2 PUSH1 0x80 DUP4 ADD DUP5 PUSH2 0xA53 JUMP JUMPDEST SWAP7 SWAP6 POP POP POP POP POP POP JUMP JUMPDEST PUSH1 0x0 DUP1 PUSH1 0x40 DUP4 DUP6 SUB SLT ISZERO PUSH2 0xAD3 JUMPI PUSH2 0xAD2 PUSH2 0x760 JUMP JUMPDEST JUMPDEST PUSH1 0x0 PUSH2 0xAE1 DUP6 DUP3 DUP7 ADD PUSH2 0x78B JUMP JUMPDEST SWAP3 POP POP PUSH1 0x20 PUSH2 0xAF2 DUP6 DUP3 DUP7 ADD PUSH2 0x78B JUMP JUMPDEST SWAP2 POP POP SWAP3 POP SWAP3 SWAP1 POP JUMP JUMPDEST PUSH1 0x0 DUP1 PUSH1 0x40 DUP4 DUP6 SUB SLT ISZERO PUSH2 0xB13 JUMPI PUSH2 0xB12 PUSH2 0x760 JUMP JUMPDEST JUMPDEST PUSH1 0x0 DUP4 ADD CALLDATALOAD PUSH8 0xFFFFFFFFFFFFFFFF DUP2 GT ISZERO PUSH2 0xB31 JUMPI PUSH2 0xB30 PUSH2 0x765 JUMP JUMPDEST JUMPDEST PUSH2 0xB3D DUP6 DUP3 DUP7 ADD PUSH2 0x8B8 JUMP JUMPDEST SWAP3 POP POP PUSH1 0x20 PUSH2 0xB4E DUP6 DUP3 DUP7 ADD PUSH2 0x78B JUMP JUMPDEST SWAP2 POP POP SWAP3 POP SWAP3 SWAP1 POP JUMP JUMPDEST PUSH1 0x0 PUSH1 0x20 DUP3 ADD SWAP1 POP PUSH2 0xB6D PUSH1 0x0 DUP4 ADD DUP5 PUSH2 0x96F JUMP JUMPDEST SWAP3 SWAP2 POP POP JUMP JUMPDEST PUSH32 0x4E487B7100000000000000000000000000000000000000000000000000000000 PUSH1 0x0 MSTORE PUSH1 0x22 PUSH1 0x4 MSTORE PUSH1 0x24 PUSH1 0x0 REVERT JUMPDEST PUSH1 0x0 PUSH1 0x2 DUP3 DIV SWAP1 POP PUSH1 0x1 DUP3 AND DUP1 PUSH2 0xBBA JUMPI PUSH1 0x7F DUP3 AND SWAP2 POP JUMPDEST PUSH1 0x20 DUP3 LT DUP2 EQ ISZERO PUSH2 0xBCE JUMPI PUSH2 0xBCD PUSH2 0xB73 JUMP JUMPDEST JUMPDEST POP SWAP2 SWAP1 POP JUMP INVALID LOG2 PUSH5 0x6970667358 0x22 SLT KECCAK256 MUL CODECOPY GT 0xA6 0xB1 0x2E CALLCODE CALLCODE MSIZE 0xCA STOP JUMP PUSH32 0xD20450120A1145792DE279007A2A218DDB196F64736F6C634300080900330000 "
				},
				"gasEstimates": {
					"creation": {
						"codeDepositCost": "616400",
						"executionCost": "651",
						"totalCost": "617051"
					},
					"external": {
						"addProduct(string,uint256)": "infinite",
						"productById(uint256)": "infinite",
						"products(uint256)": "infinite",
						"updateProductName(uint256,string)": "infinite",
						"updateProductPrice(uint256,uint256)": "infinite"
					}
				},
				"methodIdentifiers": {
					"addProduct(string,uint256)": "b15247d9",
					"productById(uint256)": "a30b475f",
					"products(uint256)": "7acc0b20",
					"updateProductName(uint256,string)": "26af03e2",
					"updateProductPrice(uint256,uint256)": "9c3bddb2"
				}
			},
			"storageLayout": {
				"storage": [
					{
						"astId": 16,
						"contract": "contract/5thClass.sol:Marketplace",
						"label": "products",
						"offset": 0,
						"slot": "0",
						"type": "t_array(t_struct(Product)12_storage)dyn_storage"
					},
					{
						"astId": 21,
						"contract": "contract/5thClass.sol:Marketplace",
						"label": "productById",
						"offset": 0,
						"slot": "1",
						"type": "t_mapping(t_uint256,t_struct(Product)12_storage)"
					}
				],
				"types": {
					"t_address": {
						"encoding": "inplace",
						"label": "address",
						"numberOfBytes": "20"
					},
					"t_array(t_struct(Product)12_storage)dyn_storage": {
						"base": "t_struct(Product)12_storage",
						"encoding": "dynamic_array",
						"label": "struct Marketplace.Product[]",
						"numberOfBytes": "32"
					},
					"t_bool": {
						"encoding": "inplace",
						"label": "bool",
						"numberOfBytes": "1"
					},
					"t_mapping(t_uint256,t_struct(Product)12_storage)": {
						"encoding": "mapping",
						"key": "t_uint256",
						"label": "mapping(uint256 => struct Marketplace.Product)",
						"numberOfBytes": "32",
						"value": "t_struct(Product)12_storage"
					},
					"t_string_storage": {
						"encoding": "bytes",
						"label": "string",
						"numberOfBytes": "32"
					},
					"t_struct(Product)12_storage": {
						"encoding": "inplace",
						"label": "struct Marketplace.Product",
						"members": [
							{
								"astId": 3,
								"contract": "contract/5thClass.sol:Marketplace",
								"label": "id",
								"offset": 0,
								"slot": "0",
								"type": "t_uint256"
							},
							{
								"astId": 5,
								"contract": "contract/5thClass.sol:Marketplace",
								"label": "name",
								"offset": 0,
								"slot": "1",
								"type": "t_string_storage"
							},
							{
								"astId": 7,
								"contract": "contract/5thClass.sol:Marketplace",
								"label": "price",
								"offset": 0,
								"slot": "2",
								"type": "t_uint256"
							},
							{
								"astId": 9,
								"contract": "contract/5thClass.sol:Marketplace",
								"label": "seller",
								"offset": 0,
								"slot": "3",
								"type": "t_address"
							},
							{
								"astId": 11,
								"contract": "contract/5thClass.sol:Marketplace",
								"label": "isAvailable",
								"offset": 20,
								"slot": "3",
								"type": "t_bool"
							}
						],
						"numberOfBytes": "128"
					},
					"t_uint256": {
						"encoding": "inplace",
						"label": "uint256",
						"numberOfBytes": "32"
					}
				}
			},
			"userdoc": {
				"kind": "user",
				"methods": {},
				"version": 1
			}
		}
	}
}