{
	"contract/7thClass1.sol": {
		"BankAccount": {
			"abi": [
				{
					"inputs": [
						{
							"internalType": "string",
							"name": "_name",
							"type": "string"
						},
						{
							"internalType": "uint256",
							"name": "_totalSupply",
							"type": "uint256"
						}
					],
					"stateMutability": "nonpayable",
					"type": "constructor"
				},
				{
					"anonymous": false,
					"inputs": [
						{
							"indexed": true,
							"internalType": "address",
							"name": "account",
							"type": "address"
						},
						{
							"indexed": true,
							"internalType": "uint256",
							"name": "amount",
							"type": "uint256"
						}
					],
					"name": "Deposit",
					"type": "event"
				},
				{
					"anonymous": false,
					"inputs": [
						{
							"indexed": false,
							"internalType": "address",
							"name": "account",
							"type": "address"
						},
						{
							"indexed": false,
							"internalType": "uint256",
							"name": "amount",
							"type": "uint256"
						}
					],
					"name": "Withdrawl",
					"type": "event"
				},
				{
					"inputs": [],
					"name": "contractName",
					"outputs": [
						{
							"internalType": "string",
							"name": "",
							"type": "string"
						}
					],
					"stateMutability": "view",
					"type": "function"
				},
				{
					"inputs": [],
					"name": "deposit",
					"outputs": [],
					"stateMutability": "payable",
					"type": "function"
				},
				{
					"inputs": [
						{
							"internalType": "address",
							"name": "account",
							"type": "address"
						}
					],
					"name": "getBalance",
					"outputs": [
						{
							"internalType": "uint256",
							"name": "",
							"type": "uint256"
						}
					],
					"stateMutability": "view",
					"type": "function"
				},
				{
					"inputs": [],
					"name": "owner",
					"outputs": [
						{
							"internalType": "address",
							"name": "",
							"type": "address"
						}
					],
					"stateMutability": "view",
					"type": "function"
				},
				{
					"inputs": [],
					"name": "totalDeposits",
					"outputs": [
						{
							"internalType": "uint256",
							"name": "",
							"type": "uint256"
						}
					],
					"stateMutability": "view",
					"type": "function"
				},
				{
					"inputs": [],
					"name": "totalSupply",
					"outputs": [
						{
							"internalType": "uint256",
							"name": "",
							"type": "uint256"
						}
					],
					"stateMutability": "view",
					"type": "function"
				},
				{
					"inputs": [
						{
							"internalType": "uint256",
							"name": "amount",
							"type": "uint256"
						}
					],
					"name": "withdraw",
					"outputs": [],
					"stateMutability": "nonpayable",
					"type": "function"
				}
			],
			"devdoc": {
				"kind": "dev",
				"methods": {},
				"version": 1
			},
			"evm": {
				"assembly": "    /* \"contract/7thClass1.sol\":60:1443  contract BankAccount{... */\n  mstore(0x40, 0x80)\n    /* \"contract/7thClass1.sol\":313:540  constructor(string memory _name, uint256 _totalSupply) {... */\n  callvalue\n  dup1\n  iszero\n  tag_1\n  jumpi\n  revert(0x00, 0x00)\ntag_1:\n  pop\n  mload(0x40)\n  sub(codesize, bytecodeSize)\n  dup1\n  bytecodeSize\n  dup4\n  codecopy\n  dup2\n  dup2\n  add\n  0x40\n  mstore\n  dup2\n  add\n  swap1\n  tag_2\n  swap2\n  swap1\n  tag_3\n  jump\t// in\ntag_2:\n    /* \"contract/7thClass1.sol\":387:397  msg.sender */\n  caller\n    /* \"contract/7thClass1.sol\":379:384  owner */\n  0x03\n  0x00\n    /* \"contract/7thClass1.sol\":379:397  owner = msg.sender */\n  0x0100\n  exp\n  dup2\n  sload\n  dup2\n  0xffffffffffffffffffffffffffffffffffffffff\n  mul\n  not\n  and\n  swap1\n  dup4\n  0xffffffffffffffffffffffffffffffffffffffff\n  and\n  mul\n  or\n  swap1\n  sstore\n  pop\n    /* \"contract/7thClass1.sol\":457:462  _name */\n  dup2\n    /* \"contract/7thClass1.sol\":442:454  contractName */\n  0x04\n    /* \"contract/7thClass1.sol\":442:462  contractName = _name */\n  swap1\n  dup2\n  tag_6\n  swap2\n  swap1\n  tag_7\n  jump\t// in\ntag_6:\n  pop\n    /* \"contract/7thClass1.sol\":520:532  _totalSupply */\n  dup1\n    /* \"contract/7thClass1.sol\":506:517  totalSupply */\n  0x05\n    /* \"contract/7thClass1.sol\":506:532  totalSupply = _totalSupply */\n  dup2\n  swap1\n  sstore\n  pop\n    /* \"contract/7thClass1.sol\":313:540  constructor(string memory _name, uint256 _totalSupply) {... */\n  pop\n  pop\n    /* \"contract/7thClass1.sol\":60:1443  contract BankAccount{... */\n  jump(tag_8)\n    /* \"#utility.yul\":7:82   */\ntag_9:\n    /* \"#utility.yul\":40:46   */\n  0x00\n    /* \"#utility.yul\":73:75   */\n  0x40\n    /* \"#utility.yul\":67:76   */\n  mload\n    /* \"#utility.yul\":57:76   */\n  swap1\n  pop\n    /* \"#utility.yul\":7:82   */\n  swap1\n  jump\t// out\n    /* \"#utility.yul\":88:205   */\ntag_10:\n    /* \"#utility.yul\":197:198   */\n  0x00\n    /* \"#utility.yul\":194:195   */\n  0x00\n    /* \"#utility.yul\":187:199   */\n  revert\n    /* \"#utility.yul\":211:328   */\ntag_11:\n    /* \"#utility.yul\":320:321   */\n  0x00\n    /* \"#utility.yul\":317:318   */\n  0x00\n    /* \"#utility.yul\":310:322   */\n  revert\n    /* \"#utility.yul\":334:451   */\ntag_12:\n    /* \"#utility.yul\":443:444   */\n  0x00\n    /* \"#utility.yul\":440:441   */\n  0x00\n    /* \"#utility.yul\":433:445   */\n  revert\n    /* \"#utility.yul\":457:574   */\ntag_13:\n    /* \"#utility.yul\":566:567   */\n  0x00\n    /* \"#utility.yul\":563:564   */\n  0x00\n    /* \"#utility.yul\":556:568   */\n  revert\n    /* \"#utility.yul\":580:682   */\ntag_14:\n    /* \"#utility.yul\":621:627   */\n  0x00\n    /* \"#utility.yul\":672:674   */\n  0x1f\n    /* \"#utility.yul\":668:675   */\n  not\n    /* \"#utility.yul\":663:665   */\n  0x1f\n    /* \"#utility.yul\":656:661   */\n  dup4\n    /* \"#utility.yul\":652:666   */\n  add\n    /* \"#utility.yul\":648:676   */\n  and\n    /* \"#utility.yul\":638:676   */\n  swap1\n  pop\n    /* \"#utility.yul\":580:682   */\n  swap2\n  swap1\n  pop\n  jump\t// out\n    /* \"#utility.yul\":688:868   */\ntag_15:\n    /* \"#utility.yul\":736:813   */\n  0x4e487b7100000000000000000000000000000000000000000000000000000000\n    /* \"#utility.yul\":733:734   */\n  0x00\n    /* \"#utility.yul\":726:814   */\n  mstore\n    /* \"#utility.yul\":833:837   */\n  0x41\n    /* \"#utility.yul\":830:831   */\n  0x04\n    /* \"#utility.yul\":823:838   */\n  mstore\n    /* \"#utility.yul\":857:861   */\n  0x24\n    /* \"#utility.yul\":854:855   */\n  0x00\n    /* \"#utility.yul\":847:862   */\n  revert\n    /* \"#utility.yul\":874:1155   */\ntag_16:\n    /* \"#utility.yul\":957:984   */\n  tag_52\n    /* \"#utility.yul\":979:983   */\n  dup3\n    /* \"#utility.yul\":957:984   */\n  tag_14\n  jump\t// in\ntag_52:\n    /* \"#utility.yul\":949:955   */\n  dup2\n    /* \"#utility.yul\":945:985   */\n  add\n    /* \"#utility.yul\":1087:1093   */\n  dup2\n    /* \"#utility.yul\":1075:1085   */\n  dup2\n    /* \"#utility.yul\":1072:1094   */\n  lt\n    /* \"#utility.yul\":1051:1069   */\n  0xffffffffffffffff\n    /* \"#utility.yul\":1039:1049   */\n  dup3\n    /* \"#utility.yul\":1036:1070   */\n  gt\n    /* \"#utility.yul\":1033:1095   */\n  or\n    /* \"#utility.yul\":1030:1118   */\n  iszero\n  tag_53\n  jumpi\n    /* \"#utility.yul\":1098:1116   */\n  tag_54\n  tag_15\n  jump\t// in\ntag_54:\n    /* \"#utility.yul\":1030:1118   */\ntag_53:\n    /* \"#utility.yul\":1138:1148   */\n  dup1\n    /* \"#utility.yul\":1134:1136   */\n  0x40\n    /* \"#utility.yul\":1127:1149   */\n  mstore\n    /* \"#utility.yul\":917:1155   */\n  pop\n    /* \"#utility.yul\":874:1155   */\n  pop\n  pop\n  jump\t// out\n    /* \"#utility.yul\":1161:1290   */\ntag_17:\n    /* \"#utility.yul\":1195:1201   */\n  0x00\n    /* \"#utility.yul\":1222:1242   */\n  tag_56\n  tag_9\n  jump\t// in\ntag_56:\n    /* \"#utility.yul\":1212:1242   */\n  swap1\n  pop\n    /* \"#utility.yul\":1251:1284   */\n  tag_57\n    /* \"#utility.yul\":1279:1283   */\n  dup3\n    /* \"#utility.yul\":1271:1277   */\n  dup3\n    /* \"#utility.yul\":1251:1284   */\n  tag_16\n  jump\t// in\ntag_57:\n    /* \"#utility.yul\":1161:1290   */\n  swap2\n  swap1\n  pop\n  jump\t// out\n    /* \"#utility.yul\":1296:1604   */\ntag_18:\n    /* \"#utility.yul\":1358:1362   */\n  0x00\n    /* \"#utility.yul\":1448:1466   */\n  0xffffffffffffffff\n    /* \"#utility.yul\":1440:1446   */\n  dup3\n    /* \"#utility.yul\":1437:1467   */\n  gt\n    /* \"#utility.yul\":1434:1490   */\n  iszero\n  tag_59\n  jumpi\n    /* \"#utility.yul\":1470:1488   */\n  tag_60\n  tag_15\n  jump\t// in\ntag_60:\n    /* \"#utility.yul\":1434:1490   */\ntag_59:\n    /* \"#utility.yul\":1508:1537   */\n  tag_61\n    /* \"#utility.yul\":1530:1536   */\n  dup3\n    /* \"#utility.yul\":1508:1537   */\n  tag_14\n  jump\t// in\ntag_61:\n    /* \"#utility.yul\":1500:1537   */\n  swap1\n  pop\n    /* \"#utility.yul\":1592:1596   */\n  0x20\n    /* \"#utility.yul\":1586:1590   */\n  dup2\n    /* \"#utility.yul\":1582:1597   */\n  add\n    /* \"#utility.yul\":1574:1597   */\n  swap1\n  pop\n    /* \"#utility.yul\":1296:1604   */\n  swap2\n  swap1\n  pop\n  jump\t// out\n    /* \"#utility.yul\":1610:1749   */\ntag_19:\n    /* \"#utility.yul\":1699:1705   */\n  dup3\n    /* \"#utility.yul\":1694:1697   */\n  dup2\n    /* \"#utility.yul\":1689:1692   */\n  dup4\n    /* \"#utility.yul\":1683:1706   */\n  mcopy\n    /* \"#utility.yul\":1740:1741   */\n  0x00\n    /* \"#utility.yul\":1731:1737   */\n  dup4\n    /* \"#utility.yul\":1726:1729   */\n  dup4\n    /* \"#utility.yul\":1722:1738   */\n  add\n    /* \"#utility.yul\":1715:1742   */\n  mstore\n    /* \"#utility.yul\":1610:1749   */\n  pop\n  pop\n  pop\n  jump\t// out\n    /* \"#utility.yul\":1755:2189   */\ntag_20:\n    /* \"#utility.yul\":1844:1849   */\n  0x00\n    /* \"#utility.yul\":1869:1935   */\n  tag_64\n    /* \"#utility.yul\":1885:1934   */\n  tag_65\n    /* \"#utility.yul\":1927:1933   */\n  dup5\n    /* \"#utility.yul\":1885:1934   */\n  tag_18\n  jump\t// in\ntag_65:\n    /* \"#utility.yul\":1869:1935   */\n  tag_17\n  jump\t// in\ntag_64:\n    /* \"#utility.yul\":1860:1935   */\n  swap1\n  pop\n    /* \"#utility.yul\":1958:1964   */\n  dup3\n    /* \"#utility.yul\":1951:1956   */\n  dup2\n    /* \"#utility.yul\":1944:1965   */\n  mstore\n    /* \"#utility.yul\":1996:2000   */\n  0x20\n    /* \"#utility.yul\":1989:1994   */\n  dup2\n    /* \"#utility.yul\":1985:2001   */\n  add\n    /* \"#utility.yul\":2034:2037   */\n  dup5\n    /* \"#utility.yul\":2025:2031   */\n  dup5\n    /* \"#utility.yul\":2020:2023   */\n  dup5\n    /* \"#utility.yul\":2016:2032   */\n  add\n    /* \"#utility.yul\":2013:2038   */\n  gt\n    /* \"#utility.yul\":2010:2122   */\n  iszero\n  tag_66\n  jumpi\n    /* \"#utility.yul\":2041:2120   */\n  tag_67\n  tag_13\n  jump\t// in\ntag_67:\n    /* \"#utility.yul\":2010:2122   */\ntag_66:\n    /* \"#utility.yul\":2131:2183   */\n  tag_68\n    /* \"#utility.yul\":2176:2182   */\n  dup5\n    /* \"#utility.yul\":2171:2174   */\n  dup3\n    /* \"#utility.yul\":2166:2169   */\n  dup6\n    /* \"#utility.yul\":2131:2183   */\n  tag_19\n  jump\t// in\ntag_68:\n    /* \"#utility.yul\":1850:2189   */\n  pop\n    /* \"#utility.yul\":1755:2189   */\n  swap4\n  swap3\n  pop\n  pop\n  pop\n  jump\t// out\n    /* \"#utility.yul\":2209:2564   */\ntag_21:\n    /* \"#utility.yul\":2276:2281   */\n  0x00\n    /* \"#utility.yul\":2325:2328   */\n  dup3\n    /* \"#utility.yul\":2318:2322   */\n  0x1f\n    /* \"#utility.yul\":2310:2316   */\n  dup4\n    /* \"#utility.yul\":2306:2323   */\n  add\n    /* \"#utility.yul\":2302:2329   */\n  slt\n    /* \"#utility.yul\":2292:2414   */\n  tag_70\n  jumpi\n    /* \"#utility.yul\":2333:2412   */\n  tag_71\n  tag_12\n  jump\t// in\ntag_71:\n    /* \"#utility.yul\":2292:2414   */\ntag_70:\n    /* \"#utility.yul\":2443:2449   */\n  dup2\n    /* \"#utility.yul\":2437:2450   */\n  mload\n    /* \"#utility.yul\":2468:2558   */\n  tag_72\n    /* \"#utility.yul\":2554:2557   */\n  dup5\n    /* \"#utility.yul\":2546:2552   */\n  dup3\n    /* \"#utility.yul\":2539:2543   */\n  0x20\n    /* \"#utility.yul\":2531:2537   */\n  dup7\n    /* \"#utility.yul\":2527:2544   */\n  add\n    /* \"#utility.yul\":2468:2558   */\n  tag_20\n  jump\t// in\ntag_72:\n    /* \"#utility.yul\":2459:2558   */\n  swap2\n  pop\n    /* \"#utility.yul\":2282:2564   */\n  pop\n    /* \"#utility.yul\":2209:2564   */\n  swap3\n  swap2\n  pop\n  pop\n  jump\t// out\n    /* \"#utility.yul\":2570:2647   */\ntag_22:\n    /* \"#utility.yul\":2607:2614   */\n  0x00\n    /* \"#utility.yul\":2636:2641   */\n  dup2\n    /* \"#utility.yul\":2625:2641   */\n  swap1\n  pop\n    /* \"#utility.yul\":2570:2647   */\n  swap2\n  swap1\n  pop\n  jump\t// out\n    /* \"#utility.yul\":2653:2775   */\ntag_23:\n    /* \"#utility.yul\":2726:2750   */\n  tag_75\n    /* \"#utility.yul\":2744:2749   */\n  dup2\n    /* \"#utility.yul\":2726:2750   */\n  tag_22\n  jump\t// in\ntag_75:\n    /* \"#utility.yul\":2719:2724   */\n  dup2\n    /* \"#utility.yul\":2716:2751   */\n  eq\n    /* \"#utility.yul\":2706:2769   */\n  tag_76\n  jumpi\n    /* \"#utility.yul\":2765:2766   */\n  0x00\n    /* \"#utility.yul\":2762:2763   */\n  0x00\n    /* \"#utility.yul\":2755:2767   */\n  revert\n    /* \"#utility.yul\":2706:2769   */\ntag_76:\n    /* \"#utility.yul\":2653:2775   */\n  pop\n  jump\t// out\n    /* \"#utility.yul\":2781:2924   */\ntag_24:\n    /* \"#utility.yul\":2838:2843   */\n  0x00\n    /* \"#utility.yul\":2869:2875   */\n  dup2\n    /* \"#utility.yul\":2863:2876   */\n  mload\n    /* \"#utility.yul\":2854:2876   */\n  swap1\n  pop\n    /* \"#utility.yul\":2885:2918   */\n  tag_78\n    /* \"#utility.yul\":2912:2917   */\n  dup2\n    /* \"#utility.yul\":2885:2918   */\n  tag_23\n  jump\t// in\ntag_78:\n    /* \"#utility.yul\":2781:2924   */\n  swap3\n  swap2\n  pop\n  pop\n  jump\t// out\n    /* \"#utility.yul\":2930:3610   */\ntag_3:\n    /* \"#utility.yul\":3019:3025   */\n  0x00\n    /* \"#utility.yul\":3027:3033   */\n  0x00\n    /* \"#utility.yul\":3076:3078   */\n  0x40\n    /* \"#utility.yul\":3064:3073   */\n  dup4\n    /* \"#utility.yul\":3055:3062   */\n  dup6\n    /* \"#utility.yul\":3051:3074   */\n  sub\n    /* \"#utility.yul\":3047:3079   */\n  slt\n    /* \"#utility.yul\":3044:3163   */\n  iszero\n  tag_80\n  jumpi\n    /* \"#utility.yul\":3082:3161   */\n  tag_81\n  tag_10\n  jump\t// in\ntag_81:\n    /* \"#utility.yul\":3044:3163   */\ntag_80:\n    /* \"#utility.yul\":3223:3224   */\n  0x00\n    /* \"#utility.yul\":3212:3221   */\n  dup4\n    /* \"#utility.yul\":3208:3225   */\n  add\n    /* \"#utility.yul\":3202:3226   */\n  mload\n    /* \"#utility.yul\":3253:3271   */\n  0xffffffffffffffff\n    /* \"#utility.yul\":3245:3251   */\n  dup2\n    /* \"#utility.yul\":3242:3272   */\n  gt\n    /* \"#utility.yul\":3239:3356   */\n  iszero\n  tag_82\n  jumpi\n    /* \"#utility.yul\":3275:3354   */\n  tag_83\n  tag_11\n  jump\t// in\ntag_83:\n    /* \"#utility.yul\":3239:3356   */\ntag_82:\n    /* \"#utility.yul\":3380:3454   */\n  tag_84\n    /* \"#utility.yul\":3446:3453   */\n  dup6\n    /* \"#utility.yul\":3437:3443   */\n  dup3\n    /* \"#utility.yul\":3426:3435   */\n  dup7\n    /* \"#utility.yul\":3422:3444   */\n  add\n    /* \"#utility.yul\":3380:3454   */\n  tag_21\n  jump\t// in\ntag_84:\n    /* \"#utility.yul\":3370:3454   */\n  swap3\n  pop\n    /* \"#utility.yul\":3173:3464   */\n  pop\n    /* \"#utility.yul\":3503:3505   */\n  0x20\n    /* \"#utility.yul\":3529:3593   */\n  tag_85\n    /* \"#utility.yul\":3585:3592   */\n  dup6\n    /* \"#utility.yul\":3576:3582   */\n  dup3\n    /* \"#utility.yul\":3565:3574   */\n  dup7\n    /* \"#utility.yul\":3561:3583   */\n  add\n    /* \"#utility.yul\":3529:3593   */\n  tag_24\n  jump\t// in\ntag_85:\n    /* \"#utility.yul\":3519:3593   */\n  swap2\n  pop\n    /* \"#utility.yul\":3474:3603   */\n  pop\n    /* \"#utility.yul\":2930:3610   */\n  swap3\n  pop\n  swap3\n  swap1\n  pop\n  jump\t// out\n    /* \"#utility.yul\":3616:3715   */\ntag_25:\n    /* \"#utility.yul\":3668:3674   */\n  0x00\n    /* \"#utility.yul\":3702:3707   */\n  dup2\n    /* \"#utility.yul\":3696:3708   */\n  mload\n    /* \"#utility.yul\":3686:3708   */\n  swap1\n  pop\n    /* \"#utility.yul\":3616:3715   */\n  swap2\n  swap1\n  pop\n  jump\t// out\n    /* \"#utility.yul\":3721:3901   */\ntag_26:\n    /* \"#utility.yul\":3769:3846   */\n  0x4e487b7100000000000000000000000000000000000000000000000000000000\n    /* \"#utility.yul\":3766:3767   */\n  0x00\n    /* \"#utility.yul\":3759:3847   */\n  mstore\n    /* \"#utility.yul\":3866:3870   */\n  0x22\n    /* \"#utility.yul\":3863:3864   */\n  0x04\n    /* \"#utility.yul\":3856:3871   */\n  mstore\n    /* \"#utility.yul\":3890:3894   */\n  0x24\n    /* \"#utility.yul\":3887:3888   */\n  0x00\n    /* \"#utility.yul\":3880:3895   */\n  revert\n    /* \"#utility.yul\":3907:4227   */\ntag_27:\n    /* \"#utility.yul\":3951:3957   */\n  0x00\n    /* \"#utility.yul\":3988:3989   */\n  0x02\n    /* \"#utility.yul\":3982:3986   */\n  dup3\n    /* \"#utility.yul\":3978:3990   */\n  div\n    /* \"#utility.yul\":3968:3990   */\n  swap1\n  pop\n    /* \"#utility.yul\":4035:4036   */\n  0x01\n    /* \"#utility.yul\":4029:4033   */\n  dup3\n    /* \"#utility.yul\":4025:4037   */\n  and\n    /* \"#utility.yul\":4056:4074   */\n  dup1\n    /* \"#utility.yul\":4046:4127   */\n  tag_89\n  jumpi\n    /* \"#utility.yul\":4112:4116   */\n  0x7f\n    /* \"#utility.yul\":4104:4110   */\n  dup3\n    /* \"#utility.yul\":4100:4117   */\n  and\n    /* \"#utility.yul\":4090:4117   */\n  swap2\n  pop\n    /* \"#utility.yul\":4046:4127   */\ntag_89:\n    /* \"#utility.yul\":4174:4176   */\n  0x20\n    /* \"#utility.yul\":4166:4172   */\n  dup3\n    /* \"#utility.yul\":4163:4177   */\n  lt\n    /* \"#utility.yul\":4143:4161   */\n  dup2\n    /* \"#utility.yul\":4140:4178   */\n  sub\n    /* \"#utility.yul\":4137:4221   */\n  tag_90\n  jumpi\n    /* \"#utility.yul\":4193:4211   */\n  tag_91\n  tag_26\n  jump\t// in\ntag_91:\n    /* \"#utility.yul\":4137:4221   */\ntag_90:\n    /* \"#utility.yul\":3958:4227   */\n  pop\n    /* \"#utility.yul\":3907:4227   */\n  swap2\n  swap1\n  pop\n  jump\t// out\n    /* \"#utility.yul\":4233:4374   */\ntag_28:\n    /* \"#utility.yul\":4282:4286   */\n  0x00\n    /* \"#utility.yul\":4305:4308   */\n  dup2\n    /* \"#utility.yul\":4297:4308   */\n  swap1\n  pop\n    /* \"#utility.yul\":4328:4331   */\n  dup2\n    /* \"#utility.yul\":4325:4326   */\n  0x00\n    /* \"#utility.yul\":4318:4332   */\n  mstore\n    /* \"#utility.yul\":4362:4366   */\n  0x20\n    /* \"#utility.yul\":4359:4360   */\n  0x00\n    /* \"#utility.yul\":4349:4367   */\n  keccak256\n    /* \"#utility.yul\":4341:4367   */\n  swap1\n  pop\n    /* \"#utility.yul\":4233:4374   */\n  swap2\n  swap1\n  pop\n  jump\t// out\n    /* \"#utility.yul\":4380:4473   */\ntag_29:\n    /* \"#utility.yul\":4417:4423   */\n  0x00\n    /* \"#utility.yul\":4464:4466   */\n  0x20\n    /* \"#utility.yul\":4459:4461   */\n  0x1f\n    /* \"#utility.yul\":4452:4457   */\n  dup4\n    /* \"#utility.yul\":4448:4462   */\n  add\n    /* \"#utility.yul\":4444:4467   */\n  div\n    /* \"#utility.yul\":4434:4467   */\n  swap1\n  pop\n    /* \"#utility.yul\":4380:4473   */\n  swap2\n  swap1\n  pop\n  jump\t// out\n    /* \"#utility.yul\":4479:4586   */\ntag_30:\n    /* \"#utility.yul\":4523:4531   */\n  0x00\n    /* \"#utility.yul\":4573:4578   */\n  dup3\n    /* \"#utility.yul\":4567:4571   */\n  dup3\n    /* \"#utility.yul\":4563:4579   */\n  shl\n    /* \"#utility.yul\":4542:4579   */\n  swap1\n  pop\n    /* \"#utility.yul\":4479:4586   */\n  swap3\n  swap2\n  pop\n  pop\n  jump\t// out\n    /* \"#utility.yul\":4592:4985   */\ntag_31:\n    /* \"#utility.yul\":4661:4667   */\n  0x00\n    /* \"#utility.yul\":4711:4712   */\n  0x08\n    /* \"#utility.yul\":4699:4709   */\n  dup4\n    /* \"#utility.yul\":4695:4713   */\n  mul\n    /* \"#utility.yul\":4734:4831   */\n  tag_96\n    /* \"#utility.yul\":4764:4830   */\n  0xffffffffffffffffffffffffffffffffffffffffffffffffffffffffffffffff\n    /* \"#utility.yul\":4753:4762   */\n  dup3\n    /* \"#utility.yul\":4734:4831   */\n  tag_30\n  jump\t// in\ntag_96:\n    /* \"#utility.yul\":4852:4891   */\n  tag_97\n    /* \"#utility.yul\":4882:4890   */\n  dup7\n    /* \"#utility.yul\":4871:4880   */\n  dup4\n    /* \"#utility.yul\":4852:4891   */\n  tag_30\n  jump\t// in\ntag_97:\n    /* \"#utility.yul\":4840:4891   */\n  swap6\n  pop\n    /* \"#utility.yul\":4924:4928   */\n  dup1\n    /* \"#utility.yul\":4920:4929   */\n  not\n    /* \"#utility.yul\":4913:4918   */\n  dup5\n    /* \"#utility.yul\":4909:4930   */\n  and\n    /* \"#utility.yul\":4900:4930   */\n  swap4\n  pop\n    /* \"#utility.yul\":4973:4977   */\n  dup1\n    /* \"#utility.yul\":4963:4971   */\n  dup7\n    /* \"#utility.yul\":4959:4978   */\n  and\n    /* \"#utility.yul\":4952:4957   */\n  dup5\n    /* \"#utility.yul\":4949:4979   */\n  or\n    /* \"#utility.yul\":4939:4979   */\n  swap3\n  pop\n    /* \"#utility.yul\":4668:4985   */\n  pop\n  pop\n    /* \"#utility.yul\":4592:4985   */\n  swap4\n  swap3\n  pop\n  pop\n  pop\n  jump\t// out\n    /* \"#utility.yul\":4991:5051   */\ntag_32:\n    /* \"#utility.yul\":5019:5022   */\n  0x00\n    /* \"#utility.yul\":5040:5045   */\n  dup2\n    /* \"#utility.yul\":5033:5045   */\n  swap1\n  pop\n    /* \"#utility.yul\":4991:5051   */\n  swap2\n  swap1\n  pop\n  jump\t// out\n    /* \"#utility.yul\":5057:5199   */\ntag_33:\n    /* \"#utility.yul\":5107:5116   */\n  0x00\n    /* \"#utility.yul\":5140:5193   */\n  tag_100\n    /* \"#utility.yul\":5158:5192   */\n  tag_101\n    /* \"#utility.yul\":5167:5191   */\n  tag_102\n    /* \"#utility.yul\":5185:5190   */\n  dup5\n    /* \"#utility.yul\":5167:5191   */\n  tag_22\n  jump\t// in\ntag_102:\n    /* \"#utility.yul\":5158:5192   */\n  tag_32\n  jump\t// in\ntag_101:\n    /* \"#utility.yul\":5140:5193   */\n  tag_22\n  jump\t// in\ntag_100:\n    /* \"#utility.yul\":5127:5193   */\n  swap1\n  pop\n    /* \"#utility.yul\":5057:5199   */\n  swap2\n  swap1\n  pop\n  jump\t// out\n    /* \"#utility.yul\":5205:5280   */\ntag_34:\n    /* \"#utility.yul\":5248:5251   */\n  0x00\n    /* \"#utility.yul\":5269:5274   */\n  dup2\n    /* \"#utility.yul\":5262:5274   */\n  swap1\n  pop\n    /* \"#utility.yul\":5205:5280   */\n  swap2\n  swap1\n  pop\n  jump\t// out\n    /* \"#utility.yul\":5286:5555   */\ntag_35:\n    /* \"#utility.yul\":5396:5435   */\n  tag_105\n    /* \"#utility.yul\":5427:5434   */\n  dup4\n    /* \"#utility.yul\":5396:5435   */\n  tag_33\n  jump\t// in\ntag_105:\n    /* \"#utility.yul\":5457:5548   */\n  tag_106\n    /* \"#utility.yul\":5506:5547   */\n  tag_107\n    /* \"#utility.yul\":5530:5546   */\n  dup3\n    /* \"#utility.yul\":5506:5547   */\n  tag_34\n  jump\t// in\ntag_107:\n    /* \"#utility.yul\":5498:5504   */\n  dup5\n    /* \"#utility.yul\":5491:5495   */\n  dup5\n    /* \"#utility.yul\":5485:5496   */\n  sload\n    /* \"#utility.yul\":5457:5548   */\n  tag_31\n  jump\t// in\ntag_106:\n    /* \"#utility.yul\":5451:5455   */\n  dup3\n    /* \"#utility.yul\":5444:5549   */\n  sstore\n    /* \"#utility.yul\":5362:5555   */\n  pop\n    /* \"#utility.yul\":5286:5555   */\n  pop\n  pop\n  pop\n  jump\t// out\n    /* \"#utility.yul\":5561:5634   */\ntag_36:\n    /* \"#utility.yul\":5606:5609   */\n  0x00\n    /* \"#utility.yul\":5627:5628   */\n  0x00\n    /* \"#utility.yul\":5620:5628   */\n  swap1\n  pop\n    /* \"#utility.yul\":5561:5634   */\n  swap1\n  jump\t// out\n    /* \"#utility.yul\":5640:5829   */\ntag_37:\n    /* \"#utility.yul\":5717:5749   */\n  tag_110\n  tag_36\n  jump\t// in\ntag_110:\n    /* \"#utility.yul\":5758:5823   */\n  tag_111\n    /* \"#utility.yul\":5816:5822   */\n  dup2\n    /* \"#utility.yul\":5808:5814   */\n  dup5\n    /* \"#utility.yul\":5802:5806   */\n  dup5\n    /* \"#utility.yul\":5758:5823   */\n  tag_35\n  jump\t// in\ntag_111:\n    /* \"#utility.yul\":5693:5829   */\n  pop\n    /* \"#utility.yul\":5640:5829   */\n  pop\n  pop\n  jump\t// out\n    /* \"#utility.yul\":5835:6021   */\ntag_38:\n    /* \"#utility.yul\":5895:6015   */\ntag_113:\n    /* \"#utility.yul\":5912:5915   */\n  dup2\n    /* \"#utility.yul\":5905:5910   */\n  dup2\n    /* \"#utility.yul\":5902:5916   */\n  lt\n    /* \"#utility.yul\":5895:6015   */\n  iszero\n  tag_115\n  jumpi\n    /* \"#utility.yul\":5966:6005   */\n  tag_116\n    /* \"#utility.yul\":6003:6004   */\n  0x00\n    /* \"#utility.yul\":5996:6001   */\n  dup3\n    /* \"#utility.yul\":5966:6005   */\n  tag_37\n  jump\t// in\ntag_116:\n    /* \"#utility.yul\":5939:5940   */\n  0x01\n    /* \"#utility.yul\":5932:5937   */\n  dup2\n    /* \"#utility.yul\":5928:5941   */\n  add\n    /* \"#utility.yul\":5919:5941   */\n  swap1\n  pop\n    /* \"#utility.yul\":5895:6015   */\n  jump(tag_113)\ntag_115:\n    /* \"#utility.yul\":5835:6021   */\n  pop\n  pop\n  jump\t// out\n    /* \"#utility.yul\":6027:6570   */\ntag_39:\n    /* \"#utility.yul\":6128:6130   */\n  0x1f\n    /* \"#utility.yul\":6123:6126   */\n  dup3\n    /* \"#utility.yul\":6120:6131   */\n  gt\n    /* \"#utility.yul\":6117:6563   */\n  iszero\n  tag_118\n  jumpi\n    /* \"#utility.yul\":6162:6200   */\n  tag_119\n    /* \"#utility.yul\":6194:6199   */\n  dup2\n    /* \"#utility.yul\":6162:6200   */\n  tag_28\n  jump\t// in\ntag_119:\n    /* \"#utility.yul\":6246:6275   */\n  tag_120\n    /* \"#utility.yul\":6264:6274   */\n  dup5\n    /* \"#utility.yul\":6246:6275   */\n  tag_29\n  jump\t// in\ntag_120:\n    /* \"#utility.yul\":6236:6244   */\n  dup2\n    /* \"#utility.yul\":6232:6276   */\n  add\n    /* \"#utility.yul\":6429:6431   */\n  0x20\n    /* \"#utility.yul\":6417:6427   */\n  dup6\n    /* \"#utility.yul\":6414:6432   */\n  lt\n    /* \"#utility.yul\":6411:6460   */\n  iszero\n  tag_121\n  jumpi\n    /* \"#utility.yul\":6450:6458   */\n  dup2\n    /* \"#utility.yul\":6435:6458   */\n  swap1\n  pop\n    /* \"#utility.yul\":6411:6460   */\ntag_121:\n    /* \"#utility.yul\":6473:6553   */\n  tag_122\n    /* \"#utility.yul\":6529:6551   */\n  tag_123\n    /* \"#utility.yul\":6547:6550   */\n  dup6\n    /* \"#utility.yul\":6529:6551   */\n  tag_29\n  jump\t// in\ntag_123:\n    /* \"#utility.yul\":6519:6527   */\n  dup4\n    /* \"#utility.yul\":6515:6552   */\n  add\n    /* \"#utility.yul\":6502:6513   */\n  dup3\n    /* \"#utility.yul\":6473:6553   */\n  tag_38\n  jump\t// in\ntag_122:\n    /* \"#utility.yul\":6132:6563   */\n  pop\n  pop\n    /* \"#utility.yul\":6117:6563   */\ntag_118:\n    /* \"#utility.yul\":6027:6570   */\n  pop\n  pop\n  pop\n  jump\t// out\n    /* \"#utility.yul\":6576:6693   */\ntag_40:\n    /* \"#utility.yul\":6630:6638   */\n  0x00\n    /* \"#utility.yul\":6680:6685   */\n  dup3\n    /* \"#utility.yul\":6674:6678   */\n  dup3\n    /* \"#utility.yul\":6670:6686   */\n  shr\n    /* \"#utility.yul\":6649:6686   */\n  swap1\n  pop\n    /* \"#utility.yul\":6576:6693   */\n  swap3\n  swap2\n  pop\n  pop\n  jump\t// out\n    /* \"#utility.yul\":6699:6868   */\ntag_41:\n    /* \"#utility.yul\":6743:6749   */\n  0x00\n    /* \"#utility.yul\":6776:6827   */\n  tag_126\n    /* \"#utility.yul\":6824:6825   */\n  0x00\n    /* \"#utility.yul\":6820:6826   */\n  not\n    /* \"#utility.yul\":6812:6817   */\n  dup5\n    /* \"#utility.yul\":6809:6810   */\n  0x08\n    /* \"#utility.yul\":6805:6818   */\n  mul\n    /* \"#utility.yul\":6776:6827   */\n  tag_40\n  jump\t// in\ntag_126:\n    /* \"#utility.yul\":6772:6828   */\n  not\n    /* \"#utility.yul\":6857:6861   */\n  dup1\n    /* \"#utility.yul\":6851:6855   */\n  dup4\n    /* \"#utility.yul\":6847:6862   */\n  and\n    /* \"#utility.yul\":6837:6862   */\n  swap2\n  pop\n    /* \"#utility.yul\":6750:6868   */\n  pop\n    /* \"#utility.yul\":6699:6868   */\n  swap3\n  swap2\n  pop\n  pop\n  jump\t// out\n    /* \"#utility.yul\":6873:7168   */\ntag_42:\n    /* \"#utility.yul\":6949:6953   */\n  0x00\n    /* \"#utility.yul\":7095:7124   */\n  tag_128\n    /* \"#utility.yul\":7120:7123   */\n  dup4\n    /* \"#utility.yul\":7114:7118   */\n  dup4\n    /* \"#utility.yul\":7095:7124   */\n  tag_41\n  jump\t// in\ntag_128:\n    /* \"#utility.yul\":7087:7124   */\n  swap2\n  pop\n    /* \"#utility.yul\":7157:7160   */\n  dup3\n    /* \"#utility.yul\":7154:7155   */\n  0x02\n    /* \"#utility.yul\":7150:7161   */\n  mul\n    /* \"#utility.yul\":7144:7148   */\n  dup3\n    /* \"#utility.yul\":7141:7162   */\n  or\n    /* \"#utility.yul\":7133:7162   */\n  swap1\n  pop\n    /* \"#utility.yul\":6873:7168   */\n  swap3\n  swap2\n  pop\n  pop\n  jump\t// out\n    /* \"#utility.yul\":7173:8568   */\ntag_7:\n    /* \"#utility.yul\":7290:7327   */\n  tag_130\n    /* \"#utility.yul\":7323:7326   */\n  dup3\n    /* \"#utility.yul\":7290:7327   */\n  tag_25\n  jump\t// in\ntag_130:\n    /* \"#utility.yul\":7392:7410   */\n  0xffffffffffffffff\n    /* \"#utility.yul\":7384:7390   */\n  dup2\n    /* \"#utility.yul\":7381:7411   */\n  gt\n    /* \"#utility.yul\":7378:7434   */\n  iszero\n  tag_131\n  jumpi\n    /* \"#utility.yul\":7414:7432   */\n  tag_132\n  tag_15\n  jump\t// in\ntag_132:\n    /* \"#utility.yul\":7378:7434   */\ntag_131:\n    /* \"#utility.yul\":7458:7496   */\n  tag_133\n    /* \"#utility.yul\":7490:7494   */\n  dup3\n    /* \"#utility.yul\":7484:7495   */\n  sload\n    /* \"#utility.yul\":7458:7496   */\n  tag_27\n  jump\t// in\ntag_133:\n    /* \"#utility.yul\":7543:7610   */\n  tag_134\n    /* \"#utility.yul\":7603:7609   */\n  dup3\n    /* \"#utility.yul\":7595:7601   */\n  dup3\n    /* \"#utility.yul\":7589:7593   */\n  dup6\n    /* \"#utility.yul\":7543:7610   */\n  tag_39\n  jump\t// in\ntag_134:\n    /* \"#utility.yul\":7637:7638   */\n  0x00\n    /* \"#utility.yul\":7661:7665   */\n  0x20\n    /* \"#utility.yul\":7648:7665   */\n  swap1\n  pop\n    /* \"#utility.yul\":7693:7695   */\n  0x1f\n    /* \"#utility.yul\":7685:7691   */\n  dup4\n    /* \"#utility.yul\":7682:7696   */\n  gt\n    /* \"#utility.yul\":7710:7711   */\n  0x01\n    /* \"#utility.yul\":7705:8323   */\n  dup2\n  eq\n  tag_136\n  jumpi\n    /* \"#utility.yul\":8367:8368   */\n  0x00\n    /* \"#utility.yul\":8384:8390   */\n  dup5\n    /* \"#utility.yul\":8381:8458   */\n  iszero\n  tag_137\n  jumpi\n    /* \"#utility.yul\":8433:8442   */\n  dup3\n    /* \"#utility.yul\":8428:8431   */\n  dup8\n    /* \"#utility.yul\":8424:8443   */\n  add\n    /* \"#utility.yul\":8418:8444   */\n  mload\n    /* \"#utility.yul\":8409:8444   */\n  swap1\n  pop\n    /* \"#utility.yul\":8381:8458   */\ntag_137:\n    /* \"#utility.yul\":8484:8551   */\n  tag_138\n    /* \"#utility.yul\":8544:8550   */\n  dup6\n    /* \"#utility.yul\":8537:8542   */\n  dup3\n    /* \"#utility.yul\":8484:8551   */\n  tag_42\n  jump\t// in\ntag_138:\n    /* \"#utility.yul\":8478:8482   */\n  dup7\n    /* \"#utility.yul\":8471:8552   */\n  sstore\n    /* \"#utility.yul\":8340:8562   */\n  pop\n    /* \"#utility.yul\":7675:8562   */\n  jump(tag_135)\n    /* \"#utility.yul\":7705:8323   */\ntag_136:\n    /* \"#utility.yul\":7757:7761   */\n  0x1f\n    /* \"#utility.yul\":7753:7762   */\n  not\n    /* \"#utility.yul\":7745:7751   */\n  dup5\n    /* \"#utility.yul\":7741:7763   */\n  and\n    /* \"#utility.yul\":7791:7828   */\n  tag_139\n    /* \"#utility.yul\":7823:7827   */\n  dup7\n    /* \"#utility.yul\":7791:7828   */\n  tag_28\n  jump\t// in\ntag_139:\n    /* \"#utility.yul\":7850:7851   */\n  0x00\n    /* \"#utility.yul\":7864:8072   */\ntag_140:\n    /* \"#utility.yul\":7878:7885   */\n  dup3\n    /* \"#utility.yul\":7875:7876   */\n  dup2\n    /* \"#utility.yul\":7872:7886   */\n  lt\n    /* \"#utility.yul\":7864:8072   */\n  iszero\n  tag_142\n  jumpi\n    /* \"#utility.yul\":7957:7966   */\n  dup5\n    /* \"#utility.yul\":7952:7955   */\n  dup10\n    /* \"#utility.yul\":7948:7967   */\n  add\n    /* \"#utility.yul\":7942:7968   */\n  mload\n    /* \"#utility.yul\":7934:7940   */\n  dup3\n    /* \"#utility.yul\":7927:7969   */\n  sstore\n    /* \"#utility.yul\":8008:8009   */\n  0x01\n    /* \"#utility.yul\":8000:8006   */\n  dup3\n    /* \"#utility.yul\":7996:8010   */\n  add\n    /* \"#utility.yul\":7986:8010   */\n  swap2\n  pop\n    /* \"#utility.yul\":8055:8057   */\n  0x20\n    /* \"#utility.yul\":8044:8053   */\n  dup6\n    /* \"#utility.yul\":8040:8058   */\n  add\n    /* \"#utility.yul\":8027:8058   */\n  swap5\n  pop\n    /* \"#utility.yul\":7901:7905   */\n  0x20\n    /* \"#utility.yul\":7898:7899   */\n  dup2\n    /* \"#utility.yul\":7894:7906   */\n  add\n    /* \"#utility.yul\":7889:7906   */\n  swap1\n  pop\n    /* \"#utility.yul\":7864:8072   */\n  jump(tag_140)\ntag_142:\n    /* \"#utility.yul\":8100:8106   */\n  dup7\n    /* \"#utility.yul\":8091:8098   */\n  dup4\n    /* \"#utility.yul\":8088:8107   */\n  lt\n    /* \"#utility.yul\":8085:8264   */\n  iszero\n  tag_143\n  jumpi\n    /* \"#utility.yul\":8158:8167   */\n  dup5\n    /* \"#utility.yul\":8153:8156   */\n  dup10\n    /* \"#utility.yul\":8149:8168   */\n  add\n    /* \"#utility.yul\":8143:8169   */\n  mload\n    /* \"#utility.yul\":8201:8249   */\n  tag_144\n    /* \"#utility.yul\":8243:8247   */\n  0x1f\n    /* \"#utility.yul\":8235:8241   */\n  dup10\n    /* \"#utility.yul\":8231:8248   */\n  and\n    /* \"#utility.yul\":8220:8229   */\n  dup3\n    /* \"#utility.yul\":8201:8249   */\n  tag_41\n  jump\t// in\ntag_144:\n    /* \"#utility.yul\":8193:8199   */\n  dup4\n    /* \"#utility.yul\":8186:8250   */\n  sstore\n    /* \"#utility.yul\":8108:8264   */\n  pop\n    /* \"#utility.yul\":8085:8264   */\ntag_143:\n    /* \"#utility.yul\":8310:8311   */\n  0x01\n    /* \"#utility.yul\":8306:8307   */\n  0x02\n    /* \"#utility.yul\":8298:8304   */\n  dup9\n    /* \"#utility.yul\":8294:8308   */\n  mul\n    /* \"#utility.yul\":8290:8312   */\n  add\n    /* \"#utility.yul\":8284:8288   */\n  dup9\n    /* \"#utility.yul\":8277:8313   */\n  sstore\n    /* \"#utility.yul\":7712:8323   */\n  pop\n  pop\n  pop\n    /* \"#utility.yul\":7675:8562   */\ntag_135:\n  pop\n    /* \"#utility.yul\":7265:8568   */\n  pop\n  pop\n  pop\n    /* \"#utility.yul\":7173:8568   */\n  pop\n  pop\n  jump\t// out\n    /* \"contract/7thClass1.sol\":60:1443  contract BankAccount{... */\ntag_8:\n  dataSize(sub_0)\n  dup1\n  dataOffset(sub_0)\n  0x00\n  codecopy\n  0x00\n  return\nstop\n\nsub_0: assembly {\n        /* \"contract/7thClass1.sol\":60:1443  contract BankAccount{... */\n      mstore(0x40, 0x80)\n      jumpi(tag_1, lt(calldatasize, 0x04))\n      shr(0xe0, calldataload(0x00))\n      dup1\n      0x7d882097\n      gt\n      tag_9\n      jumpi\n      dup1\n      0x7d882097\n      eq\n      tag_5\n      jumpi\n      dup1\n      0x8da5cb5b\n      eq\n      tag_6\n      jumpi\n      dup1\n      0xd0e30db0\n      eq\n      tag_7\n      jumpi\n      dup1\n      0xf8b2cb4f\n      eq\n      tag_8\n      jumpi\n      jump(tag_1)\n    tag_9:\n      dup1\n      0x18160ddd\n      eq\n      tag_2\n      jumpi\n      dup1\n      0x2e1a7d4d\n      eq\n      tag_3\n      jumpi\n      dup1\n      0x75d0c0dc\n      eq\n      tag_4\n      jumpi\n    tag_1:\n      revert(0x00, 0x00)\n        /* \"contract/7thClass1.sol\":273:299  uint256 public totalSupply */\n    tag_2:\n      callvalue\n      dup1\n      iszero\n      tag_10\n      jumpi\n      revert(0x00, 0x00)\n    tag_10:\n      pop\n      tag_11\n      tag_12\n      jump\t// in\n    tag_11:\n      mload(0x40)\n      tag_13\n      swap2\n      swap1\n      tag_14\n      jump\t// in\n    tag_13:\n      mload(0x40)\n      dup1\n      swap2\n      sub\n      swap1\n      return\n        /* \"contract/7thClass1.sol\":1028:1324  function withdraw(uint256 amount) public {... */\n    tag_3:\n      callvalue\n      dup1\n      iszero\n      tag_15\n      jumpi\n      revert(0x00, 0x00)\n    tag_15:\n      pop\n      tag_16\n      0x04\n      dup1\n      calldatasize\n      sub\n      dup2\n      add\n      swap1\n      tag_17\n      swap2\n      swap1\n      tag_18\n      jump\t// in\n    tag_17:\n      tag_19\n      jump\t// in\n    tag_16:\n      stop\n        /* \"contract/7thClass1.sol\":240:266  string public contractName */\n    tag_4:\n      callvalue\n      dup1\n      iszero\n      tag_20\n      jumpi\n      revert(0x00, 0x00)\n    tag_20:\n      pop\n      tag_21\n      tag_22\n      jump\t// in\n    tag_21:\n      mload(0x40)\n      tag_23\n      swap2\n      swap1\n      tag_24\n      jump\t// in\n    tag_23:\n      mload(0x40)\n      dup1\n      swap2\n      sub\n      swap1\n      return\n        /* \"contract/7thClass1.sol\":178:206  uint256 public totalDeposits */\n    tag_5:\n      callvalue\n      dup1\n      iszero\n      tag_25\n      jumpi\n      revert(0x00, 0x00)\n    tag_25:\n      pop\n      tag_26\n      tag_27\n      jump\t// in\n    tag_26:\n      mload(0x40)\n      tag_28\n      swap2\n      swap1\n      tag_14\n      jump\t// in\n    tag_28:\n      mload(0x40)\n      dup1\n      swap2\n      sub\n      swap1\n      return\n        /* \"contract/7thClass1.sol\":213:233  address public owner */\n    tag_6:\n      callvalue\n      dup1\n      iszero\n      tag_29\n      jumpi\n      revert(0x00, 0x00)\n    tag_29:\n      pop\n      tag_30\n      tag_31\n      jump\t// in\n    tag_30:\n      mload(0x40)\n      tag_32\n      swap2\n      swap1\n      tag_33\n      jump\t// in\n    tag_32:\n      mload(0x40)\n      dup1\n      swap2\n      sub\n      swap1\n      return\n        /* \"contract/7thClass1.sol\":687:1020  function deposit() external payable {... */\n    tag_7:\n      tag_34\n      tag_35\n      jump\t// in\n    tag_34:\n      stop\n        /* \"contract/7thClass1.sol\":1332:1440  function getBalance(address account) public view returns(uint256){... */\n    tag_8:\n      callvalue\n      dup1\n      iszero\n      tag_36\n      jumpi\n      revert(0x00, 0x00)\n    tag_36:\n      pop\n      tag_37\n      0x04\n      dup1\n      calldatasize\n      sub\n      dup2\n      add\n      swap1\n      tag_38\n      swap2\n      swap1\n      tag_39\n      jump\t// in\n    tag_38:\n      tag_40\n      jump\t// in\n    tag_37:\n      mload(0x40)\n      tag_41\n      swap2\n      swap1\n      tag_14\n      jump\t// in\n    tag_41:\n      mload(0x40)\n      dup1\n      swap2\n      sub\n      swap1\n      return\n        /* \"contract/7thClass1.sol\":273:299  uint256 public totalSupply */\n    tag_12:\n      sload(0x05)\n      dup2\n      jump\t// out\n        /* \"contract/7thClass1.sol\":1028:1324  function withdraw(uint256 amount) public {... */\n    tag_19:\n        /* \"contract/7thClass1.sol\":1112:1118  amount */\n      dup1\n        /* \"contract/7thClass1.sol\":1088:1096  balances */\n      0x00\n        /* \"contract/7thClass1.sol\":1088:1108  balances[msg.sender] */\n      0x00\n        /* \"contract/7thClass1.sol\":1097:1107  msg.sender */\n      caller\n        /* \"contract/7thClass1.sol\":1088:1108  balances[msg.sender] */\n      0xffffffffffffffffffffffffffffffffffffffff\n      and\n      0xffffffffffffffffffffffffffffffffffffffff\n      and\n      dup2\n      mstore\n      0x20\n      add\n      swap1\n      dup2\n      mstore\n      0x20\n      add\n      0x00\n      keccak256\n      sload\n        /* \"contract/7thClass1.sol\":1088:1118  balances[msg.sender] >= amount */\n      lt\n      iszero\n        /* \"contract/7thClass1.sol\":1080:1143  require(balances[msg.sender] >= amount, \"Insufficient balance\") */\n      tag_43\n      jumpi\n      mload(0x40)\n      0x08c379a000000000000000000000000000000000000000000000000000000000\n      dup2\n      mstore\n      0x04\n      add\n      tag_44\n      swap1\n      tag_45\n      jump\t// in\n    tag_44:\n      mload(0x40)\n      dup1\n      swap2\n      sub\n      swap1\n      revert\n    tag_43:\n        /* \"contract/7thClass1.sol\":1180:1186  amount */\n      dup1\n        /* \"contract/7thClass1.sol\":1156:1164  balances */\n      0x00\n        /* \"contract/7thClass1.sol\":1156:1176  balances[msg.sender] */\n      0x00\n        /* \"contract/7thClass1.sol\":1165:1175  msg.sender */\n      caller\n        /* \"contract/7thClass1.sol\":1156:1176  balances[msg.sender] */\n      0xffffffffffffffffffffffffffffffffffffffff\n      and\n      0xffffffffffffffffffffffffffffffffffffffff\n      and\n      dup2\n      mstore\n      0x20\n      add\n      swap1\n      dup2\n      mstore\n      0x20\n      add\n      0x00\n      keccak256\n      0x00\n        /* \"contract/7thClass1.sol\":1156:1186  balances[msg.sender] -= amount */\n      dup3\n      dup3\n      sload\n      tag_46\n      swap2\n      swap1\n      tag_47\n      jump\t// in\n    tag_46:\n      swap3\n      pop\n      pop\n      dup2\n      swap1\n      sstore\n      pop\n        /* \"contract/7thClass1.sol\":1214:1220  amount */\n      dup1\n        /* \"contract/7thClass1.sol\":1197:1210  totalDeposits */\n      0x02\n      0x00\n        /* \"contract/7thClass1.sol\":1197:1220  totalDeposits -= amount */\n      dup3\n      dup3\n      sload\n      tag_48\n      swap2\n      swap1\n      tag_47\n      jump\t// in\n    tag_48:\n      swap3\n      pop\n      pop\n      dup2\n      swap1\n      sstore\n      pop\n        /* \"contract/7thClass1.sol\":1241:1251  msg.sender */\n      caller\n        /* \"contract/7thClass1.sol\":1233:1261  payable(msg.sender).transfer */\n      0xffffffffffffffffffffffffffffffffffffffff\n      and\n        /* \"contract/7thClass1.sol\":1233:1269  payable(msg.sender).transfer(amount) */\n      0x08fc\n        /* \"contract/7thClass1.sol\":1262:1268  amount */\n      dup3\n        /* \"contract/7thClass1.sol\":1233:1269  payable(msg.sender).transfer(amount) */\n      swap1\n      dup2\n      iszero\n      mul\n      swap1\n      mload(0x40)\n      0x00\n      mload(0x40)\n      dup1\n      dup4\n      sub\n      dup2\n      dup6\n      dup9\n      dup9\n      call\n      swap4\n      pop\n      pop\n      pop\n      pop\n      iszero\n      dup1\n      iszero\n      tag_50\n      jumpi\n      returndatacopy(0x00, 0x00, returndatasize)\n      revert(0x00, returndatasize)\n    tag_50:\n      pop\n        /* \"contract/7thClass1.sol\":1287:1316  Withdrawl(msg.sender, amount) */\n      0x65ac0d8bb8cbc0e989ebd02ddc5161d7c499f7c21792e43fcf170314fe6bcc3f\n        /* \"contract/7thClass1.sol\":1297:1307  msg.sender */\n      caller\n        /* \"contract/7thClass1.sol\":1309:1315  amount */\n      dup3\n        /* \"contract/7thClass1.sol\":1287:1316  Withdrawl(msg.sender, amount) */\n      mload(0x40)\n      tag_51\n      swap3\n      swap2\n      swap1\n      tag_52\n      jump\t// in\n    tag_51:\n      mload(0x40)\n      dup1\n      swap2\n      sub\n      swap1\n      log1\n        /* \"contract/7thClass1.sol\":1028:1324  function withdraw(uint256 amount) public {... */\n      pop\n      jump\t// out\n        /* \"contract/7thClass1.sol\":240:266  string public contractName */\n    tag_22:\n      0x04\n      dup1\n      sload\n      tag_53\n      swap1\n      tag_54\n      jump\t// in\n    tag_53:\n      dup1\n      0x1f\n      add\n      0x20\n      dup1\n      swap2\n      div\n      mul\n      0x20\n      add\n      mload(0x40)\n      swap1\n      dup2\n      add\n      0x40\n      mstore\n      dup1\n      swap3\n      swap2\n      swap1\n      dup2\n      dup2\n      mstore\n      0x20\n      add\n      dup3\n      dup1\n      sload\n      tag_55\n      swap1\n      tag_54\n      jump\t// in\n    tag_55:\n      dup1\n      iszero\n      tag_56\n      jumpi\n      dup1\n      0x1f\n      lt\n      tag_57\n      jumpi\n      0x0100\n      dup1\n      dup4\n      sload\n      div\n      mul\n      dup4\n      mstore\n      swap2\n      0x20\n      add\n      swap2\n      jump(tag_56)\n    tag_57:\n      dup3\n      add\n      swap2\n      swap1\n      0x00\n      mstore\n      keccak256(0x00, 0x20)\n      swap1\n    tag_58:\n      dup2\n      sload\n      dup2\n      mstore\n      swap1\n      0x01\n      add\n      swap1\n      0x20\n      add\n      dup1\n      dup4\n      gt\n      tag_58\n      jumpi\n      dup3\n      swap1\n      sub\n      0x1f\n      and\n      dup3\n      add\n      swap2\n    tag_56:\n      pop\n      pop\n      pop\n      pop\n      pop\n      dup2\n      jump\t// out\n        /* \"contract/7thClass1.sol\":178:206  uint256 public totalDeposits */\n    tag_27:\n      sload(0x02)\n      dup2\n      jump\t// out\n        /* \"contract/7thClass1.sol\":213:233  address public owner */\n    tag_31:\n      0x03\n      0x00\n      swap1\n      sload\n      swap1\n      0x0100\n      exp\n      swap1\n      div\n      0xffffffffffffffffffffffffffffffffffffffff\n      and\n      dup2\n      jump\t// out\n        /* \"contract/7thClass1.sol\":687:1020  function deposit() external payable {... */\n    tag_35:\n        /* \"contract/7thClass1.sol\":754:755  0 */\n      0x00\n        /* \"contract/7thClass1.sol\":742:751  msg.value */\n      callvalue\n        /* \"contract/7thClass1.sol\":742:755  msg.value > 0 */\n      gt\n        /* \"contract/7thClass1.sol\":734:782  require(msg.value > 0, 'Must deposit something') */\n      tag_60\n      jumpi\n      mload(0x40)\n      0x08c379a000000000000000000000000000000000000000000000000000000000\n      dup2\n      mstore\n      0x04\n      add\n      tag_61\n      swap1\n      tag_62\n      jump\t// in\n    tag_61:\n      mload(0x40)\n      dup1\n      swap2\n      sub\n      swap1\n      revert\n    tag_60:\n        /* \"contract/7thClass1.sol\":822:823  0 */\n      0x00\n        /* \"contract/7thClass1.sol\":798:806  balances */\n      0x00\n        /* \"contract/7thClass1.sol\":798:818  balances[msg.sender] */\n      0x00\n        /* \"contract/7thClass1.sol\":807:817  msg.sender */\n      caller\n        /* \"contract/7thClass1.sol\":798:818  balances[msg.sender] */\n      0xffffffffffffffffffffffffffffffffffffffff\n      and\n      0xffffffffffffffffffffffffffffffffffffffff\n      and\n      dup2\n      mstore\n      0x20\n      add\n      swap1\n      dup2\n      mstore\n      0x20\n      add\n      0x00\n      keccak256\n      sload\n        /* \"contract/7thClass1.sol\":798:823  balances[msg.sender] == 0 */\n      sub\n        /* \"contract/7thClass1.sol\":795:882  if(balances[msg.sender] == 0){... */\n      tag_63\n      jumpi\n        /* \"contract/7thClass1.sol\":839:853  accountHolders */\n      0x01\n        /* \"contract/7thClass1.sol\":859:869  msg.sender */\n      caller\n        /* \"contract/7thClass1.sol\":839:870  accountHolders.push(msg.sender) */\n      swap1\n      dup1\n      0x01\n      dup2\n      sload\n      add\n      dup1\n      dup3\n      sstore\n      dup1\n      swap2\n      pop\n      pop\n      0x01\n      swap1\n      sub\n      swap1\n      0x00\n      mstore\n      keccak256(0x00, 0x20)\n      add\n      0x00\n      swap1\n      swap2\n      swap1\n      swap2\n      swap1\n      swap2\n      0x0100\n      exp\n      dup2\n      sload\n      dup2\n      0xffffffffffffffffffffffffffffffffffffffff\n      mul\n      not\n      and\n      swap1\n      dup4\n      0xffffffffffffffffffffffffffffffffffffffff\n      and\n      mul\n      or\n      swap1\n      sstore\n      pop\n        /* \"contract/7thClass1.sol\":795:882  if(balances[msg.sender] == 0){... */\n    tag_63:\n        /* \"contract/7thClass1.sol\":918:927  msg.value */\n      callvalue\n        /* \"contract/7thClass1.sol\":894:902  balances */\n      0x00\n        /* \"contract/7thClass1.sol\":894:914  balances[msg.sender] */\n      0x00\n        /* \"contract/7thClass1.sol\":903:913  msg.sender */\n      caller\n        /* \"contract/7thClass1.sol\":894:914  balances[msg.sender] */\n      0xffffffffffffffffffffffffffffffffffffffff\n      and\n      0xffffffffffffffffffffffffffffffffffffffff\n      and\n      dup2\n      mstore\n      0x20\n      add\n      swap1\n      dup2\n      mstore\n      0x20\n      add\n      0x00\n      keccak256\n      0x00\n        /* \"contract/7thClass1.sol\":894:927  balances[msg.sender] += msg.value */\n      dup3\n      dup3\n      sload\n      tag_65\n      swap2\n      swap1\n      tag_66\n      jump\t// in\n    tag_65:\n      swap3\n      pop\n      pop\n      dup2\n      swap1\n      sstore\n      pop\n        /* \"contract/7thClass1.sol\":955:964  msg.value */\n      callvalue\n        /* \"contract/7thClass1.sol\":938:951  totalDeposits */\n      0x02\n      0x00\n        /* \"contract/7thClass1.sol\":938:964  totalDeposits += msg.value */\n      dup3\n      dup3\n      sload\n      tag_67\n      swap2\n      swap1\n      tag_66\n      jump\t// in\n    tag_67:\n      swap3\n      pop\n      pop\n      dup2\n      swap1\n      sstore\n      pop\n        /* \"contract/7thClass1.sol\":1002:1011  msg.value */\n      callvalue\n        /* \"contract/7thClass1.sol\":990:1000  msg.sender */\n      caller\n        /* \"contract/7thClass1.sol\":982:1012  Deposit(msg.sender, msg.value) */\n      0xffffffffffffffffffffffffffffffffffffffff\n      and\n      0xe1fffcc4923d04b559f4d29a8bfc6cda04eb5b0d3c460751c2402c5c5cc9109c\n      mload(0x40)\n      mload(0x40)\n      dup1\n      swap2\n      sub\n      swap1\n      log3\n        /* \"contract/7thClass1.sol\":687:1020  function deposit() external payable {... */\n      jump\t// out\n        /* \"contract/7thClass1.sol\":1332:1440  function getBalance(address account) public view returns(uint256){... */\n    tag_40:\n        /* \"contract/7thClass1.sol\":1389:1396  uint256 */\n      0x00\n        /* \"contract/7thClass1.sol\":1415:1423  balances */\n      0x00\n        /* \"contract/7thClass1.sol\":1415:1432  balances[account] */\n      0x00\n        /* \"contract/7thClass1.sol\":1424:1431  account */\n      dup4\n        /* \"contract/7thClass1.sol\":1415:1432  balances[account] */\n      0xffffffffffffffffffffffffffffffffffffffff\n      and\n      0xffffffffffffffffffffffffffffffffffffffff\n      and\n      dup2\n      mstore\n      0x20\n      add\n      swap1\n      dup2\n      mstore\n      0x20\n      add\n      0x00\n      keccak256\n      sload\n        /* \"contract/7thClass1.sol\":1408:1432  return balances[account] */\n      swap1\n      pop\n        /* \"contract/7thClass1.sol\":1332:1440  function getBalance(address account) public view returns(uint256){... */\n      swap2\n      swap1\n      pop\n      jump\t// out\n        /* \"#utility.yul\":7:84   */\n    tag_69:\n        /* \"#utility.yul\":44:51   */\n      0x00\n        /* \"#utility.yul\":73:78   */\n      dup2\n        /* \"#utility.yul\":62:78   */\n      swap1\n      pop\n        /* \"#utility.yul\":7:84   */\n      swap2\n      swap1\n      pop\n      jump\t// out\n        /* \"#utility.yul\":90:208   */\n    tag_70:\n        /* \"#utility.yul\":177:201   */\n      tag_95\n        /* \"#utility.yul\":195:200   */\n      dup2\n        /* \"#utility.yul\":177:201   */\n      tag_69\n      jump\t// in\n    tag_95:\n        /* \"#utility.yul\":172:175   */\n      dup3\n        /* \"#utility.yul\":165:202   */\n      mstore\n        /* \"#utility.yul\":90:208   */\n      pop\n      pop\n      jump\t// out\n        /* \"#utility.yul\":214:436   */\n    tag_14:\n        /* \"#utility.yul\":307:311   */\n      0x00\n        /* \"#utility.yul\":345:347   */\n      0x20\n        /* \"#utility.yul\":334:343   */\n      dup3\n        /* \"#utility.yul\":330:348   */\n      add\n        /* \"#utility.yul\":322:348   */\n      swap1\n      pop\n        /* \"#utility.yul\":358:429   */\n      tag_97\n        /* \"#utility.yul\":426:427   */\n      0x00\n        /* \"#utility.yul\":415:424   */\n      dup4\n        /* \"#utility.yul\":411:428   */\n      add\n        /* \"#utility.yul\":402:408   */\n      dup5\n        /* \"#utility.yul\":358:429   */\n      tag_70\n      jump\t// in\n    tag_97:\n        /* \"#utility.yul\":214:436   */\n      swap3\n      swap2\n      pop\n      pop\n      jump\t// out\n        /* \"#utility.yul\":523:640   */\n    tag_72:\n        /* \"#utility.yul\":632:633   */\n      0x00\n        /* \"#utility.yul\":629:630   */\n      0x00\n        /* \"#utility.yul\":622:634   */\n      revert\n        /* \"#utility.yul\":769:891   */\n    tag_74:\n        /* \"#utility.yul\":842:866   */\n      tag_102\n        /* \"#utility.yul\":860:865   */\n      dup2\n        /* \"#utility.yul\":842:866   */\n      tag_69\n      jump\t// in\n    tag_102:\n        /* \"#utility.yul\":835:840   */\n      dup2\n        /* \"#utility.yul\":832:867   */\n      eq\n        /* \"#utility.yul\":822:885   */\n      tag_103\n      jumpi\n        /* \"#utility.yul\":881:882   */\n      0x00\n        /* \"#utility.yul\":878:879   */\n      0x00\n        /* \"#utility.yul\":871:883   */\n      revert\n        /* \"#utility.yul\":822:885   */\n    tag_103:\n        /* \"#utility.yul\":769:891   */\n      pop\n      jump\t// out\n        /* \"#utility.yul\":897:1036   */\n    tag_75:\n        /* \"#utility.yul\":943:948   */\n      0x00\n        /* \"#utility.yul\":981:987   */\n      dup2\n        /* \"#utility.yul\":968:988   */\n      calldataload\n        /* \"#utility.yul\":959:988   */\n      swap1\n      pop\n        /* \"#utility.yul\":997:1030   */\n      tag_105\n        /* \"#utility.yul\":1024:1029   */\n      dup2\n        /* \"#utility.yul\":997:1030   */\n      tag_74\n      jump\t// in\n    tag_105:\n        /* \"#utility.yul\":897:1036   */\n      swap3\n      swap2\n      pop\n      pop\n      jump\t// out\n        /* \"#utility.yul\":1042:1371   */\n    tag_18:\n        /* \"#utility.yul\":1101:1107   */\n      0x00\n        /* \"#utility.yul\":1150:1152   */\n      0x20\n        /* \"#utility.yul\":1138:1147   */\n      dup3\n        /* \"#utility.yul\":1129:1136   */\n      dup5\n        /* \"#utility.yul\":1125:1148   */\n      sub\n        /* \"#utility.yul\":1121:1153   */\n      slt\n        /* \"#utility.yul\":1118:1237   */\n      iszero\n      tag_107\n      jumpi\n        /* \"#utility.yul\":1156:1235   */\n      tag_108\n      tag_72\n      jump\t// in\n    tag_108:\n        /* \"#utility.yul\":1118:1237   */\n    tag_107:\n        /* \"#utility.yul\":1276:1277   */\n      0x00\n        /* \"#utility.yul\":1301:1354   */\n      tag_109\n        /* \"#utility.yul\":1346:1353   */\n      dup5\n        /* \"#utility.yul\":1337:1343   */\n      dup3\n        /* \"#utility.yul\":1326:1335   */\n      dup6\n        /* \"#utility.yul\":1322:1344   */\n      add\n        /* \"#utility.yul\":1301:1354   */\n      tag_75\n      jump\t// in\n    tag_109:\n        /* \"#utility.yul\":1291:1354   */\n      swap2\n      pop\n        /* \"#utility.yul\":1247:1364   */\n      pop\n        /* \"#utility.yul\":1042:1371   */\n      swap3\n      swap2\n      pop\n      pop\n      jump\t// out\n        /* \"#utility.yul\":1377:1476   */\n    tag_76:\n        /* \"#utility.yul\":1429:1435   */\n      0x00\n        /* \"#utility.yul\":1463:1468   */\n      dup2\n        /* \"#utility.yul\":1457:1469   */\n      mload\n        /* \"#utility.yul\":1447:1469   */\n      swap1\n      pop\n        /* \"#utility.yul\":1377:1476   */\n      swap2\n      swap1\n      pop\n      jump\t// out\n        /* \"#utility.yul\":1482:1651   */\n    tag_77:\n        /* \"#utility.yul\":1566:1577   */\n      0x00\n        /* \"#utility.yul\":1600:1606   */\n      dup3\n        /* \"#utility.yul\":1595:1598   */\n      dup3\n        /* \"#utility.yul\":1588:1607   */\n      mstore\n        /* \"#utility.yul\":1640:1644   */\n      0x20\n        /* \"#utility.yul\":1635:1638   */\n      dup3\n        /* \"#utility.yul\":1631:1645   */\n      add\n        /* \"#utility.yul\":1616:1645   */\n      swap1\n      pop\n        /* \"#utility.yul\":1482:1651   */\n      swap3\n      swap2\n      pop\n      pop\n      jump\t// out\n        /* \"#utility.yul\":1657:1796   */\n    tag_78:\n        /* \"#utility.yul\":1746:1752   */\n      dup3\n        /* \"#utility.yul\":1741:1744   */\n      dup2\n        /* \"#utility.yul\":1736:1739   */\n      dup4\n        /* \"#utility.yul\":1730:1753   */\n      mcopy\n        /* \"#utility.yul\":1787:1788   */\n      0x00\n        /* \"#utility.yul\":1778:1784   */\n      dup4\n        /* \"#utility.yul\":1773:1776   */\n      dup4\n        /* \"#utility.yul\":1769:1785   */\n      add\n        /* \"#utility.yul\":1762:1789   */\n      mstore\n        /* \"#utility.yul\":1657:1796   */\n      pop\n      pop\n      pop\n      jump\t// out\n        /* \"#utility.yul\":1802:1904   */\n    tag_79:\n        /* \"#utility.yul\":1843:1849   */\n      0x00\n        /* \"#utility.yul\":1894:1896   */\n      0x1f\n        /* \"#utility.yul\":1890:1897   */\n      not\n        /* \"#utility.yul\":1885:1887   */\n      0x1f\n        /* \"#utility.yul\":1878:1883   */\n      dup4\n        /* \"#utility.yul\":1874:1888   */\n      add\n        /* \"#utility.yul\":1870:1898   */\n      and\n        /* \"#utility.yul\":1860:1898   */\n      swap1\n      pop\n        /* \"#utility.yul\":1802:1904   */\n      swap2\n      swap1\n      pop\n      jump\t// out\n        /* \"#utility.yul\":1910:2287   */\n    tag_80:\n        /* \"#utility.yul\":1998:2001   */\n      0x00\n        /* \"#utility.yul\":2026:2065   */\n      tag_115\n        /* \"#utility.yul\":2059:2064   */\n      dup3\n        /* \"#utility.yul\":2026:2065   */\n      tag_76\n      jump\t// in\n    tag_115:\n        /* \"#utility.yul\":2081:2152   */\n      tag_116\n        /* \"#utility.yul\":2145:2151   */\n      dup2\n        /* \"#utility.yul\":2140:2143   */\n      dup6\n        /* \"#utility.yul\":2081:2152   */\n      tag_77\n      jump\t// in\n    tag_116:\n        /* \"#utility.yul\":2074:2152   */\n      swap4\n      pop\n        /* \"#utility.yul\":2161:2226   */\n      tag_117\n        /* \"#utility.yul\":2219:2225   */\n      dup2\n        /* \"#utility.yul\":2214:2217   */\n      dup6\n        /* \"#utility.yul\":2207:2211   */\n      0x20\n        /* \"#utility.yul\":2200:2205   */\n      dup7\n        /* \"#utility.yul\":2196:2212   */\n      add\n        /* \"#utility.yul\":2161:2226   */\n      tag_78\n      jump\t// in\n    tag_117:\n        /* \"#utility.yul\":2251:2280   */\n      tag_118\n        /* \"#utility.yul\":2273:2279   */\n      dup2\n        /* \"#utility.yul\":2251:2280   */\n      tag_79\n      jump\t// in\n    tag_118:\n        /* \"#utility.yul\":2246:2249   */\n      dup5\n        /* \"#utility.yul\":2242:2281   */\n      add\n        /* \"#utility.yul\":2235:2281   */\n      swap2\n      pop\n        /* \"#utility.yul\":2002:2287   */\n      pop\n        /* \"#utility.yul\":1910:2287   */\n      swap3\n      swap2\n      pop\n      pop\n      jump\t// out\n        /* \"#utility.yul\":2293:2606   */\n    tag_24:\n        /* \"#utility.yul\":2406:2410   */\n      0x00\n        /* \"#utility.yul\":2444:2446   */\n      0x20\n        /* \"#utility.yul\":2433:2442   */\n      dup3\n        /* \"#utility.yul\":2429:2447   */\n      add\n        /* \"#utility.yul\":2421:2447   */\n      swap1\n      pop\n        /* \"#utility.yul\":2493:2502   */\n      dup2\n        /* \"#utility.yul\":2487:2491   */\n      dup2\n        /* \"#utility.yul\":2483:2503   */\n      sub\n        /* \"#utility.yul\":2479:2480   */\n      0x00\n        /* \"#utility.yul\":2468:2477   */\n      dup4\n        /* \"#utility.yul\":2464:2481   */\n      add\n        /* \"#utility.yul\":2457:2504   */\n      mstore\n        /* \"#utility.yul\":2521:2599   */\n      tag_120\n        /* \"#utility.yul\":2594:2598   */\n      dup2\n        /* \"#utility.yul\":2585:2591   */\n      dup5\n        /* \"#utility.yul\":2521:2599   */\n      tag_80\n      jump\t// in\n    tag_120:\n        /* \"#utility.yul\":2513:2599   */\n      swap1\n      pop\n        /* \"#utility.yul\":2293:2606   */\n      swap3\n      swap2\n      pop\n      pop\n      jump\t// out\n        /* \"#utility.yul\":2612:2738   */\n    tag_81:\n        /* \"#utility.yul\":2649:2656   */\n      0x00\n        /* \"#utility.yul\":2689:2731   */\n      0xffffffffffffffffffffffffffffffffffffffff\n        /* \"#utility.yul\":2682:2687   */\n      dup3\n        /* \"#utility.yul\":2678:2732   */\n      and\n        /* \"#utility.yul\":2667:2732   */\n      swap1\n      pop\n        /* \"#utility.yul\":2612:2738   */\n      swap2\n      swap1\n      pop\n      jump\t// out\n        /* \"#utility.yul\":2744:2840   */\n    tag_82:\n        /* \"#utility.yul\":2781:2788   */\n      0x00\n        /* \"#utility.yul\":2810:2834   */\n      tag_123\n        /* \"#utility.yul\":2828:2833   */\n      dup3\n        /* \"#utility.yul\":2810:2834   */\n      tag_81\n      jump\t// in\n    tag_123:\n        /* \"#utility.yul\":2799:2834   */\n      swap1\n      pop\n        /* \"#utility.yul\":2744:2840   */\n      swap2\n      swap1\n      pop\n      jump\t// out\n        /* \"#utility.yul\":2846:2964   */\n    tag_83:\n        /* \"#utility.yul\":2933:2957   */\n      tag_125\n        /* \"#utility.yul\":2951:2956   */\n      dup2\n        /* \"#utility.yul\":2933:2957   */\n      tag_82\n      jump\t// in\n    tag_125:\n        /* \"#utility.yul\":2928:2931   */\n      dup3\n        /* \"#utility.yul\":2921:2958   */\n      mstore\n        /* \"#utility.yul\":2846:2964   */\n      pop\n      pop\n      jump\t// out\n        /* \"#utility.yul\":2970:3192   */\n    tag_33:\n        /* \"#utility.yul\":3063:3067   */\n      0x00\n        /* \"#utility.yul\":3101:3103   */\n      0x20\n        /* \"#utility.yul\":3090:3099   */\n      dup3\n        /* \"#utility.yul\":3086:3104   */\n      add\n        /* \"#utility.yul\":3078:3104   */\n      swap1\n      pop\n        /* \"#utility.yul\":3114:3185   */\n      tag_127\n        /* \"#utility.yul\":3182:3183   */\n      0x00\n        /* \"#utility.yul\":3171:3180   */\n      dup4\n        /* \"#utility.yul\":3167:3184   */\n      add\n        /* \"#utility.yul\":3158:3164   */\n      dup5\n        /* \"#utility.yul\":3114:3185   */\n      tag_83\n      jump\t// in\n    tag_127:\n        /* \"#utility.yul\":2970:3192   */\n      swap3\n      swap2\n      pop\n      pop\n      jump\t// out\n        /* \"#utility.yul\":3198:3320   */\n    tag_84:\n        /* \"#utility.yul\":3271:3295   */\n      tag_129\n        /* \"#utility.yul\":3289:3294   */\n      dup2\n        /* \"#utility.yul\":3271:3295   */\n      tag_82\n      jump\t// in\n    tag_129:\n        /* \"#utility.yul\":3264:3269   */\n      dup2\n        /* \"#utility.yul\":3261:3296   */\n      eq\n        /* \"#utility.yul\":3251:3314   */\n      tag_130\n      jumpi\n        /* \"#utility.yul\":3310:3311   */\n      0x00\n        /* \"#utility.yul\":3307:3308   */\n      0x00\n        /* \"#utility.yul\":3300:3312   */\n      revert\n        /* \"#utility.yul\":3251:3314   */\n    tag_130:\n        /* \"#utility.yul\":3198:3320   */\n      pop\n      jump\t// out\n        /* \"#utility.yul\":3326:3465   */\n    tag_85:\n        /* \"#utility.yul\":3372:3377   */\n      0x00\n        /* \"#utility.yul\":3410:3416   */\n      dup2\n        /* \"#utility.yul\":3397:3417   */\n      calldataload\n        /* \"#utility.yul\":3388:3417   */\n      swap1\n      pop\n        /* \"#utility.yul\":3426:3459   */\n      tag_132\n        /* \"#utility.yul\":3453:3458   */\n      dup2\n        /* \"#utility.yul\":3426:3459   */\n      tag_84\n      jump\t// in\n    tag_132:\n        /* \"#utility.yul\":3326:3465   */\n      swap3\n      swap2\n      pop\n      pop\n      jump\t// out\n        /* \"#utility.yul\":3471:3800   */\n    tag_39:\n        /* \"#utility.yul\":3530:3536   */\n      0x00\n        /* \"#utility.yul\":3579:3581   */\n      0x20\n        /* \"#utility.yul\":3567:3576   */\n      dup3\n        /* \"#utility.yul\":3558:3565   */\n      dup5\n        /* \"#utility.yul\":3554:3577   */\n      sub\n        /* \"#utility.yul\":3550:3582   */\n      slt\n        /* \"#utility.yul\":3547:3666   */\n      iszero\n      tag_134\n      jumpi\n        /* \"#utility.yul\":3585:3664   */\n      tag_135\n      tag_72\n      jump\t// in\n    tag_135:\n        /* \"#utility.yul\":3547:3666   */\n    tag_134:\n        /* \"#utility.yul\":3705:3706   */\n      0x00\n        /* \"#utility.yul\":3730:3783   */\n      tag_136\n        /* \"#utility.yul\":3775:3782   */\n      dup5\n        /* \"#utility.yul\":3766:3772   */\n      dup3\n        /* \"#utility.yul\":3755:3764   */\n      dup6\n        /* \"#utility.yul\":3751:3773   */\n      add\n        /* \"#utility.yul\":3730:3783   */\n      tag_85\n      jump\t// in\n    tag_136:\n        /* \"#utility.yul\":3720:3783   */\n      swap2\n      pop\n        /* \"#utility.yul\":3676:3793   */\n      pop\n        /* \"#utility.yul\":3471:3800   */\n      swap3\n      swap2\n      pop\n      pop\n      jump\t// out\n        /* \"#utility.yul\":3806:3976   */\n    tag_86:\n        /* \"#utility.yul\":3946:3968   */\n      0x496e73756666696369656e742062616c616e6365000000000000000000000000\n        /* \"#utility.yul\":3942:3943   */\n      0x00\n        /* \"#utility.yul\":3934:3940   */\n      dup3\n        /* \"#utility.yul\":3930:3944   */\n      add\n        /* \"#utility.yul\":3923:3969   */\n      mstore\n        /* \"#utility.yul\":3806:3976   */\n      pop\n      jump\t// out\n        /* \"#utility.yul\":3982:4348   */\n    tag_87:\n        /* \"#utility.yul\":4124:4127   */\n      0x00\n        /* \"#utility.yul\":4145:4212   */\n      tag_139\n        /* \"#utility.yul\":4209:4211   */\n      0x14\n        /* \"#utility.yul\":4204:4207   */\n      dup4\n        /* \"#utility.yul\":4145:4212   */\n      tag_77\n      jump\t// in\n    tag_139:\n        /* \"#utility.yul\":4138:4212   */\n      swap2\n      pop\n        /* \"#utility.yul\":4221:4314   */\n      tag_140\n        /* \"#utility.yul\":4310:4313   */\n      dup3\n        /* \"#utility.yul\":4221:4314   */\n      tag_86\n      jump\t// in\n    tag_140:\n        /* \"#utility.yul\":4339:4341   */\n      0x20\n        /* \"#utility.yul\":4334:4337   */\n      dup3\n        /* \"#utility.yul\":4330:4342   */\n      add\n        /* \"#utility.yul\":4323:4342   */\n      swap1\n      pop\n        /* \"#utility.yul\":3982:4348   */\n      swap2\n      swap1\n      pop\n      jump\t// out\n        /* \"#utility.yul\":4354:4773   */\n    tag_45:\n        /* \"#utility.yul\":4520:4524   */\n      0x00\n        /* \"#utility.yul\":4558:4560   */\n      0x20\n        /* \"#utility.yul\":4547:4556   */\n      dup3\n        /* \"#utility.yul\":4543:4561   */\n      add\n        /* \"#utility.yul\":4535:4561   */\n      swap1\n      pop\n        /* \"#utility.yul\":4607:4616   */\n      dup2\n        /* \"#utility.yul\":4601:4605   */\n      dup2\n        /* \"#utility.yul\":4597:4617   */\n      sub\n        /* \"#utility.yul\":4593:4594   */\n      0x00\n        /* \"#utility.yul\":4582:4591   */\n      dup4\n        /* \"#utility.yul\":4578:4595   */\n      add\n        /* \"#utility.yul\":4571:4618   */\n      mstore\n        /* \"#utility.yul\":4635:4766   */\n      tag_142\n        /* \"#utility.yul\":4761:4765   */\n      dup2\n        /* \"#utility.yul\":4635:4766   */\n      tag_87\n      jump\t// in\n    tag_142:\n        /* \"#utility.yul\":4627:4766   */\n      swap1\n      pop\n        /* \"#utility.yul\":4354:4773   */\n      swap2\n      swap1\n      pop\n      jump\t// out\n        /* \"#utility.yul\":4779:4959   */\n    tag_88:\n        /* \"#utility.yul\":4827:4904   */\n      0x4e487b7100000000000000000000000000000000000000000000000000000000\n        /* \"#utility.yul\":4824:4825   */\n      0x00\n        /* \"#utility.yul\":4817:4905   */\n      mstore\n        /* \"#utility.yul\":4924:4928   */\n      0x11\n        /* \"#utility.yul\":4921:4922   */\n      0x04\n        /* \"#utility.yul\":4914:4929   */\n      mstore\n        /* \"#utility.yul\":4948:4952   */\n      0x24\n        /* \"#utility.yul\":4945:4946   */\n      0x00\n        /* \"#utility.yul\":4938:4953   */\n      revert\n        /* \"#utility.yul\":4965:5159   */\n    tag_47:\n        /* \"#utility.yul\":5005:5009   */\n      0x00\n        /* \"#utility.yul\":5025:5045   */\n      tag_145\n        /* \"#utility.yul\":5043:5044   */\n      dup3\n        /* \"#utility.yul\":5025:5045   */\n      tag_69\n      jump\t// in\n    tag_145:\n        /* \"#utility.yul\":5020:5045   */\n      swap2\n      pop\n        /* \"#utility.yul\":5059:5079   */\n      tag_146\n        /* \"#utility.yul\":5077:5078   */\n      dup4\n        /* \"#utility.yul\":5059:5079   */\n      tag_69\n      jump\t// in\n    tag_146:\n        /* \"#utility.yul\":5054:5079   */\n      swap3\n      pop\n        /* \"#utility.yul\":5103:5104   */\n      dup3\n        /* \"#utility.yul\":5100:5101   */\n      dup3\n        /* \"#utility.yul\":5096:5105   */\n      sub\n        /* \"#utility.yul\":5088:5105   */\n      swap1\n      pop\n        /* \"#utility.yul\":5127:5128   */\n      dup2\n        /* \"#utility.yul\":5121:5125   */\n      dup2\n        /* \"#utility.yul\":5118:5129   */\n      gt\n        /* \"#utility.yul\":5115:5152   */\n      iszero\n      tag_147\n      jumpi\n        /* \"#utility.yul\":5132:5150   */\n      tag_148\n      tag_88\n      jump\t// in\n    tag_148:\n        /* \"#utility.yul\":5115:5152   */\n    tag_147:\n        /* \"#utility.yul\":4965:5159   */\n      swap3\n      swap2\n      pop\n      pop\n      jump\t// out\n        /* \"#utility.yul\":5165:5497   */\n    tag_52:\n        /* \"#utility.yul\":5286:5290   */\n      0x00\n        /* \"#utility.yul\":5324:5326   */\n      0x40\n        /* \"#utility.yul\":5313:5322   */\n      dup3\n        /* \"#utility.yul\":5309:5327   */\n      add\n        /* \"#utility.yul\":5301:5327   */\n      swap1\n      pop\n        /* \"#utility.yul\":5337:5408   */\n      tag_150\n        /* \"#utility.yul\":5405:5406   */\n      0x00\n        /* \"#utility.yul\":5394:5403   */\n      dup4\n        /* \"#utility.yul\":5390:5407   */\n      add\n        /* \"#utility.yul\":5381:5387   */\n      dup6\n        /* \"#utility.yul\":5337:5408   */\n      tag_83\n      jump\t// in\n    tag_150:\n        /* \"#utility.yul\":5418:5490   */\n      tag_151\n        /* \"#utility.yul\":5486:5488   */\n      0x20\n        /* \"#utility.yul\":5475:5484   */\n      dup4\n        /* \"#utility.yul\":5471:5489   */\n      add\n        /* \"#utility.yul\":5462:5468   */\n      dup5\n        /* \"#utility.yul\":5418:5490   */\n      tag_70\n      jump\t// in\n    tag_151:\n        /* \"#utility.yul\":5165:5497   */\n      swap4\n      swap3\n      pop\n      pop\n      pop\n      jump\t// out\n        /* \"#utility.yul\":5503:5683   */\n    tag_89:\n        /* \"#utility.yul\":5551:5628   */\n      0x4e487b7100000000000000000000000000000000000000000000000000000000\n        /* \"#utility.yul\":5548:5549   */\n      0x00\n        /* \"#utility.yul\":5541:5629   */\n      mstore\n        /* \"#utility.yul\":5648:5652   */\n      0x22\n        /* \"#utility.yul\":5645:5646   */\n      0x04\n        /* \"#utility.yul\":5638:5653   */\n      mstore\n        /* \"#utility.yul\":5672:5676   */\n      0x24\n        /* \"#utility.yul\":5669:5670   */\n      0x00\n        /* \"#utility.yul\":5662:5677   */\n      revert\n        /* \"#utility.yul\":5689:6009   */\n    tag_54:\n        /* \"#utility.yul\":5733:5739   */\n      0x00\n        /* \"#utility.yul\":5770:5771   */\n      0x02\n        /* \"#utility.yul\":5764:5768   */\n      dup3\n        /* \"#utility.yul\":5760:5772   */\n      div\n        /* \"#utility.yul\":5750:5772   */\n      swap1\n      pop\n        /* \"#utility.yul\":5817:5818   */\n      0x01\n        /* \"#utility.yul\":5811:5815   */\n      dup3\n        /* \"#utility.yul\":5807:5819   */\n      and\n        /* \"#utility.yul\":5838:5856   */\n      dup1\n        /* \"#utility.yul\":5828:5909   */\n      tag_154\n      jumpi\n        /* \"#utility.yul\":5894:5898   */\n      0x7f\n        /* \"#utility.yul\":5886:5892   */\n      dup3\n        /* \"#utility.yul\":5882:5899   */\n      and\n        /* \"#utility.yul\":5872:5899   */\n      swap2\n      pop\n        /* \"#utility.yul\":5828:5909   */\n    tag_154:\n        /* \"#utility.yul\":5956:5958   */\n      0x20\n        /* \"#utility.yul\":5948:5954   */\n      dup3\n        /* \"#utility.yul\":5945:5959   */\n      lt\n        /* \"#utility.yul\":5925:5943   */\n      dup2\n        /* \"#utility.yul\":5922:5960   */\n      sub\n        /* \"#utility.yul\":5919:6003   */\n      tag_155\n      jumpi\n        /* \"#utility.yul\":5975:5993   */\n      tag_156\n      tag_89\n      jump\t// in\n    tag_156:\n        /* \"#utility.yul\":5919:6003   */\n    tag_155:\n        /* \"#utility.yul\":5740:6009   */\n      pop\n        /* \"#utility.yul\":5689:6009   */\n      swap2\n      swap1\n      pop\n      jump\t// out\n        /* \"#utility.yul\":6015:6187   */\n    tag_90:\n        /* \"#utility.yul\":6155:6179   */\n      0x4d757374206465706f73697420736f6d657468696e6700000000000000000000\n        /* \"#utility.yul\":6151:6152   */\n      0x00\n        /* \"#utility.yul\":6143:6149   */\n      dup3\n        /* \"#utility.yul\":6139:6153   */\n      add\n        /* \"#utility.yul\":6132:6180   */\n      mstore\n        /* \"#utility.yul\":6015:6187   */\n      pop\n      jump\t// out\n        /* \"#utility.yul\":6193:6559   */\n    tag_91:\n        /* \"#utility.yul\":6335:6338   */\n      0x00\n        /* \"#utility.yul\":6356:6423   */\n      tag_159\n        /* \"#utility.yul\":6420:6422   */\n      0x16\n        /* \"#utility.yul\":6415:6418   */\n      dup4\n        /* \"#utility.yul\":6356:6423   */\n      tag_77\n      jump\t// in\n    tag_159:\n        /* \"#utility.yul\":6349:6423   */\n      swap2\n      pop\n        /* \"#utility.yul\":6432:6525   */\n      tag_160\n        /* \"#utility.yul\":6521:6524   */\n      dup3\n        /* \"#utility.yul\":6432:6525   */\n      tag_90\n      jump\t// in\n    tag_160:\n        /* \"#utility.yul\":6550:6552   */\n      0x20\n        /* \"#utility.yul\":6545:6548   */\n      dup3\n        /* \"#utility.yul\":6541:6553   */\n      add\n        /* \"#utility.yul\":6534:6553   */\n      swap1\n      pop\n        /* \"#utility.yul\":6193:6559   */\n      swap2\n      swap1\n      pop\n      jump\t// out\n        /* \"#utility.yul\":6565:6984   */\n    tag_62:\n        /* \"#utility.yul\":6731:6735   */\n      0x00\n        /* \"#utility.yul\":6769:6771   */\n      0x20\n        /* \"#utility.yul\":6758:6767   */\n      dup3\n        /* \"#utility.yul\":6754:6772   */\n      add\n        /* \"#utility.yul\":6746:6772   */\n      swap1\n      pop\n        /* \"#utility.yul\":6818:6827   */\n      dup2\n        /* \"#utility.yul\":6812:6816   */\n      dup2\n        /* \"#utility.yul\":6808:6828   */\n      sub\n        /* \"#utility.yul\":6804:6805   */\n      0x00\n        /* \"#utility.yul\":6793:6802   */\n      dup4\n        /* \"#utility.yul\":6789:6806   */\n      add\n        /* \"#utility.yul\":6782:6829   */\n      mstore\n        /* \"#utility.yul\":6846:6977   */\n      tag_162\n        /* \"#utility.yul\":6972:6976   */\n      dup2\n        /* \"#utility.yul\":6846:6977   */\n      tag_91\n      jump\t// in\n    tag_162:\n        /* \"#utility.yul\":6838:6977   */\n      swap1\n      pop\n        /* \"#utility.yul\":6565:6984   */\n      swap2\n      swap1\n      pop\n      jump\t// out\n        /* \"#utility.yul\":6990:7181   */\n    tag_66:\n        /* \"#utility.yul\":7030:7033   */\n      0x00\n        /* \"#utility.yul\":7049:7069   */\n      tag_164\n        /* \"#utility.yul\":7067:7068   */\n      dup3\n        /* \"#utility.yul\":7049:7069   */\n      tag_69\n      jump\t// in\n    tag_164:\n        /* \"#utility.yul\":7044:7069   */\n      swap2\n      pop\n        /* \"#utility.yul\":7083:7103   */\n      tag_165\n        /* \"#utility.yul\":7101:7102   */\n      dup4\n        /* \"#utility.yul\":7083:7103   */\n      tag_69\n      jump\t// in\n    tag_165:\n        /* \"#utility.yul\":7078:7103   */\n      swap3\n      pop\n        /* \"#utility.yul\":7126:7127   */\n      dup3\n        /* \"#utility.yul\":7123:7124   */\n      dup3\n        /* \"#utility.yul\":7119:7128   */\n      add\n        /* \"#utility.yul\":7112:7128   */\n      swap1\n      pop\n        /* \"#utility.yul\":7147:7150   */\n      dup1\n        /* \"#utility.yul\":7144:7145   */\n      dup3\n        /* \"#utility.yul\":7141:7151   */\n      gt\n        /* \"#utility.yul\":7138:7174   */\n      iszero\n      tag_166\n      jumpi\n        /* \"#utility.yul\":7154:7172   */\n      tag_167\n      tag_88\n      jump\t// in\n    tag_167:\n        /* \"#utility.yul\":7138:7174   */\n    tag_166:\n        /* \"#utility.yul\":6990:7181   */\n      swap3\n      swap2\n      pop\n      pop\n      jump\t// out\n\n    auxdata: 0xa26469706673582212200e091ec9cadfcbc6fa37c2a184a7af66e52f17fd0403fe1ace546dcb724d995264736f6c634300081e0033\n}\n",
				"bytecode": {
					"linkReferences": {},
					"object": "608060405234801561000f575f5ffd5b50604051610eba380380610eba8339818101604052810190610031919061020f565b3360035f6101000a81548173ffffffffffffffffffffffffffffffffffffffff021916908373ffffffffffffffffffffffffffffffffffffffff16021790555081600490816100809190610470565b5080600581905550505061053f565b5f604051905090565b5f5ffd5b5f5ffd5b5f5ffd5b5f5ffd5b5f601f19601f8301169050919050565b7f4e487b71000000000000000000000000000000000000000000000000000000005f52604160045260245ffd5b6100ee826100a8565b810181811067ffffffffffffffff8211171561010d5761010c6100b8565b5b80604052505050565b5f61011f61008f565b905061012b82826100e5565b919050565b5f67ffffffffffffffff82111561014a576101496100b8565b5b610153826100a8565b9050602081019050919050565b8281835e5f83830152505050565b5f61018061017b84610130565b610116565b90508281526020810184848401111561019c5761019b6100a4565b5b6101a7848285610160565b509392505050565b5f82601f8301126101c3576101c26100a0565b5b81516101d384826020860161016e565b91505092915050565b5f819050919050565b6101ee816101dc565b81146101f8575f5ffd5b50565b5f81519050610209816101e5565b92915050565b5f5f6040838503121561022557610224610098565b5b5f83015167ffffffffffffffff8111156102425761024161009c565b5b61024e858286016101af565b925050602061025f858286016101fb565b9150509250929050565b5f81519050919050565b7f4e487b71000000000000000000000000000000000000000000000000000000005f52602260045260245ffd5b5f60028204905060018216806102b757607f821691505b6020821081036102ca576102c9610273565b5b50919050565b5f819050815f5260205f209050919050565b5f6020601f8301049050919050565b5f82821b905092915050565b5f6008830261032c7fffffffffffffffffffffffffffffffffffffffffffffffffffffffffffffffff826102f1565b61033686836102f1565b95508019841693508086168417925050509392505050565b5f819050919050565b5f61037161036c610367846101dc565b61034e565b6101dc565b9050919050565b5f819050919050565b61038a83610357565b61039e61039682610378565b8484546102fd565b825550505050565b5f5f905090565b6103b56103a6565b6103c0818484610381565b505050565b5b818110156103e3576103d85f826103ad565b6001810190506103c6565b5050565b601f821115610428576103f9816102d0565b610402846102e2565b81016020851015610411578190505b61042561041d856102e2565b8301826103c5565b50505b505050565b5f82821c905092915050565b5f6104485f198460080261042d565b1980831691505092915050565b5f6104608383610439565b9150826002028217905092915050565b61047982610269565b67ffffffffffffffff811115610492576104916100b8565b5b61049c82546102a0565b6104a78282856103e7565b5f60209050601f8311600181146104d8575f84156104c6578287015190505b6104d08582610455565b865550610537565b601f1984166104e6866102d0565b5f5b8281101561050d578489015182556001820191506020850194506020810190506104e8565b8683101561052a5784890151610526601f891682610439565b8355505b6001600288020188555050505b505050505050565b61096e8061054c5f395ff3fe60806040526004361061006f575f3560e01c80637d8820971161004d5780637d882097146100ef5780638da5cb5b14610119578063d0e30db014610143578063f8b2cb4f1461014d5761006f565b806318160ddd146100735780632e1a7d4d1461009d57806375d0c0dc146100c5575b5f5ffd5b34801561007e575f5ffd5b50610087610189565b60405161009491906105a2565b60405180910390f35b3480156100a8575f5ffd5b506100c360048036038101906100be91906105e9565b61018f565b005b3480156100d0575f5ffd5b506100d96102f8565b6040516100e69190610684565b60405180910390f35b3480156100fa575f5ffd5b50610103610384565b60405161011091906105a2565b60405180910390f35b348015610124575f5ffd5b5061012d61038a565b60405161013a91906106e3565b60405180910390f35b61014b6103af565b005b348015610158575f5ffd5b50610173600480360381019061016e9190610726565b610545565b60405161018091906105a2565b60405180910390f35b60055481565b805f5f3373ffffffffffffffffffffffffffffffffffffffff1673ffffffffffffffffffffffffffffffffffffffff1681526020019081526020015f2054101561020e576040517f08c379a00000000000000000000000000000000000000000000000000000000081526004016102059061079b565b60405180910390fd5b805f5f3373ffffffffffffffffffffffffffffffffffffffff1673ffffffffffffffffffffffffffffffffffffffff1681526020019081526020015f205f82825461025991906107e6565b925050819055508060025f82825461027191906107e6565b925050819055503373ffffffffffffffffffffffffffffffffffffffff166108fc8290811502906040515f60405180830381858888f193505050501580156102bb573d5f5f3e3d5ffd5b507f65ac0d8bb8cbc0e989ebd02ddc5161d7c499f7c21792e43fcf170314fe6bcc3f33826040516102ed929190610819565b60405180910390a150565b600480546103059061086d565b80601f01602080910402602001604051908101604052809291908181526020018280546103319061086d565b801561037c5780601f106103535761010080835404028352916020019161037c565b820191905f5260205f20905b81548152906001019060200180831161035f57829003601f168201915b505050505081565b60025481565b60035f9054906101000a900473ffffffffffffffffffffffffffffffffffffffff1681565b5f34116103f1576040517f08c379a00000000000000000000000000000000000000000000000000000000081526004016103e8906108e7565b60405180910390fd5b5f5f5f3373ffffffffffffffffffffffffffffffffffffffff1673ffffffffffffffffffffffffffffffffffffffff1681526020019081526020015f20540361049557600133908060018154018082558091505060019003905f5260205f20015f9091909190916101000a81548173ffffffffffffffffffffffffffffffffffffffff021916908373ffffffffffffffffffffffffffffffffffffffff1602179055505b345f5f3373ffffffffffffffffffffffffffffffffffffffff1673ffffffffffffffffffffffffffffffffffffffff1681526020019081526020015f205f8282546104e09190610905565b925050819055503460025f8282546104f89190610905565b92505081905550343373ffffffffffffffffffffffffffffffffffffffff167fe1fffcc4923d04b559f4d29a8bfc6cda04eb5b0d3c460751c2402c5c5cc9109c60405160405180910390a3565b5f5f5f8373ffffffffffffffffffffffffffffffffffffffff1673ffffffffffffffffffffffffffffffffffffffff1681526020019081526020015f20549050919050565b5f819050919050565b61059c8161058a565b82525050565b5f6020820190506105b55f830184610593565b92915050565b5f5ffd5b6105c88161058a565b81146105d2575f5ffd5b50565b5f813590506105e3816105bf565b92915050565b5f602082840312156105fe576105fd6105bb565b5b5f61060b848285016105d5565b91505092915050565b5f81519050919050565b5f82825260208201905092915050565b8281835e5f83830152505050565b5f601f19601f8301169050919050565b5f61065682610614565b610660818561061e565b935061067081856020860161062e565b6106798161063c565b840191505092915050565b5f6020820190508181035f83015261069c818461064c565b905092915050565b5f73ffffffffffffffffffffffffffffffffffffffff82169050919050565b5f6106cd826106a4565b9050919050565b6106dd816106c3565b82525050565b5f6020820190506106f65f8301846106d4565b92915050565b610705816106c3565b811461070f575f5ffd5b50565b5f81359050610720816106fc565b92915050565b5f6020828403121561073b5761073a6105bb565b5b5f61074884828501610712565b91505092915050565b7f496e73756666696369656e742062616c616e63650000000000000000000000005f82015250565b5f61078560148361061e565b915061079082610751565b602082019050919050565b5f6020820190508181035f8301526107b281610779565b9050919050565b7f4e487b71000000000000000000000000000000000000000000000000000000005f52601160045260245ffd5b5f6107f08261058a565b91506107fb8361058a565b9250828203905081811115610813576108126107b9565b5b92915050565b5f60408201905061082c5f8301856106d4565b6108396020830184610593565b9392505050565b7f4e487b71000000000000000000000000000000000000000000000000000000005f52602260045260245ffd5b5f600282049050600182168061088457607f821691505b60208210810361089757610896610840565b5b50919050565b7f4d757374206465706f73697420736f6d657468696e67000000000000000000005f82015250565b5f6108d160168361061e565b91506108dc8261089d565b602082019050919050565b5f6020820190508181035f8301526108fe816108c5565b9050919050565b5f61090f8261058a565b915061091a8361058a565b9250828201905080821115610932576109316107b9565b5b9291505056fea26469706673582212200e091ec9cadfcbc6fa37c2a184a7af66e52f17fd0403fe1ace546dcb724d995264736f6c634300081e0033",
					"opcodes": "PUSH1 0x80 PUSH1 0x40 MSTORE CALLVALUE DUP1 ISZERO PUSH2 0xF JUMPI PUSH0 PUSH0 REVERT JUMPDEST POP PUSH1 0x40 MLOAD PUSH2 0xEBA CODESIZE SUB DUP1 PUSH2 0xEBA DUP4 CODECOPY DUP2 DUP2 ADD PUSH1 0x40 MSTORE DUP2 ADD SWAP1 PUSH2 0x31 SWAP2 SWAP1 PUSH2 0x20F JUMP JUMPDEST CALLER PUSH1 0x3 PUSH0 PUSH2 0x100 EXP DUP2 SLOAD DUP2 PUSH20 0xFFFFFFFFFFFFFFFFFFFFFFFFFFFFFFFFFFFFFFFF MUL NOT AND SWAP1 DUP4 PUSH20 0xFFFFFFFFFFFFFFFFFFFFFFFFFFFFFFFFFFFFFFFF AND MUL OR SWAP1 SSTORE POP DUP2 PUSH1 0x4 SWAP1 DUP2 PUSH2 0x80 SWAP2 SWAP1 PUSH2 0x470 JUMP JUMPDEST POP DUP1 PUSH1 0x5 DUP2 SWAP1 SSTORE POP POP POP PUSH2 0x53F JUMP JUMPDEST PUSH0 PUSH1 0x40 MLOAD SWAP1 POP SWAP1 JUMP JUMPDEST PUSH0 PUSH0 REVERT JUMPDEST PUSH0 PUSH0 REVERT JUMPDEST PUSH0 PUSH0 REVERT JUMPDEST PUSH0 PUSH0 REVERT JUMPDEST PUSH0 PUSH1 0x1F NOT PUSH1 0x1F DUP4 ADD AND SWAP1 POP SWAP2 SWAP1 POP JUMP JUMPDEST PUSH32 0x4E487B7100000000000000000000000000000000000000000000000000000000 PUSH0 MSTORE PUSH1 0x41 PUSH1 0x4 MSTORE PUSH1 0x24 PUSH0 REVERT JUMPDEST PUSH2 0xEE DUP3 PUSH2 0xA8 JUMP JUMPDEST DUP2 ADD DUP2 DUP2 LT PUSH8 0xFFFFFFFFFFFFFFFF DUP3 GT OR ISZERO PUSH2 0x10D JUMPI PUSH2 0x10C PUSH2 0xB8 JUMP JUMPDEST JUMPDEST DUP1 PUSH1 0x40 MSTORE POP POP POP JUMP JUMPDEST PUSH0 PUSH2 0x11F PUSH2 0x8F JUMP JUMPDEST SWAP1 POP PUSH2 0x12B DUP3 DUP3 PUSH2 0xE5 JUMP JUMPDEST SWAP2 SWAP1 POP JUMP JUMPDEST PUSH0 PUSH8 0xFFFFFFFFFFFFFFFF DUP3 GT ISZERO PUSH2 0x14A JUMPI PUSH2 0x149 PUSH2 0xB8 JUMP JUMPDEST JUMPDEST PUSH2 0x153 DUP3 PUSH2 0xA8 JUMP JUMPDEST SWAP1 POP PUSH1 0x20 DUP2 ADD SWAP1 POP SWAP2 SWAP1 POP JUMP JUMPDEST DUP3 DUP2 DUP4 MCOPY PUSH0 DUP4 DUP4 ADD MSTORE POP POP POP JUMP JUMPDEST PUSH0 PUSH2 0x180 PUSH2 0x17B DUP5 PUSH2 0x130 JUMP JUMPDEST PUSH2 0x116 JUMP JUMPDEST SWAP1 POP DUP3 DUP2 MSTORE PUSH1 0x20 DUP2 ADD DUP5 DUP5 DUP5 ADD GT ISZERO PUSH2 0x19C JUMPI PUSH2 0x19B PUSH2 0xA4 JUMP JUMPDEST JUMPDEST PUSH2 0x1A7 DUP5 DUP3 DUP6 PUSH2 0x160 JUMP JUMPDEST POP SWAP4 SWAP3 POP POP POP JUMP JUMPDEST PUSH0 DUP3 PUSH1 0x1F DUP4 ADD SLT PUSH2 0x1C3 JUMPI PUSH2 0x1C2 PUSH2 0xA0 JUMP JUMPDEST JUMPDEST DUP2 MLOAD PUSH2 0x1D3 DUP5 DUP3 PUSH1 0x20 DUP7 ADD PUSH2 0x16E JUMP JUMPDEST SWAP2 POP POP SWAP3 SWAP2 POP POP JUMP JUMPDEST PUSH0 DUP2 SWAP1 POP SWAP2 SWAP1 POP JUMP JUMPDEST PUSH2 0x1EE DUP2 PUSH2 0x1DC JUMP JUMPDEST DUP2 EQ PUSH2 0x1F8 JUMPI PUSH0 PUSH0 REVERT JUMPDEST POP JUMP JUMPDEST PUSH0 DUP2 MLOAD SWAP1 POP PUSH2 0x209 DUP2 PUSH2 0x1E5 JUMP JUMPDEST SWAP3 SWAP2 POP POP JUMP JUMPDEST PUSH0 PUSH0 PUSH1 0x40 DUP4 DUP6 SUB SLT ISZERO PUSH2 0x225 JUMPI PUSH2 0x224 PUSH2 0x98 JUMP JUMPDEST JUMPDEST PUSH0 DUP4 ADD MLOAD PUSH8 0xFFFFFFFFFFFFFFFF DUP2 GT ISZERO PUSH2 0x242 JUMPI PUSH2 0x241 PUSH2 0x9C JUMP JUMPDEST JUMPDEST PUSH2 0x24E DUP6 DUP3 DUP7 ADD PUSH2 0x1AF JUMP JUMPDEST SWAP3 POP POP PUSH1 0x20 PUSH2 0x25F DUP6 DUP3 DUP7 ADD PUSH2 0x1FB JUMP JUMPDEST SWAP2 POP POP SWAP3 POP SWAP3 SWAP1 POP JUMP JUMPDEST PUSH0 DUP2 MLOAD SWAP1 POP SWAP2 SWAP1 POP JUMP JUMPDEST PUSH32 0x4E487B7100000000000000000000000000000000000000000000000000000000 PUSH0 MSTORE PUSH1 0x22 PUSH1 0x4 MSTORE PUSH1 0x24 PUSH0 REVERT JUMPDEST PUSH0 PUSH1 0x2 DUP3 DIV SWAP1 POP PUSH1 0x1 DUP3 AND DUP1 PUSH2 0x2B7 JUMPI PUSH1 0x7F DUP3 AND SWAP2 POP JUMPDEST PUSH1 0x20 DUP3 LT DUP2 SUB PUSH2 0x2CA JUMPI PUSH2 0x2C9 PUSH2 0x273 JUMP JUMPDEST JUMPDEST POP SWAP2 SWAP1 POP JUMP JUMPDEST PUSH0 DUP2 SWAP1 POP DUP2 PUSH0 MSTORE PUSH1 0x20 PUSH0 KECCAK256 SWAP1 POP SWAP2 SWAP1 POP JUMP JUMPDEST PUSH0 PUSH1 0x20 PUSH1 0x1F DUP4 ADD DIV SWAP1 POP SWAP2 SWAP1 POP JUMP JUMPDEST PUSH0 DUP3 DUP3 SHL SWAP1 POP SWAP3 SWAP2 POP POP JUMP JUMPDEST PUSH0 PUSH1 0x8 DUP4 MUL PUSH2 0x32C PUSH32 0xFFFFFFFFFFFFFFFFFFFFFFFFFFFFFFFFFFFFFFFFFFFFFFFFFFFFFFFFFFFFFFFF DUP3 PUSH2 0x2F1 JUMP JUMPDEST PUSH2 0x336 DUP7 DUP4 PUSH2 0x2F1 JUMP JUMPDEST SWAP6 POP DUP1 NOT DUP5 AND SWAP4 POP DUP1 DUP7 AND DUP5 OR SWAP3 POP POP POP SWAP4 SWAP3 POP POP POP JUMP JUMPDEST PUSH0 DUP2 SWAP1 POP SWAP2 SWAP1 POP JUMP JUMPDEST PUSH0 PUSH2 0x371 PUSH2 0x36C PUSH2 0x367 DUP5 PUSH2 0x1DC JUMP JUMPDEST PUSH2 0x34E JUMP JUMPDEST PUSH2 0x1DC JUMP JUMPDEST SWAP1 POP SWAP2 SWAP1 POP JUMP JUMPDEST PUSH0 DUP2 SWAP1 POP SWAP2 SWAP1 POP JUMP JUMPDEST PUSH2 0x38A DUP4 PUSH2 0x357 JUMP JUMPDEST PUSH2 0x39E PUSH2 0x396 DUP3 PUSH2 0x378 JUMP JUMPDEST DUP5 DUP5 SLOAD PUSH2 0x2FD JUMP JUMPDEST DUP3 SSTORE POP POP POP POP JUMP JUMPDEST PUSH0 PUSH0 SWAP1 POP SWAP1 JUMP JUMPDEST PUSH2 0x3B5 PUSH2 0x3A6 JUMP JUMPDEST PUSH2 0x3C0 DUP2 DUP5 DUP5 PUSH2 0x381 JUMP JUMPDEST POP POP POP JUMP JUMPDEST JUMPDEST DUP2 DUP2 LT ISZERO PUSH2 0x3E3 JUMPI PUSH2 0x3D8 PUSH0 DUP3 PUSH2 0x3AD JUMP JUMPDEST PUSH1 0x1 DUP2 ADD SWAP1 POP PUSH2 0x3C6 JUMP JUMPDEST POP POP JUMP JUMPDEST PUSH1 0x1F DUP3 GT ISZERO PUSH2 0x428 JUMPI PUSH2 0x3F9 DUP2 PUSH2 0x2D0 JUMP JUMPDEST PUSH2 0x402 DUP5 PUSH2 0x2E2 JUMP JUMPDEST DUP2 ADD PUSH1 0x20 DUP6 LT ISZERO PUSH2 0x411 JUMPI DUP2 SWAP1 POP JUMPDEST PUSH2 0x425 PUSH2 0x41D DUP6 PUSH2 0x2E2 JUMP JUMPDEST DUP4 ADD DUP3 PUSH2 0x3C5 JUMP JUMPDEST POP POP JUMPDEST POP POP POP JUMP JUMPDEST PUSH0 DUP3 DUP3 SHR SWAP1 POP SWAP3 SWAP2 POP POP JUMP JUMPDEST PUSH0 PUSH2 0x448 PUSH0 NOT DUP5 PUSH1 0x8 MUL PUSH2 0x42D JUMP JUMPDEST NOT DUP1 DUP4 AND SWAP2 POP POP SWAP3 SWAP2 POP POP JUMP JUMPDEST PUSH0 PUSH2 0x460 DUP4 DUP4 PUSH2 0x439 JUMP JUMPDEST SWAP2 POP DUP3 PUSH1 0x2 MUL DUP3 OR SWAP1 POP SWAP3 SWAP2 POP POP JUMP JUMPDEST PUSH2 0x479 DUP3 PUSH2 0x269 JUMP JUMPDEST PUSH8 0xFFFFFFFFFFFFFFFF DUP2 GT ISZERO PUSH2 0x492 JUMPI PUSH2 0x491 PUSH2 0xB8 JUMP JUMPDEST JUMPDEST PUSH2 0x49C DUP3 SLOAD PUSH2 0x2A0 JUMP JUMPDEST PUSH2 0x4A7 DUP3 DUP3 DUP6 PUSH2 0x3E7 JUMP JUMPDEST PUSH0 PUSH1 0x20 SWAP1 POP PUSH1 0x1F DUP4 GT PUSH1 0x1 DUP2 EQ PUSH2 0x4D8 JUMPI PUSH0 DUP5 ISZERO PUSH2 0x4C6 JUMPI DUP3 DUP8 ADD MLOAD SWAP1 POP JUMPDEST PUSH2 0x4D0 DUP6 DUP3 PUSH2 0x455 JUMP JUMPDEST DUP7 SSTORE POP PUSH2 0x537 JUMP JUMPDEST PUSH1 0x1F NOT DUP5 AND PUSH2 0x4E6 DUP7 PUSH2 0x2D0 JUMP JUMPDEST PUSH0 JUMPDEST DUP3 DUP2 LT ISZERO PUSH2 0x50D JUMPI DUP5 DUP10 ADD MLOAD DUP3 SSTORE PUSH1 0x1 DUP3 ADD SWAP2 POP PUSH1 0x20 DUP6 ADD SWAP5 POP PUSH1 0x20 DUP2 ADD SWAP1 POP PUSH2 0x4E8 JUMP JUMPDEST DUP7 DUP4 LT ISZERO PUSH2 0x52A JUMPI DUP5 DUP10 ADD MLOAD PUSH2 0x526 PUSH1 0x1F DUP10 AND DUP3 PUSH2 0x439 JUMP JUMPDEST DUP4 SSTORE POP JUMPDEST PUSH1 0x1 PUSH1 0x2 DUP9 MUL ADD DUP9 SSTORE POP POP POP JUMPDEST POP POP POP POP POP POP JUMP JUMPDEST PUSH2 0x96E DUP1 PUSH2 0x54C PUSH0 CODECOPY PUSH0 RETURN INVALID PUSH1 0x80 PUSH1 0x40 MSTORE PUSH1 0x4 CALLDATASIZE LT PUSH2 0x6F JUMPI PUSH0 CALLDATALOAD PUSH1 0xE0 SHR DUP1 PUSH4 0x7D882097 GT PUSH2 0x4D JUMPI DUP1 PUSH4 0x7D882097 EQ PUSH2 0xEF JUMPI DUP1 PUSH4 0x8DA5CB5B EQ PUSH2 0x119 JUMPI DUP1 PUSH4 0xD0E30DB0 EQ PUSH2 0x143 JUMPI DUP1 PUSH4 0xF8B2CB4F EQ PUSH2 0x14D JUMPI PUSH2 0x6F JUMP JUMPDEST DUP1 PUSH4 0x18160DDD EQ PUSH2 0x73 JUMPI DUP1 PUSH4 0x2E1A7D4D EQ PUSH2 0x9D JUMPI DUP1 PUSH4 0x75D0C0DC EQ PUSH2 0xC5 JUMPI JUMPDEST PUSH0 PUSH0 REVERT JUMPDEST CALLVALUE DUP1 ISZERO PUSH2 0x7E JUMPI PUSH0 PUSH0 REVERT JUMPDEST POP PUSH2 0x87 PUSH2 0x189 JUMP JUMPDEST PUSH1 0x40 MLOAD PUSH2 0x94 SWAP2 SWAP1 PUSH2 0x5A2 JUMP JUMPDEST PUSH1 0x40 MLOAD DUP1 SWAP2 SUB SWAP1 RETURN JUMPDEST CALLVALUE DUP1 ISZERO PUSH2 0xA8 JUMPI PUSH0 PUSH0 REVERT JUMPDEST POP PUSH2 0xC3 PUSH1 0x4 DUP1 CALLDATASIZE SUB DUP2 ADD SWAP1 PUSH2 0xBE SWAP2 SWAP1 PUSH2 0x5E9 JUMP JUMPDEST PUSH2 0x18F JUMP JUMPDEST STOP JUMPDEST CALLVALUE DUP1 ISZERO PUSH2 0xD0 JUMPI PUSH0 PUSH0 REVERT JUMPDEST POP PUSH2 0xD9 PUSH2 0x2F8 JUMP JUMPDEST PUSH1 0x40 MLOAD PUSH2 0xE6 SWAP2 SWAP1 PUSH2 0x684 JUMP JUMPDEST PUSH1 0x40 MLOAD DUP1 SWAP2 SUB SWAP1 RETURN JUMPDEST CALLVALUE DUP1 ISZERO PUSH2 0xFA JUMPI PUSH0 PUSH0 REVERT JUMPDEST POP PUSH2 0x103 PUSH2 0x384 JUMP JUMPDEST PUSH1 0x40 MLOAD PUSH2 0x110 SWAP2 SWAP1 PUSH2 0x5A2 JUMP JUMPDEST PUSH1 0x40 MLOAD DUP1 SWAP2 SUB SWAP1 RETURN JUMPDEST CALLVALUE DUP1 ISZERO PUSH2 0x124 JUMPI PUSH0 PUSH0 REVERT JUMPDEST POP PUSH2 0x12D PUSH2 0x38A JUMP JUMPDEST PUSH1 0x40 MLOAD PUSH2 0x13A SWAP2 SWAP1 PUSH2 0x6E3 JUMP JUMPDEST PUSH1 0x40 MLOAD DUP1 SWAP2 SUB SWAP1 RETURN JUMPDEST PUSH2 0x14B PUSH2 0x3AF JUMP JUMPDEST STOP JUMPDEST CALLVALUE DUP1 ISZERO PUSH2 0x158 JUMPI PUSH0 PUSH0 REVERT JUMPDEST POP PUSH2 0x173 PUSH1 0x4 DUP1 CALLDATASIZE SUB DUP2 ADD SWAP1 PUSH2 0x16E SWAP2 SWAP1 PUSH2 0x726 JUMP JUMPDEST PUSH2 0x545 JUMP JUMPDEST PUSH1 0x40 MLOAD PUSH2 0x180 SWAP2 SWAP1 PUSH2 0x5A2 JUMP JUMPDEST PUSH1 0x40 MLOAD DUP1 SWAP2 SUB SWAP1 RETURN JUMPDEST PUSH1 0x5 SLOAD DUP2 JUMP JUMPDEST DUP1 PUSH0 PUSH0 CALLER PUSH20 0xFFFFFFFFFFFFFFFFFFFFFFFFFFFFFFFFFFFFFFFF AND PUSH20 0xFFFFFFFFFFFFFFFFFFFFFFFFFFFFFFFFFFFFFFFF AND DUP2 MSTORE PUSH1 0x20 ADD SWAP1 DUP2 MSTORE PUSH1 0x20 ADD PUSH0 KECCAK256 SLOAD LT ISZERO PUSH2 0x20E JUMPI PUSH1 0x40 MLOAD PUSH32 0x8C379A000000000000000000000000000000000000000000000000000000000 DUP2 MSTORE PUSH1 0x4 ADD PUSH2 0x205 SWAP1 PUSH2 0x79B JUMP JUMPDEST PUSH1 0x40 MLOAD DUP1 SWAP2 SUB SWAP1 REVERT JUMPDEST DUP1 PUSH0 PUSH0 CALLER PUSH20 0xFFFFFFFFFFFFFFFFFFFFFFFFFFFFFFFFFFFFFFFF AND PUSH20 0xFFFFFFFFFFFFFFFFFFFFFFFFFFFFFFFFFFFFFFFF AND DUP2 MSTORE PUSH1 0x20 ADD SWAP1 DUP2 MSTORE PUSH1 0x20 ADD PUSH0 KECCAK256 PUSH0 DUP3 DUP3 SLOAD PUSH2 0x259 SWAP2 SWAP1 PUSH2 0x7E6 JUMP JUMPDEST SWAP3 POP POP DUP2 SWAP1 SSTORE POP DUP1 PUSH1 0x2 PUSH0 DUP3 DUP3 SLOAD PUSH2 0x271 SWAP2 SWAP1 PUSH2 0x7E6 JUMP JUMPDEST SWAP3 POP POP DUP2 SWAP1 SSTORE POP CALLER PUSH20 0xFFFFFFFFFFFFFFFFFFFFFFFFFFFFFFFFFFFFFFFF AND PUSH2 0x8FC DUP3 SWAP1 DUP2 ISZERO MUL SWAP1 PUSH1 0x40 MLOAD PUSH0 PUSH1 0x40 MLOAD DUP1 DUP4 SUB DUP2 DUP6 DUP9 DUP9 CALL SWAP4 POP POP POP POP ISZERO DUP1 ISZERO PUSH2 0x2BB JUMPI RETURNDATASIZE PUSH0 PUSH0 RETURNDATACOPY RETURNDATASIZE PUSH0 REVERT JUMPDEST POP PUSH32 0x65AC0D8BB8CBC0E989EBD02DDC5161D7C499F7C21792E43FCF170314FE6BCC3F CALLER DUP3 PUSH1 0x40 MLOAD PUSH2 0x2ED SWAP3 SWAP2 SWAP1 PUSH2 0x819 JUMP JUMPDEST PUSH1 0x40 MLOAD DUP1 SWAP2 SUB SWAP1 LOG1 POP JUMP JUMPDEST PUSH1 0x4 DUP1 SLOAD PUSH2 0x305 SWAP1 PUSH2 0x86D JUMP JUMPDEST DUP1 PUSH1 0x1F ADD PUSH1 0x20 DUP1 SWAP2 DIV MUL PUSH1 0x20 ADD PUSH1 0x40 MLOAD SWAP1 DUP2 ADD PUSH1 0x40 MSTORE DUP1 SWAP3 SWAP2 SWAP1 DUP2 DUP2 MSTORE PUSH1 0x20 ADD DUP3 DUP1 SLOAD PUSH2 0x331 SWAP1 PUSH2 0x86D JUMP JUMPDEST DUP1 ISZERO PUSH2 0x37C JUMPI DUP1 PUSH1 0x1F LT PUSH2 0x353 JUMPI PUSH2 0x100 DUP1 DUP4 SLOAD DIV MUL DUP4 MSTORE SWAP2 PUSH1 0x20 ADD SWAP2 PUSH2 0x37C JUMP JUMPDEST DUP3 ADD SWAP2 SWAP1 PUSH0 MSTORE PUSH1 0x20 PUSH0 KECCAK256 SWAP1 JUMPDEST DUP2 SLOAD DUP2 MSTORE SWAP1 PUSH1 0x1 ADD SWAP1 PUSH1 0x20 ADD DUP1 DUP4 GT PUSH2 0x35F JUMPI DUP3 SWAP1 SUB PUSH1 0x1F AND DUP3 ADD SWAP2 JUMPDEST POP POP POP POP POP DUP2 JUMP JUMPDEST PUSH1 0x2 SLOAD DUP2 JUMP JUMPDEST PUSH1 0x3 PUSH0 SWAP1 SLOAD SWAP1 PUSH2 0x100 EXP SWAP1 DIV PUSH20 0xFFFFFFFFFFFFFFFFFFFFFFFFFFFFFFFFFFFFFFFF AND DUP2 JUMP JUMPDEST PUSH0 CALLVALUE GT PUSH2 0x3F1 JUMPI PUSH1 0x40 MLOAD PUSH32 0x8C379A000000000000000000000000000000000000000000000000000000000 DUP2 MSTORE PUSH1 0x4 ADD PUSH2 0x3E8 SWAP1 PUSH2 0x8E7 JUMP JUMPDEST PUSH1 0x40 MLOAD DUP1 SWAP2 SUB SWAP1 REVERT JUMPDEST PUSH0 PUSH0 PUSH0 CALLER PUSH20 0xFFFFFFFFFFFFFFFFFFFFFFFFFFFFFFFFFFFFFFFF AND PUSH20 0xFFFFFFFFFFFFFFFFFFFFFFFFFFFFFFFFFFFFFFFF AND DUP2 MSTORE PUSH1 0x20 ADD SWAP1 DUP2 MSTORE PUSH1 0x20 ADD PUSH0 KECCAK256 SLOAD SUB PUSH2 0x495 JUMPI PUSH1 0x1 CALLER SWAP1 DUP1 PUSH1 0x1 DUP2 SLOAD ADD DUP1 DUP3 SSTORE DUP1 SWAP2 POP POP PUSH1 0x1 SWAP1 SUB SWAP1 PUSH0 MSTORE PUSH1 0x20 PUSH0 KECCAK256 ADD PUSH0 SWAP1 SWAP2 SWAP1 SWAP2 SWAP1 SWAP2 PUSH2 0x100 EXP DUP2 SLOAD DUP2 PUSH20 0xFFFFFFFFFFFFFFFFFFFFFFFFFFFFFFFFFFFFFFFF MUL NOT AND SWAP1 DUP4 PUSH20 0xFFFFFFFFFFFFFFFFFFFFFFFFFFFFFFFFFFFFFFFF AND MUL OR SWAP1 SSTORE POP JUMPDEST CALLVALUE PUSH0 PUSH0 CALLER PUSH20 0xFFFFFFFFFFFFFFFFFFFFFFFFFFFFFFFFFFFFFFFF AND PUSH20 0xFFFFFFFFFFFFFFFFFFFFFFFFFFFFFFFFFFFFFFFF AND DUP2 MSTORE PUSH1 0x20 ADD SWAP1 DUP2 MSTORE PUSH1 0x20 ADD PUSH0 KECCAK256 PUSH0 DUP3 DUP3 SLOAD PUSH2 0x4E0 SWAP2 SWAP1 PUSH2 0x905 JUMP JUMPDEST SWAP3 POP POP DUP2 SWAP1 SSTORE POP CALLVALUE PUSH1 0x2 PUSH0 DUP3 DUP3 SLOAD PUSH2 0x4F8 SWAP2 SWAP1 PUSH2 0x905 JUMP JUMPDEST SWAP3 POP POP DUP2 SWAP1 SSTORE POP CALLVALUE CALLER PUSH20 0xFFFFFFFFFFFFFFFFFFFFFFFFFFFFFFFFFFFFFFFF AND PUSH32 0xE1FFFCC4923D04B559F4D29A8BFC6CDA04EB5B0D3C460751C2402C5C5CC9109C PUSH1 0x40 MLOAD PUSH1 0x40 MLOAD DUP1 SWAP2 SUB SWAP1 LOG3 JUMP JUMPDEST PUSH0 PUSH0 PUSH0 DUP4 PUSH20 0xFFFFFFFFFFFFFFFFFFFFFFFFFFFFFFFFFFFFFFFF AND PUSH20 0xFFFFFFFFFFFFFFFFFFFFFFFFFFFFFFFFFFFFFFFF AND DUP2 MSTORE PUSH1 0x20 ADD SWAP1 DUP2 MSTORE PUSH1 0x20 ADD PUSH0 KECCAK256 SLOAD SWAP1 POP SWAP2 SWAP1 POP JUMP JUMPDEST PUSH0 DUP2 SWAP1 POP SWAP2 SWAP1 POP JUMP JUMPDEST PUSH2 0x59C DUP2 PUSH2 0x58A JUMP JUMPDEST DUP3 MSTORE POP POP JUMP JUMPDEST PUSH0 PUSH1 0x20 DUP3 ADD SWAP1 POP PUSH2 0x5B5 PUSH0 DUP4 ADD DUP5 PUSH2 0x593 JUMP JUMPDEST SWAP3 SWAP2 POP POP JUMP JUMPDEST PUSH0 PUSH0 REVERT JUMPDEST PUSH2 0x5C8 DUP2 PUSH2 0x58A JUMP JUMPDEST DUP2 EQ PUSH2 0x5D2 JUMPI PUSH0 PUSH0 REVERT JUMPDEST POP JUMP JUMPDEST PUSH0 DUP2 CALLDATALOAD SWAP1 POP PUSH2 0x5E3 DUP2 PUSH2 0x5BF JUMP JUMPDEST SWAP3 SWAP2 POP POP JUMP JUMPDEST PUSH0 PUSH1 0x20 DUP3 DUP5 SUB SLT ISZERO PUSH2 0x5FE JUMPI PUSH2 0x5FD PUSH2 0x5BB JUMP JUMPDEST JUMPDEST PUSH0 PUSH2 0x60B DUP5 DUP3 DUP6 ADD PUSH2 0x5D5 JUMP JUMPDEST SWAP2 POP POP SWAP3 SWAP2 POP POP JUMP JUMPDEST PUSH0 DUP2 MLOAD SWAP1 POP SWAP2 SWAP1 POP JUMP JUMPDEST PUSH0 DUP3 DUP3 MSTORE PUSH1 0x20 DUP3 ADD SWAP1 POP SWAP3 SWAP2 POP POP JUMP JUMPDEST DUP3 DUP2 DUP4 MCOPY PUSH0 DUP4 DUP4 ADD MSTORE POP POP POP JUMP JUMPDEST PUSH0 PUSH1 0x1F NOT PUSH1 0x1F DUP4 ADD AND SWAP1 POP SWAP2 SWAP1 POP JUMP JUMPDEST PUSH0 PUSH2 0x656 DUP3 PUSH2 0x614 JUMP JUMPDEST PUSH2 0x660 DUP2 DUP6 PUSH2 0x61E JUMP JUMPDEST SWAP4 POP PUSH2 0x670 DUP2 DUP6 PUSH1 0x20 DUP7 ADD PUSH2 0x62E JUMP JUMPDEST PUSH2 0x679 DUP2 PUSH2 0x63C JUMP JUMPDEST DUP5 ADD SWAP2 POP POP SWAP3 SWAP2 POP POP JUMP JUMPDEST PUSH0 PUSH1 0x20 DUP3 ADD SWAP1 POP DUP2 DUP2 SUB PUSH0 DUP4 ADD MSTORE PUSH2 0x69C DUP2 DUP5 PUSH2 0x64C JUMP JUMPDEST SWAP1 POP SWAP3 SWAP2 POP POP JUMP JUMPDEST PUSH0 PUSH20 0xFFFFFFFFFFFFFFFFFFFFFFFFFFFFFFFFFFFFFFFF DUP3 AND SWAP1 POP SWAP2 SWAP1 POP JUMP JUMPDEST PUSH0 PUSH2 0x6CD DUP3 PUSH2 0x6A4 JUMP JUMPDEST SWAP1 POP SWAP2 SWAP1 POP JUMP JUMPDEST PUSH2 0x6DD DUP2 PUSH2 0x6C3 JUMP JUMPDEST DUP3 MSTORE POP POP JUMP JUMPDEST PUSH0 PUSH1 0x20 DUP3 ADD SWAP1 POP PUSH2 0x6F6 PUSH0 DUP4 ADD DUP5 PUSH2 0x6D4 JUMP JUMPDEST SWAP3 SWAP2 POP POP JUMP JUMPDEST PUSH2 0x705 DUP2 PUSH2 0x6C3 JUMP JUMPDEST DUP2 EQ PUSH2 0x70F JUMPI PUSH0 PUSH0 REVERT JUMPDEST POP JUMP JUMPDEST PUSH0 DUP2 CALLDATALOAD SWAP1 POP PUSH2 0x720 DUP2 PUSH2 0x6FC JUMP JUMPDEST SWAP3 SWAP2 POP POP JUMP JUMPDEST PUSH0 PUSH1 0x20 DUP3 DUP5 SUB SLT ISZERO PUSH2 0x73B JUMPI PUSH2 0x73A PUSH2 0x5BB JUMP JUMPDEST JUMPDEST PUSH0 PUSH2 0x748 DUP5 DUP3 DUP6 ADD PUSH2 0x712 JUMP JUMPDEST SWAP2 POP POP SWAP3 SWAP2 POP POP JUMP JUMPDEST PUSH32 0x496E73756666696369656E742062616C616E6365000000000000000000000000 PUSH0 DUP3 ADD MSTORE POP JUMP JUMPDEST PUSH0 PUSH2 0x785 PUSH1 0x14 DUP4 PUSH2 0x61E JUMP JUMPDEST SWAP2 POP PUSH2 0x790 DUP3 PUSH2 0x751 JUMP JUMPDEST PUSH1 0x20 DUP3 ADD SWAP1 POP SWAP2 SWAP1 POP JUMP JUMPDEST PUSH0 PUSH1 0x20 DUP3 ADD SWAP1 POP DUP2 DUP2 SUB PUSH0 DUP4 ADD MSTORE PUSH2 0x7B2 DUP2 PUSH2 0x779 JUMP JUMPDEST SWAP1 POP SWAP2 SWAP1 POP JUMP JUMPDEST PUSH32 0x4E487B7100000000000000000000000000000000000000000000000000000000 PUSH0 MSTORE PUSH1 0x11 PUSH1 0x4 MSTORE PUSH1 0x24 PUSH0 REVERT JUMPDEST PUSH0 PUSH2 0x7F0 DUP3 PUSH2 0x58A JUMP JUMPDEST SWAP2 POP PUSH2 0x7FB DUP4 PUSH2 0x58A JUMP JUMPDEST SWAP3 POP DUP3 DUP3 SUB SWAP1 POP DUP2 DUP2 GT ISZERO PUSH2 0x813 JUMPI PUSH2 0x812 PUSH2 0x7B9 JUMP JUMPDEST JUMPDEST SWAP3 SWAP2 POP POP JUMP JUMPDEST PUSH0 PUSH1 0x40 DUP3 ADD SWAP1 POP PUSH2 0x82C PUSH0 DUP4 ADD DUP6 PUSH2 0x6D4 JUMP JUMPDEST PUSH2 0x839 PUSH1 0x20 DUP4 ADD DUP5 PUSH2 0x593 JUMP JUMPDEST SWAP4 SWAP3 POP POP POP JUMP JUMPDEST PUSH32 0x4E487B7100000000000000000000000000000000000000000000000000000000 PUSH0 MSTORE PUSH1 0x22 PUSH1 0x4 MSTORE PUSH1 0x24 PUSH0 REVERT JUMPDEST PUSH0 PUSH1 0x2 DUP3 DIV SWAP1 POP PUSH1 0x1 DUP3 AND DUP1 PUSH2 0x884 JUMPI PUSH1 0x7F DUP3 AND SWAP2 POP JUMPDEST PUSH1 0x20 DUP3 LT DUP2 SUB PUSH2 0x897 JUMPI PUSH2 0x896 PUSH2 0x840 JUMP JUMPDEST JUMPDEST POP SWAP2 SWAP1 POP JUMP JUMPDEST PUSH32 0x4D757374206465706F73697420736F6D657468696E6700000000000000000000 PUSH0 DUP3 ADD MSTORE POP JUMP JUMPDEST PUSH0 PUSH2 0x8D1 PUSH1 0x16 DUP4 PUSH2 0x61E JUMP JUMPDEST SWAP2 POP PUSH2 0x8DC DUP3 PUSH2 0x89D JUMP JUMPDEST PUSH1 0x20 DUP3 ADD SWAP1 POP SWAP2 SWAP1 POP JUMP JUMPDEST PUSH0 PUSH1 0x20 DUP3 ADD SWAP1 POP DUP2 DUP2 SUB PUSH0 DUP4 ADD MSTORE PUSH2 0x8FE DUP2 PUSH2 0x8C5 JUMP JUMPDEST SWAP1 POP SWAP2 SWAP1 POP JUMP JUMPDEST PUSH0 PUSH2 0x90F DUP3 PUSH2 0x58A JUMP JUMPDEST SWAP2 POP PUSH2 0x91A DUP4 PUSH2 0x58A JUMP JUMPDEST SWAP3 POP DUP3 DUP3 ADD SWAP1 POP DUP1 DUP3 GT ISZERO PUSH2 0x932 JUMPI PUSH2 0x931 PUSH2 0x7B9 JUMP JUMPDEST JUMPDEST SWAP3 SWAP2 POP POP JUMP INVALID LOG2 PUSH5 0x6970667358 0x22 SLT KECCAK256 0xE MULMOD 0x1E 0xC9 0xCA 0xDF 0xCB 0xC6 STATICCALL CALLDATACOPY 0xC2 LOG1 DUP5 0xA7 0xAF PUSH7 0xE52F17FD0403FE BYTE 0xCE SLOAD PUSH14 0xCB724D995264736F6C634300081E STOP CALLER "
				},
				"gasEstimates": {
					"creation": {
						"codeDepositCost": "482800",
						"executionCost": "infinite",
						"totalCost": "infinite"
					},
					"external": {
						"contractName()": "infinite",
						"deposit()": "infinite",
						"getBalance(address)": "2894",
						"owner()": "2530",
						"totalDeposits()": "2425",
						"totalSupply()": "2426",
						"withdraw(uint256)": "infinite"
					}
				},
				"methodIdentifiers": {
					"contractName()": "75d0c0dc",
					"deposit()": "d0e30db0",
					"getBalance(address)": "f8b2cb4f",
					"owner()": "8da5cb5b",
					"totalDeposits()": "7d882097",
					"totalSupply()": "18160ddd",
					"withdraw(uint256)": "2e1a7d4d"
				}
			},
			"storageLayout": {
				"storage": [
					{
						"astId": 5,
						"contract": "contract/7thClass1.sol:BankAccount",
						"label": "balances",
						"offset": 0,
						"slot": "0",
						"type": "t_mapping(t_address,t_uint256)"
					},
					{
						"astId": 8,
						"contract": "contract/7thClass1.sol:BankAccount",
						"label": "accountHolders",
						"offset": 0,
						"slot": "1",
						"type": "t_array(t_address)dyn_storage"
					},
					{
						"astId": 10,
						"contract": "contract/7thClass1.sol:BankAccount",
						"label": "totalDeposits",
						"offset": 0,
						"slot": "2",
						"type": "t_uint256"
					},
					{
						"astId": 12,
						"contract": "contract/7thClass1.sol:BankAccount",
						"label": "owner",
						"offset": 0,
						"slot": "3",
						"type": "t_address"
					},
					{
						"astId": 14,
						"contract": "contract/7thClass1.sol:BankAccount",
						"label": "contractName",
						"offset": 0,
						"slot": "4",
						"type": "t_string_storage"
					},
					{
						"astId": 16,
						"contract": "contract/7thClass1.sol:BankAccount",
						"label": "totalSupply",
						"offset": 0,
						"slot": "5",
						"type": "t_uint256"
					}
				],
				"types": {
					"t_address": {
						"encoding": "inplace",
						"label": "address",
						"numberOfBytes": "20"
					},
					"t_array(t_address)dyn_storage": {
						"base": "t_address",
						"encoding": "dynamic_array",
						"label": "address[]",
						"numberOfBytes": "32"
					},
					"t_mapping(t_address,t_uint256)": {
						"encoding": "mapping",
						"key": "t_address",
						"label": "mapping(address => uint256)",
						"numberOfBytes": "32",
						"value": "t_uint256"
					},
					"t_string_storage": {
						"encoding": "bytes",
						"label": "string",
						"numberOfBytes": "32"
					},
					"t_uint256": {
						"encoding": "inplace",
						"label": "uint256",
						"numberOfBytes": "32"
					}
				}
			},
			"userdoc": {
				"kind": "user",
				"methods": {},
				"version": 1
			}
		}
	}
}