{
	"contract/update.sol": {
		"Marketplace": {
			"abi": [
				{
					"anonymous": false,
					"inputs": [
						{
							"indexed": true,
							"internalType": "uint256",
							"name": "orderId",
							"type": "uint256"
						},
						{
							"indexed": true,
							"internalType": "address",
							"name": "buyer",
							"type": "address"
						},
						{
							"indexed": false,
							"internalType": "uint256",
							"name": "refundAmount",
							"type": "uint256"
						}
					],
					"name": "OrderCancelled",
					"type": "event"
				},
				{
					"anonymous": false,
					"inputs": [
						{
							"indexed": true,
							"internalType": "uint256",
							"name": "orderId",
							"type": "uint256"
						},
						{
							"indexed": true,
							"internalType": "address",
							"name": "buyer",
							"type": "address"
						},
						{
							"indexed": true,
							"internalType": "uint256",
							"name": "productId",
							"type": "uint256"
						},
						{
							"indexed": false,
							"internalType": "uint256",
							"name": "amount",
							"type": "uint256"
						}
					],
					"name": "OrderCreated",
					"type": "event"
				},
				{
					"anonymous": false,
					"inputs": [
						{
							"indexed": true,
							"internalType": "uint256",
							"name": "orderId",
							"type": "uint256"
						},
						{
							"indexed": false,
							"internalType": "enum Marketplace.OrderStatus",
							"name": "newStatus",
							"type": "uint8"
						}
					],
					"name": "OrderStatusUpdated",
					"type": "event"
				},
				{
					"anonymous": false,
					"inputs": [
						{
							"indexed": true,
							"internalType": "uint256",
							"name": "productId",
							"type": "uint256"
						},
						{
							"indexed": false,
							"internalType": "string",
							"name": "name",
							"type": "string"
						},
						{
							"indexed": false,
							"internalType": "uint256",
							"name": "price",
							"type": "uint256"
						},
						{
							"indexed": false,
							"internalType": "address",
							"name": "seller",
							"type": "address"
						}
					],
					"name": "ProductAdded",
					"type": "event"
				},
				{
					"inputs": [
						{
							"internalType": "string",
							"name": "name",
							"type": "string"
						},
						{
							"internalType": "uint256",
							"name": "price",
							"type": "uint256"
						}
					],
					"name": "addProduct",
					"outputs": [],
					"stateMutability": "nonpayable",
					"type": "function"
				},
				{
					"inputs": [
						{
							"internalType": "uint256",
							"name": "productId",
							"type": "uint256"
						}
					],
					"name": "createOrder",
					"outputs": [],
					"stateMutability": "payable",
					"type": "function"
				},
				{
					"inputs": [
						{
							"internalType": "enum Marketplace.OrderStatus",
							"name": "current",
							"type": "uint8"
						},
						{
							"internalType": "enum Marketplace.OrderStatus",
							"name": "newStatus",
							"type": "uint8"
						}
					],
					"name": "isValidTransition",
					"outputs": [
						{
							"internalType": "bool",
							"name": "",
							"type": "bool"
						}
					],
					"stateMutability": "pure",
					"type": "function"
				},
				{
					"inputs": [
						{
							"internalType": "uint256",
							"name": "",
							"type": "uint256"
						}
					],
					"name": "orders",
					"outputs": [
						{
							"internalType": "uint256",
							"name": "id",
							"type": "uint256"
						},
						{
							"internalType": "address",
							"name": "buyer",
							"type": "address"
						},
						{
							"internalType": "uint256",
							"name": "productId",
							"type": "uint256"
						},
						{
							"internalType": "enum Marketplace.OrderStatus",
							"name": "status",
							"type": "uint8"
						},
						{
							"internalType": "uint256",
							"name": "deadline",
							"type": "uint256"
						}
					],
					"stateMutability": "view",
					"type": "function"
				},
				{
					"inputs": [
						{
							"internalType": "uint256",
							"name": "",
							"type": "uint256"
						}
					],
					"name": "productById",
					"outputs": [
						{
							"internalType": "uint256",
							"name": "id",
							"type": "uint256"
						},
						{
							"internalType": "string",
							"name": "name",
							"type": "string"
						},
						{
							"internalType": "uint256",
							"name": "price",
							"type": "uint256"
						},
						{
							"internalType": "address",
							"name": "seller",
							"type": "address"
						},
						{
							"internalType": "bool",
							"name": "isAvailable",
							"type": "bool"
						}
					],
					"stateMutability": "view",
					"type": "function"
				},
				{
					"inputs": [
						{
							"internalType": "uint256",
							"name": "",
							"type": "uint256"
						}
					],
					"name": "products",
					"outputs": [
						{
							"internalType": "uint256",
							"name": "id",
							"type": "uint256"
						},
						{
							"internalType": "string",
							"name": "name",
							"type": "string"
						},
						{
							"internalType": "uint256",
							"name": "price",
							"type": "uint256"
						},
						{
							"internalType": "address",
							"name": "seller",
							"type": "address"
						},
						{
							"internalType": "bool",
							"name": "isAvailable",
							"type": "bool"
						}
					],
					"stateMutability": "view",
					"type": "function"
				},
				{
					"inputs": [
						{
							"internalType": "uint256",
							"name": "orderId",
							"type": "uint256"
						},
						{
							"internalType": "enum Marketplace.OrderStatus",
							"name": "newStatus",
							"type": "uint8"
						}
					],
					"name": "updateOrderStatus",
					"outputs": [],
					"stateMutability": "nonpayable",
					"type": "function"
				},
				{
					"inputs": [
						{
							"internalType": "uint256",
							"name": "productId",
							"type": "uint256"
						},
						{
							"internalType": "string",
							"name": "newName",
							"type": "string"
						},
						{
							"internalType": "uint256",
							"name": "newPrice",
							"type": "uint256"
						}
					],
					"name": "updateProductName",
					"outputs": [],
					"stateMutability": "nonpayable",
					"type": "function"
				}
			],
			"devdoc": {
				"kind": "dev",
				"methods": {},
				"version": 1
			},
			"evm": {
				"assembly": "    /* \"contract/update.sol\":61:4415  contract Marketplace {... */\n  mstore(0x40, 0x80)\n  callvalue\n  dup1\n  iszero\n  tag_1\n  jumpi\n  revert(0x00, 0x00)\ntag_1:\n  pop\n  dataSize(sub_0)\n  dup1\n  dataOffset(sub_0)\n  0x00\n  codecopy\n  0x00\n  return\nstop\n\nsub_0: assembly {\n        /* \"contract/update.sol\":61:4415  contract Marketplace {... */\n      mstore(0x40, 0x80)\n      jumpi(tag_1, lt(calldatasize, 0x04))\n      shr(0xe0, calldataload(0x00))\n      dup1\n      0xa85c38ef\n      gt\n      tag_10\n      jumpi\n      dup1\n      0xa85c38ef\n      eq\n      tag_6\n      jumpi\n      dup1\n      0xaab3196d\n      eq\n      tag_7\n      jumpi\n      dup1\n      0xb15247d9\n      eq\n      tag_8\n      jumpi\n      dup1\n      0xf8ad8cd7\n      eq\n      tag_9\n      jumpi\n      jump(tag_1)\n    tag_10:\n      dup1\n      0x61c18c8a\n      eq\n      tag_2\n      jumpi\n      dup1\n      0x79412d28\n      eq\n      tag_3\n      jumpi\n      dup1\n      0x7acc0b20\n      eq\n      tag_4\n      jumpi\n      dup1\n      0xa30b475f\n      eq\n      tag_5\n      jumpi\n    tag_1:\n      revert(0x00, 0x00)\n        /* \"contract/update.sol\":4121:4412  function updateProductName(uint256 productId, string memory newName, uint256 newPrice) external {... */\n    tag_2:\n      callvalue\n      dup1\n      iszero\n      tag_11\n      jumpi\n      revert(0x00, 0x00)\n    tag_11:\n      pop\n      tag_12\n      0x04\n      dup1\n      calldatasize\n      sub\n      dup2\n      add\n      swap1\n      tag_13\n      swap2\n      swap1\n      tag_14\n      jump\t// in\n    tag_13:\n      tag_15\n      jump\t// in\n    tag_12:\n      stop\n        /* \"contract/update.sol\":3463:4050  function isValidTransition(OrderStatus current, OrderStatus newStatus) public pure returns (bool) {... */\n    tag_3:\n      callvalue\n      dup1\n      iszero\n      tag_16\n      jumpi\n      revert(0x00, 0x00)\n    tag_16:\n      pop\n      tag_17\n      0x04\n      dup1\n      calldatasize\n      sub\n      dup2\n      add\n      swap1\n      tag_18\n      swap2\n      swap1\n      tag_19\n      jump\t// in\n    tag_18:\n      tag_20\n      jump\t// in\n    tag_17:\n      mload(0x40)\n      tag_21\n      swap2\n      swap1\n      tag_22\n      jump\t// in\n    tag_21:\n      mload(0x40)\n      dup1\n      swap2\n      sub\n      swap1\n      return\n        /* \"contract/update.sol\":910:935  Product[] public products */\n    tag_4:\n      callvalue\n      dup1\n      iszero\n      tag_23\n      jumpi\n      revert(0x00, 0x00)\n    tag_23:\n      pop\n      tag_24\n      0x04\n      dup1\n      calldatasize\n      sub\n      dup2\n      add\n      swap1\n      tag_25\n      swap2\n      swap1\n      tag_26\n      jump\t// in\n    tag_25:\n      tag_27\n      jump\t// in\n    tag_24:\n      mload(0x40)\n      tag_28\n      swap6\n      swap5\n      swap4\n      swap3\n      swap2\n      swap1\n      tag_29\n      jump\t// in\n    tag_28:\n      mload(0x40)\n      dup1\n      swap2\n      sub\n      swap1\n      return\n        /* \"contract/update.sol\":942:988  mapping(uint256 => Product) public productById */\n    tag_5:\n      callvalue\n      dup1\n      iszero\n      tag_30\n      jumpi\n      revert(0x00, 0x00)\n    tag_30:\n      pop\n      tag_31\n      0x04\n      dup1\n      calldatasize\n      sub\n      dup2\n      add\n      swap1\n      tag_32\n      swap2\n      swap1\n      tag_26\n      jump\t// in\n    tag_32:\n      tag_33\n      jump\t// in\n    tag_31:\n      mload(0x40)\n      tag_34\n      swap6\n      swap5\n      swap4\n      swap3\n      swap2\n      swap1\n      tag_29\n      jump\t// in\n    tag_34:\n      mload(0x40)\n      dup1\n      swap2\n      sub\n      swap1\n      return\n        /* \"contract/update.sol\":995:1034  mapping(uint256 => Order) public orders */\n    tag_6:\n      callvalue\n      dup1\n      iszero\n      tag_35\n      jumpi\n      revert(0x00, 0x00)\n    tag_35:\n      pop\n      tag_36\n      0x04\n      dup1\n      calldatasize\n      sub\n      dup2\n      add\n      swap1\n      tag_37\n      swap2\n      swap1\n      tag_26\n      jump\t// in\n    tag_37:\n      tag_38\n      jump\t// in\n    tag_36:\n      mload(0x40)\n      tag_39\n      swap6\n      swap5\n      swap4\n      swap3\n      swap2\n      swap1\n      tag_40\n      jump\t// in\n    tag_39:\n      mload(0x40)\n      dup1\n      swap2\n      sub\n      swap1\n      return\n        /* \"contract/update.sol\":2542:3419  function updateOrderStatus(uint256 orderId, OrderStatus newStatus) external {... */\n    tag_7:\n      callvalue\n      dup1\n      iszero\n      tag_41\n      jumpi\n      revert(0x00, 0x00)\n    tag_41:\n      pop\n      tag_42\n      0x04\n      dup1\n      calldatasize\n      sub\n      dup2\n      add\n      swap1\n      tag_43\n      swap2\n      swap1\n      tag_44\n      jump\t// in\n    tag_43:\n      tag_45\n      jump\t// in\n    tag_42:\n      stop\n        /* \"contract/update.sol\":1201:1629  function addProduct(string memory name, uint256 price) external {... */\n    tag_8:\n      callvalue\n      dup1\n      iszero\n      tag_46\n      jumpi\n      revert(0x00, 0x00)\n    tag_46:\n      pop\n      tag_47\n      0x04\n      dup1\n      calldatasize\n      sub\n      dup2\n      add\n      swap1\n      tag_48\n      swap2\n      swap1\n      tag_49\n      jump\t// in\n    tag_48:\n      tag_50\n      jump\t// in\n    tag_47:\n      stop\n        /* \"contract/update.sol\":1674:2490  function createOrder(uint256 productId) external payable {... */\n    tag_9:\n      tag_51\n      0x04\n      dup1\n      calldatasize\n      sub\n      dup2\n      add\n      swap1\n      tag_52\n      swap2\n      swap1\n      tag_26\n      jump\t// in\n    tag_52:\n      tag_53\n      jump\t// in\n    tag_51:\n      stop\n        /* \"contract/update.sol\":4121:4412  function updateProductName(uint256 productId, string memory newName, uint256 newPrice) external {... */\n    tag_15:\n        /* \"contract/update.sol\":4269:4279  msg.sender */\n      caller\n        /* \"contract/update.sol\":4236:4279  productById[productId].seller == msg.sender */\n      0xffffffffffffffffffffffffffffffffffffffff\n      and\n        /* \"contract/update.sol\":4236:4247  productById */\n      0x01\n        /* \"contract/update.sol\":4236:4258  productById[productId] */\n      0x00\n        /* \"contract/update.sol\":4248:4257  productId */\n      dup6\n        /* \"contract/update.sol\":4236:4258  productById[productId] */\n      dup2\n      mstore\n      0x20\n      add\n      swap1\n      dup2\n      mstore\n      0x20\n      add\n      0x00\n      keccak256\n        /* \"contract/update.sol\":4236:4265  productById[productId].seller */\n      0x03\n      add\n      0x00\n      swap1\n      sload\n      swap1\n      0x0100\n      exp\n      swap1\n      div\n      0xffffffffffffffffffffffffffffffffffffffff\n      and\n        /* \"contract/update.sol\":4236:4279  productById[productId].seller == msg.sender */\n      0xffffffffffffffffffffffffffffffffffffffff\n      and\n      eq\n        /* \"contract/update.sol\":4228:4306  require(productById[productId].seller == msg.sender, \"Only seller can update\") */\n      tag_55\n      jumpi\n      mload(0x40)\n      0x08c379a000000000000000000000000000000000000000000000000000000000\n      dup2\n      mstore\n      0x04\n      add\n      tag_56\n      swap1\n      tag_57\n      jump\t// in\n    tag_56:\n      mload(0x40)\n      dup1\n      swap2\n      sub\n      swap1\n      revert\n    tag_55:\n        /* \"contract/update.sol\":4347:4354  newName */\n      dup2\n        /* \"contract/update.sol\":4317:4328  productById */\n      0x01\n        /* \"contract/update.sol\":4317:4339  productById[productId] */\n      0x00\n        /* \"contract/update.sol\":4329:4338  productId */\n      dup6\n        /* \"contract/update.sol\":4317:4339  productById[productId] */\n      dup2\n      mstore\n      0x20\n      add\n      swap1\n      dup2\n      mstore\n      0x20\n      add\n      0x00\n      keccak256\n        /* \"contract/update.sol\":4317:4344  productById[productId].name */\n      0x01\n      add\n        /* \"contract/update.sol\":4317:4354  productById[productId].name = newName */\n      swap1\n      dup2\n      tag_58\n      swap2\n      swap1\n      tag_59\n      jump\t// in\n    tag_58:\n      pop\n        /* \"contract/update.sol\":4396:4404  newPrice */\n      dup1\n        /* \"contract/update.sol\":4365:4376  productById */\n      0x01\n        /* \"contract/update.sol\":4365:4387  productById[productId] */\n      0x00\n        /* \"contract/update.sol\":4377:4386  productId */\n      dup6\n        /* \"contract/update.sol\":4365:4387  productById[productId] */\n      dup2\n      mstore\n      0x20\n      add\n      swap1\n      dup2\n      mstore\n      0x20\n      add\n      0x00\n      keccak256\n        /* \"contract/update.sol\":4365:4393  productById[productId].price */\n      0x02\n      add\n        /* \"contract/update.sol\":4365:4404  productById[productId].price = newPrice */\n      dup2\n      swap1\n      sstore\n      pop\n        /* \"contract/update.sol\":4121:4412  function updateProductName(uint256 productId, string memory newName, uint256 newPrice) external {... */\n      pop\n      pop\n      pop\n      jump\t// out\n        /* \"contract/update.sol\":3463:4050  function isValidTransition(OrderStatus current, OrderStatus newStatus) public pure returns (bool) {... */\n    tag_20:\n        /* \"contract/update.sol\":3555:3559  bool */\n      0x00\n        /* \"contract/update.sol\":3604:3623  OrderStatus.Pending */\n      0x00\n        /* \"contract/update.sol\":3593:3623  current == OrderStatus.Pending */\n      0x05\n      dup2\n      gt\n      iszero\n      tag_61\n      jumpi\n      tag_62\n      tag_63\n      jump\t// in\n    tag_62:\n    tag_61:\n        /* \"contract/update.sol\":3593:3600  current */\n      dup4\n        /* \"contract/update.sol\":3593:3623  current == OrderStatus.Pending */\n      0x05\n      dup2\n      gt\n      iszero\n      tag_64\n      jumpi\n      tag_65\n      tag_63\n      jump\t// in\n    tag_65:\n    tag_64:\n      eq\n        /* \"contract/update.sol\":3593:3656  current == OrderStatus.Pending && newStatus == OrderStatus.Paid */\n      dup1\n      iszero\n      tag_66\n      jumpi\n      pop\n        /* \"contract/update.sol\":3640:3656  OrderStatus.Paid */\n      0x01\n        /* \"contract/update.sol\":3627:3656  newStatus == OrderStatus.Paid */\n      0x05\n      dup2\n      gt\n      iszero\n      tag_67\n      jumpi\n      tag_68\n      tag_63\n      jump\t// in\n    tag_68:\n    tag_67:\n        /* \"contract/update.sol\":3627:3636  newStatus */\n      dup3\n        /* \"contract/update.sol\":3627:3656  newStatus == OrderStatus.Paid */\n      0x05\n      dup2\n      gt\n      iszero\n      tag_69\n      jumpi\n      tag_70\n      tag_63\n      jump\t// in\n    tag_70:\n    tag_69:\n      eq\n        /* \"contract/update.sol\":3593:3656  current == OrderStatus.Pending && newStatus == OrderStatus.Paid */\n    tag_66:\n        /* \"contract/update.sol\":3592:3781  (current == OrderStatus.Pending && newStatus == OrderStatus.Paid) ||... */\n      dup1\n      tag_71\n      jumpi\n      pop\n        /* \"contract/update.sol\":3686:3702  OrderStatus.Paid */\n      0x01\n        /* \"contract/update.sol\":3675:3702  current == OrderStatus.Paid */\n      0x05\n      dup2\n      gt\n      iszero\n      tag_72\n      jumpi\n      tag_73\n      tag_63\n      jump\t// in\n    tag_73:\n    tag_72:\n        /* \"contract/update.sol\":3675:3682  current */\n      dup4\n        /* \"contract/update.sol\":3675:3702  current == OrderStatus.Paid */\n      0x05\n      dup2\n      gt\n      iszero\n      tag_74\n      jumpi\n      tag_75\n      tag_63\n      jump\t// in\n    tag_75:\n    tag_74:\n      eq\n        /* \"contract/update.sol\":3675:3780  current == OrderStatus.Paid && (newStatus == OrderStatus.Confirmed || newStatus == OrderStatus.Cancelled) */\n      dup1\n      iszero\n      tag_76\n      jumpi\n      pop\n        /* \"contract/update.sol\":3720:3741  OrderStatus.Confirmed */\n      0x02\n        /* \"contract/update.sol\":3707:3741  newStatus == OrderStatus.Confirmed */\n      0x05\n      dup2\n      gt\n      iszero\n      tag_77\n      jumpi\n      tag_78\n      tag_63\n      jump\t// in\n    tag_78:\n    tag_77:\n        /* \"contract/update.sol\":3707:3716  newStatus */\n      dup3\n        /* \"contract/update.sol\":3707:3741  newStatus == OrderStatus.Confirmed */\n      0x05\n      dup2\n      gt\n      iszero\n      tag_79\n      jumpi\n      tag_80\n      tag_63\n      jump\t// in\n    tag_80:\n    tag_79:\n      eq\n        /* \"contract/update.sol\":3707:3779  newStatus == OrderStatus.Confirmed || newStatus == OrderStatus.Cancelled */\n      dup1\n      tag_81\n      jumpi\n      pop\n        /* \"contract/update.sol\":3758:3779  OrderStatus.Cancelled */\n      0x05\n        /* \"contract/update.sol\":3745:3779  newStatus == OrderStatus.Cancelled */\n      dup1\n      dup2\n      gt\n      iszero\n      tag_82\n      jumpi\n      tag_83\n      tag_63\n      jump\t// in\n    tag_83:\n    tag_82:\n        /* \"contract/update.sol\":3745:3754  newStatus */\n      dup3\n        /* \"contract/update.sol\":3745:3779  newStatus == OrderStatus.Cancelled */\n      0x05\n      dup2\n      gt\n      iszero\n      tag_84\n      jumpi\n      tag_85\n      tag_63\n      jump\t// in\n    tag_85:\n    tag_84:\n      eq\n        /* \"contract/update.sol\":3707:3779  newStatus == OrderStatus.Confirmed || newStatus == OrderStatus.Cancelled */\n    tag_81:\n        /* \"contract/update.sol\":3675:3780  current == OrderStatus.Paid && (newStatus == OrderStatus.Confirmed || newStatus == OrderStatus.Cancelled) */\n    tag_76:\n        /* \"contract/update.sol\":3592:3781  (current == OrderStatus.Pending && newStatus == OrderStatus.Paid) ||... */\n    tag_71:\n        /* \"contract/update.sol\":3592:3868  (current == OrderStatus.Pending && newStatus == OrderStatus.Paid) ||... */\n      dup1\n      tag_86\n      jumpi\n      pop\n        /* \"contract/update.sol\":3810:3831  OrderStatus.Confirmed */\n      0x02\n        /* \"contract/update.sol\":3799:3831  current == OrderStatus.Confirmed */\n      0x05\n      dup2\n      gt\n      iszero\n      tag_87\n      jumpi\n      tag_88\n      tag_63\n      jump\t// in\n    tag_88:\n    tag_87:\n        /* \"contract/update.sol\":3799:3806  current */\n      dup4\n        /* \"contract/update.sol\":3799:3831  current == OrderStatus.Confirmed */\n      0x05\n      dup2\n      gt\n      iszero\n      tag_89\n      jumpi\n      tag_90\n      tag_63\n      jump\t// in\n    tag_90:\n    tag_89:\n      eq\n        /* \"contract/update.sol\":3799:3867  current == OrderStatus.Confirmed && newStatus == OrderStatus.Shipped */\n      dup1\n      iszero\n      tag_91\n      jumpi\n      pop\n        /* \"contract/update.sol\":3848:3867  OrderStatus.Shipped */\n      0x03\n        /* \"contract/update.sol\":3835:3867  newStatus == OrderStatus.Shipped */\n      0x05\n      dup2\n      gt\n      iszero\n      tag_92\n      jumpi\n      tag_93\n      tag_63\n      jump\t// in\n    tag_93:\n    tag_92:\n        /* \"contract/update.sol\":3835:3844  newStatus */\n      dup3\n        /* \"contract/update.sol\":3835:3867  newStatus == OrderStatus.Shipped */\n      0x05\n      dup2\n      gt\n      iszero\n      tag_94\n      jumpi\n      tag_95\n      tag_63\n      jump\t// in\n    tag_95:\n    tag_94:\n      eq\n        /* \"contract/update.sol\":3799:3867  current == OrderStatus.Confirmed && newStatus == OrderStatus.Shipped */\n    tag_91:\n        /* \"contract/update.sol\":3592:3868  (current == OrderStatus.Pending && newStatus == OrderStatus.Paid) ||... */\n    tag_86:\n        /* \"contract/update.sol\":3592:3955  (current == OrderStatus.Pending && newStatus == OrderStatus.Paid) ||... */\n      dup1\n      tag_96\n      jumpi\n      pop\n        /* \"contract/update.sol\":3897:3916  OrderStatus.Shipped */\n      0x03\n        /* \"contract/update.sol\":3886:3916  current == OrderStatus.Shipped */\n      0x05\n      dup2\n      gt\n      iszero\n      tag_97\n      jumpi\n      tag_98\n      tag_63\n      jump\t// in\n    tag_98:\n    tag_97:\n        /* \"contract/update.sol\":3886:3893  current */\n      dup4\n        /* \"contract/update.sol\":3886:3916  current == OrderStatus.Shipped */\n      0x05\n      dup2\n      gt\n      iszero\n      tag_99\n      jumpi\n      tag_100\n      tag_63\n      jump\t// in\n    tag_100:\n    tag_99:\n      eq\n        /* \"contract/update.sol\":3886:3954  current == OrderStatus.Shipped && newStatus == OrderStatus.Delivered */\n      dup1\n      iszero\n      tag_101\n      jumpi\n      pop\n        /* \"contract/update.sol\":3933:3954  OrderStatus.Delivered */\n      0x04\n        /* \"contract/update.sol\":3920:3954  newStatus == OrderStatus.Delivered */\n      0x05\n      dup2\n      gt\n      iszero\n      tag_102\n      jumpi\n      tag_103\n      tag_63\n      jump\t// in\n    tag_103:\n    tag_102:\n        /* \"contract/update.sol\":3920:3929  newStatus */\n      dup3\n        /* \"contract/update.sol\":3920:3954  newStatus == OrderStatus.Delivered */\n      0x05\n      dup2\n      gt\n      iszero\n      tag_104\n      jumpi\n      tag_105\n      tag_63\n      jump\t// in\n    tag_105:\n    tag_104:\n      eq\n        /* \"contract/update.sol\":3886:3954  current == OrderStatus.Shipped && newStatus == OrderStatus.Delivered */\n    tag_101:\n        /* \"contract/update.sol\":3592:3955  (current == OrderStatus.Pending && newStatus == OrderStatus.Paid) ||... */\n    tag_96:\n        /* \"contract/update.sol\":3592:4042  (current == OrderStatus.Pending && newStatus == OrderStatus.Paid) ||... */\n      dup1\n      tag_106\n      jumpi\n      pop\n        /* \"contract/update.sol\":3984:4003  OrderStatus.Pending */\n      0x00\n        /* \"contract/update.sol\":3973:4003  current == OrderStatus.Pending */\n      0x05\n      dup2\n      gt\n      iszero\n      tag_107\n      jumpi\n      tag_108\n      tag_63\n      jump\t// in\n    tag_108:\n    tag_107:\n        /* \"contract/update.sol\":3973:3980  current */\n      dup4\n        /* \"contract/update.sol\":3973:4003  current == OrderStatus.Pending */\n      0x05\n      dup2\n      gt\n      iszero\n      tag_109\n      jumpi\n      tag_110\n      tag_63\n      jump\t// in\n    tag_110:\n    tag_109:\n      eq\n        /* \"contract/update.sol\":3973:4041  current == OrderStatus.Pending && newStatus == OrderStatus.Cancelled */\n      dup1\n      iszero\n      tag_111\n      jumpi\n      pop\n        /* \"contract/update.sol\":4020:4041  OrderStatus.Cancelled */\n      0x05\n        /* \"contract/update.sol\":4007:4041  newStatus == OrderStatus.Cancelled */\n      dup1\n      dup2\n      gt\n      iszero\n      tag_112\n      jumpi\n      tag_113\n      tag_63\n      jump\t// in\n    tag_113:\n    tag_112:\n        /* \"contract/update.sol\":4007:4016  newStatus */\n      dup3\n        /* \"contract/update.sol\":4007:4041  newStatus == OrderStatus.Cancelled */\n      0x05\n      dup2\n      gt\n      iszero\n      tag_114\n      jumpi\n      tag_115\n      tag_63\n      jump\t// in\n    tag_115:\n    tag_114:\n      eq\n        /* \"contract/update.sol\":3973:4041  current == OrderStatus.Pending && newStatus == OrderStatus.Cancelled */\n    tag_111:\n        /* \"contract/update.sol\":3592:4042  (current == OrderStatus.Pending && newStatus == OrderStatus.Paid) ||... */\n    tag_106:\n        /* \"contract/update.sol\":3572:4042  return... */\n      swap1\n      pop\n        /* \"contract/update.sol\":3463:4050  function isValidTransition(OrderStatus current, OrderStatus newStatus) public pure returns (bool) {... */\n      swap3\n      swap2\n      pop\n      pop\n      jump\t// out\n        /* \"contract/update.sol\":910:935  Product[] public products */\n    tag_27:\n      0x00\n      dup2\n      dup2\n      sload\n      dup2\n      lt\n      tag_116\n      jumpi\n      0x00\n      dup1\n      revert\n    tag_116:\n      swap1\n      0x00\n      mstore\n      keccak256(0x00, 0x20)\n      swap1\n      0x04\n      mul\n      add\n      0x00\n      swap2\n      pop\n      swap1\n      pop\n      dup1\n      0x00\n      add\n      sload\n      swap1\n      dup1\n      0x01\n      add\n      dup1\n      sload\n      tag_118\n      swap1\n      tag_119\n      jump\t// in\n    tag_118:\n      dup1\n      0x1f\n      add\n      0x20\n      dup1\n      swap2\n      div\n      mul\n      0x20\n      add\n      mload(0x40)\n      swap1\n      dup2\n      add\n      0x40\n      mstore\n      dup1\n      swap3\n      swap2\n      swap1\n      dup2\n      dup2\n      mstore\n      0x20\n      add\n      dup3\n      dup1\n      sload\n      tag_120\n      swap1\n      tag_119\n      jump\t// in\n    tag_120:\n      dup1\n      iszero\n      tag_121\n      jumpi\n      dup1\n      0x1f\n      lt\n      tag_122\n      jumpi\n      0x0100\n      dup1\n      dup4\n      sload\n      div\n      mul\n      dup4\n      mstore\n      swap2\n      0x20\n      add\n      swap2\n      jump(tag_121)\n    tag_122:\n      dup3\n      add\n      swap2\n      swap1\n      0x00\n      mstore\n      keccak256(0x00, 0x20)\n      swap1\n    tag_123:\n      dup2\n      sload\n      dup2\n      mstore\n      swap1\n      0x01\n      add\n      swap1\n      0x20\n      add\n      dup1\n      dup4\n      gt\n      tag_123\n      jumpi\n      dup3\n      swap1\n      sub\n      0x1f\n      and\n      dup3\n      add\n      swap2\n    tag_121:\n      pop\n      pop\n      pop\n      pop\n      pop\n      swap1\n      dup1\n      0x02\n      add\n      sload\n      swap1\n      dup1\n      0x03\n      add\n      0x00\n      swap1\n      sload\n      swap1\n      0x0100\n      exp\n      swap1\n      div\n      0xffffffffffffffffffffffffffffffffffffffff\n      and\n      swap1\n      dup1\n      0x03\n      add\n      0x14\n      swap1\n      sload\n      swap1\n      0x0100\n      exp\n      swap1\n      div\n      0xff\n      and\n      swap1\n      pop\n      dup6\n      jump\t// out\n        /* \"contract/update.sol\":942:988  mapping(uint256 => Product) public productById */\n    tag_33:\n      mstore(0x20, 0x01)\n      dup1\n      0x00\n      mstore\n      keccak256(0x00, 0x40)\n      0x00\n      swap2\n      pop\n      swap1\n      pop\n      dup1\n      0x00\n      add\n      sload\n      swap1\n      dup1\n      0x01\n      add\n      dup1\n      sload\n      tag_124\n      swap1\n      tag_119\n      jump\t// in\n    tag_124:\n      dup1\n      0x1f\n      add\n      0x20\n      dup1\n      swap2\n      div\n      mul\n      0x20\n      add\n      mload(0x40)\n      swap1\n      dup2\n      add\n      0x40\n      mstore\n      dup1\n      swap3\n      swap2\n      swap1\n      dup2\n      dup2\n      mstore\n      0x20\n      add\n      dup3\n      dup1\n      sload\n      tag_125\n      swap1\n      tag_119\n      jump\t// in\n    tag_125:\n      dup1\n      iszero\n      tag_126\n      jumpi\n      dup1\n      0x1f\n      lt\n      tag_127\n      jumpi\n      0x0100\n      dup1\n      dup4\n      sload\n      div\n      mul\n      dup4\n      mstore\n      swap2\n      0x20\n      add\n      swap2\n      jump(tag_126)\n    tag_127:\n      dup3\n      add\n      swap2\n      swap1\n      0x00\n      mstore\n      keccak256(0x00, 0x20)\n      swap1\n    tag_128:\n      dup2\n      sload\n      dup2\n      mstore\n      swap1\n      0x01\n      add\n      swap1\n      0x20\n      add\n      dup1\n      dup4\n      gt\n      tag_128\n      jumpi\n      dup3\n      swap1\n      sub\n      0x1f\n      and\n      dup3\n      add\n      swap2\n    tag_126:\n      pop\n      pop\n      pop\n      pop\n      pop\n      swap1\n      dup1\n      0x02\n      add\n      sload\n      swap1\n      dup1\n      0x03\n      add\n      0x00\n      swap1\n      sload\n      swap1\n      0x0100\n      exp\n      swap1\n      div\n      0xffffffffffffffffffffffffffffffffffffffff\n      and\n      swap1\n      dup1\n      0x03\n      add\n      0x14\n      swap1\n      sload\n      swap1\n      0x0100\n      exp\n      swap1\n      div\n      0xff\n      and\n      swap1\n      pop\n      dup6\n      jump\t// out\n        /* \"contract/update.sol\":995:1034  mapping(uint256 => Order) public orders */\n    tag_38:\n      mstore(0x20, 0x02)\n      dup1\n      0x00\n      mstore\n      keccak256(0x00, 0x40)\n      0x00\n      swap2\n      pop\n      swap1\n      pop\n      dup1\n      0x00\n      add\n      sload\n      swap1\n      dup1\n      0x01\n      add\n      0x00\n      swap1\n      sload\n      swap1\n      0x0100\n      exp\n      swap1\n      div\n      0xffffffffffffffffffffffffffffffffffffffff\n      and\n      swap1\n      dup1\n      0x02\n      add\n      sload\n      swap1\n      dup1\n      0x03\n      add\n      0x00\n      swap1\n      sload\n      swap1\n      0x0100\n      exp\n      swap1\n      div\n      0xff\n      and\n      swap1\n      dup1\n      0x04\n      add\n      sload\n      swap1\n      pop\n      dup6\n      jump\t// out\n        /* \"contract/update.sol\":2542:3419  function updateOrderStatus(uint256 orderId, OrderStatus newStatus) external {... */\n    tag_45:\n        /* \"contract/update.sol\":2629:2648  Order storage order */\n      0x00\n        /* \"contract/update.sol\":2651:2657  orders */\n      0x02\n        /* \"contract/update.sol\":2651:2666  orders[orderId] */\n      0x00\n        /* \"contract/update.sol\":2658:2665  orderId */\n      dup5\n        /* \"contract/update.sol\":2651:2666  orders[orderId] */\n      dup2\n      mstore\n      0x20\n      add\n      swap1\n      dup2\n      mstore\n      0x20\n      add\n      0x00\n      keccak256\n        /* \"contract/update.sol\":2629:2666  Order storage order = orders[orderId] */\n      swap1\n      pop\n        /* \"contract/update.sol\":2699:2704  order */\n      dup1\n        /* \"contract/update.sol\":2699:2710  order.buyer */\n      0x01\n      add\n      0x00\n      swap1\n      sload\n      swap1\n      0x0100\n      exp\n      swap1\n      div\n      0xffffffffffffffffffffffffffffffffffffffff\n      and\n        /* \"contract/update.sol\":2685:2710  msg.sender == order.buyer */\n      0xffffffffffffffffffffffffffffffffffffffff\n      and\n        /* \"contract/update.sol\":2685:2695  msg.sender */\n      caller\n        /* \"contract/update.sol\":2685:2710  msg.sender == order.buyer */\n      0xffffffffffffffffffffffffffffffffffffffff\n      and\n      eq\n        /* \"contract/update.sol\":2685:2763  msg.sender == order.buyer || msg.sender == productById[order.productId].seller */\n      dup1\n      tag_130\n      jumpi\n      pop\n        /* \"contract/update.sol\":2728:2739  productById */\n      0x01\n        /* \"contract/update.sol\":2728:2756  productById[order.productId] */\n      0x00\n        /* \"contract/update.sol\":2740:2745  order */\n      dup3\n        /* \"contract/update.sol\":2740:2755  order.productId */\n      0x02\n      add\n      sload\n        /* \"contract/update.sol\":2728:2756  productById[order.productId] */\n      dup2\n      mstore\n      0x20\n      add\n      swap1\n      dup2\n      mstore\n      0x20\n      add\n      0x00\n      keccak256\n        /* \"contract/update.sol\":2728:2763  productById[order.productId].seller */\n      0x03\n      add\n      0x00\n      swap1\n      sload\n      swap1\n      0x0100\n      exp\n      swap1\n      div\n      0xffffffffffffffffffffffffffffffffffffffff\n      and\n        /* \"contract/update.sol\":2714:2763  msg.sender == productById[order.productId].seller */\n      0xffffffffffffffffffffffffffffffffffffffff\n      and\n        /* \"contract/update.sol\":2714:2724  msg.sender */\n      caller\n        /* \"contract/update.sol\":2714:2763  msg.sender == productById[order.productId].seller */\n      0xffffffffffffffffffffffffffffffffffffffff\n      and\n      eq\n        /* \"contract/update.sol\":2685:2763  msg.sender == order.buyer || msg.sender == productById[order.productId].seller */\n    tag_130:\n        /* \"contract/update.sol\":2677:2780  require(msg.sender == order.buyer || msg.sender == productById[order.productId].seller, \"Unauthorized\") */\n      tag_131\n      jumpi\n      mload(0x40)\n      0x08c379a000000000000000000000000000000000000000000000000000000000\n      dup2\n      mstore\n      0x04\n      add\n      tag_132\n      swap1\n      tag_133\n      jump\t// in\n    tag_132:\n      mload(0x40)\n      dup1\n      swap2\n      sub\n      swap1\n      revert\n    tag_131:\n        /* \"contract/update.sol\":2818:2823  order */\n      dup1\n        /* \"contract/update.sol\":2818:2832  order.deadline */\n      0x04\n      add\n      sload\n        /* \"contract/update.sol\":2799:2814  block.timestamp */\n      timestamp\n        /* \"contract/update.sol\":2799:2832  block.timestamp <= order.deadline */\n      gt\n      iszero\n        /* \"contract/update.sol\":2791:2850  require(block.timestamp <= order.deadline, \"Order expired\") */\n      tag_134\n      jumpi\n      mload(0x40)\n      0x08c379a000000000000000000000000000000000000000000000000000000000\n      dup2\n      mstore\n      0x04\n      add\n      tag_135\n      swap1\n      tag_136\n      jump\t// in\n    tag_135:\n      mload(0x40)\n      dup1\n      swap2\n      sub\n      swap1\n      revert\n    tag_134:\n        /* \"contract/update.sol\":2869:2911  isValidTransition(order.status, newStatus) */\n      tag_137\n        /* \"contract/update.sol\":2887:2892  order */\n      dup2\n        /* \"contract/update.sol\":2887:2899  order.status */\n      0x03\n      add\n      0x00\n      swap1\n      sload\n      swap1\n      0x0100\n      exp\n      swap1\n      div\n      0xff\n      and\n        /* \"contract/update.sol\":2901:2910  newStatus */\n      dup4\n        /* \"contract/update.sol\":2869:2886  isValidTransition */\n      tag_20\n        /* \"contract/update.sol\":2869:2911  isValidTransition(order.status, newStatus) */\n      jump\t// in\n    tag_137:\n        /* \"contract/update.sol\":2861:2941  require(isValidTransition(order.status, newStatus), \"Invalid status transition\") */\n      tag_138\n      jumpi\n      mload(0x40)\n      0x08c379a000000000000000000000000000000000000000000000000000000000\n      dup2\n      mstore\n      0x04\n      add\n      tag_139\n      swap1\n      tag_140\n      jump\t// in\n    tag_139:\n      mload(0x40)\n      dup1\n      swap2\n      sub\n      swap1\n      revert\n    tag_138:\n        /* \"contract/update.sol\":2971:2992  OrderStatus.Cancelled */\n      0x05\n        /* \"contract/update.sol\":2958:2992  newStatus == OrderStatus.Cancelled */\n      dup1\n      dup2\n      gt\n      iszero\n      tag_141\n      jumpi\n      tag_142\n      tag_63\n      jump\t// in\n    tag_142:\n    tag_141:\n        /* \"contract/update.sol\":2958:2967  newStatus */\n      dup3\n        /* \"contract/update.sol\":2958:2992  newStatus == OrderStatus.Cancelled */\n      0x05\n      dup2\n      gt\n      iszero\n      tag_143\n      jumpi\n      tag_144\n      tag_63\n      jump\t// in\n    tag_144:\n    tag_143:\n      sub\n        /* \"contract/update.sol\":2954:3321  if (newStatus == OrderStatus.Cancelled) {... */\n      tag_145\n      jumpi\n        /* \"contract/update.sol\":3042:3062  uint256 refundAmount */\n      0x00\n        /* \"contract/update.sol\":3065:3078  orderPayments */\n      0x03\n        /* \"contract/update.sol\":3065:3087  orderPayments[orderId] */\n      0x00\n        /* \"contract/update.sol\":3079:3086  orderId */\n      dup6\n        /* \"contract/update.sol\":3065:3087  orderPayments[orderId] */\n      dup2\n      mstore\n      0x20\n      add\n      swap1\n      dup2\n      mstore\n      0x20\n      add\n      0x00\n      keccak256\n      sload\n        /* \"contract/update.sol\":3042:3087  uint256 refundAmount = orderPayments[orderId] */\n      swap1\n      pop\n        /* \"contract/update.sol\":3110:3115  order */\n      dup2\n        /* \"contract/update.sol\":3110:3121  order.buyer */\n      0x01\n      add\n      0x00\n      swap1\n      sload\n      swap1\n      0x0100\n      exp\n      swap1\n      div\n      0xffffffffffffffffffffffffffffffffffffffff\n      and\n        /* \"contract/update.sol\":3102:3131  payable(order.buyer).transfer */\n      0xffffffffffffffffffffffffffffffffffffffff\n      and\n        /* \"contract/update.sol\":3102:3145  payable(order.buyer).transfer(refundAmount) */\n      0x08fc\n        /* \"contract/update.sol\":3132:3144  refundAmount */\n      dup3\n        /* \"contract/update.sol\":3102:3145  payable(order.buyer).transfer(refundAmount) */\n      swap1\n      dup2\n      iszero\n      mul\n      swap1\n      mload(0x40)\n      0x00\n      mload(0x40)\n      dup1\n      dup4\n      sub\n      dup2\n      dup6\n      dup9\n      dup9\n      call\n      swap4\n      pop\n      pop\n      pop\n      pop\n      iszero\n      dup1\n      iszero\n      tag_147\n      jumpi\n      returndatacopy(0x00, 0x00, returndatasize)\n      revert(0x00, returndatasize)\n    tag_147:\n      pop\n        /* \"contract/update.sol\":3203:3207  true */\n      0x01\n        /* \"contract/update.sol\":3160:3171  productById */\n      dup1\n        /* \"contract/update.sol\":3160:3188  productById[order.productId] */\n      0x00\n        /* \"contract/update.sol\":3172:3177  order */\n      dup5\n        /* \"contract/update.sol\":3172:3187  order.productId */\n      0x02\n      add\n      sload\n        /* \"contract/update.sol\":3160:3188  productById[order.productId] */\n      dup2\n      mstore\n      0x20\n      add\n      swap1\n      dup2\n      mstore\n      0x20\n      add\n      0x00\n      keccak256\n        /* \"contract/update.sol\":3160:3200  productById[order.productId].isAvailable */\n      0x03\n      add\n      0x14\n        /* \"contract/update.sol\":3160:3207  productById[order.productId].isAvailable = true */\n      0x0100\n      exp\n      dup2\n      sload\n      dup2\n      0xff\n      mul\n      not\n      and\n      swap1\n      dup4\n      iszero\n      iszero\n      mul\n      or\n      swap1\n      sstore\n      pop\n        /* \"contract/update.sol\":3283:3288  order */\n      dup2\n        /* \"contract/update.sol\":3283:3294  order.buyer */\n      0x01\n      add\n      0x00\n      swap1\n      sload\n      swap1\n      0x0100\n      exp\n      swap1\n      div\n      0xffffffffffffffffffffffffffffffffffffffff\n      and\n        /* \"contract/update.sol\":3259:3309  OrderCancelled(orderId, order.buyer, refundAmount) */\n      0xffffffffffffffffffffffffffffffffffffffff\n      and\n        /* \"contract/update.sol\":3274:3281  orderId */\n      dup5\n        /* \"contract/update.sol\":3259:3309  OrderCancelled(orderId, order.buyer, refundAmount) */\n      0xc4058ebc534b64ecb27b2d4eaa1904f98997ec18ebe6ada4117593dde89478cc\n        /* \"contract/update.sol\":3296:3308  refundAmount */\n      dup4\n        /* \"contract/update.sol\":3259:3309  OrderCancelled(orderId, order.buyer, refundAmount) */\n      mload(0x40)\n      tag_148\n      swap2\n      swap1\n      tag_149\n      jump\t// in\n    tag_148:\n      mload(0x40)\n      dup1\n      swap2\n      sub\n      swap1\n      log3\n        /* \"contract/update.sol\":2994:3321  {... */\n      pop\n        /* \"contract/update.sol\":2954:3321  if (newStatus == OrderStatus.Cancelled) {... */\n    tag_145:\n        /* \"contract/update.sol\":3348:3357  newStatus */\n      dup2\n        /* \"contract/update.sol\":3333:3338  order */\n      dup2\n        /* \"contract/update.sol\":3333:3345  order.status */\n      0x03\n      add\n      0x00\n        /* \"contract/update.sol\":3333:3357  order.status = newStatus */\n      0x0100\n      exp\n      dup2\n      sload\n      dup2\n      0xff\n      mul\n      not\n      and\n      swap1\n      dup4\n      0x05\n      dup2\n      gt\n      iszero\n      tag_150\n      jumpi\n      tag_151\n      tag_63\n      jump\t// in\n    tag_151:\n    tag_150:\n      mul\n      or\n      swap1\n      sstore\n      pop\n        /* \"contract/update.sol\":3392:3399  orderId */\n      dup3\n        /* \"contract/update.sol\":3373:3411  OrderStatusUpdated(orderId, newStatus) */\n      0xd9a86b644eb5f5b43cc8a700849852481080361c7a4b00ba646d1b46c5585f95\n        /* \"contract/update.sol\":3401:3410  newStatus */\n      dup4\n        /* \"contract/update.sol\":3373:3411  OrderStatusUpdated(orderId, newStatus) */\n      mload(0x40)\n      tag_152\n      swap2\n      swap1\n      tag_153\n      jump\t// in\n    tag_152:\n      mload(0x40)\n      dup1\n      swap2\n      sub\n      swap1\n      log2\n        /* \"contract/update.sol\":2618:3419  {... */\n      pop\n        /* \"contract/update.sol\":2542:3419  function updateOrderStatus(uint256 orderId, OrderStatus newStatus) external {... */\n      pop\n      pop\n      jump\t// out\n        /* \"contract/update.sol\":1201:1629  function addProduct(string memory name, uint256 price) external {... */\n    tag_50:\n        /* \"contract/update.sol\":1276:1293  uint256 productId */\n      0x00\n        /* \"contract/update.sol\":1296:1304  products */\n      0x00\n        /* \"contract/update.sol\":1296:1311  products.length */\n      dup1\n      sload\n      swap1\n      pop\n        /* \"contract/update.sol\":1276:1311  uint256 productId = products.length */\n      swap1\n      pop\n        /* \"contract/update.sol\":1322:1330  products */\n      0x00\n        /* \"contract/update.sol\":1336:1501  Product({... */\n      mload(0x40)\n      dup1\n      0xa0\n      add\n      0x40\n      mstore\n      dup1\n        /* \"contract/update.sol\":1363:1372  productId */\n      dup4\n        /* \"contract/update.sol\":1336:1501  Product({... */\n      dup2\n      mstore\n      0x20\n      add\n        /* \"contract/update.sol\":1393:1397  name */\n      dup6\n        /* \"contract/update.sol\":1336:1501  Product({... */\n      dup2\n      mstore\n      0x20\n      add\n        /* \"contract/update.sol\":1419:1424  price */\n      dup5\n        /* \"contract/update.sol\":1336:1501  Product({... */\n      dup2\n      mstore\n      0x20\n      add\n        /* \"contract/update.sol\":1447:1457  msg.sender */\n      caller\n        /* \"contract/update.sol\":1336:1501  Product({... */\n      0xffffffffffffffffffffffffffffffffffffffff\n      and\n      dup2\n      mstore\n      0x20\n      add\n        /* \"contract/update.sol\":1485:1489  true */\n      0x01\n        /* \"contract/update.sol\":1336:1501  Product({... */\n      iszero\n      iszero\n      dup2\n      mstore\n      pop\n        /* \"contract/update.sol\":1322:1502  products.push(Product({... */\n      swap1\n      dup1\n      0x01\n      dup2\n      sload\n      add\n      dup1\n      dup3\n      sstore\n      dup1\n      swap2\n      pop\n      pop\n      0x01\n      swap1\n      sub\n      swap1\n      0x00\n      mstore\n      keccak256(0x00, 0x20)\n      swap1\n      0x04\n      mul\n      add\n      0x00\n      swap1\n      swap2\n      swap1\n      swap2\n      swap1\n      swap2\n      pop\n      0x00\n      dup3\n      add\n      mload\n      dup2\n      0x00\n      add\n      sstore\n      0x20\n      dup3\n      add\n      mload\n      dup2\n      0x01\n      add\n      swap1\n      dup2\n      tag_156\n      swap2\n      swap1\n      tag_59\n      jump\t// in\n    tag_156:\n      pop\n      0x40\n      dup3\n      add\n      mload\n      dup2\n      0x02\n      add\n      sstore\n      0x60\n      dup3\n      add\n      mload\n      dup2\n      0x03\n      add\n      exp(0x0100, 0x00)\n      dup2\n      sload\n      dup2\n      0xffffffffffffffffffffffffffffffffffffffff\n      mul\n      not\n      and\n      swap1\n      dup4\n      0xffffffffffffffffffffffffffffffffffffffff\n      and\n      mul\n      or\n      swap1\n      sstore\n      pop\n      0x80\n      dup3\n      add\n      mload\n      dup2\n      0x03\n      add\n      exp(0x0100, 0x14)\n      dup2\n      sload\n      dup2\n      0xff\n      mul\n      not\n      and\n      swap1\n      dup4\n      iszero\n      iszero\n      mul\n      or\n      swap1\n      sstore\n      pop\n      pop\n      pop\n        /* \"contract/update.sol\":1538:1546  products */\n      0x00\n        /* \"contract/update.sol\":1547:1556  productId */\n      dup2\n        /* \"contract/update.sol\":1538:1557  products[productId] */\n      dup2\n      sload\n      dup2\n      lt\n      tag_157\n      jumpi\n      tag_158\n      tag_159\n      jump\t// in\n    tag_158:\n    tag_157:\n      swap1\n      0x00\n      mstore\n      keccak256(0x00, 0x20)\n      swap1\n      0x04\n      mul\n      add\n        /* \"contract/update.sol\":1513:1524  productById */\n      0x01\n        /* \"contract/update.sol\":1513:1535  productById[productId] */\n      0x00\n        /* \"contract/update.sol\":1525:1534  productId */\n      dup4\n        /* \"contract/update.sol\":1513:1535  productById[productId] */\n      dup2\n      mstore\n      0x20\n      add\n      swap1\n      dup2\n      mstore\n      0x20\n      add\n      0x00\n      keccak256\n        /* \"contract/update.sol\":1513:1557  productById[productId] = products[productId] */\n      0x00\n      dup3\n      add\n      sload\n      dup2\n      0x00\n      add\n      sstore\n      0x01\n      dup3\n      add\n      dup2\n      0x01\n      add\n      swap1\n      dup2\n      tag_161\n      swap2\n      swap1\n      tag_162\n      jump\t// in\n    tag_161:\n      pop\n      0x02\n      dup3\n      add\n      sload\n      dup2\n      0x02\n      add\n      sstore\n      0x03\n      dup3\n      add\n      0x00\n      swap1\n      sload\n      swap1\n      0x0100\n      exp\n      swap1\n      div\n      0xffffffffffffffffffffffffffffffffffffffff\n      and\n      dup2\n      0x03\n      add\n      exp(0x0100, 0x00)\n      dup2\n      sload\n      dup2\n      0xffffffffffffffffffffffffffffffffffffffff\n      mul\n      not\n      and\n      swap1\n      dup4\n      0xffffffffffffffffffffffffffffffffffffffff\n      and\n      mul\n      or\n      swap1\n      sstore\n      pop\n      0x03\n      dup3\n      add\n      0x14\n      swap1\n      sload\n      swap1\n      0x0100\n      exp\n      swap1\n      div\n      0xff\n      and\n      dup2\n      0x03\n      add\n      exp(0x0100, 0x14)\n      dup2\n      sload\n      dup2\n      0xff\n      mul\n      not\n      and\n      swap1\n      dup4\n      iszero\n      iszero\n      mul\n      or\n      swap1\n      sstore\n      pop\n      swap1\n      pop\n      pop\n        /* \"contract/update.sol\":1586:1595  productId */\n      dup1\n        /* \"contract/update.sol\":1573:1621  ProductAdded(productId, name, price, msg.sender) */\n      0x52402cafb2ecec722b103e8f203f83362148c168659dc96678c2c6850d12dd9f\n        /* \"contract/update.sol\":1597:1601  name */\n      dup5\n        /* \"contract/update.sol\":1603:1608  price */\n      dup5\n        /* \"contract/update.sol\":1610:1620  msg.sender */\n      caller\n        /* \"contract/update.sol\":1573:1621  ProductAdded(productId, name, price, msg.sender) */\n      mload(0x40)\n      tag_163\n      swap4\n      swap3\n      swap2\n      swap1\n      tag_164\n      jump\t// in\n    tag_163:\n      mload(0x40)\n      dup1\n      swap2\n      sub\n      swap1\n      log2\n        /* \"contract/update.sol\":1265:1629  {... */\n      pop\n        /* \"contract/update.sol\":1201:1629  function addProduct(string memory name, uint256 price) external {... */\n      pop\n      pop\n      jump\t// out\n        /* \"contract/update.sol\":1674:2490  function createOrder(uint256 productId) external payable {... */\n    tag_53:\n        /* \"contract/update.sol\":1750:1761  productById */\n      0x01\n        /* \"contract/update.sol\":1750:1772  productById[productId] */\n      0x00\n        /* \"contract/update.sol\":1762:1771  productId */\n      dup3\n        /* \"contract/update.sol\":1750:1772  productById[productId] */\n      dup2\n      mstore\n      0x20\n      add\n      swap1\n      dup2\n      mstore\n      0x20\n      add\n      0x00\n      keccak256\n        /* \"contract/update.sol\":1750:1784  productById[productId].isAvailable */\n      0x03\n      add\n      0x14\n      swap1\n      sload\n      swap1\n      0x0100\n      exp\n      swap1\n      div\n      0xff\n      and\n        /* \"contract/update.sol\":1742:1810  require(productById[productId].isAvailable, \"Product not available\") */\n      tag_166\n      jumpi\n      mload(0x40)\n      0x08c379a000000000000000000000000000000000000000000000000000000000\n      dup2\n      mstore\n      0x04\n      add\n      tag_167\n      swap1\n      tag_168\n      jump\t// in\n    tag_167:\n      mload(0x40)\n      dup1\n      swap2\n      sub\n      swap1\n      revert\n    tag_166:\n        /* \"contract/update.sol\":1842:1853  productById */\n      0x01\n        /* \"contract/update.sol\":1842:1864  productById[productId] */\n      0x00\n        /* \"contract/update.sol\":1854:1863  productId */\n      dup3\n        /* \"contract/update.sol\":1842:1864  productById[productId] */\n      dup2\n      mstore\n      0x20\n      add\n      swap1\n      dup2\n      mstore\n      0x20\n      add\n      0x00\n      keccak256\n        /* \"contract/update.sol\":1842:1870  productById[productId].price */\n      0x02\n      add\n      sload\n        /* \"contract/update.sol\":1829:1838  msg.value */\n      callvalue\n        /* \"contract/update.sol\":1829:1870  msg.value == productById[productId].price */\n      eq\n        /* \"contract/update.sol\":1821:1899  require(msg.value == productById[productId].price, \"Incorrect payment amount\") */\n      tag_169\n      jumpi\n      mload(0x40)\n      0x08c379a000000000000000000000000000000000000000000000000000000000\n      dup2\n      mstore\n      0x04\n      add\n      tag_170\n      swap1\n      tag_171\n      jump\t// in\n    tag_170:\n      mload(0x40)\n      dup1\n      swap2\n      sub\n      swap1\n      revert\n    tag_169:\n        /* \"contract/update.sol\":1912:1927  uint256 orderId */\n      0x00\n        /* \"contract/update.sol\":1959:1969  msg.sender */\n      caller\n        /* \"contract/update.sol\":1971:1980  productId */\n      dup3\n        /* \"contract/update.sol\":1982:1997  block.timestamp */\n      timestamp\n        /* \"contract/update.sol\":1999:2009  orderNonce */\n      0x04\n      0x00\n        /* \"contract/update.sol\":1999:2011  orderNonce++ */\n      dup2\n      sload\n      dup1\n      swap3\n      swap2\n      swap1\n      tag_172\n      swap1\n      tag_173\n      jump\t// in\n    tag_172:\n      swap2\n      swap1\n      pop\n      sstore\n        /* \"contract/update.sol\":1948:2012  abi.encode(msg.sender, productId, block.timestamp, orderNonce++) */\n      add(0x20, mload(0x40))\n      tag_174\n      swap5\n      swap4\n      swap3\n      swap2\n      swap1\n      tag_175\n      jump\t// in\n    tag_174:\n      mload(0x40)\n      0x20\n      dup2\n      dup4\n      sub\n      sub\n      dup2\n      mstore\n      swap1\n      0x40\n      mstore\n        /* \"contract/update.sol\":1938:2013  keccak256(abi.encode(msg.sender, productId, block.timestamp, orderNonce++)) */\n      dup1\n      mload\n      swap1\n      0x20\n      add\n      keccak256\n        /* \"contract/update.sol\":1930:2014  uint256(keccak256(abi.encode(msg.sender, productId, block.timestamp, orderNonce++))) */\n      0x00\n      shr\n        /* \"contract/update.sol\":1912:2014  uint256 orderId = uint256(keccak256(abi.encode(msg.sender, productId, block.timestamp, orderNonce++))) */\n      swap1\n      pop\n        /* \"contract/update.sol\":2045:2287  Order({... */\n      mload(0x40)\n      dup1\n      0xa0\n      add\n      0x40\n      mstore\n      dup1\n        /* \"contract/update.sol\":2070:2077  orderId */\n      dup3\n        /* \"contract/update.sol\":2045:2287  Order({... */\n      dup2\n      mstore\n      0x20\n      add\n        /* \"contract/update.sol\":2099:2109  msg.sender */\n      caller\n        /* \"contract/update.sol\":2045:2287  Order({... */\n      0xffffffffffffffffffffffffffffffffffffffff\n      and\n      dup2\n      mstore\n      0x20\n      add\n        /* \"contract/update.sol\":2135:2144  productId */\n      dup4\n        /* \"contract/update.sol\":2045:2287  Order({... */\n      dup2\n      mstore\n      0x20\n      add\n        /* \"contract/update.sol\":2167:2183  OrderStatus.Paid */\n      0x01\n        /* \"contract/update.sol\":2045:2287  Order({... */\n      0x05\n      dup2\n      gt\n      iszero\n      tag_176\n      jumpi\n      tag_177\n      tag_63\n      jump\t// in\n    tag_177:\n    tag_176:\n      dup2\n      mstore\n      0x20\n      add\n        /* \"contract/update.sol\":2268:2275  1 hours */\n      0x0e10\n        /* \"contract/update.sol\":2250:2265  block.timestamp */\n      timestamp\n        /* \"contract/update.sol\":2250:2275  block.timestamp + 1 hours */\n      tag_178\n      swap2\n      swap1\n      tag_179\n      jump\t// in\n    tag_178:\n        /* \"contract/update.sol\":2045:2287  Order({... */\n      dup2\n      mstore\n      pop\n        /* \"contract/update.sol\":2027:2033  orders */\n      0x02\n        /* \"contract/update.sol\":2027:2042  orders[orderId] */\n      0x00\n        /* \"contract/update.sol\":2034:2041  orderId */\n      dup4\n        /* \"contract/update.sol\":2027:2042  orders[orderId] */\n      dup2\n      mstore\n      0x20\n      add\n      swap1\n      dup2\n      mstore\n      0x20\n      add\n      0x00\n      keccak256\n        /* \"contract/update.sol\":2027:2287  orders[orderId] = Order({... */\n      0x00\n      dup3\n      add\n      mload\n      dup2\n      0x00\n      add\n      sstore\n      0x20\n      dup3\n      add\n      mload\n      dup2\n      0x01\n      add\n      exp(0x0100, 0x00)\n      dup2\n      sload\n      dup2\n      0xffffffffffffffffffffffffffffffffffffffff\n      mul\n      not\n      and\n      swap1\n      dup4\n      0xffffffffffffffffffffffffffffffffffffffff\n      and\n      mul\n      or\n      swap1\n      sstore\n      pop\n      0x40\n      dup3\n      add\n      mload\n      dup2\n      0x02\n      add\n      sstore\n      0x60\n      dup3\n      add\n      mload\n      dup2\n      0x03\n      add\n      exp(0x0100, 0x00)\n      dup2\n      sload\n      dup2\n      0xff\n      mul\n      not\n      and\n      swap1\n      dup4\n      0x05\n      dup2\n      gt\n      iszero\n      tag_180\n      jumpi\n      tag_181\n      tag_63\n      jump\t// in\n    tag_181:\n    tag_180:\n      mul\n      or\n      swap1\n      sstore\n      pop\n      0x80\n      dup3\n      add\n      mload\n      dup2\n      0x04\n      add\n      sstore\n      swap1\n      pop\n      pop\n        /* \"contract/update.sol\":2325:2334  msg.value */\n      callvalue\n        /* \"contract/update.sol\":2300:2313  orderPayments */\n      0x03\n        /* \"contract/update.sol\":2300:2322  orderPayments[orderId] */\n      0x00\n        /* \"contract/update.sol\":2314:2321  orderId */\n      dup4\n        /* \"contract/update.sol\":2300:2322  orderPayments[orderId] */\n      dup2\n      mstore\n      0x20\n      add\n      swap1\n      dup2\n      mstore\n      0x20\n      add\n      0x00\n      keccak256\n        /* \"contract/update.sol\":2300:2334  orderPayments[orderId] = msg.value */\n      dup2\n      swap1\n      sstore\n      pop\n        /* \"contract/update.sol\":2382:2387  false */\n      0x00\n        /* \"contract/update.sol\":2345:2356  productById */\n      0x01\n        /* \"contract/update.sol\":2345:2367  productById[productId] */\n      0x00\n        /* \"contract/update.sol\":2357:2366  productId */\n      dup5\n        /* \"contract/update.sol\":2345:2367  productById[productId] */\n      dup2\n      mstore\n      0x20\n      add\n      swap1\n      dup2\n      mstore\n      0x20\n      add\n      0x00\n      keccak256\n        /* \"contract/update.sol\":2345:2379  productById[productId].isAvailable */\n      0x03\n      add\n      0x14\n        /* \"contract/update.sol\":2345:2387  productById[productId].isAvailable = false */\n      0x0100\n      exp\n      dup2\n      sload\n      dup2\n      0xff\n      mul\n      not\n      and\n      swap1\n      dup4\n      iszero\n      iszero\n      mul\n      or\n      swap1\n      sstore\n      pop\n        /* \"contract/update.sol\":2461:2470  productId */\n      dup2\n        /* \"contract/update.sol\":2449:2459  msg.sender */\n      caller\n        /* \"contract/update.sol\":2427:2482  OrderCreated(orderId, msg.sender, productId, msg.value) */\n      0xffffffffffffffffffffffffffffffffffffffff\n      and\n        /* \"contract/update.sol\":2440:2447  orderId */\n      dup3\n        /* \"contract/update.sol\":2427:2482  OrderCreated(orderId, msg.sender, productId, msg.value) */\n      0xf7c110a6973307f2bc91245c2c06344ada13add2c1741e83ac5c0bb332bc85d5\n        /* \"contract/update.sol\":2472:2481  msg.value */\n      callvalue\n        /* \"contract/update.sol\":2427:2482  OrderCreated(orderId, msg.sender, productId, msg.value) */\n      mload(0x40)\n      tag_182\n      swap2\n      swap1\n      tag_149\n      jump\t// in\n    tag_182:\n      mload(0x40)\n      dup1\n      swap2\n      sub\n      swap1\n      log4\n        /* \"contract/update.sol\":1731:2490  {... */\n      pop\n        /* \"contract/update.sol\":1674:2490  function createOrder(uint256 productId) external payable {... */\n      pop\n      jump\t// out\n        /* \"#utility.yul\":7:82   */\n    tag_183:\n        /* \"#utility.yul\":40:46   */\n      0x00\n        /* \"#utility.yul\":73:75   */\n      0x40\n        /* \"#utility.yul\":67:76   */\n      mload\n        /* \"#utility.yul\":57:76   */\n      swap1\n      pop\n        /* \"#utility.yul\":7:82   */\n      swap1\n      jump\t// out\n        /* \"#utility.yul\":88:205   */\n    tag_184:\n        /* \"#utility.yul\":197:198   */\n      0x00\n        /* \"#utility.yul\":194:195   */\n      0x00\n        /* \"#utility.yul\":187:199   */\n      revert\n        /* \"#utility.yul\":211:328   */\n    tag_185:\n        /* \"#utility.yul\":320:321   */\n      0x00\n        /* \"#utility.yul\":317:318   */\n      0x00\n        /* \"#utility.yul\":310:322   */\n      revert\n        /* \"#utility.yul\":334:411   */\n    tag_186:\n        /* \"#utility.yul\":371:378   */\n      0x00\n        /* \"#utility.yul\":400:405   */\n      dup2\n        /* \"#utility.yul\":389:405   */\n      swap1\n      pop\n        /* \"#utility.yul\":334:411   */\n      swap2\n      swap1\n      pop\n      jump\t// out\n        /* \"#utility.yul\":417:539   */\n    tag_187:\n        /* \"#utility.yul\":490:514   */\n      tag_251\n        /* \"#utility.yul\":508:513   */\n      dup2\n        /* \"#utility.yul\":490:514   */\n      tag_186\n      jump\t// in\n    tag_251:\n        /* \"#utility.yul\":483:488   */\n      dup2\n        /* \"#utility.yul\":480:515   */\n      eq\n        /* \"#utility.yul\":470:533   */\n      tag_252\n      jumpi\n        /* \"#utility.yul\":529:530   */\n      0x00\n        /* \"#utility.yul\":526:527   */\n      0x00\n        /* \"#utility.yul\":519:531   */\n      revert\n        /* \"#utility.yul\":470:533   */\n    tag_252:\n        /* \"#utility.yul\":417:539   */\n      pop\n      jump\t// out\n        /* \"#utility.yul\":545:684   */\n    tag_188:\n        /* \"#utility.yul\":591:596   */\n      0x00\n        /* \"#utility.yul\":629:635   */\n      dup2\n        /* \"#utility.yul\":616:636   */\n      calldataload\n        /* \"#utility.yul\":607:636   */\n      swap1\n      pop\n        /* \"#utility.yul\":645:678   */\n      tag_254\n        /* \"#utility.yul\":672:677   */\n      dup2\n        /* \"#utility.yul\":645:678   */\n      tag_187\n      jump\t// in\n    tag_254:\n        /* \"#utility.yul\":545:684   */\n      swap3\n      swap2\n      pop\n      pop\n      jump\t// out\n        /* \"#utility.yul\":690:807   */\n    tag_189:\n        /* \"#utility.yul\":799:800   */\n      0x00\n        /* \"#utility.yul\":796:797   */\n      0x00\n        /* \"#utility.yul\":789:801   */\n      revert\n        /* \"#utility.yul\":813:930   */\n    tag_190:\n        /* \"#utility.yul\":922:923   */\n      0x00\n        /* \"#utility.yul\":919:920   */\n      0x00\n        /* \"#utility.yul\":912:924   */\n      revert\n        /* \"#utility.yul\":936:1038   */\n    tag_191:\n        /* \"#utility.yul\":977:983   */\n      0x00\n        /* \"#utility.yul\":1028:1030   */\n      0x1f\n        /* \"#utility.yul\":1024:1031   */\n      not\n        /* \"#utility.yul\":1019:1021   */\n      0x1f\n        /* \"#utility.yul\":1012:1017   */\n      dup4\n        /* \"#utility.yul\":1008:1022   */\n      add\n        /* \"#utility.yul\":1004:1032   */\n      and\n        /* \"#utility.yul\":994:1032   */\n      swap1\n      pop\n        /* \"#utility.yul\":936:1038   */\n      swap2\n      swap1\n      pop\n      jump\t// out\n        /* \"#utility.yul\":1044:1224   */\n    tag_192:\n        /* \"#utility.yul\":1092:1169   */\n      0x4e487b7100000000000000000000000000000000000000000000000000000000\n        /* \"#utility.yul\":1089:1090   */\n      0x00\n        /* \"#utility.yul\":1082:1170   */\n      mstore\n        /* \"#utility.yul\":1189:1193   */\n      0x41\n        /* \"#utility.yul\":1186:1187   */\n      0x04\n        /* \"#utility.yul\":1179:1194   */\n      mstore\n        /* \"#utility.yul\":1213:1217   */\n      0x24\n        /* \"#utility.yul\":1210:1211   */\n      0x00\n        /* \"#utility.yul\":1203:1218   */\n      revert\n        /* \"#utility.yul\":1230:1511   */\n    tag_193:\n        /* \"#utility.yul\":1313:1340   */\n      tag_260\n        /* \"#utility.yul\":1335:1339   */\n      dup3\n        /* \"#utility.yul\":1313:1340   */\n      tag_191\n      jump\t// in\n    tag_260:\n        /* \"#utility.yul\":1305:1311   */\n      dup2\n        /* \"#utility.yul\":1301:1341   */\n      add\n        /* \"#utility.yul\":1443:1449   */\n      dup2\n        /* \"#utility.yul\":1431:1441   */\n      dup2\n        /* \"#utility.yul\":1428:1450   */\n      lt\n        /* \"#utility.yul\":1407:1425   */\n      0xffffffffffffffff\n        /* \"#utility.yul\":1395:1405   */\n      dup3\n        /* \"#utility.yul\":1392:1426   */\n      gt\n        /* \"#utility.yul\":1389:1451   */\n      or\n        /* \"#utility.yul\":1386:1474   */\n      iszero\n      tag_261\n      jumpi\n        /* \"#utility.yul\":1454:1472   */\n      tag_262\n      tag_192\n      jump\t// in\n    tag_262:\n        /* \"#utility.yul\":1386:1474   */\n    tag_261:\n        /* \"#utility.yul\":1494:1504   */\n      dup1\n        /* \"#utility.yul\":1490:1492   */\n      0x40\n        /* \"#utility.yul\":1483:1505   */\n      mstore\n        /* \"#utility.yul\":1273:1511   */\n      pop\n        /* \"#utility.yul\":1230:1511   */\n      pop\n      pop\n      jump\t// out\n        /* \"#utility.yul\":1517:1646   */\n    tag_194:\n        /* \"#utility.yul\":1551:1557   */\n      0x00\n        /* \"#utility.yul\":1578:1598   */\n      tag_264\n      tag_183\n      jump\t// in\n    tag_264:\n        /* \"#utility.yul\":1568:1598   */\n      swap1\n      pop\n        /* \"#utility.yul\":1607:1640   */\n      tag_265\n        /* \"#utility.yul\":1635:1639   */\n      dup3\n        /* \"#utility.yul\":1627:1633   */\n      dup3\n        /* \"#utility.yul\":1607:1640   */\n      tag_193\n      jump\t// in\n    tag_265:\n        /* \"#utility.yul\":1517:1646   */\n      swap2\n      swap1\n      pop\n      jump\t// out\n        /* \"#utility.yul\":1652:1960   */\n    tag_195:\n        /* \"#utility.yul\":1714:1718   */\n      0x00\n        /* \"#utility.yul\":1804:1822   */\n      0xffffffffffffffff\n        /* \"#utility.yul\":1796:1802   */\n      dup3\n        /* \"#utility.yul\":1793:1823   */\n      gt\n        /* \"#utility.yul\":1790:1846   */\n      iszero\n      tag_267\n      jumpi\n        /* \"#utility.yul\":1826:1844   */\n      tag_268\n      tag_192\n      jump\t// in\n    tag_268:\n        /* \"#utility.yul\":1790:1846   */\n    tag_267:\n        /* \"#utility.yul\":1864:1893   */\n      tag_269\n        /* \"#utility.yul\":1886:1892   */\n      dup3\n        /* \"#utility.yul\":1864:1893   */\n      tag_191\n      jump\t// in\n    tag_269:\n        /* \"#utility.yul\":1856:1893   */\n      swap1\n      pop\n        /* \"#utility.yul\":1948:1952   */\n      0x20\n        /* \"#utility.yul\":1942:1946   */\n      dup2\n        /* \"#utility.yul\":1938:1953   */\n      add\n        /* \"#utility.yul\":1930:1953   */\n      swap1\n      pop\n        /* \"#utility.yul\":1652:1960   */\n      swap2\n      swap1\n      pop\n      jump\t// out\n        /* \"#utility.yul\":1966:2114   */\n    tag_196:\n        /* \"#utility.yul\":2064:2070   */\n      dup3\n        /* \"#utility.yul\":2059:2062   */\n      dup2\n        /* \"#utility.yul\":2054:2057   */\n      dup4\n        /* \"#utility.yul\":2041:2071   */\n      calldatacopy\n        /* \"#utility.yul\":2105:2106   */\n      0x00\n        /* \"#utility.yul\":2096:2102   */\n      dup4\n        /* \"#utility.yul\":2091:2094   */\n      dup4\n        /* \"#utility.yul\":2087:2103   */\n      add\n        /* \"#utility.yul\":2080:2107   */\n      mstore\n        /* \"#utility.yul\":1966:2114   */\n      pop\n      pop\n      pop\n      jump\t// out\n        /* \"#utility.yul\":2120:2545   */\n    tag_197:\n        /* \"#utility.yul\":2198:2203   */\n      0x00\n        /* \"#utility.yul\":2223:2289   */\n      tag_272\n        /* \"#utility.yul\":2239:2288   */\n      tag_273\n        /* \"#utility.yul\":2281:2287   */\n      dup5\n        /* \"#utility.yul\":2239:2288   */\n      tag_195\n      jump\t// in\n    tag_273:\n        /* \"#utility.yul\":2223:2289   */\n      tag_194\n      jump\t// in\n    tag_272:\n        /* \"#utility.yul\":2214:2289   */\n      swap1\n      pop\n        /* \"#utility.yul\":2312:2318   */\n      dup3\n        /* \"#utility.yul\":2305:2310   */\n      dup2\n        /* \"#utility.yul\":2298:2319   */\n      mstore\n        /* \"#utility.yul\":2350:2354   */\n      0x20\n        /* \"#utility.yul\":2343:2348   */\n      dup2\n        /* \"#utility.yul\":2339:2355   */\n      add\n        /* \"#utility.yul\":2388:2391   */\n      dup5\n        /* \"#utility.yul\":2379:2385   */\n      dup5\n        /* \"#utility.yul\":2374:2377   */\n      dup5\n        /* \"#utility.yul\":2370:2386   */\n      add\n        /* \"#utility.yul\":2367:2392   */\n      gt\n        /* \"#utility.yul\":2364:2476   */\n      iszero\n      tag_274\n      jumpi\n        /* \"#utility.yul\":2395:2474   */\n      tag_275\n      tag_190\n      jump\t// in\n    tag_275:\n        /* \"#utility.yul\":2364:2476   */\n    tag_274:\n        /* \"#utility.yul\":2485:2539   */\n      tag_276\n        /* \"#utility.yul\":2532:2538   */\n      dup5\n        /* \"#utility.yul\":2527:2530   */\n      dup3\n        /* \"#utility.yul\":2522:2525   */\n      dup6\n        /* \"#utility.yul\":2485:2539   */\n      tag_196\n      jump\t// in\n    tag_276:\n        /* \"#utility.yul\":2204:2545   */\n      pop\n        /* \"#utility.yul\":2120:2545   */\n      swap4\n      swap3\n      pop\n      pop\n      pop\n      jump\t// out\n        /* \"#utility.yul\":2565:2905   */\n    tag_198:\n        /* \"#utility.yul\":2621:2626   */\n      0x00\n        /* \"#utility.yul\":2670:2673   */\n      dup3\n        /* \"#utility.yul\":2663:2667   */\n      0x1f\n        /* \"#utility.yul\":2655:2661   */\n      dup4\n        /* \"#utility.yul\":2651:2668   */\n      add\n        /* \"#utility.yul\":2647:2674   */\n      slt\n        /* \"#utility.yul\":2637:2759   */\n      tag_278\n      jumpi\n        /* \"#utility.yul\":2678:2757   */\n      tag_279\n      tag_189\n      jump\t// in\n    tag_279:\n        /* \"#utility.yul\":2637:2759   */\n    tag_278:\n        /* \"#utility.yul\":2795:2801   */\n      dup2\n        /* \"#utility.yul\":2782:2802   */\n      calldataload\n        /* \"#utility.yul\":2820:2899   */\n      tag_280\n        /* \"#utility.yul\":2895:2898   */\n      dup5\n        /* \"#utility.yul\":2887:2893   */\n      dup3\n        /* \"#utility.yul\":2880:2884   */\n      0x20\n        /* \"#utility.yul\":2872:2878   */\n      dup7\n        /* \"#utility.yul\":2868:2885   */\n      add\n        /* \"#utility.yul\":2820:2899   */\n      tag_197\n      jump\t// in\n    tag_280:\n        /* \"#utility.yul\":2811:2899   */\n      swap2\n      pop\n        /* \"#utility.yul\":2627:2905   */\n      pop\n        /* \"#utility.yul\":2565:2905   */\n      swap3\n      swap2\n      pop\n      pop\n      jump\t// out\n        /* \"#utility.yul\":2911:3710   */\n    tag_14:\n        /* \"#utility.yul\":2998:3004   */\n      0x00\n        /* \"#utility.yul\":3006:3012   */\n      0x00\n        /* \"#utility.yul\":3014:3020   */\n      0x00\n        /* \"#utility.yul\":3063:3065   */\n      0x60\n        /* \"#utility.yul\":3051:3060   */\n      dup5\n        /* \"#utility.yul\":3042:3049   */\n      dup7\n        /* \"#utility.yul\":3038:3061   */\n      sub\n        /* \"#utility.yul\":3034:3066   */\n      slt\n        /* \"#utility.yul\":3031:3150   */\n      iszero\n      tag_282\n      jumpi\n        /* \"#utility.yul\":3069:3148   */\n      tag_283\n      tag_184\n      jump\t// in\n    tag_283:\n        /* \"#utility.yul\":3031:3150   */\n    tag_282:\n        /* \"#utility.yul\":3189:3190   */\n      0x00\n        /* \"#utility.yul\":3214:3267   */\n      tag_284\n        /* \"#utility.yul\":3259:3266   */\n      dup7\n        /* \"#utility.yul\":3250:3256   */\n      dup3\n        /* \"#utility.yul\":3239:3248   */\n      dup8\n        /* \"#utility.yul\":3235:3257   */\n      add\n        /* \"#utility.yul\":3214:3267   */\n      tag_188\n      jump\t// in\n    tag_284:\n        /* \"#utility.yul\":3204:3267   */\n      swap4\n      pop\n        /* \"#utility.yul\":3160:3277   */\n      pop\n        /* \"#utility.yul\":3344:3346   */\n      0x20\n        /* \"#utility.yul\":3333:3342   */\n      dup5\n        /* \"#utility.yul\":3329:3347   */\n      add\n        /* \"#utility.yul\":3316:3348   */\n      calldataload\n        /* \"#utility.yul\":3375:3393   */\n      0xffffffffffffffff\n        /* \"#utility.yul\":3367:3373   */\n      dup2\n        /* \"#utility.yul\":3364:3394   */\n      gt\n        /* \"#utility.yul\":3361:3478   */\n      iszero\n      tag_285\n      jumpi\n        /* \"#utility.yul\":3397:3476   */\n      tag_286\n      tag_185\n      jump\t// in\n    tag_286:\n        /* \"#utility.yul\":3361:3478   */\n    tag_285:\n        /* \"#utility.yul\":3502:3565   */\n      tag_287\n        /* \"#utility.yul\":3557:3564   */\n      dup7\n        /* \"#utility.yul\":3548:3554   */\n      dup3\n        /* \"#utility.yul\":3537:3546   */\n      dup8\n        /* \"#utility.yul\":3533:3555   */\n      add\n        /* \"#utility.yul\":3502:3565   */\n      tag_198\n      jump\t// in\n    tag_287:\n        /* \"#utility.yul\":3492:3565   */\n      swap3\n      pop\n        /* \"#utility.yul\":3287:3575   */\n      pop\n        /* \"#utility.yul\":3614:3616   */\n      0x40\n        /* \"#utility.yul\":3640:3693   */\n      tag_288\n        /* \"#utility.yul\":3685:3692   */\n      dup7\n        /* \"#utility.yul\":3676:3682   */\n      dup3\n        /* \"#utility.yul\":3665:3674   */\n      dup8\n        /* \"#utility.yul\":3661:3683   */\n      add\n        /* \"#utility.yul\":3640:3693   */\n      tag_188\n      jump\t// in\n    tag_288:\n        /* \"#utility.yul\":3630:3693   */\n      swap2\n      pop\n        /* \"#utility.yul\":3585:3703   */\n      pop\n        /* \"#utility.yul\":2911:3710   */\n      swap3\n      pop\n      swap3\n      pop\n      swap3\n      jump\t// out\n        /* \"#utility.yul\":3716:3829   */\n    tag_199:\n        /* \"#utility.yul\":3803:3804   */\n      0x06\n        /* \"#utility.yul\":3796:3801   */\n      dup2\n        /* \"#utility.yul\":3793:3805   */\n      lt\n        /* \"#utility.yul\":3783:3823   */\n      tag_290\n      jumpi\n        /* \"#utility.yul\":3819:3820   */\n      0x00\n        /* \"#utility.yul\":3816:3817   */\n      0x00\n        /* \"#utility.yul\":3809:3821   */\n      revert\n        /* \"#utility.yul\":3783:3823   */\n    tag_290:\n        /* \"#utility.yul\":3716:3829   */\n      pop\n      jump\t// out\n        /* \"#utility.yul\":3835:4002   */\n    tag_200:\n        /* \"#utility.yul\":3895:3900   */\n      0x00\n        /* \"#utility.yul\":3933:3939   */\n      dup2\n        /* \"#utility.yul\":3920:3940   */\n      calldataload\n        /* \"#utility.yul\":3911:3940   */\n      swap1\n      pop\n        /* \"#utility.yul\":3949:3996   */\n      tag_292\n        /* \"#utility.yul\":3990:3995   */\n      dup2\n        /* \"#utility.yul\":3949:3996   */\n      tag_199\n      jump\t// in\n    tag_292:\n        /* \"#utility.yul\":3835:4002   */\n      swap3\n      swap2\n      pop\n      pop\n      jump\t// out\n        /* \"#utility.yul\":4008:4538   */\n    tag_19:\n        /* \"#utility.yul\":4104:4110   */\n      0x00\n        /* \"#utility.yul\":4112:4118   */\n      0x00\n        /* \"#utility.yul\":4161:4163   */\n      0x40\n        /* \"#utility.yul\":4149:4158   */\n      dup4\n        /* \"#utility.yul\":4140:4147   */\n      dup6\n        /* \"#utility.yul\":4136:4159   */\n      sub\n        /* \"#utility.yul\":4132:4164   */\n      slt\n        /* \"#utility.yul\":4129:4248   */\n      iszero\n      tag_294\n      jumpi\n        /* \"#utility.yul\":4167:4246   */\n      tag_295\n      tag_184\n      jump\t// in\n    tag_295:\n        /* \"#utility.yul\":4129:4248   */\n    tag_294:\n        /* \"#utility.yul\":4287:4288   */\n      0x00\n        /* \"#utility.yul\":4312:4379   */\n      tag_296\n        /* \"#utility.yul\":4371:4378   */\n      dup6\n        /* \"#utility.yul\":4362:4368   */\n      dup3\n        /* \"#utility.yul\":4351:4360   */\n      dup7\n        /* \"#utility.yul\":4347:4369   */\n      add\n        /* \"#utility.yul\":4312:4379   */\n      tag_200\n      jump\t// in\n    tag_296:\n        /* \"#utility.yul\":4302:4379   */\n      swap3\n      pop\n        /* \"#utility.yul\":4258:4389   */\n      pop\n        /* \"#utility.yul\":4428:4430   */\n      0x20\n        /* \"#utility.yul\":4454:4521   */\n      tag_297\n        /* \"#utility.yul\":4513:4520   */\n      dup6\n        /* \"#utility.yul\":4504:4510   */\n      dup3\n        /* \"#utility.yul\":4493:4502   */\n      dup7\n        /* \"#utility.yul\":4489:4511   */\n      add\n        /* \"#utility.yul\":4454:4521   */\n      tag_200\n      jump\t// in\n    tag_297:\n        /* \"#utility.yul\":4444:4521   */\n      swap2\n      pop\n        /* \"#utility.yul\":4399:4531   */\n      pop\n        /* \"#utility.yul\":4008:4538   */\n      swap3\n      pop\n      swap3\n      swap1\n      pop\n      jump\t// out\n        /* \"#utility.yul\":4544:4634   */\n    tag_201:\n        /* \"#utility.yul\":4578:4585   */\n      0x00\n        /* \"#utility.yul\":4621:4626   */\n      dup2\n        /* \"#utility.yul\":4614:4627   */\n      iszero\n        /* \"#utility.yul\":4607:4628   */\n      iszero\n        /* \"#utility.yul\":4596:4628   */\n      swap1\n      pop\n        /* \"#utility.yul\":4544:4634   */\n      swap2\n      swap1\n      pop\n      jump\t// out\n        /* \"#utility.yul\":4640:4749   */\n    tag_202:\n        /* \"#utility.yul\":4721:4742   */\n      tag_300\n        /* \"#utility.yul\":4736:4741   */\n      dup2\n        /* \"#utility.yul\":4721:4742   */\n      tag_201\n      jump\t// in\n    tag_300:\n        /* \"#utility.yul\":4716:4719   */\n      dup3\n        /* \"#utility.yul\":4709:4743   */\n      mstore\n        /* \"#utility.yul\":4640:4749   */\n      pop\n      pop\n      jump\t// out\n        /* \"#utility.yul\":4755:4965   */\n    tag_22:\n        /* \"#utility.yul\":4842:4846   */\n      0x00\n        /* \"#utility.yul\":4880:4882   */\n      0x20\n        /* \"#utility.yul\":4869:4878   */\n      dup3\n        /* \"#utility.yul\":4865:4883   */\n      add\n        /* \"#utility.yul\":4857:4883   */\n      swap1\n      pop\n        /* \"#utility.yul\":4893:4958   */\n      tag_302\n        /* \"#utility.yul\":4955:4956   */\n      0x00\n        /* \"#utility.yul\":4944:4953   */\n      dup4\n        /* \"#utility.yul\":4940:4957   */\n      add\n        /* \"#utility.yul\":4931:4937   */\n      dup5\n        /* \"#utility.yul\":4893:4958   */\n      tag_202\n      jump\t// in\n    tag_302:\n        /* \"#utility.yul\":4755:4965   */\n      swap3\n      swap2\n      pop\n      pop\n      jump\t// out\n        /* \"#utility.yul\":4971:5300   */\n    tag_26:\n        /* \"#utility.yul\":5030:5036   */\n      0x00\n        /* \"#utility.yul\":5079:5081   */\n      0x20\n        /* \"#utility.yul\":5067:5076   */\n      dup3\n        /* \"#utility.yul\":5058:5065   */\n      dup5\n        /* \"#utility.yul\":5054:5077   */\n      sub\n        /* \"#utility.yul\":5050:5082   */\n      slt\n        /* \"#utility.yul\":5047:5166   */\n      iszero\n      tag_304\n      jumpi\n        /* \"#utility.yul\":5085:5164   */\n      tag_305\n      tag_184\n      jump\t// in\n    tag_305:\n        /* \"#utility.yul\":5047:5166   */\n    tag_304:\n        /* \"#utility.yul\":5205:5206   */\n      0x00\n        /* \"#utility.yul\":5230:5283   */\n      tag_306\n        /* \"#utility.yul\":5275:5282   */\n      dup5\n        /* \"#utility.yul\":5266:5272   */\n      dup3\n        /* \"#utility.yul\":5255:5264   */\n      dup6\n        /* \"#utility.yul\":5251:5273   */\n      add\n        /* \"#utility.yul\":5230:5283   */\n      tag_188\n      jump\t// in\n    tag_306:\n        /* \"#utility.yul\":5220:5283   */\n      swap2\n      pop\n        /* \"#utility.yul\":5176:5293   */\n      pop\n        /* \"#utility.yul\":4971:5300   */\n      swap3\n      swap2\n      pop\n      pop\n      jump\t// out\n        /* \"#utility.yul\":5306:5424   */\n    tag_203:\n        /* \"#utility.yul\":5393:5417   */\n      tag_308\n        /* \"#utility.yul\":5411:5416   */\n      dup2\n        /* \"#utility.yul\":5393:5417   */\n      tag_186\n      jump\t// in\n    tag_308:\n        /* \"#utility.yul\":5388:5391   */\n      dup3\n        /* \"#utility.yul\":5381:5418   */\n      mstore\n        /* \"#utility.yul\":5306:5424   */\n      pop\n      pop\n      jump\t// out\n        /* \"#utility.yul\":5430:5529   */\n    tag_204:\n        /* \"#utility.yul\":5482:5488   */\n      0x00\n        /* \"#utility.yul\":5516:5521   */\n      dup2\n        /* \"#utility.yul\":5510:5522   */\n      mload\n        /* \"#utility.yul\":5500:5522   */\n      swap1\n      pop\n        /* \"#utility.yul\":5430:5529   */\n      swap2\n      swap1\n      pop\n      jump\t// out\n        /* \"#utility.yul\":5535:5704   */\n    tag_205:\n        /* \"#utility.yul\":5619:5630   */\n      0x00\n        /* \"#utility.yul\":5653:5659   */\n      dup3\n        /* \"#utility.yul\":5648:5651   */\n      dup3\n        /* \"#utility.yul\":5641:5660   */\n      mstore\n        /* \"#utility.yul\":5693:5697   */\n      0x20\n        /* \"#utility.yul\":5688:5691   */\n      dup3\n        /* \"#utility.yul\":5684:5698   */\n      add\n        /* \"#utility.yul\":5669:5698   */\n      swap1\n      pop\n        /* \"#utility.yul\":5535:5704   */\n      swap3\n      swap2\n      pop\n      pop\n      jump\t// out\n        /* \"#utility.yul\":5710:5849   */\n    tag_206:\n        /* \"#utility.yul\":5799:5805   */\n      dup3\n        /* \"#utility.yul\":5794:5797   */\n      dup2\n        /* \"#utility.yul\":5789:5792   */\n      dup4\n        /* \"#utility.yul\":5783:5806   */\n      mcopy\n        /* \"#utility.yul\":5840:5841   */\n      0x00\n        /* \"#utility.yul\":5831:5837   */\n      dup4\n        /* \"#utility.yul\":5826:5829   */\n      dup4\n        /* \"#utility.yul\":5822:5838   */\n      add\n        /* \"#utility.yul\":5815:5842   */\n      mstore\n        /* \"#utility.yul\":5710:5849   */\n      pop\n      pop\n      pop\n      jump\t// out\n        /* \"#utility.yul\":5855:6232   */\n    tag_207:\n        /* \"#utility.yul\":5943:5946   */\n      0x00\n        /* \"#utility.yul\":5971:6010   */\n      tag_313\n        /* \"#utility.yul\":6004:6009   */\n      dup3\n        /* \"#utility.yul\":5971:6010   */\n      tag_204\n      jump\t// in\n    tag_313:\n        /* \"#utility.yul\":6026:6097   */\n      tag_314\n        /* \"#utility.yul\":6090:6096   */\n      dup2\n        /* \"#utility.yul\":6085:6088   */\n      dup6\n        /* \"#utility.yul\":6026:6097   */\n      tag_205\n      jump\t// in\n    tag_314:\n        /* \"#utility.yul\":6019:6097   */\n      swap4\n      pop\n        /* \"#utility.yul\":6106:6171   */\n      tag_315\n        /* \"#utility.yul\":6164:6170   */\n      dup2\n        /* \"#utility.yul\":6159:6162   */\n      dup6\n        /* \"#utility.yul\":6152:6156   */\n      0x20\n        /* \"#utility.yul\":6145:6150   */\n      dup7\n        /* \"#utility.yul\":6141:6157   */\n      add\n        /* \"#utility.yul\":6106:6171   */\n      tag_206\n      jump\t// in\n    tag_315:\n        /* \"#utility.yul\":6196:6225   */\n      tag_316\n        /* \"#utility.yul\":6218:6224   */\n      dup2\n        /* \"#utility.yul\":6196:6225   */\n      tag_191\n      jump\t// in\n    tag_316:\n        /* \"#utility.yul\":6191:6194   */\n      dup5\n        /* \"#utility.yul\":6187:6226   */\n      add\n        /* \"#utility.yul\":6180:6226   */\n      swap2\n      pop\n        /* \"#utility.yul\":5947:6232   */\n      pop\n        /* \"#utility.yul\":5855:6232   */\n      swap3\n      swap2\n      pop\n      pop\n      jump\t// out\n        /* \"#utility.yul\":6238:6364   */\n    tag_208:\n        /* \"#utility.yul\":6275:6282   */\n      0x00\n        /* \"#utility.yul\":6315:6357   */\n      0xffffffffffffffffffffffffffffffffffffffff\n        /* \"#utility.yul\":6308:6313   */\n      dup3\n        /* \"#utility.yul\":6304:6358   */\n      and\n        /* \"#utility.yul\":6293:6358   */\n      swap1\n      pop\n        /* \"#utility.yul\":6238:6364   */\n      swap2\n      swap1\n      pop\n      jump\t// out\n        /* \"#utility.yul\":6370:6466   */\n    tag_209:\n        /* \"#utility.yul\":6407:6414   */\n      0x00\n        /* \"#utility.yul\":6436:6460   */\n      tag_319\n        /* \"#utility.yul\":6454:6459   */\n      dup3\n        /* \"#utility.yul\":6436:6460   */\n      tag_208\n      jump\t// in\n    tag_319:\n        /* \"#utility.yul\":6425:6460   */\n      swap1\n      pop\n        /* \"#utility.yul\":6370:6466   */\n      swap2\n      swap1\n      pop\n      jump\t// out\n        /* \"#utility.yul\":6472:6590   */\n    tag_210:\n        /* \"#utility.yul\":6559:6583   */\n      tag_321\n        /* \"#utility.yul\":6577:6582   */\n      dup2\n        /* \"#utility.yul\":6559:6583   */\n      tag_209\n      jump\t// in\n    tag_321:\n        /* \"#utility.yul\":6554:6557   */\n      dup3\n        /* \"#utility.yul\":6547:6584   */\n      mstore\n        /* \"#utility.yul\":6472:6590   */\n      pop\n      pop\n      jump\t// out\n        /* \"#utility.yul\":6596:7339   */\n    tag_29:\n        /* \"#utility.yul\":6815:6819   */\n      0x00\n        /* \"#utility.yul\":6853:6856   */\n      0xa0\n        /* \"#utility.yul\":6842:6851   */\n      dup3\n        /* \"#utility.yul\":6838:6857   */\n      add\n        /* \"#utility.yul\":6830:6857   */\n      swap1\n      pop\n        /* \"#utility.yul\":6867:6938   */\n      tag_323\n        /* \"#utility.yul\":6935:6936   */\n      0x00\n        /* \"#utility.yul\":6924:6933   */\n      dup4\n        /* \"#utility.yul\":6920:6937   */\n      add\n        /* \"#utility.yul\":6911:6917   */\n      dup9\n        /* \"#utility.yul\":6867:6938   */\n      tag_203\n      jump\t// in\n    tag_323:\n        /* \"#utility.yul\":6985:6994   */\n      dup2\n        /* \"#utility.yul\":6979:6983   */\n      dup2\n        /* \"#utility.yul\":6975:6995   */\n      sub\n        /* \"#utility.yul\":6970:6972   */\n      0x20\n        /* \"#utility.yul\":6959:6968   */\n      dup4\n        /* \"#utility.yul\":6955:6973   */\n      add\n        /* \"#utility.yul\":6948:6996   */\n      mstore\n        /* \"#utility.yul\":7013:7091   */\n      tag_324\n        /* \"#utility.yul\":7086:7090   */\n      dup2\n        /* \"#utility.yul\":7077:7083   */\n      dup8\n        /* \"#utility.yul\":7013:7091   */\n      tag_207\n      jump\t// in\n    tag_324:\n        /* \"#utility.yul\":7005:7091   */\n      swap1\n      pop\n        /* \"#utility.yul\":7101:7173   */\n      tag_325\n        /* \"#utility.yul\":7169:7171   */\n      0x40\n        /* \"#utility.yul\":7158:7167   */\n      dup4\n        /* \"#utility.yul\":7154:7172   */\n      add\n        /* \"#utility.yul\":7145:7151   */\n      dup7\n        /* \"#utility.yul\":7101:7173   */\n      tag_203\n      jump\t// in\n    tag_325:\n        /* \"#utility.yul\":7183:7255   */\n      tag_326\n        /* \"#utility.yul\":7251:7253   */\n      0x60\n        /* \"#utility.yul\":7240:7249   */\n      dup4\n        /* \"#utility.yul\":7236:7254   */\n      add\n        /* \"#utility.yul\":7227:7233   */\n      dup6\n        /* \"#utility.yul\":7183:7255   */\n      tag_210\n      jump\t// in\n    tag_326:\n        /* \"#utility.yul\":7265:7332   */\n      tag_327\n        /* \"#utility.yul\":7327:7330   */\n      0x80\n        /* \"#utility.yul\":7316:7325   */\n      dup4\n        /* \"#utility.yul\":7312:7331   */\n      add\n        /* \"#utility.yul\":7303:7309   */\n      dup5\n        /* \"#utility.yul\":7265:7332   */\n      tag_202\n      jump\t// in\n    tag_327:\n        /* \"#utility.yul\":6596:7339   */\n      swap7\n      swap6\n      pop\n      pop\n      pop\n      pop\n      pop\n      pop\n      jump\t// out\n        /* \"#utility.yul\":7345:7525   */\n    tag_63:\n        /* \"#utility.yul\":7393:7470   */\n      0x4e487b7100000000000000000000000000000000000000000000000000000000\n        /* \"#utility.yul\":7390:7391   */\n      0x00\n        /* \"#utility.yul\":7383:7471   */\n      mstore\n        /* \"#utility.yul\":7490:7494   */\n      0x21\n        /* \"#utility.yul\":7487:7488   */\n      0x04\n        /* \"#utility.yul\":7480:7495   */\n      mstore\n        /* \"#utility.yul\":7514:7518   */\n      0x24\n        /* \"#utility.yul\":7511:7512   */\n      0x00\n        /* \"#utility.yul\":7504:7519   */\n      revert\n        /* \"#utility.yul\":7531:7650   */\n    tag_211:\n        /* \"#utility.yul\":7618:7619   */\n      0x06\n        /* \"#utility.yul\":7611:7616   */\n      dup2\n        /* \"#utility.yul\":7608:7620   */\n      lt\n        /* \"#utility.yul\":7598:7644   */\n      tag_330\n      jumpi\n        /* \"#utility.yul\":7624:7642   */\n      tag_331\n      tag_63\n      jump\t// in\n    tag_331:\n        /* \"#utility.yul\":7598:7644   */\n    tag_330:\n        /* \"#utility.yul\":7531:7650   */\n      pop\n      jump\t// out\n        /* \"#utility.yul\":7656:7795   */\n    tag_212:\n        /* \"#utility.yul\":7707:7714   */\n      0x00\n        /* \"#utility.yul\":7736:7741   */\n      dup2\n        /* \"#utility.yul\":7725:7741   */\n      swap1\n      pop\n        /* \"#utility.yul\":7742:7789   */\n      tag_333\n        /* \"#utility.yul\":7783:7788   */\n      dup3\n        /* \"#utility.yul\":7742:7789   */\n      tag_211\n      jump\t// in\n    tag_333:\n        /* \"#utility.yul\":7656:7795   */\n      swap2\n      swap1\n      pop\n      jump\t// out\n        /* \"#utility.yul\":7801:7940   */\n    tag_213:\n        /* \"#utility.yul\":7863:7872   */\n      0x00\n        /* \"#utility.yul\":7896:7934   */\n      tag_335\n        /* \"#utility.yul\":7928:7933   */\n      dup3\n        /* \"#utility.yul\":7896:7934   */\n      tag_212\n      jump\t// in\n    tag_335:\n        /* \"#utility.yul\":7883:7934   */\n      swap1\n      pop\n        /* \"#utility.yul\":7801:7940   */\n      swap2\n      swap1\n      pop\n      jump\t// out\n        /* \"#utility.yul\":7946:8101   */\n    tag_214:\n        /* \"#utility.yul\":8045:8094   */\n      tag_337\n        /* \"#utility.yul\":8088:8093   */\n      dup2\n        /* \"#utility.yul\":8045:8094   */\n      tag_213\n      jump\t// in\n    tag_337:\n        /* \"#utility.yul\":8040:8043   */\n      dup3\n        /* \"#utility.yul\":8033:8095   */\n      mstore\n        /* \"#utility.yul\":7946:8101   */\n      pop\n      pop\n      jump\t// out\n        /* \"#utility.yul\":8107:8795   */\n    tag_40:\n        /* \"#utility.yul\":8324:8328   */\n      0x00\n        /* \"#utility.yul\":8362:8365   */\n      0xa0\n        /* \"#utility.yul\":8351:8360   */\n      dup3\n        /* \"#utility.yul\":8347:8366   */\n      add\n        /* \"#utility.yul\":8339:8366   */\n      swap1\n      pop\n        /* \"#utility.yul\":8376:8447   */\n      tag_339\n        /* \"#utility.yul\":8444:8445   */\n      0x00\n        /* \"#utility.yul\":8433:8442   */\n      dup4\n        /* \"#utility.yul\":8429:8446   */\n      add\n        /* \"#utility.yul\":8420:8426   */\n      dup9\n        /* \"#utility.yul\":8376:8447   */\n      tag_203\n      jump\t// in\n    tag_339:\n        /* \"#utility.yul\":8457:8529   */\n      tag_340\n        /* \"#utility.yul\":8525:8527   */\n      0x20\n        /* \"#utility.yul\":8514:8523   */\n      dup4\n        /* \"#utility.yul\":8510:8528   */\n      add\n        /* \"#utility.yul\":8501:8507   */\n      dup8\n        /* \"#utility.yul\":8457:8529   */\n      tag_210\n      jump\t// in\n    tag_340:\n        /* \"#utility.yul\":8539:8611   */\n      tag_341\n        /* \"#utility.yul\":8607:8609   */\n      0x40\n        /* \"#utility.yul\":8596:8605   */\n      dup4\n        /* \"#utility.yul\":8592:8610   */\n      add\n        /* \"#utility.yul\":8583:8589   */\n      dup7\n        /* \"#utility.yul\":8539:8611   */\n      tag_203\n      jump\t// in\n    tag_341:\n        /* \"#utility.yul\":8621:8705   */\n      tag_342\n        /* \"#utility.yul\":8701:8703   */\n      0x60\n        /* \"#utility.yul\":8690:8699   */\n      dup4\n        /* \"#utility.yul\":8686:8704   */\n      add\n        /* \"#utility.yul\":8677:8683   */\n      dup6\n        /* \"#utility.yul\":8621:8705   */\n      tag_214\n      jump\t// in\n    tag_342:\n        /* \"#utility.yul\":8715:8788   */\n      tag_343\n        /* \"#utility.yul\":8783:8786   */\n      0x80\n        /* \"#utility.yul\":8772:8781   */\n      dup4\n        /* \"#utility.yul\":8768:8787   */\n      add\n        /* \"#utility.yul\":8759:8765   */\n      dup5\n        /* \"#utility.yul\":8715:8788   */\n      tag_203\n      jump\t// in\n    tag_343:\n        /* \"#utility.yul\":8107:8795   */\n      swap7\n      swap6\n      pop\n      pop\n      pop\n      pop\n      pop\n      pop\n      jump\t// out\n        /* \"#utility.yul\":8801:9303   */\n    tag_44:\n        /* \"#utility.yul\":8883:8889   */\n      0x00\n        /* \"#utility.yul\":8891:8897   */\n      0x00\n        /* \"#utility.yul\":8940:8942   */\n      0x40\n        /* \"#utility.yul\":8928:8937   */\n      dup4\n        /* \"#utility.yul\":8919:8926   */\n      dup6\n        /* \"#utility.yul\":8915:8938   */\n      sub\n        /* \"#utility.yul\":8911:8943   */\n      slt\n        /* \"#utility.yul\":8908:9027   */\n      iszero\n      tag_345\n      jumpi\n        /* \"#utility.yul\":8946:9025   */\n      tag_346\n      tag_184\n      jump\t// in\n    tag_346:\n        /* \"#utility.yul\":8908:9027   */\n    tag_345:\n        /* \"#utility.yul\":9066:9067   */\n      0x00\n        /* \"#utility.yul\":9091:9144   */\n      tag_347\n        /* \"#utility.yul\":9136:9143   */\n      dup6\n        /* \"#utility.yul\":9127:9133   */\n      dup3\n        /* \"#utility.yul\":9116:9125   */\n      dup7\n        /* \"#utility.yul\":9112:9134   */\n      add\n        /* \"#utility.yul\":9091:9144   */\n      tag_188\n      jump\t// in\n    tag_347:\n        /* \"#utility.yul\":9081:9144   */\n      swap3\n      pop\n        /* \"#utility.yul\":9037:9154   */\n      pop\n        /* \"#utility.yul\":9193:9195   */\n      0x20\n        /* \"#utility.yul\":9219:9286   */\n      tag_348\n        /* \"#utility.yul\":9278:9285   */\n      dup6\n        /* \"#utility.yul\":9269:9275   */\n      dup3\n        /* \"#utility.yul\":9258:9267   */\n      dup7\n        /* \"#utility.yul\":9254:9276   */\n      add\n        /* \"#utility.yul\":9219:9286   */\n      tag_200\n      jump\t// in\n    tag_348:\n        /* \"#utility.yul\":9209:9286   */\n      swap2\n      pop\n        /* \"#utility.yul\":9164:9296   */\n      pop\n        /* \"#utility.yul\":8801:9303   */\n      swap3\n      pop\n      swap3\n      swap1\n      pop\n      jump\t// out\n        /* \"#utility.yul\":9309:9963   */\n    tag_49:\n        /* \"#utility.yul\":9387:9393   */\n      0x00\n        /* \"#utility.yul\":9395:9401   */\n      0x00\n        /* \"#utility.yul\":9444:9446   */\n      0x40\n        /* \"#utility.yul\":9432:9441   */\n      dup4\n        /* \"#utility.yul\":9423:9430   */\n      dup6\n        /* \"#utility.yul\":9419:9442   */\n      sub\n        /* \"#utility.yul\":9415:9447   */\n      slt\n        /* \"#utility.yul\":9412:9531   */\n      iszero\n      tag_350\n      jumpi\n        /* \"#utility.yul\":9450:9529   */\n      tag_351\n      tag_184\n      jump\t// in\n    tag_351:\n        /* \"#utility.yul\":9412:9531   */\n    tag_350:\n        /* \"#utility.yul\":9598:9599   */\n      0x00\n        /* \"#utility.yul\":9587:9596   */\n      dup4\n        /* \"#utility.yul\":9583:9600   */\n      add\n        /* \"#utility.yul\":9570:9601   */\n      calldataload\n        /* \"#utility.yul\":9628:9646   */\n      0xffffffffffffffff\n        /* \"#utility.yul\":9620:9626   */\n      dup2\n        /* \"#utility.yul\":9617:9647   */\n      gt\n        /* \"#utility.yul\":9614:9731   */\n      iszero\n      tag_352\n      jumpi\n        /* \"#utility.yul\":9650:9729   */\n      tag_353\n      tag_185\n      jump\t// in\n    tag_353:\n        /* \"#utility.yul\":9614:9731   */\n    tag_352:\n        /* \"#utility.yul\":9755:9818   */\n      tag_354\n        /* \"#utility.yul\":9810:9817   */\n      dup6\n        /* \"#utility.yul\":9801:9807   */\n      dup3\n        /* \"#utility.yul\":9790:9799   */\n      dup7\n        /* \"#utility.yul\":9786:9808   */\n      add\n        /* \"#utility.yul\":9755:9818   */\n      tag_198\n      jump\t// in\n    tag_354:\n        /* \"#utility.yul\":9745:9818   */\n      swap3\n      pop\n        /* \"#utility.yul\":9541:9828   */\n      pop\n        /* \"#utility.yul\":9867:9869   */\n      0x20\n        /* \"#utility.yul\":9893:9946   */\n      tag_355\n        /* \"#utility.yul\":9938:9945   */\n      dup6\n        /* \"#utility.yul\":9929:9935   */\n      dup3\n        /* \"#utility.yul\":9918:9927   */\n      dup7\n        /* \"#utility.yul\":9914:9936   */\n      add\n        /* \"#utility.yul\":9893:9946   */\n      tag_188\n      jump\t// in\n    tag_355:\n        /* \"#utility.yul\":9883:9946   */\n      swap2\n      pop\n        /* \"#utility.yul\":9838:9956   */\n      pop\n        /* \"#utility.yul\":9309:9963   */\n      swap3\n      pop\n      swap3\n      swap1\n      pop\n      jump\t// out\n        /* \"#utility.yul\":9969:10141   */\n    tag_215:\n        /* \"#utility.yul\":10109:10133   */\n      0x4f6e6c792073656c6c65722063616e2075706461746500000000000000000000\n        /* \"#utility.yul\":10105:10106   */\n      0x00\n        /* \"#utility.yul\":10097:10103   */\n      dup3\n        /* \"#utility.yul\":10093:10107   */\n      add\n        /* \"#utility.yul\":10086:10134   */\n      mstore\n        /* \"#utility.yul\":9969:10141   */\n      pop\n      jump\t// out\n        /* \"#utility.yul\":10147:10513   */\n    tag_216:\n        /* \"#utility.yul\":10289:10292   */\n      0x00\n        /* \"#utility.yul\":10310:10377   */\n      tag_358\n        /* \"#utility.yul\":10374:10376   */\n      0x16\n        /* \"#utility.yul\":10369:10372   */\n      dup4\n        /* \"#utility.yul\":10310:10377   */\n      tag_205\n      jump\t// in\n    tag_358:\n        /* \"#utility.yul\":10303:10377   */\n      swap2\n      pop\n        /* \"#utility.yul\":10386:10479   */\n      tag_359\n        /* \"#utility.yul\":10475:10478   */\n      dup3\n        /* \"#utility.yul\":10386:10479   */\n      tag_215\n      jump\t// in\n    tag_359:\n        /* \"#utility.yul\":10504:10506   */\n      0x20\n        /* \"#utility.yul\":10499:10502   */\n      dup3\n        /* \"#utility.yul\":10495:10507   */\n      add\n        /* \"#utility.yul\":10488:10507   */\n      swap1\n      pop\n        /* \"#utility.yul\":10147:10513   */\n      swap2\n      swap1\n      pop\n      jump\t// out\n        /* \"#utility.yul\":10519:10938   */\n    tag_57:\n        /* \"#utility.yul\":10685:10689   */\n      0x00\n        /* \"#utility.yul\":10723:10725   */\n      0x20\n        /* \"#utility.yul\":10712:10721   */\n      dup3\n        /* \"#utility.yul\":10708:10726   */\n      add\n        /* \"#utility.yul\":10700:10726   */\n      swap1\n      pop\n        /* \"#utility.yul\":10772:10781   */\n      dup2\n        /* \"#utility.yul\":10766:10770   */\n      dup2\n        /* \"#utility.yul\":10762:10782   */\n      sub\n        /* \"#utility.yul\":10758:10759   */\n      0x00\n        /* \"#utility.yul\":10747:10756   */\n      dup4\n        /* \"#utility.yul\":10743:10760   */\n      add\n        /* \"#utility.yul\":10736:10783   */\n      mstore\n        /* \"#utility.yul\":10800:10931   */\n      tag_361\n        /* \"#utility.yul\":10926:10930   */\n      dup2\n        /* \"#utility.yul\":10800:10931   */\n      tag_216\n      jump\t// in\n    tag_361:\n        /* \"#utility.yul\":10792:10931   */\n      swap1\n      pop\n        /* \"#utility.yul\":10519:10938   */\n      swap2\n      swap1\n      pop\n      jump\t// out\n        /* \"#utility.yul\":10944:11124   */\n    tag_217:\n        /* \"#utility.yul\":10992:11069   */\n      0x4e487b7100000000000000000000000000000000000000000000000000000000\n        /* \"#utility.yul\":10989:10990   */\n      0x00\n        /* \"#utility.yul\":10982:11070   */\n      mstore\n        /* \"#utility.yul\":11089:11093   */\n      0x22\n        /* \"#utility.yul\":11086:11087   */\n      0x04\n        /* \"#utility.yul\":11079:11094   */\n      mstore\n        /* \"#utility.yul\":11113:11117   */\n      0x24\n        /* \"#utility.yul\":11110:11111   */\n      0x00\n        /* \"#utility.yul\":11103:11118   */\n      revert\n        /* \"#utility.yul\":11130:11450   */\n    tag_119:\n        /* \"#utility.yul\":11174:11180   */\n      0x00\n        /* \"#utility.yul\":11211:11212   */\n      0x02\n        /* \"#utility.yul\":11205:11209   */\n      dup3\n        /* \"#utility.yul\":11201:11213   */\n      div\n        /* \"#utility.yul\":11191:11213   */\n      swap1\n      pop\n        /* \"#utility.yul\":11258:11259   */\n      0x01\n        /* \"#utility.yul\":11252:11256   */\n      dup3\n        /* \"#utility.yul\":11248:11260   */\n      and\n        /* \"#utility.yul\":11279:11297   */\n      dup1\n        /* \"#utility.yul\":11269:11350   */\n      tag_364\n      jumpi\n        /* \"#utility.yul\":11335:11339   */\n      0x7f\n        /* \"#utility.yul\":11327:11333   */\n      dup3\n        /* \"#utility.yul\":11323:11340   */\n      and\n        /* \"#utility.yul\":11313:11340   */\n      swap2\n      pop\n        /* \"#utility.yul\":11269:11350   */\n    tag_364:\n        /* \"#utility.yul\":11397:11399   */\n      0x20\n        /* \"#utility.yul\":11389:11395   */\n      dup3\n        /* \"#utility.yul\":11386:11400   */\n      lt\n        /* \"#utility.yul\":11366:11384   */\n      dup2\n        /* \"#utility.yul\":11363:11401   */\n      sub\n        /* \"#utility.yul\":11360:11444   */\n      tag_365\n      jumpi\n        /* \"#utility.yul\":11416:11434   */\n      tag_366\n      tag_217\n      jump\t// in\n    tag_366:\n        /* \"#utility.yul\":11360:11444   */\n    tag_365:\n        /* \"#utility.yul\":11181:11450   */\n      pop\n        /* \"#utility.yul\":11130:11450   */\n      swap2\n      swap1\n      pop\n      jump\t// out\n        /* \"#utility.yul\":11456:11597   */\n    tag_218:\n        /* \"#utility.yul\":11505:11509   */\n      0x00\n        /* \"#utility.yul\":11528:11531   */\n      dup2\n        /* \"#utility.yul\":11520:11531   */\n      swap1\n      pop\n        /* \"#utility.yul\":11551:11554   */\n      dup2\n        /* \"#utility.yul\":11548:11549   */\n      0x00\n        /* \"#utility.yul\":11541:11555   */\n      mstore\n        /* \"#utility.yul\":11585:11589   */\n      0x20\n        /* \"#utility.yul\":11582:11583   */\n      0x00\n        /* \"#utility.yul\":11572:11590   */\n      keccak256\n        /* \"#utility.yul\":11564:11590   */\n      swap1\n      pop\n        /* \"#utility.yul\":11456:11597   */\n      swap2\n      swap1\n      pop\n      jump\t// out\n        /* \"#utility.yul\":11603:11696   */\n    tag_219:\n        /* \"#utility.yul\":11640:11646   */\n      0x00\n        /* \"#utility.yul\":11687:11689   */\n      0x20\n        /* \"#utility.yul\":11682:11684   */\n      0x1f\n        /* \"#utility.yul\":11675:11680   */\n      dup4\n        /* \"#utility.yul\":11671:11685   */\n      add\n        /* \"#utility.yul\":11667:11690   */\n      div\n        /* \"#utility.yul\":11657:11690   */\n      swap1\n      pop\n        /* \"#utility.yul\":11603:11696   */\n      swap2\n      swap1\n      pop\n      jump\t// out\n        /* \"#utility.yul\":11702:11809   */\n    tag_220:\n        /* \"#utility.yul\":11746:11754   */\n      0x00\n        /* \"#utility.yul\":11796:11801   */\n      dup3\n        /* \"#utility.yul\":11790:11794   */\n      dup3\n        /* \"#utility.yul\":11786:11802   */\n      shl\n        /* \"#utility.yul\":11765:11802   */\n      swap1\n      pop\n        /* \"#utility.yul\":11702:11809   */\n      swap3\n      swap2\n      pop\n      pop\n      jump\t// out\n        /* \"#utility.yul\":11815:12208   */\n    tag_221:\n        /* \"#utility.yul\":11884:11890   */\n      0x00\n        /* \"#utility.yul\":11934:11935   */\n      0x08\n        /* \"#utility.yul\":11922:11932   */\n      dup4\n        /* \"#utility.yul\":11918:11936   */\n      mul\n        /* \"#utility.yul\":11957:12054   */\n      tag_371\n        /* \"#utility.yul\":11987:12053   */\n      0xffffffffffffffffffffffffffffffffffffffffffffffffffffffffffffffff\n        /* \"#utility.yul\":11976:11985   */\n      dup3\n        /* \"#utility.yul\":11957:12054   */\n      tag_220\n      jump\t// in\n    tag_371:\n        /* \"#utility.yul\":12075:12114   */\n      tag_372\n        /* \"#utility.yul\":12105:12113   */\n      dup7\n        /* \"#utility.yul\":12094:12103   */\n      dup4\n        /* \"#utility.yul\":12075:12114   */\n      tag_220\n      jump\t// in\n    tag_372:\n        /* \"#utility.yul\":12063:12114   */\n      swap6\n      pop\n        /* \"#utility.yul\":12147:12151   */\n      dup1\n        /* \"#utility.yul\":12143:12152   */\n      not\n        /* \"#utility.yul\":12136:12141   */\n      dup5\n        /* \"#utility.yul\":12132:12153   */\n      and\n        /* \"#utility.yul\":12123:12153   */\n      swap4\n      pop\n        /* \"#utility.yul\":12196:12200   */\n      dup1\n        /* \"#utility.yul\":12186:12194   */\n      dup7\n        /* \"#utility.yul\":12182:12201   */\n      and\n        /* \"#utility.yul\":12175:12180   */\n      dup5\n        /* \"#utility.yul\":12172:12202   */\n      or\n        /* \"#utility.yul\":12162:12202   */\n      swap3\n      pop\n        /* \"#utility.yul\":11891:12208   */\n      pop\n      pop\n        /* \"#utility.yul\":11815:12208   */\n      swap4\n      swap3\n      pop\n      pop\n      pop\n      jump\t// out\n        /* \"#utility.yul\":12214:12274   */\n    tag_222:\n        /* \"#utility.yul\":12242:12245   */\n      0x00\n        /* \"#utility.yul\":12263:12268   */\n      dup2\n        /* \"#utility.yul\":12256:12268   */\n      swap1\n      pop\n        /* \"#utility.yul\":12214:12274   */\n      swap2\n      swap1\n      pop\n      jump\t// out\n        /* \"#utility.yul\":12280:12422   */\n    tag_223:\n        /* \"#utility.yul\":12330:12339   */\n      0x00\n        /* \"#utility.yul\":12363:12416   */\n      tag_375\n        /* \"#utility.yul\":12381:12415   */\n      tag_376\n        /* \"#utility.yul\":12390:12414   */\n      tag_377\n        /* \"#utility.yul\":12408:12413   */\n      dup5\n        /* \"#utility.yul\":12390:12414   */\n      tag_186\n      jump\t// in\n    tag_377:\n        /* \"#utility.yul\":12381:12415   */\n      tag_222\n      jump\t// in\n    tag_376:\n        /* \"#utility.yul\":12363:12416   */\n      tag_186\n      jump\t// in\n    tag_375:\n        /* \"#utility.yul\":12350:12416   */\n      swap1\n      pop\n        /* \"#utility.yul\":12280:12422   */\n      swap2\n      swap1\n      pop\n      jump\t// out\n        /* \"#utility.yul\":12428:12503   */\n    tag_224:\n        /* \"#utility.yul\":12471:12474   */\n      0x00\n        /* \"#utility.yul\":12492:12497   */\n      dup2\n        /* \"#utility.yul\":12485:12497   */\n      swap1\n      pop\n        /* \"#utility.yul\":12428:12503   */\n      swap2\n      swap1\n      pop\n      jump\t// out\n        /* \"#utility.yul\":12509:12778   */\n    tag_225:\n        /* \"#utility.yul\":12619:12658   */\n      tag_380\n        /* \"#utility.yul\":12650:12657   */\n      dup4\n        /* \"#utility.yul\":12619:12658   */\n      tag_223\n      jump\t// in\n    tag_380:\n        /* \"#utility.yul\":12680:12771   */\n      tag_381\n        /* \"#utility.yul\":12729:12770   */\n      tag_382\n        /* \"#utility.yul\":12753:12769   */\n      dup3\n        /* \"#utility.yul\":12729:12770   */\n      tag_224\n      jump\t// in\n    tag_382:\n        /* \"#utility.yul\":12721:12727   */\n      dup5\n        /* \"#utility.yul\":12714:12718   */\n      dup5\n        /* \"#utility.yul\":12708:12719   */\n      sload\n        /* \"#utility.yul\":12680:12771   */\n      tag_221\n      jump\t// in\n    tag_381:\n        /* \"#utility.yul\":12674:12678   */\n      dup3\n        /* \"#utility.yul\":12667:12772   */\n      sstore\n        /* \"#utility.yul\":12585:12778   */\n      pop\n        /* \"#utility.yul\":12509:12778   */\n      pop\n      pop\n      pop\n      jump\t// out\n        /* \"#utility.yul\":12784:12857   */\n    tag_226:\n        /* \"#utility.yul\":12829:12832   */\n      0x00\n        /* \"#utility.yul\":12850:12851   */\n      0x00\n        /* \"#utility.yul\":12843:12851   */\n      swap1\n      pop\n        /* \"#utility.yul\":12784:12857   */\n      swap1\n      jump\t// out\n        /* \"#utility.yul\":12863:13052   */\n    tag_227:\n        /* \"#utility.yul\":12940:12972   */\n      tag_385\n      tag_226\n      jump\t// in\n    tag_385:\n        /* \"#utility.yul\":12981:13046   */\n      tag_386\n        /* \"#utility.yul\":13039:13045   */\n      dup2\n        /* \"#utility.yul\":13031:13037   */\n      dup5\n        /* \"#utility.yul\":13025:13029   */\n      dup5\n        /* \"#utility.yul\":12981:13046   */\n      tag_225\n      jump\t// in\n    tag_386:\n        /* \"#utility.yul\":12916:13052   */\n      pop\n        /* \"#utility.yul\":12863:13052   */\n      pop\n      pop\n      jump\t// out\n        /* \"#utility.yul\":13058:13244   */\n    tag_228:\n        /* \"#utility.yul\":13118:13238   */\n    tag_388:\n        /* \"#utility.yul\":13135:13138   */\n      dup2\n        /* \"#utility.yul\":13128:13133   */\n      dup2\n        /* \"#utility.yul\":13125:13139   */\n      lt\n        /* \"#utility.yul\":13118:13238   */\n      iszero\n      tag_390\n      jumpi\n        /* \"#utility.yul\":13189:13228   */\n      tag_391\n        /* \"#utility.yul\":13226:13227   */\n      0x00\n        /* \"#utility.yul\":13219:13224   */\n      dup3\n        /* \"#utility.yul\":13189:13228   */\n      tag_227\n      jump\t// in\n    tag_391:\n        /* \"#utility.yul\":13162:13163   */\n      0x01\n        /* \"#utility.yul\":13155:13160   */\n      dup2\n        /* \"#utility.yul\":13151:13164   */\n      add\n        /* \"#utility.yul\":13142:13164   */\n      swap1\n      pop\n        /* \"#utility.yul\":13118:13238   */\n      jump(tag_388)\n    tag_390:\n        /* \"#utility.yul\":13058:13244   */\n      pop\n      pop\n      jump\t// out\n        /* \"#utility.yul\":13250:13793   */\n    tag_229:\n        /* \"#utility.yul\":13351:13353   */\n      0x1f\n        /* \"#utility.yul\":13346:13349   */\n      dup3\n        /* \"#utility.yul\":13343:13354   */\n      gt\n        /* \"#utility.yul\":13340:13786   */\n      iszero\n      tag_393\n      jumpi\n        /* \"#utility.yul\":13385:13423   */\n      tag_394\n        /* \"#utility.yul\":13417:13422   */\n      dup2\n        /* \"#utility.yul\":13385:13423   */\n      tag_218\n      jump\t// in\n    tag_394:\n        /* \"#utility.yul\":13469:13498   */\n      tag_395\n        /* \"#utility.yul\":13487:13497   */\n      dup5\n        /* \"#utility.yul\":13469:13498   */\n      tag_219\n      jump\t// in\n    tag_395:\n        /* \"#utility.yul\":13459:13467   */\n      dup2\n        /* \"#utility.yul\":13455:13499   */\n      add\n        /* \"#utility.yul\":13652:13654   */\n      0x20\n        /* \"#utility.yul\":13640:13650   */\n      dup6\n        /* \"#utility.yul\":13637:13655   */\n      lt\n        /* \"#utility.yul\":13634:13683   */\n      iszero\n      tag_396\n      jumpi\n        /* \"#utility.yul\":13673:13681   */\n      dup2\n        /* \"#utility.yul\":13658:13681   */\n      swap1\n      pop\n        /* \"#utility.yul\":13634:13683   */\n    tag_396:\n        /* \"#utility.yul\":13696:13776   */\n      tag_397\n        /* \"#utility.yul\":13752:13774   */\n      tag_398\n        /* \"#utility.yul\":13770:13773   */\n      dup6\n        /* \"#utility.yul\":13752:13774   */\n      tag_219\n      jump\t// in\n    tag_398:\n        /* \"#utility.yul\":13742:13750   */\n      dup4\n        /* \"#utility.yul\":13738:13775   */\n      add\n        /* \"#utility.yul\":13725:13736   */\n      dup3\n        /* \"#utility.yul\":13696:13776   */\n      tag_228\n      jump\t// in\n    tag_397:\n        /* \"#utility.yul\":13355:13786   */\n      pop\n      pop\n        /* \"#utility.yul\":13340:13786   */\n    tag_393:\n        /* \"#utility.yul\":13250:13793   */\n      pop\n      pop\n      pop\n      jump\t// out\n        /* \"#utility.yul\":13799:13916   */\n    tag_230:\n        /* \"#utility.yul\":13853:13861   */\n      0x00\n        /* \"#utility.yul\":13903:13908   */\n      dup3\n        /* \"#utility.yul\":13897:13901   */\n      dup3\n        /* \"#utility.yul\":13893:13909   */\n      shr\n        /* \"#utility.yul\":13872:13909   */\n      swap1\n      pop\n        /* \"#utility.yul\":13799:13916   */\n      swap3\n      swap2\n      pop\n      pop\n      jump\t// out\n        /* \"#utility.yul\":13922:14091   */\n    tag_231:\n        /* \"#utility.yul\":13966:13972   */\n      0x00\n        /* \"#utility.yul\":13999:14050   */\n      tag_401\n        /* \"#utility.yul\":14047:14048   */\n      0x00\n        /* \"#utility.yul\":14043:14049   */\n      not\n        /* \"#utility.yul\":14035:14040   */\n      dup5\n        /* \"#utility.yul\":14032:14033   */\n      0x08\n        /* \"#utility.yul\":14028:14041   */\n      mul\n        /* \"#utility.yul\":13999:14050   */\n      tag_230\n      jump\t// in\n    tag_401:\n        /* \"#utility.yul\":13995:14051   */\n      not\n        /* \"#utility.yul\":14080:14084   */\n      dup1\n        /* \"#utility.yul\":14074:14078   */\n      dup4\n        /* \"#utility.yul\":14070:14085   */\n      and\n        /* \"#utility.yul\":14060:14085   */\n      swap2\n      pop\n        /* \"#utility.yul\":13973:14091   */\n      pop\n        /* \"#utility.yul\":13922:14091   */\n      swap3\n      swap2\n      pop\n      pop\n      jump\t// out\n        /* \"#utility.yul\":14096:14391   */\n    tag_232:\n        /* \"#utility.yul\":14172:14176   */\n      0x00\n        /* \"#utility.yul\":14318:14347   */\n      tag_403\n        /* \"#utility.yul\":14343:14346   */\n      dup4\n        /* \"#utility.yul\":14337:14341   */\n      dup4\n        /* \"#utility.yul\":14318:14347   */\n      tag_231\n      jump\t// in\n    tag_403:\n        /* \"#utility.yul\":14310:14347   */\n      swap2\n      pop\n        /* \"#utility.yul\":14380:14383   */\n      dup3\n        /* \"#utility.yul\":14377:14378   */\n      0x02\n        /* \"#utility.yul\":14373:14384   */\n      mul\n        /* \"#utility.yul\":14367:14371   */\n      dup3\n        /* \"#utility.yul\":14364:14385   */\n      or\n        /* \"#utility.yul\":14356:14385   */\n      swap1\n      pop\n        /* \"#utility.yul\":14096:14391   */\n      swap3\n      swap2\n      pop\n      pop\n      jump\t// out\n        /* \"#utility.yul\":14396:15791   */\n    tag_59:\n        /* \"#utility.yul\":14513:14550   */\n      tag_405\n        /* \"#utility.yul\":14546:14549   */\n      dup3\n        /* \"#utility.yul\":14513:14550   */\n      tag_204\n      jump\t// in\n    tag_405:\n        /* \"#utility.yul\":14615:14633   */\n      0xffffffffffffffff\n        /* \"#utility.yul\":14607:14613   */\n      dup2\n        /* \"#utility.yul\":14604:14634   */\n      gt\n        /* \"#utility.yul\":14601:14657   */\n      iszero\n      tag_406\n      jumpi\n        /* \"#utility.yul\":14637:14655   */\n      tag_407\n      tag_192\n      jump\t// in\n    tag_407:\n        /* \"#utility.yul\":14601:14657   */\n    tag_406:\n        /* \"#utility.yul\":14681:14719   */\n      tag_408\n        /* \"#utility.yul\":14713:14717   */\n      dup3\n        /* \"#utility.yul\":14707:14718   */\n      sload\n        /* \"#utility.yul\":14681:14719   */\n      tag_119\n      jump\t// in\n    tag_408:\n        /* \"#utility.yul\":14766:14833   */\n      tag_409\n        /* \"#utility.yul\":14826:14832   */\n      dup3\n        /* \"#utility.yul\":14818:14824   */\n      dup3\n        /* \"#utility.yul\":14812:14816   */\n      dup6\n        /* \"#utility.yul\":14766:14833   */\n      tag_229\n      jump\t// in\n    tag_409:\n        /* \"#utility.yul\":14860:14861   */\n      0x00\n        /* \"#utility.yul\":14884:14888   */\n      0x20\n        /* \"#utility.yul\":14871:14888   */\n      swap1\n      pop\n        /* \"#utility.yul\":14916:14918   */\n      0x1f\n        /* \"#utility.yul\":14908:14914   */\n      dup4\n        /* \"#utility.yul\":14905:14919   */\n      gt\n        /* \"#utility.yul\":14933:14934   */\n      0x01\n        /* \"#utility.yul\":14928:15546   */\n      dup2\n      eq\n      tag_411\n      jumpi\n        /* \"#utility.yul\":15590:15591   */\n      0x00\n        /* \"#utility.yul\":15607:15613   */\n      dup5\n        /* \"#utility.yul\":15604:15681   */\n      iszero\n      tag_412\n      jumpi\n        /* \"#utility.yul\":15656:15665   */\n      dup3\n        /* \"#utility.yul\":15651:15654   */\n      dup8\n        /* \"#utility.yul\":15647:15666   */\n      add\n        /* \"#utility.yul\":15641:15667   */\n      mload\n        /* \"#utility.yul\":15632:15667   */\n      swap1\n      pop\n        /* \"#utility.yul\":15604:15681   */\n    tag_412:\n        /* \"#utility.yul\":15707:15774   */\n      tag_413\n        /* \"#utility.yul\":15767:15773   */\n      dup6\n        /* \"#utility.yul\":15760:15765   */\n      dup3\n        /* \"#utility.yul\":15707:15774   */\n      tag_232\n      jump\t// in\n    tag_413:\n        /* \"#utility.yul\":15701:15705   */\n      dup7\n        /* \"#utility.yul\":15694:15775   */\n      sstore\n        /* \"#utility.yul\":15563:15785   */\n      pop\n        /* \"#utility.yul\":14898:15785   */\n      jump(tag_410)\n        /* \"#utility.yul\":14928:15546   */\n    tag_411:\n        /* \"#utility.yul\":14980:14984   */\n      0x1f\n        /* \"#utility.yul\":14976:14985   */\n      not\n        /* \"#utility.yul\":14968:14974   */\n      dup5\n        /* \"#utility.yul\":14964:14986   */\n      and\n        /* \"#utility.yul\":15014:15051   */\n      tag_414\n        /* \"#utility.yul\":15046:15050   */\n      dup7\n        /* \"#utility.yul\":15014:15051   */\n      tag_218\n      jump\t// in\n    tag_414:\n        /* \"#utility.yul\":15073:15074   */\n      0x00\n        /* \"#utility.yul\":15087:15295   */\n    tag_415:\n        /* \"#utility.yul\":15101:15108   */\n      dup3\n        /* \"#utility.yul\":15098:15099   */\n      dup2\n        /* \"#utility.yul\":15095:15109   */\n      lt\n        /* \"#utility.yul\":15087:15295   */\n      iszero\n      tag_417\n      jumpi\n        /* \"#utility.yul\":15180:15189   */\n      dup5\n        /* \"#utility.yul\":15175:15178   */\n      dup10\n        /* \"#utility.yul\":15171:15190   */\n      add\n        /* \"#utility.yul\":15165:15191   */\n      mload\n        /* \"#utility.yul\":15157:15163   */\n      dup3\n        /* \"#utility.yul\":15150:15192   */\n      sstore\n        /* \"#utility.yul\":15231:15232   */\n      0x01\n        /* \"#utility.yul\":15223:15229   */\n      dup3\n        /* \"#utility.yul\":15219:15233   */\n      add\n        /* \"#utility.yul\":15209:15233   */\n      swap2\n      pop\n        /* \"#utility.yul\":15278:15280   */\n      0x20\n        /* \"#utility.yul\":15267:15276   */\n      dup6\n        /* \"#utility.yul\":15263:15281   */\n      add\n        /* \"#utility.yul\":15250:15281   */\n      swap5\n      pop\n        /* \"#utility.yul\":15124:15128   */\n      0x20\n        /* \"#utility.yul\":15121:15122   */\n      dup2\n        /* \"#utility.yul\":15117:15129   */\n      add\n        /* \"#utility.yul\":15112:15129   */\n      swap1\n      pop\n        /* \"#utility.yul\":15087:15295   */\n      jump(tag_415)\n    tag_417:\n        /* \"#utility.yul\":15323:15329   */\n      dup7\n        /* \"#utility.yul\":15314:15321   */\n      dup4\n        /* \"#utility.yul\":15311:15330   */\n      lt\n        /* \"#utility.yul\":15308:15487   */\n      iszero\n      tag_418\n      jumpi\n        /* \"#utility.yul\":15381:15390   */\n      dup5\n        /* \"#utility.yul\":15376:15379   */\n      dup10\n        /* \"#utility.yul\":15372:15391   */\n      add\n        /* \"#utility.yul\":15366:15392   */\n      mload\n        /* \"#utility.yul\":15424:15472   */\n      tag_419\n        /* \"#utility.yul\":15466:15470   */\n      0x1f\n        /* \"#utility.yul\":15458:15464   */\n      dup10\n        /* \"#utility.yul\":15454:15471   */\n      and\n        /* \"#utility.yul\":15443:15452   */\n      dup3\n        /* \"#utility.yul\":15424:15472   */\n      tag_231\n      jump\t// in\n    tag_419:\n        /* \"#utility.yul\":15416:15422   */\n      dup4\n        /* \"#utility.yul\":15409:15473   */\n      sstore\n        /* \"#utility.yul\":15331:15487   */\n      pop\n        /* \"#utility.yul\":15308:15487   */\n    tag_418:\n        /* \"#utility.yul\":15533:15534   */\n      0x01\n        /* \"#utility.yul\":15529:15530   */\n      0x02\n        /* \"#utility.yul\":15521:15527   */\n      dup9\n        /* \"#utility.yul\":15517:15531   */\n      mul\n        /* \"#utility.yul\":15513:15535   */\n      add\n        /* \"#utility.yul\":15507:15511   */\n      dup9\n        /* \"#utility.yul\":15500:15536   */\n      sstore\n        /* \"#utility.yul\":14935:15546   */\n      pop\n      pop\n      pop\n        /* \"#utility.yul\":14898:15785   */\n    tag_410:\n      pop\n        /* \"#utility.yul\":14488:15791   */\n      pop\n      pop\n      pop\n        /* \"#utility.yul\":14396:15791   */\n      pop\n      pop\n      jump\t// out\n        /* \"#utility.yul\":15797:15959   */\n    tag_233:\n        /* \"#utility.yul\":15937:15951   */\n      0x556e617574686f72697a65640000000000000000000000000000000000000000\n        /* \"#utility.yul\":15933:15934   */\n      0x00\n        /* \"#utility.yul\":15925:15931   */\n      dup3\n        /* \"#utility.yul\":15921:15935   */\n      add\n        /* \"#utility.yul\":15914:15952   */\n      mstore\n        /* \"#utility.yul\":15797:15959   */\n      pop\n      jump\t// out\n        /* \"#utility.yul\":15965:16331   */\n    tag_234:\n        /* \"#utility.yul\":16107:16110   */\n      0x00\n        /* \"#utility.yul\":16128:16195   */\n      tag_422\n        /* \"#utility.yul\":16192:16194   */\n      0x0c\n        /* \"#utility.yul\":16187:16190   */\n      dup4\n        /* \"#utility.yul\":16128:16195   */\n      tag_205\n      jump\t// in\n    tag_422:\n        /* \"#utility.yul\":16121:16195   */\n      swap2\n      pop\n        /* \"#utility.yul\":16204:16297   */\n      tag_423\n        /* \"#utility.yul\":16293:16296   */\n      dup3\n        /* \"#utility.yul\":16204:16297   */\n      tag_233\n      jump\t// in\n    tag_423:\n        /* \"#utility.yul\":16322:16324   */\n      0x20\n        /* \"#utility.yul\":16317:16320   */\n      dup3\n        /* \"#utility.yul\":16313:16325   */\n      add\n        /* \"#utility.yul\":16306:16325   */\n      swap1\n      pop\n        /* \"#utility.yul\":15965:16331   */\n      swap2\n      swap1\n      pop\n      jump\t// out\n        /* \"#utility.yul\":16337:16756   */\n    tag_133:\n        /* \"#utility.yul\":16503:16507   */\n      0x00\n        /* \"#utility.yul\":16541:16543   */\n      0x20\n        /* \"#utility.yul\":16530:16539   */\n      dup3\n        /* \"#utility.yul\":16526:16544   */\n      add\n        /* \"#utility.yul\":16518:16544   */\n      swap1\n      pop\n        /* \"#utility.yul\":16590:16599   */\n      dup2\n        /* \"#utility.yul\":16584:16588   */\n      dup2\n        /* \"#utility.yul\":16580:16600   */\n      sub\n        /* \"#utility.yul\":16576:16577   */\n      0x00\n        /* \"#utility.yul\":16565:16574   */\n      dup4\n        /* \"#utility.yul\":16561:16578   */\n      add\n        /* \"#utility.yul\":16554:16601   */\n      mstore\n        /* \"#utility.yul\":16618:16749   */\n      tag_425\n        /* \"#utility.yul\":16744:16748   */\n      dup2\n        /* \"#utility.yul\":16618:16749   */\n      tag_234\n      jump\t// in\n    tag_425:\n        /* \"#utility.yul\":16610:16749   */\n      swap1\n      pop\n        /* \"#utility.yul\":16337:16756   */\n      swap2\n      swap1\n      pop\n      jump\t// out\n        /* \"#utility.yul\":16762:16925   */\n    tag_235:\n        /* \"#utility.yul\":16902:16917   */\n      0x4f72646572206578706972656400000000000000000000000000000000000000\n        /* \"#utility.yul\":16898:16899   */\n      0x00\n        /* \"#utility.yul\":16890:16896   */\n      dup3\n        /* \"#utility.yul\":16886:16900   */\n      add\n        /* \"#utility.yul\":16879:16918   */\n      mstore\n        /* \"#utility.yul\":16762:16925   */\n      pop\n      jump\t// out\n        /* \"#utility.yul\":16931:17297   */\n    tag_236:\n        /* \"#utility.yul\":17073:17076   */\n      0x00\n        /* \"#utility.yul\":17094:17161   */\n      tag_428\n        /* \"#utility.yul\":17158:17160   */\n      0x0d\n        /* \"#utility.yul\":17153:17156   */\n      dup4\n        /* \"#utility.yul\":17094:17161   */\n      tag_205\n      jump\t// in\n    tag_428:\n        /* \"#utility.yul\":17087:17161   */\n      swap2\n      pop\n        /* \"#utility.yul\":17170:17263   */\n      tag_429\n        /* \"#utility.yul\":17259:17262   */\n      dup3\n        /* \"#utility.yul\":17170:17263   */\n      tag_235\n      jump\t// in\n    tag_429:\n        /* \"#utility.yul\":17288:17290   */\n      0x20\n        /* \"#utility.yul\":17283:17286   */\n      dup3\n        /* \"#utility.yul\":17279:17291   */\n      add\n        /* \"#utility.yul\":17272:17291   */\n      swap1\n      pop\n        /* \"#utility.yul\":16931:17297   */\n      swap2\n      swap1\n      pop\n      jump\t// out\n        /* \"#utility.yul\":17303:17722   */\n    tag_136:\n        /* \"#utility.yul\":17469:17473   */\n      0x00\n        /* \"#utility.yul\":17507:17509   */\n      0x20\n        /* \"#utility.yul\":17496:17505   */\n      dup3\n        /* \"#utility.yul\":17492:17510   */\n      add\n        /* \"#utility.yul\":17484:17510   */\n      swap1\n      pop\n        /* \"#utility.yul\":17556:17565   */\n      dup2\n        /* \"#utility.yul\":17550:17554   */\n      dup2\n        /* \"#utility.yul\":17546:17566   */\n      sub\n        /* \"#utility.yul\":17542:17543   */\n      0x00\n        /* \"#utility.yul\":17531:17540   */\n      dup4\n        /* \"#utility.yul\":17527:17544   */\n      add\n        /* \"#utility.yul\":17520:17567   */\n      mstore\n        /* \"#utility.yul\":17584:17715   */\n      tag_431\n        /* \"#utility.yul\":17710:17714   */\n      dup2\n        /* \"#utility.yul\":17584:17715   */\n      tag_236\n      jump\t// in\n    tag_431:\n        /* \"#utility.yul\":17576:17715   */\n      swap1\n      pop\n        /* \"#utility.yul\":17303:17722   */\n      swap2\n      swap1\n      pop\n      jump\t// out\n        /* \"#utility.yul\":17728:17903   */\n    tag_237:\n        /* \"#utility.yul\":17868:17895   */\n      0x496e76616c696420737461747573207472616e736974696f6e00000000000000\n        /* \"#utility.yul\":17864:17865   */\n      0x00\n        /* \"#utility.yul\":17856:17862   */\n      dup3\n        /* \"#utility.yul\":17852:17866   */\n      add\n        /* \"#utility.yul\":17845:17896   */\n      mstore\n        /* \"#utility.yul\":17728:17903   */\n      pop\n      jump\t// out\n        /* \"#utility.yul\":17909:18275   */\n    tag_238:\n        /* \"#utility.yul\":18051:18054   */\n      0x00\n        /* \"#utility.yul\":18072:18139   */\n      tag_434\n        /* \"#utility.yul\":18136:18138   */\n      0x19\n        /* \"#utility.yul\":18131:18134   */\n      dup4\n        /* \"#utility.yul\":18072:18139   */\n      tag_205\n      jump\t// in\n    tag_434:\n        /* \"#utility.yul\":18065:18139   */\n      swap2\n      pop\n        /* \"#utility.yul\":18148:18241   */\n      tag_435\n        /* \"#utility.yul\":18237:18240   */\n      dup3\n        /* \"#utility.yul\":18148:18241   */\n      tag_237\n      jump\t// in\n    tag_435:\n        /* \"#utility.yul\":18266:18268   */\n      0x20\n        /* \"#utility.yul\":18261:18264   */\n      dup3\n        /* \"#utility.yul\":18257:18269   */\n      add\n        /* \"#utility.yul\":18250:18269   */\n      swap1\n      pop\n        /* \"#utility.yul\":17909:18275   */\n      swap2\n      swap1\n      pop\n      jump\t// out\n        /* \"#utility.yul\":18281:18700   */\n    tag_140:\n        /* \"#utility.yul\":18447:18451   */\n      0x00\n        /* \"#utility.yul\":18485:18487   */\n      0x20\n        /* \"#utility.yul\":18474:18483   */\n      dup3\n        /* \"#utility.yul\":18470:18488   */\n      add\n        /* \"#utility.yul\":18462:18488   */\n      swap1\n      pop\n        /* \"#utility.yul\":18534:18543   */\n      dup2\n        /* \"#utility.yul\":18528:18532   */\n      dup2\n        /* \"#utility.yul\":18524:18544   */\n      sub\n        /* \"#utility.yul\":18520:18521   */\n      0x00\n        /* \"#utility.yul\":18509:18518   */\n      dup4\n        /* \"#utility.yul\":18505:18522   */\n      add\n        /* \"#utility.yul\":18498:18545   */\n      mstore\n        /* \"#utility.yul\":18562:18693   */\n      tag_437\n        /* \"#utility.yul\":18688:18692   */\n      dup2\n        /* \"#utility.yul\":18562:18693   */\n      tag_238\n      jump\t// in\n    tag_437:\n        /* \"#utility.yul\":18554:18693   */\n      swap1\n      pop\n        /* \"#utility.yul\":18281:18700   */\n      swap2\n      swap1\n      pop\n      jump\t// out\n        /* \"#utility.yul\":18706:18928   */\n    tag_149:\n        /* \"#utility.yul\":18799:18803   */\n      0x00\n        /* \"#utility.yul\":18837:18839   */\n      0x20\n        /* \"#utility.yul\":18826:18835   */\n      dup3\n        /* \"#utility.yul\":18822:18840   */\n      add\n        /* \"#utility.yul\":18814:18840   */\n      swap1\n      pop\n        /* \"#utility.yul\":18850:18921   */\n      tag_439\n        /* \"#utility.yul\":18918:18919   */\n      0x00\n        /* \"#utility.yul\":18907:18916   */\n      dup4\n        /* \"#utility.yul\":18903:18920   */\n      add\n        /* \"#utility.yul\":18894:18900   */\n      dup5\n        /* \"#utility.yul\":18850:18921   */\n      tag_203\n      jump\t// in\n    tag_439:\n        /* \"#utility.yul\":18706:18928   */\n      swap3\n      swap2\n      pop\n      pop\n      jump\t// out\n        /* \"#utility.yul\":18934:19180   */\n    tag_153:\n        /* \"#utility.yul\":19039:19043   */\n      0x00\n        /* \"#utility.yul\":19077:19079   */\n      0x20\n        /* \"#utility.yul\":19066:19075   */\n      dup3\n        /* \"#utility.yul\":19062:19080   */\n      add\n        /* \"#utility.yul\":19054:19080   */\n      swap1\n      pop\n        /* \"#utility.yul\":19090:19173   */\n      tag_441\n        /* \"#utility.yul\":19170:19171   */\n      0x00\n        /* \"#utility.yul\":19159:19168   */\n      dup4\n        /* \"#utility.yul\":19155:19172   */\n      add\n        /* \"#utility.yul\":19146:19152   */\n      dup5\n        /* \"#utility.yul\":19090:19173   */\n      tag_214\n      jump\t// in\n    tag_441:\n        /* \"#utility.yul\":18934:19180   */\n      swap3\n      swap2\n      pop\n      pop\n      jump\t// out\n        /* \"#utility.yul\":19186:19366   */\n    tag_159:\n        /* \"#utility.yul\":19234:19311   */\n      0x4e487b7100000000000000000000000000000000000000000000000000000000\n        /* \"#utility.yul\":19231:19232   */\n      0x00\n        /* \"#utility.yul\":19224:19312   */\n      mstore\n        /* \"#utility.yul\":19331:19335   */\n      0x32\n        /* \"#utility.yul\":19328:19329   */\n      0x04\n        /* \"#utility.yul\":19321:19336   */\n      mstore\n        /* \"#utility.yul\":19355:19359   */\n      0x24\n        /* \"#utility.yul\":19352:19353   */\n      0x00\n        /* \"#utility.yul\":19345:19360   */\n      revert\n        /* \"#utility.yul\":19372:19521   */\n    tag_239:\n        /* \"#utility.yul\":19421:19427   */\n      0x00\n        /* \"#utility.yul\":19455:19460   */\n      dup2\n        /* \"#utility.yul\":19449:19461   */\n      sload\n        /* \"#utility.yul\":19439:19461   */\n      swap1\n      pop\n        /* \"#utility.yul\":19481:19514   */\n      tag_444\n        /* \"#utility.yul\":19507:19513   */\n      dup2\n        /* \"#utility.yul\":19481:19514   */\n      tag_119\n      jump\t// in\n    tag_444:\n        /* \"#utility.yul\":19471:19514   */\n      swap1\n      pop\n        /* \"#utility.yul\":19372:19521   */\n      swap2\n      swap1\n      pop\n      jump\t// out\n        /* \"#utility.yul\":19527:20978   */\n    tag_162:\n        /* \"#utility.yul\":19638:19641   */\n      dup2\n        /* \"#utility.yul\":19632:19636   */\n      dup2\n        /* \"#utility.yul\":19629:19642   */\n      sub\n        /* \"#utility.yul\":19626:19652   */\n      tag_446\n      jumpi\n        /* \"#utility.yul\":19645:19650   */\n      pop\n      pop\n      jump(tag_445)\n        /* \"#utility.yul\":19626:19652   */\n    tag_446:\n        /* \"#utility.yul\":19676:19710   */\n      tag_447\n        /* \"#utility.yul\":19706:19709   */\n      dup3\n        /* \"#utility.yul\":19676:19710   */\n      tag_239\n      jump\t// in\n    tag_447:\n        /* \"#utility.yul\":19775:19793   */\n      0xffffffffffffffff\n        /* \"#utility.yul\":19767:19773   */\n      dup2\n        /* \"#utility.yul\":19764:19794   */\n      gt\n        /* \"#utility.yul\":19761:19817   */\n      iszero\n      tag_448\n      jumpi\n        /* \"#utility.yul\":19797:19815   */\n      tag_449\n      tag_192\n      jump\t// in\n    tag_449:\n        /* \"#utility.yul\":19761:19817   */\n    tag_448:\n        /* \"#utility.yul\":19841:19879   */\n      tag_450\n        /* \"#utility.yul\":19873:19877   */\n      dup3\n        /* \"#utility.yul\":19867:19878   */\n      sload\n        /* \"#utility.yul\":19841:19879   */\n      tag_119\n      jump\t// in\n    tag_450:\n        /* \"#utility.yul\":19926:19993   */\n      tag_451\n        /* \"#utility.yul\":19986:19992   */\n      dup3\n        /* \"#utility.yul\":19978:19984   */\n      dup3\n        /* \"#utility.yul\":19972:19976   */\n      dup6\n        /* \"#utility.yul\":19926:19993   */\n      tag_229\n      jump\t// in\n    tag_451:\n        /* \"#utility.yul\":20020:20021   */\n      0x00\n        /* \"#utility.yul\":20049:20051   */\n      0x1f\n        /* \"#utility.yul\":20041:20047   */\n      dup4\n        /* \"#utility.yul\":20038:20052   */\n      gt\n        /* \"#utility.yul\":20066:20067   */\n      0x01\n        /* \"#utility.yul\":20061:20733   */\n      dup2\n      eq\n      tag_453\n      jumpi\n        /* \"#utility.yul\":20777:20778   */\n      0x00\n        /* \"#utility.yul\":20794:20800   */\n      dup5\n        /* \"#utility.yul\":20791:20868   */\n      iszero\n      tag_454\n      jumpi\n        /* \"#utility.yul\":20843:20852   */\n      dup3\n        /* \"#utility.yul\":20838:20841   */\n      dup8\n        /* \"#utility.yul\":20834:20853   */\n      add\n        /* \"#utility.yul\":20828:20854   */\n      sload\n        /* \"#utility.yul\":20819:20854   */\n      swap1\n      pop\n        /* \"#utility.yul\":20791:20868   */\n    tag_454:\n        /* \"#utility.yul\":20894:20961   */\n      tag_455\n        /* \"#utility.yul\":20954:20960   */\n      dup6\n        /* \"#utility.yul\":20947:20952   */\n      dup3\n        /* \"#utility.yul\":20894:20961   */\n      tag_232\n      jump\t// in\n    tag_455:\n        /* \"#utility.yul\":20888:20892   */\n      dup7\n        /* \"#utility.yul\":20881:20962   */\n      sstore\n        /* \"#utility.yul\":20750:20972   */\n      pop\n        /* \"#utility.yul\":20031:20972   */\n      jump(tag_452)\n        /* \"#utility.yul\":20061:20733   */\n    tag_453:\n        /* \"#utility.yul\":20113:20117   */\n      0x1f\n        /* \"#utility.yul\":20109:20118   */\n      not\n        /* \"#utility.yul\":20101:20107   */\n      dup5\n        /* \"#utility.yul\":20097:20119   */\n      and\n        /* \"#utility.yul\":20139:20175   */\n      tag_456\n        /* \"#utility.yul\":20171:20174   */\n      dup8\n        /* \"#utility.yul\":20139:20175   */\n      tag_218\n      jump\t// in\n    tag_456:\n        /* \"#utility.yul\":20132:20175   */\n      swap7\n      pop\n        /* \"#utility.yul\":20202:20239   */\n      tag_457\n        /* \"#utility.yul\":20234:20238   */\n      dup7\n        /* \"#utility.yul\":20202:20239   */\n      tag_218\n      jump\t// in\n    tag_457:\n        /* \"#utility.yul\":20261:20262   */\n      0x00\n        /* \"#utility.yul\":20275:20482   */\n    tag_458:\n        /* \"#utility.yul\":20289:20296   */\n      dup3\n        /* \"#utility.yul\":20286:20287   */\n      dup2\n        /* \"#utility.yul\":20283:20297   */\n      lt\n        /* \"#utility.yul\":20275:20482   */\n      iszero\n      tag_460\n      jumpi\n        /* \"#utility.yul\":20368:20377   */\n      dup5\n        /* \"#utility.yul\":20363:20366   */\n      dup10\n        /* \"#utility.yul\":20359:20378   */\n      add\n        /* \"#utility.yul\":20353:20379   */\n      sload\n        /* \"#utility.yul\":20345:20351   */\n      dup3\n        /* \"#utility.yul\":20338:20380   */\n      sstore\n        /* \"#utility.yul\":20419:20420   */\n      0x01\n        /* \"#utility.yul\":20411:20417   */\n      dup3\n        /* \"#utility.yul\":20407:20421   */\n      add\n        /* \"#utility.yul\":20397:20421   */\n      swap2\n      pop\n        /* \"#utility.yul\":20466:20467   */\n      0x01\n        /* \"#utility.yul\":20455:20464   */\n      dup6\n        /* \"#utility.yul\":20451:20468   */\n      add\n        /* \"#utility.yul\":20438:20468   */\n      swap5\n      pop\n        /* \"#utility.yul\":20312:20316   */\n      0x20\n        /* \"#utility.yul\":20309:20310   */\n      dup2\n        /* \"#utility.yul\":20305:20317   */\n      add\n        /* \"#utility.yul\":20300:20317   */\n      swap1\n      pop\n        /* \"#utility.yul\":20275:20482   */\n      jump(tag_458)\n    tag_460:\n        /* \"#utility.yul\":20510:20516   */\n      dup7\n        /* \"#utility.yul\":20501:20508   */\n      dup4\n        /* \"#utility.yul\":20498:20517   */\n      lt\n        /* \"#utility.yul\":20495:20674   */\n      iszero\n      tag_461\n      jumpi\n        /* \"#utility.yul\":20568:20577   */\n      dup5\n        /* \"#utility.yul\":20563:20566   */\n      dup10\n        /* \"#utility.yul\":20559:20578   */\n      add\n        /* \"#utility.yul\":20553:20579   */\n      sload\n        /* \"#utility.yul\":20611:20659   */\n      tag_462\n        /* \"#utility.yul\":20653:20657   */\n      0x1f\n        /* \"#utility.yul\":20645:20651   */\n      dup10\n        /* \"#utility.yul\":20641:20658   */\n      and\n        /* \"#utility.yul\":20630:20639   */\n      dup3\n        /* \"#utility.yul\":20611:20659   */\n      tag_231\n      jump\t// in\n    tag_462:\n        /* \"#utility.yul\":20603:20609   */\n      dup4\n        /* \"#utility.yul\":20596:20660   */\n      sstore\n        /* \"#utility.yul\":20518:20674   */\n      pop\n        /* \"#utility.yul\":20495:20674   */\n    tag_461:\n        /* \"#utility.yul\":20720:20721   */\n      0x01\n        /* \"#utility.yul\":20716:20717   */\n      0x02\n        /* \"#utility.yul\":20708:20714   */\n      dup9\n        /* \"#utility.yul\":20704:20718   */\n      mul\n        /* \"#utility.yul\":20700:20722   */\n      add\n        /* \"#utility.yul\":20694:20698   */\n      dup9\n        /* \"#utility.yul\":20687:20723   */\n      sstore\n        /* \"#utility.yul\":20068:20733   */\n      pop\n      pop\n      pop\n        /* \"#utility.yul\":20031:20972   */\n    tag_452:\n      pop\n        /* \"#utility.yul\":19616:20978   */\n      pop\n      pop\n      pop\n        /* \"#utility.yul\":19527:20978   */\n      pop\n      pop\n    tag_445:\n      jump\t// out\n        /* \"#utility.yul\":20984:21517   */\n    tag_164:\n        /* \"#utility.yul\":21153:21157   */\n      0x00\n        /* \"#utility.yul\":21191:21193   */\n      0x60\n        /* \"#utility.yul\":21180:21189   */\n      dup3\n        /* \"#utility.yul\":21176:21194   */\n      add\n        /* \"#utility.yul\":21168:21194   */\n      swap1\n      pop\n        /* \"#utility.yul\":21240:21249   */\n      dup2\n        /* \"#utility.yul\":21234:21238   */\n      dup2\n        /* \"#utility.yul\":21230:21250   */\n      sub\n        /* \"#utility.yul\":21226:21227   */\n      0x00\n        /* \"#utility.yul\":21215:21224   */\n      dup4\n        /* \"#utility.yul\":21211:21228   */\n      add\n        /* \"#utility.yul\":21204:21251   */\n      mstore\n        /* \"#utility.yul\":21268:21346   */\n      tag_464\n        /* \"#utility.yul\":21341:21345   */\n      dup2\n        /* \"#utility.yul\":21332:21338   */\n      dup7\n        /* \"#utility.yul\":21268:21346   */\n      tag_207\n      jump\t// in\n    tag_464:\n        /* \"#utility.yul\":21260:21346   */\n      swap1\n      pop\n        /* \"#utility.yul\":21356:21428   */\n      tag_465\n        /* \"#utility.yul\":21424:21426   */\n      0x20\n        /* \"#utility.yul\":21413:21422   */\n      dup4\n        /* \"#utility.yul\":21409:21427   */\n      add\n        /* \"#utility.yul\":21400:21406   */\n      dup6\n        /* \"#utility.yul\":21356:21428   */\n      tag_203\n      jump\t// in\n    tag_465:\n        /* \"#utility.yul\":21438:21510   */\n      tag_466\n        /* \"#utility.yul\":21506:21508   */\n      0x40\n        /* \"#utility.yul\":21495:21504   */\n      dup4\n        /* \"#utility.yul\":21491:21509   */\n      add\n        /* \"#utility.yul\":21482:21488   */\n      dup5\n        /* \"#utility.yul\":21438:21510   */\n      tag_210\n      jump\t// in\n    tag_466:\n        /* \"#utility.yul\":20984:21517   */\n      swap5\n      swap4\n      pop\n      pop\n      pop\n      pop\n      jump\t// out\n        /* \"#utility.yul\":21523:21694   */\n    tag_240:\n        /* \"#utility.yul\":21663:21686   */\n      0x50726f64756374206e6f7420617661696c61626c650000000000000000000000\n        /* \"#utility.yul\":21659:21660   */\n      0x00\n        /* \"#utility.yul\":21651:21657   */\n      dup3\n        /* \"#utility.yul\":21647:21661   */\n      add\n        /* \"#utility.yul\":21640:21687   */\n      mstore\n        /* \"#utility.yul\":21523:21694   */\n      pop\n      jump\t// out\n        /* \"#utility.yul\":21700:22066   */\n    tag_241:\n        /* \"#utility.yul\":21842:21845   */\n      0x00\n        /* \"#utility.yul\":21863:21930   */\n      tag_469\n        /* \"#utility.yul\":21927:21929   */\n      0x15\n        /* \"#utility.yul\":21922:21925   */\n      dup4\n        /* \"#utility.yul\":21863:21930   */\n      tag_205\n      jump\t// in\n    tag_469:\n        /* \"#utility.yul\":21856:21930   */\n      swap2\n      pop\n        /* \"#utility.yul\":21939:22032   */\n      tag_470\n        /* \"#utility.yul\":22028:22031   */\n      dup3\n        /* \"#utility.yul\":21939:22032   */\n      tag_240\n      jump\t// in\n    tag_470:\n        /* \"#utility.yul\":22057:22059   */\n      0x20\n        /* \"#utility.yul\":22052:22055   */\n      dup3\n        /* \"#utility.yul\":22048:22060   */\n      add\n        /* \"#utility.yul\":22041:22060   */\n      swap1\n      pop\n        /* \"#utility.yul\":21700:22066   */\n      swap2\n      swap1\n      pop\n      jump\t// out\n        /* \"#utility.yul\":22072:22491   */\n    tag_168:\n        /* \"#utility.yul\":22238:22242   */\n      0x00\n        /* \"#utility.yul\":22276:22278   */\n      0x20\n        /* \"#utility.yul\":22265:22274   */\n      dup3\n        /* \"#utility.yul\":22261:22279   */\n      add\n        /* \"#utility.yul\":22253:22279   */\n      swap1\n      pop\n        /* \"#utility.yul\":22325:22334   */\n      dup2\n        /* \"#utility.yul\":22319:22323   */\n      dup2\n        /* \"#utility.yul\":22315:22335   */\n      sub\n        /* \"#utility.yul\":22311:22312   */\n      0x00\n        /* \"#utility.yul\":22300:22309   */\n      dup4\n        /* \"#utility.yul\":22296:22313   */\n      add\n        /* \"#utility.yul\":22289:22336   */\n      mstore\n        /* \"#utility.yul\":22353:22484   */\n      tag_472\n        /* \"#utility.yul\":22479:22483   */\n      dup2\n        /* \"#utility.yul\":22353:22484   */\n      tag_241\n      jump\t// in\n    tag_472:\n        /* \"#utility.yul\":22345:22484   */\n      swap1\n      pop\n        /* \"#utility.yul\":22072:22491   */\n      swap2\n      swap1\n      pop\n      jump\t// out\n        /* \"#utility.yul\":22497:22671   */\n    tag_242:\n        /* \"#utility.yul\":22637:22663   */\n      0x496e636f7272656374207061796d656e7420616d6f756e740000000000000000\n        /* \"#utility.yul\":22633:22634   */\n      0x00\n        /* \"#utility.yul\":22625:22631   */\n      dup3\n        /* \"#utility.yul\":22621:22635   */\n      add\n        /* \"#utility.yul\":22614:22664   */\n      mstore\n        /* \"#utility.yul\":22497:22671   */\n      pop\n      jump\t// out\n        /* \"#utility.yul\":22677:23043   */\n    tag_243:\n        /* \"#utility.yul\":22819:22822   */\n      0x00\n        /* \"#utility.yul\":22840:22907   */\n      tag_475\n        /* \"#utility.yul\":22904:22906   */\n      0x18\n        /* \"#utility.yul\":22899:22902   */\n      dup4\n        /* \"#utility.yul\":22840:22907   */\n      tag_205\n      jump\t// in\n    tag_475:\n        /* \"#utility.yul\":22833:22907   */\n      swap2\n      pop\n        /* \"#utility.yul\":22916:23009   */\n      tag_476\n        /* \"#utility.yul\":23005:23008   */\n      dup3\n        /* \"#utility.yul\":22916:23009   */\n      tag_242\n      jump\t// in\n    tag_476:\n        /* \"#utility.yul\":23034:23036   */\n      0x20\n        /* \"#utility.yul\":23029:23032   */\n      dup3\n        /* \"#utility.yul\":23025:23037   */\n      add\n        /* \"#utility.yul\":23018:23037   */\n      swap1\n      pop\n        /* \"#utility.yul\":22677:23043   */\n      swap2\n      swap1\n      pop\n      jump\t// out\n        /* \"#utility.yul\":23049:23468   */\n    tag_171:\n        /* \"#utility.yul\":23215:23219   */\n      0x00\n        /* \"#utility.yul\":23253:23255   */\n      0x20\n        /* \"#utility.yul\":23242:23251   */\n      dup3\n        /* \"#utility.yul\":23238:23256   */\n      add\n        /* \"#utility.yul\":23230:23256   */\n      swap1\n      pop\n        /* \"#utility.yul\":23302:23311   */\n      dup2\n        /* \"#utility.yul\":23296:23300   */\n      dup2\n        /* \"#utility.yul\":23292:23312   */\n      sub\n        /* \"#utility.yul\":23288:23289   */\n      0x00\n        /* \"#utility.yul\":23277:23286   */\n      dup4\n        /* \"#utility.yul\":23273:23290   */\n      add\n        /* \"#utility.yul\":23266:23313   */\n      mstore\n        /* \"#utility.yul\":23330:23461   */\n      tag_478\n        /* \"#utility.yul\":23456:23460   */\n      dup2\n        /* \"#utility.yul\":23330:23461   */\n      tag_243\n      jump\t// in\n    tag_478:\n        /* \"#utility.yul\":23322:23461   */\n      swap1\n      pop\n        /* \"#utility.yul\":23049:23468   */\n      swap2\n      swap1\n      pop\n      jump\t// out\n        /* \"#utility.yul\":23474:23654   */\n    tag_244:\n        /* \"#utility.yul\":23522:23599   */\n      0x4e487b7100000000000000000000000000000000000000000000000000000000\n        /* \"#utility.yul\":23519:23520   */\n      0x00\n        /* \"#utility.yul\":23512:23600   */\n      mstore\n        /* \"#utility.yul\":23619:23623   */\n      0x11\n        /* \"#utility.yul\":23616:23617   */\n      0x04\n        /* \"#utility.yul\":23609:23624   */\n      mstore\n        /* \"#utility.yul\":23643:23647   */\n      0x24\n        /* \"#utility.yul\":23640:23641   */\n      0x00\n        /* \"#utility.yul\":23633:23648   */\n      revert\n        /* \"#utility.yul\":23660:23893   */\n    tag_173:\n        /* \"#utility.yul\":23699:23702   */\n      0x00\n        /* \"#utility.yul\":23722:23746   */\n      tag_481\n        /* \"#utility.yul\":23740:23745   */\n      dup3\n        /* \"#utility.yul\":23722:23746   */\n      tag_186\n      jump\t// in\n    tag_481:\n        /* \"#utility.yul\":23713:23746   */\n      swap2\n      pop\n        /* \"#utility.yul\":23768:23834   */\n      0xffffffffffffffffffffffffffffffffffffffffffffffffffffffffffffffff\n        /* \"#utility.yul\":23761:23766   */\n      dup3\n        /* \"#utility.yul\":23758:23835   */\n      sub\n        /* \"#utility.yul\":23755:23858   */\n      tag_482\n      jumpi\n        /* \"#utility.yul\":23838:23856   */\n      tag_483\n      tag_244\n      jump\t// in\n    tag_483:\n        /* \"#utility.yul\":23755:23858   */\n    tag_482:\n        /* \"#utility.yul\":23885:23886   */\n      0x01\n        /* \"#utility.yul\":23878:23883   */\n      dup3\n        /* \"#utility.yul\":23874:23887   */\n      add\n        /* \"#utility.yul\":23867:23887   */\n      swap1\n      pop\n        /* \"#utility.yul\":23660:23893   */\n      swap2\n      swap1\n      pop\n      jump\t// out\n        /* \"#utility.yul\":23899:24452   */\n    tag_175:\n        /* \"#utility.yul\":24076:24080   */\n      0x00\n        /* \"#utility.yul\":24114:24117   */\n      0x80\n        /* \"#utility.yul\":24103:24112   */\n      dup3\n        /* \"#utility.yul\":24099:24118   */\n      add\n        /* \"#utility.yul\":24091:24118   */\n      swap1\n      pop\n        /* \"#utility.yul\":24128:24199   */\n      tag_485\n        /* \"#utility.yul\":24196:24197   */\n      0x00\n        /* \"#utility.yul\":24185:24194   */\n      dup4\n        /* \"#utility.yul\":24181:24198   */\n      add\n        /* \"#utility.yul\":24172:24178   */\n      dup8\n        /* \"#utility.yul\":24128:24199   */\n      tag_210\n      jump\t// in\n    tag_485:\n        /* \"#utility.yul\":24209:24281   */\n      tag_486\n        /* \"#utility.yul\":24277:24279   */\n      0x20\n        /* \"#utility.yul\":24266:24275   */\n      dup4\n        /* \"#utility.yul\":24262:24280   */\n      add\n        /* \"#utility.yul\":24253:24259   */\n      dup7\n        /* \"#utility.yul\":24209:24281   */\n      tag_203\n      jump\t// in\n    tag_486:\n        /* \"#utility.yul\":24291:24363   */\n      tag_487\n        /* \"#utility.yul\":24359:24361   */\n      0x40\n        /* \"#utility.yul\":24348:24357   */\n      dup4\n        /* \"#utility.yul\":24344:24362   */\n      add\n        /* \"#utility.yul\":24335:24341   */\n      dup6\n        /* \"#utility.yul\":24291:24363   */\n      tag_203\n      jump\t// in\n    tag_487:\n        /* \"#utility.yul\":24373:24445   */\n      tag_488\n        /* \"#utility.yul\":24441:24443   */\n      0x60\n        /* \"#utility.yul\":24430:24439   */\n      dup4\n        /* \"#utility.yul\":24426:24444   */\n      add\n        /* \"#utility.yul\":24417:24423   */\n      dup5\n        /* \"#utility.yul\":24373:24445   */\n      tag_203\n      jump\t// in\n    tag_488:\n        /* \"#utility.yul\":23899:24452   */\n      swap6\n      swap5\n      pop\n      pop\n      pop\n      pop\n      pop\n      jump\t// out\n        /* \"#utility.yul\":24458:24649   */\n    tag_179:\n        /* \"#utility.yul\":24498:24501   */\n      0x00\n        /* \"#utility.yul\":24517:24537   */\n      tag_490\n        /* \"#utility.yul\":24535:24536   */\n      dup3\n        /* \"#utility.yul\":24517:24537   */\n      tag_186\n      jump\t// in\n    tag_490:\n        /* \"#utility.yul\":24512:24537   */\n      swap2\n      pop\n        /* \"#utility.yul\":24551:24571   */\n      tag_491\n        /* \"#utility.yul\":24569:24570   */\n      dup4\n        /* \"#utility.yul\":24551:24571   */\n      tag_186\n      jump\t// in\n    tag_491:\n        /* \"#utility.yul\":24546:24571   */\n      swap3\n      pop\n        /* \"#utility.yul\":24594:24595   */\n      dup3\n        /* \"#utility.yul\":24591:24592   */\n      dup3\n        /* \"#utility.yul\":24587:24596   */\n      add\n        /* \"#utility.yul\":24580:24596   */\n      swap1\n      pop\n        /* \"#utility.yul\":24615:24618   */\n      dup1\n        /* \"#utility.yul\":24612:24613   */\n      dup3\n        /* \"#utility.yul\":24609:24619   */\n      gt\n        /* \"#utility.yul\":24606:24642   */\n      iszero\n      tag_492\n      jumpi\n        /* \"#utility.yul\":24622:24640   */\n      tag_493\n      tag_244\n      jump\t// in\n    tag_493:\n        /* \"#utility.yul\":24606:24642   */\n    tag_492:\n        /* \"#utility.yul\":24458:24649   */\n      swap3\n      swap2\n      pop\n      pop\n      jump\t// out\n\n    auxdata: 0xa2646970667358221220c7fddfa6a94093441d765666db98e62549b96cfa0027d23c4a59fe0c6a8a30b764736f6c634300081e0033\n}\n",
				"bytecode": {
					"linkReferences": {},
					"object": "6080604052348015600e575f5ffd5b50611c4f8061001c5f395ff3fe60806040526004361061007a575f3560e01c8063a85c38ef1161004d578063a85c38ef14610162578063aab3196d146101a2578063b15247d9146101ca578063f8ad8cd7146101f25761007a565b806361c18c8a1461007e57806379412d28146100a65780637acc0b20146100e2578063a30b475f14610122575b5f5ffd5b348015610089575f5ffd5b506100a4600480360381019061009f91906110d1565b61020e565b005b3480156100b1575f5ffd5b506100cc60048036038101906100c79190611160565b6102ef565b6040516100d991906111b8565b60405180910390f35b3480156100ed575f5ffd5b50610108600480360381019061010391906111d1565b6104f7565b6040516101199594939291906112aa565b60405180910390f35b34801561012d575f5ffd5b50610148600480360381019061014391906111d1565b6105e9565b6040516101599594939291906112aa565b60405180910390f35b34801561016d575f5ffd5b50610188600480360381019061018391906111d1565b6106cd565b604051610199959493929190611375565b60405180910390f35b3480156101ad575f5ffd5b506101c860048036038101906101c391906113c6565b61072a565b005b3480156101d5575f5ffd5b506101f060048036038101906101eb9190611404565b610a8f565b005b61020c600480360381019061020791906111d1565b610cbb565b005b3373ffffffffffffffffffffffffffffffffffffffff1660015f8581526020019081526020015f206003015f9054906101000a900473ffffffffffffffffffffffffffffffffffffffff1673ffffffffffffffffffffffffffffffffffffffff16146102af576040517f08c379a00000000000000000000000000000000000000000000000000000000081526004016102a6906114a8565b60405180910390fd5b8160015f8581526020019081526020015f2060010190816102d091906116c3565b508060015f8581526020019081526020015f2060020181905550505050565b5f5f600581111561030357610302611302565b5b83600581111561031657610315611302565b5b14801561034757506001600581111561033257610331611302565b5b82600581111561034557610344611302565b5b145b806103d457506001600581111561036157610360611302565b5b83600581111561037457610373611302565b5b1480156103d35750600260058111156103905761038f611302565b5b8260058111156103a3576103a2611302565b5b14806103d257506005808111156103bd576103bc611302565b5b8260058111156103d0576103cf611302565b5b145b5b5b806104335750600260058111156103ee576103ed611302565b5b83600581111561040157610400611302565b5b14801561043257506003600581111561041d5761041c611302565b5b8260058111156104305761042f611302565b5b145b5b8061049257506003600581111561044d5761044c611302565b5b8360058111156104605761045f611302565b5b14801561049157506004600581111561047c5761047b611302565b5b82600581111561048f5761048e611302565b5b145b5b806104ef57505f60058111156104ab576104aa611302565b5b8360058111156104be576104bd611302565b5b1480156104ee57506005808111156104d9576104d8611302565b5b8260058111156104ec576104eb611302565b5b145b5b905092915050565b5f8181548110610505575f80fd5b905f5260205f2090600402015f91509050805f01549080600101805461052a906114f3565b80601f0160208091040260200160405190810160405280929190818152602001828054610556906114f3565b80156105a15780601f10610578576101008083540402835291602001916105a1565b820191905f5260205f20905b81548152906001019060200180831161058457829003601f168201915b505050505090806002015490806003015f9054906101000a900473ffffffffffffffffffffffffffffffffffffffff16908060030160149054906101000a900460ff16905085565b6001602052805f5260405f205f91509050805f01549080600101805461060e906114f3565b80601f016020809104026020016040519081016040528092919081815260200182805461063a906114f3565b80156106855780601f1061065c57610100808354040283529160200191610685565b820191905f5260205f20905b81548152906001019060200180831161066857829003601f168201915b505050505090806002015490806003015f9054906101000a900473ffffffffffffffffffffffffffffffffffffffff16908060030160149054906101000a900460ff16905085565b6002602052805f5260405f205f91509050805f015490806001015f9054906101000a900473ffffffffffffffffffffffffffffffffffffffff1690806002015490806003015f9054906101000a900460ff16908060040154905085565b5f60025f8481526020019081526020015f209050806001015f9054906101000a900473ffffffffffffffffffffffffffffffffffffffff1673ffffffffffffffffffffffffffffffffffffffff163373ffffffffffffffffffffffffffffffffffffffff1614806107fd575060015f826002015481526020019081526020015f206003015f9054906101000a900473ffffffffffffffffffffffffffffffffffffffff1673ffffffffffffffffffffffffffffffffffffffff163373ffffffffffffffffffffffffffffffffffffffff16145b61083c576040517f08c379a0000000000000000000000000000000000000000000000000000000008152600401610833906117dc565b60405180910390fd5b8060040154421115610883576040517f08c379a000000000000000000000000000000000000000000000000000000000815260040161087a90611844565b60405180910390fd5b61089d816003015f9054906101000a900460ff16836102ef565b6108dc576040517f08c379a00000000000000000000000000000000000000000000000000000000081526004016108d3906118ac565b60405180910390fd5b6005808111156108ef576108ee611302565b5b82600581111561090257610901611302565b5b03610a27575f60035f8581526020019081526020015f20549050816001015f9054906101000a900473ffffffffffffffffffffffffffffffffffffffff1673ffffffffffffffffffffffffffffffffffffffff166108fc8290811502906040515f60405180830381858888f19350505050158015610982573d5f5f3e3d5ffd5b506001805f846002015481526020019081526020015f2060030160146101000a81548160ff021916908315150217905550816001015f9054906101000a900473ffffffffffffffffffffffffffffffffffffffff1673ffffffffffffffffffffffffffffffffffffffff16847fc4058ebc534b64ecb27b2d4eaa1904f98997ec18ebe6ada4117593dde89478cc83604051610a1d91906118ca565b60405180910390a3505b81816003015f6101000a81548160ff02191690836005811115610a4d57610a4c611302565b5b0217905550827fd9a86b644eb5f5b43cc8a700849852481080361c7a4b00ba646d1b46c5585f9583604051610a8291906118e3565b60405180910390a2505050565b5f5f8054905090505f6040518060a001604052808381526020018581526020018481526020013373ffffffffffffffffffffffffffffffffffffffff16815260200160011515815250908060018154018082558091505060019003905f5260205f2090600402015f909190919091505f820151815f01556020820151816001019081610b1b91906116c3565b50604082015181600201556060820151816003015f6101000a81548173ffffffffffffffffffffffffffffffffffffffff021916908373ffffffffffffffffffffffffffffffffffffffff16021790555060808201518160030160146101000a81548160ff02191690831515021790555050505f8181548110610ba157610ba06118fc565b5b905f5260205f20906004020160015f8381526020019081526020015f205f820154815f015560018201816001019081610bda919061193e565b5060028201548160020155600382015f9054906101000a900473ffffffffffffffffffffffffffffffffffffffff16816003015f6101000a81548173ffffffffffffffffffffffffffffffffffffffff021916908373ffffffffffffffffffffffffffffffffffffffff1602179055506003820160149054906101000a900460ff168160030160146101000a81548160ff021916908315150217905550905050807f52402cafb2ecec722b103e8f203f83362148c168659dc96678c2c6850d12dd9f848433604051610cae93929190611a23565b60405180910390a2505050565b60015f8281526020019081526020015f2060030160149054906101000a900460ff16610d1c576040517f08c379a0000000000000000000000000000000000000000000000000000000008152600401610d1390611aa9565b60405180910390fd5b60015f8281526020019081526020015f20600201543414610d72576040517f08c379a0000000000000000000000000000000000000000000000000000000008152600401610d6990611b11565b60405180910390fd5b5f33824260045f815480929190610d8890611b5c565b91905055604051602001610d9f9493929190611ba3565b604051602081830303815290604052805190602001205f1c90506040518060a001604052808281526020013373ffffffffffffffffffffffffffffffffffffffff16815260200183815260200160016005811115610e0057610dff611302565b5b8152602001610e1042610e139190611be6565b81525060025f8381526020019081526020015f205f820151815f01556020820151816001015f6101000a81548173ffffffffffffffffffffffffffffffffffffffff021916908373ffffffffffffffffffffffffffffffffffffffff160217905550604082015181600201556060820151816003015f6101000a81548160ff02191690836005811115610ea957610ea8611302565b5b0217905550608082015181600401559050503460035f8381526020019081526020015f20819055505f60015f8481526020019081526020015f2060030160146101000a81548160ff021916908315150217905550813373ffffffffffffffffffffffffffffffffffffffff16827ff7c110a6973307f2bc91245c2c06344ada13add2c1741e83ac5c0bb332bc85d534604051610f4591906118ca565b60405180910390a45050565b5f604051905090565b5f5ffd5b5f5ffd5b5f819050919050565b610f7481610f62565b8114610f7e575f5ffd5b50565b5f81359050610f8f81610f6b565b92915050565b5f5ffd5b5f5ffd5b5f601f19601f8301169050919050565b7f4e487b71000000000000000000000000000000000000000000000000000000005f52604160045260245ffd5b610fe382610f9d565b810181811067ffffffffffffffff8211171561100257611001610fad565b5b80604052505050565b5f611014610f51565b90506110208282610fda565b919050565b5f67ffffffffffffffff82111561103f5761103e610fad565b5b61104882610f9d565b9050602081019050919050565b828183375f83830152505050565b5f61107561107084611025565b61100b565b90508281526020810184848401111561109157611090610f99565b5b61109c848285611055565b509392505050565b5f82601f8301126110b8576110b7610f95565b5b81356110c8848260208601611063565b91505092915050565b5f5f5f606084860312156110e8576110e7610f5a565b5b5f6110f586828701610f81565b935050602084013567ffffffffffffffff81111561111657611115610f5e565b5b611122868287016110a4565b925050604061113386828701610f81565b9150509250925092565b60068110611149575f5ffd5b50565b5f8135905061115a8161113d565b92915050565b5f5f6040838503121561117657611175610f5a565b5b5f6111838582860161114c565b92505060206111948582860161114c565b9150509250929050565b5f8115159050919050565b6111b28161119e565b82525050565b5f6020820190506111cb5f8301846111a9565b92915050565b5f602082840312156111e6576111e5610f5a565b5b5f6111f384828501610f81565b91505092915050565b61120581610f62565b82525050565b5f81519050919050565b5f82825260208201905092915050565b8281835e5f83830152505050565b5f61123d8261120b565b6112478185611215565b9350611257818560208601611225565b61126081610f9d565b840191505092915050565b5f73ffffffffffffffffffffffffffffffffffffffff82169050919050565b5f6112948261126b565b9050919050565b6112a48161128a565b82525050565b5f60a0820190506112bd5f8301886111fc565b81810360208301526112cf8187611233565b90506112de60408301866111fc565b6112eb606083018561129b565b6112f860808301846111a9565b9695505050505050565b7f4e487b71000000000000000000000000000000000000000000000000000000005f52602160045260245ffd5b600681106113405761133f611302565b5b50565b5f8190506113508261132f565b919050565b5f61135f82611343565b9050919050565b61136f81611355565b82525050565b5f60a0820190506113885f8301886111fc565b611395602083018761129b565b6113a260408301866111fc565b6113af6060830185611366565b6113bc60808301846111fc565b9695505050505050565b5f5f604083850312156113dc576113db610f5a565b5b5f6113e985828601610f81565b92505060206113fa8582860161114c565b9150509250929050565b5f5f6040838503121561141a57611419610f5a565b5b5f83013567ffffffffffffffff81111561143757611436610f5e565b5b611443858286016110a4565b925050602061145485828601610f81565b9150509250929050565b7f4f6e6c792073656c6c65722063616e20757064617465000000000000000000005f82015250565b5f611492601683611215565b915061149d8261145e565b602082019050919050565b5f6020820190508181035f8301526114bf81611486565b9050919050565b7f4e487b71000000000000000000000000000000000000000000000000000000005f52602260045260245ffd5b5f600282049050600182168061150a57607f821691505b60208210810361151d5761151c6114c6565b5b50919050565b5f819050815f5260205f209050919050565b5f6020601f8301049050919050565b5f82821b905092915050565b5f6008830261157f7fffffffffffffffffffffffffffffffffffffffffffffffffffffffffffffffff82611544565b6115898683611544565b95508019841693508086168417925050509392505050565b5f819050919050565b5f6115c46115bf6115ba84610f62565b6115a1565b610f62565b9050919050565b5f819050919050565b6115dd836115aa565b6115f16115e9826115cb565b848454611550565b825550505050565b5f5f905090565b6116086115f9565b6116138184846115d4565b505050565b5b818110156116365761162b5f82611600565b600181019050611619565b5050565b601f82111561167b5761164c81611523565b61165584611535565b81016020851015611664578190505b61167861167085611535565b830182611618565b50505b505050565b5f82821c905092915050565b5f61169b5f1984600802611680565b1980831691505092915050565b5f6116b3838361168c565b9150826002028217905092915050565b6116cc8261120b565b67ffffffffffffffff8111156116e5576116e4610fad565b5b6116ef82546114f3565b6116fa82828561163a565b5f60209050601f83116001811461172b575f8415611719578287015190505b61172385826116a8565b86555061178a565b601f19841661173986611523565b5f5b828110156117605784890151825560018201915060208501945060208101905061173b565b8683101561177d5784890151611779601f89168261168c565b8355505b6001600288020188555050505b505050505050565b7f556e617574686f72697a656400000000000000000000000000000000000000005f82015250565b5f6117c6600c83611215565b91506117d182611792565b602082019050919050565b5f6020820190508181035f8301526117f3816117ba565b9050919050565b7f4f726465722065787069726564000000000000000000000000000000000000005f82015250565b5f61182e600d83611215565b9150611839826117fa565b602082019050919050565b5f6020820190508181035f83015261185b81611822565b9050919050565b7f496e76616c696420737461747573207472616e736974696f6e000000000000005f82015250565b5f611896601983611215565b91506118a182611862565b602082019050919050565b5f6020820190508181035f8301526118c38161188a565b9050919050565b5f6020820190506118dd5f8301846111fc565b92915050565b5f6020820190506118f65f830184611366565b92915050565b7f4e487b71000000000000000000000000000000000000000000000000000000005f52603260045260245ffd5b5f81549050611937816114f3565b9050919050565b81810361194c575050611a21565b61195582611929565b67ffffffffffffffff81111561196e5761196d610fad565b5b61197882546114f3565b61198382828561163a565b5f601f8311600181146119b0575f841561199e578287015490505b6119a885826116a8565b865550611a1a565b601f1984166119be87611523565b96506119c986611523565b5f5b828110156119f0578489015482556001820191506001850194506020810190506119cb565b86831015611a0d5784890154611a09601f89168261168c565b8355505b6001600288020188555050505b5050505050505b565b5f6060820190508181035f830152611a3b8186611233565b9050611a4a60208301856111fc565b611a57604083018461129b565b949350505050565b7f50726f64756374206e6f7420617661696c61626c6500000000000000000000005f82015250565b5f611a93601583611215565b9150611a9e82611a5f565b602082019050919050565b5f6020820190508181035f830152611ac081611a87565b9050919050565b7f496e636f7272656374207061796d656e7420616d6f756e7400000000000000005f82015250565b5f611afb601883611215565b9150611b0682611ac7565b602082019050919050565b5f6020820190508181035f830152611b2881611aef565b9050919050565b7f4e487b71000000000000000000000000000000000000000000000000000000005f52601160045260245ffd5b5f611b6682610f62565b91507fffffffffffffffffffffffffffffffffffffffffffffffffffffffffffffffff8203611b9857611b97611b2f565b5b600182019050919050565b5f608082019050611bb65f83018761129b565b611bc360208301866111fc565b611bd060408301856111fc565b611bdd60608301846111fc565b95945050505050565b5f611bf082610f62565b9150611bfb83610f62565b9250828201905080821115611c1357611c12611b2f565b5b9291505056fea2646970667358221220c7fddfa6a94093441d765666db98e62549b96cfa0027d23c4a59fe0c6a8a30b764736f6c634300081e0033",
					"opcodes": "PUSH1 0x80 PUSH1 0x40 MSTORE CALLVALUE DUP1 ISZERO PUSH1 0xE JUMPI PUSH0 PUSH0 REVERT JUMPDEST POP PUSH2 0x1C4F DUP1 PUSH2 0x1C PUSH0 CODECOPY PUSH0 RETURN INVALID PUSH1 0x80 PUSH1 0x40 MSTORE PUSH1 0x4 CALLDATASIZE LT PUSH2 0x7A JUMPI PUSH0 CALLDATALOAD PUSH1 0xE0 SHR DUP1 PUSH4 0xA85C38EF GT PUSH2 0x4D JUMPI DUP1 PUSH4 0xA85C38EF EQ PUSH2 0x162 JUMPI DUP1 PUSH4 0xAAB3196D EQ PUSH2 0x1A2 JUMPI DUP1 PUSH4 0xB15247D9 EQ PUSH2 0x1CA JUMPI DUP1 PUSH4 0xF8AD8CD7 EQ PUSH2 0x1F2 JUMPI PUSH2 0x7A JUMP JUMPDEST DUP1 PUSH4 0x61C18C8A EQ PUSH2 0x7E JUMPI DUP1 PUSH4 0x79412D28 EQ PUSH2 0xA6 JUMPI DUP1 PUSH4 0x7ACC0B20 EQ PUSH2 0xE2 JUMPI DUP1 PUSH4 0xA30B475F EQ PUSH2 0x122 JUMPI JUMPDEST PUSH0 PUSH0 REVERT JUMPDEST CALLVALUE DUP1 ISZERO PUSH2 0x89 JUMPI PUSH0 PUSH0 REVERT JUMPDEST POP PUSH2 0xA4 PUSH1 0x4 DUP1 CALLDATASIZE SUB DUP2 ADD SWAP1 PUSH2 0x9F SWAP2 SWAP1 PUSH2 0x10D1 JUMP JUMPDEST PUSH2 0x20E JUMP JUMPDEST STOP JUMPDEST CALLVALUE DUP1 ISZERO PUSH2 0xB1 JUMPI PUSH0 PUSH0 REVERT JUMPDEST POP PUSH2 0xCC PUSH1 0x4 DUP1 CALLDATASIZE SUB DUP2 ADD SWAP1 PUSH2 0xC7 SWAP2 SWAP1 PUSH2 0x1160 JUMP JUMPDEST PUSH2 0x2EF JUMP JUMPDEST PUSH1 0x40 MLOAD PUSH2 0xD9 SWAP2 SWAP1 PUSH2 0x11B8 JUMP JUMPDEST PUSH1 0x40 MLOAD DUP1 SWAP2 SUB SWAP1 RETURN JUMPDEST CALLVALUE DUP1 ISZERO PUSH2 0xED JUMPI PUSH0 PUSH0 REVERT JUMPDEST POP PUSH2 0x108 PUSH1 0x4 DUP1 CALLDATASIZE SUB DUP2 ADD SWAP1 PUSH2 0x103 SWAP2 SWAP1 PUSH2 0x11D1 JUMP JUMPDEST PUSH2 0x4F7 JUMP JUMPDEST PUSH1 0x40 MLOAD PUSH2 0x119 SWAP6 SWAP5 SWAP4 SWAP3 SWAP2 SWAP1 PUSH2 0x12AA JUMP JUMPDEST PUSH1 0x40 MLOAD DUP1 SWAP2 SUB SWAP1 RETURN JUMPDEST CALLVALUE DUP1 ISZERO PUSH2 0x12D JUMPI PUSH0 PUSH0 REVERT JUMPDEST POP PUSH2 0x148 PUSH1 0x4 DUP1 CALLDATASIZE SUB DUP2 ADD SWAP1 PUSH2 0x143 SWAP2 SWAP1 PUSH2 0x11D1 JUMP JUMPDEST PUSH2 0x5E9 JUMP JUMPDEST PUSH1 0x40 MLOAD PUSH2 0x159 SWAP6 SWAP5 SWAP4 SWAP3 SWAP2 SWAP1 PUSH2 0x12AA JUMP JUMPDEST PUSH1 0x40 MLOAD DUP1 SWAP2 SUB SWAP1 RETURN JUMPDEST CALLVALUE DUP1 ISZERO PUSH2 0x16D JUMPI PUSH0 PUSH0 REVERT JUMPDEST POP PUSH2 0x188 PUSH1 0x4 DUP1 CALLDATASIZE SUB DUP2 ADD SWAP1 PUSH2 0x183 SWAP2 SWAP1 PUSH2 0x11D1 JUMP JUMPDEST PUSH2 0x6CD JUMP JUMPDEST PUSH1 0x40 MLOAD PUSH2 0x199 SWAP6 SWAP5 SWAP4 SWAP3 SWAP2 SWAP1 PUSH2 0x1375 JUMP JUMPDEST PUSH1 0x40 MLOAD DUP1 SWAP2 SUB SWAP1 RETURN JUMPDEST CALLVALUE DUP1 ISZERO PUSH2 0x1AD JUMPI PUSH0 PUSH0 REVERT JUMPDEST POP PUSH2 0x1C8 PUSH1 0x4 DUP1 CALLDATASIZE SUB DUP2 ADD SWAP1 PUSH2 0x1C3 SWAP2 SWAP1 PUSH2 0x13C6 JUMP JUMPDEST PUSH2 0x72A JUMP JUMPDEST STOP JUMPDEST CALLVALUE DUP1 ISZERO PUSH2 0x1D5 JUMPI PUSH0 PUSH0 REVERT JUMPDEST POP PUSH2 0x1F0 PUSH1 0x4 DUP1 CALLDATASIZE SUB DUP2 ADD SWAP1 PUSH2 0x1EB SWAP2 SWAP1 PUSH2 0x1404 JUMP JUMPDEST PUSH2 0xA8F JUMP JUMPDEST STOP JUMPDEST PUSH2 0x20C PUSH1 0x4 DUP1 CALLDATASIZE SUB DUP2 ADD SWAP1 PUSH2 0x207 SWAP2 SWAP1 PUSH2 0x11D1 JUMP JUMPDEST PUSH2 0xCBB JUMP JUMPDEST STOP JUMPDEST CALLER PUSH20 0xFFFFFFFFFFFFFFFFFFFFFFFFFFFFFFFFFFFFFFFF AND PUSH1 0x1 PUSH0 DUP6 DUP2 MSTORE PUSH1 0x20 ADD SWAP1 DUP2 MSTORE PUSH1 0x20 ADD PUSH0 KECCAK256 PUSH1 0x3 ADD PUSH0 SWAP1 SLOAD SWAP1 PUSH2 0x100 EXP SWAP1 DIV PUSH20 0xFFFFFFFFFFFFFFFFFFFFFFFFFFFFFFFFFFFFFFFF AND PUSH20 0xFFFFFFFFFFFFFFFFFFFFFFFFFFFFFFFFFFFFFFFF AND EQ PUSH2 0x2AF JUMPI PUSH1 0x40 MLOAD PUSH32 0x8C379A000000000000000000000000000000000000000000000000000000000 DUP2 MSTORE PUSH1 0x4 ADD PUSH2 0x2A6 SWAP1 PUSH2 0x14A8 JUMP JUMPDEST PUSH1 0x40 MLOAD DUP1 SWAP2 SUB SWAP1 REVERT JUMPDEST DUP2 PUSH1 0x1 PUSH0 DUP6 DUP2 MSTORE PUSH1 0x20 ADD SWAP1 DUP2 MSTORE PUSH1 0x20 ADD PUSH0 KECCAK256 PUSH1 0x1 ADD SWAP1 DUP2 PUSH2 0x2D0 SWAP2 SWAP1 PUSH2 0x16C3 JUMP JUMPDEST POP DUP1 PUSH1 0x1 PUSH0 DUP6 DUP2 MSTORE PUSH1 0x20 ADD SWAP1 DUP2 MSTORE PUSH1 0x20 ADD PUSH0 KECCAK256 PUSH1 0x2 ADD DUP2 SWAP1 SSTORE POP POP POP POP JUMP JUMPDEST PUSH0 PUSH0 PUSH1 0x5 DUP2 GT ISZERO PUSH2 0x303 JUMPI PUSH2 0x302 PUSH2 0x1302 JUMP JUMPDEST JUMPDEST DUP4 PUSH1 0x5 DUP2 GT ISZERO PUSH2 0x316 JUMPI PUSH2 0x315 PUSH2 0x1302 JUMP JUMPDEST JUMPDEST EQ DUP1 ISZERO PUSH2 0x347 JUMPI POP PUSH1 0x1 PUSH1 0x5 DUP2 GT ISZERO PUSH2 0x332 JUMPI PUSH2 0x331 PUSH2 0x1302 JUMP JUMPDEST JUMPDEST DUP3 PUSH1 0x5 DUP2 GT ISZERO PUSH2 0x345 JUMPI PUSH2 0x344 PUSH2 0x1302 JUMP JUMPDEST JUMPDEST EQ JUMPDEST DUP1 PUSH2 0x3D4 JUMPI POP PUSH1 0x1 PUSH1 0x5 DUP2 GT ISZERO PUSH2 0x361 JUMPI PUSH2 0x360 PUSH2 0x1302 JUMP JUMPDEST JUMPDEST DUP4 PUSH1 0x5 DUP2 GT ISZERO PUSH2 0x374 JUMPI PUSH2 0x373 PUSH2 0x1302 JUMP JUMPDEST JUMPDEST EQ DUP1 ISZERO PUSH2 0x3D3 JUMPI POP PUSH1 0x2 PUSH1 0x5 DUP2 GT ISZERO PUSH2 0x390 JUMPI PUSH2 0x38F PUSH2 0x1302 JUMP JUMPDEST JUMPDEST DUP3 PUSH1 0x5 DUP2 GT ISZERO PUSH2 0x3A3 JUMPI PUSH2 0x3A2 PUSH2 0x1302 JUMP JUMPDEST JUMPDEST EQ DUP1 PUSH2 0x3D2 JUMPI POP PUSH1 0x5 DUP1 DUP2 GT ISZERO PUSH2 0x3BD JUMPI PUSH2 0x3BC PUSH2 0x1302 JUMP JUMPDEST JUMPDEST DUP3 PUSH1 0x5 DUP2 GT ISZERO PUSH2 0x3D0 JUMPI PUSH2 0x3CF PUSH2 0x1302 JUMP JUMPDEST JUMPDEST EQ JUMPDEST JUMPDEST JUMPDEST DUP1 PUSH2 0x433 JUMPI POP PUSH1 0x2 PUSH1 0x5 DUP2 GT ISZERO PUSH2 0x3EE JUMPI PUSH2 0x3ED PUSH2 0x1302 JUMP JUMPDEST JUMPDEST DUP4 PUSH1 0x5 DUP2 GT ISZERO PUSH2 0x401 JUMPI PUSH2 0x400 PUSH2 0x1302 JUMP JUMPDEST JUMPDEST EQ DUP1 ISZERO PUSH2 0x432 JUMPI POP PUSH1 0x3 PUSH1 0x5 DUP2 GT ISZERO PUSH2 0x41D JUMPI PUSH2 0x41C PUSH2 0x1302 JUMP JUMPDEST JUMPDEST DUP3 PUSH1 0x5 DUP2 GT ISZERO PUSH2 0x430 JUMPI PUSH2 0x42F PUSH2 0x1302 JUMP JUMPDEST JUMPDEST EQ JUMPDEST JUMPDEST DUP1 PUSH2 0x492 JUMPI POP PUSH1 0x3 PUSH1 0x5 DUP2 GT ISZERO PUSH2 0x44D JUMPI PUSH2 0x44C PUSH2 0x1302 JUMP JUMPDEST JUMPDEST DUP4 PUSH1 0x5 DUP2 GT ISZERO PUSH2 0x460 JUMPI PUSH2 0x45F PUSH2 0x1302 JUMP JUMPDEST JUMPDEST EQ DUP1 ISZERO PUSH2 0x491 JUMPI POP PUSH1 0x4 PUSH1 0x5 DUP2 GT ISZERO PUSH2 0x47C JUMPI PUSH2 0x47B PUSH2 0x1302 JUMP JUMPDEST JUMPDEST DUP3 PUSH1 0x5 DUP2 GT ISZERO PUSH2 0x48F JUMPI PUSH2 0x48E PUSH2 0x1302 JUMP JUMPDEST JUMPDEST EQ JUMPDEST JUMPDEST DUP1 PUSH2 0x4EF JUMPI POP PUSH0 PUSH1 0x5 DUP2 GT ISZERO PUSH2 0x4AB JUMPI PUSH2 0x4AA PUSH2 0x1302 JUMP JUMPDEST JUMPDEST DUP4 PUSH1 0x5 DUP2 GT ISZERO PUSH2 0x4BE JUMPI PUSH2 0x4BD PUSH2 0x1302 JUMP JUMPDEST JUMPDEST EQ DUP1 ISZERO PUSH2 0x4EE JUMPI POP PUSH1 0x5 DUP1 DUP2 GT ISZERO PUSH2 0x4D9 JUMPI PUSH2 0x4D8 PUSH2 0x1302 JUMP JUMPDEST JUMPDEST DUP3 PUSH1 0x5 DUP2 GT ISZERO PUSH2 0x4EC JUMPI PUSH2 0x4EB PUSH2 0x1302 JUMP JUMPDEST JUMPDEST EQ JUMPDEST JUMPDEST SWAP1 POP SWAP3 SWAP2 POP POP JUMP JUMPDEST PUSH0 DUP2 DUP2 SLOAD DUP2 LT PUSH2 0x505 JUMPI PUSH0 DUP1 REVERT JUMPDEST SWAP1 PUSH0 MSTORE PUSH1 0x20 PUSH0 KECCAK256 SWAP1 PUSH1 0x4 MUL ADD PUSH0 SWAP2 POP SWAP1 POP DUP1 PUSH0 ADD SLOAD SWAP1 DUP1 PUSH1 0x1 ADD DUP1 SLOAD PUSH2 0x52A SWAP1 PUSH2 0x14F3 JUMP JUMPDEST DUP1 PUSH1 0x1F ADD PUSH1 0x20 DUP1 SWAP2 DIV MUL PUSH1 0x20 ADD PUSH1 0x40 MLOAD SWAP1 DUP2 ADD PUSH1 0x40 MSTORE DUP1 SWAP3 SWAP2 SWAP1 DUP2 DUP2 MSTORE PUSH1 0x20 ADD DUP3 DUP1 SLOAD PUSH2 0x556 SWAP1 PUSH2 0x14F3 JUMP JUMPDEST DUP1 ISZERO PUSH2 0x5A1 JUMPI DUP1 PUSH1 0x1F LT PUSH2 0x578 JUMPI PUSH2 0x100 DUP1 DUP4 SLOAD DIV MUL DUP4 MSTORE SWAP2 PUSH1 0x20 ADD SWAP2 PUSH2 0x5A1 JUMP JUMPDEST DUP3 ADD SWAP2 SWAP1 PUSH0 MSTORE PUSH1 0x20 PUSH0 KECCAK256 SWAP1 JUMPDEST DUP2 SLOAD DUP2 MSTORE SWAP1 PUSH1 0x1 ADD SWAP1 PUSH1 0x20 ADD DUP1 DUP4 GT PUSH2 0x584 JUMPI DUP3 SWAP1 SUB PUSH1 0x1F AND DUP3 ADD SWAP2 JUMPDEST POP POP POP POP POP SWAP1 DUP1 PUSH1 0x2 ADD SLOAD SWAP1 DUP1 PUSH1 0x3 ADD PUSH0 SWAP1 SLOAD SWAP1 PUSH2 0x100 EXP SWAP1 DIV PUSH20 0xFFFFFFFFFFFFFFFFFFFFFFFFFFFFFFFFFFFFFFFF AND SWAP1 DUP1 PUSH1 0x3 ADD PUSH1 0x14 SWAP1 SLOAD SWAP1 PUSH2 0x100 EXP SWAP1 DIV PUSH1 0xFF AND SWAP1 POP DUP6 JUMP JUMPDEST PUSH1 0x1 PUSH1 0x20 MSTORE DUP1 PUSH0 MSTORE PUSH1 0x40 PUSH0 KECCAK256 PUSH0 SWAP2 POP SWAP1 POP DUP1 PUSH0 ADD SLOAD SWAP1 DUP1 PUSH1 0x1 ADD DUP1 SLOAD PUSH2 0x60E SWAP1 PUSH2 0x14F3 JUMP JUMPDEST DUP1 PUSH1 0x1F ADD PUSH1 0x20 DUP1 SWAP2 DIV MUL PUSH1 0x20 ADD PUSH1 0x40 MLOAD SWAP1 DUP2 ADD PUSH1 0x40 MSTORE DUP1 SWAP3 SWAP2 SWAP1 DUP2 DUP2 MSTORE PUSH1 0x20 ADD DUP3 DUP1 SLOAD PUSH2 0x63A SWAP1 PUSH2 0x14F3 JUMP JUMPDEST DUP1 ISZERO PUSH2 0x685 JUMPI DUP1 PUSH1 0x1F LT PUSH2 0x65C JUMPI PUSH2 0x100 DUP1 DUP4 SLOAD DIV MUL DUP4 MSTORE SWAP2 PUSH1 0x20 ADD SWAP2 PUSH2 0x685 JUMP JUMPDEST DUP3 ADD SWAP2 SWAP1 PUSH0 MSTORE PUSH1 0x20 PUSH0 KECCAK256 SWAP1 JUMPDEST DUP2 SLOAD DUP2 MSTORE SWAP1 PUSH1 0x1 ADD SWAP1 PUSH1 0x20 ADD DUP1 DUP4 GT PUSH2 0x668 JUMPI DUP3 SWAP1 SUB PUSH1 0x1F AND DUP3 ADD SWAP2 JUMPDEST POP POP POP POP POP SWAP1 DUP1 PUSH1 0x2 ADD SLOAD SWAP1 DUP1 PUSH1 0x3 ADD PUSH0 SWAP1 SLOAD SWAP1 PUSH2 0x100 EXP SWAP1 DIV PUSH20 0xFFFFFFFFFFFFFFFFFFFFFFFFFFFFFFFFFFFFFFFF AND SWAP1 DUP1 PUSH1 0x3 ADD PUSH1 0x14 SWAP1 SLOAD SWAP1 PUSH2 0x100 EXP SWAP1 DIV PUSH1 0xFF AND SWAP1 POP DUP6 JUMP JUMPDEST PUSH1 0x2 PUSH1 0x20 MSTORE DUP1 PUSH0 MSTORE PUSH1 0x40 PUSH0 KECCAK256 PUSH0 SWAP2 POP SWAP1 POP DUP1 PUSH0 ADD SLOAD SWAP1 DUP1 PUSH1 0x1 ADD PUSH0 SWAP1 SLOAD SWAP1 PUSH2 0x100 EXP SWAP1 DIV PUSH20 0xFFFFFFFFFFFFFFFFFFFFFFFFFFFFFFFFFFFFFFFF AND SWAP1 DUP1 PUSH1 0x2 ADD SLOAD SWAP1 DUP1 PUSH1 0x3 ADD PUSH0 SWAP1 SLOAD SWAP1 PUSH2 0x100 EXP SWAP1 DIV PUSH1 0xFF AND SWAP1 DUP1 PUSH1 0x4 ADD SLOAD SWAP1 POP DUP6 JUMP JUMPDEST PUSH0 PUSH1 0x2 PUSH0 DUP5 DUP2 MSTORE PUSH1 0x20 ADD SWAP1 DUP2 MSTORE PUSH1 0x20 ADD PUSH0 KECCAK256 SWAP1 POP DUP1 PUSH1 0x1 ADD PUSH0 SWAP1 SLOAD SWAP1 PUSH2 0x100 EXP SWAP1 DIV PUSH20 0xFFFFFFFFFFFFFFFFFFFFFFFFFFFFFFFFFFFFFFFF AND PUSH20 0xFFFFFFFFFFFFFFFFFFFFFFFFFFFFFFFFFFFFFFFF AND CALLER PUSH20 0xFFFFFFFFFFFFFFFFFFFFFFFFFFFFFFFFFFFFFFFF AND EQ DUP1 PUSH2 0x7FD JUMPI POP PUSH1 0x1 PUSH0 DUP3 PUSH1 0x2 ADD SLOAD DUP2 MSTORE PUSH1 0x20 ADD SWAP1 DUP2 MSTORE PUSH1 0x20 ADD PUSH0 KECCAK256 PUSH1 0x3 ADD PUSH0 SWAP1 SLOAD SWAP1 PUSH2 0x100 EXP SWAP1 DIV PUSH20 0xFFFFFFFFFFFFFFFFFFFFFFFFFFFFFFFFFFFFFFFF AND PUSH20 0xFFFFFFFFFFFFFFFFFFFFFFFFFFFFFFFFFFFFFFFF AND CALLER PUSH20 0xFFFFFFFFFFFFFFFFFFFFFFFFFFFFFFFFFFFFFFFF AND EQ JUMPDEST PUSH2 0x83C JUMPI PUSH1 0x40 MLOAD PUSH32 0x8C379A000000000000000000000000000000000000000000000000000000000 DUP2 MSTORE PUSH1 0x4 ADD PUSH2 0x833 SWAP1 PUSH2 0x17DC JUMP JUMPDEST PUSH1 0x40 MLOAD DUP1 SWAP2 SUB SWAP1 REVERT JUMPDEST DUP1 PUSH1 0x4 ADD SLOAD TIMESTAMP GT ISZERO PUSH2 0x883 JUMPI PUSH1 0x40 MLOAD PUSH32 0x8C379A000000000000000000000000000000000000000000000000000000000 DUP2 MSTORE PUSH1 0x4 ADD PUSH2 0x87A SWAP1 PUSH2 0x1844 JUMP JUMPDEST PUSH1 0x40 MLOAD DUP1 SWAP2 SUB SWAP1 REVERT JUMPDEST PUSH2 0x89D DUP2 PUSH1 0x3 ADD PUSH0 SWAP1 SLOAD SWAP1 PUSH2 0x100 EXP SWAP1 DIV PUSH1 0xFF AND DUP4 PUSH2 0x2EF JUMP JUMPDEST PUSH2 0x8DC JUMPI PUSH1 0x40 MLOAD PUSH32 0x8C379A000000000000000000000000000000000000000000000000000000000 DUP2 MSTORE PUSH1 0x4 ADD PUSH2 0x8D3 SWAP1 PUSH2 0x18AC JUMP JUMPDEST PUSH1 0x40 MLOAD DUP1 SWAP2 SUB SWAP1 REVERT JUMPDEST PUSH1 0x5 DUP1 DUP2 GT ISZERO PUSH2 0x8EF JUMPI PUSH2 0x8EE PUSH2 0x1302 JUMP JUMPDEST JUMPDEST DUP3 PUSH1 0x5 DUP2 GT ISZERO PUSH2 0x902 JUMPI PUSH2 0x901 PUSH2 0x1302 JUMP JUMPDEST JUMPDEST SUB PUSH2 0xA27 JUMPI PUSH0 PUSH1 0x3 PUSH0 DUP6 DUP2 MSTORE PUSH1 0x20 ADD SWAP1 DUP2 MSTORE PUSH1 0x20 ADD PUSH0 KECCAK256 SLOAD SWAP1 POP DUP2 PUSH1 0x1 ADD PUSH0 SWAP1 SLOAD SWAP1 PUSH2 0x100 EXP SWAP1 DIV PUSH20 0xFFFFFFFFFFFFFFFFFFFFFFFFFFFFFFFFFFFFFFFF AND PUSH20 0xFFFFFFFFFFFFFFFFFFFFFFFFFFFFFFFFFFFFFFFF AND PUSH2 0x8FC DUP3 SWAP1 DUP2 ISZERO MUL SWAP1 PUSH1 0x40 MLOAD PUSH0 PUSH1 0x40 MLOAD DUP1 DUP4 SUB DUP2 DUP6 DUP9 DUP9 CALL SWAP4 POP POP POP POP ISZERO DUP1 ISZERO PUSH2 0x982 JUMPI RETURNDATASIZE PUSH0 PUSH0 RETURNDATACOPY RETURNDATASIZE PUSH0 REVERT JUMPDEST POP PUSH1 0x1 DUP1 PUSH0 DUP5 PUSH1 0x2 ADD SLOAD DUP2 MSTORE PUSH1 0x20 ADD SWAP1 DUP2 MSTORE PUSH1 0x20 ADD PUSH0 KECCAK256 PUSH1 0x3 ADD PUSH1 0x14 PUSH2 0x100 EXP DUP2 SLOAD DUP2 PUSH1 0xFF MUL NOT AND SWAP1 DUP4 ISZERO ISZERO MUL OR SWAP1 SSTORE POP DUP2 PUSH1 0x1 ADD PUSH0 SWAP1 SLOAD SWAP1 PUSH2 0x100 EXP SWAP1 DIV PUSH20 0xFFFFFFFFFFFFFFFFFFFFFFFFFFFFFFFFFFFFFFFF AND PUSH20 0xFFFFFFFFFFFFFFFFFFFFFFFFFFFFFFFFFFFFFFFF AND DUP5 PUSH32 0xC4058EBC534B64ECB27B2D4EAA1904F98997EC18EBE6ADA4117593DDE89478CC DUP4 PUSH1 0x40 MLOAD PUSH2 0xA1D SWAP2 SWAP1 PUSH2 0x18CA JUMP JUMPDEST PUSH1 0x40 MLOAD DUP1 SWAP2 SUB SWAP1 LOG3 POP JUMPDEST DUP2 DUP2 PUSH1 0x3 ADD PUSH0 PUSH2 0x100 EXP DUP2 SLOAD DUP2 PUSH1 0xFF MUL NOT AND SWAP1 DUP4 PUSH1 0x5 DUP2 GT ISZERO PUSH2 0xA4D JUMPI PUSH2 0xA4C PUSH2 0x1302 JUMP JUMPDEST JUMPDEST MUL OR SWAP1 SSTORE POP DUP3 PUSH32 0xD9A86B644EB5F5B43CC8A700849852481080361C7A4B00BA646D1B46C5585F95 DUP4 PUSH1 0x40 MLOAD PUSH2 0xA82 SWAP2 SWAP1 PUSH2 0x18E3 JUMP JUMPDEST PUSH1 0x40 MLOAD DUP1 SWAP2 SUB SWAP1 LOG2 POP POP POP JUMP JUMPDEST PUSH0 PUSH0 DUP1 SLOAD SWAP1 POP SWAP1 POP PUSH0 PUSH1 0x40 MLOAD DUP1 PUSH1 0xA0 ADD PUSH1 0x40 MSTORE DUP1 DUP4 DUP2 MSTORE PUSH1 0x20 ADD DUP6 DUP2 MSTORE PUSH1 0x20 ADD DUP5 DUP2 MSTORE PUSH1 0x20 ADD CALLER PUSH20 0xFFFFFFFFFFFFFFFFFFFFFFFFFFFFFFFFFFFFFFFF AND DUP2 MSTORE PUSH1 0x20 ADD PUSH1 0x1 ISZERO ISZERO DUP2 MSTORE POP SWAP1 DUP1 PUSH1 0x1 DUP2 SLOAD ADD DUP1 DUP3 SSTORE DUP1 SWAP2 POP POP PUSH1 0x1 SWAP1 SUB SWAP1 PUSH0 MSTORE PUSH1 0x20 PUSH0 KECCAK256 SWAP1 PUSH1 0x4 MUL ADD PUSH0 SWAP1 SWAP2 SWAP1 SWAP2 SWAP1 SWAP2 POP PUSH0 DUP3 ADD MLOAD DUP2 PUSH0 ADD SSTORE PUSH1 0x20 DUP3 ADD MLOAD DUP2 PUSH1 0x1 ADD SWAP1 DUP2 PUSH2 0xB1B SWAP2 SWAP1 PUSH2 0x16C3 JUMP JUMPDEST POP PUSH1 0x40 DUP3 ADD MLOAD DUP2 PUSH1 0x2 ADD SSTORE PUSH1 0x60 DUP3 ADD MLOAD DUP2 PUSH1 0x3 ADD PUSH0 PUSH2 0x100 EXP DUP2 SLOAD DUP2 PUSH20 0xFFFFFFFFFFFFFFFFFFFFFFFFFFFFFFFFFFFFFFFF MUL NOT AND SWAP1 DUP4 PUSH20 0xFFFFFFFFFFFFFFFFFFFFFFFFFFFFFFFFFFFFFFFF AND MUL OR SWAP1 SSTORE POP PUSH1 0x80 DUP3 ADD MLOAD DUP2 PUSH1 0x3 ADD PUSH1 0x14 PUSH2 0x100 EXP DUP2 SLOAD DUP2 PUSH1 0xFF MUL NOT AND SWAP1 DUP4 ISZERO ISZERO MUL OR SWAP1 SSTORE POP POP POP PUSH0 DUP2 DUP2 SLOAD DUP2 LT PUSH2 0xBA1 JUMPI PUSH2 0xBA0 PUSH2 0x18FC JUMP JUMPDEST JUMPDEST SWAP1 PUSH0 MSTORE PUSH1 0x20 PUSH0 KECCAK256 SWAP1 PUSH1 0x4 MUL ADD PUSH1 0x1 PUSH0 DUP4 DUP2 MSTORE PUSH1 0x20 ADD SWAP1 DUP2 MSTORE PUSH1 0x20 ADD PUSH0 KECCAK256 PUSH0 DUP3 ADD SLOAD DUP2 PUSH0 ADD SSTORE PUSH1 0x1 DUP3 ADD DUP2 PUSH1 0x1 ADD SWAP1 DUP2 PUSH2 0xBDA SWAP2 SWAP1 PUSH2 0x193E JUMP JUMPDEST POP PUSH1 0x2 DUP3 ADD SLOAD DUP2 PUSH1 0x2 ADD SSTORE PUSH1 0x3 DUP3 ADD PUSH0 SWAP1 SLOAD SWAP1 PUSH2 0x100 EXP SWAP1 DIV PUSH20 0xFFFFFFFFFFFFFFFFFFFFFFFFFFFFFFFFFFFFFFFF AND DUP2 PUSH1 0x3 ADD PUSH0 PUSH2 0x100 EXP DUP2 SLOAD DUP2 PUSH20 0xFFFFFFFFFFFFFFFFFFFFFFFFFFFFFFFFFFFFFFFF MUL NOT AND SWAP1 DUP4 PUSH20 0xFFFFFFFFFFFFFFFFFFFFFFFFFFFFFFFFFFFFFFFF AND MUL OR SWAP1 SSTORE POP PUSH1 0x3 DUP3 ADD PUSH1 0x14 SWAP1 SLOAD SWAP1 PUSH2 0x100 EXP SWAP1 DIV PUSH1 0xFF AND DUP2 PUSH1 0x3 ADD PUSH1 0x14 PUSH2 0x100 EXP DUP2 SLOAD DUP2 PUSH1 0xFF MUL NOT AND SWAP1 DUP4 ISZERO ISZERO MUL OR SWAP1 SSTORE POP SWAP1 POP POP DUP1 PUSH32 0x52402CAFB2ECEC722B103E8F203F83362148C168659DC96678C2C6850D12DD9F DUP5 DUP5 CALLER PUSH1 0x40 MLOAD PUSH2 0xCAE SWAP4 SWAP3 SWAP2 SWAP1 PUSH2 0x1A23 JUMP JUMPDEST PUSH1 0x40 MLOAD DUP1 SWAP2 SUB SWAP1 LOG2 POP POP POP JUMP JUMPDEST PUSH1 0x1 PUSH0 DUP3 DUP2 MSTORE PUSH1 0x20 ADD SWAP1 DUP2 MSTORE PUSH1 0x20 ADD PUSH0 KECCAK256 PUSH1 0x3 ADD PUSH1 0x14 SWAP1 SLOAD SWAP1 PUSH2 0x100 EXP SWAP1 DIV PUSH1 0xFF AND PUSH2 0xD1C JUMPI PUSH1 0x40 MLOAD PUSH32 0x8C379A000000000000000000000000000000000000000000000000000000000 DUP2 MSTORE PUSH1 0x4 ADD PUSH2 0xD13 SWAP1 PUSH2 0x1AA9 JUMP JUMPDEST PUSH1 0x40 MLOAD DUP1 SWAP2 SUB SWAP1 REVERT JUMPDEST PUSH1 0x1 PUSH0 DUP3 DUP2 MSTORE PUSH1 0x20 ADD SWAP1 DUP2 MSTORE PUSH1 0x20 ADD PUSH0 KECCAK256 PUSH1 0x2 ADD SLOAD CALLVALUE EQ PUSH2 0xD72 JUMPI PUSH1 0x40 MLOAD PUSH32 0x8C379A000000000000000000000000000000000000000000000000000000000 DUP2 MSTORE PUSH1 0x4 ADD PUSH2 0xD69 SWAP1 PUSH2 0x1B11 JUMP JUMPDEST PUSH1 0x40 MLOAD DUP1 SWAP2 SUB SWAP1 REVERT JUMPDEST PUSH0 CALLER DUP3 TIMESTAMP PUSH1 0x4 PUSH0 DUP2 SLOAD DUP1 SWAP3 SWAP2 SWAP1 PUSH2 0xD88 SWAP1 PUSH2 0x1B5C JUMP JUMPDEST SWAP2 SWAP1 POP SSTORE PUSH1 0x40 MLOAD PUSH1 0x20 ADD PUSH2 0xD9F SWAP5 SWAP4 SWAP3 SWAP2 SWAP1 PUSH2 0x1BA3 JUMP JUMPDEST PUSH1 0x40 MLOAD PUSH1 0x20 DUP2 DUP4 SUB SUB DUP2 MSTORE SWAP1 PUSH1 0x40 MSTORE DUP1 MLOAD SWAP1 PUSH1 0x20 ADD KECCAK256 PUSH0 SHR SWAP1 POP PUSH1 0x40 MLOAD DUP1 PUSH1 0xA0 ADD PUSH1 0x40 MSTORE DUP1 DUP3 DUP2 MSTORE PUSH1 0x20 ADD CALLER PUSH20 0xFFFFFFFFFFFFFFFFFFFFFFFFFFFFFFFFFFFFFFFF AND DUP2 MSTORE PUSH1 0x20 ADD DUP4 DUP2 MSTORE PUSH1 0x20 ADD PUSH1 0x1 PUSH1 0x5 DUP2 GT ISZERO PUSH2 0xE00 JUMPI PUSH2 0xDFF PUSH2 0x1302 JUMP JUMPDEST JUMPDEST DUP2 MSTORE PUSH1 0x20 ADD PUSH2 0xE10 TIMESTAMP PUSH2 0xE13 SWAP2 SWAP1 PUSH2 0x1BE6 JUMP JUMPDEST DUP2 MSTORE POP PUSH1 0x2 PUSH0 DUP4 DUP2 MSTORE PUSH1 0x20 ADD SWAP1 DUP2 MSTORE PUSH1 0x20 ADD PUSH0 KECCAK256 PUSH0 DUP3 ADD MLOAD DUP2 PUSH0 ADD SSTORE PUSH1 0x20 DUP3 ADD MLOAD DUP2 PUSH1 0x1 ADD PUSH0 PUSH2 0x100 EXP DUP2 SLOAD DUP2 PUSH20 0xFFFFFFFFFFFFFFFFFFFFFFFFFFFFFFFFFFFFFFFF MUL NOT AND SWAP1 DUP4 PUSH20 0xFFFFFFFFFFFFFFFFFFFFFFFFFFFFFFFFFFFFFFFF AND MUL OR SWAP1 SSTORE POP PUSH1 0x40 DUP3 ADD MLOAD DUP2 PUSH1 0x2 ADD SSTORE PUSH1 0x60 DUP3 ADD MLOAD DUP2 PUSH1 0x3 ADD PUSH0 PUSH2 0x100 EXP DUP2 SLOAD DUP2 PUSH1 0xFF MUL NOT AND SWAP1 DUP4 PUSH1 0x5 DUP2 GT ISZERO PUSH2 0xEA9 JUMPI PUSH2 0xEA8 PUSH2 0x1302 JUMP JUMPDEST JUMPDEST MUL OR SWAP1 SSTORE POP PUSH1 0x80 DUP3 ADD MLOAD DUP2 PUSH1 0x4 ADD SSTORE SWAP1 POP POP CALLVALUE PUSH1 0x3 PUSH0 DUP4 DUP2 MSTORE PUSH1 0x20 ADD SWAP1 DUP2 MSTORE PUSH1 0x20 ADD PUSH0 KECCAK256 DUP2 SWAP1 SSTORE POP PUSH0 PUSH1 0x1 PUSH0 DUP5 DUP2 MSTORE PUSH1 0x20 ADD SWAP1 DUP2 MSTORE PUSH1 0x20 ADD PUSH0 KECCAK256 PUSH1 0x3 ADD PUSH1 0x14 PUSH2 0x100 EXP DUP2 SLOAD DUP2 PUSH1 0xFF MUL NOT AND SWAP1 DUP4 ISZERO ISZERO MUL OR SWAP1 SSTORE POP DUP2 CALLER PUSH20 0xFFFFFFFFFFFFFFFFFFFFFFFFFFFFFFFFFFFFFFFF AND DUP3 PUSH32 0xF7C110A6973307F2BC91245C2C06344ADA13ADD2C1741E83AC5C0BB332BC85D5 CALLVALUE PUSH1 0x40 MLOAD PUSH2 0xF45 SWAP2 SWAP1 PUSH2 0x18CA JUMP JUMPDEST PUSH1 0x40 MLOAD DUP1 SWAP2 SUB SWAP1 LOG4 POP POP JUMP JUMPDEST PUSH0 PUSH1 0x40 MLOAD SWAP1 POP SWAP1 JUMP JUMPDEST PUSH0 PUSH0 REVERT JUMPDEST PUSH0 PUSH0 REVERT JUMPDEST PUSH0 DUP2 SWAP1 POP SWAP2 SWAP1 POP JUMP JUMPDEST PUSH2 0xF74 DUP2 PUSH2 0xF62 JUMP JUMPDEST DUP2 EQ PUSH2 0xF7E JUMPI PUSH0 PUSH0 REVERT JUMPDEST POP JUMP JUMPDEST PUSH0 DUP2 CALLDATALOAD SWAP1 POP PUSH2 0xF8F DUP2 PUSH2 0xF6B JUMP JUMPDEST SWAP3 SWAP2 POP POP JUMP JUMPDEST PUSH0 PUSH0 REVERT JUMPDEST PUSH0 PUSH0 REVERT JUMPDEST PUSH0 PUSH1 0x1F NOT PUSH1 0x1F DUP4 ADD AND SWAP1 POP SWAP2 SWAP1 POP JUMP JUMPDEST PUSH32 0x4E487B7100000000000000000000000000000000000000000000000000000000 PUSH0 MSTORE PUSH1 0x41 PUSH1 0x4 MSTORE PUSH1 0x24 PUSH0 REVERT JUMPDEST PUSH2 0xFE3 DUP3 PUSH2 0xF9D JUMP JUMPDEST DUP2 ADD DUP2 DUP2 LT PUSH8 0xFFFFFFFFFFFFFFFF DUP3 GT OR ISZERO PUSH2 0x1002 JUMPI PUSH2 0x1001 PUSH2 0xFAD JUMP JUMPDEST JUMPDEST DUP1 PUSH1 0x40 MSTORE POP POP POP JUMP JUMPDEST PUSH0 PUSH2 0x1014 PUSH2 0xF51 JUMP JUMPDEST SWAP1 POP PUSH2 0x1020 DUP3 DUP3 PUSH2 0xFDA JUMP JUMPDEST SWAP2 SWAP1 POP JUMP JUMPDEST PUSH0 PUSH8 0xFFFFFFFFFFFFFFFF DUP3 GT ISZERO PUSH2 0x103F JUMPI PUSH2 0x103E PUSH2 0xFAD JUMP JUMPDEST JUMPDEST PUSH2 0x1048 DUP3 PUSH2 0xF9D JUMP JUMPDEST SWAP1 POP PUSH1 0x20 DUP2 ADD SWAP1 POP SWAP2 SWAP1 POP JUMP JUMPDEST DUP3 DUP2 DUP4 CALLDATACOPY PUSH0 DUP4 DUP4 ADD MSTORE POP POP POP JUMP JUMPDEST PUSH0 PUSH2 0x1075 PUSH2 0x1070 DUP5 PUSH2 0x1025 JUMP JUMPDEST PUSH2 0x100B JUMP JUMPDEST SWAP1 POP DUP3 DUP2 MSTORE PUSH1 0x20 DUP2 ADD DUP5 DUP5 DUP5 ADD GT ISZERO PUSH2 0x1091 JUMPI PUSH2 0x1090 PUSH2 0xF99 JUMP JUMPDEST JUMPDEST PUSH2 0x109C DUP5 DUP3 DUP6 PUSH2 0x1055 JUMP JUMPDEST POP SWAP4 SWAP3 POP POP POP JUMP JUMPDEST PUSH0 DUP3 PUSH1 0x1F DUP4 ADD SLT PUSH2 0x10B8 JUMPI PUSH2 0x10B7 PUSH2 0xF95 JUMP JUMPDEST JUMPDEST DUP2 CALLDATALOAD PUSH2 0x10C8 DUP5 DUP3 PUSH1 0x20 DUP7 ADD PUSH2 0x1063 JUMP JUMPDEST SWAP2 POP POP SWAP3 SWAP2 POP POP JUMP JUMPDEST PUSH0 PUSH0 PUSH0 PUSH1 0x60 DUP5 DUP7 SUB SLT ISZERO PUSH2 0x10E8 JUMPI PUSH2 0x10E7 PUSH2 0xF5A JUMP JUMPDEST JUMPDEST PUSH0 PUSH2 0x10F5 DUP7 DUP3 DUP8 ADD PUSH2 0xF81 JUMP JUMPDEST SWAP4 POP POP PUSH1 0x20 DUP5 ADD CALLDATALOAD PUSH8 0xFFFFFFFFFFFFFFFF DUP2 GT ISZERO PUSH2 0x1116 JUMPI PUSH2 0x1115 PUSH2 0xF5E JUMP JUMPDEST JUMPDEST PUSH2 0x1122 DUP7 DUP3 DUP8 ADD PUSH2 0x10A4 JUMP JUMPDEST SWAP3 POP POP PUSH1 0x40 PUSH2 0x1133 DUP7 DUP3 DUP8 ADD PUSH2 0xF81 JUMP JUMPDEST SWAP2 POP POP SWAP3 POP SWAP3 POP SWAP3 JUMP JUMPDEST PUSH1 0x6 DUP2 LT PUSH2 0x1149 JUMPI PUSH0 PUSH0 REVERT JUMPDEST POP JUMP JUMPDEST PUSH0 DUP2 CALLDATALOAD SWAP1 POP PUSH2 0x115A DUP2 PUSH2 0x113D JUMP JUMPDEST SWAP3 SWAP2 POP POP JUMP JUMPDEST PUSH0 PUSH0 PUSH1 0x40 DUP4 DUP6 SUB SLT ISZERO PUSH2 0x1176 JUMPI PUSH2 0x1175 PUSH2 0xF5A JUMP JUMPDEST JUMPDEST PUSH0 PUSH2 0x1183 DUP6 DUP3 DUP7 ADD PUSH2 0x114C JUMP JUMPDEST SWAP3 POP POP PUSH1 0x20 PUSH2 0x1194 DUP6 DUP3 DUP7 ADD PUSH2 0x114C JUMP JUMPDEST SWAP2 POP POP SWAP3 POP SWAP3 SWAP1 POP JUMP JUMPDEST PUSH0 DUP2 ISZERO ISZERO SWAP1 POP SWAP2 SWAP1 POP JUMP JUMPDEST PUSH2 0x11B2 DUP2 PUSH2 0x119E JUMP JUMPDEST DUP3 MSTORE POP POP JUMP JUMPDEST PUSH0 PUSH1 0x20 DUP3 ADD SWAP1 POP PUSH2 0x11CB PUSH0 DUP4 ADD DUP5 PUSH2 0x11A9 JUMP JUMPDEST SWAP3 SWAP2 POP POP JUMP JUMPDEST PUSH0 PUSH1 0x20 DUP3 DUP5 SUB SLT ISZERO PUSH2 0x11E6 JUMPI PUSH2 0x11E5 PUSH2 0xF5A JUMP JUMPDEST JUMPDEST PUSH0 PUSH2 0x11F3 DUP5 DUP3 DUP6 ADD PUSH2 0xF81 JUMP JUMPDEST SWAP2 POP POP SWAP3 SWAP2 POP POP JUMP JUMPDEST PUSH2 0x1205 DUP2 PUSH2 0xF62 JUMP JUMPDEST DUP3 MSTORE POP POP JUMP JUMPDEST PUSH0 DUP2 MLOAD SWAP1 POP SWAP2 SWAP1 POP JUMP JUMPDEST PUSH0 DUP3 DUP3 MSTORE PUSH1 0x20 DUP3 ADD SWAP1 POP SWAP3 SWAP2 POP POP JUMP JUMPDEST DUP3 DUP2 DUP4 MCOPY PUSH0 DUP4 DUP4 ADD MSTORE POP POP POP JUMP JUMPDEST PUSH0 PUSH2 0x123D DUP3 PUSH2 0x120B JUMP JUMPDEST PUSH2 0x1247 DUP2 DUP6 PUSH2 0x1215 JUMP JUMPDEST SWAP4 POP PUSH2 0x1257 DUP2 DUP6 PUSH1 0x20 DUP7 ADD PUSH2 0x1225 JUMP JUMPDEST PUSH2 0x1260 DUP2 PUSH2 0xF9D JUMP JUMPDEST DUP5 ADD SWAP2 POP POP SWAP3 SWAP2 POP POP JUMP JUMPDEST PUSH0 PUSH20 0xFFFFFFFFFFFFFFFFFFFFFFFFFFFFFFFFFFFFFFFF DUP3 AND SWAP1 POP SWAP2 SWAP1 POP JUMP JUMPDEST PUSH0 PUSH2 0x1294 DUP3 PUSH2 0x126B JUMP JUMPDEST SWAP1 POP SWAP2 SWAP1 POP JUMP JUMPDEST PUSH2 0x12A4 DUP2 PUSH2 0x128A JUMP JUMPDEST DUP3 MSTORE POP POP JUMP JUMPDEST PUSH0 PUSH1 0xA0 DUP3 ADD SWAP1 POP PUSH2 0x12BD PUSH0 DUP4 ADD DUP9 PUSH2 0x11FC JUMP JUMPDEST DUP2 DUP2 SUB PUSH1 0x20 DUP4 ADD MSTORE PUSH2 0x12CF DUP2 DUP8 PUSH2 0x1233 JUMP JUMPDEST SWAP1 POP PUSH2 0x12DE PUSH1 0x40 DUP4 ADD DUP7 PUSH2 0x11FC JUMP JUMPDEST PUSH2 0x12EB PUSH1 0x60 DUP4 ADD DUP6 PUSH2 0x129B JUMP JUMPDEST PUSH2 0x12F8 PUSH1 0x80 DUP4 ADD DUP5 PUSH2 0x11A9 JUMP JUMPDEST SWAP7 SWAP6 POP POP POP POP POP POP JUMP JUMPDEST PUSH32 0x4E487B7100000000000000000000000000000000000000000000000000000000 PUSH0 MSTORE PUSH1 0x21 PUSH1 0x4 MSTORE PUSH1 0x24 PUSH0 REVERT JUMPDEST PUSH1 0x6 DUP2 LT PUSH2 0x1340 JUMPI PUSH2 0x133F PUSH2 0x1302 JUMP JUMPDEST JUMPDEST POP JUMP JUMPDEST PUSH0 DUP2 SWAP1 POP PUSH2 0x1350 DUP3 PUSH2 0x132F JUMP JUMPDEST SWAP2 SWAP1 POP JUMP JUMPDEST PUSH0 PUSH2 0x135F DUP3 PUSH2 0x1343 JUMP JUMPDEST SWAP1 POP SWAP2 SWAP1 POP JUMP JUMPDEST PUSH2 0x136F DUP2 PUSH2 0x1355 JUMP JUMPDEST DUP3 MSTORE POP POP JUMP JUMPDEST PUSH0 PUSH1 0xA0 DUP3 ADD SWAP1 POP PUSH2 0x1388 PUSH0 DUP4 ADD DUP9 PUSH2 0x11FC JUMP JUMPDEST PUSH2 0x1395 PUSH1 0x20 DUP4 ADD DUP8 PUSH2 0x129B JUMP JUMPDEST PUSH2 0x13A2 PUSH1 0x40 DUP4 ADD DUP7 PUSH2 0x11FC JUMP JUMPDEST PUSH2 0x13AF PUSH1 0x60 DUP4 ADD DUP6 PUSH2 0x1366 JUMP JUMPDEST PUSH2 0x13BC PUSH1 0x80 DUP4 ADD DUP5 PUSH2 0x11FC JUMP JUMPDEST SWAP7 SWAP6 POP POP POP POP POP POP JUMP JUMPDEST PUSH0 PUSH0 PUSH1 0x40 DUP4 DUP6 SUB SLT ISZERO PUSH2 0x13DC JUMPI PUSH2 0x13DB PUSH2 0xF5A JUMP JUMPDEST JUMPDEST PUSH0 PUSH2 0x13E9 DUP6 DUP3 DUP7 ADD PUSH2 0xF81 JUMP JUMPDEST SWAP3 POP POP PUSH1 0x20 PUSH2 0x13FA DUP6 DUP3 DUP7 ADD PUSH2 0x114C JUMP JUMPDEST SWAP2 POP POP SWAP3 POP SWAP3 SWAP1 POP JUMP JUMPDEST PUSH0 PUSH0 PUSH1 0x40 DUP4 DUP6 SUB SLT ISZERO PUSH2 0x141A JUMPI PUSH2 0x1419 PUSH2 0xF5A JUMP JUMPDEST JUMPDEST PUSH0 DUP4 ADD CALLDATALOAD PUSH8 0xFFFFFFFFFFFFFFFF DUP2 GT ISZERO PUSH2 0x1437 JUMPI PUSH2 0x1436 PUSH2 0xF5E JUMP JUMPDEST JUMPDEST PUSH2 0x1443 DUP6 DUP3 DUP7 ADD PUSH2 0x10A4 JUMP JUMPDEST SWAP3 POP POP PUSH1 0x20 PUSH2 0x1454 DUP6 DUP3 DUP7 ADD PUSH2 0xF81 JUMP JUMPDEST SWAP2 POP POP SWAP3 POP SWAP3 SWAP1 POP JUMP JUMPDEST PUSH32 0x4F6E6C792073656C6C65722063616E2075706461746500000000000000000000 PUSH0 DUP3 ADD MSTORE POP JUMP JUMPDEST PUSH0 PUSH2 0x1492 PUSH1 0x16 DUP4 PUSH2 0x1215 JUMP JUMPDEST SWAP2 POP PUSH2 0x149D DUP3 PUSH2 0x145E JUMP JUMPDEST PUSH1 0x20 DUP3 ADD SWAP1 POP SWAP2 SWAP1 POP JUMP JUMPDEST PUSH0 PUSH1 0x20 DUP3 ADD SWAP1 POP DUP2 DUP2 SUB PUSH0 DUP4 ADD MSTORE PUSH2 0x14BF DUP2 PUSH2 0x1486 JUMP JUMPDEST SWAP1 POP SWAP2 SWAP1 POP JUMP JUMPDEST PUSH32 0x4E487B7100000000000000000000000000000000000000000000000000000000 PUSH0 MSTORE PUSH1 0x22 PUSH1 0x4 MSTORE PUSH1 0x24 PUSH0 REVERT JUMPDEST PUSH0 PUSH1 0x2 DUP3 DIV SWAP1 POP PUSH1 0x1 DUP3 AND DUP1 PUSH2 0x150A JUMPI PUSH1 0x7F DUP3 AND SWAP2 POP JUMPDEST PUSH1 0x20 DUP3 LT DUP2 SUB PUSH2 0x151D JUMPI PUSH2 0x151C PUSH2 0x14C6 JUMP JUMPDEST JUMPDEST POP SWAP2 SWAP1 POP JUMP JUMPDEST PUSH0 DUP2 SWAP1 POP DUP2 PUSH0 MSTORE PUSH1 0x20 PUSH0 KECCAK256 SWAP1 POP SWAP2 SWAP1 POP JUMP JUMPDEST PUSH0 PUSH1 0x20 PUSH1 0x1F DUP4 ADD DIV SWAP1 POP SWAP2 SWAP1 POP JUMP JUMPDEST PUSH0 DUP3 DUP3 SHL SWAP1 POP SWAP3 SWAP2 POP POP JUMP JUMPDEST PUSH0 PUSH1 0x8 DUP4 MUL PUSH2 0x157F PUSH32 0xFFFFFFFFFFFFFFFFFFFFFFFFFFFFFFFFFFFFFFFFFFFFFFFFFFFFFFFFFFFFFFFF DUP3 PUSH2 0x1544 JUMP JUMPDEST PUSH2 0x1589 DUP7 DUP4 PUSH2 0x1544 JUMP JUMPDEST SWAP6 POP DUP1 NOT DUP5 AND SWAP4 POP DUP1 DUP7 AND DUP5 OR SWAP3 POP POP POP SWAP4 SWAP3 POP POP POP JUMP JUMPDEST PUSH0 DUP2 SWAP1 POP SWAP2 SWAP1 POP JUMP JUMPDEST PUSH0 PUSH2 0x15C4 PUSH2 0x15BF PUSH2 0x15BA DUP5 PUSH2 0xF62 JUMP JUMPDEST PUSH2 0x15A1 JUMP JUMPDEST PUSH2 0xF62 JUMP JUMPDEST SWAP1 POP SWAP2 SWAP1 POP JUMP JUMPDEST PUSH0 DUP2 SWAP1 POP SWAP2 SWAP1 POP JUMP JUMPDEST PUSH2 0x15DD DUP4 PUSH2 0x15AA JUMP JUMPDEST PUSH2 0x15F1 PUSH2 0x15E9 DUP3 PUSH2 0x15CB JUMP JUMPDEST DUP5 DUP5 SLOAD PUSH2 0x1550 JUMP JUMPDEST DUP3 SSTORE POP POP POP POP JUMP JUMPDEST PUSH0 PUSH0 SWAP1 POP SWAP1 JUMP JUMPDEST PUSH2 0x1608 PUSH2 0x15F9 JUMP JUMPDEST PUSH2 0x1613 DUP2 DUP5 DUP5 PUSH2 0x15D4 JUMP JUMPDEST POP POP POP JUMP JUMPDEST JUMPDEST DUP2 DUP2 LT ISZERO PUSH2 0x1636 JUMPI PUSH2 0x162B PUSH0 DUP3 PUSH2 0x1600 JUMP JUMPDEST PUSH1 0x1 DUP2 ADD SWAP1 POP PUSH2 0x1619 JUMP JUMPDEST POP POP JUMP JUMPDEST PUSH1 0x1F DUP3 GT ISZERO PUSH2 0x167B JUMPI PUSH2 0x164C DUP2 PUSH2 0x1523 JUMP JUMPDEST PUSH2 0x1655 DUP5 PUSH2 0x1535 JUMP JUMPDEST DUP2 ADD PUSH1 0x20 DUP6 LT ISZERO PUSH2 0x1664 JUMPI DUP2 SWAP1 POP JUMPDEST PUSH2 0x1678 PUSH2 0x1670 DUP6 PUSH2 0x1535 JUMP JUMPDEST DUP4 ADD DUP3 PUSH2 0x1618 JUMP JUMPDEST POP POP JUMPDEST POP POP POP JUMP JUMPDEST PUSH0 DUP3 DUP3 SHR SWAP1 POP SWAP3 SWAP2 POP POP JUMP JUMPDEST PUSH0 PUSH2 0x169B PUSH0 NOT DUP5 PUSH1 0x8 MUL PUSH2 0x1680 JUMP JUMPDEST NOT DUP1 DUP4 AND SWAP2 POP POP SWAP3 SWAP2 POP POP JUMP JUMPDEST PUSH0 PUSH2 0x16B3 DUP4 DUP4 PUSH2 0x168C JUMP JUMPDEST SWAP2 POP DUP3 PUSH1 0x2 MUL DUP3 OR SWAP1 POP SWAP3 SWAP2 POP POP JUMP JUMPDEST PUSH2 0x16CC DUP3 PUSH2 0x120B JUMP JUMPDEST PUSH8 0xFFFFFFFFFFFFFFFF DUP2 GT ISZERO PUSH2 0x16E5 JUMPI PUSH2 0x16E4 PUSH2 0xFAD JUMP JUMPDEST JUMPDEST PUSH2 0x16EF DUP3 SLOAD PUSH2 0x14F3 JUMP JUMPDEST PUSH2 0x16FA DUP3 DUP3 DUP6 PUSH2 0x163A JUMP JUMPDEST PUSH0 PUSH1 0x20 SWAP1 POP PUSH1 0x1F DUP4 GT PUSH1 0x1 DUP2 EQ PUSH2 0x172B JUMPI PUSH0 DUP5 ISZERO PUSH2 0x1719 JUMPI DUP3 DUP8 ADD MLOAD SWAP1 POP JUMPDEST PUSH2 0x1723 DUP6 DUP3 PUSH2 0x16A8 JUMP JUMPDEST DUP7 SSTORE POP PUSH2 0x178A JUMP JUMPDEST PUSH1 0x1F NOT DUP5 AND PUSH2 0x1739 DUP7 PUSH2 0x1523 JUMP JUMPDEST PUSH0 JUMPDEST DUP3 DUP2 LT ISZERO PUSH2 0x1760 JUMPI DUP5 DUP10 ADD MLOAD DUP3 SSTORE PUSH1 0x1 DUP3 ADD SWAP2 POP PUSH1 0x20 DUP6 ADD SWAP5 POP PUSH1 0x20 DUP2 ADD SWAP1 POP PUSH2 0x173B JUMP JUMPDEST DUP7 DUP4 LT ISZERO PUSH2 0x177D JUMPI DUP5 DUP10 ADD MLOAD PUSH2 0x1779 PUSH1 0x1F DUP10 AND DUP3 PUSH2 0x168C JUMP JUMPDEST DUP4 SSTORE POP JUMPDEST PUSH1 0x1 PUSH1 0x2 DUP9 MUL ADD DUP9 SSTORE POP POP POP JUMPDEST POP POP POP POP POP POP JUMP JUMPDEST PUSH32 0x556E617574686F72697A65640000000000000000000000000000000000000000 PUSH0 DUP3 ADD MSTORE POP JUMP JUMPDEST PUSH0 PUSH2 0x17C6 PUSH1 0xC DUP4 PUSH2 0x1215 JUMP JUMPDEST SWAP2 POP PUSH2 0x17D1 DUP3 PUSH2 0x1792 JUMP JUMPDEST PUSH1 0x20 DUP3 ADD SWAP1 POP SWAP2 SWAP1 POP JUMP JUMPDEST PUSH0 PUSH1 0x20 DUP3 ADD SWAP1 POP DUP2 DUP2 SUB PUSH0 DUP4 ADD MSTORE PUSH2 0x17F3 DUP2 PUSH2 0x17BA JUMP JUMPDEST SWAP1 POP SWAP2 SWAP1 POP JUMP JUMPDEST PUSH32 0x4F72646572206578706972656400000000000000000000000000000000000000 PUSH0 DUP3 ADD MSTORE POP JUMP JUMPDEST PUSH0 PUSH2 0x182E PUSH1 0xD DUP4 PUSH2 0x1215 JUMP JUMPDEST SWAP2 POP PUSH2 0x1839 DUP3 PUSH2 0x17FA JUMP JUMPDEST PUSH1 0x20 DUP3 ADD SWAP1 POP SWAP2 SWAP1 POP JUMP JUMPDEST PUSH0 PUSH1 0x20 DUP3 ADD SWAP1 POP DUP2 DUP2 SUB PUSH0 DUP4 ADD MSTORE PUSH2 0x185B DUP2 PUSH2 0x1822 JUMP JUMPDEST SWAP1 POP SWAP2 SWAP1 POP JUMP JUMPDEST PUSH32 0x496E76616C696420737461747573207472616E736974696F6E00000000000000 PUSH0 DUP3 ADD MSTORE POP JUMP JUMPDEST PUSH0 PUSH2 0x1896 PUSH1 0x19 DUP4 PUSH2 0x1215 JUMP JUMPDEST SWAP2 POP PUSH2 0x18A1 DUP3 PUSH2 0x1862 JUMP JUMPDEST PUSH1 0x20 DUP3 ADD SWAP1 POP SWAP2 SWAP1 POP JUMP JUMPDEST PUSH0 PUSH1 0x20 DUP3 ADD SWAP1 POP DUP2 DUP2 SUB PUSH0 DUP4 ADD MSTORE PUSH2 0x18C3 DUP2 PUSH2 0x188A JUMP JUMPDEST SWAP1 POP SWAP2 SWAP1 POP JUMP JUMPDEST PUSH0 PUSH1 0x20 DUP3 ADD SWAP1 POP PUSH2 0x18DD PUSH0 DUP4 ADD DUP5 PUSH2 0x11FC JUMP JUMPDEST SWAP3 SWAP2 POP POP JUMP JUMPDEST PUSH0 PUSH1 0x20 DUP3 ADD SWAP1 POP PUSH2 0x18F6 PUSH0 DUP4 ADD DUP5 PUSH2 0x1366 JUMP JUMPDEST SWAP3 SWAP2 POP POP JUMP JUMPDEST PUSH32 0x4E487B7100000000000000000000000000000000000000000000000000000000 PUSH0 MSTORE PUSH1 0x32 PUSH1 0x4 MSTORE PUSH1 0x24 PUSH0 REVERT JUMPDEST PUSH0 DUP2 SLOAD SWAP1 POP PUSH2 0x1937 DUP2 PUSH2 0x14F3 JUMP JUMPDEST SWAP1 POP SWAP2 SWAP1 POP JUMP JUMPDEST DUP2 DUP2 SUB PUSH2 0x194C JUMPI POP POP PUSH2 0x1A21 JUMP JUMPDEST PUSH2 0x1955 DUP3 PUSH2 0x1929 JUMP JUMPDEST PUSH8 0xFFFFFFFFFFFFFFFF DUP2 GT ISZERO PUSH2 0x196E JUMPI PUSH2 0x196D PUSH2 0xFAD JUMP JUMPDEST JUMPDEST PUSH2 0x1978 DUP3 SLOAD PUSH2 0x14F3 JUMP JUMPDEST PUSH2 0x1983 DUP3 DUP3 DUP6 PUSH2 0x163A JUMP JUMPDEST PUSH0 PUSH1 0x1F DUP4 GT PUSH1 0x1 DUP2 EQ PUSH2 0x19B0 JUMPI PUSH0 DUP5 ISZERO PUSH2 0x199E JUMPI DUP3 DUP8 ADD SLOAD SWAP1 POP JUMPDEST PUSH2 0x19A8 DUP6 DUP3 PUSH2 0x16A8 JUMP JUMPDEST DUP7 SSTORE POP PUSH2 0x1A1A JUMP JUMPDEST PUSH1 0x1F NOT DUP5 AND PUSH2 0x19BE DUP8 PUSH2 0x1523 JUMP JUMPDEST SWAP7 POP PUSH2 0x19C9 DUP7 PUSH2 0x1523 JUMP JUMPDEST PUSH0 JUMPDEST DUP3 DUP2 LT ISZERO PUSH2 0x19F0 JUMPI DUP5 DUP10 ADD SLOAD DUP3 SSTORE PUSH1 0x1 DUP3 ADD SWAP2 POP PUSH1 0x1 DUP6 ADD SWAP5 POP PUSH1 0x20 DUP2 ADD SWAP1 POP PUSH2 0x19CB JUMP JUMPDEST DUP7 DUP4 LT ISZERO PUSH2 0x1A0D JUMPI DUP5 DUP10 ADD SLOAD PUSH2 0x1A09 PUSH1 0x1F DUP10 AND DUP3 PUSH2 0x168C JUMP JUMPDEST DUP4 SSTORE POP JUMPDEST PUSH1 0x1 PUSH1 0x2 DUP9 MUL ADD DUP9 SSTORE POP POP POP JUMPDEST POP POP POP POP POP POP JUMPDEST JUMP JUMPDEST PUSH0 PUSH1 0x60 DUP3 ADD SWAP1 POP DUP2 DUP2 SUB PUSH0 DUP4 ADD MSTORE PUSH2 0x1A3B DUP2 DUP7 PUSH2 0x1233 JUMP JUMPDEST SWAP1 POP PUSH2 0x1A4A PUSH1 0x20 DUP4 ADD DUP6 PUSH2 0x11FC JUMP JUMPDEST PUSH2 0x1A57 PUSH1 0x40 DUP4 ADD DUP5 PUSH2 0x129B JUMP JUMPDEST SWAP5 SWAP4 POP POP POP POP JUMP JUMPDEST PUSH32 0x50726F64756374206E6F7420617661696C61626C650000000000000000000000 PUSH0 DUP3 ADD MSTORE POP JUMP JUMPDEST PUSH0 PUSH2 0x1A93 PUSH1 0x15 DUP4 PUSH2 0x1215 JUMP JUMPDEST SWAP2 POP PUSH2 0x1A9E DUP3 PUSH2 0x1A5F JUMP JUMPDEST PUSH1 0x20 DUP3 ADD SWAP1 POP SWAP2 SWAP1 POP JUMP JUMPDEST PUSH0 PUSH1 0x20 DUP3 ADD SWAP1 POP DUP2 DUP2 SUB PUSH0 DUP4 ADD MSTORE PUSH2 0x1AC0 DUP2 PUSH2 0x1A87 JUMP JUMPDEST SWAP1 POP SWAP2 SWAP1 POP JUMP JUMPDEST PUSH32 0x496E636F7272656374207061796D656E7420616D6F756E740000000000000000 PUSH0 DUP3 ADD MSTORE POP JUMP JUMPDEST PUSH0 PUSH2 0x1AFB PUSH1 0x18 DUP4 PUSH2 0x1215 JUMP JUMPDEST SWAP2 POP PUSH2 0x1B06 DUP3 PUSH2 0x1AC7 JUMP JUMPDEST PUSH1 0x20 DUP3 ADD SWAP1 POP SWAP2 SWAP1 POP JUMP JUMPDEST PUSH0 PUSH1 0x20 DUP3 ADD SWAP1 POP DUP2 DUP2 SUB PUSH0 DUP4 ADD MSTORE PUSH2 0x1B28 DUP2 PUSH2 0x1AEF JUMP JUMPDEST SWAP1 POP SWAP2 SWAP1 POP JUMP JUMPDEST PUSH32 0x4E487B7100000000000000000000000000000000000000000000000000000000 PUSH0 MSTORE PUSH1 0x11 PUSH1 0x4 MSTORE PUSH1 0x24 PUSH0 REVERT JUMPDEST PUSH0 PUSH2 0x1B66 DUP3 PUSH2 0xF62 JUMP JUMPDEST SWAP2 POP PUSH32 0xFFFFFFFFFFFFFFFFFFFFFFFFFFFFFFFFFFFFFFFFFFFFFFFFFFFFFFFFFFFFFFFF DUP3 SUB PUSH2 0x1B98 JUMPI PUSH2 0x1B97 PUSH2 0x1B2F JUMP JUMPDEST JUMPDEST PUSH1 0x1 DUP3 ADD SWAP1 POP SWAP2 SWAP1 POP JUMP JUMPDEST PUSH0 PUSH1 0x80 DUP3 ADD SWAP1 POP PUSH2 0x1BB6 PUSH0 DUP4 ADD DUP8 PUSH2 0x129B JUMP JUMPDEST PUSH2 0x1BC3 PUSH1 0x20 DUP4 ADD DUP7 PUSH2 0x11FC JUMP JUMPDEST PUSH2 0x1BD0 PUSH1 0x40 DUP4 ADD DUP6 PUSH2 0x11FC JUMP JUMPDEST PUSH2 0x1BDD PUSH1 0x60 DUP4 ADD DUP5 PUSH2 0x11FC JUMP JUMPDEST SWAP6 SWAP5 POP POP POP POP POP JUMP JUMPDEST PUSH0 PUSH2 0x1BF0 DUP3 PUSH2 0xF62 JUMP JUMPDEST SWAP2 POP PUSH2 0x1BFB DUP4 PUSH2 0xF62 JUMP JUMPDEST SWAP3 POP DUP3 DUP3 ADD SWAP1 POP DUP1 DUP3 GT ISZERO PUSH2 0x1C13 JUMPI PUSH2 0x1C12 PUSH2 0x1B2F JUMP JUMPDEST JUMPDEST SWAP3 SWAP2 POP POP JUMP INVALID LOG2 PUSH5 0x6970667358 0x22 SLT KECCAK256 0xC7 REVERT 0xDF 0xA6 0xA9 BLOCKHASH SWAP4 PREVRANDAO SAR PUSH23 0x5666DB98E62549B96CFA0027D23C4A59FE0C6A8A30B764 PUSH20 0x6F6C634300081E00330000000000000000000000 "
				},
				"gasEstimates": {
					"creation": {
						"codeDepositCost": "1449400",
						"executionCost": "1511",
						"totalCost": "1450911"
					},
					"external": {
						"addProduct(string,uint256)": "infinite",
						"createOrder(uint256)": "infinite",
						"isValidTransition(uint8,uint8)": "infinite",
						"orders(uint256)": "infinite",
						"productById(uint256)": "infinite",
						"products(uint256)": "infinite",
						"updateOrderStatus(uint256,uint8)": "infinite",
						"updateProductName(uint256,string,uint256)": "infinite"
					}
				},
				"methodIdentifiers": {
					"addProduct(string,uint256)": "b15247d9",
					"createOrder(uint256)": "f8ad8cd7",
					"isValidTransition(uint8,uint8)": "79412d28",
					"orders(uint256)": "a85c38ef",
					"productById(uint256)": "a30b475f",
					"products(uint256)": "7acc0b20",
					"updateOrderStatus(uint256,uint8)": "aab3196d",
					"updateProductName(uint256,string,uint256)": "61c18c8a"
				}
			},
			"storageLayout": {
				"storage": [
					{
						"astId": 70,
						"contract": "contract/update.sol:Marketplace",
						"label": "products",
						"offset": 0,
						"slot": "0",
						"type": "t_array(t_struct(Product)12_storage)dyn_storage"
					},
					{
						"astId": 75,
						"contract": "contract/update.sol:Marketplace",
						"label": "productById",
						"offset": 0,
						"slot": "1",
						"type": "t_mapping(t_uint256,t_struct(Product)12_storage)"
					},
					{
						"astId": 80,
						"contract": "contract/update.sol:Marketplace",
						"label": "orders",
						"offset": 0,
						"slot": "2",
						"type": "t_mapping(t_uint256,t_struct(Order)31_storage)"
					},
					{
						"astId": 84,
						"contract": "contract/update.sol:Marketplace",
						"label": "orderPayments",
						"offset": 0,
						"slot": "3",
						"type": "t_mapping(t_uint256,t_uint256)"
					},
					{
						"astId": 86,
						"contract": "contract/update.sol:Marketplace",
						"label": "orderNonce",
						"offset": 0,
						"slot": "4",
						"type": "t_uint256"
					}
				],
				"types": {
					"t_address": {
						"encoding": "inplace",
						"label": "address",
						"numberOfBytes": "20"
					},
					"t_array(t_struct(Product)12_storage)dyn_storage": {
						"base": "t_struct(Product)12_storage",
						"encoding": "dynamic_array",
						"label": "struct Marketplace.Product[]",
						"numberOfBytes": "32"
					},
					"t_bool": {
						"encoding": "inplace",
						"label": "bool",
						"numberOfBytes": "1"
					},
					"t_enum(OrderStatus)19": {
						"encoding": "inplace",
						"label": "enum Marketplace.OrderStatus",
						"numberOfBytes": "1"
					},
					"t_mapping(t_uint256,t_struct(Order)31_storage)": {
						"encoding": "mapping",
						"key": "t_uint256",
						"label": "mapping(uint256 => struct Marketplace.Order)",
						"numberOfBytes": "32",
						"value": "t_struct(Order)31_storage"
					},
					"t_mapping(t_uint256,t_struct(Product)12_storage)": {
						"encoding": "mapping",
						"key": "t_uint256",
						"label": "mapping(uint256 => struct Marketplace.Product)",
						"numberOfBytes": "32",
						"value": "t_struct(Product)12_storage"
					},
					"t_mapping(t_uint256,t_uint256)": {
						"encoding": "mapping",
						"key": "t_uint256",
						"label": "mapping(uint256 => uint256)",
						"numberOfBytes": "32",
						"value": "t_uint256"
					},
					"t_string_storage": {
						"encoding": "bytes",
						"label": "string",
						"numberOfBytes": "32"
					},
					"t_struct(Order)31_storage": {
						"encoding": "inplace",
						"label": "struct Marketplace.Order",
						"members": [
							{
								"astId": 21,
								"contract": "contract/update.sol:Marketplace",
								"label": "id",
								"offset": 0,
								"slot": "0",
								"type": "t_uint256"
							},
							{
								"astId": 23,
								"contract": "contract/update.sol:Marketplace",
								"label": "buyer",
								"offset": 0,
								"slot": "1",
								"type": "t_address"
							},
							{
								"astId": 25,
								"contract": "contract/update.sol:Marketplace",
								"label": "productId",
								"offset": 0,
								"slot": "2",
								"type": "t_uint256"
							},
							{
								"astId": 28,
								"contract": "contract/update.sol:Marketplace",
								"label": "status",
								"offset": 0,
								"slot": "3",
								"type": "t_enum(OrderStatus)19"
							},
							{
								"astId": 30,
								"contract": "contract/update.sol:Marketplace",
								"label": "deadline",
								"offset": 0,
								"slot": "4",
								"type": "t_uint256"
							}
						],
						"numberOfBytes": "160"
					},
					"t_struct(Product)12_storage": {
						"encoding": "inplace",
						"label": "struct Marketplace.Product",
						"members": [
							{
								"astId": 3,
								"contract": "contract/update.sol:Marketplace",
								"label": "id",
								"offset": 0,
								"slot": "0",
								"type": "t_uint256"
							},
							{
								"astId": 5,
								"contract": "contract/update.sol:Marketplace",
								"label": "name",
								"offset": 0,
								"slot": "1",
								"type": "t_string_storage"
							},
							{
								"astId": 7,
								"contract": "contract/update.sol:Marketplace",
								"label": "price",
								"offset": 0,
								"slot": "2",
								"type": "t_uint256"
							},
							{
								"astId": 9,
								"contract": "contract/update.sol:Marketplace",
								"label": "seller",
								"offset": 0,
								"slot": "3",
								"type": "t_address"
							},
							{
								"astId": 11,
								"contract": "contract/update.sol:Marketplace",
								"label": "isAvailable",
								"offset": 20,
								"slot": "3",
								"type": "t_bool"
							}
						],
						"numberOfBytes": "128"
					},
					"t_uint256": {
						"encoding": "inplace",
						"label": "uint256",
						"numberOfBytes": "32"
					}
				}
			},
			"userdoc": {
				"kind": "user",
				"methods": {},
				"version": 1
			}
		}
	}
}