{
	"contract/Marketplace.sol": {
		"Marketplace": {
			"abi": [
				{
					"anonymous": false,
					"inputs": [
						{
							"indexed": true,
							"internalType": "uint256",
							"name": "orderId",
							"type": "uint256"
						},
						{
							"indexed": true,
							"internalType": "address",
							"name": "buyer",
							"type": "address"
						},
						{
							"indexed": true,
							"internalType": "uint256",
							"name": "productId",
							"type": "uint256"
						},
						{
							"indexed": false,
							"internalType": "uint256",
							"name": "amount",
							"type": "uint256"
						}
					],
					"name": "OrderCreated",
					"type": "event"
				},
				{
					"anonymous": false,
					"inputs": [
						{
							"indexed": true,
							"internalType": "uint256",
							"name": "orderId",
							"type": "uint256"
						},
						{
							"indexed": false,
							"internalType": "enum Marketplace.OrderStatus",
							"name": "newStatus",
							"type": "uint8"
						}
					],
					"name": "OrderStatusUpdated",
					"type": "event"
				},
				{
					"anonymous": false,
					"inputs": [
						{
							"indexed": true,
							"internalType": "uint256",
							"name": "productId",
							"type": "uint256"
						},
						{
							"indexed": true,
							"internalType": "address",
							"name": "seller",
							"type": "address"
						},
						{
							"indexed": false,
							"internalType": "uint256",
							"name": "price",
							"type": "uint256"
						},
						{
							"indexed": false,
							"internalType": "string",
							"name": "name",
							"type": "string"
						}
					],
					"name": "ProductAdded",
					"type": "event"
				},
				{
					"anonymous": false,
					"inputs": [
						{
							"indexed": true,
							"internalType": "uint256",
							"name": "productId",
							"type": "uint256"
						},
						{
							"indexed": false,
							"internalType": "string",
							"name": "newName",
							"type": "string"
						},
						{
							"indexed": false,
							"internalType": "uint256",
							"name": "newPrice",
							"type": "uint256"
						}
					],
					"name": "ProductUpdated",
					"type": "event"
				},
				{
					"inputs": [
						{
							"internalType": "string",
							"name": "name",
							"type": "string"
						},
						{
							"internalType": "uint256",
							"name": "price",
							"type": "uint256"
						}
					],
					"name": "addProduct",
					"outputs": [],
					"stateMutability": "nonpayable",
					"type": "function"
				},
				{
					"inputs": [
						{
							"internalType": "uint256",
							"name": "productId",
							"type": "uint256"
						},
						{
							"internalType": "uint256",
							"name": "priceInput",
							"type": "uint256"
						}
					],
					"name": "createOrder",
					"outputs": [],
					"stateMutability": "payable",
					"type": "function"
				},
				{
					"inputs": [
						{
							"internalType": "uint256",
							"name": "productId",
							"type": "uint256"
						}
					],
					"name": "getProductPrice",
					"outputs": [
						{
							"internalType": "uint256",
							"name": "",
							"type": "uint256"
						}
					],
					"stateMutability": "view",
					"type": "function"
				},
				{
					"inputs": [
						{
							"internalType": "enum Marketplace.OrderStatus",
							"name": "from",
							"type": "uint8"
						},
						{
							"internalType": "enum Marketplace.OrderStatus",
							"name": "to",
							"type": "uint8"
						}
					],
					"name": "isValidTransition",
					"outputs": [
						{
							"internalType": "bool",
							"name": "",
							"type": "bool"
						}
					],
					"stateMutability": "pure",
					"type": "function"
				},
				{
					"inputs": [
						{
							"internalType": "uint256",
							"name": "",
							"type": "uint256"
						}
					],
					"name": "orders",
					"outputs": [
						{
							"internalType": "uint256",
							"name": "id",
							"type": "uint256"
						},
						{
							"internalType": "address",
							"name": "buyer",
							"type": "address"
						},
						{
							"internalType": "uint256",
							"name": "productId",
							"type": "uint256"
						},
						{
							"internalType": "uint256",
							"name": "timestamp",
							"type": "uint256"
						},
						{
							"internalType": "uint256",
							"name": "deadline",
							"type": "uint256"
						},
						{
							"internalType": "enum Marketplace.OrderStatus",
							"name": "status",
							"type": "uint8"
						}
					],
					"stateMutability": "view",
					"type": "function"
				},
				{
					"inputs": [
						{
							"internalType": "uint256",
							"name": "",
							"type": "uint256"
						}
					],
					"name": "productById",
					"outputs": [
						{
							"internalType": "uint256",
							"name": "id",
							"type": "uint256"
						},
						{
							"internalType": "string",
							"name": "name",
							"type": "string"
						},
						{
							"internalType": "uint256",
							"name": "price",
							"type": "uint256"
						},
						{
							"internalType": "address",
							"name": "seller",
							"type": "address"
						},
						{
							"internalType": "bool",
							"name": "isAvailable",
							"type": "bool"
						}
					],
					"stateMutability": "view",
					"type": "function"
				},
				{
					"inputs": [
						{
							"internalType": "uint256",
							"name": "",
							"type": "uint256"
						}
					],
					"name": "products",
					"outputs": [
						{
							"internalType": "uint256",
							"name": "id",
							"type": "uint256"
						},
						{
							"internalType": "string",
							"name": "name",
							"type": "string"
						},
						{
							"internalType": "uint256",
							"name": "price",
							"type": "uint256"
						},
						{
							"internalType": "address",
							"name": "seller",
							"type": "address"
						},
						{
							"internalType": "bool",
							"name": "isAvailable",
							"type": "bool"
						}
					],
					"stateMutability": "view",
					"type": "function"
				},
				{
					"inputs": [
						{
							"internalType": "uint256",
							"name": "orderId",
							"type": "uint256"
						},
						{
							"internalType": "enum Marketplace.OrderStatus",
							"name": "newStatus",
							"type": "uint8"
						}
					],
					"name": "updateOrderStatus",
					"outputs": [],
					"stateMutability": "nonpayable",
					"type": "function"
				},
				{
					"inputs": [
						{
							"internalType": "uint256",
							"name": "productId",
							"type": "uint256"
						},
						{
							"internalType": "string",
							"name": "newName",
							"type": "string"
						},
						{
							"internalType": "uint256",
							"name": "newPrice",
							"type": "uint256"
						}
					],
					"name": "updateProductName",
					"outputs": [],
					"stateMutability": "nonpayable",
					"type": "function"
				}
			],
			"devdoc": {
				"kind": "dev",
				"methods": {},
				"version": 1
			},
			"evm": {
				"assembly": "    /* \"contract/Marketplace.sol\":61:5633  contract Marketplace {... */\n  mstore(0x40, 0x80)\n  callvalue\n  dup1\n  iszero\n  tag_1\n  jumpi\n  revert(0x00, 0x00)\ntag_1:\n  pop\n  dataSize(sub_0)\n  dup1\n  dataOffset(sub_0)\n  0x00\n  codecopy\n  0x00\n  return\nstop\n\nsub_0: assembly {\n        /* \"contract/Marketplace.sol\":61:5633  contract Marketplace {... */\n      mstore(0x40, 0x80)\n      jumpi(tag_1, lt(calldatasize, 0x04))\n      shr(0xe0, calldataload(0x00))\n      dup1\n      0xa30b475f\n      gt\n      tag_11\n      jumpi\n      dup1\n      0xa30b475f\n      eq\n      tag_6\n      jumpi\n      dup1\n      0xa85c38ef\n      eq\n      tag_7\n      jumpi\n      dup1\n      0xaab3196d\n      eq\n      tag_8\n      jumpi\n      dup1\n      0xb15247d9\n      eq\n      tag_9\n      jumpi\n      dup1\n      0xe7bf7dfc\n      eq\n      tag_10\n      jumpi\n      jump(tag_1)\n    tag_11:\n      dup1\n      0x61c18c8a\n      eq\n      tag_2\n      jumpi\n      dup1\n      0x79109baa\n      eq\n      tag_3\n      jumpi\n      dup1\n      0x79412d28\n      eq\n      tag_4\n      jumpi\n      dup1\n      0x7acc0b20\n      eq\n      tag_5\n      jumpi\n    tag_1:\n      revert(0x00, 0x00)\n        /* \"contract/Marketplace.sol\":1924:2394  function updateProductName(uint256 productId, string memory newName, uint256 newPrice) external {... */\n    tag_2:\n      callvalue\n      dup1\n      iszero\n      tag_12\n      jumpi\n      revert(0x00, 0x00)\n    tag_12:\n      pop\n      tag_13\n      0x04\n      dup1\n      calldatasize\n      sub\n      dup2\n      add\n      swap1\n      tag_14\n      swap2\n      swap1\n      tag_15\n      jump\t// in\n    tag_14:\n      tag_16\n      jump\t// in\n    tag_13:\n      stop\n        /* \"contract/Marketplace.sol\":2652:3816  function createOrder(uint256 productId, uint256 priceInput) public payable {... */\n    tag_3:\n      tag_17\n      0x04\n      dup1\n      calldatasize\n      sub\n      dup2\n      add\n      swap1\n      tag_18\n      swap2\n      swap1\n      tag_19\n      jump\t// in\n    tag_18:\n      tag_20\n      jump\t// in\n    tag_17:\n      stop\n        /* \"contract/Marketplace.sol\":4942:5399  function isValidTransition(OrderStatus from, OrderStatus to) public pure returns (bool) {... */\n    tag_4:\n      callvalue\n      dup1\n      iszero\n      tag_21\n      jumpi\n      revert(0x00, 0x00)\n    tag_21:\n      pop\n      tag_22\n      0x04\n      dup1\n      calldatasize\n      sub\n      dup2\n      add\n      swap1\n      tag_23\n      swap2\n      swap1\n      tag_24\n      jump\t// in\n    tag_23:\n      tag_25\n      jump\t// in\n    tag_22:\n      mload(0x40)\n      tag_26\n      swap2\n      swap1\n      tag_27\n      jump\t// in\n    tag_26:\n      mload(0x40)\n      dup1\n      swap2\n      sub\n      swap1\n      return\n        /* \"contract/Marketplace.sol\":690:715  Product[] public products */\n    tag_5:\n      callvalue\n      dup1\n      iszero\n      tag_28\n      jumpi\n      revert(0x00, 0x00)\n    tag_28:\n      pop\n      tag_29\n      0x04\n      dup1\n      calldatasize\n      sub\n      dup2\n      add\n      swap1\n      tag_30\n      swap2\n      swap1\n      tag_31\n      jump\t// in\n    tag_30:\n      tag_32\n      jump\t// in\n    tag_29:\n      mload(0x40)\n      tag_33\n      swap6\n      swap5\n      swap4\n      swap3\n      swap2\n      swap1\n      tag_34\n      jump\t// in\n    tag_33:\n      mload(0x40)\n      dup1\n      swap2\n      sub\n      swap1\n      return\n        /* \"contract/Marketplace.sol\":722:768  mapping(uint256 => Product) public productById */\n    tag_6:\n      callvalue\n      dup1\n      iszero\n      tag_35\n      jumpi\n      revert(0x00, 0x00)\n    tag_35:\n      pop\n      tag_36\n      0x04\n      dup1\n      calldatasize\n      sub\n      dup2\n      add\n      swap1\n      tag_37\n      swap2\n      swap1\n      tag_31\n      jump\t// in\n    tag_37:\n      tag_38\n      jump\t// in\n    tag_36:\n      mload(0x40)\n      tag_39\n      swap6\n      swap5\n      swap4\n      swap3\n      swap2\n      swap1\n      tag_34\n      jump\t// in\n    tag_39:\n      mload(0x40)\n      dup1\n      swap2\n      sub\n      swap1\n      return\n        /* \"contract/Marketplace.sol\":775:814  mapping(uint256 => Order) public orders */\n    tag_7:\n      callvalue\n      dup1\n      iszero\n      tag_40\n      jumpi\n      revert(0x00, 0x00)\n    tag_40:\n      pop\n      tag_41\n      0x04\n      dup1\n      calldatasize\n      sub\n      dup2\n      add\n      swap1\n      tag_42\n      swap2\n      swap1\n      tag_31\n      jump\t// in\n    tag_42:\n      tag_43\n      jump\t// in\n    tag_41:\n      mload(0x40)\n      tag_44\n      swap7\n      swap6\n      swap5\n      swap4\n      swap3\n      swap2\n      swap1\n      tag_45\n      jump\t// in\n    tag_44:\n      mload(0x40)\n      dup1\n      swap2\n      sub\n      swap1\n      return\n        /* \"contract/Marketplace.sol\":3901:4842  function updateOrderStatus(uint256 orderId, OrderStatus newStatus) external {... */\n    tag_8:\n      callvalue\n      dup1\n      iszero\n      tag_46\n      jumpi\n      revert(0x00, 0x00)\n    tag_46:\n      pop\n      tag_47\n      0x04\n      dup1\n      calldatasize\n      sub\n      dup2\n      add\n      swap1\n      tag_48\n      swap2\n      swap1\n      tag_49\n      jump\t// in\n    tag_48:\n      tag_50\n      jump\t// in\n    tag_47:\n      stop\n        /* \"contract/Marketplace.sol\":1389:1857  function addProduct(string memory name, uint256 price) external {... */\n    tag_9:\n      callvalue\n      dup1\n      iszero\n      tag_51\n      jumpi\n      revert(0x00, 0x00)\n    tag_51:\n      pop\n      tag_52\n      0x04\n      dup1\n      calldatasize\n      sub\n      dup2\n      add\n      swap1\n      tag_53\n      swap2\n      swap1\n      tag_54\n      jump\t// in\n    tag_53:\n      tag_55\n      jump\t// in\n    tag_52:\n      stop\n        /* \"contract/Marketplace.sol\":5500:5630  function getProductPrice(uint256 productId) external view returns (uint256) {... */\n    tag_10:\n      callvalue\n      dup1\n      iszero\n      tag_56\n      jumpi\n      revert(0x00, 0x00)\n    tag_56:\n      pop\n      tag_57\n      0x04\n      dup1\n      calldatasize\n      sub\n      dup2\n      add\n      swap1\n      tag_58\n      swap2\n      swap1\n      tag_31\n      jump\t// in\n    tag_58:\n      tag_59\n      jump\t// in\n    tag_57:\n      mload(0x40)\n      tag_60\n      swap2\n      swap1\n      tag_61\n      jump\t// in\n    tag_60:\n      mload(0x40)\n      dup1\n      swap2\n      sub\n      swap1\n      return\n        /* \"contract/Marketplace.sol\":1924:2394  function updateProductName(uint256 productId, string memory newName, uint256 newPrice) external {... */\n    tag_16:\n        /* \"contract/Marketplace.sol\":2031:2054  Product storage product */\n      0x00\n        /* \"contract/Marketplace.sol\":2057:2068  productById */\n      0x01\n        /* \"contract/Marketplace.sol\":2057:2079  productById[productId] */\n      0x00\n        /* \"contract/Marketplace.sol\":2069:2078  productId */\n      dup6\n        /* \"contract/Marketplace.sol\":2057:2079  productById[productId] */\n      dup2\n      mstore\n      0x20\n      add\n      swap1\n      dup2\n      mstore\n      0x20\n      add\n      0x00\n      keccak256\n        /* \"contract/Marketplace.sol\":2031:2079  Product storage product = productById[productId] */\n      swap1\n      pop\n        /* \"contract/Marketplace.sol\":2112:2119  product */\n      dup1\n        /* \"contract/Marketplace.sol\":2112:2126  product.seller */\n      0x03\n      add\n      0x00\n      swap1\n      sload\n      swap1\n      0x0100\n      exp\n      swap1\n      div\n      0xffffffffffffffffffffffffffffffffffffffff\n      and\n        /* \"contract/Marketplace.sol\":2098:2126  msg.sender == product.seller */\n      0xffffffffffffffffffffffffffffffffffffffff\n      and\n        /* \"contract/Marketplace.sol\":2098:2108  msg.sender */\n      caller\n        /* \"contract/Marketplace.sol\":2098:2126  msg.sender == product.seller */\n      0xffffffffffffffffffffffffffffffffffffffff\n      and\n      eq\n        /* \"contract/Marketplace.sol\":2090:2161  require(msg.sender == product.seller, \"Only seller can update product\") */\n      tag_63\n      jumpi\n      mload(0x40)\n      0x08c379a000000000000000000000000000000000000000000000000000000000\n      dup2\n      mstore\n      0x04\n      add\n      tag_64\n      swap1\n      tag_65\n      jump\t// in\n    tag_64:\n      mload(0x40)\n      dup1\n      swap2\n      sub\n      swap1\n      revert\n    tag_63:\n        /* \"contract/Marketplace.sol\":2187:2194  newName */\n      dup3\n        /* \"contract/Marketplace.sol\":2172:2179  product */\n      dup2\n        /* \"contract/Marketplace.sol\":2172:2184  product.name */\n      0x01\n      add\n        /* \"contract/Marketplace.sol\":2172:2194  product.name = newName */\n      swap1\n      dup2\n      tag_66\n      swap2\n      swap1\n      tag_67\n      jump\t// in\n    tag_66:\n      pop\n        /* \"contract/Marketplace.sol\":2221:2229  newPrice */\n      dup2\n        /* \"contract/Marketplace.sol\":2205:2212  product */\n      dup2\n        /* \"contract/Marketplace.sol\":2205:2218  product.price */\n      0x02\n      add\n        /* \"contract/Marketplace.sol\":2205:2229  product.price = newPrice */\n      dup2\n      swap1\n      sstore\n      pop\n        /* \"contract/Marketplace.sol\":2319:2326  product */\n      dup1\n        /* \"contract/Marketplace.sol\":2297:2305  products */\n      0x00\n        /* \"contract/Marketplace.sol\":2306:2315  productId */\n      dup6\n        /* \"contract/Marketplace.sol\":2297:2316  products[productId] */\n      dup2\n      sload\n      dup2\n      lt\n      tag_68\n      jumpi\n      tag_69\n      tag_70\n      jump\t// in\n    tag_69:\n    tag_68:\n      swap1\n      0x00\n      mstore\n      keccak256(0x00, 0x20)\n      swap1\n      0x04\n      mul\n      add\n        /* \"contract/Marketplace.sol\":2297:2326  products[productId] = product */\n      0x00\n      dup3\n      add\n      sload\n      dup2\n      0x00\n      add\n      sstore\n      0x01\n      dup3\n      add\n      dup2\n      0x01\n      add\n      swap1\n      dup2\n      tag_72\n      swap2\n      swap1\n      tag_73\n      jump\t// in\n    tag_72:\n      pop\n      0x02\n      dup3\n      add\n      sload\n      dup2\n      0x02\n      add\n      sstore\n      0x03\n      dup3\n      add\n      0x00\n      swap1\n      sload\n      swap1\n      0x0100\n      exp\n      swap1\n      div\n      0xffffffffffffffffffffffffffffffffffffffff\n      and\n      dup2\n      0x03\n      add\n      exp(0x0100, 0x00)\n      dup2\n      sload\n      dup2\n      0xffffffffffffffffffffffffffffffffffffffff\n      mul\n      not\n      and\n      swap1\n      dup4\n      0xffffffffffffffffffffffffffffffffffffffff\n      and\n      mul\n      or\n      swap1\n      sstore\n      pop\n      0x03\n      dup3\n      add\n      0x14\n      swap1\n      sload\n      swap1\n      0x0100\n      exp\n      swap1\n      div\n      0xff\n      and\n      dup2\n      0x03\n      add\n      exp(0x0100, 0x14)\n      dup2\n      sload\n      dup2\n      0xff\n      mul\n      not\n      and\n      swap1\n      dup4\n      iszero\n      iszero\n      mul\n      or\n      swap1\n      sstore\n      pop\n      swap1\n      pop\n      pop\n        /* \"contract/Marketplace.sol\":2357:2366  productId */\n      dup4\n        /* \"contract/Marketplace.sol\":2342:2386  ProductUpdated(productId, newName, newPrice) */\n      0xf9b1d9170fbe32752353e00d62e5276b143166c75aa974030dddfac2895601fe\n        /* \"contract/Marketplace.sol\":2368:2375  newName */\n      dup5\n        /* \"contract/Marketplace.sol\":2377:2385  newPrice */\n      dup5\n        /* \"contract/Marketplace.sol\":2342:2386  ProductUpdated(productId, newName, newPrice) */\n      mload(0x40)\n      tag_74\n      swap3\n      swap2\n      swap1\n      tag_75\n      jump\t// in\n    tag_74:\n      mload(0x40)\n      dup1\n      swap2\n      sub\n      swap1\n      log2\n        /* \"contract/Marketplace.sol\":2020:2394  {... */\n      pop\n        /* \"contract/Marketplace.sol\":1924:2394  function updateProductName(uint256 productId, string memory newName, uint256 newPrice) external {... */\n      pop\n      pop\n      pop\n      jump\t// out\n        /* \"contract/Marketplace.sol\":2652:3816  function createOrder(uint256 productId, uint256 priceInput) public payable {... */\n    tag_20:\n        /* \"contract/Marketplace.sol\":2738:2761  Product storage product */\n      0x00\n        /* \"contract/Marketplace.sol\":2764:2775  productById */\n      0x01\n        /* \"contract/Marketplace.sol\":2764:2786  productById[productId] */\n      0x00\n        /* \"contract/Marketplace.sol\":2776:2785  productId */\n      dup5\n        /* \"contract/Marketplace.sol\":2764:2786  productById[productId] */\n      dup2\n      mstore\n      0x20\n      add\n      swap1\n      dup2\n      mstore\n      0x20\n      add\n      0x00\n      keccak256\n        /* \"contract/Marketplace.sol\":2738:2786  Product storage product = productById[productId] */\n      swap1\n      pop\n        /* \"contract/Marketplace.sol\":2805:2812  product */\n      dup1\n        /* \"contract/Marketplace.sol\":2805:2824  product.isAvailable */\n      0x03\n      add\n      0x14\n      swap1\n      sload\n      swap1\n      0x0100\n      exp\n      swap1\n      div\n      0xff\n      and\n        /* \"contract/Marketplace.sol\":2797:2850  require(product.isAvailable, \"Product not available\") */\n      tag_77\n      jumpi\n      mload(0x40)\n      0x08c379a000000000000000000000000000000000000000000000000000000000\n      dup2\n      mstore\n      0x04\n      add\n      tag_78\n      swap1\n      tag_79\n      jump\t// in\n    tag_78:\n      mload(0x40)\n      dup1\n      swap2\n      sub\n      swap1\n      revert\n    tag_77:\n        /* \"contract/Marketplace.sol\":2883:2890  product */\n      dup1\n        /* \"contract/Marketplace.sol\":2883:2896  product.price */\n      0x02\n      add\n      sload\n        /* \"contract/Marketplace.sol\":2869:2879  priceInput */\n      dup3\n        /* \"contract/Marketplace.sol\":2869:2896  priceInput == product.price */\n      eq\n        /* \"contract/Marketplace.sol\":2861:2921  require(priceInput == product.price, \"Price input mismatch\") */\n      tag_80\n      jumpi\n      mload(0x40)\n      0x08c379a000000000000000000000000000000000000000000000000000000000\n      dup2\n      mstore\n      0x04\n      add\n      tag_81\n      swap1\n      tag_82\n      jump\t// in\n    tag_81:\n      mload(0x40)\n      dup1\n      swap2\n      sub\n      swap1\n      revert\n    tag_80:\n        /* \"contract/Marketplace.sol\":2953:2963  priceInput */\n      dup2\n        /* \"contract/Marketplace.sol\":2940:2949  msg.value */\n      callvalue\n        /* \"contract/Marketplace.sol\":2940:2963  msg.value == priceInput */\n      eq\n        /* \"contract/Marketplace.sol\":2932:2992  require(msg.value == priceInput, \"Incorrect payment amount\") */\n      tag_83\n      jumpi\n      mload(0x40)\n      0x08c379a000000000000000000000000000000000000000000000000000000000\n      dup2\n      mstore\n      0x04\n      add\n      tag_84\n      swap1\n      tag_85\n      jump\t// in\n    tag_84:\n      mload(0x40)\n      dup1\n      swap2\n      sub\n      swap1\n      revert\n    tag_83:\n        /* \"contract/Marketplace.sol\":3098:3113  uint256 orderId */\n      0x00\n        /* \"contract/Marketplace.sol\":3151:3161  msg.sender */\n      caller\n        /* \"contract/Marketplace.sol\":3163:3172  productId */\n      dup5\n        /* \"contract/Marketplace.sol\":3174:3184  orderNonce */\n      sload(0x04)\n        /* \"contract/Marketplace.sol\":3186:3201  block.timestamp */\n      timestamp\n        /* \"contract/Marketplace.sol\":3134:3202  abi.encodePacked(msg.sender, productId, orderNonce, block.timestamp) */\n      add(0x20, mload(0x40))\n      tag_86\n      swap5\n      swap4\n      swap3\n      swap2\n      swap1\n      tag_87\n      jump\t// in\n    tag_86:\n      mload(0x40)\n      0x20\n      dup2\n      dup4\n      sub\n      sub\n      dup2\n      mstore\n      swap1\n      0x40\n      mstore\n        /* \"contract/Marketplace.sol\":3124:3203  keccak256(abi.encodePacked(msg.sender, productId, orderNonce, block.timestamp)) */\n      dup1\n      mload\n      swap1\n      0x20\n      add\n      keccak256\n        /* \"contract/Marketplace.sol\":3116:3204  uint256(keccak256(abi.encodePacked(msg.sender, productId, orderNonce, block.timestamp))) */\n      0x00\n      shr\n        /* \"contract/Marketplace.sol\":3098:3204  uint256 orderId = uint256(keccak256(abi.encodePacked(msg.sender, productId, orderNonce, block.timestamp))) */\n      swap1\n      pop\n        /* \"contract/Marketplace.sol\":3215:3225  orderNonce */\n      0x04\n      0x00\n        /* \"contract/Marketplace.sol\":3215:3227  orderNonce++ */\n      dup2\n      sload\n      dup1\n      swap3\n      swap2\n      swap1\n      tag_88\n      swap1\n      tag_89\n      jump\t// in\n    tag_88:\n      swap2\n      swap1\n      pop\n      sstore\n      pop\n        /* \"contract/Marketplace.sol\":3248:3269  Order memory newOrder */\n      0x00\n        /* \"contract/Marketplace.sol\":3272:3513  Order({... */\n      mload(0x40)\n      dup1\n      0xc0\n      add\n      0x40\n      mstore\n      dup1\n        /* \"contract/Marketplace.sol\":3297:3304  orderId */\n      dup4\n        /* \"contract/Marketplace.sol\":3272:3513  Order({... */\n      dup2\n      mstore\n      0x20\n      add\n        /* \"contract/Marketplace.sol\":3326:3336  msg.sender */\n      caller\n        /* \"contract/Marketplace.sol\":3272:3513  Order({... */\n      0xffffffffffffffffffffffffffffffffffffffff\n      and\n      dup2\n      mstore\n      0x20\n      add\n        /* \"contract/Marketplace.sol\":3362:3371  productId */\n      dup7\n        /* \"contract/Marketplace.sol\":3272:3513  Order({... */\n      dup2\n      mstore\n      0x20\n      add\n        /* \"contract/Marketplace.sol\":3397:3412  block.timestamp */\n      timestamp\n        /* \"contract/Marketplace.sol\":3272:3513  Order({... */\n      dup2\n      mstore\n      0x20\n      add\n        /* \"contract/Marketplace.sol\":3455:3462  1 hours */\n      0x0e10\n        /* \"contract/Marketplace.sol\":3437:3452  block.timestamp */\n      timestamp\n        /* \"contract/Marketplace.sol\":3437:3462  block.timestamp + 1 hours */\n      tag_90\n      swap2\n      swap1\n      tag_91\n      jump\t// in\n    tag_90:\n        /* \"contract/Marketplace.sol\":3272:3513  Order({... */\n      dup2\n      mstore\n      0x20\n      add\n        /* \"contract/Marketplace.sol\":3485:3501  OrderStatus.Paid */\n      0x01\n        /* \"contract/Marketplace.sol\":3272:3513  Order({... */\n      0x05\n      dup2\n      gt\n      iszero\n      tag_92\n      jumpi\n      tag_93\n      tag_94\n      jump\t// in\n    tag_93:\n    tag_92:\n      dup2\n      mstore\n      pop\n        /* \"contract/Marketplace.sol\":3248:3513  Order memory newOrder = Order({... */\n      swap1\n      pop\n        /* \"contract/Marketplace.sol\":3542:3550  newOrder */\n      dup1\n        /* \"contract/Marketplace.sol\":3524:3530  orders */\n      0x02\n        /* \"contract/Marketplace.sol\":3524:3539  orders[orderId] */\n      0x00\n        /* \"contract/Marketplace.sol\":3531:3538  orderId */\n      dup5\n        /* \"contract/Marketplace.sol\":3524:3539  orders[orderId] */\n      dup2\n      mstore\n      0x20\n      add\n      swap1\n      dup2\n      mstore\n      0x20\n      add\n      0x00\n      keccak256\n        /* \"contract/Marketplace.sol\":3524:3550  orders[orderId] = newOrder */\n      0x00\n      dup3\n      add\n      mload\n      dup2\n      0x00\n      add\n      sstore\n      0x20\n      dup3\n      add\n      mload\n      dup2\n      0x01\n      add\n      exp(0x0100, 0x00)\n      dup2\n      sload\n      dup2\n      0xffffffffffffffffffffffffffffffffffffffff\n      mul\n      not\n      and\n      swap1\n      dup4\n      0xffffffffffffffffffffffffffffffffffffffff\n      and\n      mul\n      or\n      swap1\n      sstore\n      pop\n      0x40\n      dup3\n      add\n      mload\n      dup2\n      0x02\n      add\n      sstore\n      0x60\n      dup3\n      add\n      mload\n      dup2\n      0x03\n      add\n      sstore\n      0x80\n      dup3\n      add\n      mload\n      dup2\n      0x04\n      add\n      sstore\n      0xa0\n      dup3\n      add\n      mload\n      dup2\n      0x05\n      add\n      exp(0x0100, 0x00)\n      dup2\n      sload\n      dup2\n      0xff\n      mul\n      not\n      and\n      swap1\n      dup4\n      0x05\n      dup2\n      gt\n      iszero\n      tag_95\n      jumpi\n      tag_96\n      tag_94\n      jump\t// in\n    tag_96:\n    tag_95:\n      mul\n      or\n      swap1\n      sstore\n      pop\n      swap1\n      pop\n      pop\n        /* \"contract/Marketplace.sol\":3586:3595  msg.value */\n      callvalue\n        /* \"contract/Marketplace.sol\":3561:3574  orderPayments */\n      0x03\n        /* \"contract/Marketplace.sol\":3561:3583  orderPayments[orderId] */\n      0x00\n        /* \"contract/Marketplace.sol\":3575:3582  orderId */\n      dup5\n        /* \"contract/Marketplace.sol\":3561:3583  orderPayments[orderId] */\n      dup2\n      mstore\n      0x20\n      add\n      swap1\n      dup2\n      mstore\n      0x20\n      add\n      0x00\n      keccak256\n        /* \"contract/Marketplace.sol\":3561:3595  orderPayments[orderId] = msg.value */\n      dup2\n      swap1\n      sstore\n      pop\n        /* \"contract/Marketplace.sol\":3682:3687  false */\n      0x00\n        /* \"contract/Marketplace.sol\":3660:3667  product */\n      dup4\n        /* \"contract/Marketplace.sol\":3660:3679  product.isAvailable */\n      0x03\n      add\n      0x14\n        /* \"contract/Marketplace.sol\":3660:3687  product.isAvailable = false */\n      0x0100\n      exp\n      dup2\n      sload\n      dup2\n      0xff\n      mul\n      not\n      and\n      swap1\n      dup4\n      iszero\n      iszero\n      mul\n      or\n      swap1\n      sstore\n      pop\n        /* \"contract/Marketplace.sol\":3720:3727  product */\n      dup3\n        /* \"contract/Marketplace.sol\":3698:3706  products */\n      0x00\n        /* \"contract/Marketplace.sol\":3707:3716  productId */\n      dup7\n        /* \"contract/Marketplace.sol\":3698:3717  products[productId] */\n      dup2\n      sload\n      dup2\n      lt\n      tag_97\n      jumpi\n      tag_98\n      tag_70\n      jump\t// in\n    tag_98:\n    tag_97:\n      swap1\n      0x00\n      mstore\n      keccak256(0x00, 0x20)\n      swap1\n      0x04\n      mul\n      add\n        /* \"contract/Marketplace.sol\":3698:3727  products[productId] = product */\n      0x00\n      dup3\n      add\n      sload\n      dup2\n      0x00\n      add\n      sstore\n      0x01\n      dup3\n      add\n      dup2\n      0x01\n      add\n      swap1\n      dup2\n      tag_100\n      swap2\n      swap1\n      tag_73\n      jump\t// in\n    tag_100:\n      pop\n      0x02\n      dup3\n      add\n      sload\n      dup2\n      0x02\n      add\n      sstore\n      0x03\n      dup3\n      add\n      0x00\n      swap1\n      sload\n      swap1\n      0x0100\n      exp\n      swap1\n      div\n      0xffffffffffffffffffffffffffffffffffffffff\n      and\n      dup2\n      0x03\n      add\n      exp(0x0100, 0x00)\n      dup2\n      sload\n      dup2\n      0xffffffffffffffffffffffffffffffffffffffff\n      mul\n      not\n      and\n      swap1\n      dup4\n      0xffffffffffffffffffffffffffffffffffffffff\n      and\n      mul\n      or\n      swap1\n      sstore\n      pop\n      0x03\n      dup3\n      add\n      0x14\n      swap1\n      sload\n      swap1\n      0x0100\n      exp\n      swap1\n      div\n      0xff\n      and\n      dup2\n      0x03\n      add\n      exp(0x0100, 0x14)\n      dup2\n      sload\n      dup2\n      0xff\n      mul\n      not\n      and\n      swap1\n      dup4\n      iszero\n      iszero\n      mul\n      or\n      swap1\n      sstore\n      pop\n      swap1\n      pop\n      pop\n        /* \"contract/Marketplace.sol\":3787:3796  productId */\n      dup5\n        /* \"contract/Marketplace.sol\":3775:3785  msg.sender */\n      caller\n        /* \"contract/Marketplace.sol\":3753:3808  OrderCreated(orderId, msg.sender, productId, msg.value) */\n      0xffffffffffffffffffffffffffffffffffffffff\n      and\n        /* \"contract/Marketplace.sol\":3766:3773  orderId */\n      dup4\n        /* \"contract/Marketplace.sol\":3753:3808  OrderCreated(orderId, msg.sender, productId, msg.value) */\n      0xf7c110a6973307f2bc91245c2c06344ada13add2c1741e83ac5c0bb332bc85d5\n        /* \"contract/Marketplace.sol\":3798:3807  msg.value */\n      callvalue\n        /* \"contract/Marketplace.sol\":3753:3808  OrderCreated(orderId, msg.sender, productId, msg.value) */\n      mload(0x40)\n      tag_101\n      swap2\n      swap1\n      tag_61\n      jump\t// in\n    tag_101:\n      mload(0x40)\n      dup1\n      swap2\n      sub\n      swap1\n      log4\n        /* \"contract/Marketplace.sol\":2727:3816  {... */\n      pop\n      pop\n      pop\n        /* \"contract/Marketplace.sol\":2652:3816  function createOrder(uint256 productId, uint256 priceInput) public payable {... */\n      pop\n      pop\n      jump\t// out\n        /* \"contract/Marketplace.sol\":4942:5399  function isValidTransition(OrderStatus from, OrderStatus to) public pure returns (bool) {... */\n    tag_25:\n        /* \"contract/Marketplace.sol\":5024:5028  bool */\n      0x00\n        /* \"contract/Marketplace.sol\":5053:5069  OrderStatus.Paid */\n      0x01\n        /* \"contract/Marketplace.sol\":5045:5069  from == OrderStatus.Paid */\n      0x05\n      dup2\n      gt\n      iszero\n      tag_103\n      jumpi\n      tag_104\n      tag_94\n      jump\t// in\n    tag_104:\n    tag_103:\n        /* \"contract/Marketplace.sol\":5045:5049  from */\n      dup4\n        /* \"contract/Marketplace.sol\":5045:5069  from == OrderStatus.Paid */\n      0x05\n      dup2\n      gt\n      iszero\n      tag_105\n      jumpi\n      tag_106\n      tag_94\n      jump\t// in\n    tag_106:\n    tag_105:\n      sub\n        /* \"contract/Marketplace.sol\":5041:5369  if (from == OrderStatus.Paid) {... */\n      tag_107\n      jumpi\n        /* \"contract/Marketplace.sol\":5100:5121  OrderStatus.Confirmed */\n      0x02\n        /* \"contract/Marketplace.sol\":5094:5121  to == OrderStatus.Confirmed */\n      0x05\n      dup2\n      gt\n      iszero\n      tag_108\n      jumpi\n      tag_109\n      tag_94\n      jump\t// in\n    tag_109:\n    tag_108:\n        /* \"contract/Marketplace.sol\":5094:5096  to */\n      dup3\n        /* \"contract/Marketplace.sol\":5094:5121  to == OrderStatus.Confirmed */\n      0x05\n      dup2\n      gt\n      iszero\n      tag_110\n      jumpi\n      tag_111\n      tag_94\n      jump\t// in\n    tag_111:\n    tag_110:\n      eq\n        /* \"contract/Marketplace.sol\":5094:5152  to == OrderStatus.Confirmed || to == OrderStatus.Cancelled */\n      dup1\n      tag_112\n      jumpi\n      pop\n        /* \"contract/Marketplace.sol\":5131:5152  OrderStatus.Cancelled */\n      0x05\n        /* \"contract/Marketplace.sol\":5125:5152  to == OrderStatus.Cancelled */\n      dup1\n      dup2\n      gt\n      iszero\n      tag_113\n      jumpi\n      tag_114\n      tag_94\n      jump\t// in\n    tag_114:\n    tag_113:\n        /* \"contract/Marketplace.sol\":5125:5127  to */\n      dup3\n        /* \"contract/Marketplace.sol\":5125:5152  to == OrderStatus.Cancelled */\n      0x05\n      dup2\n      gt\n      iszero\n      tag_115\n      jumpi\n      tag_116\n      tag_94\n      jump\t// in\n    tag_116:\n    tag_115:\n      eq\n        /* \"contract/Marketplace.sol\":5094:5152  to == OrderStatus.Confirmed || to == OrderStatus.Cancelled */\n    tag_112:\n        /* \"contract/Marketplace.sol\":5086:5153  return (to == OrderStatus.Confirmed || to == OrderStatus.Cancelled) */\n      swap1\n      pop\n      jump(tag_102)\n        /* \"contract/Marketplace.sol\":5041:5369  if (from == OrderStatus.Paid) {... */\n    tag_107:\n        /* \"contract/Marketplace.sol\":5183:5204  OrderStatus.Confirmed */\n      0x02\n        /* \"contract/Marketplace.sol\":5175:5204  from == OrderStatus.Confirmed */\n      0x05\n      dup2\n      gt\n      iszero\n      tag_118\n      jumpi\n      tag_119\n      tag_94\n      jump\t// in\n    tag_119:\n    tag_118:\n        /* \"contract/Marketplace.sol\":5175:5179  from */\n      dup4\n        /* \"contract/Marketplace.sol\":5175:5204  from == OrderStatus.Confirmed */\n      0x05\n      dup2\n      gt\n      iszero\n      tag_120\n      jumpi\n      tag_121\n      tag_94\n      jump\t// in\n    tag_121:\n    tag_120:\n      sub\n        /* \"contract/Marketplace.sol\":5171:5369  if (from == OrderStatus.Confirmed) {... */\n      tag_122\n      jumpi\n        /* \"contract/Marketplace.sol\":5235:5254  OrderStatus.Shipped */\n      0x03\n        /* \"contract/Marketplace.sol\":5229:5254  to == OrderStatus.Shipped */\n      0x05\n      dup2\n      gt\n      iszero\n      tag_123\n      jumpi\n      tag_124\n      tag_94\n      jump\t// in\n    tag_124:\n    tag_123:\n        /* \"contract/Marketplace.sol\":5229:5231  to */\n      dup3\n        /* \"contract/Marketplace.sol\":5229:5254  to == OrderStatus.Shipped */\n      0x05\n      dup2\n      gt\n      iszero\n      tag_125\n      jumpi\n      tag_126\n      tag_94\n      jump\t// in\n    tag_126:\n    tag_125:\n      eq\n        /* \"contract/Marketplace.sol\":5221:5255  return (to == OrderStatus.Shipped) */\n      swap1\n      pop\n      jump(tag_102)\n        /* \"contract/Marketplace.sol\":5171:5369  if (from == OrderStatus.Confirmed) {... */\n    tag_122:\n        /* \"contract/Marketplace.sol\":5285:5304  OrderStatus.Shipped */\n      0x03\n        /* \"contract/Marketplace.sol\":5277:5304  from == OrderStatus.Shipped */\n      0x05\n      dup2\n      gt\n      iszero\n      tag_128\n      jumpi\n      tag_129\n      tag_94\n      jump\t// in\n    tag_129:\n    tag_128:\n        /* \"contract/Marketplace.sol\":5277:5281  from */\n      dup4\n        /* \"contract/Marketplace.sol\":5277:5304  from == OrderStatus.Shipped */\n      0x05\n      dup2\n      gt\n      iszero\n      tag_130\n      jumpi\n      tag_131\n      tag_94\n      jump\t// in\n    tag_131:\n    tag_130:\n      sub\n        /* \"contract/Marketplace.sol\":5273:5369  if (from == OrderStatus.Shipped) {... */\n      tag_132\n      jumpi\n        /* \"contract/Marketplace.sol\":5335:5356  OrderStatus.Delivered */\n      0x04\n        /* \"contract/Marketplace.sol\":5329:5356  to == OrderStatus.Delivered */\n      0x05\n      dup2\n      gt\n      iszero\n      tag_133\n      jumpi\n      tag_134\n      tag_94\n      jump\t// in\n    tag_134:\n    tag_133:\n        /* \"contract/Marketplace.sol\":5329:5331  to */\n      dup3\n        /* \"contract/Marketplace.sol\":5329:5356  to == OrderStatus.Delivered */\n      0x05\n      dup2\n      gt\n      iszero\n      tag_135\n      jumpi\n      tag_136\n      tag_94\n      jump\t// in\n    tag_136:\n    tag_135:\n      eq\n        /* \"contract/Marketplace.sol\":5321:5357  return (to == OrderStatus.Delivered) */\n      swap1\n      pop\n      jump(tag_102)\n        /* \"contract/Marketplace.sol\":5273:5369  if (from == OrderStatus.Shipped) {... */\n    tag_132:\n        /* \"contract/Marketplace.sol\":5386:5391  false */\n      0x00\n        /* \"contract/Marketplace.sol\":5379:5391  return false */\n      swap1\n      pop\n        /* \"contract/Marketplace.sol\":4942:5399  function isValidTransition(OrderStatus from, OrderStatus to) public pure returns (bool) {... */\n    tag_102:\n      swap3\n      swap2\n      pop\n      pop\n      jump\t// out\n        /* \"contract/Marketplace.sol\":690:715  Product[] public products */\n    tag_32:\n      0x00\n      dup2\n      dup2\n      sload\n      dup2\n      lt\n      tag_137\n      jumpi\n      0x00\n      dup1\n      revert\n    tag_137:\n      swap1\n      0x00\n      mstore\n      keccak256(0x00, 0x20)\n      swap1\n      0x04\n      mul\n      add\n      0x00\n      swap2\n      pop\n      swap1\n      pop\n      dup1\n      0x00\n      add\n      sload\n      swap1\n      dup1\n      0x01\n      add\n      dup1\n      sload\n      tag_139\n      swap1\n      tag_140\n      jump\t// in\n    tag_139:\n      dup1\n      0x1f\n      add\n      0x20\n      dup1\n      swap2\n      div\n      mul\n      0x20\n      add\n      mload(0x40)\n      swap1\n      dup2\n      add\n      0x40\n      mstore\n      dup1\n      swap3\n      swap2\n      swap1\n      dup2\n      dup2\n      mstore\n      0x20\n      add\n      dup3\n      dup1\n      sload\n      tag_141\n      swap1\n      tag_140\n      jump\t// in\n    tag_141:\n      dup1\n      iszero\n      tag_142\n      jumpi\n      dup1\n      0x1f\n      lt\n      tag_143\n      jumpi\n      0x0100\n      dup1\n      dup4\n      sload\n      div\n      mul\n      dup4\n      mstore\n      swap2\n      0x20\n      add\n      swap2\n      jump(tag_142)\n    tag_143:\n      dup3\n      add\n      swap2\n      swap1\n      0x00\n      mstore\n      keccak256(0x00, 0x20)\n      swap1\n    tag_144:\n      dup2\n      sload\n      dup2\n      mstore\n      swap1\n      0x01\n      add\n      swap1\n      0x20\n      add\n      dup1\n      dup4\n      gt\n      tag_144\n      jumpi\n      dup3\n      swap1\n      sub\n      0x1f\n      and\n      dup3\n      add\n      swap2\n    tag_142:\n      pop\n      pop\n      pop\n      pop\n      pop\n      swap1\n      dup1\n      0x02\n      add\n      sload\n      swap1\n      dup1\n      0x03\n      add\n      0x00\n      swap1\n      sload\n      swap1\n      0x0100\n      exp\n      swap1\n      div\n      0xffffffffffffffffffffffffffffffffffffffff\n      and\n      swap1\n      dup1\n      0x03\n      add\n      0x14\n      swap1\n      sload\n      swap1\n      0x0100\n      exp\n      swap1\n      div\n      0xff\n      and\n      swap1\n      pop\n      dup6\n      jump\t// out\n        /* \"contract/Marketplace.sol\":722:768  mapping(uint256 => Product) public productById */\n    tag_38:\n      mstore(0x20, 0x01)\n      dup1\n      0x00\n      mstore\n      keccak256(0x00, 0x40)\n      0x00\n      swap2\n      pop\n      swap1\n      pop\n      dup1\n      0x00\n      add\n      sload\n      swap1\n      dup1\n      0x01\n      add\n      dup1\n      sload\n      tag_145\n      swap1\n      tag_140\n      jump\t// in\n    tag_145:\n      dup1\n      0x1f\n      add\n      0x20\n      dup1\n      swap2\n      div\n      mul\n      0x20\n      add\n      mload(0x40)\n      swap1\n      dup2\n      add\n      0x40\n      mstore\n      dup1\n      swap3\n      swap2\n      swap1\n      dup2\n      dup2\n      mstore\n      0x20\n      add\n      dup3\n      dup1\n      sload\n      tag_146\n      swap1\n      tag_140\n      jump\t// in\n    tag_146:\n      dup1\n      iszero\n      tag_147\n      jumpi\n      dup1\n      0x1f\n      lt\n      tag_148\n      jumpi\n      0x0100\n      dup1\n      dup4\n      sload\n      div\n      mul\n      dup4\n      mstore\n      swap2\n      0x20\n      add\n      swap2\n      jump(tag_147)\n    tag_148:\n      dup3\n      add\n      swap2\n      swap1\n      0x00\n      mstore\n      keccak256(0x00, 0x20)\n      swap1\n    tag_149:\n      dup2\n      sload\n      dup2\n      mstore\n      swap1\n      0x01\n      add\n      swap1\n      0x20\n      add\n      dup1\n      dup4\n      gt\n      tag_149\n      jumpi\n      dup3\n      swap1\n      sub\n      0x1f\n      and\n      dup3\n      add\n      swap2\n    tag_147:\n      pop\n      pop\n      pop\n      pop\n      pop\n      swap1\n      dup1\n      0x02\n      add\n      sload\n      swap1\n      dup1\n      0x03\n      add\n      0x00\n      swap1\n      sload\n      swap1\n      0x0100\n      exp\n      swap1\n      div\n      0xffffffffffffffffffffffffffffffffffffffff\n      and\n      swap1\n      dup1\n      0x03\n      add\n      0x14\n      swap1\n      sload\n      swap1\n      0x0100\n      exp\n      swap1\n      div\n      0xff\n      and\n      swap1\n      pop\n      dup6\n      jump\t// out\n        /* \"contract/Marketplace.sol\":775:814  mapping(uint256 => Order) public orders */\n    tag_43:\n      mstore(0x20, 0x02)\n      dup1\n      0x00\n      mstore\n      keccak256(0x00, 0x40)\n      0x00\n      swap2\n      pop\n      swap1\n      pop\n      dup1\n      0x00\n      add\n      sload\n      swap1\n      dup1\n      0x01\n      add\n      0x00\n      swap1\n      sload\n      swap1\n      0x0100\n      exp\n      swap1\n      div\n      0xffffffffffffffffffffffffffffffffffffffff\n      and\n      swap1\n      dup1\n      0x02\n      add\n      sload\n      swap1\n      dup1\n      0x03\n      add\n      sload\n      swap1\n      dup1\n      0x04\n      add\n      sload\n      swap1\n      dup1\n      0x05\n      add\n      0x00\n      swap1\n      sload\n      swap1\n      0x0100\n      exp\n      swap1\n      div\n      0xff\n      and\n      swap1\n      pop\n      dup7\n      jump\t// out\n        /* \"contract/Marketplace.sol\":3901:4842  function updateOrderStatus(uint256 orderId, OrderStatus newStatus) external {... */\n    tag_50:\n        /* \"contract/Marketplace.sol\":3988:4007  Order storage order */\n      0x00\n        /* \"contract/Marketplace.sol\":4010:4016  orders */\n      0x02\n        /* \"contract/Marketplace.sol\":4010:4025  orders[orderId] */\n      0x00\n        /* \"contract/Marketplace.sol\":4017:4024  orderId */\n      dup5\n        /* \"contract/Marketplace.sol\":4010:4025  orders[orderId] */\n      dup2\n      mstore\n      0x20\n      add\n      swap1\n      dup2\n      mstore\n      0x20\n      add\n      0x00\n      keccak256\n        /* \"contract/Marketplace.sol\":3988:4025  Order storage order = orders[orderId] */\n      swap1\n      pop\n        /* \"contract/Marketplace.sol\":4036:4059  Product storage product */\n      0x00\n        /* \"contract/Marketplace.sol\":4062:4073  productById */\n      0x01\n        /* \"contract/Marketplace.sol\":4062:4090  productById[order.productId] */\n      0x00\n        /* \"contract/Marketplace.sol\":4074:4079  order */\n      dup4\n        /* \"contract/Marketplace.sol\":4074:4089  order.productId */\n      0x02\n      add\n      sload\n        /* \"contract/Marketplace.sol\":4062:4090  productById[order.productId] */\n      dup2\n      mstore\n      0x20\n      add\n      swap1\n      dup2\n      mstore\n      0x20\n      add\n      0x00\n      keccak256\n        /* \"contract/Marketplace.sol\":4036:4090  Product storage product = productById[order.productId] */\n      swap1\n      pop\n        /* \"contract/Marketplace.sol\":4187:4192  order */\n      dup2\n        /* \"contract/Marketplace.sol\":4187:4198  order.buyer */\n      0x01\n      add\n      0x00\n      swap1\n      sload\n      swap1\n      0x0100\n      exp\n      swap1\n      div\n      0xffffffffffffffffffffffffffffffffffffffff\n      and\n        /* \"contract/Marketplace.sol\":4173:4198  msg.sender == order.buyer */\n      0xffffffffffffffffffffffffffffffffffffffff\n      and\n        /* \"contract/Marketplace.sol\":4173:4183  msg.sender */\n      caller\n        /* \"contract/Marketplace.sol\":4173:4198  msg.sender == order.buyer */\n      0xffffffffffffffffffffffffffffffffffffffff\n      and\n      eq\n        /* \"contract/Marketplace.sol\":4173:4230  msg.sender == order.buyer || msg.sender == product.seller */\n      dup1\n      tag_151\n      jumpi\n      pop\n        /* \"contract/Marketplace.sol\":4216:4223  product */\n      dup1\n        /* \"contract/Marketplace.sol\":4216:4230  product.seller */\n      0x03\n      add\n      0x00\n      swap1\n      sload\n      swap1\n      0x0100\n      exp\n      swap1\n      div\n      0xffffffffffffffffffffffffffffffffffffffff\n      and\n        /* \"contract/Marketplace.sol\":4202:4230  msg.sender == product.seller */\n      0xffffffffffffffffffffffffffffffffffffffff\n      and\n        /* \"contract/Marketplace.sol\":4202:4212  msg.sender */\n      caller\n        /* \"contract/Marketplace.sol\":4202:4230  msg.sender == product.seller */\n      0xffffffffffffffffffffffffffffffffffffffff\n      and\n      eq\n        /* \"contract/Marketplace.sol\":4173:4230  msg.sender == order.buyer || msg.sender == product.seller */\n    tag_151:\n        /* \"contract/Marketplace.sol\":4165:4247  require(msg.sender == order.buyer || msg.sender == product.seller, \"Unauthorized\") */\n      tag_152\n      jumpi\n      mload(0x40)\n      0x08c379a000000000000000000000000000000000000000000000000000000000\n      dup2\n      mstore\n      0x04\n      add\n      tag_153\n      swap1\n      tag_154\n      jump\t// in\n    tag_153:\n      mload(0x40)\n      dup1\n      swap2\n      sub\n      swap1\n      revert\n    tag_152:\n        /* \"contract/Marketplace.sol\":4285:4290  order */\n      dup2\n        /* \"contract/Marketplace.sol\":4285:4299  order.deadline */\n      0x04\n      add\n      sload\n        /* \"contract/Marketplace.sol\":4266:4281  block.timestamp */\n      timestamp\n        /* \"contract/Marketplace.sol\":4266:4299  block.timestamp <= order.deadline */\n      gt\n      iszero\n        /* \"contract/Marketplace.sol\":4258:4321  require(block.timestamp <= order.deadline, \"Order has expired\") */\n      tag_155\n      jumpi\n      mload(0x40)\n      0x08c379a000000000000000000000000000000000000000000000000000000000\n      dup2\n      mstore\n      0x04\n      add\n      tag_156\n      swap1\n      tag_157\n      jump\t// in\n    tag_156:\n      mload(0x40)\n      dup1\n      swap2\n      sub\n      swap1\n      revert\n    tag_155:\n        /* \"contract/Marketplace.sol\":4340:4382  isValidTransition(order.status, newStatus) */\n      tag_158\n        /* \"contract/Marketplace.sol\":4358:4363  order */\n      dup3\n        /* \"contract/Marketplace.sol\":4358:4370  order.status */\n      0x05\n      add\n      0x00\n      swap1\n      sload\n      swap1\n      0x0100\n      exp\n      swap1\n      div\n      0xff\n      and\n        /* \"contract/Marketplace.sol\":4372:4381  newStatus */\n      dup5\n        /* \"contract/Marketplace.sol\":4340:4357  isValidTransition */\n      tag_25\n        /* \"contract/Marketplace.sol\":4340:4382  isValidTransition(order.status, newStatus) */\n      jump\t// in\n    tag_158:\n        /* \"contract/Marketplace.sol\":4332:4412  require(isValidTransition(order.status, newStatus), \"Invalid status transition\") */\n      tag_159\n      jumpi\n      mload(0x40)\n      0x08c379a000000000000000000000000000000000000000000000000000000000\n      dup2\n      mstore\n      0x04\n      add\n      tag_160\n      swap1\n      tag_161\n      jump\t// in\n    tag_160:\n      mload(0x40)\n      dup1\n      swap2\n      sub\n      swap1\n      revert\n    tag_159:\n        /* \"contract/Marketplace.sol\":4542:4563  OrderStatus.Cancelled */\n      0x05\n        /* \"contract/Marketplace.sol\":4529:4563  newStatus == OrderStatus.Cancelled */\n      dup1\n      dup2\n      gt\n      iszero\n      tag_162\n      jumpi\n      tag_163\n      tag_94\n      jump\t// in\n    tag_163:\n    tag_162:\n        /* \"contract/Marketplace.sol\":4529:4538  newStatus */\n      dup4\n        /* \"contract/Marketplace.sol\":4529:4563  newStatus == OrderStatus.Cancelled */\n      0x05\n      dup2\n      gt\n      iszero\n      tag_164\n      jumpi\n      tag_165\n      tag_94\n      jump\t// in\n    tag_165:\n    tag_164:\n      sub\n        /* \"contract/Marketplace.sol\":4525:4736  if (newStatus == OrderStatus.Cancelled) {... */\n      tag_166\n      jumpi\n        /* \"contract/Marketplace.sol\":4602:4606  true */\n      0x01\n        /* \"contract/Marketplace.sol\":4580:4587  product */\n      dup2\n        /* \"contract/Marketplace.sol\":4580:4599  product.isAvailable */\n      0x03\n      add\n      0x14\n        /* \"contract/Marketplace.sol\":4580:4606  product.isAvailable = true */\n      0x0100\n      exp\n      dup2\n      sload\n      dup2\n      0xff\n      mul\n      not\n      and\n      swap1\n      dup4\n      iszero\n      iszero\n      mul\n      or\n      swap1\n      sstore\n      pop\n        /* \"contract/Marketplace.sol\":4649:4656  product */\n      dup1\n        /* \"contract/Marketplace.sol\":4621:4629  products */\n      0x00\n        /* \"contract/Marketplace.sol\":4630:4635  order */\n      dup4\n        /* \"contract/Marketplace.sol\":4630:4645  order.productId */\n      0x02\n      add\n      sload\n        /* \"contract/Marketplace.sol\":4621:4646  products[order.productId] */\n      dup2\n      sload\n      dup2\n      lt\n      tag_167\n      jumpi\n      tag_168\n      tag_70\n      jump\t// in\n    tag_168:\n    tag_167:\n      swap1\n      0x00\n      mstore\n      keccak256(0x00, 0x20)\n      swap1\n      0x04\n      mul\n      add\n        /* \"contract/Marketplace.sol\":4621:4656  products[order.productId] = product */\n      0x00\n      dup3\n      add\n      sload\n      dup2\n      0x00\n      add\n      sstore\n      0x01\n      dup3\n      add\n      dup2\n      0x01\n      add\n      swap1\n      dup2\n      tag_170\n      swap2\n      swap1\n      tag_73\n      jump\t// in\n    tag_170:\n      pop\n      0x02\n      dup3\n      add\n      sload\n      dup2\n      0x02\n      add\n      sstore\n      0x03\n      dup3\n      add\n      0x00\n      swap1\n      sload\n      swap1\n      0x0100\n      exp\n      swap1\n      div\n      0xffffffffffffffffffffffffffffffffffffffff\n      and\n      dup2\n      0x03\n      add\n      exp(0x0100, 0x00)\n      dup2\n      sload\n      dup2\n      0xffffffffffffffffffffffffffffffffffffffff\n      mul\n      not\n      and\n      swap1\n      dup4\n      0xffffffffffffffffffffffffffffffffffffffff\n      and\n      mul\n      or\n      swap1\n      sstore\n      pop\n      0x03\n      dup3\n      add\n      0x14\n      swap1\n      sload\n      swap1\n      0x0100\n      exp\n      swap1\n      div\n      0xff\n      and\n      dup2\n      0x03\n      add\n      exp(0x0100, 0x14)\n      dup2\n      sload\n      dup2\n      0xff\n      mul\n      not\n      and\n      swap1\n      dup4\n      iszero\n      iszero\n      mul\n      or\n      swap1\n      sstore\n      pop\n      swap1\n      pop\n      pop\n        /* \"contract/Marketplace.sol\":4679:4684  order */\n      dup2\n        /* \"contract/Marketplace.sol\":4679:4690  order.buyer */\n      0x01\n      add\n      0x00\n      swap1\n      sload\n      swap1\n      0x0100\n      exp\n      swap1\n      div\n      0xffffffffffffffffffffffffffffffffffffffff\n      and\n        /* \"contract/Marketplace.sol\":4671:4700  payable(order.buyer).transfer */\n      0xffffffffffffffffffffffffffffffffffffffff\n      and\n        /* \"contract/Marketplace.sol\":4671:4724  payable(order.buyer).transfer(orderPayments[orderId]) */\n      0x08fc\n        /* \"contract/Marketplace.sol\":4701:4714  orderPayments */\n      0x03\n        /* \"contract/Marketplace.sol\":4701:4723  orderPayments[orderId] */\n      0x00\n        /* \"contract/Marketplace.sol\":4715:4722  orderId */\n      dup8\n        /* \"contract/Marketplace.sol\":4701:4723  orderPayments[orderId] */\n      dup2\n      mstore\n      0x20\n      add\n      swap1\n      dup2\n      mstore\n      0x20\n      add\n      0x00\n      keccak256\n      sload\n        /* \"contract/Marketplace.sol\":4671:4724  payable(order.buyer).transfer(orderPayments[orderId]) */\n      swap1\n      dup2\n      iszero\n      mul\n      swap1\n      mload(0x40)\n      0x00\n      mload(0x40)\n      dup1\n      dup4\n      sub\n      dup2\n      dup6\n      dup9\n      dup9\n      call\n      swap4\n      pop\n      pop\n      pop\n      pop\n      iszero\n      dup1\n      iszero\n      tag_172\n      jumpi\n      returndatacopy(0x00, 0x00, returndatasize)\n      revert(0x00, returndatasize)\n    tag_172:\n      pop\n        /* \"contract/Marketplace.sol\":4525:4736  if (newStatus == OrderStatus.Cancelled) {... */\n    tag_166:\n        /* \"contract/Marketplace.sol\":4771:4780  newStatus */\n      dup3\n        /* \"contract/Marketplace.sol\":4756:4761  order */\n      dup3\n        /* \"contract/Marketplace.sol\":4756:4768  order.status */\n      0x05\n      add\n      0x00\n        /* \"contract/Marketplace.sol\":4756:4780  order.status = newStatus */\n      0x0100\n      exp\n      dup2\n      sload\n      dup2\n      0xff\n      mul\n      not\n      and\n      swap1\n      dup4\n      0x05\n      dup2\n      gt\n      iszero\n      tag_173\n      jumpi\n      tag_174\n      tag_94\n      jump\t// in\n    tag_174:\n    tag_173:\n      mul\n      or\n      swap1\n      sstore\n      pop\n        /* \"contract/Marketplace.sol\":4815:4822  orderId */\n      dup4\n        /* \"contract/Marketplace.sol\":4796:4834  OrderStatusUpdated(orderId, newStatus) */\n      0xd9a86b644eb5f5b43cc8a700849852481080361c7a4b00ba646d1b46c5585f95\n        /* \"contract/Marketplace.sol\":4824:4833  newStatus */\n      dup5\n        /* \"contract/Marketplace.sol\":4796:4834  OrderStatusUpdated(orderId, newStatus) */\n      mload(0x40)\n      tag_175\n      swap2\n      swap1\n      tag_176\n      jump\t// in\n    tag_175:\n      mload(0x40)\n      dup1\n      swap2\n      sub\n      swap1\n      log2\n        /* \"contract/Marketplace.sol\":3977:4842  {... */\n      pop\n      pop\n        /* \"contract/Marketplace.sol\":3901:4842  function updateOrderStatus(uint256 orderId, OrderStatus newStatus) external {... */\n      pop\n      pop\n      jump\t// out\n        /* \"contract/Marketplace.sol\":1389:1857  function addProduct(string memory name, uint256 price) external {... */\n    tag_55:\n        /* \"contract/Marketplace.sol\":1464:1481  uint256 productId */\n      0x00\n        /* \"contract/Marketplace.sol\":1484:1492  products */\n      0x00\n        /* \"contract/Marketplace.sol\":1484:1499  products.length */\n      dup1\n      sload\n      swap1\n      pop\n        /* \"contract/Marketplace.sol\":1464:1499  uint256 productId = products.length */\n      swap1\n      pop\n        /* \"contract/Marketplace.sol\":1510:1535  Product memory newProduct */\n      0x00\n        /* \"contract/Marketplace.sol\":1538:1703  Product({... */\n      mload(0x40)\n      dup1\n      0xa0\n      add\n      0x40\n      mstore\n      dup1\n        /* \"contract/Marketplace.sol\":1565:1574  productId */\n      dup4\n        /* \"contract/Marketplace.sol\":1538:1703  Product({... */\n      dup2\n      mstore\n      0x20\n      add\n        /* \"contract/Marketplace.sol\":1595:1599  name */\n      dup6\n        /* \"contract/Marketplace.sol\":1538:1703  Product({... */\n      dup2\n      mstore\n      0x20\n      add\n        /* \"contract/Marketplace.sol\":1621:1626  price */\n      dup5\n        /* \"contract/Marketplace.sol\":1538:1703  Product({... */\n      dup2\n      mstore\n      0x20\n      add\n        /* \"contract/Marketplace.sol\":1649:1659  msg.sender */\n      caller\n        /* \"contract/Marketplace.sol\":1538:1703  Product({... */\n      0xffffffffffffffffffffffffffffffffffffffff\n      and\n      dup2\n      mstore\n      0x20\n      add\n        /* \"contract/Marketplace.sol\":1687:1691  true */\n      0x01\n        /* \"contract/Marketplace.sol\":1538:1703  Product({... */\n      iszero\n      iszero\n      dup2\n      mstore\n      pop\n        /* \"contract/Marketplace.sol\":1510:1703  Product memory newProduct = Product({... */\n      swap1\n      pop\n        /* \"contract/Marketplace.sol\":1714:1722  products */\n      0x00\n        /* \"contract/Marketplace.sol\":1728:1738  newProduct */\n      dup2\n        /* \"contract/Marketplace.sol\":1714:1739  products.push(newProduct) */\n      swap1\n      dup1\n      0x01\n      dup2\n      sload\n      add\n      dup1\n      dup3\n      sstore\n      dup1\n      swap2\n      pop\n      pop\n      0x01\n      swap1\n      sub\n      swap1\n      0x00\n      mstore\n      keccak256(0x00, 0x20)\n      swap1\n      0x04\n      mul\n      add\n      0x00\n      swap1\n      swap2\n      swap1\n      swap2\n      swap1\n      swap2\n      pop\n      0x00\n      dup3\n      add\n      mload\n      dup2\n      0x00\n      add\n      sstore\n      0x20\n      dup3\n      add\n      mload\n      dup2\n      0x01\n      add\n      swap1\n      dup2\n      tag_179\n      swap2\n      swap1\n      tag_67\n      jump\t// in\n    tag_179:\n      pop\n      0x40\n      dup3\n      add\n      mload\n      dup2\n      0x02\n      add\n      sstore\n      0x60\n      dup3\n      add\n      mload\n      dup2\n      0x03\n      add\n      exp(0x0100, 0x00)\n      dup2\n      sload\n      dup2\n      0xffffffffffffffffffffffffffffffffffffffff\n      mul\n      not\n      and\n      swap1\n      dup4\n      0xffffffffffffffffffffffffffffffffffffffff\n      and\n      mul\n      or\n      swap1\n      sstore\n      pop\n      0x80\n      dup3\n      add\n      mload\n      dup2\n      0x03\n      add\n      exp(0x0100, 0x14)\n      dup2\n      sload\n      dup2\n      0xff\n      mul\n      not\n      and\n      swap1\n      dup4\n      iszero\n      iszero\n      mul\n      or\n      swap1\n      sstore\n      pop\n      pop\n      pop\n        /* \"contract/Marketplace.sol\":1775:1785  newProduct */\n      dup1\n        /* \"contract/Marketplace.sol\":1750:1761  productById */\n      0x01\n        /* \"contract/Marketplace.sol\":1750:1772  productById[productId] */\n      0x00\n        /* \"contract/Marketplace.sol\":1762:1771  productId */\n      dup5\n        /* \"contract/Marketplace.sol\":1750:1772  productById[productId] */\n      dup2\n      mstore\n      0x20\n      add\n      swap1\n      dup2\n      mstore\n      0x20\n      add\n      0x00\n      keccak256\n        /* \"contract/Marketplace.sol\":1750:1785  productById[productId] = newProduct */\n      0x00\n      dup3\n      add\n      mload\n      dup2\n      0x00\n      add\n      sstore\n      0x20\n      dup3\n      add\n      mload\n      dup2\n      0x01\n      add\n      swap1\n      dup2\n      tag_180\n      swap2\n      swap1\n      tag_67\n      jump\t// in\n    tag_180:\n      pop\n      0x40\n      dup3\n      add\n      mload\n      dup2\n      0x02\n      add\n      sstore\n      0x60\n      dup3\n      add\n      mload\n      dup2\n      0x03\n      add\n      exp(0x0100, 0x00)\n      dup2\n      sload\n      dup2\n      0xffffffffffffffffffffffffffffffffffffffff\n      mul\n      not\n      and\n      swap1\n      dup4\n      0xffffffffffffffffffffffffffffffffffffffff\n      and\n      mul\n      or\n      swap1\n      sstore\n      pop\n      0x80\n      dup3\n      add\n      mload\n      dup2\n      0x03\n      add\n      exp(0x0100, 0x14)\n      dup2\n      sload\n      dup2\n      0xff\n      mul\n      not\n      and\n      swap1\n      dup4\n      iszero\n      iszero\n      mul\n      or\n      swap1\n      sstore\n      pop\n      swap1\n      pop\n      pop\n        /* \"contract/Marketplace.sol\":1825:1835  msg.sender */\n      caller\n        /* \"contract/Marketplace.sol\":1801:1849  ProductAdded(productId, msg.sender, price, name) */\n      0xffffffffffffffffffffffffffffffffffffffff\n      and\n        /* \"contract/Marketplace.sol\":1814:1823  productId */\n      dup3\n        /* \"contract/Marketplace.sol\":1801:1849  ProductAdded(productId, msg.sender, price, name) */\n      0x2e0b9a93ec6dd1cf6d3bf082b86521a8c58ea0b843ba012e70282e544f85b730\n        /* \"contract/Marketplace.sol\":1837:1842  price */\n      dup6\n        /* \"contract/Marketplace.sol\":1844:1848  name */\n      dup8\n        /* \"contract/Marketplace.sol\":1801:1849  ProductAdded(productId, msg.sender, price, name) */\n      mload(0x40)\n      tag_181\n      swap3\n      swap2\n      swap1\n      tag_182\n      jump\t// in\n    tag_181:\n      mload(0x40)\n      dup1\n      swap2\n      sub\n      swap1\n      log3\n        /* \"contract/Marketplace.sol\":1453:1857  {... */\n      pop\n      pop\n        /* \"contract/Marketplace.sol\":1389:1857  function addProduct(string memory name, uint256 price) external {... */\n      pop\n      pop\n      jump\t// out\n        /* \"contract/Marketplace.sol\":5500:5630  function getProductPrice(uint256 productId) external view returns (uint256) {... */\n    tag_59:\n        /* \"contract/Marketplace.sol\":5567:5574  uint256 */\n      0x00\n        /* \"contract/Marketplace.sol\":5594:5605  productById */\n      0x01\n        /* \"contract/Marketplace.sol\":5594:5616  productById[productId] */\n      0x00\n        /* \"contract/Marketplace.sol\":5606:5615  productId */\n      dup4\n        /* \"contract/Marketplace.sol\":5594:5616  productById[productId] */\n      dup2\n      mstore\n      0x20\n      add\n      swap1\n      dup2\n      mstore\n      0x20\n      add\n      0x00\n      keccak256\n        /* \"contract/Marketplace.sol\":5594:5622  productById[productId].price */\n      0x02\n      add\n      sload\n        /* \"contract/Marketplace.sol\":5587:5622  return productById[productId].price */\n      swap1\n      pop\n        /* \"contract/Marketplace.sol\":5500:5630  function getProductPrice(uint256 productId) external view returns (uint256) {... */\n      swap2\n      swap1\n      pop\n      jump\t// out\n        /* \"#utility.yul\":7:82   */\n    tag_184:\n        /* \"#utility.yul\":40:46   */\n      0x00\n        /* \"#utility.yul\":73:75   */\n      0x40\n        /* \"#utility.yul\":67:76   */\n      mload\n        /* \"#utility.yul\":57:76   */\n      swap1\n      pop\n        /* \"#utility.yul\":7:82   */\n      swap1\n      jump\t// out\n        /* \"#utility.yul\":88:205   */\n    tag_185:\n        /* \"#utility.yul\":197:198   */\n      0x00\n        /* \"#utility.yul\":194:195   */\n      0x00\n        /* \"#utility.yul\":187:199   */\n      revert\n        /* \"#utility.yul\":211:328   */\n    tag_186:\n        /* \"#utility.yul\":320:321   */\n      0x00\n        /* \"#utility.yul\":317:318   */\n      0x00\n        /* \"#utility.yul\":310:322   */\n      revert\n        /* \"#utility.yul\":334:411   */\n    tag_187:\n        /* \"#utility.yul\":371:378   */\n      0x00\n        /* \"#utility.yul\":400:405   */\n      dup2\n        /* \"#utility.yul\":389:405   */\n      swap1\n      pop\n        /* \"#utility.yul\":334:411   */\n      swap2\n      swap1\n      pop\n      jump\t// out\n        /* \"#utility.yul\":417:539   */\n    tag_188:\n        /* \"#utility.yul\":490:514   */\n      tag_260\n        /* \"#utility.yul\":508:513   */\n      dup2\n        /* \"#utility.yul\":490:514   */\n      tag_187\n      jump\t// in\n    tag_260:\n        /* \"#utility.yul\":483:488   */\n      dup2\n        /* \"#utility.yul\":480:515   */\n      eq\n        /* \"#utility.yul\":470:533   */\n      tag_261\n      jumpi\n        /* \"#utility.yul\":529:530   */\n      0x00\n        /* \"#utility.yul\":526:527   */\n      0x00\n        /* \"#utility.yul\":519:531   */\n      revert\n        /* \"#utility.yul\":470:533   */\n    tag_261:\n        /* \"#utility.yul\":417:539   */\n      pop\n      jump\t// out\n        /* \"#utility.yul\":545:684   */\n    tag_189:\n        /* \"#utility.yul\":591:596   */\n      0x00\n        /* \"#utility.yul\":629:635   */\n      dup2\n        /* \"#utility.yul\":616:636   */\n      calldataload\n        /* \"#utility.yul\":607:636   */\n      swap1\n      pop\n        /* \"#utility.yul\":645:678   */\n      tag_263\n        /* \"#utility.yul\":672:677   */\n      dup2\n        /* \"#utility.yul\":645:678   */\n      tag_188\n      jump\t// in\n    tag_263:\n        /* \"#utility.yul\":545:684   */\n      swap3\n      swap2\n      pop\n      pop\n      jump\t// out\n        /* \"#utility.yul\":690:807   */\n    tag_190:\n        /* \"#utility.yul\":799:800   */\n      0x00\n        /* \"#utility.yul\":796:797   */\n      0x00\n        /* \"#utility.yul\":789:801   */\n      revert\n        /* \"#utility.yul\":813:930   */\n    tag_191:\n        /* \"#utility.yul\":922:923   */\n      0x00\n        /* \"#utility.yul\":919:920   */\n      0x00\n        /* \"#utility.yul\":912:924   */\n      revert\n        /* \"#utility.yul\":936:1038   */\n    tag_192:\n        /* \"#utility.yul\":977:983   */\n      0x00\n        /* \"#utility.yul\":1028:1030   */\n      0x1f\n        /* \"#utility.yul\":1024:1031   */\n      not\n        /* \"#utility.yul\":1019:1021   */\n      0x1f\n        /* \"#utility.yul\":1012:1017   */\n      dup4\n        /* \"#utility.yul\":1008:1022   */\n      add\n        /* \"#utility.yul\":1004:1032   */\n      and\n        /* \"#utility.yul\":994:1032   */\n      swap1\n      pop\n        /* \"#utility.yul\":936:1038   */\n      swap2\n      swap1\n      pop\n      jump\t// out\n        /* \"#utility.yul\":1044:1224   */\n    tag_193:\n        /* \"#utility.yul\":1092:1169   */\n      0x4e487b7100000000000000000000000000000000000000000000000000000000\n        /* \"#utility.yul\":1089:1090   */\n      0x00\n        /* \"#utility.yul\":1082:1170   */\n      mstore\n        /* \"#utility.yul\":1189:1193   */\n      0x41\n        /* \"#utility.yul\":1186:1187   */\n      0x04\n        /* \"#utility.yul\":1179:1194   */\n      mstore\n        /* \"#utility.yul\":1213:1217   */\n      0x24\n        /* \"#utility.yul\":1210:1211   */\n      0x00\n        /* \"#utility.yul\":1203:1218   */\n      revert\n        /* \"#utility.yul\":1230:1511   */\n    tag_194:\n        /* \"#utility.yul\":1313:1340   */\n      tag_269\n        /* \"#utility.yul\":1335:1339   */\n      dup3\n        /* \"#utility.yul\":1313:1340   */\n      tag_192\n      jump\t// in\n    tag_269:\n        /* \"#utility.yul\":1305:1311   */\n      dup2\n        /* \"#utility.yul\":1301:1341   */\n      add\n        /* \"#utility.yul\":1443:1449   */\n      dup2\n        /* \"#utility.yul\":1431:1441   */\n      dup2\n        /* \"#utility.yul\":1428:1450   */\n      lt\n        /* \"#utility.yul\":1407:1425   */\n      0xffffffffffffffff\n        /* \"#utility.yul\":1395:1405   */\n      dup3\n        /* \"#utility.yul\":1392:1426   */\n      gt\n        /* \"#utility.yul\":1389:1451   */\n      or\n        /* \"#utility.yul\":1386:1474   */\n      iszero\n      tag_270\n      jumpi\n        /* \"#utility.yul\":1454:1472   */\n      tag_271\n      tag_193\n      jump\t// in\n    tag_271:\n        /* \"#utility.yul\":1386:1474   */\n    tag_270:\n        /* \"#utility.yul\":1494:1504   */\n      dup1\n        /* \"#utility.yul\":1490:1492   */\n      0x40\n        /* \"#utility.yul\":1483:1505   */\n      mstore\n        /* \"#utility.yul\":1273:1511   */\n      pop\n        /* \"#utility.yul\":1230:1511   */\n      pop\n      pop\n      jump\t// out\n        /* \"#utility.yul\":1517:1646   */\n    tag_195:\n        /* \"#utility.yul\":1551:1557   */\n      0x00\n        /* \"#utility.yul\":1578:1598   */\n      tag_273\n      tag_184\n      jump\t// in\n    tag_273:\n        /* \"#utility.yul\":1568:1598   */\n      swap1\n      pop\n        /* \"#utility.yul\":1607:1640   */\n      tag_274\n        /* \"#utility.yul\":1635:1639   */\n      dup3\n        /* \"#utility.yul\":1627:1633   */\n      dup3\n        /* \"#utility.yul\":1607:1640   */\n      tag_194\n      jump\t// in\n    tag_274:\n        /* \"#utility.yul\":1517:1646   */\n      swap2\n      swap1\n      pop\n      jump\t// out\n        /* \"#utility.yul\":1652:1960   */\n    tag_196:\n        /* \"#utility.yul\":1714:1718   */\n      0x00\n        /* \"#utility.yul\":1804:1822   */\n      0xffffffffffffffff\n        /* \"#utility.yul\":1796:1802   */\n      dup3\n        /* \"#utility.yul\":1793:1823   */\n      gt\n        /* \"#utility.yul\":1790:1846   */\n      iszero\n      tag_276\n      jumpi\n        /* \"#utility.yul\":1826:1844   */\n      tag_277\n      tag_193\n      jump\t// in\n    tag_277:\n        /* \"#utility.yul\":1790:1846   */\n    tag_276:\n        /* \"#utility.yul\":1864:1893   */\n      tag_278\n        /* \"#utility.yul\":1886:1892   */\n      dup3\n        /* \"#utility.yul\":1864:1893   */\n      tag_192\n      jump\t// in\n    tag_278:\n        /* \"#utility.yul\":1856:1893   */\n      swap1\n      pop\n        /* \"#utility.yul\":1948:1952   */\n      0x20\n        /* \"#utility.yul\":1942:1946   */\n      dup2\n        /* \"#utility.yul\":1938:1953   */\n      add\n        /* \"#utility.yul\":1930:1953   */\n      swap1\n      pop\n        /* \"#utility.yul\":1652:1960   */\n      swap2\n      swap1\n      pop\n      jump\t// out\n        /* \"#utility.yul\":1966:2114   */\n    tag_197:\n        /* \"#utility.yul\":2064:2070   */\n      dup3\n        /* \"#utility.yul\":2059:2062   */\n      dup2\n        /* \"#utility.yul\":2054:2057   */\n      dup4\n        /* \"#utility.yul\":2041:2071   */\n      calldatacopy\n        /* \"#utility.yul\":2105:2106   */\n      0x00\n        /* \"#utility.yul\":2096:2102   */\n      dup4\n        /* \"#utility.yul\":2091:2094   */\n      dup4\n        /* \"#utility.yul\":2087:2103   */\n      add\n        /* \"#utility.yul\":2080:2107   */\n      mstore\n        /* \"#utility.yul\":1966:2114   */\n      pop\n      pop\n      pop\n      jump\t// out\n        /* \"#utility.yul\":2120:2545   */\n    tag_198:\n        /* \"#utility.yul\":2198:2203   */\n      0x00\n        /* \"#utility.yul\":2223:2289   */\n      tag_281\n        /* \"#utility.yul\":2239:2288   */\n      tag_282\n        /* \"#utility.yul\":2281:2287   */\n      dup5\n        /* \"#utility.yul\":2239:2288   */\n      tag_196\n      jump\t// in\n    tag_282:\n        /* \"#utility.yul\":2223:2289   */\n      tag_195\n      jump\t// in\n    tag_281:\n        /* \"#utility.yul\":2214:2289   */\n      swap1\n      pop\n        /* \"#utility.yul\":2312:2318   */\n      dup3\n        /* \"#utility.yul\":2305:2310   */\n      dup2\n        /* \"#utility.yul\":2298:2319   */\n      mstore\n        /* \"#utility.yul\":2350:2354   */\n      0x20\n        /* \"#utility.yul\":2343:2348   */\n      dup2\n        /* \"#utility.yul\":2339:2355   */\n      add\n        /* \"#utility.yul\":2388:2391   */\n      dup5\n        /* \"#utility.yul\":2379:2385   */\n      dup5\n        /* \"#utility.yul\":2374:2377   */\n      dup5\n        /* \"#utility.yul\":2370:2386   */\n      add\n        /* \"#utility.yul\":2367:2392   */\n      gt\n        /* \"#utility.yul\":2364:2476   */\n      iszero\n      tag_283\n      jumpi\n        /* \"#utility.yul\":2395:2474   */\n      tag_284\n      tag_191\n      jump\t// in\n    tag_284:\n        /* \"#utility.yul\":2364:2476   */\n    tag_283:\n        /* \"#utility.yul\":2485:2539   */\n      tag_285\n        /* \"#utility.yul\":2532:2538   */\n      dup5\n        /* \"#utility.yul\":2527:2530   */\n      dup3\n        /* \"#utility.yul\":2522:2525   */\n      dup6\n        /* \"#utility.yul\":2485:2539   */\n      tag_197\n      jump\t// in\n    tag_285:\n        /* \"#utility.yul\":2204:2545   */\n      pop\n        /* \"#utility.yul\":2120:2545   */\n      swap4\n      swap3\n      pop\n      pop\n      pop\n      jump\t// out\n        /* \"#utility.yul\":2565:2905   */\n    tag_199:\n        /* \"#utility.yul\":2621:2626   */\n      0x00\n        /* \"#utility.yul\":2670:2673   */\n      dup3\n        /* \"#utility.yul\":2663:2667   */\n      0x1f\n        /* \"#utility.yul\":2655:2661   */\n      dup4\n        /* \"#utility.yul\":2651:2668   */\n      add\n        /* \"#utility.yul\":2647:2674   */\n      slt\n        /* \"#utility.yul\":2637:2759   */\n      tag_287\n      jumpi\n        /* \"#utility.yul\":2678:2757   */\n      tag_288\n      tag_190\n      jump\t// in\n    tag_288:\n        /* \"#utility.yul\":2637:2759   */\n    tag_287:\n        /* \"#utility.yul\":2795:2801   */\n      dup2\n        /* \"#utility.yul\":2782:2802   */\n      calldataload\n        /* \"#utility.yul\":2820:2899   */\n      tag_289\n        /* \"#utility.yul\":2895:2898   */\n      dup5\n        /* \"#utility.yul\":2887:2893   */\n      dup3\n        /* \"#utility.yul\":2880:2884   */\n      0x20\n        /* \"#utility.yul\":2872:2878   */\n      dup7\n        /* \"#utility.yul\":2868:2885   */\n      add\n        /* \"#utility.yul\":2820:2899   */\n      tag_198\n      jump\t// in\n    tag_289:\n        /* \"#utility.yul\":2811:2899   */\n      swap2\n      pop\n        /* \"#utility.yul\":2627:2905   */\n      pop\n        /* \"#utility.yul\":2565:2905   */\n      swap3\n      swap2\n      pop\n      pop\n      jump\t// out\n        /* \"#utility.yul\":2911:3710   */\n    tag_15:\n        /* \"#utility.yul\":2998:3004   */\n      0x00\n        /* \"#utility.yul\":3006:3012   */\n      0x00\n        /* \"#utility.yul\":3014:3020   */\n      0x00\n        /* \"#utility.yul\":3063:3065   */\n      0x60\n        /* \"#utility.yul\":3051:3060   */\n      dup5\n        /* \"#utility.yul\":3042:3049   */\n      dup7\n        /* \"#utility.yul\":3038:3061   */\n      sub\n        /* \"#utility.yul\":3034:3066   */\n      slt\n        /* \"#utility.yul\":3031:3150   */\n      iszero\n      tag_291\n      jumpi\n        /* \"#utility.yul\":3069:3148   */\n      tag_292\n      tag_185\n      jump\t// in\n    tag_292:\n        /* \"#utility.yul\":3031:3150   */\n    tag_291:\n        /* \"#utility.yul\":3189:3190   */\n      0x00\n        /* \"#utility.yul\":3214:3267   */\n      tag_293\n        /* \"#utility.yul\":3259:3266   */\n      dup7\n        /* \"#utility.yul\":3250:3256   */\n      dup3\n        /* \"#utility.yul\":3239:3248   */\n      dup8\n        /* \"#utility.yul\":3235:3257   */\n      add\n        /* \"#utility.yul\":3214:3267   */\n      tag_189\n      jump\t// in\n    tag_293:\n        /* \"#utility.yul\":3204:3267   */\n      swap4\n      pop\n        /* \"#utility.yul\":3160:3277   */\n      pop\n        /* \"#utility.yul\":3344:3346   */\n      0x20\n        /* \"#utility.yul\":3333:3342   */\n      dup5\n        /* \"#utility.yul\":3329:3347   */\n      add\n        /* \"#utility.yul\":3316:3348   */\n      calldataload\n        /* \"#utility.yul\":3375:3393   */\n      0xffffffffffffffff\n        /* \"#utility.yul\":3367:3373   */\n      dup2\n        /* \"#utility.yul\":3364:3394   */\n      gt\n        /* \"#utility.yul\":3361:3478   */\n      iszero\n      tag_294\n      jumpi\n        /* \"#utility.yul\":3397:3476   */\n      tag_295\n      tag_186\n      jump\t// in\n    tag_295:\n        /* \"#utility.yul\":3361:3478   */\n    tag_294:\n        /* \"#utility.yul\":3502:3565   */\n      tag_296\n        /* \"#utility.yul\":3557:3564   */\n      dup7\n        /* \"#utility.yul\":3548:3554   */\n      dup3\n        /* \"#utility.yul\":3537:3546   */\n      dup8\n        /* \"#utility.yul\":3533:3555   */\n      add\n        /* \"#utility.yul\":3502:3565   */\n      tag_199\n      jump\t// in\n    tag_296:\n        /* \"#utility.yul\":3492:3565   */\n      swap3\n      pop\n        /* \"#utility.yul\":3287:3575   */\n      pop\n        /* \"#utility.yul\":3614:3616   */\n      0x40\n        /* \"#utility.yul\":3640:3693   */\n      tag_297\n        /* \"#utility.yul\":3685:3692   */\n      dup7\n        /* \"#utility.yul\":3676:3682   */\n      dup3\n        /* \"#utility.yul\":3665:3674   */\n      dup8\n        /* \"#utility.yul\":3661:3683   */\n      add\n        /* \"#utility.yul\":3640:3693   */\n      tag_189\n      jump\t// in\n    tag_297:\n        /* \"#utility.yul\":3630:3693   */\n      swap2\n      pop\n        /* \"#utility.yul\":3585:3703   */\n      pop\n        /* \"#utility.yul\":2911:3710   */\n      swap3\n      pop\n      swap3\n      pop\n      swap3\n      jump\t// out\n        /* \"#utility.yul\":3716:4190   */\n    tag_19:\n        /* \"#utility.yul\":3784:3790   */\n      0x00\n        /* \"#utility.yul\":3792:3798   */\n      0x00\n        /* \"#utility.yul\":3841:3843   */\n      0x40\n        /* \"#utility.yul\":3829:3838   */\n      dup4\n        /* \"#utility.yul\":3820:3827   */\n      dup6\n        /* \"#utility.yul\":3816:3839   */\n      sub\n        /* \"#utility.yul\":3812:3844   */\n      slt\n        /* \"#utility.yul\":3809:3928   */\n      iszero\n      tag_299\n      jumpi\n        /* \"#utility.yul\":3847:3926   */\n      tag_300\n      tag_185\n      jump\t// in\n    tag_300:\n        /* \"#utility.yul\":3809:3928   */\n    tag_299:\n        /* \"#utility.yul\":3967:3968   */\n      0x00\n        /* \"#utility.yul\":3992:4045   */\n      tag_301\n        /* \"#utility.yul\":4037:4044   */\n      dup6\n        /* \"#utility.yul\":4028:4034   */\n      dup3\n        /* \"#utility.yul\":4017:4026   */\n      dup7\n        /* \"#utility.yul\":4013:4035   */\n      add\n        /* \"#utility.yul\":3992:4045   */\n      tag_189\n      jump\t// in\n    tag_301:\n        /* \"#utility.yul\":3982:4045   */\n      swap3\n      pop\n        /* \"#utility.yul\":3938:4055   */\n      pop\n        /* \"#utility.yul\":4094:4096   */\n      0x20\n        /* \"#utility.yul\":4120:4173   */\n      tag_302\n        /* \"#utility.yul\":4165:4172   */\n      dup6\n        /* \"#utility.yul\":4156:4162   */\n      dup3\n        /* \"#utility.yul\":4145:4154   */\n      dup7\n        /* \"#utility.yul\":4141:4163   */\n      add\n        /* \"#utility.yul\":4120:4173   */\n      tag_189\n      jump\t// in\n    tag_302:\n        /* \"#utility.yul\":4110:4173   */\n      swap2\n      pop\n        /* \"#utility.yul\":4065:4183   */\n      pop\n        /* \"#utility.yul\":3716:4190   */\n      swap3\n      pop\n      swap3\n      swap1\n      pop\n      jump\t// out\n        /* \"#utility.yul\":4196:4308   */\n    tag_200:\n        /* \"#utility.yul\":4282:4283   */\n      0x06\n        /* \"#utility.yul\":4275:4280   */\n      dup2\n        /* \"#utility.yul\":4272:4284   */\n      lt\n        /* \"#utility.yul\":4262:4302   */\n      tag_304\n      jumpi\n        /* \"#utility.yul\":4298:4299   */\n      0x00\n        /* \"#utility.yul\":4295:4296   */\n      0x00\n        /* \"#utility.yul\":4288:4300   */\n      revert\n        /* \"#utility.yul\":4262:4302   */\n    tag_304:\n        /* \"#utility.yul\":4196:4308   */\n      pop\n      jump\t// out\n        /* \"#utility.yul\":4314:4479   */\n    tag_201:\n        /* \"#utility.yul\":4373:4378   */\n      0x00\n        /* \"#utility.yul\":4411:4417   */\n      dup2\n        /* \"#utility.yul\":4398:4418   */\n      calldataload\n        /* \"#utility.yul\":4389:4418   */\n      swap1\n      pop\n        /* \"#utility.yul\":4427:4473   */\n      tag_306\n        /* \"#utility.yul\":4467:4472   */\n      dup2\n        /* \"#utility.yul\":4427:4473   */\n      tag_200\n      jump\t// in\n    tag_306:\n        /* \"#utility.yul\":4314:4479   */\n      swap3\n      swap2\n      pop\n      pop\n      jump\t// out\n        /* \"#utility.yul\":4485:5011   */\n    tag_24:\n        /* \"#utility.yul\":4579:4585   */\n      0x00\n        /* \"#utility.yul\":4587:4593   */\n      0x00\n        /* \"#utility.yul\":4636:4638   */\n      0x40\n        /* \"#utility.yul\":4624:4633   */\n      dup4\n        /* \"#utility.yul\":4615:4622   */\n      dup6\n        /* \"#utility.yul\":4611:4634   */\n      sub\n        /* \"#utility.yul\":4607:4639   */\n      slt\n        /* \"#utility.yul\":4604:4723   */\n      iszero\n      tag_308\n      jumpi\n        /* \"#utility.yul\":4642:4721   */\n      tag_309\n      tag_185\n      jump\t// in\n    tag_309:\n        /* \"#utility.yul\":4604:4723   */\n    tag_308:\n        /* \"#utility.yul\":4762:4763   */\n      0x00\n        /* \"#utility.yul\":4787:4853   */\n      tag_310\n        /* \"#utility.yul\":4845:4852   */\n      dup6\n        /* \"#utility.yul\":4836:4842   */\n      dup3\n        /* \"#utility.yul\":4825:4834   */\n      dup7\n        /* \"#utility.yul\":4821:4843   */\n      add\n        /* \"#utility.yul\":4787:4853   */\n      tag_201\n      jump\t// in\n    tag_310:\n        /* \"#utility.yul\":4777:4853   */\n      swap3\n      pop\n        /* \"#utility.yul\":4733:4863   */\n      pop\n        /* \"#utility.yul\":4902:4904   */\n      0x20\n        /* \"#utility.yul\":4928:4994   */\n      tag_311\n        /* \"#utility.yul\":4986:4993   */\n      dup6\n        /* \"#utility.yul\":4977:4983   */\n      dup3\n        /* \"#utility.yul\":4966:4975   */\n      dup7\n        /* \"#utility.yul\":4962:4984   */\n      add\n        /* \"#utility.yul\":4928:4994   */\n      tag_201\n      jump\t// in\n    tag_311:\n        /* \"#utility.yul\":4918:4994   */\n      swap2\n      pop\n        /* \"#utility.yul\":4873:5004   */\n      pop\n        /* \"#utility.yul\":4485:5011   */\n      swap3\n      pop\n      swap3\n      swap1\n      pop\n      jump\t// out\n        /* \"#utility.yul\":5017:5107   */\n    tag_202:\n        /* \"#utility.yul\":5051:5058   */\n      0x00\n        /* \"#utility.yul\":5094:5099   */\n      dup2\n        /* \"#utility.yul\":5087:5100   */\n      iszero\n        /* \"#utility.yul\":5080:5101   */\n      iszero\n        /* \"#utility.yul\":5069:5101   */\n      swap1\n      pop\n        /* \"#utility.yul\":5017:5107   */\n      swap2\n      swap1\n      pop\n      jump\t// out\n        /* \"#utility.yul\":5113:5222   */\n    tag_203:\n        /* \"#utility.yul\":5194:5215   */\n      tag_314\n        /* \"#utility.yul\":5209:5214   */\n      dup2\n        /* \"#utility.yul\":5194:5215   */\n      tag_202\n      jump\t// in\n    tag_314:\n        /* \"#utility.yul\":5189:5192   */\n      dup3\n        /* \"#utility.yul\":5182:5216   */\n      mstore\n        /* \"#utility.yul\":5113:5222   */\n      pop\n      pop\n      jump\t// out\n        /* \"#utility.yul\":5228:5438   */\n    tag_27:\n        /* \"#utility.yul\":5315:5319   */\n      0x00\n        /* \"#utility.yul\":5353:5355   */\n      0x20\n        /* \"#utility.yul\":5342:5351   */\n      dup3\n        /* \"#utility.yul\":5338:5356   */\n      add\n        /* \"#utility.yul\":5330:5356   */\n      swap1\n      pop\n        /* \"#utility.yul\":5366:5431   */\n      tag_316\n        /* \"#utility.yul\":5428:5429   */\n      0x00\n        /* \"#utility.yul\":5417:5426   */\n      dup4\n        /* \"#utility.yul\":5413:5430   */\n      add\n        /* \"#utility.yul\":5404:5410   */\n      dup5\n        /* \"#utility.yul\":5366:5431   */\n      tag_203\n      jump\t// in\n    tag_316:\n        /* \"#utility.yul\":5228:5438   */\n      swap3\n      swap2\n      pop\n      pop\n      jump\t// out\n        /* \"#utility.yul\":5444:5773   */\n    tag_31:\n        /* \"#utility.yul\":5503:5509   */\n      0x00\n        /* \"#utility.yul\":5552:5554   */\n      0x20\n        /* \"#utility.yul\":5540:5549   */\n      dup3\n        /* \"#utility.yul\":5531:5538   */\n      dup5\n        /* \"#utility.yul\":5527:5550   */\n      sub\n        /* \"#utility.yul\":5523:5555   */\n      slt\n        /* \"#utility.yul\":5520:5639   */\n      iszero\n      tag_318\n      jumpi\n        /* \"#utility.yul\":5558:5637   */\n      tag_319\n      tag_185\n      jump\t// in\n    tag_319:\n        /* \"#utility.yul\":5520:5639   */\n    tag_318:\n        /* \"#utility.yul\":5678:5679   */\n      0x00\n        /* \"#utility.yul\":5703:5756   */\n      tag_320\n        /* \"#utility.yul\":5748:5755   */\n      dup5\n        /* \"#utility.yul\":5739:5745   */\n      dup3\n        /* \"#utility.yul\":5728:5737   */\n      dup6\n        /* \"#utility.yul\":5724:5746   */\n      add\n        /* \"#utility.yul\":5703:5756   */\n      tag_189\n      jump\t// in\n    tag_320:\n        /* \"#utility.yul\":5693:5756   */\n      swap2\n      pop\n        /* \"#utility.yul\":5649:5766   */\n      pop\n        /* \"#utility.yul\":5444:5773   */\n      swap3\n      swap2\n      pop\n      pop\n      jump\t// out\n        /* \"#utility.yul\":5779:5897   */\n    tag_204:\n        /* \"#utility.yul\":5866:5890   */\n      tag_322\n        /* \"#utility.yul\":5884:5889   */\n      dup2\n        /* \"#utility.yul\":5866:5890   */\n      tag_187\n      jump\t// in\n    tag_322:\n        /* \"#utility.yul\":5861:5864   */\n      dup3\n        /* \"#utility.yul\":5854:5891   */\n      mstore\n        /* \"#utility.yul\":5779:5897   */\n      pop\n      pop\n      jump\t// out\n        /* \"#utility.yul\":5903:6002   */\n    tag_205:\n        /* \"#utility.yul\":5955:5961   */\n      0x00\n        /* \"#utility.yul\":5989:5994   */\n      dup2\n        /* \"#utility.yul\":5983:5995   */\n      mload\n        /* \"#utility.yul\":5973:5995   */\n      swap1\n      pop\n        /* \"#utility.yul\":5903:6002   */\n      swap2\n      swap1\n      pop\n      jump\t// out\n        /* \"#utility.yul\":6008:6177   */\n    tag_206:\n        /* \"#utility.yul\":6092:6103   */\n      0x00\n        /* \"#utility.yul\":6126:6132   */\n      dup3\n        /* \"#utility.yul\":6121:6124   */\n      dup3\n        /* \"#utility.yul\":6114:6133   */\n      mstore\n        /* \"#utility.yul\":6166:6170   */\n      0x20\n        /* \"#utility.yul\":6161:6164   */\n      dup3\n        /* \"#utility.yul\":6157:6171   */\n      add\n        /* \"#utility.yul\":6142:6171   */\n      swap1\n      pop\n        /* \"#utility.yul\":6008:6177   */\n      swap3\n      swap2\n      pop\n      pop\n      jump\t// out\n        /* \"#utility.yul\":6183:6322   */\n    tag_207:\n        /* \"#utility.yul\":6272:6278   */\n      dup3\n        /* \"#utility.yul\":6267:6270   */\n      dup2\n        /* \"#utility.yul\":6262:6265   */\n      dup4\n        /* \"#utility.yul\":6256:6279   */\n      mcopy\n        /* \"#utility.yul\":6313:6314   */\n      0x00\n        /* \"#utility.yul\":6304:6310   */\n      dup4\n        /* \"#utility.yul\":6299:6302   */\n      dup4\n        /* \"#utility.yul\":6295:6311   */\n      add\n        /* \"#utility.yul\":6288:6315   */\n      mstore\n        /* \"#utility.yul\":6183:6322   */\n      pop\n      pop\n      pop\n      jump\t// out\n        /* \"#utility.yul\":6328:6705   */\n    tag_208:\n        /* \"#utility.yul\":6416:6419   */\n      0x00\n        /* \"#utility.yul\":6444:6483   */\n      tag_327\n        /* \"#utility.yul\":6477:6482   */\n      dup3\n        /* \"#utility.yul\":6444:6483   */\n      tag_205\n      jump\t// in\n    tag_327:\n        /* \"#utility.yul\":6499:6570   */\n      tag_328\n        /* \"#utility.yul\":6563:6569   */\n      dup2\n        /* \"#utility.yul\":6558:6561   */\n      dup6\n        /* \"#utility.yul\":6499:6570   */\n      tag_206\n      jump\t// in\n    tag_328:\n        /* \"#utility.yul\":6492:6570   */\n      swap4\n      pop\n        /* \"#utility.yul\":6579:6644   */\n      tag_329\n        /* \"#utility.yul\":6637:6643   */\n      dup2\n        /* \"#utility.yul\":6632:6635   */\n      dup6\n        /* \"#utility.yul\":6625:6629   */\n      0x20\n        /* \"#utility.yul\":6618:6623   */\n      dup7\n        /* \"#utility.yul\":6614:6630   */\n      add\n        /* \"#utility.yul\":6579:6644   */\n      tag_207\n      jump\t// in\n    tag_329:\n        /* \"#utility.yul\":6669:6698   */\n      tag_330\n        /* \"#utility.yul\":6691:6697   */\n      dup2\n        /* \"#utility.yul\":6669:6698   */\n      tag_192\n      jump\t// in\n    tag_330:\n        /* \"#utility.yul\":6664:6667   */\n      dup5\n        /* \"#utility.yul\":6660:6699   */\n      add\n        /* \"#utility.yul\":6653:6699   */\n      swap2\n      pop\n        /* \"#utility.yul\":6420:6705   */\n      pop\n        /* \"#utility.yul\":6328:6705   */\n      swap3\n      swap2\n      pop\n      pop\n      jump\t// out\n        /* \"#utility.yul\":6711:6837   */\n    tag_209:\n        /* \"#utility.yul\":6748:6755   */\n      0x00\n        /* \"#utility.yul\":6788:6830   */\n      0xffffffffffffffffffffffffffffffffffffffff\n        /* \"#utility.yul\":6781:6786   */\n      dup3\n        /* \"#utility.yul\":6777:6831   */\n      and\n        /* \"#utility.yul\":6766:6831   */\n      swap1\n      pop\n        /* \"#utility.yul\":6711:6837   */\n      swap2\n      swap1\n      pop\n      jump\t// out\n        /* \"#utility.yul\":6843:6939   */\n    tag_210:\n        /* \"#utility.yul\":6880:6887   */\n      0x00\n        /* \"#utility.yul\":6909:6933   */\n      tag_333\n        /* \"#utility.yul\":6927:6932   */\n      dup3\n        /* \"#utility.yul\":6909:6933   */\n      tag_209\n      jump\t// in\n    tag_333:\n        /* \"#utility.yul\":6898:6933   */\n      swap1\n      pop\n        /* \"#utility.yul\":6843:6939   */\n      swap2\n      swap1\n      pop\n      jump\t// out\n        /* \"#utility.yul\":6945:7063   */\n    tag_211:\n        /* \"#utility.yul\":7032:7056   */\n      tag_335\n        /* \"#utility.yul\":7050:7055   */\n      dup2\n        /* \"#utility.yul\":7032:7056   */\n      tag_210\n      jump\t// in\n    tag_335:\n        /* \"#utility.yul\":7027:7030   */\n      dup3\n        /* \"#utility.yul\":7020:7057   */\n      mstore\n        /* \"#utility.yul\":6945:7063   */\n      pop\n      pop\n      jump\t// out\n        /* \"#utility.yul\":7069:7812   */\n    tag_34:\n        /* \"#utility.yul\":7288:7292   */\n      0x00\n        /* \"#utility.yul\":7326:7329   */\n      0xa0\n        /* \"#utility.yul\":7315:7324   */\n      dup3\n        /* \"#utility.yul\":7311:7330   */\n      add\n        /* \"#utility.yul\":7303:7330   */\n      swap1\n      pop\n        /* \"#utility.yul\":7340:7411   */\n      tag_337\n        /* \"#utility.yul\":7408:7409   */\n      0x00\n        /* \"#utility.yul\":7397:7406   */\n      dup4\n        /* \"#utility.yul\":7393:7410   */\n      add\n        /* \"#utility.yul\":7384:7390   */\n      dup9\n        /* \"#utility.yul\":7340:7411   */\n      tag_204\n      jump\t// in\n    tag_337:\n        /* \"#utility.yul\":7458:7467   */\n      dup2\n        /* \"#utility.yul\":7452:7456   */\n      dup2\n        /* \"#utility.yul\":7448:7468   */\n      sub\n        /* \"#utility.yul\":7443:7445   */\n      0x20\n        /* \"#utility.yul\":7432:7441   */\n      dup4\n        /* \"#utility.yul\":7428:7446   */\n      add\n        /* \"#utility.yul\":7421:7469   */\n      mstore\n        /* \"#utility.yul\":7486:7564   */\n      tag_338\n        /* \"#utility.yul\":7559:7563   */\n      dup2\n        /* \"#utility.yul\":7550:7556   */\n      dup8\n        /* \"#utility.yul\":7486:7564   */\n      tag_208\n      jump\t// in\n    tag_338:\n        /* \"#utility.yul\":7478:7564   */\n      swap1\n      pop\n        /* \"#utility.yul\":7574:7646   */\n      tag_339\n        /* \"#utility.yul\":7642:7644   */\n      0x40\n        /* \"#utility.yul\":7631:7640   */\n      dup4\n        /* \"#utility.yul\":7627:7645   */\n      add\n        /* \"#utility.yul\":7618:7624   */\n      dup7\n        /* \"#utility.yul\":7574:7646   */\n      tag_204\n      jump\t// in\n    tag_339:\n        /* \"#utility.yul\":7656:7728   */\n      tag_340\n        /* \"#utility.yul\":7724:7726   */\n      0x60\n        /* \"#utility.yul\":7713:7722   */\n      dup4\n        /* \"#utility.yul\":7709:7727   */\n      add\n        /* \"#utility.yul\":7700:7706   */\n      dup6\n        /* \"#utility.yul\":7656:7728   */\n      tag_211\n      jump\t// in\n    tag_340:\n        /* \"#utility.yul\":7738:7805   */\n      tag_341\n        /* \"#utility.yul\":7800:7803   */\n      0x80\n        /* \"#utility.yul\":7789:7798   */\n      dup4\n        /* \"#utility.yul\":7785:7804   */\n      add\n        /* \"#utility.yul\":7776:7782   */\n      dup5\n        /* \"#utility.yul\":7738:7805   */\n      tag_203\n      jump\t// in\n    tag_341:\n        /* \"#utility.yul\":7069:7812   */\n      swap7\n      swap6\n      pop\n      pop\n      pop\n      pop\n      pop\n      pop\n      jump\t// out\n        /* \"#utility.yul\":7818:7998   */\n    tag_94:\n        /* \"#utility.yul\":7866:7943   */\n      0x4e487b7100000000000000000000000000000000000000000000000000000000\n        /* \"#utility.yul\":7863:7864   */\n      0x00\n        /* \"#utility.yul\":7856:7944   */\n      mstore\n        /* \"#utility.yul\":7963:7967   */\n      0x21\n        /* \"#utility.yul\":7960:7961   */\n      0x04\n        /* \"#utility.yul\":7953:7968   */\n      mstore\n        /* \"#utility.yul\":7987:7991   */\n      0x24\n        /* \"#utility.yul\":7984:7985   */\n      0x00\n        /* \"#utility.yul\":7977:7992   */\n      revert\n        /* \"#utility.yul\":8004:8122   */\n    tag_212:\n        /* \"#utility.yul\":8090:8091   */\n      0x06\n        /* \"#utility.yul\":8083:8088   */\n      dup2\n        /* \"#utility.yul\":8080:8092   */\n      lt\n        /* \"#utility.yul\":8070:8116   */\n      tag_344\n      jumpi\n        /* \"#utility.yul\":8096:8114   */\n      tag_345\n      tag_94\n      jump\t// in\n    tag_345:\n        /* \"#utility.yul\":8070:8116   */\n    tag_344:\n        /* \"#utility.yul\":8004:8122   */\n      pop\n      jump\t// out\n        /* \"#utility.yul\":8128:8265   */\n    tag_213:\n        /* \"#utility.yul\":8178:8185   */\n      0x00\n        /* \"#utility.yul\":8207:8212   */\n      dup2\n        /* \"#utility.yul\":8196:8212   */\n      swap1\n      pop\n        /* \"#utility.yul\":8213:8259   */\n      tag_347\n        /* \"#utility.yul\":8253:8258   */\n      dup3\n        /* \"#utility.yul\":8213:8259   */\n      tag_212\n      jump\t// in\n    tag_347:\n        /* \"#utility.yul\":8128:8265   */\n      swap2\n      swap1\n      pop\n      jump\t// out\n        /* \"#utility.yul\":8271:8408   */\n    tag_214:\n        /* \"#utility.yul\":8332:8341   */\n      0x00\n        /* \"#utility.yul\":8365:8402   */\n      tag_349\n        /* \"#utility.yul\":8396:8401   */\n      dup3\n        /* \"#utility.yul\":8365:8402   */\n      tag_213\n      jump\t// in\n    tag_349:\n        /* \"#utility.yul\":8352:8402   */\n      swap1\n      pop\n        /* \"#utility.yul\":8271:8408   */\n      swap2\n      swap1\n      pop\n      jump\t// out\n        /* \"#utility.yul\":8414:8567   */\n    tag_215:\n        /* \"#utility.yul\":8512:8560   */\n      tag_351\n        /* \"#utility.yul\":8554:8559   */\n      dup2\n        /* \"#utility.yul\":8512:8560   */\n      tag_214\n      jump\t// in\n    tag_351:\n        /* \"#utility.yul\":8507:8510   */\n      dup3\n        /* \"#utility.yul\":8500:8561   */\n      mstore\n        /* \"#utility.yul\":8414:8567   */\n      pop\n      pop\n      jump\t// out\n        /* \"#utility.yul\":8573:9370   */\n    tag_45:\n        /* \"#utility.yul\":8817:8821   */\n      0x00\n        /* \"#utility.yul\":8855:8858   */\n      0xc0\n        /* \"#utility.yul\":8844:8853   */\n      dup3\n        /* \"#utility.yul\":8840:8859   */\n      add\n        /* \"#utility.yul\":8832:8859   */\n      swap1\n      pop\n        /* \"#utility.yul\":8869:8940   */\n      tag_353\n        /* \"#utility.yul\":8937:8938   */\n      0x00\n        /* \"#utility.yul\":8926:8935   */\n      dup4\n        /* \"#utility.yul\":8922:8939   */\n      add\n        /* \"#utility.yul\":8913:8919   */\n      dup10\n        /* \"#utility.yul\":8869:8940   */\n      tag_204\n      jump\t// in\n    tag_353:\n        /* \"#utility.yul\":8950:9022   */\n      tag_354\n        /* \"#utility.yul\":9018:9020   */\n      0x20\n        /* \"#utility.yul\":9007:9016   */\n      dup4\n        /* \"#utility.yul\":9003:9021   */\n      add\n        /* \"#utility.yul\":8994:9000   */\n      dup9\n        /* \"#utility.yul\":8950:9022   */\n      tag_211\n      jump\t// in\n    tag_354:\n        /* \"#utility.yul\":9032:9104   */\n      tag_355\n        /* \"#utility.yul\":9100:9102   */\n      0x40\n        /* \"#utility.yul\":9089:9098   */\n      dup4\n        /* \"#utility.yul\":9085:9103   */\n      add\n        /* \"#utility.yul\":9076:9082   */\n      dup8\n        /* \"#utility.yul\":9032:9104   */\n      tag_204\n      jump\t// in\n    tag_355:\n        /* \"#utility.yul\":9114:9186   */\n      tag_356\n        /* \"#utility.yul\":9182:9184   */\n      0x60\n        /* \"#utility.yul\":9171:9180   */\n      dup4\n        /* \"#utility.yul\":9167:9185   */\n      add\n        /* \"#utility.yul\":9158:9164   */\n      dup7\n        /* \"#utility.yul\":9114:9186   */\n      tag_204\n      jump\t// in\n    tag_356:\n        /* \"#utility.yul\":9196:9269   */\n      tag_357\n        /* \"#utility.yul\":9264:9267   */\n      0x80\n        /* \"#utility.yul\":9253:9262   */\n      dup4\n        /* \"#utility.yul\":9249:9268   */\n      add\n        /* \"#utility.yul\":9240:9246   */\n      dup6\n        /* \"#utility.yul\":9196:9269   */\n      tag_204\n      jump\t// in\n    tag_357:\n        /* \"#utility.yul\":9279:9363   */\n      tag_358\n        /* \"#utility.yul\":9358:9361   */\n      0xa0\n        /* \"#utility.yul\":9347:9356   */\n      dup4\n        /* \"#utility.yul\":9343:9362   */\n      add\n        /* \"#utility.yul\":9334:9340   */\n      dup5\n        /* \"#utility.yul\":9279:9363   */\n      tag_215\n      jump\t// in\n    tag_358:\n        /* \"#utility.yul\":8573:9370   */\n      swap8\n      swap7\n      pop\n      pop\n      pop\n      pop\n      pop\n      pop\n      pop\n      jump\t// out\n        /* \"#utility.yul\":9376:9876   */\n    tag_49:\n        /* \"#utility.yul\":9457:9463   */\n      0x00\n        /* \"#utility.yul\":9465:9471   */\n      0x00\n        /* \"#utility.yul\":9514:9516   */\n      0x40\n        /* \"#utility.yul\":9502:9511   */\n      dup4\n        /* \"#utility.yul\":9493:9500   */\n      dup6\n        /* \"#utility.yul\":9489:9512   */\n      sub\n        /* \"#utility.yul\":9485:9517   */\n      slt\n        /* \"#utility.yul\":9482:9601   */\n      iszero\n      tag_360\n      jumpi\n        /* \"#utility.yul\":9520:9599   */\n      tag_361\n      tag_185\n      jump\t// in\n    tag_361:\n        /* \"#utility.yul\":9482:9601   */\n    tag_360:\n        /* \"#utility.yul\":9640:9641   */\n      0x00\n        /* \"#utility.yul\":9665:9718   */\n      tag_362\n        /* \"#utility.yul\":9710:9717   */\n      dup6\n        /* \"#utility.yul\":9701:9707   */\n      dup3\n        /* \"#utility.yul\":9690:9699   */\n      dup7\n        /* \"#utility.yul\":9686:9708   */\n      add\n        /* \"#utility.yul\":9665:9718   */\n      tag_189\n      jump\t// in\n    tag_362:\n        /* \"#utility.yul\":9655:9718   */\n      swap3\n      pop\n        /* \"#utility.yul\":9611:9728   */\n      pop\n        /* \"#utility.yul\":9767:9769   */\n      0x20\n        /* \"#utility.yul\":9793:9859   */\n      tag_363\n        /* \"#utility.yul\":9851:9858   */\n      dup6\n        /* \"#utility.yul\":9842:9848   */\n      dup3\n        /* \"#utility.yul\":9831:9840   */\n      dup7\n        /* \"#utility.yul\":9827:9849   */\n      add\n        /* \"#utility.yul\":9793:9859   */\n      tag_201\n      jump\t// in\n    tag_363:\n        /* \"#utility.yul\":9783:9859   */\n      swap2\n      pop\n        /* \"#utility.yul\":9738:9869   */\n      pop\n        /* \"#utility.yul\":9376:9876   */\n      swap3\n      pop\n      swap3\n      swap1\n      pop\n      jump\t// out\n        /* \"#utility.yul\":9882:10536   */\n    tag_54:\n        /* \"#utility.yul\":9960:9966   */\n      0x00\n        /* \"#utility.yul\":9968:9974   */\n      0x00\n        /* \"#utility.yul\":10017:10019   */\n      0x40\n        /* \"#utility.yul\":10005:10014   */\n      dup4\n        /* \"#utility.yul\":9996:10003   */\n      dup6\n        /* \"#utility.yul\":9992:10015   */\n      sub\n        /* \"#utility.yul\":9988:10020   */\n      slt\n        /* \"#utility.yul\":9985:10104   */\n      iszero\n      tag_365\n      jumpi\n        /* \"#utility.yul\":10023:10102   */\n      tag_366\n      tag_185\n      jump\t// in\n    tag_366:\n        /* \"#utility.yul\":9985:10104   */\n    tag_365:\n        /* \"#utility.yul\":10171:10172   */\n      0x00\n        /* \"#utility.yul\":10160:10169   */\n      dup4\n        /* \"#utility.yul\":10156:10173   */\n      add\n        /* \"#utility.yul\":10143:10174   */\n      calldataload\n        /* \"#utility.yul\":10201:10219   */\n      0xffffffffffffffff\n        /* \"#utility.yul\":10193:10199   */\n      dup2\n        /* \"#utility.yul\":10190:10220   */\n      gt\n        /* \"#utility.yul\":10187:10304   */\n      iszero\n      tag_367\n      jumpi\n        /* \"#utility.yul\":10223:10302   */\n      tag_368\n      tag_186\n      jump\t// in\n    tag_368:\n        /* \"#utility.yul\":10187:10304   */\n    tag_367:\n        /* \"#utility.yul\":10328:10391   */\n      tag_369\n        /* \"#utility.yul\":10383:10390   */\n      dup6\n        /* \"#utility.yul\":10374:10380   */\n      dup3\n        /* \"#utility.yul\":10363:10372   */\n      dup7\n        /* \"#utility.yul\":10359:10381   */\n      add\n        /* \"#utility.yul\":10328:10391   */\n      tag_199\n      jump\t// in\n    tag_369:\n        /* \"#utility.yul\":10318:10391   */\n      swap3\n      pop\n        /* \"#utility.yul\":10114:10401   */\n      pop\n        /* \"#utility.yul\":10440:10442   */\n      0x20\n        /* \"#utility.yul\":10466:10519   */\n      tag_370\n        /* \"#utility.yul\":10511:10518   */\n      dup6\n        /* \"#utility.yul\":10502:10508   */\n      dup3\n        /* \"#utility.yul\":10491:10500   */\n      dup7\n        /* \"#utility.yul\":10487:10509   */\n      add\n        /* \"#utility.yul\":10466:10519   */\n      tag_189\n      jump\t// in\n    tag_370:\n        /* \"#utility.yul\":10456:10519   */\n      swap2\n      pop\n        /* \"#utility.yul\":10411:10529   */\n      pop\n        /* \"#utility.yul\":9882:10536   */\n      swap3\n      pop\n      swap3\n      swap1\n      pop\n      jump\t// out\n        /* \"#utility.yul\":10542:10764   */\n    tag_61:\n        /* \"#utility.yul\":10635:10639   */\n      0x00\n        /* \"#utility.yul\":10673:10675   */\n      0x20\n        /* \"#utility.yul\":10662:10671   */\n      dup3\n        /* \"#utility.yul\":10658:10676   */\n      add\n        /* \"#utility.yul\":10650:10676   */\n      swap1\n      pop\n        /* \"#utility.yul\":10686:10757   */\n      tag_372\n        /* \"#utility.yul\":10754:10755   */\n      0x00\n        /* \"#utility.yul\":10743:10752   */\n      dup4\n        /* \"#utility.yul\":10739:10756   */\n      add\n        /* \"#utility.yul\":10730:10736   */\n      dup5\n        /* \"#utility.yul\":10686:10757   */\n      tag_204\n      jump\t// in\n    tag_372:\n        /* \"#utility.yul\":10542:10764   */\n      swap3\n      swap2\n      pop\n      pop\n      jump\t// out\n        /* \"#utility.yul\":10770:10950   */\n    tag_216:\n        /* \"#utility.yul\":10910:10942   */\n      0x4f6e6c792073656c6c65722063616e207570646174652070726f647563740000\n        /* \"#utility.yul\":10906:10907   */\n      0x00\n        /* \"#utility.yul\":10898:10904   */\n      dup3\n        /* \"#utility.yul\":10894:10908   */\n      add\n        /* \"#utility.yul\":10887:10943   */\n      mstore\n        /* \"#utility.yul\":10770:10950   */\n      pop\n      jump\t// out\n        /* \"#utility.yul\":10956:11322   */\n    tag_217:\n        /* \"#utility.yul\":11098:11101   */\n      0x00\n        /* \"#utility.yul\":11119:11186   */\n      tag_375\n        /* \"#utility.yul\":11183:11185   */\n      0x1e\n        /* \"#utility.yul\":11178:11181   */\n      dup4\n        /* \"#utility.yul\":11119:11186   */\n      tag_206\n      jump\t// in\n    tag_375:\n        /* \"#utility.yul\":11112:11186   */\n      swap2\n      pop\n        /* \"#utility.yul\":11195:11288   */\n      tag_376\n        /* \"#utility.yul\":11284:11287   */\n      dup3\n        /* \"#utility.yul\":11195:11288   */\n      tag_216\n      jump\t// in\n    tag_376:\n        /* \"#utility.yul\":11313:11315   */\n      0x20\n        /* \"#utility.yul\":11308:11311   */\n      dup3\n        /* \"#utility.yul\":11304:11316   */\n      add\n        /* \"#utility.yul\":11297:11316   */\n      swap1\n      pop\n        /* \"#utility.yul\":10956:11322   */\n      swap2\n      swap1\n      pop\n      jump\t// out\n        /* \"#utility.yul\":11328:11747   */\n    tag_65:\n        /* \"#utility.yul\":11494:11498   */\n      0x00\n        /* \"#utility.yul\":11532:11534   */\n      0x20\n        /* \"#utility.yul\":11521:11530   */\n      dup3\n        /* \"#utility.yul\":11517:11535   */\n      add\n        /* \"#utility.yul\":11509:11535   */\n      swap1\n      pop\n        /* \"#utility.yul\":11581:11590   */\n      dup2\n        /* \"#utility.yul\":11575:11579   */\n      dup2\n        /* \"#utility.yul\":11571:11591   */\n      sub\n        /* \"#utility.yul\":11567:11568   */\n      0x00\n        /* \"#utility.yul\":11556:11565   */\n      dup4\n        /* \"#utility.yul\":11552:11569   */\n      add\n        /* \"#utility.yul\":11545:11592   */\n      mstore\n        /* \"#utility.yul\":11609:11740   */\n      tag_378\n        /* \"#utility.yul\":11735:11739   */\n      dup2\n        /* \"#utility.yul\":11609:11740   */\n      tag_217\n      jump\t// in\n    tag_378:\n        /* \"#utility.yul\":11601:11740   */\n      swap1\n      pop\n        /* \"#utility.yul\":11328:11747   */\n      swap2\n      swap1\n      pop\n      jump\t// out\n        /* \"#utility.yul\":11753:11933   */\n    tag_218:\n        /* \"#utility.yul\":11801:11878   */\n      0x4e487b7100000000000000000000000000000000000000000000000000000000\n        /* \"#utility.yul\":11798:11799   */\n      0x00\n        /* \"#utility.yul\":11791:11879   */\n      mstore\n        /* \"#utility.yul\":11898:11902   */\n      0x22\n        /* \"#utility.yul\":11895:11896   */\n      0x04\n        /* \"#utility.yul\":11888:11903   */\n      mstore\n        /* \"#utility.yul\":11922:11926   */\n      0x24\n        /* \"#utility.yul\":11919:11920   */\n      0x00\n        /* \"#utility.yul\":11912:11927   */\n      revert\n        /* \"#utility.yul\":11939:12259   */\n    tag_140:\n        /* \"#utility.yul\":11983:11989   */\n      0x00\n        /* \"#utility.yul\":12020:12021   */\n      0x02\n        /* \"#utility.yul\":12014:12018   */\n      dup3\n        /* \"#utility.yul\":12010:12022   */\n      div\n        /* \"#utility.yul\":12000:12022   */\n      swap1\n      pop\n        /* \"#utility.yul\":12067:12068   */\n      0x01\n        /* \"#utility.yul\":12061:12065   */\n      dup3\n        /* \"#utility.yul\":12057:12069   */\n      and\n        /* \"#utility.yul\":12088:12106   */\n      dup1\n        /* \"#utility.yul\":12078:12159   */\n      tag_381\n      jumpi\n        /* \"#utility.yul\":12144:12148   */\n      0x7f\n        /* \"#utility.yul\":12136:12142   */\n      dup3\n        /* \"#utility.yul\":12132:12149   */\n      and\n        /* \"#utility.yul\":12122:12149   */\n      swap2\n      pop\n        /* \"#utility.yul\":12078:12159   */\n    tag_381:\n        /* \"#utility.yul\":12206:12208   */\n      0x20\n        /* \"#utility.yul\":12198:12204   */\n      dup3\n        /* \"#utility.yul\":12195:12209   */\n      lt\n        /* \"#utility.yul\":12175:12193   */\n      dup2\n        /* \"#utility.yul\":12172:12210   */\n      sub\n        /* \"#utility.yul\":12169:12253   */\n      tag_382\n      jumpi\n        /* \"#utility.yul\":12225:12243   */\n      tag_383\n      tag_218\n      jump\t// in\n    tag_383:\n        /* \"#utility.yul\":12169:12253   */\n    tag_382:\n        /* \"#utility.yul\":11990:12259   */\n      pop\n        /* \"#utility.yul\":11939:12259   */\n      swap2\n      swap1\n      pop\n      jump\t// out\n        /* \"#utility.yul\":12265:12406   */\n    tag_219:\n        /* \"#utility.yul\":12314:12318   */\n      0x00\n        /* \"#utility.yul\":12337:12340   */\n      dup2\n        /* \"#utility.yul\":12329:12340   */\n      swap1\n      pop\n        /* \"#utility.yul\":12360:12363   */\n      dup2\n        /* \"#utility.yul\":12357:12358   */\n      0x00\n        /* \"#utility.yul\":12350:12364   */\n      mstore\n        /* \"#utility.yul\":12394:12398   */\n      0x20\n        /* \"#utility.yul\":12391:12392   */\n      0x00\n        /* \"#utility.yul\":12381:12399   */\n      keccak256\n        /* \"#utility.yul\":12373:12399   */\n      swap1\n      pop\n        /* \"#utility.yul\":12265:12406   */\n      swap2\n      swap1\n      pop\n      jump\t// out\n        /* \"#utility.yul\":12412:12505   */\n    tag_220:\n        /* \"#utility.yul\":12449:12455   */\n      0x00\n        /* \"#utility.yul\":12496:12498   */\n      0x20\n        /* \"#utility.yul\":12491:12493   */\n      0x1f\n        /* \"#utility.yul\":12484:12489   */\n      dup4\n        /* \"#utility.yul\":12480:12494   */\n      add\n        /* \"#utility.yul\":12476:12499   */\n      div\n        /* \"#utility.yul\":12466:12499   */\n      swap1\n      pop\n        /* \"#utility.yul\":12412:12505   */\n      swap2\n      swap1\n      pop\n      jump\t// out\n        /* \"#utility.yul\":12511:12618   */\n    tag_221:\n        /* \"#utility.yul\":12555:12563   */\n      0x00\n        /* \"#utility.yul\":12605:12610   */\n      dup3\n        /* \"#utility.yul\":12599:12603   */\n      dup3\n        /* \"#utility.yul\":12595:12611   */\n      shl\n        /* \"#utility.yul\":12574:12611   */\n      swap1\n      pop\n        /* \"#utility.yul\":12511:12618   */\n      swap3\n      swap2\n      pop\n      pop\n      jump\t// out\n        /* \"#utility.yul\":12624:13017   */\n    tag_222:\n        /* \"#utility.yul\":12693:12699   */\n      0x00\n        /* \"#utility.yul\":12743:12744   */\n      0x08\n        /* \"#utility.yul\":12731:12741   */\n      dup4\n        /* \"#utility.yul\":12727:12745   */\n      mul\n        /* \"#utility.yul\":12766:12863   */\n      tag_388\n        /* \"#utility.yul\":12796:12862   */\n      0xffffffffffffffffffffffffffffffffffffffffffffffffffffffffffffffff\n        /* \"#utility.yul\":12785:12794   */\n      dup3\n        /* \"#utility.yul\":12766:12863   */\n      tag_221\n      jump\t// in\n    tag_388:\n        /* \"#utility.yul\":12884:12923   */\n      tag_389\n        /* \"#utility.yul\":12914:12922   */\n      dup7\n        /* \"#utility.yul\":12903:12912   */\n      dup4\n        /* \"#utility.yul\":12884:12923   */\n      tag_221\n      jump\t// in\n    tag_389:\n        /* \"#utility.yul\":12872:12923   */\n      swap6\n      pop\n        /* \"#utility.yul\":12956:12960   */\n      dup1\n        /* \"#utility.yul\":12952:12961   */\n      not\n        /* \"#utility.yul\":12945:12950   */\n      dup5\n        /* \"#utility.yul\":12941:12962   */\n      and\n        /* \"#utility.yul\":12932:12962   */\n      swap4\n      pop\n        /* \"#utility.yul\":13005:13009   */\n      dup1\n        /* \"#utility.yul\":12995:13003   */\n      dup7\n        /* \"#utility.yul\":12991:13010   */\n      and\n        /* \"#utility.yul\":12984:12989   */\n      dup5\n        /* \"#utility.yul\":12981:13011   */\n      or\n        /* \"#utility.yul\":12971:13011   */\n      swap3\n      pop\n        /* \"#utility.yul\":12700:13017   */\n      pop\n      pop\n        /* \"#utility.yul\":12624:13017   */\n      swap4\n      swap3\n      pop\n      pop\n      pop\n      jump\t// out\n        /* \"#utility.yul\":13023:13083   */\n    tag_223:\n        /* \"#utility.yul\":13051:13054   */\n      0x00\n        /* \"#utility.yul\":13072:13077   */\n      dup2\n        /* \"#utility.yul\":13065:13077   */\n      swap1\n      pop\n        /* \"#utility.yul\":13023:13083   */\n      swap2\n      swap1\n      pop\n      jump\t// out\n        /* \"#utility.yul\":13089:13231   */\n    tag_224:\n        /* \"#utility.yul\":13139:13148   */\n      0x00\n        /* \"#utility.yul\":13172:13225   */\n      tag_392\n        /* \"#utility.yul\":13190:13224   */\n      tag_393\n        /* \"#utility.yul\":13199:13223   */\n      tag_394\n        /* \"#utility.yul\":13217:13222   */\n      dup5\n        /* \"#utility.yul\":13199:13223   */\n      tag_187\n      jump\t// in\n    tag_394:\n        /* \"#utility.yul\":13190:13224   */\n      tag_223\n      jump\t// in\n    tag_393:\n        /* \"#utility.yul\":13172:13225   */\n      tag_187\n      jump\t// in\n    tag_392:\n        /* \"#utility.yul\":13159:13225   */\n      swap1\n      pop\n        /* \"#utility.yul\":13089:13231   */\n      swap2\n      swap1\n      pop\n      jump\t// out\n        /* \"#utility.yul\":13237:13312   */\n    tag_225:\n        /* \"#utility.yul\":13280:13283   */\n      0x00\n        /* \"#utility.yul\":13301:13306   */\n      dup2\n        /* \"#utility.yul\":13294:13306   */\n      swap1\n      pop\n        /* \"#utility.yul\":13237:13312   */\n      swap2\n      swap1\n      pop\n      jump\t// out\n        /* \"#utility.yul\":13318:13587   */\n    tag_226:\n        /* \"#utility.yul\":13428:13467   */\n      tag_397\n        /* \"#utility.yul\":13459:13466   */\n      dup4\n        /* \"#utility.yul\":13428:13467   */\n      tag_224\n      jump\t// in\n    tag_397:\n        /* \"#utility.yul\":13489:13580   */\n      tag_398\n        /* \"#utility.yul\":13538:13579   */\n      tag_399\n        /* \"#utility.yul\":13562:13578   */\n      dup3\n        /* \"#utility.yul\":13538:13579   */\n      tag_225\n      jump\t// in\n    tag_399:\n        /* \"#utility.yul\":13530:13536   */\n      dup5\n        /* \"#utility.yul\":13523:13527   */\n      dup5\n        /* \"#utility.yul\":13517:13528   */\n      sload\n        /* \"#utility.yul\":13489:13580   */\n      tag_222\n      jump\t// in\n    tag_398:\n        /* \"#utility.yul\":13483:13487   */\n      dup3\n        /* \"#utility.yul\":13476:13581   */\n      sstore\n        /* \"#utility.yul\":13394:13587   */\n      pop\n        /* \"#utility.yul\":13318:13587   */\n      pop\n      pop\n      pop\n      jump\t// out\n        /* \"#utility.yul\":13593:13666   */\n    tag_227:\n        /* \"#utility.yul\":13638:13641   */\n      0x00\n        /* \"#utility.yul\":13659:13660   */\n      0x00\n        /* \"#utility.yul\":13652:13660   */\n      swap1\n      pop\n        /* \"#utility.yul\":13593:13666   */\n      swap1\n      jump\t// out\n        /* \"#utility.yul\":13672:13861   */\n    tag_228:\n        /* \"#utility.yul\":13749:13781   */\n      tag_402\n      tag_227\n      jump\t// in\n    tag_402:\n        /* \"#utility.yul\":13790:13855   */\n      tag_403\n        /* \"#utility.yul\":13848:13854   */\n      dup2\n        /* \"#utility.yul\":13840:13846   */\n      dup5\n        /* \"#utility.yul\":13834:13838   */\n      dup5\n        /* \"#utility.yul\":13790:13855   */\n      tag_226\n      jump\t// in\n    tag_403:\n        /* \"#utility.yul\":13725:13861   */\n      pop\n        /* \"#utility.yul\":13672:13861   */\n      pop\n      pop\n      jump\t// out\n        /* \"#utility.yul\":13867:14053   */\n    tag_229:\n        /* \"#utility.yul\":13927:14047   */\n    tag_405:\n        /* \"#utility.yul\":13944:13947   */\n      dup2\n        /* \"#utility.yul\":13937:13942   */\n      dup2\n        /* \"#utility.yul\":13934:13948   */\n      lt\n        /* \"#utility.yul\":13927:14047   */\n      iszero\n      tag_407\n      jumpi\n        /* \"#utility.yul\":13998:14037   */\n      tag_408\n        /* \"#utility.yul\":14035:14036   */\n      0x00\n        /* \"#utility.yul\":14028:14033   */\n      dup3\n        /* \"#utility.yul\":13998:14037   */\n      tag_228\n      jump\t// in\n    tag_408:\n        /* \"#utility.yul\":13971:13972   */\n      0x01\n        /* \"#utility.yul\":13964:13969   */\n      dup2\n        /* \"#utility.yul\":13960:13973   */\n      add\n        /* \"#utility.yul\":13951:13973   */\n      swap1\n      pop\n        /* \"#utility.yul\":13927:14047   */\n      jump(tag_405)\n    tag_407:\n        /* \"#utility.yul\":13867:14053   */\n      pop\n      pop\n      jump\t// out\n        /* \"#utility.yul\":14059:14602   */\n    tag_230:\n        /* \"#utility.yul\":14160:14162   */\n      0x1f\n        /* \"#utility.yul\":14155:14158   */\n      dup3\n        /* \"#utility.yul\":14152:14163   */\n      gt\n        /* \"#utility.yul\":14149:14595   */\n      iszero\n      tag_410\n      jumpi\n        /* \"#utility.yul\":14194:14232   */\n      tag_411\n        /* \"#utility.yul\":14226:14231   */\n      dup2\n        /* \"#utility.yul\":14194:14232   */\n      tag_219\n      jump\t// in\n    tag_411:\n        /* \"#utility.yul\":14278:14307   */\n      tag_412\n        /* \"#utility.yul\":14296:14306   */\n      dup5\n        /* \"#utility.yul\":14278:14307   */\n      tag_220\n      jump\t// in\n    tag_412:\n        /* \"#utility.yul\":14268:14276   */\n      dup2\n        /* \"#utility.yul\":14264:14308   */\n      add\n        /* \"#utility.yul\":14461:14463   */\n      0x20\n        /* \"#utility.yul\":14449:14459   */\n      dup6\n        /* \"#utility.yul\":14446:14464   */\n      lt\n        /* \"#utility.yul\":14443:14492   */\n      iszero\n      tag_413\n      jumpi\n        /* \"#utility.yul\":14482:14490   */\n      dup2\n        /* \"#utility.yul\":14467:14490   */\n      swap1\n      pop\n        /* \"#utility.yul\":14443:14492   */\n    tag_413:\n        /* \"#utility.yul\":14505:14585   */\n      tag_414\n        /* \"#utility.yul\":14561:14583   */\n      tag_415\n        /* \"#utility.yul\":14579:14582   */\n      dup6\n        /* \"#utility.yul\":14561:14583   */\n      tag_220\n      jump\t// in\n    tag_415:\n        /* \"#utility.yul\":14551:14559   */\n      dup4\n        /* \"#utility.yul\":14547:14584   */\n      add\n        /* \"#utility.yul\":14534:14545   */\n      dup3\n        /* \"#utility.yul\":14505:14585   */\n      tag_229\n      jump\t// in\n    tag_414:\n        /* \"#utility.yul\":14164:14595   */\n      pop\n      pop\n        /* \"#utility.yul\":14149:14595   */\n    tag_410:\n        /* \"#utility.yul\":14059:14602   */\n      pop\n      pop\n      pop\n      jump\t// out\n        /* \"#utility.yul\":14608:14725   */\n    tag_231:\n        /* \"#utility.yul\":14662:14670   */\n      0x00\n        /* \"#utility.yul\":14712:14717   */\n      dup3\n        /* \"#utility.yul\":14706:14710   */\n      dup3\n        /* \"#utility.yul\":14702:14718   */\n      shr\n        /* \"#utility.yul\":14681:14718   */\n      swap1\n      pop\n        /* \"#utility.yul\":14608:14725   */\n      swap3\n      swap2\n      pop\n      pop\n      jump\t// out\n        /* \"#utility.yul\":14731:14900   */\n    tag_232:\n        /* \"#utility.yul\":14775:14781   */\n      0x00\n        /* \"#utility.yul\":14808:14859   */\n      tag_418\n        /* \"#utility.yul\":14856:14857   */\n      0x00\n        /* \"#utility.yul\":14852:14858   */\n      not\n        /* \"#utility.yul\":14844:14849   */\n      dup5\n        /* \"#utility.yul\":14841:14842   */\n      0x08\n        /* \"#utility.yul\":14837:14850   */\n      mul\n        /* \"#utility.yul\":14808:14859   */\n      tag_231\n      jump\t// in\n    tag_418:\n        /* \"#utility.yul\":14804:14860   */\n      not\n        /* \"#utility.yul\":14889:14893   */\n      dup1\n        /* \"#utility.yul\":14883:14887   */\n      dup4\n        /* \"#utility.yul\":14879:14894   */\n      and\n        /* \"#utility.yul\":14869:14894   */\n      swap2\n      pop\n        /* \"#utility.yul\":14782:14900   */\n      pop\n        /* \"#utility.yul\":14731:14900   */\n      swap3\n      swap2\n      pop\n      pop\n      jump\t// out\n        /* \"#utility.yul\":14905:15200   */\n    tag_233:\n        /* \"#utility.yul\":14981:14985   */\n      0x00\n        /* \"#utility.yul\":15127:15156   */\n      tag_420\n        /* \"#utility.yul\":15152:15155   */\n      dup4\n        /* \"#utility.yul\":15146:15150   */\n      dup4\n        /* \"#utility.yul\":15127:15156   */\n      tag_232\n      jump\t// in\n    tag_420:\n        /* \"#utility.yul\":15119:15156   */\n      swap2\n      pop\n        /* \"#utility.yul\":15189:15192   */\n      dup3\n        /* \"#utility.yul\":15186:15187   */\n      0x02\n        /* \"#utility.yul\":15182:15193   */\n      mul\n        /* \"#utility.yul\":15176:15180   */\n      dup3\n        /* \"#utility.yul\":15173:15194   */\n      or\n        /* \"#utility.yul\":15165:15194   */\n      swap1\n      pop\n        /* \"#utility.yul\":14905:15200   */\n      swap3\n      swap2\n      pop\n      pop\n      jump\t// out\n        /* \"#utility.yul\":15205:16600   */\n    tag_67:\n        /* \"#utility.yul\":15322:15359   */\n      tag_422\n        /* \"#utility.yul\":15355:15358   */\n      dup3\n        /* \"#utility.yul\":15322:15359   */\n      tag_205\n      jump\t// in\n    tag_422:\n        /* \"#utility.yul\":15424:15442   */\n      0xffffffffffffffff\n        /* \"#utility.yul\":15416:15422   */\n      dup2\n        /* \"#utility.yul\":15413:15443   */\n      gt\n        /* \"#utility.yul\":15410:15466   */\n      iszero\n      tag_423\n      jumpi\n        /* \"#utility.yul\":15446:15464   */\n      tag_424\n      tag_193\n      jump\t// in\n    tag_424:\n        /* \"#utility.yul\":15410:15466   */\n    tag_423:\n        /* \"#utility.yul\":15490:15528   */\n      tag_425\n        /* \"#utility.yul\":15522:15526   */\n      dup3\n        /* \"#utility.yul\":15516:15527   */\n      sload\n        /* \"#utility.yul\":15490:15528   */\n      tag_140\n      jump\t// in\n    tag_425:\n        /* \"#utility.yul\":15575:15642   */\n      tag_426\n        /* \"#utility.yul\":15635:15641   */\n      dup3\n        /* \"#utility.yul\":15627:15633   */\n      dup3\n        /* \"#utility.yul\":15621:15625   */\n      dup6\n        /* \"#utility.yul\":15575:15642   */\n      tag_230\n      jump\t// in\n    tag_426:\n        /* \"#utility.yul\":15669:15670   */\n      0x00\n        /* \"#utility.yul\":15693:15697   */\n      0x20\n        /* \"#utility.yul\":15680:15697   */\n      swap1\n      pop\n        /* \"#utility.yul\":15725:15727   */\n      0x1f\n        /* \"#utility.yul\":15717:15723   */\n      dup4\n        /* \"#utility.yul\":15714:15728   */\n      gt\n        /* \"#utility.yul\":15742:15743   */\n      0x01\n        /* \"#utility.yul\":15737:16355   */\n      dup2\n      eq\n      tag_428\n      jumpi\n        /* \"#utility.yul\":16399:16400   */\n      0x00\n        /* \"#utility.yul\":16416:16422   */\n      dup5\n        /* \"#utility.yul\":16413:16490   */\n      iszero\n      tag_429\n      jumpi\n        /* \"#utility.yul\":16465:16474   */\n      dup3\n        /* \"#utility.yul\":16460:16463   */\n      dup8\n        /* \"#utility.yul\":16456:16475   */\n      add\n        /* \"#utility.yul\":16450:16476   */\n      mload\n        /* \"#utility.yul\":16441:16476   */\n      swap1\n      pop\n        /* \"#utility.yul\":16413:16490   */\n    tag_429:\n        /* \"#utility.yul\":16516:16583   */\n      tag_430\n        /* \"#utility.yul\":16576:16582   */\n      dup6\n        /* \"#utility.yul\":16569:16574   */\n      dup3\n        /* \"#utility.yul\":16516:16583   */\n      tag_233\n      jump\t// in\n    tag_430:\n        /* \"#utility.yul\":16510:16514   */\n      dup7\n        /* \"#utility.yul\":16503:16584   */\n      sstore\n        /* \"#utility.yul\":16372:16594   */\n      pop\n        /* \"#utility.yul\":15707:16594   */\n      jump(tag_427)\n        /* \"#utility.yul\":15737:16355   */\n    tag_428:\n        /* \"#utility.yul\":15789:15793   */\n      0x1f\n        /* \"#utility.yul\":15785:15794   */\n      not\n        /* \"#utility.yul\":15777:15783   */\n      dup5\n        /* \"#utility.yul\":15773:15795   */\n      and\n        /* \"#utility.yul\":15823:15860   */\n      tag_431\n        /* \"#utility.yul\":15855:15859   */\n      dup7\n        /* \"#utility.yul\":15823:15860   */\n      tag_219\n      jump\t// in\n    tag_431:\n        /* \"#utility.yul\":15882:15883   */\n      0x00\n        /* \"#utility.yul\":15896:16104   */\n    tag_432:\n        /* \"#utility.yul\":15910:15917   */\n      dup3\n        /* \"#utility.yul\":15907:15908   */\n      dup2\n        /* \"#utility.yul\":15904:15918   */\n      lt\n        /* \"#utility.yul\":15896:16104   */\n      iszero\n      tag_434\n      jumpi\n        /* \"#utility.yul\":15989:15998   */\n      dup5\n        /* \"#utility.yul\":15984:15987   */\n      dup10\n        /* \"#utility.yul\":15980:15999   */\n      add\n        /* \"#utility.yul\":15974:16000   */\n      mload\n        /* \"#utility.yul\":15966:15972   */\n      dup3\n        /* \"#utility.yul\":15959:16001   */\n      sstore\n        /* \"#utility.yul\":16040:16041   */\n      0x01\n        /* \"#utility.yul\":16032:16038   */\n      dup3\n        /* \"#utility.yul\":16028:16042   */\n      add\n        /* \"#utility.yul\":16018:16042   */\n      swap2\n      pop\n        /* \"#utility.yul\":16087:16089   */\n      0x20\n        /* \"#utility.yul\":16076:16085   */\n      dup6\n        /* \"#utility.yul\":16072:16090   */\n      add\n        /* \"#utility.yul\":16059:16090   */\n      swap5\n      pop\n        /* \"#utility.yul\":15933:15937   */\n      0x20\n        /* \"#utility.yul\":15930:15931   */\n      dup2\n        /* \"#utility.yul\":15926:15938   */\n      add\n        /* \"#utility.yul\":15921:15938   */\n      swap1\n      pop\n        /* \"#utility.yul\":15896:16104   */\n      jump(tag_432)\n    tag_434:\n        /* \"#utility.yul\":16132:16138   */\n      dup7\n        /* \"#utility.yul\":16123:16130   */\n      dup4\n        /* \"#utility.yul\":16120:16139   */\n      lt\n        /* \"#utility.yul\":16117:16296   */\n      iszero\n      tag_435\n      jumpi\n        /* \"#utility.yul\":16190:16199   */\n      dup5\n        /* \"#utility.yul\":16185:16188   */\n      dup10\n        /* \"#utility.yul\":16181:16200   */\n      add\n        /* \"#utility.yul\":16175:16201   */\n      mload\n        /* \"#utility.yul\":16233:16281   */\n      tag_436\n        /* \"#utility.yul\":16275:16279   */\n      0x1f\n        /* \"#utility.yul\":16267:16273   */\n      dup10\n        /* \"#utility.yul\":16263:16280   */\n      and\n        /* \"#utility.yul\":16252:16261   */\n      dup3\n        /* \"#utility.yul\":16233:16281   */\n      tag_232\n      jump\t// in\n    tag_436:\n        /* \"#utility.yul\":16225:16231   */\n      dup4\n        /* \"#utility.yul\":16218:16282   */\n      sstore\n        /* \"#utility.yul\":16140:16296   */\n      pop\n        /* \"#utility.yul\":16117:16296   */\n    tag_435:\n        /* \"#utility.yul\":16342:16343   */\n      0x01\n        /* \"#utility.yul\":16338:16339   */\n      0x02\n        /* \"#utility.yul\":16330:16336   */\n      dup9\n        /* \"#utility.yul\":16326:16340   */\n      mul\n        /* \"#utility.yul\":16322:16344   */\n      add\n        /* \"#utility.yul\":16316:16320   */\n      dup9\n        /* \"#utility.yul\":16309:16345   */\n      sstore\n        /* \"#utility.yul\":15744:16355   */\n      pop\n      pop\n      pop\n        /* \"#utility.yul\":15707:16594   */\n    tag_427:\n      pop\n        /* \"#utility.yul\":15297:16600   */\n      pop\n      pop\n      pop\n        /* \"#utility.yul\":15205:16600   */\n      pop\n      pop\n      jump\t// out\n        /* \"#utility.yul\":16606:16786   */\n    tag_70:\n        /* \"#utility.yul\":16654:16731   */\n      0x4e487b7100000000000000000000000000000000000000000000000000000000\n        /* \"#utility.yul\":16651:16652   */\n      0x00\n        /* \"#utility.yul\":16644:16732   */\n      mstore\n        /* \"#utility.yul\":16751:16755   */\n      0x32\n        /* \"#utility.yul\":16748:16749   */\n      0x04\n        /* \"#utility.yul\":16741:16756   */\n      mstore\n        /* \"#utility.yul\":16775:16779   */\n      0x24\n        /* \"#utility.yul\":16772:16773   */\n      0x00\n        /* \"#utility.yul\":16765:16780   */\n      revert\n        /* \"#utility.yul\":16792:16941   */\n    tag_234:\n        /* \"#utility.yul\":16841:16847   */\n      0x00\n        /* \"#utility.yul\":16875:16880   */\n      dup2\n        /* \"#utility.yul\":16869:16881   */\n      sload\n        /* \"#utility.yul\":16859:16881   */\n      swap1\n      pop\n        /* \"#utility.yul\":16901:16934   */\n      tag_439\n        /* \"#utility.yul\":16927:16933   */\n      dup2\n        /* \"#utility.yul\":16901:16934   */\n      tag_140\n      jump\t// in\n    tag_439:\n        /* \"#utility.yul\":16891:16934   */\n      swap1\n      pop\n        /* \"#utility.yul\":16792:16941   */\n      swap2\n      swap1\n      pop\n      jump\t// out\n        /* \"#utility.yul\":16947:18398   */\n    tag_73:\n        /* \"#utility.yul\":17058:17061   */\n      dup2\n        /* \"#utility.yul\":17052:17056   */\n      dup2\n        /* \"#utility.yul\":17049:17062   */\n      sub\n        /* \"#utility.yul\":17046:17072   */\n      tag_441\n      jumpi\n        /* \"#utility.yul\":17065:17070   */\n      pop\n      pop\n      jump(tag_440)\n        /* \"#utility.yul\":17046:17072   */\n    tag_441:\n        /* \"#utility.yul\":17096:17130   */\n      tag_442\n        /* \"#utility.yul\":17126:17129   */\n      dup3\n        /* \"#utility.yul\":17096:17130   */\n      tag_234\n      jump\t// in\n    tag_442:\n        /* \"#utility.yul\":17195:17213   */\n      0xffffffffffffffff\n        /* \"#utility.yul\":17187:17193   */\n      dup2\n        /* \"#utility.yul\":17184:17214   */\n      gt\n        /* \"#utility.yul\":17181:17237   */\n      iszero\n      tag_443\n      jumpi\n        /* \"#utility.yul\":17217:17235   */\n      tag_444\n      tag_193\n      jump\t// in\n    tag_444:\n        /* \"#utility.yul\":17181:17237   */\n    tag_443:\n        /* \"#utility.yul\":17261:17299   */\n      tag_445\n        /* \"#utility.yul\":17293:17297   */\n      dup3\n        /* \"#utility.yul\":17287:17298   */\n      sload\n        /* \"#utility.yul\":17261:17299   */\n      tag_140\n      jump\t// in\n    tag_445:\n        /* \"#utility.yul\":17346:17413   */\n      tag_446\n        /* \"#utility.yul\":17406:17412   */\n      dup3\n        /* \"#utility.yul\":17398:17404   */\n      dup3\n        /* \"#utility.yul\":17392:17396   */\n      dup6\n        /* \"#utility.yul\":17346:17413   */\n      tag_230\n      jump\t// in\n    tag_446:\n        /* \"#utility.yul\":17440:17441   */\n      0x00\n        /* \"#utility.yul\":17469:17471   */\n      0x1f\n        /* \"#utility.yul\":17461:17467   */\n      dup4\n        /* \"#utility.yul\":17458:17472   */\n      gt\n        /* \"#utility.yul\":17486:17487   */\n      0x01\n        /* \"#utility.yul\":17481:18153   */\n      dup2\n      eq\n      tag_448\n      jumpi\n        /* \"#utility.yul\":18197:18198   */\n      0x00\n        /* \"#utility.yul\":18214:18220   */\n      dup5\n        /* \"#utility.yul\":18211:18288   */\n      iszero\n      tag_449\n      jumpi\n        /* \"#utility.yul\":18263:18272   */\n      dup3\n        /* \"#utility.yul\":18258:18261   */\n      dup8\n        /* \"#utility.yul\":18254:18273   */\n      add\n        /* \"#utility.yul\":18248:18274   */\n      sload\n        /* \"#utility.yul\":18239:18274   */\n      swap1\n      pop\n        /* \"#utility.yul\":18211:18288   */\n    tag_449:\n        /* \"#utility.yul\":18314:18381   */\n      tag_450\n        /* \"#utility.yul\":18374:18380   */\n      dup6\n        /* \"#utility.yul\":18367:18372   */\n      dup3\n        /* \"#utility.yul\":18314:18381   */\n      tag_233\n      jump\t// in\n    tag_450:\n        /* \"#utility.yul\":18308:18312   */\n      dup7\n        /* \"#utility.yul\":18301:18382   */\n      sstore\n        /* \"#utility.yul\":18170:18392   */\n      pop\n        /* \"#utility.yul\":17451:18392   */\n      jump(tag_447)\n        /* \"#utility.yul\":17481:18153   */\n    tag_448:\n        /* \"#utility.yul\":17533:17537   */\n      0x1f\n        /* \"#utility.yul\":17529:17538   */\n      not\n        /* \"#utility.yul\":17521:17527   */\n      dup5\n        /* \"#utility.yul\":17517:17539   */\n      and\n        /* \"#utility.yul\":17559:17595   */\n      tag_451\n        /* \"#utility.yul\":17591:17594   */\n      dup8\n        /* \"#utility.yul\":17559:17595   */\n      tag_219\n      jump\t// in\n    tag_451:\n        /* \"#utility.yul\":17552:17595   */\n      swap7\n      pop\n        /* \"#utility.yul\":17622:17659   */\n      tag_452\n        /* \"#utility.yul\":17654:17658   */\n      dup7\n        /* \"#utility.yul\":17622:17659   */\n      tag_219\n      jump\t// in\n    tag_452:\n        /* \"#utility.yul\":17681:17682   */\n      0x00\n        /* \"#utility.yul\":17695:17902   */\n    tag_453:\n        /* \"#utility.yul\":17709:17716   */\n      dup3\n        /* \"#utility.yul\":17706:17707   */\n      dup2\n        /* \"#utility.yul\":17703:17717   */\n      lt\n        /* \"#utility.yul\":17695:17902   */\n      iszero\n      tag_455\n      jumpi\n        /* \"#utility.yul\":17788:17797   */\n      dup5\n        /* \"#utility.yul\":17783:17786   */\n      dup10\n        /* \"#utility.yul\":17779:17798   */\n      add\n        /* \"#utility.yul\":17773:17799   */\n      sload\n        /* \"#utility.yul\":17765:17771   */\n      dup3\n        /* \"#utility.yul\":17758:17800   */\n      sstore\n        /* \"#utility.yul\":17839:17840   */\n      0x01\n        /* \"#utility.yul\":17831:17837   */\n      dup3\n        /* \"#utility.yul\":17827:17841   */\n      add\n        /* \"#utility.yul\":17817:17841   */\n      swap2\n      pop\n        /* \"#utility.yul\":17886:17887   */\n      0x01\n        /* \"#utility.yul\":17875:17884   */\n      dup6\n        /* \"#utility.yul\":17871:17888   */\n      add\n        /* \"#utility.yul\":17858:17888   */\n      swap5\n      pop\n        /* \"#utility.yul\":17732:17736   */\n      0x20\n        /* \"#utility.yul\":17729:17730   */\n      dup2\n        /* \"#utility.yul\":17725:17737   */\n      add\n        /* \"#utility.yul\":17720:17737   */\n      swap1\n      pop\n        /* \"#utility.yul\":17695:17902   */\n      jump(tag_453)\n    tag_455:\n        /* \"#utility.yul\":17930:17936   */\n      dup7\n        /* \"#utility.yul\":17921:17928   */\n      dup4\n        /* \"#utility.yul\":17918:17937   */\n      lt\n        /* \"#utility.yul\":17915:18094   */\n      iszero\n      tag_456\n      jumpi\n        /* \"#utility.yul\":17988:17997   */\n      dup5\n        /* \"#utility.yul\":17983:17986   */\n      dup10\n        /* \"#utility.yul\":17979:17998   */\n      add\n        /* \"#utility.yul\":17973:17999   */\n      sload\n        /* \"#utility.yul\":18031:18079   */\n      tag_457\n        /* \"#utility.yul\":18073:18077   */\n      0x1f\n        /* \"#utility.yul\":18065:18071   */\n      dup10\n        /* \"#utility.yul\":18061:18078   */\n      and\n        /* \"#utility.yul\":18050:18059   */\n      dup3\n        /* \"#utility.yul\":18031:18079   */\n      tag_232\n      jump\t// in\n    tag_457:\n        /* \"#utility.yul\":18023:18029   */\n      dup4\n        /* \"#utility.yul\":18016:18080   */\n      sstore\n        /* \"#utility.yul\":17938:18094   */\n      pop\n        /* \"#utility.yul\":17915:18094   */\n    tag_456:\n        /* \"#utility.yul\":18140:18141   */\n      0x01\n        /* \"#utility.yul\":18136:18137   */\n      0x02\n        /* \"#utility.yul\":18128:18134   */\n      dup9\n        /* \"#utility.yul\":18124:18138   */\n      mul\n        /* \"#utility.yul\":18120:18142   */\n      add\n        /* \"#utility.yul\":18114:18118   */\n      dup9\n        /* \"#utility.yul\":18107:18143   */\n      sstore\n        /* \"#utility.yul\":17488:18153   */\n      pop\n      pop\n      pop\n        /* \"#utility.yul\":17451:18392   */\n    tag_447:\n      pop\n        /* \"#utility.yul\":17036:18398   */\n      pop\n      pop\n      pop\n        /* \"#utility.yul\":16947:18398   */\n      pop\n      pop\n    tag_440:\n      jump\t// out\n        /* \"#utility.yul\":18404:18827   */\n    tag_75:\n        /* \"#utility.yul\":18545:18549   */\n      0x00\n        /* \"#utility.yul\":18583:18585   */\n      0x40\n        /* \"#utility.yul\":18572:18581   */\n      dup3\n        /* \"#utility.yul\":18568:18586   */\n      add\n        /* \"#utility.yul\":18560:18586   */\n      swap1\n      pop\n        /* \"#utility.yul\":18632:18641   */\n      dup2\n        /* \"#utility.yul\":18626:18630   */\n      dup2\n        /* \"#utility.yul\":18622:18642   */\n      sub\n        /* \"#utility.yul\":18618:18619   */\n      0x00\n        /* \"#utility.yul\":18607:18616   */\n      dup4\n        /* \"#utility.yul\":18603:18620   */\n      add\n        /* \"#utility.yul\":18596:18643   */\n      mstore\n        /* \"#utility.yul\":18660:18738   */\n      tag_459\n        /* \"#utility.yul\":18733:18737   */\n      dup2\n        /* \"#utility.yul\":18724:18730   */\n      dup6\n        /* \"#utility.yul\":18660:18738   */\n      tag_208\n      jump\t// in\n    tag_459:\n        /* \"#utility.yul\":18652:18738   */\n      swap1\n      pop\n        /* \"#utility.yul\":18748:18820   */\n      tag_460\n        /* \"#utility.yul\":18816:18818   */\n      0x20\n        /* \"#utility.yul\":18805:18814   */\n      dup4\n        /* \"#utility.yul\":18801:18819   */\n      add\n        /* \"#utility.yul\":18792:18798   */\n      dup5\n        /* \"#utility.yul\":18748:18820   */\n      tag_204\n      jump\t// in\n    tag_460:\n        /* \"#utility.yul\":18404:18827   */\n      swap4\n      swap3\n      pop\n      pop\n      pop\n      jump\t// out\n        /* \"#utility.yul\":18833:19004   */\n    tag_235:\n        /* \"#utility.yul\":18973:18996   */\n      0x50726f64756374206e6f7420617661696c61626c650000000000000000000000\n        /* \"#utility.yul\":18969:18970   */\n      0x00\n        /* \"#utility.yul\":18961:18967   */\n      dup3\n        /* \"#utility.yul\":18957:18971   */\n      add\n        /* \"#utility.yul\":18950:18997   */\n      mstore\n        /* \"#utility.yul\":18833:19004   */\n      pop\n      jump\t// out\n        /* \"#utility.yul\":19010:19376   */\n    tag_236:\n        /* \"#utility.yul\":19152:19155   */\n      0x00\n        /* \"#utility.yul\":19173:19240   */\n      tag_463\n        /* \"#utility.yul\":19237:19239   */\n      0x15\n        /* \"#utility.yul\":19232:19235   */\n      dup4\n        /* \"#utility.yul\":19173:19240   */\n      tag_206\n      jump\t// in\n    tag_463:\n        /* \"#utility.yul\":19166:19240   */\n      swap2\n      pop\n        /* \"#utility.yul\":19249:19342   */\n      tag_464\n        /* \"#utility.yul\":19338:19341   */\n      dup3\n        /* \"#utility.yul\":19249:19342   */\n      tag_235\n      jump\t// in\n    tag_464:\n        /* \"#utility.yul\":19367:19369   */\n      0x20\n        /* \"#utility.yul\":19362:19365   */\n      dup3\n        /* \"#utility.yul\":19358:19370   */\n      add\n        /* \"#utility.yul\":19351:19370   */\n      swap1\n      pop\n        /* \"#utility.yul\":19010:19376   */\n      swap2\n      swap1\n      pop\n      jump\t// out\n        /* \"#utility.yul\":19382:19801   */\n    tag_79:\n        /* \"#utility.yul\":19548:19552   */\n      0x00\n        /* \"#utility.yul\":19586:19588   */\n      0x20\n        /* \"#utility.yul\":19575:19584   */\n      dup3\n        /* \"#utility.yul\":19571:19589   */\n      add\n        /* \"#utility.yul\":19563:19589   */\n      swap1\n      pop\n        /* \"#utility.yul\":19635:19644   */\n      dup2\n        /* \"#utility.yul\":19629:19633   */\n      dup2\n        /* \"#utility.yul\":19625:19645   */\n      sub\n        /* \"#utility.yul\":19621:19622   */\n      0x00\n        /* \"#utility.yul\":19610:19619   */\n      dup4\n        /* \"#utility.yul\":19606:19623   */\n      add\n        /* \"#utility.yul\":19599:19646   */\n      mstore\n        /* \"#utility.yul\":19663:19794   */\n      tag_466\n        /* \"#utility.yul\":19789:19793   */\n      dup2\n        /* \"#utility.yul\":19663:19794   */\n      tag_236\n      jump\t// in\n    tag_466:\n        /* \"#utility.yul\":19655:19794   */\n      swap1\n      pop\n        /* \"#utility.yul\":19382:19801   */\n      swap2\n      swap1\n      pop\n      jump\t// out\n        /* \"#utility.yul\":19807:19977   */\n    tag_237:\n        /* \"#utility.yul\":19947:19969   */\n      0x507269636520696e707574206d69736d61746368000000000000000000000000\n        /* \"#utility.yul\":19943:19944   */\n      0x00\n        /* \"#utility.yul\":19935:19941   */\n      dup3\n        /* \"#utility.yul\":19931:19945   */\n      add\n        /* \"#utility.yul\":19924:19970   */\n      mstore\n        /* \"#utility.yul\":19807:19977   */\n      pop\n      jump\t// out\n        /* \"#utility.yul\":19983:20349   */\n    tag_238:\n        /* \"#utility.yul\":20125:20128   */\n      0x00\n        /* \"#utility.yul\":20146:20213   */\n      tag_469\n        /* \"#utility.yul\":20210:20212   */\n      0x14\n        /* \"#utility.yul\":20205:20208   */\n      dup4\n        /* \"#utility.yul\":20146:20213   */\n      tag_206\n      jump\t// in\n    tag_469:\n        /* \"#utility.yul\":20139:20213   */\n      swap2\n      pop\n        /* \"#utility.yul\":20222:20315   */\n      tag_470\n        /* \"#utility.yul\":20311:20314   */\n      dup3\n        /* \"#utility.yul\":20222:20315   */\n      tag_237\n      jump\t// in\n    tag_470:\n        /* \"#utility.yul\":20340:20342   */\n      0x20\n        /* \"#utility.yul\":20335:20338   */\n      dup3\n        /* \"#utility.yul\":20331:20343   */\n      add\n        /* \"#utility.yul\":20324:20343   */\n      swap1\n      pop\n        /* \"#utility.yul\":19983:20349   */\n      swap2\n      swap1\n      pop\n      jump\t// out\n        /* \"#utility.yul\":20355:20774   */\n    tag_82:\n        /* \"#utility.yul\":20521:20525   */\n      0x00\n        /* \"#utility.yul\":20559:20561   */\n      0x20\n        /* \"#utility.yul\":20548:20557   */\n      dup3\n        /* \"#utility.yul\":20544:20562   */\n      add\n        /* \"#utility.yul\":20536:20562   */\n      swap1\n      pop\n        /* \"#utility.yul\":20608:20617   */\n      dup2\n        /* \"#utility.yul\":20602:20606   */\n      dup2\n        /* \"#utility.yul\":20598:20618   */\n      sub\n        /* \"#utility.yul\":20594:20595   */\n      0x00\n        /* \"#utility.yul\":20583:20592   */\n      dup4\n        /* \"#utility.yul\":20579:20596   */\n      add\n        /* \"#utility.yul\":20572:20619   */\n      mstore\n        /* \"#utility.yul\":20636:20767   */\n      tag_472\n        /* \"#utility.yul\":20762:20766   */\n      dup2\n        /* \"#utility.yul\":20636:20767   */\n      tag_238\n      jump\t// in\n    tag_472:\n        /* \"#utility.yul\":20628:20767   */\n      swap1\n      pop\n        /* \"#utility.yul\":20355:20774   */\n      swap2\n      swap1\n      pop\n      jump\t// out\n        /* \"#utility.yul\":20780:20954   */\n    tag_239:\n        /* \"#utility.yul\":20920:20946   */\n      0x496e636f7272656374207061796d656e7420616d6f756e740000000000000000\n        /* \"#utility.yul\":20916:20917   */\n      0x00\n        /* \"#utility.yul\":20908:20914   */\n      dup3\n        /* \"#utility.yul\":20904:20918   */\n      add\n        /* \"#utility.yul\":20897:20947   */\n      mstore\n        /* \"#utility.yul\":20780:20954   */\n      pop\n      jump\t// out\n        /* \"#utility.yul\":20960:21326   */\n    tag_240:\n        /* \"#utility.yul\":21102:21105   */\n      0x00\n        /* \"#utility.yul\":21123:21190   */\n      tag_475\n        /* \"#utility.yul\":21187:21189   */\n      0x18\n        /* \"#utility.yul\":21182:21185   */\n      dup4\n        /* \"#utility.yul\":21123:21190   */\n      tag_206\n      jump\t// in\n    tag_475:\n        /* \"#utility.yul\":21116:21190   */\n      swap2\n      pop\n        /* \"#utility.yul\":21199:21292   */\n      tag_476\n        /* \"#utility.yul\":21288:21291   */\n      dup3\n        /* \"#utility.yul\":21199:21292   */\n      tag_239\n      jump\t// in\n    tag_476:\n        /* \"#utility.yul\":21317:21319   */\n      0x20\n        /* \"#utility.yul\":21312:21315   */\n      dup3\n        /* \"#utility.yul\":21308:21320   */\n      add\n        /* \"#utility.yul\":21301:21320   */\n      swap1\n      pop\n        /* \"#utility.yul\":20960:21326   */\n      swap2\n      swap1\n      pop\n      jump\t// out\n        /* \"#utility.yul\":21332:21751   */\n    tag_85:\n        /* \"#utility.yul\":21498:21502   */\n      0x00\n        /* \"#utility.yul\":21536:21538   */\n      0x20\n        /* \"#utility.yul\":21525:21534   */\n      dup3\n        /* \"#utility.yul\":21521:21539   */\n      add\n        /* \"#utility.yul\":21513:21539   */\n      swap1\n      pop\n        /* \"#utility.yul\":21585:21594   */\n      dup2\n        /* \"#utility.yul\":21579:21583   */\n      dup2\n        /* \"#utility.yul\":21575:21595   */\n      sub\n        /* \"#utility.yul\":21571:21572   */\n      0x00\n        /* \"#utility.yul\":21560:21569   */\n      dup4\n        /* \"#utility.yul\":21556:21573   */\n      add\n        /* \"#utility.yul\":21549:21596   */\n      mstore\n        /* \"#utility.yul\":21613:21744   */\n      tag_478\n        /* \"#utility.yul\":21739:21743   */\n      dup2\n        /* \"#utility.yul\":21613:21744   */\n      tag_240\n      jump\t// in\n    tag_478:\n        /* \"#utility.yul\":21605:21744   */\n      swap1\n      pop\n        /* \"#utility.yul\":21332:21751   */\n      swap2\n      swap1\n      pop\n      jump\t// out\n        /* \"#utility.yul\":21757:21851   */\n    tag_241:\n        /* \"#utility.yul\":21790:21798   */\n      0x00\n        /* \"#utility.yul\":21838:21843   */\n      dup2\n        /* \"#utility.yul\":21834:21836   */\n      0x60\n        /* \"#utility.yul\":21830:21844   */\n      shl\n        /* \"#utility.yul\":21809:21844   */\n      swap1\n      pop\n        /* \"#utility.yul\":21757:21851   */\n      swap2\n      swap1\n      pop\n      jump\t// out\n        /* \"#utility.yul\":21857:21951   */\n    tag_242:\n        /* \"#utility.yul\":21896:21903   */\n      0x00\n        /* \"#utility.yul\":21925:21945   */\n      tag_481\n        /* \"#utility.yul\":21939:21944   */\n      dup3\n        /* \"#utility.yul\":21925:21945   */\n      tag_241\n      jump\t// in\n    tag_481:\n        /* \"#utility.yul\":21914:21945   */\n      swap1\n      pop\n        /* \"#utility.yul\":21857:21951   */\n      swap2\n      swap1\n      pop\n      jump\t// out\n        /* \"#utility.yul\":21957:22057   */\n    tag_243:\n        /* \"#utility.yul\":21996:22003   */\n      0x00\n        /* \"#utility.yul\":22025:22051   */\n      tag_483\n        /* \"#utility.yul\":22045:22050   */\n      dup3\n        /* \"#utility.yul\":22025:22051   */\n      tag_242\n      jump\t// in\n    tag_483:\n        /* \"#utility.yul\":22014:22051   */\n      swap1\n      pop\n        /* \"#utility.yul\":21957:22057   */\n      swap2\n      swap1\n      pop\n      jump\t// out\n        /* \"#utility.yul\":22063:22220   */\n    tag_244:\n        /* \"#utility.yul\":22168:22213   */\n      tag_485\n        /* \"#utility.yul\":22188:22212   */\n      tag_486\n        /* \"#utility.yul\":22206:22211   */\n      dup3\n        /* \"#utility.yul\":22188:22212   */\n      tag_210\n      jump\t// in\n    tag_486:\n        /* \"#utility.yul\":22168:22213   */\n      tag_243\n      jump\t// in\n    tag_485:\n        /* \"#utility.yul\":22163:22166   */\n      dup3\n        /* \"#utility.yul\":22156:22214   */\n      mstore\n        /* \"#utility.yul\":22063:22220   */\n      pop\n      pop\n      jump\t// out\n        /* \"#utility.yul\":22226:22305   */\n    tag_245:\n        /* \"#utility.yul\":22265:22272   */\n      0x00\n        /* \"#utility.yul\":22294:22299   */\n      dup2\n        /* \"#utility.yul\":22283:22299   */\n      swap1\n      pop\n        /* \"#utility.yul\":22226:22305   */\n      swap2\n      swap1\n      pop\n      jump\t// out\n        /* \"#utility.yul\":22311:22468   */\n    tag_246:\n        /* \"#utility.yul\":22416:22461   */\n      tag_489\n        /* \"#utility.yul\":22436:22460   */\n      tag_490\n        /* \"#utility.yul\":22454:22459   */\n      dup3\n        /* \"#utility.yul\":22436:22460   */\n      tag_187\n      jump\t// in\n    tag_490:\n        /* \"#utility.yul\":22416:22461   */\n      tag_245\n      jump\t// in\n    tag_489:\n        /* \"#utility.yul\":22411:22414   */\n      dup3\n        /* \"#utility.yul\":22404:22462   */\n      mstore\n        /* \"#utility.yul\":22311:22468   */\n      pop\n      pop\n      jump\t// out\n        /* \"#utility.yul\":22474:23153   */\n    tag_87:\n        /* \"#utility.yul\":22670:22673   */\n      0x00\n        /* \"#utility.yul\":22685:22760   */\n      tag_492\n        /* \"#utility.yul\":22756:22759   */\n      dup3\n        /* \"#utility.yul\":22747:22753   */\n      dup8\n        /* \"#utility.yul\":22685:22760   */\n      tag_244\n      jump\t// in\n    tag_492:\n        /* \"#utility.yul\":22785:22787   */\n      0x14\n        /* \"#utility.yul\":22780:22783   */\n      dup3\n        /* \"#utility.yul\":22776:22788   */\n      add\n        /* \"#utility.yul\":22769:22788   */\n      swap2\n      pop\n        /* \"#utility.yul\":22798:22873   */\n      tag_493\n        /* \"#utility.yul\":22869:22872   */\n      dup3\n        /* \"#utility.yul\":22860:22866   */\n      dup7\n        /* \"#utility.yul\":22798:22873   */\n      tag_246\n      jump\t// in\n    tag_493:\n        /* \"#utility.yul\":22898:22900   */\n      0x20\n        /* \"#utility.yul\":22893:22896   */\n      dup3\n        /* \"#utility.yul\":22889:22901   */\n      add\n        /* \"#utility.yul\":22882:22901   */\n      swap2\n      pop\n        /* \"#utility.yul\":22911:22986   */\n      tag_494\n        /* \"#utility.yul\":22982:22985   */\n      dup3\n        /* \"#utility.yul\":22973:22979   */\n      dup6\n        /* \"#utility.yul\":22911:22986   */\n      tag_246\n      jump\t// in\n    tag_494:\n        /* \"#utility.yul\":23011:23013   */\n      0x20\n        /* \"#utility.yul\":23006:23009   */\n      dup3\n        /* \"#utility.yul\":23002:23014   */\n      add\n        /* \"#utility.yul\":22995:23014   */\n      swap2\n      pop\n        /* \"#utility.yul\":23024:23099   */\n      tag_495\n        /* \"#utility.yul\":23095:23098   */\n      dup3\n        /* \"#utility.yul\":23086:23092   */\n      dup5\n        /* \"#utility.yul\":23024:23099   */\n      tag_246\n      jump\t// in\n    tag_495:\n        /* \"#utility.yul\":23124:23126   */\n      0x20\n        /* \"#utility.yul\":23119:23122   */\n      dup3\n        /* \"#utility.yul\":23115:23127   */\n      add\n        /* \"#utility.yul\":23108:23127   */\n      swap2\n      pop\n        /* \"#utility.yul\":23144:23147   */\n      dup2\n        /* \"#utility.yul\":23137:23147   */\n      swap1\n      pop\n        /* \"#utility.yul\":22474:23153   */\n      swap6\n      swap5\n      pop\n      pop\n      pop\n      pop\n      pop\n      jump\t// out\n        /* \"#utility.yul\":23159:23339   */\n    tag_247:\n        /* \"#utility.yul\":23207:23284   */\n      0x4e487b7100000000000000000000000000000000000000000000000000000000\n        /* \"#utility.yul\":23204:23205   */\n      0x00\n        /* \"#utility.yul\":23197:23285   */\n      mstore\n        /* \"#utility.yul\":23304:23308   */\n      0x11\n        /* \"#utility.yul\":23301:23302   */\n      0x04\n        /* \"#utility.yul\":23294:23309   */\n      mstore\n        /* \"#utility.yul\":23328:23332   */\n      0x24\n        /* \"#utility.yul\":23325:23326   */\n      0x00\n        /* \"#utility.yul\":23318:23333   */\n      revert\n        /* \"#utility.yul\":23345:23578   */\n    tag_89:\n        /* \"#utility.yul\":23384:23387   */\n      0x00\n        /* \"#utility.yul\":23407:23431   */\n      tag_498\n        /* \"#utility.yul\":23425:23430   */\n      dup3\n        /* \"#utility.yul\":23407:23431   */\n      tag_187\n      jump\t// in\n    tag_498:\n        /* \"#utility.yul\":23398:23431   */\n      swap2\n      pop\n        /* \"#utility.yul\":23453:23519   */\n      0xffffffffffffffffffffffffffffffffffffffffffffffffffffffffffffffff\n        /* \"#utility.yul\":23446:23451   */\n      dup3\n        /* \"#utility.yul\":23443:23520   */\n      sub\n        /* \"#utility.yul\":23440:23543   */\n      tag_499\n      jumpi\n        /* \"#utility.yul\":23523:23541   */\n      tag_500\n      tag_247\n      jump\t// in\n    tag_500:\n        /* \"#utility.yul\":23440:23543   */\n    tag_499:\n        /* \"#utility.yul\":23570:23571   */\n      0x01\n        /* \"#utility.yul\":23563:23568   */\n      dup3\n        /* \"#utility.yul\":23559:23572   */\n      add\n        /* \"#utility.yul\":23552:23572   */\n      swap1\n      pop\n        /* \"#utility.yul\":23345:23578   */\n      swap2\n      swap1\n      pop\n      jump\t// out\n        /* \"#utility.yul\":23584:23775   */\n    tag_91:\n        /* \"#utility.yul\":23624:23627   */\n      0x00\n        /* \"#utility.yul\":23643:23663   */\n      tag_502\n        /* \"#utility.yul\":23661:23662   */\n      dup3\n        /* \"#utility.yul\":23643:23663   */\n      tag_187\n      jump\t// in\n    tag_502:\n        /* \"#utility.yul\":23638:23663   */\n      swap2\n      pop\n        /* \"#utility.yul\":23677:23697   */\n      tag_503\n        /* \"#utility.yul\":23695:23696   */\n      dup4\n        /* \"#utility.yul\":23677:23697   */\n      tag_187\n      jump\t// in\n    tag_503:\n        /* \"#utility.yul\":23672:23697   */\n      swap3\n      pop\n        /* \"#utility.yul\":23720:23721   */\n      dup3\n        /* \"#utility.yul\":23717:23718   */\n      dup3\n        /* \"#utility.yul\":23713:23722   */\n      add\n        /* \"#utility.yul\":23706:23722   */\n      swap1\n      pop\n        /* \"#utility.yul\":23741:23744   */\n      dup1\n        /* \"#utility.yul\":23738:23739   */\n      dup3\n        /* \"#utility.yul\":23735:23745   */\n      gt\n        /* \"#utility.yul\":23732:23768   */\n      iszero\n      tag_504\n      jumpi\n        /* \"#utility.yul\":23748:23766   */\n      tag_505\n      tag_247\n      jump\t// in\n    tag_505:\n        /* \"#utility.yul\":23732:23768   */\n    tag_504:\n        /* \"#utility.yul\":23584:23775   */\n      swap3\n      swap2\n      pop\n      pop\n      jump\t// out\n        /* \"#utility.yul\":23781:23943   */\n    tag_248:\n        /* \"#utility.yul\":23921:23935   */\n      0x556e617574686f72697a65640000000000000000000000000000000000000000\n        /* \"#utility.yul\":23917:23918   */\n      0x00\n        /* \"#utility.yul\":23909:23915   */\n      dup3\n        /* \"#utility.yul\":23905:23919   */\n      add\n        /* \"#utility.yul\":23898:23936   */\n      mstore\n        /* \"#utility.yul\":23781:23943   */\n      pop\n      jump\t// out\n        /* \"#utility.yul\":23949:24315   */\n    tag_249:\n        /* \"#utility.yul\":24091:24094   */\n      0x00\n        /* \"#utility.yul\":24112:24179   */\n      tag_508\n        /* \"#utility.yul\":24176:24178   */\n      0x0c\n        /* \"#utility.yul\":24171:24174   */\n      dup4\n        /* \"#utility.yul\":24112:24179   */\n      tag_206\n      jump\t// in\n    tag_508:\n        /* \"#utility.yul\":24105:24179   */\n      swap2\n      pop\n        /* \"#utility.yul\":24188:24281   */\n      tag_509\n        /* \"#utility.yul\":24277:24280   */\n      dup3\n        /* \"#utility.yul\":24188:24281   */\n      tag_248\n      jump\t// in\n    tag_509:\n        /* \"#utility.yul\":24306:24308   */\n      0x20\n        /* \"#utility.yul\":24301:24304   */\n      dup3\n        /* \"#utility.yul\":24297:24309   */\n      add\n        /* \"#utility.yul\":24290:24309   */\n      swap1\n      pop\n        /* \"#utility.yul\":23949:24315   */\n      swap2\n      swap1\n      pop\n      jump\t// out\n        /* \"#utility.yul\":24321:24740   */\n    tag_154:\n        /* \"#utility.yul\":24487:24491   */\n      0x00\n        /* \"#utility.yul\":24525:24527   */\n      0x20\n        /* \"#utility.yul\":24514:24523   */\n      dup3\n        /* \"#utility.yul\":24510:24528   */\n      add\n        /* \"#utility.yul\":24502:24528   */\n      swap1\n      pop\n        /* \"#utility.yul\":24574:24583   */\n      dup2\n        /* \"#utility.yul\":24568:24572   */\n      dup2\n        /* \"#utility.yul\":24564:24584   */\n      sub\n        /* \"#utility.yul\":24560:24561   */\n      0x00\n        /* \"#utility.yul\":24549:24558   */\n      dup4\n        /* \"#utility.yul\":24545:24562   */\n      add\n        /* \"#utility.yul\":24538:24585   */\n      mstore\n        /* \"#utility.yul\":24602:24733   */\n      tag_511\n        /* \"#utility.yul\":24728:24732   */\n      dup2\n        /* \"#utility.yul\":24602:24733   */\n      tag_249\n      jump\t// in\n    tag_511:\n        /* \"#utility.yul\":24594:24733   */\n      swap1\n      pop\n        /* \"#utility.yul\":24321:24740   */\n      swap2\n      swap1\n      pop\n      jump\t// out\n        /* \"#utility.yul\":24746:24913   */\n    tag_250:\n        /* \"#utility.yul\":24886:24905   */\n      0x4f72646572206861732065787069726564000000000000000000000000000000\n        /* \"#utility.yul\":24882:24883   */\n      0x00\n        /* \"#utility.yul\":24874:24880   */\n      dup3\n        /* \"#utility.yul\":24870:24884   */\n      add\n        /* \"#utility.yul\":24863:24906   */\n      mstore\n        /* \"#utility.yul\":24746:24913   */\n      pop\n      jump\t// out\n        /* \"#utility.yul\":24919:25285   */\n    tag_251:\n        /* \"#utility.yul\":25061:25064   */\n      0x00\n        /* \"#utility.yul\":25082:25149   */\n      tag_514\n        /* \"#utility.yul\":25146:25148   */\n      0x11\n        /* \"#utility.yul\":25141:25144   */\n      dup4\n        /* \"#utility.yul\":25082:25149   */\n      tag_206\n      jump\t// in\n    tag_514:\n        /* \"#utility.yul\":25075:25149   */\n      swap2\n      pop\n        /* \"#utility.yul\":25158:25251   */\n      tag_515\n        /* \"#utility.yul\":25247:25250   */\n      dup3\n        /* \"#utility.yul\":25158:25251   */\n      tag_250\n      jump\t// in\n    tag_515:\n        /* \"#utility.yul\":25276:25278   */\n      0x20\n        /* \"#utility.yul\":25271:25274   */\n      dup3\n        /* \"#utility.yul\":25267:25279   */\n      add\n        /* \"#utility.yul\":25260:25279   */\n      swap1\n      pop\n        /* \"#utility.yul\":24919:25285   */\n      swap2\n      swap1\n      pop\n      jump\t// out\n        /* \"#utility.yul\":25291:25710   */\n    tag_157:\n        /* \"#utility.yul\":25457:25461   */\n      0x00\n        /* \"#utility.yul\":25495:25497   */\n      0x20\n        /* \"#utility.yul\":25484:25493   */\n      dup3\n        /* \"#utility.yul\":25480:25498   */\n      add\n        /* \"#utility.yul\":25472:25498   */\n      swap1\n      pop\n        /* \"#utility.yul\":25544:25553   */\n      dup2\n        /* \"#utility.yul\":25538:25542   */\n      dup2\n        /* \"#utility.yul\":25534:25554   */\n      sub\n        /* \"#utility.yul\":25530:25531   */\n      0x00\n        /* \"#utility.yul\":25519:25528   */\n      dup4\n        /* \"#utility.yul\":25515:25532   */\n      add\n        /* \"#utility.yul\":25508:25555   */\n      mstore\n        /* \"#utility.yul\":25572:25703   */\n      tag_517\n        /* \"#utility.yul\":25698:25702   */\n      dup2\n        /* \"#utility.yul\":25572:25703   */\n      tag_251\n      jump\t// in\n    tag_517:\n        /* \"#utility.yul\":25564:25703   */\n      swap1\n      pop\n        /* \"#utility.yul\":25291:25710   */\n      swap2\n      swap1\n      pop\n      jump\t// out\n        /* \"#utility.yul\":25716:25891   */\n    tag_252:\n        /* \"#utility.yul\":25856:25883   */\n      0x496e76616c696420737461747573207472616e736974696f6e00000000000000\n        /* \"#utility.yul\":25852:25853   */\n      0x00\n        /* \"#utility.yul\":25844:25850   */\n      dup3\n        /* \"#utility.yul\":25840:25854   */\n      add\n        /* \"#utility.yul\":25833:25884   */\n      mstore\n        /* \"#utility.yul\":25716:25891   */\n      pop\n      jump\t// out\n        /* \"#utility.yul\":25897:26263   */\n    tag_253:\n        /* \"#utility.yul\":26039:26042   */\n      0x00\n        /* \"#utility.yul\":26060:26127   */\n      tag_520\n        /* \"#utility.yul\":26124:26126   */\n      0x19\n        /* \"#utility.yul\":26119:26122   */\n      dup4\n        /* \"#utility.yul\":26060:26127   */\n      tag_206\n      jump\t// in\n    tag_520:\n        /* \"#utility.yul\":26053:26127   */\n      swap2\n      pop\n        /* \"#utility.yul\":26136:26229   */\n      tag_521\n        /* \"#utility.yul\":26225:26228   */\n      dup3\n        /* \"#utility.yul\":26136:26229   */\n      tag_252\n      jump\t// in\n    tag_521:\n        /* \"#utility.yul\":26254:26256   */\n      0x20\n        /* \"#utility.yul\":26249:26252   */\n      dup3\n        /* \"#utility.yul\":26245:26257   */\n      add\n        /* \"#utility.yul\":26238:26257   */\n      swap1\n      pop\n        /* \"#utility.yul\":25897:26263   */\n      swap2\n      swap1\n      pop\n      jump\t// out\n        /* \"#utility.yul\":26269:26688   */\n    tag_161:\n        /* \"#utility.yul\":26435:26439   */\n      0x00\n        /* \"#utility.yul\":26473:26475   */\n      0x20\n        /* \"#utility.yul\":26462:26471   */\n      dup3\n        /* \"#utility.yul\":26458:26476   */\n      add\n        /* \"#utility.yul\":26450:26476   */\n      swap1\n      pop\n        /* \"#utility.yul\":26522:26531   */\n      dup2\n        /* \"#utility.yul\":26516:26520   */\n      dup2\n        /* \"#utility.yul\":26512:26532   */\n      sub\n        /* \"#utility.yul\":26508:26509   */\n      0x00\n        /* \"#utility.yul\":26497:26506   */\n      dup4\n        /* \"#utility.yul\":26493:26510   */\n      add\n        /* \"#utility.yul\":26486:26533   */\n      mstore\n        /* \"#utility.yul\":26550:26681   */\n      tag_523\n        /* \"#utility.yul\":26676:26680   */\n      dup2\n        /* \"#utility.yul\":26550:26681   */\n      tag_253\n      jump\t// in\n    tag_523:\n        /* \"#utility.yul\":26542:26681   */\n      swap1\n      pop\n        /* \"#utility.yul\":26269:26688   */\n      swap2\n      swap1\n      pop\n      jump\t// out\n        /* \"#utility.yul\":26694:26938   */\n    tag_176:\n        /* \"#utility.yul\":26798:26802   */\n      0x00\n        /* \"#utility.yul\":26836:26838   */\n      0x20\n        /* \"#utility.yul\":26825:26834   */\n      dup3\n        /* \"#utility.yul\":26821:26839   */\n      add\n        /* \"#utility.yul\":26813:26839   */\n      swap1\n      pop\n        /* \"#utility.yul\":26849:26931   */\n      tag_525\n        /* \"#utility.yul\":26928:26929   */\n      0x00\n        /* \"#utility.yul\":26917:26926   */\n      dup4\n        /* \"#utility.yul\":26913:26930   */\n      add\n        /* \"#utility.yul\":26904:26910   */\n      dup5\n        /* \"#utility.yul\":26849:26931   */\n      tag_215\n      jump\t// in\n    tag_525:\n        /* \"#utility.yul\":26694:26938   */\n      swap3\n      swap2\n      pop\n      pop\n      jump\t// out\n        /* \"#utility.yul\":26944:27367   */\n    tag_182:\n        /* \"#utility.yul\":27085:27089   */\n      0x00\n        /* \"#utility.yul\":27123:27125   */\n      0x40\n        /* \"#utility.yul\":27112:27121   */\n      dup3\n        /* \"#utility.yul\":27108:27126   */\n      add\n        /* \"#utility.yul\":27100:27126   */\n      swap1\n      pop\n        /* \"#utility.yul\":27136:27207   */\n      tag_527\n        /* \"#utility.yul\":27204:27205   */\n      0x00\n        /* \"#utility.yul\":27193:27202   */\n      dup4\n        /* \"#utility.yul\":27189:27206   */\n      add\n        /* \"#utility.yul\":27180:27186   */\n      dup6\n        /* \"#utility.yul\":27136:27207   */\n      tag_204\n      jump\t// in\n    tag_527:\n        /* \"#utility.yul\":27254:27263   */\n      dup2\n        /* \"#utility.yul\":27248:27252   */\n      dup2\n        /* \"#utility.yul\":27244:27264   */\n      sub\n        /* \"#utility.yul\":27239:27241   */\n      0x20\n        /* \"#utility.yul\":27228:27237   */\n      dup4\n        /* \"#utility.yul\":27224:27242   */\n      add\n        /* \"#utility.yul\":27217:27265   */\n      mstore\n        /* \"#utility.yul\":27282:27360   */\n      tag_528\n        /* \"#utility.yul\":27355:27359   */\n      dup2\n        /* \"#utility.yul\":27346:27352   */\n      dup5\n        /* \"#utility.yul\":27282:27360   */\n      tag_208\n      jump\t// in\n    tag_528:\n        /* \"#utility.yul\":27274:27360   */\n      swap1\n      pop\n        /* \"#utility.yul\":26944:27367   */\n      swap4\n      swap3\n      pop\n      pop\n      pop\n      jump\t// out\n\n    auxdata: 0xa2646970667358221220c6bfcbd480b9d74793bc64c874720af26f7a8ab0571e4e3b009cfd10c9ad739964736f6c634300081e0033\n}\n",
				"bytecode": {
					"linkReferences": {},
					"object": "6080604052348015600e575f5ffd5b50611f838061001c5f395ff3fe608060405260043610610085575f3560e01c8063a30b475f11610058578063a30b475f14610149578063a85c38ef14610189578063aab3196d146101ca578063b15247d9146101f2578063e7bf7dfc1461021a57610085565b806361c18c8a1461008957806379109baa146100b157806379412d28146100cd5780637acc0b2014610109575b5f5ffd5b348015610094575f5ffd5b506100af60048036038101906100aa91906112c2565b610256565b005b6100cb60048036038101906100c6919061132e565b610432565b005b3480156100d8575f5ffd5b506100f360048036038101906100ee919061138f565b6107e5565b60405161010091906113e7565b60405180910390f35b348015610114575f5ffd5b5061012f600480360381019061012a9190611400565b61092f565b6040516101409594939291906114d9565b60405180910390f35b348015610154575f5ffd5b5061016f600480360381019061016a9190611400565b610a21565b6040516101809594939291906114d9565b60405180910390f35b348015610194575f5ffd5b506101af60048036038101906101aa9190611400565b610b05565b6040516101c1969594939291906115a4565b60405180910390f35b3480156101d5575f5ffd5b506101f060048036038101906101eb9190611603565b610b68565b005b3480156101fd575f5ffd5b5061021860048036038101906102139190611641565b610f28565b005b348015610225575f5ffd5b50610240600480360381019061023b9190611400565b611125565b60405161024d919061169b565b60405180910390f35b5f60015f8581526020019081526020015f209050806003015f9054906101000a900473ffffffffffffffffffffffffffffffffffffffff1673ffffffffffffffffffffffffffffffffffffffff163373ffffffffffffffffffffffffffffffffffffffff16146102fb576040517f08c379a00000000000000000000000000000000000000000000000000000000081526004016102f2906116fe565b60405180910390fd5b8281600101908161030c9190611919565b50818160020181905550805f858154811061032a576103296119e8565b5b905f5260205f2090600402015f820154815f0155600182018160010190816103529190611a2a565b5060028201548160020155600382015f9054906101000a900473ffffffffffffffffffffffffffffffffffffffff16816003015f6101000a81548173ffffffffffffffffffffffffffffffffffffffff021916908373ffffffffffffffffffffffffffffffffffffffff1602179055506003820160149054906101000a900460ff168160030160146101000a81548160ff021916908315150217905550905050837ff9b1d9170fbe32752353e00d62e5276b143166c75aa974030dddfac2895601fe8484604051610424929190611b0f565b60405180910390a250505050565b5f60015f8481526020019081526020015f2090508060030160149054906101000a900460ff16610497576040517f08c379a000000000000000000000000000000000000000000000000000000000815260040161048e90611b87565b60405180910390fd5b806002015482146104dd576040517f08c379a00000000000000000000000000000000000000000000000000000000081526004016104d490611bef565b60405180910390fd5b81341461051f576040517f08c379a000000000000000000000000000000000000000000000000000000000815260040161051690611c57565b60405180910390fd5b5f3384600454426040516020016105399493929190611cda565b604051602081830303815290604052805190602001205f1c905060045f81548092919061056590611d54565b91905055505f6040518060c001604052808381526020013373ffffffffffffffffffffffffffffffffffffffff168152602001868152602001428152602001610e10426105b29190611d9b565b8152602001600160058111156105cb576105ca611531565b5b81525090508060025f8481526020019081526020015f205f820151815f01556020820151816001015f6101000a81548173ffffffffffffffffffffffffffffffffffffffff021916908373ffffffffffffffffffffffffffffffffffffffff16021790555060408201518160020155606082015181600301556080820151816004015560a0820151816005015f6101000a81548160ff0219169083600581111561067857610677611531565b5b02179055509050503460035f8481526020019081526020015f20819055505f8360030160146101000a81548160ff021916908315150217905550825f86815481106106c6576106c56119e8565b5b905f5260205f2090600402015f820154815f0155600182018160010190816106ee9190611a2a565b5060028201548160020155600382015f9054906101000a900473ffffffffffffffffffffffffffffffffffffffff16816003015f6101000a81548173ffffffffffffffffffffffffffffffffffffffff021916908373ffffffffffffffffffffffffffffffffffffffff1602179055506003820160149054906101000a900460ff168160030160146101000a81548160ff021916908315150217905550905050843373ffffffffffffffffffffffffffffffffffffffff16837ff7c110a6973307f2bc91245c2c06344ada13add2c1741e83ac5c0bb332bc85d5346040516107d6919061169b565b60405180910390a45050505050565b5f600160058111156107fa576107f9611531565b5b83600581111561080d5761080c611531565b5b0361086f576002600581111561082657610825611531565b5b82600581111561083957610838611531565b5b1480610868575060058081111561085357610852611531565b5b82600581111561086657610865611531565b5b145b9050610929565b6002600581111561088357610882611531565b5b83600581111561089657610895611531565b5b036108ca57600360058111156108af576108ae611531565b5b8260058111156108c2576108c1611531565b5b149050610929565b600360058111156108de576108dd611531565b5b8360058111156108f1576108f0611531565b5b03610925576004600581111561090a57610909611531565b5b82600581111561091d5761091c611531565b5b149050610929565b5f90505b92915050565b5f818154811061093d575f80fd5b905f5260205f2090600402015f91509050805f01549080600101805461096290611749565b80601f016020809104026020016040519081016040528092919081815260200182805461098e90611749565b80156109d95780601f106109b0576101008083540402835291602001916109d9565b820191905f5260205f20905b8154815290600101906020018083116109bc57829003601f168201915b505050505090806002015490806003015f9054906101000a900473ffffffffffffffffffffffffffffffffffffffff16908060030160149054906101000a900460ff16905085565b6001602052805f5260405f205f91509050805f015490806001018054610a4690611749565b80601f0160208091040260200160405190810160405280929190818152602001828054610a7290611749565b8015610abd5780601f10610a9457610100808354040283529160200191610abd565b820191905f5260205f20905b815481529060010190602001808311610aa057829003601f168201915b505050505090806002015490806003015f9054906101000a900473ffffffffffffffffffffffffffffffffffffffff16908060030160149054906101000a900460ff16905085565b6002602052805f5260405f205f91509050805f015490806001015f9054906101000a900473ffffffffffffffffffffffffffffffffffffffff1690806002015490806003015490806004015490806005015f9054906101000a900460ff16905086565b5f60025f8481526020019081526020015f2090505f60015f836002015481526020019081526020015f209050816001015f9054906101000a900473ffffffffffffffffffffffffffffffffffffffff1673ffffffffffffffffffffffffffffffffffffffff163373ffffffffffffffffffffffffffffffffffffffff161480610c3f5750806003015f9054906101000a900473ffffffffffffffffffffffffffffffffffffffff1673ffffffffffffffffffffffffffffffffffffffff163373ffffffffffffffffffffffffffffffffffffffff16145b610c7e576040517f08c379a0000000000000000000000000000000000000000000000000000000008152600401610c7590611e18565b60405180910390fd5b8160040154421115610cc5576040517f08c379a0000000000000000000000000000000000000000000000000000000008152600401610cbc90611e80565b60405180910390fd5b610cdf826005015f9054906101000a900460ff16846107e5565b610d1e576040517f08c379a0000000000000000000000000000000000000000000000000000000008152600401610d1590611ee8565b60405180910390fd5b600580811115610d3157610d30611531565b5b836005811115610d4457610d43611531565b5b03610ebf5760018160030160146101000a81548160ff021916908315150217905550805f836002015481548110610d7e57610d7d6119e8565b5b905f5260205f2090600402015f820154815f015560018201816001019081610da69190611a2a565b5060028201548160020155600382015f9054906101000a900473ffffffffffffffffffffffffffffffffffffffff16816003015f6101000a81548173ffffffffffffffffffffffffffffffffffffffff021916908373ffffffffffffffffffffffffffffffffffffffff1602179055506003820160149054906101000a900460ff168160030160146101000a81548160ff021916908315150217905550905050816001015f9054906101000a900473ffffffffffffffffffffffffffffffffffffffff1673ffffffffffffffffffffffffffffffffffffffff166108fc60035f8781526020019081526020015f205490811502906040515f60405180830381858888f19350505050158015610ebd573d5f5f3e3d5ffd5b505b82826005015f6101000a81548160ff02191690836005811115610ee557610ee4611531565b5b0217905550837fd9a86b644eb5f5b43cc8a700849852481080361c7a4b00ba646d1b46c5585f9584604051610f1a9190611f06565b60405180910390a250505050565b5f5f8054905090505f6040518060a001604052808381526020018581526020018481526020013373ffffffffffffffffffffffffffffffffffffffff1681526020016001151581525090505f81908060018154018082558091505060019003905f5260205f2090600402015f909190919091505f820151815f01556020820151816001019081610fb89190611919565b50604082015181600201556060820151816003015f6101000a81548173ffffffffffffffffffffffffffffffffffffffff021916908373ffffffffffffffffffffffffffffffffffffffff16021790555060808201518160030160146101000a81548160ff02191690831515021790555050508060015f8481526020019081526020015f205f820151815f0155602082015181600101908161105a9190611919565b50604082015181600201556060820151816003015f6101000a81548173ffffffffffffffffffffffffffffffffffffffff021916908373ffffffffffffffffffffffffffffffffffffffff16021790555060808201518160030160146101000a81548160ff0219169083151502179055509050503373ffffffffffffffffffffffffffffffffffffffff16827f2e0b9a93ec6dd1cf6d3bf082b86521a8c58ea0b843ba012e70282e544f85b7308587604051611117929190611f1f565b60405180910390a350505050565b5f60015f8381526020019081526020015f20600201549050919050565b5f604051905090565b5f5ffd5b5f5ffd5b5f819050919050565b61116581611153565b811461116f575f5ffd5b50565b5f813590506111808161115c565b92915050565b5f5ffd5b5f5ffd5b5f601f19601f8301169050919050565b7f4e487b71000000000000000000000000000000000000000000000000000000005f52604160045260245ffd5b6111d48261118e565b810181811067ffffffffffffffff821117156111f3576111f261119e565b5b80604052505050565b5f611205611142565b905061121182826111cb565b919050565b5f67ffffffffffffffff8211156112305761122f61119e565b5b6112398261118e565b9050602081019050919050565b828183375f83830152505050565b5f61126661126184611216565b6111fc565b9050828152602081018484840111156112825761128161118a565b5b61128d848285611246565b509392505050565b5f82601f8301126112a9576112a8611186565b5b81356112b9848260208601611254565b91505092915050565b5f5f5f606084860312156112d9576112d861114b565b5b5f6112e686828701611172565b935050602084013567ffffffffffffffff8111156113075761130661114f565b5b61131386828701611295565b925050604061132486828701611172565b9150509250925092565b5f5f604083850312156113445761134361114b565b5b5f61135185828601611172565b925050602061136285828601611172565b9150509250929050565b60068110611378575f5ffd5b50565b5f813590506113898161136c565b92915050565b5f5f604083850312156113a5576113a461114b565b5b5f6113b28582860161137b565b92505060206113c38582860161137b565b9150509250929050565b5f8115159050919050565b6113e1816113cd565b82525050565b5f6020820190506113fa5f8301846113d8565b92915050565b5f602082840312156114155761141461114b565b5b5f61142284828501611172565b91505092915050565b61143481611153565b82525050565b5f81519050919050565b5f82825260208201905092915050565b8281835e5f83830152505050565b5f61146c8261143a565b6114768185611444565b9350611486818560208601611454565b61148f8161118e565b840191505092915050565b5f73ffffffffffffffffffffffffffffffffffffffff82169050919050565b5f6114c38261149a565b9050919050565b6114d3816114b9565b82525050565b5f60a0820190506114ec5f83018861142b565b81810360208301526114fe8187611462565b905061150d604083018661142b565b61151a60608301856114ca565b61152760808301846113d8565b9695505050505050565b7f4e487b71000000000000000000000000000000000000000000000000000000005f52602160045260245ffd5b6006811061156f5761156e611531565b5b50565b5f81905061157f8261155e565b919050565b5f61158e82611572565b9050919050565b61159e81611584565b82525050565b5f60c0820190506115b75f83018961142b565b6115c460208301886114ca565b6115d1604083018761142b565b6115de606083018661142b565b6115eb608083018561142b565b6115f860a0830184611595565b979650505050505050565b5f5f604083850312156116195761161861114b565b5b5f61162685828601611172565b92505060206116378582860161137b565b9150509250929050565b5f5f604083850312156116575761165661114b565b5b5f83013567ffffffffffffffff8111156116745761167361114f565b5b61168085828601611295565b925050602061169185828601611172565b9150509250929050565b5f6020820190506116ae5f83018461142b565b92915050565b7f4f6e6c792073656c6c65722063616e207570646174652070726f6475637400005f82015250565b5f6116e8601e83611444565b91506116f3826116b4565b602082019050919050565b5f6020820190508181035f830152611715816116dc565b9050919050565b7f4e487b71000000000000000000000000000000000000000000000000000000005f52602260045260245ffd5b5f600282049050600182168061176057607f821691505b6020821081036117735761177261171c565b5b50919050565b5f819050815f5260205f209050919050565b5f6020601f8301049050919050565b5f82821b905092915050565b5f600883026117d57fffffffffffffffffffffffffffffffffffffffffffffffffffffffffffffffff8261179a565b6117df868361179a565b95508019841693508086168417925050509392505050565b5f819050919050565b5f61181a61181561181084611153565b6117f7565b611153565b9050919050565b5f819050919050565b61183383611800565b61184761183f82611821565b8484546117a6565b825550505050565b5f5f905090565b61185e61184f565b61186981848461182a565b505050565b5b8181101561188c576118815f82611856565b60018101905061186f565b5050565b601f8211156118d1576118a281611779565b6118ab8461178b565b810160208510156118ba578190505b6118ce6118c68561178b565b83018261186e565b50505b505050565b5f82821c905092915050565b5f6118f15f19846008026118d6565b1980831691505092915050565b5f61190983836118e2565b9150826002028217905092915050565b6119228261143a565b67ffffffffffffffff81111561193b5761193a61119e565b5b6119458254611749565b611950828285611890565b5f60209050601f831160018114611981575f841561196f578287015190505b61197985826118fe565b8655506119e0565b601f19841661198f86611779565b5f5b828110156119b657848901518255600182019150602085019450602081019050611991565b868310156119d357848901516119cf601f8916826118e2565b8355505b6001600288020188555050505b505050505050565b7f4e487b71000000000000000000000000000000000000000000000000000000005f52603260045260245ffd5b5f81549050611a2381611749565b9050919050565b818103611a38575050611b0d565b611a4182611a15565b67ffffffffffffffff811115611a5a57611a5961119e565b5b611a648254611749565b611a6f828285611890565b5f601f831160018114611a9c575f8415611a8a578287015490505b611a9485826118fe565b865550611b06565b601f198416611aaa87611779565b9650611ab586611779565b5f5b82811015611adc57848901548255600182019150600185019450602081019050611ab7565b86831015611af95784890154611af5601f8916826118e2565b8355505b6001600288020188555050505b5050505050505b565b5f6040820190508181035f830152611b278185611462565b9050611b36602083018461142b565b9392505050565b7f50726f64756374206e6f7420617661696c61626c6500000000000000000000005f82015250565b5f611b71601583611444565b9150611b7c82611b3d565b602082019050919050565b5f6020820190508181035f830152611b9e81611b65565b9050919050565b7f507269636520696e707574206d69736d617463680000000000000000000000005f82015250565b5f611bd9601483611444565b9150611be482611ba5565b602082019050919050565b5f6020820190508181035f830152611c0681611bcd565b9050919050565b7f496e636f7272656374207061796d656e7420616d6f756e7400000000000000005f82015250565b5f611c41601883611444565b9150611c4c82611c0d565b602082019050919050565b5f6020820190508181035f830152611c6e81611c35565b9050919050565b5f8160601b9050919050565b5f611c8b82611c75565b9050919050565b5f611c9c82611c81565b9050919050565b611cb4611caf826114b9565b611c92565b82525050565b5f819050919050565b611cd4611ccf82611153565b611cba565b82525050565b5f611ce58287611ca3565b601482019150611cf58286611cc3565b602082019150611d058285611cc3565b602082019150611d158284611cc3565b60208201915081905095945050505050565b7f4e487b71000000000000000000000000000000000000000000000000000000005f52601160045260245ffd5b5f611d5e82611153565b91507fffffffffffffffffffffffffffffffffffffffffffffffffffffffffffffffff8203611d9057611d8f611d27565b5b600182019050919050565b5f611da582611153565b9150611db083611153565b9250828201905080821115611dc857611dc7611d27565b5b92915050565b7f556e617574686f72697a656400000000000000000000000000000000000000005f82015250565b5f611e02600c83611444565b9150611e0d82611dce565b602082019050919050565b5f6020820190508181035f830152611e2f81611df6565b9050919050565b7f4f726465722068617320657870697265640000000000000000000000000000005f82015250565b5f611e6a601183611444565b9150611e7582611e36565b602082019050919050565b5f6020820190508181035f830152611e9781611e5e565b9050919050565b7f496e76616c696420737461747573207472616e736974696f6e000000000000005f82015250565b5f611ed2601983611444565b9150611edd82611e9e565b602082019050919050565b5f6020820190508181035f830152611eff81611ec6565b9050919050565b5f602082019050611f195f830184611595565b92915050565b5f604082019050611f325f83018561142b565b8181036020830152611f448184611462565b9050939250505056fea2646970667358221220c6bfcbd480b9d74793bc64c874720af26f7a8ab0571e4e3b009cfd10c9ad739964736f6c634300081e0033",
					"opcodes": "PUSH1 0x80 PUSH1 0x40 MSTORE CALLVALUE DUP1 ISZERO PUSH1 0xE JUMPI PUSH0 PUSH0 REVERT JUMPDEST POP PUSH2 0x1F83 DUP1 PUSH2 0x1C PUSH0 CODECOPY PUSH0 RETURN INVALID PUSH1 0x80 PUSH1 0x40 MSTORE PUSH1 0x4 CALLDATASIZE LT PUSH2 0x85 JUMPI PUSH0 CALLDATALOAD PUSH1 0xE0 SHR DUP1 PUSH4 0xA30B475F GT PUSH2 0x58 JUMPI DUP1 PUSH4 0xA30B475F EQ PUSH2 0x149 JUMPI DUP1 PUSH4 0xA85C38EF EQ PUSH2 0x189 JUMPI DUP1 PUSH4 0xAAB3196D EQ PUSH2 0x1CA JUMPI DUP1 PUSH4 0xB15247D9 EQ PUSH2 0x1F2 JUMPI DUP1 PUSH4 0xE7BF7DFC EQ PUSH2 0x21A JUMPI PUSH2 0x85 JUMP JUMPDEST DUP1 PUSH4 0x61C18C8A EQ PUSH2 0x89 JUMPI DUP1 PUSH4 0x79109BAA EQ PUSH2 0xB1 JUMPI DUP1 PUSH4 0x79412D28 EQ PUSH2 0xCD JUMPI DUP1 PUSH4 0x7ACC0B20 EQ PUSH2 0x109 JUMPI JUMPDEST PUSH0 PUSH0 REVERT JUMPDEST CALLVALUE DUP1 ISZERO PUSH2 0x94 JUMPI PUSH0 PUSH0 REVERT JUMPDEST POP PUSH2 0xAF PUSH1 0x4 DUP1 CALLDATASIZE SUB DUP2 ADD SWAP1 PUSH2 0xAA SWAP2 SWAP1 PUSH2 0x12C2 JUMP JUMPDEST PUSH2 0x256 JUMP JUMPDEST STOP JUMPDEST PUSH2 0xCB PUSH1 0x4 DUP1 CALLDATASIZE SUB DUP2 ADD SWAP1 PUSH2 0xC6 SWAP2 SWAP1 PUSH2 0x132E JUMP JUMPDEST PUSH2 0x432 JUMP JUMPDEST STOP JUMPDEST CALLVALUE DUP1 ISZERO PUSH2 0xD8 JUMPI PUSH0 PUSH0 REVERT JUMPDEST POP PUSH2 0xF3 PUSH1 0x4 DUP1 CALLDATASIZE SUB DUP2 ADD SWAP1 PUSH2 0xEE SWAP2 SWAP1 PUSH2 0x138F JUMP JUMPDEST PUSH2 0x7E5 JUMP JUMPDEST PUSH1 0x40 MLOAD PUSH2 0x100 SWAP2 SWAP1 PUSH2 0x13E7 JUMP JUMPDEST PUSH1 0x40 MLOAD DUP1 SWAP2 SUB SWAP1 RETURN JUMPDEST CALLVALUE DUP1 ISZERO PUSH2 0x114 JUMPI PUSH0 PUSH0 REVERT JUMPDEST POP PUSH2 0x12F PUSH1 0x4 DUP1 CALLDATASIZE SUB DUP2 ADD SWAP1 PUSH2 0x12A SWAP2 SWAP1 PUSH2 0x1400 JUMP JUMPDEST PUSH2 0x92F JUMP JUMPDEST PUSH1 0x40 MLOAD PUSH2 0x140 SWAP6 SWAP5 SWAP4 SWAP3 SWAP2 SWAP1 PUSH2 0x14D9 JUMP JUMPDEST PUSH1 0x40 MLOAD DUP1 SWAP2 SUB SWAP1 RETURN JUMPDEST CALLVALUE DUP1 ISZERO PUSH2 0x154 JUMPI PUSH0 PUSH0 REVERT JUMPDEST POP PUSH2 0x16F PUSH1 0x4 DUP1 CALLDATASIZE SUB DUP2 ADD SWAP1 PUSH2 0x16A SWAP2 SWAP1 PUSH2 0x1400 JUMP JUMPDEST PUSH2 0xA21 JUMP JUMPDEST PUSH1 0x40 MLOAD PUSH2 0x180 SWAP6 SWAP5 SWAP4 SWAP3 SWAP2 SWAP1 PUSH2 0x14D9 JUMP JUMPDEST PUSH1 0x40 MLOAD DUP1 SWAP2 SUB SWAP1 RETURN JUMPDEST CALLVALUE DUP1 ISZERO PUSH2 0x194 JUMPI PUSH0 PUSH0 REVERT JUMPDEST POP PUSH2 0x1AF PUSH1 0x4 DUP1 CALLDATASIZE SUB DUP2 ADD SWAP1 PUSH2 0x1AA SWAP2 SWAP1 PUSH2 0x1400 JUMP JUMPDEST PUSH2 0xB05 JUMP JUMPDEST PUSH1 0x40 MLOAD PUSH2 0x1C1 SWAP7 SWAP6 SWAP5 SWAP4 SWAP3 SWAP2 SWAP1 PUSH2 0x15A4 JUMP JUMPDEST PUSH1 0x40 MLOAD DUP1 SWAP2 SUB SWAP1 RETURN JUMPDEST CALLVALUE DUP1 ISZERO PUSH2 0x1D5 JUMPI PUSH0 PUSH0 REVERT JUMPDEST POP PUSH2 0x1F0 PUSH1 0x4 DUP1 CALLDATASIZE SUB DUP2 ADD SWAP1 PUSH2 0x1EB SWAP2 SWAP1 PUSH2 0x1603 JUMP JUMPDEST PUSH2 0xB68 JUMP JUMPDEST STOP JUMPDEST CALLVALUE DUP1 ISZERO PUSH2 0x1FD JUMPI PUSH0 PUSH0 REVERT JUMPDEST POP PUSH2 0x218 PUSH1 0x4 DUP1 CALLDATASIZE SUB DUP2 ADD SWAP1 PUSH2 0x213 SWAP2 SWAP1 PUSH2 0x1641 JUMP JUMPDEST PUSH2 0xF28 JUMP JUMPDEST STOP JUMPDEST CALLVALUE DUP1 ISZERO PUSH2 0x225 JUMPI PUSH0 PUSH0 REVERT JUMPDEST POP PUSH2 0x240 PUSH1 0x4 DUP1 CALLDATASIZE SUB DUP2 ADD SWAP1 PUSH2 0x23B SWAP2 SWAP1 PUSH2 0x1400 JUMP JUMPDEST PUSH2 0x1125 JUMP JUMPDEST PUSH1 0x40 MLOAD PUSH2 0x24D SWAP2 SWAP1 PUSH2 0x169B JUMP JUMPDEST PUSH1 0x40 MLOAD DUP1 SWAP2 SUB SWAP1 RETURN JUMPDEST PUSH0 PUSH1 0x1 PUSH0 DUP6 DUP2 MSTORE PUSH1 0x20 ADD SWAP1 DUP2 MSTORE PUSH1 0x20 ADD PUSH0 KECCAK256 SWAP1 POP DUP1 PUSH1 0x3 ADD PUSH0 SWAP1 SLOAD SWAP1 PUSH2 0x100 EXP SWAP1 DIV PUSH20 0xFFFFFFFFFFFFFFFFFFFFFFFFFFFFFFFFFFFFFFFF AND PUSH20 0xFFFFFFFFFFFFFFFFFFFFFFFFFFFFFFFFFFFFFFFF AND CALLER PUSH20 0xFFFFFFFFFFFFFFFFFFFFFFFFFFFFFFFFFFFFFFFF AND EQ PUSH2 0x2FB JUMPI PUSH1 0x40 MLOAD PUSH32 0x8C379A000000000000000000000000000000000000000000000000000000000 DUP2 MSTORE PUSH1 0x4 ADD PUSH2 0x2F2 SWAP1 PUSH2 0x16FE JUMP JUMPDEST PUSH1 0x40 MLOAD DUP1 SWAP2 SUB SWAP1 REVERT JUMPDEST DUP3 DUP2 PUSH1 0x1 ADD SWAP1 DUP2 PUSH2 0x30C SWAP2 SWAP1 PUSH2 0x1919 JUMP JUMPDEST POP DUP2 DUP2 PUSH1 0x2 ADD DUP2 SWAP1 SSTORE POP DUP1 PUSH0 DUP6 DUP2 SLOAD DUP2 LT PUSH2 0x32A JUMPI PUSH2 0x329 PUSH2 0x19E8 JUMP JUMPDEST JUMPDEST SWAP1 PUSH0 MSTORE PUSH1 0x20 PUSH0 KECCAK256 SWAP1 PUSH1 0x4 MUL ADD PUSH0 DUP3 ADD SLOAD DUP2 PUSH0 ADD SSTORE PUSH1 0x1 DUP3 ADD DUP2 PUSH1 0x1 ADD SWAP1 DUP2 PUSH2 0x352 SWAP2 SWAP1 PUSH2 0x1A2A JUMP JUMPDEST POP PUSH1 0x2 DUP3 ADD SLOAD DUP2 PUSH1 0x2 ADD SSTORE PUSH1 0x3 DUP3 ADD PUSH0 SWAP1 SLOAD SWAP1 PUSH2 0x100 EXP SWAP1 DIV PUSH20 0xFFFFFFFFFFFFFFFFFFFFFFFFFFFFFFFFFFFFFFFF AND DUP2 PUSH1 0x3 ADD PUSH0 PUSH2 0x100 EXP DUP2 SLOAD DUP2 PUSH20 0xFFFFFFFFFFFFFFFFFFFFFFFFFFFFFFFFFFFFFFFF MUL NOT AND SWAP1 DUP4 PUSH20 0xFFFFFFFFFFFFFFFFFFFFFFFFFFFFFFFFFFFFFFFF AND MUL OR SWAP1 SSTORE POP PUSH1 0x3 DUP3 ADD PUSH1 0x14 SWAP1 SLOAD SWAP1 PUSH2 0x100 EXP SWAP1 DIV PUSH1 0xFF AND DUP2 PUSH1 0x3 ADD PUSH1 0x14 PUSH2 0x100 EXP DUP2 SLOAD DUP2 PUSH1 0xFF MUL NOT AND SWAP1 DUP4 ISZERO ISZERO MUL OR SWAP1 SSTORE POP SWAP1 POP POP DUP4 PUSH32 0xF9B1D9170FBE32752353E00D62E5276B143166C75AA974030DDDFAC2895601FE DUP5 DUP5 PUSH1 0x40 MLOAD PUSH2 0x424 SWAP3 SWAP2 SWAP1 PUSH2 0x1B0F JUMP JUMPDEST PUSH1 0x40 MLOAD DUP1 SWAP2 SUB SWAP1 LOG2 POP POP POP POP JUMP JUMPDEST PUSH0 PUSH1 0x1 PUSH0 DUP5 DUP2 MSTORE PUSH1 0x20 ADD SWAP1 DUP2 MSTORE PUSH1 0x20 ADD PUSH0 KECCAK256 SWAP1 POP DUP1 PUSH1 0x3 ADD PUSH1 0x14 SWAP1 SLOAD SWAP1 PUSH2 0x100 EXP SWAP1 DIV PUSH1 0xFF AND PUSH2 0x497 JUMPI PUSH1 0x40 MLOAD PUSH32 0x8C379A000000000000000000000000000000000000000000000000000000000 DUP2 MSTORE PUSH1 0x4 ADD PUSH2 0x48E SWAP1 PUSH2 0x1B87 JUMP JUMPDEST PUSH1 0x40 MLOAD DUP1 SWAP2 SUB SWAP1 REVERT JUMPDEST DUP1 PUSH1 0x2 ADD SLOAD DUP3 EQ PUSH2 0x4DD JUMPI PUSH1 0x40 MLOAD PUSH32 0x8C379A000000000000000000000000000000000000000000000000000000000 DUP2 MSTORE PUSH1 0x4 ADD PUSH2 0x4D4 SWAP1 PUSH2 0x1BEF JUMP JUMPDEST PUSH1 0x40 MLOAD DUP1 SWAP2 SUB SWAP1 REVERT JUMPDEST DUP2 CALLVALUE EQ PUSH2 0x51F JUMPI PUSH1 0x40 MLOAD PUSH32 0x8C379A000000000000000000000000000000000000000000000000000000000 DUP2 MSTORE PUSH1 0x4 ADD PUSH2 0x516 SWAP1 PUSH2 0x1C57 JUMP JUMPDEST PUSH1 0x40 MLOAD DUP1 SWAP2 SUB SWAP1 REVERT JUMPDEST PUSH0 CALLER DUP5 PUSH1 0x4 SLOAD TIMESTAMP PUSH1 0x40 MLOAD PUSH1 0x20 ADD PUSH2 0x539 SWAP5 SWAP4 SWAP3 SWAP2 SWAP1 PUSH2 0x1CDA JUMP JUMPDEST PUSH1 0x40 MLOAD PUSH1 0x20 DUP2 DUP4 SUB SUB DUP2 MSTORE SWAP1 PUSH1 0x40 MSTORE DUP1 MLOAD SWAP1 PUSH1 0x20 ADD KECCAK256 PUSH0 SHR SWAP1 POP PUSH1 0x4 PUSH0 DUP2 SLOAD DUP1 SWAP3 SWAP2 SWAP1 PUSH2 0x565 SWAP1 PUSH2 0x1D54 JUMP JUMPDEST SWAP2 SWAP1 POP SSTORE POP PUSH0 PUSH1 0x40 MLOAD DUP1 PUSH1 0xC0 ADD PUSH1 0x40 MSTORE DUP1 DUP4 DUP2 MSTORE PUSH1 0x20 ADD CALLER PUSH20 0xFFFFFFFFFFFFFFFFFFFFFFFFFFFFFFFFFFFFFFFF AND DUP2 MSTORE PUSH1 0x20 ADD DUP7 DUP2 MSTORE PUSH1 0x20 ADD TIMESTAMP DUP2 MSTORE PUSH1 0x20 ADD PUSH2 0xE10 TIMESTAMP PUSH2 0x5B2 SWAP2 SWAP1 PUSH2 0x1D9B JUMP JUMPDEST DUP2 MSTORE PUSH1 0x20 ADD PUSH1 0x1 PUSH1 0x5 DUP2 GT ISZERO PUSH2 0x5CB JUMPI PUSH2 0x5CA PUSH2 0x1531 JUMP JUMPDEST JUMPDEST DUP2 MSTORE POP SWAP1 POP DUP1 PUSH1 0x2 PUSH0 DUP5 DUP2 MSTORE PUSH1 0x20 ADD SWAP1 DUP2 MSTORE PUSH1 0x20 ADD PUSH0 KECCAK256 PUSH0 DUP3 ADD MLOAD DUP2 PUSH0 ADD SSTORE PUSH1 0x20 DUP3 ADD MLOAD DUP2 PUSH1 0x1 ADD PUSH0 PUSH2 0x100 EXP DUP2 SLOAD DUP2 PUSH20 0xFFFFFFFFFFFFFFFFFFFFFFFFFFFFFFFFFFFFFFFF MUL NOT AND SWAP1 DUP4 PUSH20 0xFFFFFFFFFFFFFFFFFFFFFFFFFFFFFFFFFFFFFFFF AND MUL OR SWAP1 SSTORE POP PUSH1 0x40 DUP3 ADD MLOAD DUP2 PUSH1 0x2 ADD SSTORE PUSH1 0x60 DUP3 ADD MLOAD DUP2 PUSH1 0x3 ADD SSTORE PUSH1 0x80 DUP3 ADD MLOAD DUP2 PUSH1 0x4 ADD SSTORE PUSH1 0xA0 DUP3 ADD MLOAD DUP2 PUSH1 0x5 ADD PUSH0 PUSH2 0x100 EXP DUP2 SLOAD DUP2 PUSH1 0xFF MUL NOT AND SWAP1 DUP4 PUSH1 0x5 DUP2 GT ISZERO PUSH2 0x678 JUMPI PUSH2 0x677 PUSH2 0x1531 JUMP JUMPDEST JUMPDEST MUL OR SWAP1 SSTORE POP SWAP1 POP POP CALLVALUE PUSH1 0x3 PUSH0 DUP5 DUP2 MSTORE PUSH1 0x20 ADD SWAP1 DUP2 MSTORE PUSH1 0x20 ADD PUSH0 KECCAK256 DUP2 SWAP1 SSTORE POP PUSH0 DUP4 PUSH1 0x3 ADD PUSH1 0x14 PUSH2 0x100 EXP DUP2 SLOAD DUP2 PUSH1 0xFF MUL NOT AND SWAP1 DUP4 ISZERO ISZERO MUL OR SWAP1 SSTORE POP DUP3 PUSH0 DUP7 DUP2 SLOAD DUP2 LT PUSH2 0x6C6 JUMPI PUSH2 0x6C5 PUSH2 0x19E8 JUMP JUMPDEST JUMPDEST SWAP1 PUSH0 MSTORE PUSH1 0x20 PUSH0 KECCAK256 SWAP1 PUSH1 0x4 MUL ADD PUSH0 DUP3 ADD SLOAD DUP2 PUSH0 ADD SSTORE PUSH1 0x1 DUP3 ADD DUP2 PUSH1 0x1 ADD SWAP1 DUP2 PUSH2 0x6EE SWAP2 SWAP1 PUSH2 0x1A2A JUMP JUMPDEST POP PUSH1 0x2 DUP3 ADD SLOAD DUP2 PUSH1 0x2 ADD SSTORE PUSH1 0x3 DUP3 ADD PUSH0 SWAP1 SLOAD SWAP1 PUSH2 0x100 EXP SWAP1 DIV PUSH20 0xFFFFFFFFFFFFFFFFFFFFFFFFFFFFFFFFFFFFFFFF AND DUP2 PUSH1 0x3 ADD PUSH0 PUSH2 0x100 EXP DUP2 SLOAD DUP2 PUSH20 0xFFFFFFFFFFFFFFFFFFFFFFFFFFFFFFFFFFFFFFFF MUL NOT AND SWAP1 DUP4 PUSH20 0xFFFFFFFFFFFFFFFFFFFFFFFFFFFFFFFFFFFFFFFF AND MUL OR SWAP1 SSTORE POP PUSH1 0x3 DUP3 ADD PUSH1 0x14 SWAP1 SLOAD SWAP1 PUSH2 0x100 EXP SWAP1 DIV PUSH1 0xFF AND DUP2 PUSH1 0x3 ADD PUSH1 0x14 PUSH2 0x100 EXP DUP2 SLOAD DUP2 PUSH1 0xFF MUL NOT AND SWAP1 DUP4 ISZERO ISZERO MUL OR SWAP1 SSTORE POP SWAP1 POP POP DUP5 CALLER PUSH20 0xFFFFFFFFFFFFFFFFFFFFFFFFFFFFFFFFFFFFFFFF AND DUP4 PUSH32 0xF7C110A6973307F2BC91245C2C06344ADA13ADD2C1741E83AC5C0BB332BC85D5 CALLVALUE PUSH1 0x40 MLOAD PUSH2 0x7D6 SWAP2 SWAP1 PUSH2 0x169B JUMP JUMPDEST PUSH1 0x40 MLOAD DUP1 SWAP2 SUB SWAP1 LOG4 POP POP POP POP POP JUMP JUMPDEST PUSH0 PUSH1 0x1 PUSH1 0x5 DUP2 GT ISZERO PUSH2 0x7FA JUMPI PUSH2 0x7F9 PUSH2 0x1531 JUMP JUMPDEST JUMPDEST DUP4 PUSH1 0x5 DUP2 GT ISZERO PUSH2 0x80D JUMPI PUSH2 0x80C PUSH2 0x1531 JUMP JUMPDEST JUMPDEST SUB PUSH2 0x86F JUMPI PUSH1 0x2 PUSH1 0x5 DUP2 GT ISZERO PUSH2 0x826 JUMPI PUSH2 0x825 PUSH2 0x1531 JUMP JUMPDEST JUMPDEST DUP3 PUSH1 0x5 DUP2 GT ISZERO PUSH2 0x839 JUMPI PUSH2 0x838 PUSH2 0x1531 JUMP JUMPDEST JUMPDEST EQ DUP1 PUSH2 0x868 JUMPI POP PUSH1 0x5 DUP1 DUP2 GT ISZERO PUSH2 0x853 JUMPI PUSH2 0x852 PUSH2 0x1531 JUMP JUMPDEST JUMPDEST DUP3 PUSH1 0x5 DUP2 GT ISZERO PUSH2 0x866 JUMPI PUSH2 0x865 PUSH2 0x1531 JUMP JUMPDEST JUMPDEST EQ JUMPDEST SWAP1 POP PUSH2 0x929 JUMP JUMPDEST PUSH1 0x2 PUSH1 0x5 DUP2 GT ISZERO PUSH2 0x883 JUMPI PUSH2 0x882 PUSH2 0x1531 JUMP JUMPDEST JUMPDEST DUP4 PUSH1 0x5 DUP2 GT ISZERO PUSH2 0x896 JUMPI PUSH2 0x895 PUSH2 0x1531 JUMP JUMPDEST JUMPDEST SUB PUSH2 0x8CA JUMPI PUSH1 0x3 PUSH1 0x5 DUP2 GT ISZERO PUSH2 0x8AF JUMPI PUSH2 0x8AE PUSH2 0x1531 JUMP JUMPDEST JUMPDEST DUP3 PUSH1 0x5 DUP2 GT ISZERO PUSH2 0x8C2 JUMPI PUSH2 0x8C1 PUSH2 0x1531 JUMP JUMPDEST JUMPDEST EQ SWAP1 POP PUSH2 0x929 JUMP JUMPDEST PUSH1 0x3 PUSH1 0x5 DUP2 GT ISZERO PUSH2 0x8DE JUMPI PUSH2 0x8DD PUSH2 0x1531 JUMP JUMPDEST JUMPDEST DUP4 PUSH1 0x5 DUP2 GT ISZERO PUSH2 0x8F1 JUMPI PUSH2 0x8F0 PUSH2 0x1531 JUMP JUMPDEST JUMPDEST SUB PUSH2 0x925 JUMPI PUSH1 0x4 PUSH1 0x5 DUP2 GT ISZERO PUSH2 0x90A JUMPI PUSH2 0x909 PUSH2 0x1531 JUMP JUMPDEST JUMPDEST DUP3 PUSH1 0x5 DUP2 GT ISZERO PUSH2 0x91D JUMPI PUSH2 0x91C PUSH2 0x1531 JUMP JUMPDEST JUMPDEST EQ SWAP1 POP PUSH2 0x929 JUMP JUMPDEST PUSH0 SWAP1 POP JUMPDEST SWAP3 SWAP2 POP POP JUMP JUMPDEST PUSH0 DUP2 DUP2 SLOAD DUP2 LT PUSH2 0x93D JUMPI PUSH0 DUP1 REVERT JUMPDEST SWAP1 PUSH0 MSTORE PUSH1 0x20 PUSH0 KECCAK256 SWAP1 PUSH1 0x4 MUL ADD PUSH0 SWAP2 POP SWAP1 POP DUP1 PUSH0 ADD SLOAD SWAP1 DUP1 PUSH1 0x1 ADD DUP1 SLOAD PUSH2 0x962 SWAP1 PUSH2 0x1749 JUMP JUMPDEST DUP1 PUSH1 0x1F ADD PUSH1 0x20 DUP1 SWAP2 DIV MUL PUSH1 0x20 ADD PUSH1 0x40 MLOAD SWAP1 DUP2 ADD PUSH1 0x40 MSTORE DUP1 SWAP3 SWAP2 SWAP1 DUP2 DUP2 MSTORE PUSH1 0x20 ADD DUP3 DUP1 SLOAD PUSH2 0x98E SWAP1 PUSH2 0x1749 JUMP JUMPDEST DUP1 ISZERO PUSH2 0x9D9 JUMPI DUP1 PUSH1 0x1F LT PUSH2 0x9B0 JUMPI PUSH2 0x100 DUP1 DUP4 SLOAD DIV MUL DUP4 MSTORE SWAP2 PUSH1 0x20 ADD SWAP2 PUSH2 0x9D9 JUMP JUMPDEST DUP3 ADD SWAP2 SWAP1 PUSH0 MSTORE PUSH1 0x20 PUSH0 KECCAK256 SWAP1 JUMPDEST DUP2 SLOAD DUP2 MSTORE SWAP1 PUSH1 0x1 ADD SWAP1 PUSH1 0x20 ADD DUP1 DUP4 GT PUSH2 0x9BC JUMPI DUP3 SWAP1 SUB PUSH1 0x1F AND DUP3 ADD SWAP2 JUMPDEST POP POP POP POP POP SWAP1 DUP1 PUSH1 0x2 ADD SLOAD SWAP1 DUP1 PUSH1 0x3 ADD PUSH0 SWAP1 SLOAD SWAP1 PUSH2 0x100 EXP SWAP1 DIV PUSH20 0xFFFFFFFFFFFFFFFFFFFFFFFFFFFFFFFFFFFFFFFF AND SWAP1 DUP1 PUSH1 0x3 ADD PUSH1 0x14 SWAP1 SLOAD SWAP1 PUSH2 0x100 EXP SWAP1 DIV PUSH1 0xFF AND SWAP1 POP DUP6 JUMP JUMPDEST PUSH1 0x1 PUSH1 0x20 MSTORE DUP1 PUSH0 MSTORE PUSH1 0x40 PUSH0 KECCAK256 PUSH0 SWAP2 POP SWAP1 POP DUP1 PUSH0 ADD SLOAD SWAP1 DUP1 PUSH1 0x1 ADD DUP1 SLOAD PUSH2 0xA46 SWAP1 PUSH2 0x1749 JUMP JUMPDEST DUP1 PUSH1 0x1F ADD PUSH1 0x20 DUP1 SWAP2 DIV MUL PUSH1 0x20 ADD PUSH1 0x40 MLOAD SWAP1 DUP2 ADD PUSH1 0x40 MSTORE DUP1 SWAP3 SWAP2 SWAP1 DUP2 DUP2 MSTORE PUSH1 0x20 ADD DUP3 DUP1 SLOAD PUSH2 0xA72 SWAP1 PUSH2 0x1749 JUMP JUMPDEST DUP1 ISZERO PUSH2 0xABD JUMPI DUP1 PUSH1 0x1F LT PUSH2 0xA94 JUMPI PUSH2 0x100 DUP1 DUP4 SLOAD DIV MUL DUP4 MSTORE SWAP2 PUSH1 0x20 ADD SWAP2 PUSH2 0xABD JUMP JUMPDEST DUP3 ADD SWAP2 SWAP1 PUSH0 MSTORE PUSH1 0x20 PUSH0 KECCAK256 SWAP1 JUMPDEST DUP2 SLOAD DUP2 MSTORE SWAP1 PUSH1 0x1 ADD SWAP1 PUSH1 0x20 ADD DUP1 DUP4 GT PUSH2 0xAA0 JUMPI DUP3 SWAP1 SUB PUSH1 0x1F AND DUP3 ADD SWAP2 JUMPDEST POP POP POP POP POP SWAP1 DUP1 PUSH1 0x2 ADD SLOAD SWAP1 DUP1 PUSH1 0x3 ADD PUSH0 SWAP1 SLOAD SWAP1 PUSH2 0x100 EXP SWAP1 DIV PUSH20 0xFFFFFFFFFFFFFFFFFFFFFFFFFFFFFFFFFFFFFFFF AND SWAP1 DUP1 PUSH1 0x3 ADD PUSH1 0x14 SWAP1 SLOAD SWAP1 PUSH2 0x100 EXP SWAP1 DIV PUSH1 0xFF AND SWAP1 POP DUP6 JUMP JUMPDEST PUSH1 0x2 PUSH1 0x20 MSTORE DUP1 PUSH0 MSTORE PUSH1 0x40 PUSH0 KECCAK256 PUSH0 SWAP2 POP SWAP1 POP DUP1 PUSH0 ADD SLOAD SWAP1 DUP1 PUSH1 0x1 ADD PUSH0 SWAP1 SLOAD SWAP1 PUSH2 0x100 EXP SWAP1 DIV PUSH20 0xFFFFFFFFFFFFFFFFFFFFFFFFFFFFFFFFFFFFFFFF AND SWAP1 DUP1 PUSH1 0x2 ADD SLOAD SWAP1 DUP1 PUSH1 0x3 ADD SLOAD SWAP1 DUP1 PUSH1 0x4 ADD SLOAD SWAP1 DUP1 PUSH1 0x5 ADD PUSH0 SWAP1 SLOAD SWAP1 PUSH2 0x100 EXP SWAP1 DIV PUSH1 0xFF AND SWAP1 POP DUP7 JUMP JUMPDEST PUSH0 PUSH1 0x2 PUSH0 DUP5 DUP2 MSTORE PUSH1 0x20 ADD SWAP1 DUP2 MSTORE PUSH1 0x20 ADD PUSH0 KECCAK256 SWAP1 POP PUSH0 PUSH1 0x1 PUSH0 DUP4 PUSH1 0x2 ADD SLOAD DUP2 MSTORE PUSH1 0x20 ADD SWAP1 DUP2 MSTORE PUSH1 0x20 ADD PUSH0 KECCAK256 SWAP1 POP DUP2 PUSH1 0x1 ADD PUSH0 SWAP1 SLOAD SWAP1 PUSH2 0x100 EXP SWAP1 DIV PUSH20 0xFFFFFFFFFFFFFFFFFFFFFFFFFFFFFFFFFFFFFFFF AND PUSH20 0xFFFFFFFFFFFFFFFFFFFFFFFFFFFFFFFFFFFFFFFF AND CALLER PUSH20 0xFFFFFFFFFFFFFFFFFFFFFFFFFFFFFFFFFFFFFFFF AND EQ DUP1 PUSH2 0xC3F JUMPI POP DUP1 PUSH1 0x3 ADD PUSH0 SWAP1 SLOAD SWAP1 PUSH2 0x100 EXP SWAP1 DIV PUSH20 0xFFFFFFFFFFFFFFFFFFFFFFFFFFFFFFFFFFFFFFFF AND PUSH20 0xFFFFFFFFFFFFFFFFFFFFFFFFFFFFFFFFFFFFFFFF AND CALLER PUSH20 0xFFFFFFFFFFFFFFFFFFFFFFFFFFFFFFFFFFFFFFFF AND EQ JUMPDEST PUSH2 0xC7E JUMPI PUSH1 0x40 MLOAD PUSH32 0x8C379A000000000000000000000000000000000000000000000000000000000 DUP2 MSTORE PUSH1 0x4 ADD PUSH2 0xC75 SWAP1 PUSH2 0x1E18 JUMP JUMPDEST PUSH1 0x40 MLOAD DUP1 SWAP2 SUB SWAP1 REVERT JUMPDEST DUP2 PUSH1 0x4 ADD SLOAD TIMESTAMP GT ISZERO PUSH2 0xCC5 JUMPI PUSH1 0x40 MLOAD PUSH32 0x8C379A000000000000000000000000000000000000000000000000000000000 DUP2 MSTORE PUSH1 0x4 ADD PUSH2 0xCBC SWAP1 PUSH2 0x1E80 JUMP JUMPDEST PUSH1 0x40 MLOAD DUP1 SWAP2 SUB SWAP1 REVERT JUMPDEST PUSH2 0xCDF DUP3 PUSH1 0x5 ADD PUSH0 SWAP1 SLOAD SWAP1 PUSH2 0x100 EXP SWAP1 DIV PUSH1 0xFF AND DUP5 PUSH2 0x7E5 JUMP JUMPDEST PUSH2 0xD1E JUMPI PUSH1 0x40 MLOAD PUSH32 0x8C379A000000000000000000000000000000000000000000000000000000000 DUP2 MSTORE PUSH1 0x4 ADD PUSH2 0xD15 SWAP1 PUSH2 0x1EE8 JUMP JUMPDEST PUSH1 0x40 MLOAD DUP1 SWAP2 SUB SWAP1 REVERT JUMPDEST PUSH1 0x5 DUP1 DUP2 GT ISZERO PUSH2 0xD31 JUMPI PUSH2 0xD30 PUSH2 0x1531 JUMP JUMPDEST JUMPDEST DUP4 PUSH1 0x5 DUP2 GT ISZERO PUSH2 0xD44 JUMPI PUSH2 0xD43 PUSH2 0x1531 JUMP JUMPDEST JUMPDEST SUB PUSH2 0xEBF JUMPI PUSH1 0x1 DUP2 PUSH1 0x3 ADD PUSH1 0x14 PUSH2 0x100 EXP DUP2 SLOAD DUP2 PUSH1 0xFF MUL NOT AND SWAP1 DUP4 ISZERO ISZERO MUL OR SWAP1 SSTORE POP DUP1 PUSH0 DUP4 PUSH1 0x2 ADD SLOAD DUP2 SLOAD DUP2 LT PUSH2 0xD7E JUMPI PUSH2 0xD7D PUSH2 0x19E8 JUMP JUMPDEST JUMPDEST SWAP1 PUSH0 MSTORE PUSH1 0x20 PUSH0 KECCAK256 SWAP1 PUSH1 0x4 MUL ADD PUSH0 DUP3 ADD SLOAD DUP2 PUSH0 ADD SSTORE PUSH1 0x1 DUP3 ADD DUP2 PUSH1 0x1 ADD SWAP1 DUP2 PUSH2 0xDA6 SWAP2 SWAP1 PUSH2 0x1A2A JUMP JUMPDEST POP PUSH1 0x2 DUP3 ADD SLOAD DUP2 PUSH1 0x2 ADD SSTORE PUSH1 0x3 DUP3 ADD PUSH0 SWAP1 SLOAD SWAP1 PUSH2 0x100 EXP SWAP1 DIV PUSH20 0xFFFFFFFFFFFFFFFFFFFFFFFFFFFFFFFFFFFFFFFF AND DUP2 PUSH1 0x3 ADD PUSH0 PUSH2 0x100 EXP DUP2 SLOAD DUP2 PUSH20 0xFFFFFFFFFFFFFFFFFFFFFFFFFFFFFFFFFFFFFFFF MUL NOT AND SWAP1 DUP4 PUSH20 0xFFFFFFFFFFFFFFFFFFFFFFFFFFFFFFFFFFFFFFFF AND MUL OR SWAP1 SSTORE POP PUSH1 0x3 DUP3 ADD PUSH1 0x14 SWAP1 SLOAD SWAP1 PUSH2 0x100 EXP SWAP1 DIV PUSH1 0xFF AND DUP2 PUSH1 0x3 ADD PUSH1 0x14 PUSH2 0x100 EXP DUP2 SLOAD DUP2 PUSH1 0xFF MUL NOT AND SWAP1 DUP4 ISZERO ISZERO MUL OR SWAP1 SSTORE POP SWAP1 POP POP DUP2 PUSH1 0x1 ADD PUSH0 SWAP1 SLOAD SWAP1 PUSH2 0x100 EXP SWAP1 DIV PUSH20 0xFFFFFFFFFFFFFFFFFFFFFFFFFFFFFFFFFFFFFFFF AND PUSH20 0xFFFFFFFFFFFFFFFFFFFFFFFFFFFFFFFFFFFFFFFF AND PUSH2 0x8FC PUSH1 0x3 PUSH0 DUP8 DUP2 MSTORE PUSH1 0x20 ADD SWAP1 DUP2 MSTORE PUSH1 0x20 ADD PUSH0 KECCAK256 SLOAD SWAP1 DUP2 ISZERO MUL SWAP1 PUSH1 0x40 MLOAD PUSH0 PUSH1 0x40 MLOAD DUP1 DUP4 SUB DUP2 DUP6 DUP9 DUP9 CALL SWAP4 POP POP POP POP ISZERO DUP1 ISZERO PUSH2 0xEBD JUMPI RETURNDATASIZE PUSH0 PUSH0 RETURNDATACOPY RETURNDATASIZE PUSH0 REVERT JUMPDEST POP JUMPDEST DUP3 DUP3 PUSH1 0x5 ADD PUSH0 PUSH2 0x100 EXP DUP2 SLOAD DUP2 PUSH1 0xFF MUL NOT AND SWAP1 DUP4 PUSH1 0x5 DUP2 GT ISZERO PUSH2 0xEE5 JUMPI PUSH2 0xEE4 PUSH2 0x1531 JUMP JUMPDEST JUMPDEST MUL OR SWAP1 SSTORE POP DUP4 PUSH32 0xD9A86B644EB5F5B43CC8A700849852481080361C7A4B00BA646D1B46C5585F95 DUP5 PUSH1 0x40 MLOAD PUSH2 0xF1A SWAP2 SWAP1 PUSH2 0x1F06 JUMP JUMPDEST PUSH1 0x40 MLOAD DUP1 SWAP2 SUB SWAP1 LOG2 POP POP POP POP JUMP JUMPDEST PUSH0 PUSH0 DUP1 SLOAD SWAP1 POP SWAP1 POP PUSH0 PUSH1 0x40 MLOAD DUP1 PUSH1 0xA0 ADD PUSH1 0x40 MSTORE DUP1 DUP4 DUP2 MSTORE PUSH1 0x20 ADD DUP6 DUP2 MSTORE PUSH1 0x20 ADD DUP5 DUP2 MSTORE PUSH1 0x20 ADD CALLER PUSH20 0xFFFFFFFFFFFFFFFFFFFFFFFFFFFFFFFFFFFFFFFF AND DUP2 MSTORE PUSH1 0x20 ADD PUSH1 0x1 ISZERO ISZERO DUP2 MSTORE POP SWAP1 POP PUSH0 DUP2 SWAP1 DUP1 PUSH1 0x1 DUP2 SLOAD ADD DUP1 DUP3 SSTORE DUP1 SWAP2 POP POP PUSH1 0x1 SWAP1 SUB SWAP1 PUSH0 MSTORE PUSH1 0x20 PUSH0 KECCAK256 SWAP1 PUSH1 0x4 MUL ADD PUSH0 SWAP1 SWAP2 SWAP1 SWAP2 SWAP1 SWAP2 POP PUSH0 DUP3 ADD MLOAD DUP2 PUSH0 ADD SSTORE PUSH1 0x20 DUP3 ADD MLOAD DUP2 PUSH1 0x1 ADD SWAP1 DUP2 PUSH2 0xFB8 SWAP2 SWAP1 PUSH2 0x1919 JUMP JUMPDEST POP PUSH1 0x40 DUP3 ADD MLOAD DUP2 PUSH1 0x2 ADD SSTORE PUSH1 0x60 DUP3 ADD MLOAD DUP2 PUSH1 0x3 ADD PUSH0 PUSH2 0x100 EXP DUP2 SLOAD DUP2 PUSH20 0xFFFFFFFFFFFFFFFFFFFFFFFFFFFFFFFFFFFFFFFF MUL NOT AND SWAP1 DUP4 PUSH20 0xFFFFFFFFFFFFFFFFFFFFFFFFFFFFFFFFFFFFFFFF AND MUL OR SWAP1 SSTORE POP PUSH1 0x80 DUP3 ADD MLOAD DUP2 PUSH1 0x3 ADD PUSH1 0x14 PUSH2 0x100 EXP DUP2 SLOAD DUP2 PUSH1 0xFF MUL NOT AND SWAP1 DUP4 ISZERO ISZERO MUL OR SWAP1 SSTORE POP POP POP DUP1 PUSH1 0x1 PUSH0 DUP5 DUP2 MSTORE PUSH1 0x20 ADD SWAP1 DUP2 MSTORE PUSH1 0x20 ADD PUSH0 KECCAK256 PUSH0 DUP3 ADD MLOAD DUP2 PUSH0 ADD SSTORE PUSH1 0x20 DUP3 ADD MLOAD DUP2 PUSH1 0x1 ADD SWAP1 DUP2 PUSH2 0x105A SWAP2 SWAP1 PUSH2 0x1919 JUMP JUMPDEST POP PUSH1 0x40 DUP3 ADD MLOAD DUP2 PUSH1 0x2 ADD SSTORE PUSH1 0x60 DUP3 ADD MLOAD DUP2 PUSH1 0x3 ADD PUSH0 PUSH2 0x100 EXP DUP2 SLOAD DUP2 PUSH20 0xFFFFFFFFFFFFFFFFFFFFFFFFFFFFFFFFFFFFFFFF MUL NOT AND SWAP1 DUP4 PUSH20 0xFFFFFFFFFFFFFFFFFFFFFFFFFFFFFFFFFFFFFFFF AND MUL OR SWAP1 SSTORE POP PUSH1 0x80 DUP3 ADD MLOAD DUP2 PUSH1 0x3 ADD PUSH1 0x14 PUSH2 0x100 EXP DUP2 SLOAD DUP2 PUSH1 0xFF MUL NOT AND SWAP1 DUP4 ISZERO ISZERO MUL OR SWAP1 SSTORE POP SWAP1 POP POP CALLER PUSH20 0xFFFFFFFFFFFFFFFFFFFFFFFFFFFFFFFFFFFFFFFF AND DUP3 PUSH32 0x2E0B9A93EC6DD1CF6D3BF082B86521A8C58EA0B843BA012E70282E544F85B730 DUP6 DUP8 PUSH1 0x40 MLOAD PUSH2 0x1117 SWAP3 SWAP2 SWAP1 PUSH2 0x1F1F JUMP JUMPDEST PUSH1 0x40 MLOAD DUP1 SWAP2 SUB SWAP1 LOG3 POP POP POP POP JUMP JUMPDEST PUSH0 PUSH1 0x1 PUSH0 DUP4 DUP2 MSTORE PUSH1 0x20 ADD SWAP1 DUP2 MSTORE PUSH1 0x20 ADD PUSH0 KECCAK256 PUSH1 0x2 ADD SLOAD SWAP1 POP SWAP2 SWAP1 POP JUMP JUMPDEST PUSH0 PUSH1 0x40 MLOAD SWAP1 POP SWAP1 JUMP JUMPDEST PUSH0 PUSH0 REVERT JUMPDEST PUSH0 PUSH0 REVERT JUMPDEST PUSH0 DUP2 SWAP1 POP SWAP2 SWAP1 POP JUMP JUMPDEST PUSH2 0x1165 DUP2 PUSH2 0x1153 JUMP JUMPDEST DUP2 EQ PUSH2 0x116F JUMPI PUSH0 PUSH0 REVERT JUMPDEST POP JUMP JUMPDEST PUSH0 DUP2 CALLDATALOAD SWAP1 POP PUSH2 0x1180 DUP2 PUSH2 0x115C JUMP JUMPDEST SWAP3 SWAP2 POP POP JUMP JUMPDEST PUSH0 PUSH0 REVERT JUMPDEST PUSH0 PUSH0 REVERT JUMPDEST PUSH0 PUSH1 0x1F NOT PUSH1 0x1F DUP4 ADD AND SWAP1 POP SWAP2 SWAP1 POP JUMP JUMPDEST PUSH32 0x4E487B7100000000000000000000000000000000000000000000000000000000 PUSH0 MSTORE PUSH1 0x41 PUSH1 0x4 MSTORE PUSH1 0x24 PUSH0 REVERT JUMPDEST PUSH2 0x11D4 DUP3 PUSH2 0x118E JUMP JUMPDEST DUP2 ADD DUP2 DUP2 LT PUSH8 0xFFFFFFFFFFFFFFFF DUP3 GT OR ISZERO PUSH2 0x11F3 JUMPI PUSH2 0x11F2 PUSH2 0x119E JUMP JUMPDEST JUMPDEST DUP1 PUSH1 0x40 MSTORE POP POP POP JUMP JUMPDEST PUSH0 PUSH2 0x1205 PUSH2 0x1142 JUMP JUMPDEST SWAP1 POP PUSH2 0x1211 DUP3 DUP3 PUSH2 0x11CB JUMP JUMPDEST SWAP2 SWAP1 POP JUMP JUMPDEST PUSH0 PUSH8 0xFFFFFFFFFFFFFFFF DUP3 GT ISZERO PUSH2 0x1230 JUMPI PUSH2 0x122F PUSH2 0x119E JUMP JUMPDEST JUMPDEST PUSH2 0x1239 DUP3 PUSH2 0x118E JUMP JUMPDEST SWAP1 POP PUSH1 0x20 DUP2 ADD SWAP1 POP SWAP2 SWAP1 POP JUMP JUMPDEST DUP3 DUP2 DUP4 CALLDATACOPY PUSH0 DUP4 DUP4 ADD MSTORE POP POP POP JUMP JUMPDEST PUSH0 PUSH2 0x1266 PUSH2 0x1261 DUP5 PUSH2 0x1216 JUMP JUMPDEST PUSH2 0x11FC JUMP JUMPDEST SWAP1 POP DUP3 DUP2 MSTORE PUSH1 0x20 DUP2 ADD DUP5 DUP5 DUP5 ADD GT ISZERO PUSH2 0x1282 JUMPI PUSH2 0x1281 PUSH2 0x118A JUMP JUMPDEST JUMPDEST PUSH2 0x128D DUP5 DUP3 DUP6 PUSH2 0x1246 JUMP JUMPDEST POP SWAP4 SWAP3 POP POP POP JUMP JUMPDEST PUSH0 DUP3 PUSH1 0x1F DUP4 ADD SLT PUSH2 0x12A9 JUMPI PUSH2 0x12A8 PUSH2 0x1186 JUMP JUMPDEST JUMPDEST DUP2 CALLDATALOAD PUSH2 0x12B9 DUP5 DUP3 PUSH1 0x20 DUP7 ADD PUSH2 0x1254 JUMP JUMPDEST SWAP2 POP POP SWAP3 SWAP2 POP POP JUMP JUMPDEST PUSH0 PUSH0 PUSH0 PUSH1 0x60 DUP5 DUP7 SUB SLT ISZERO PUSH2 0x12D9 JUMPI PUSH2 0x12D8 PUSH2 0x114B JUMP JUMPDEST JUMPDEST PUSH0 PUSH2 0x12E6 DUP7 DUP3 DUP8 ADD PUSH2 0x1172 JUMP JUMPDEST SWAP4 POP POP PUSH1 0x20 DUP5 ADD CALLDATALOAD PUSH8 0xFFFFFFFFFFFFFFFF DUP2 GT ISZERO PUSH2 0x1307 JUMPI PUSH2 0x1306 PUSH2 0x114F JUMP JUMPDEST JUMPDEST PUSH2 0x1313 DUP7 DUP3 DUP8 ADD PUSH2 0x1295 JUMP JUMPDEST SWAP3 POP POP PUSH1 0x40 PUSH2 0x1324 DUP7 DUP3 DUP8 ADD PUSH2 0x1172 JUMP JUMPDEST SWAP2 POP POP SWAP3 POP SWAP3 POP SWAP3 JUMP JUMPDEST PUSH0 PUSH0 PUSH1 0x40 DUP4 DUP6 SUB SLT ISZERO PUSH2 0x1344 JUMPI PUSH2 0x1343 PUSH2 0x114B JUMP JUMPDEST JUMPDEST PUSH0 PUSH2 0x1351 DUP6 DUP3 DUP7 ADD PUSH2 0x1172 JUMP JUMPDEST SWAP3 POP POP PUSH1 0x20 PUSH2 0x1362 DUP6 DUP3 DUP7 ADD PUSH2 0x1172 JUMP JUMPDEST SWAP2 POP POP SWAP3 POP SWAP3 SWAP1 POP JUMP JUMPDEST PUSH1 0x6 DUP2 LT PUSH2 0x1378 JUMPI PUSH0 PUSH0 REVERT JUMPDEST POP JUMP JUMPDEST PUSH0 DUP2 CALLDATALOAD SWAP1 POP PUSH2 0x1389 DUP2 PUSH2 0x136C JUMP JUMPDEST SWAP3 SWAP2 POP POP JUMP JUMPDEST PUSH0 PUSH0 PUSH1 0x40 DUP4 DUP6 SUB SLT ISZERO PUSH2 0x13A5 JUMPI PUSH2 0x13A4 PUSH2 0x114B JUMP JUMPDEST JUMPDEST PUSH0 PUSH2 0x13B2 DUP6 DUP3 DUP7 ADD PUSH2 0x137B JUMP JUMPDEST SWAP3 POP POP PUSH1 0x20 PUSH2 0x13C3 DUP6 DUP3 DUP7 ADD PUSH2 0x137B JUMP JUMPDEST SWAP2 POP POP SWAP3 POP SWAP3 SWAP1 POP JUMP JUMPDEST PUSH0 DUP2 ISZERO ISZERO SWAP1 POP SWAP2 SWAP1 POP JUMP JUMPDEST PUSH2 0x13E1 DUP2 PUSH2 0x13CD JUMP JUMPDEST DUP3 MSTORE POP POP JUMP JUMPDEST PUSH0 PUSH1 0x20 DUP3 ADD SWAP1 POP PUSH2 0x13FA PUSH0 DUP4 ADD DUP5 PUSH2 0x13D8 JUMP JUMPDEST SWAP3 SWAP2 POP POP JUMP JUMPDEST PUSH0 PUSH1 0x20 DUP3 DUP5 SUB SLT ISZERO PUSH2 0x1415 JUMPI PUSH2 0x1414 PUSH2 0x114B JUMP JUMPDEST JUMPDEST PUSH0 PUSH2 0x1422 DUP5 DUP3 DUP6 ADD PUSH2 0x1172 JUMP JUMPDEST SWAP2 POP POP SWAP3 SWAP2 POP POP JUMP JUMPDEST PUSH2 0x1434 DUP2 PUSH2 0x1153 JUMP JUMPDEST DUP3 MSTORE POP POP JUMP JUMPDEST PUSH0 DUP2 MLOAD SWAP1 POP SWAP2 SWAP1 POP JUMP JUMPDEST PUSH0 DUP3 DUP3 MSTORE PUSH1 0x20 DUP3 ADD SWAP1 POP SWAP3 SWAP2 POP POP JUMP JUMPDEST DUP3 DUP2 DUP4 MCOPY PUSH0 DUP4 DUP4 ADD MSTORE POP POP POP JUMP JUMPDEST PUSH0 PUSH2 0x146C DUP3 PUSH2 0x143A JUMP JUMPDEST PUSH2 0x1476 DUP2 DUP6 PUSH2 0x1444 JUMP JUMPDEST SWAP4 POP PUSH2 0x1486 DUP2 DUP6 PUSH1 0x20 DUP7 ADD PUSH2 0x1454 JUMP JUMPDEST PUSH2 0x148F DUP2 PUSH2 0x118E JUMP JUMPDEST DUP5 ADD SWAP2 POP POP SWAP3 SWAP2 POP POP JUMP JUMPDEST PUSH0 PUSH20 0xFFFFFFFFFFFFFFFFFFFFFFFFFFFFFFFFFFFFFFFF DUP3 AND SWAP1 POP SWAP2 SWAP1 POP JUMP JUMPDEST PUSH0 PUSH2 0x14C3 DUP3 PUSH2 0x149A JUMP JUMPDEST SWAP1 POP SWAP2 SWAP1 POP JUMP JUMPDEST PUSH2 0x14D3 DUP2 PUSH2 0x14B9 JUMP JUMPDEST DUP3 MSTORE POP POP JUMP JUMPDEST PUSH0 PUSH1 0xA0 DUP3 ADD SWAP1 POP PUSH2 0x14EC PUSH0 DUP4 ADD DUP9 PUSH2 0x142B JUMP JUMPDEST DUP2 DUP2 SUB PUSH1 0x20 DUP4 ADD MSTORE PUSH2 0x14FE DUP2 DUP8 PUSH2 0x1462 JUMP JUMPDEST SWAP1 POP PUSH2 0x150D PUSH1 0x40 DUP4 ADD DUP7 PUSH2 0x142B JUMP JUMPDEST PUSH2 0x151A PUSH1 0x60 DUP4 ADD DUP6 PUSH2 0x14CA JUMP JUMPDEST PUSH2 0x1527 PUSH1 0x80 DUP4 ADD DUP5 PUSH2 0x13D8 JUMP JUMPDEST SWAP7 SWAP6 POP POP POP POP POP POP JUMP JUMPDEST PUSH32 0x4E487B7100000000000000000000000000000000000000000000000000000000 PUSH0 MSTORE PUSH1 0x21 PUSH1 0x4 MSTORE PUSH1 0x24 PUSH0 REVERT JUMPDEST PUSH1 0x6 DUP2 LT PUSH2 0x156F JUMPI PUSH2 0x156E PUSH2 0x1531 JUMP JUMPDEST JUMPDEST POP JUMP JUMPDEST PUSH0 DUP2 SWAP1 POP PUSH2 0x157F DUP3 PUSH2 0x155E JUMP JUMPDEST SWAP2 SWAP1 POP JUMP JUMPDEST PUSH0 PUSH2 0x158E DUP3 PUSH2 0x1572 JUMP JUMPDEST SWAP1 POP SWAP2 SWAP1 POP JUMP JUMPDEST PUSH2 0x159E DUP2 PUSH2 0x1584 JUMP JUMPDEST DUP3 MSTORE POP POP JUMP JUMPDEST PUSH0 PUSH1 0xC0 DUP3 ADD SWAP1 POP PUSH2 0x15B7 PUSH0 DUP4 ADD DUP10 PUSH2 0x142B JUMP JUMPDEST PUSH2 0x15C4 PUSH1 0x20 DUP4 ADD DUP9 PUSH2 0x14CA JUMP JUMPDEST PUSH2 0x15D1 PUSH1 0x40 DUP4 ADD DUP8 PUSH2 0x142B JUMP JUMPDEST PUSH2 0x15DE PUSH1 0x60 DUP4 ADD DUP7 PUSH2 0x142B JUMP JUMPDEST PUSH2 0x15EB PUSH1 0x80 DUP4 ADD DUP6 PUSH2 0x142B JUMP JUMPDEST PUSH2 0x15F8 PUSH1 0xA0 DUP4 ADD DUP5 PUSH2 0x1595 JUMP JUMPDEST SWAP8 SWAP7 POP POP POP POP POP POP POP JUMP JUMPDEST PUSH0 PUSH0 PUSH1 0x40 DUP4 DUP6 SUB SLT ISZERO PUSH2 0x1619 JUMPI PUSH2 0x1618 PUSH2 0x114B JUMP JUMPDEST JUMPDEST PUSH0 PUSH2 0x1626 DUP6 DUP3 DUP7 ADD PUSH2 0x1172 JUMP JUMPDEST SWAP3 POP POP PUSH1 0x20 PUSH2 0x1637 DUP6 DUP3 DUP7 ADD PUSH2 0x137B JUMP JUMPDEST SWAP2 POP POP SWAP3 POP SWAP3 SWAP1 POP JUMP JUMPDEST PUSH0 PUSH0 PUSH1 0x40 DUP4 DUP6 SUB SLT ISZERO PUSH2 0x1657 JUMPI PUSH2 0x1656 PUSH2 0x114B JUMP JUMPDEST JUMPDEST PUSH0 DUP4 ADD CALLDATALOAD PUSH8 0xFFFFFFFFFFFFFFFF DUP2 GT ISZERO PUSH2 0x1674 JUMPI PUSH2 0x1673 PUSH2 0x114F JUMP JUMPDEST JUMPDEST PUSH2 0x1680 DUP6 DUP3 DUP7 ADD PUSH2 0x1295 JUMP JUMPDEST SWAP3 POP POP PUSH1 0x20 PUSH2 0x1691 DUP6 DUP3 DUP7 ADD PUSH2 0x1172 JUMP JUMPDEST SWAP2 POP POP SWAP3 POP SWAP3 SWAP1 POP JUMP JUMPDEST PUSH0 PUSH1 0x20 DUP3 ADD SWAP1 POP PUSH2 0x16AE PUSH0 DUP4 ADD DUP5 PUSH2 0x142B JUMP JUMPDEST SWAP3 SWAP2 POP POP JUMP JUMPDEST PUSH32 0x4F6E6C792073656C6C65722063616E207570646174652070726F647563740000 PUSH0 DUP3 ADD MSTORE POP JUMP JUMPDEST PUSH0 PUSH2 0x16E8 PUSH1 0x1E DUP4 PUSH2 0x1444 JUMP JUMPDEST SWAP2 POP PUSH2 0x16F3 DUP3 PUSH2 0x16B4 JUMP JUMPDEST PUSH1 0x20 DUP3 ADD SWAP1 POP SWAP2 SWAP1 POP JUMP JUMPDEST PUSH0 PUSH1 0x20 DUP3 ADD SWAP1 POP DUP2 DUP2 SUB PUSH0 DUP4 ADD MSTORE PUSH2 0x1715 DUP2 PUSH2 0x16DC JUMP JUMPDEST SWAP1 POP SWAP2 SWAP1 POP JUMP JUMPDEST PUSH32 0x4E487B7100000000000000000000000000000000000000000000000000000000 PUSH0 MSTORE PUSH1 0x22 PUSH1 0x4 MSTORE PUSH1 0x24 PUSH0 REVERT JUMPDEST PUSH0 PUSH1 0x2 DUP3 DIV SWAP1 POP PUSH1 0x1 DUP3 AND DUP1 PUSH2 0x1760 JUMPI PUSH1 0x7F DUP3 AND SWAP2 POP JUMPDEST PUSH1 0x20 DUP3 LT DUP2 SUB PUSH2 0x1773 JUMPI PUSH2 0x1772 PUSH2 0x171C JUMP JUMPDEST JUMPDEST POP SWAP2 SWAP1 POP JUMP JUMPDEST PUSH0 DUP2 SWAP1 POP DUP2 PUSH0 MSTORE PUSH1 0x20 PUSH0 KECCAK256 SWAP1 POP SWAP2 SWAP1 POP JUMP JUMPDEST PUSH0 PUSH1 0x20 PUSH1 0x1F DUP4 ADD DIV SWAP1 POP SWAP2 SWAP1 POP JUMP JUMPDEST PUSH0 DUP3 DUP3 SHL SWAP1 POP SWAP3 SWAP2 POP POP JUMP JUMPDEST PUSH0 PUSH1 0x8 DUP4 MUL PUSH2 0x17D5 PUSH32 0xFFFFFFFFFFFFFFFFFFFFFFFFFFFFFFFFFFFFFFFFFFFFFFFFFFFFFFFFFFFFFFFF DUP3 PUSH2 0x179A JUMP JUMPDEST PUSH2 0x17DF DUP7 DUP4 PUSH2 0x179A JUMP JUMPDEST SWAP6 POP DUP1 NOT DUP5 AND SWAP4 POP DUP1 DUP7 AND DUP5 OR SWAP3 POP POP POP SWAP4 SWAP3 POP POP POP JUMP JUMPDEST PUSH0 DUP2 SWAP1 POP SWAP2 SWAP1 POP JUMP JUMPDEST PUSH0 PUSH2 0x181A PUSH2 0x1815 PUSH2 0x1810 DUP5 PUSH2 0x1153 JUMP JUMPDEST PUSH2 0x17F7 JUMP JUMPDEST PUSH2 0x1153 JUMP JUMPDEST SWAP1 POP SWAP2 SWAP1 POP JUMP JUMPDEST PUSH0 DUP2 SWAP1 POP SWAP2 SWAP1 POP JUMP JUMPDEST PUSH2 0x1833 DUP4 PUSH2 0x1800 JUMP JUMPDEST PUSH2 0x1847 PUSH2 0x183F DUP3 PUSH2 0x1821 JUMP JUMPDEST DUP5 DUP5 SLOAD PUSH2 0x17A6 JUMP JUMPDEST DUP3 SSTORE POP POP POP POP JUMP JUMPDEST PUSH0 PUSH0 SWAP1 POP SWAP1 JUMP JUMPDEST PUSH2 0x185E PUSH2 0x184F JUMP JUMPDEST PUSH2 0x1869 DUP2 DUP5 DUP5 PUSH2 0x182A JUMP JUMPDEST POP POP POP JUMP JUMPDEST JUMPDEST DUP2 DUP2 LT ISZERO PUSH2 0x188C JUMPI PUSH2 0x1881 PUSH0 DUP3 PUSH2 0x1856 JUMP JUMPDEST PUSH1 0x1 DUP2 ADD SWAP1 POP PUSH2 0x186F JUMP JUMPDEST POP POP JUMP JUMPDEST PUSH1 0x1F DUP3 GT ISZERO PUSH2 0x18D1 JUMPI PUSH2 0x18A2 DUP2 PUSH2 0x1779 JUMP JUMPDEST PUSH2 0x18AB DUP5 PUSH2 0x178B JUMP JUMPDEST DUP2 ADD PUSH1 0x20 DUP6 LT ISZERO PUSH2 0x18BA JUMPI DUP2 SWAP1 POP JUMPDEST PUSH2 0x18CE PUSH2 0x18C6 DUP6 PUSH2 0x178B JUMP JUMPDEST DUP4 ADD DUP3 PUSH2 0x186E JUMP JUMPDEST POP POP JUMPDEST POP POP POP JUMP JUMPDEST PUSH0 DUP3 DUP3 SHR SWAP1 POP SWAP3 SWAP2 POP POP JUMP JUMPDEST PUSH0 PUSH2 0x18F1 PUSH0 NOT DUP5 PUSH1 0x8 MUL PUSH2 0x18D6 JUMP JUMPDEST NOT DUP1 DUP4 AND SWAP2 POP POP SWAP3 SWAP2 POP POP JUMP JUMPDEST PUSH0 PUSH2 0x1909 DUP4 DUP4 PUSH2 0x18E2 JUMP JUMPDEST SWAP2 POP DUP3 PUSH1 0x2 MUL DUP3 OR SWAP1 POP SWAP3 SWAP2 POP POP JUMP JUMPDEST PUSH2 0x1922 DUP3 PUSH2 0x143A JUMP JUMPDEST PUSH8 0xFFFFFFFFFFFFFFFF DUP2 GT ISZERO PUSH2 0x193B JUMPI PUSH2 0x193A PUSH2 0x119E JUMP JUMPDEST JUMPDEST PUSH2 0x1945 DUP3 SLOAD PUSH2 0x1749 JUMP JUMPDEST PUSH2 0x1950 DUP3 DUP3 DUP6 PUSH2 0x1890 JUMP JUMPDEST PUSH0 PUSH1 0x20 SWAP1 POP PUSH1 0x1F DUP4 GT PUSH1 0x1 DUP2 EQ PUSH2 0x1981 JUMPI PUSH0 DUP5 ISZERO PUSH2 0x196F JUMPI DUP3 DUP8 ADD MLOAD SWAP1 POP JUMPDEST PUSH2 0x1979 DUP6 DUP3 PUSH2 0x18FE JUMP JUMPDEST DUP7 SSTORE POP PUSH2 0x19E0 JUMP JUMPDEST PUSH1 0x1F NOT DUP5 AND PUSH2 0x198F DUP7 PUSH2 0x1779 JUMP JUMPDEST PUSH0 JUMPDEST DUP3 DUP2 LT ISZERO PUSH2 0x19B6 JUMPI DUP5 DUP10 ADD MLOAD DUP3 SSTORE PUSH1 0x1 DUP3 ADD SWAP2 POP PUSH1 0x20 DUP6 ADD SWAP5 POP PUSH1 0x20 DUP2 ADD SWAP1 POP PUSH2 0x1991 JUMP JUMPDEST DUP7 DUP4 LT ISZERO PUSH2 0x19D3 JUMPI DUP5 DUP10 ADD MLOAD PUSH2 0x19CF PUSH1 0x1F DUP10 AND DUP3 PUSH2 0x18E2 JUMP JUMPDEST DUP4 SSTORE POP JUMPDEST PUSH1 0x1 PUSH1 0x2 DUP9 MUL ADD DUP9 SSTORE POP POP POP JUMPDEST POP POP POP POP POP POP JUMP JUMPDEST PUSH32 0x4E487B7100000000000000000000000000000000000000000000000000000000 PUSH0 MSTORE PUSH1 0x32 PUSH1 0x4 MSTORE PUSH1 0x24 PUSH0 REVERT JUMPDEST PUSH0 DUP2 SLOAD SWAP1 POP PUSH2 0x1A23 DUP2 PUSH2 0x1749 JUMP JUMPDEST SWAP1 POP SWAP2 SWAP1 POP JUMP JUMPDEST DUP2 DUP2 SUB PUSH2 0x1A38 JUMPI POP POP PUSH2 0x1B0D JUMP JUMPDEST PUSH2 0x1A41 DUP3 PUSH2 0x1A15 JUMP JUMPDEST PUSH8 0xFFFFFFFFFFFFFFFF DUP2 GT ISZERO PUSH2 0x1A5A JUMPI PUSH2 0x1A59 PUSH2 0x119E JUMP JUMPDEST JUMPDEST PUSH2 0x1A64 DUP3 SLOAD PUSH2 0x1749 JUMP JUMPDEST PUSH2 0x1A6F DUP3 DUP3 DUP6 PUSH2 0x1890 JUMP JUMPDEST PUSH0 PUSH1 0x1F DUP4 GT PUSH1 0x1 DUP2 EQ PUSH2 0x1A9C JUMPI PUSH0 DUP5 ISZERO PUSH2 0x1A8A JUMPI DUP3 DUP8 ADD SLOAD SWAP1 POP JUMPDEST PUSH2 0x1A94 DUP6 DUP3 PUSH2 0x18FE JUMP JUMPDEST DUP7 SSTORE POP PUSH2 0x1B06 JUMP JUMPDEST PUSH1 0x1F NOT DUP5 AND PUSH2 0x1AAA DUP8 PUSH2 0x1779 JUMP JUMPDEST SWAP7 POP PUSH2 0x1AB5 DUP7 PUSH2 0x1779 JUMP JUMPDEST PUSH0 JUMPDEST DUP3 DUP2 LT ISZERO PUSH2 0x1ADC JUMPI DUP5 DUP10 ADD SLOAD DUP3 SSTORE PUSH1 0x1 DUP3 ADD SWAP2 POP PUSH1 0x1 DUP6 ADD SWAP5 POP PUSH1 0x20 DUP2 ADD SWAP1 POP PUSH2 0x1AB7 JUMP JUMPDEST DUP7 DUP4 LT ISZERO PUSH2 0x1AF9 JUMPI DUP5 DUP10 ADD SLOAD PUSH2 0x1AF5 PUSH1 0x1F DUP10 AND DUP3 PUSH2 0x18E2 JUMP JUMPDEST DUP4 SSTORE POP JUMPDEST PUSH1 0x1 PUSH1 0x2 DUP9 MUL ADD DUP9 SSTORE POP POP POP JUMPDEST POP POP POP POP POP POP JUMPDEST JUMP JUMPDEST PUSH0 PUSH1 0x40 DUP3 ADD SWAP1 POP DUP2 DUP2 SUB PUSH0 DUP4 ADD MSTORE PUSH2 0x1B27 DUP2 DUP6 PUSH2 0x1462 JUMP JUMPDEST SWAP1 POP PUSH2 0x1B36 PUSH1 0x20 DUP4 ADD DUP5 PUSH2 0x142B JUMP JUMPDEST SWAP4 SWAP3 POP POP POP JUMP JUMPDEST PUSH32 0x50726F64756374206E6F7420617661696C61626C650000000000000000000000 PUSH0 DUP3 ADD MSTORE POP JUMP JUMPDEST PUSH0 PUSH2 0x1B71 PUSH1 0x15 DUP4 PUSH2 0x1444 JUMP JUMPDEST SWAP2 POP PUSH2 0x1B7C DUP3 PUSH2 0x1B3D JUMP JUMPDEST PUSH1 0x20 DUP3 ADD SWAP1 POP SWAP2 SWAP1 POP JUMP JUMPDEST PUSH0 PUSH1 0x20 DUP3 ADD SWAP1 POP DUP2 DUP2 SUB PUSH0 DUP4 ADD MSTORE PUSH2 0x1B9E DUP2 PUSH2 0x1B65 JUMP JUMPDEST SWAP1 POP SWAP2 SWAP1 POP JUMP JUMPDEST PUSH32 0x507269636520696E707574206D69736D61746368000000000000000000000000 PUSH0 DUP3 ADD MSTORE POP JUMP JUMPDEST PUSH0 PUSH2 0x1BD9 PUSH1 0x14 DUP4 PUSH2 0x1444 JUMP JUMPDEST SWAP2 POP PUSH2 0x1BE4 DUP3 PUSH2 0x1BA5 JUMP JUMPDEST PUSH1 0x20 DUP3 ADD SWAP1 POP SWAP2 SWAP1 POP JUMP JUMPDEST PUSH0 PUSH1 0x20 DUP3 ADD SWAP1 POP DUP2 DUP2 SUB PUSH0 DUP4 ADD MSTORE PUSH2 0x1C06 DUP2 PUSH2 0x1BCD JUMP JUMPDEST SWAP1 POP SWAP2 SWAP1 POP JUMP JUMPDEST PUSH32 0x496E636F7272656374207061796D656E7420616D6F756E740000000000000000 PUSH0 DUP3 ADD MSTORE POP JUMP JUMPDEST PUSH0 PUSH2 0x1C41 PUSH1 0x18 DUP4 PUSH2 0x1444 JUMP JUMPDEST SWAP2 POP PUSH2 0x1C4C DUP3 PUSH2 0x1C0D JUMP JUMPDEST PUSH1 0x20 DUP3 ADD SWAP1 POP SWAP2 SWAP1 POP JUMP JUMPDEST PUSH0 PUSH1 0x20 DUP3 ADD SWAP1 POP DUP2 DUP2 SUB PUSH0 DUP4 ADD MSTORE PUSH2 0x1C6E DUP2 PUSH2 0x1C35 JUMP JUMPDEST SWAP1 POP SWAP2 SWAP1 POP JUMP JUMPDEST PUSH0 DUP2 PUSH1 0x60 SHL SWAP1 POP SWAP2 SWAP1 POP JUMP JUMPDEST PUSH0 PUSH2 0x1C8B DUP3 PUSH2 0x1C75 JUMP JUMPDEST SWAP1 POP SWAP2 SWAP1 POP JUMP JUMPDEST PUSH0 PUSH2 0x1C9C DUP3 PUSH2 0x1C81 JUMP JUMPDEST SWAP1 POP SWAP2 SWAP1 POP JUMP JUMPDEST PUSH2 0x1CB4 PUSH2 0x1CAF DUP3 PUSH2 0x14B9 JUMP JUMPDEST PUSH2 0x1C92 JUMP JUMPDEST DUP3 MSTORE POP POP JUMP JUMPDEST PUSH0 DUP2 SWAP1 POP SWAP2 SWAP1 POP JUMP JUMPDEST PUSH2 0x1CD4 PUSH2 0x1CCF DUP3 PUSH2 0x1153 JUMP JUMPDEST PUSH2 0x1CBA JUMP JUMPDEST DUP3 MSTORE POP POP JUMP JUMPDEST PUSH0 PUSH2 0x1CE5 DUP3 DUP8 PUSH2 0x1CA3 JUMP JUMPDEST PUSH1 0x14 DUP3 ADD SWAP2 POP PUSH2 0x1CF5 DUP3 DUP7 PUSH2 0x1CC3 JUMP JUMPDEST PUSH1 0x20 DUP3 ADD SWAP2 POP PUSH2 0x1D05 DUP3 DUP6 PUSH2 0x1CC3 JUMP JUMPDEST PUSH1 0x20 DUP3 ADD SWAP2 POP PUSH2 0x1D15 DUP3 DUP5 PUSH2 0x1CC3 JUMP JUMPDEST PUSH1 0x20 DUP3 ADD SWAP2 POP DUP2 SWAP1 POP SWAP6 SWAP5 POP POP POP POP POP JUMP JUMPDEST PUSH32 0x4E487B7100000000000000000000000000000000000000000000000000000000 PUSH0 MSTORE PUSH1 0x11 PUSH1 0x4 MSTORE PUSH1 0x24 PUSH0 REVERT JUMPDEST PUSH0 PUSH2 0x1D5E DUP3 PUSH2 0x1153 JUMP JUMPDEST SWAP2 POP PUSH32 0xFFFFFFFFFFFFFFFFFFFFFFFFFFFFFFFFFFFFFFFFFFFFFFFFFFFFFFFFFFFFFFFF DUP3 SUB PUSH2 0x1D90 JUMPI PUSH2 0x1D8F PUSH2 0x1D27 JUMP JUMPDEST JUMPDEST PUSH1 0x1 DUP3 ADD SWAP1 POP SWAP2 SWAP1 POP JUMP JUMPDEST PUSH0 PUSH2 0x1DA5 DUP3 PUSH2 0x1153 JUMP JUMPDEST SWAP2 POP PUSH2 0x1DB0 DUP4 PUSH2 0x1153 JUMP JUMPDEST SWAP3 POP DUP3 DUP3 ADD SWAP1 POP DUP1 DUP3 GT ISZERO PUSH2 0x1DC8 JUMPI PUSH2 0x1DC7 PUSH2 0x1D27 JUMP JUMPDEST JUMPDEST SWAP3 SWAP2 POP POP JUMP JUMPDEST PUSH32 0x556E617574686F72697A65640000000000000000000000000000000000000000 PUSH0 DUP3 ADD MSTORE POP JUMP JUMPDEST PUSH0 PUSH2 0x1E02 PUSH1 0xC DUP4 PUSH2 0x1444 JUMP JUMPDEST SWAP2 POP PUSH2 0x1E0D DUP3 PUSH2 0x1DCE JUMP JUMPDEST PUSH1 0x20 DUP3 ADD SWAP1 POP SWAP2 SWAP1 POP JUMP JUMPDEST PUSH0 PUSH1 0x20 DUP3 ADD SWAP1 POP DUP2 DUP2 SUB PUSH0 DUP4 ADD MSTORE PUSH2 0x1E2F DUP2 PUSH2 0x1DF6 JUMP JUMPDEST SWAP1 POP SWAP2 SWAP1 POP JUMP JUMPDEST PUSH32 0x4F72646572206861732065787069726564000000000000000000000000000000 PUSH0 DUP3 ADD MSTORE POP JUMP JUMPDEST PUSH0 PUSH2 0x1E6A PUSH1 0x11 DUP4 PUSH2 0x1444 JUMP JUMPDEST SWAP2 POP PUSH2 0x1E75 DUP3 PUSH2 0x1E36 JUMP JUMPDEST PUSH1 0x20 DUP3 ADD SWAP1 POP SWAP2 SWAP1 POP JUMP JUMPDEST PUSH0 PUSH1 0x20 DUP3 ADD SWAP1 POP DUP2 DUP2 SUB PUSH0 DUP4 ADD MSTORE PUSH2 0x1E97 DUP2 PUSH2 0x1E5E JUMP JUMPDEST SWAP1 POP SWAP2 SWAP1 POP JUMP JUMPDEST PUSH32 0x496E76616C696420737461747573207472616E736974696F6E00000000000000 PUSH0 DUP3 ADD MSTORE POP JUMP JUMPDEST PUSH0 PUSH2 0x1ED2 PUSH1 0x19 DUP4 PUSH2 0x1444 JUMP JUMPDEST SWAP2 POP PUSH2 0x1EDD DUP3 PUSH2 0x1E9E JUMP JUMPDEST PUSH1 0x20 DUP3 ADD SWAP1 POP SWAP2 SWAP1 POP JUMP JUMPDEST PUSH0 PUSH1 0x20 DUP3 ADD SWAP1 POP DUP2 DUP2 SUB PUSH0 DUP4 ADD MSTORE PUSH2 0x1EFF DUP2 PUSH2 0x1EC6 JUMP JUMPDEST SWAP1 POP SWAP2 SWAP1 POP JUMP JUMPDEST PUSH0 PUSH1 0x20 DUP3 ADD SWAP1 POP PUSH2 0x1F19 PUSH0 DUP4 ADD DUP5 PUSH2 0x1595 JUMP JUMPDEST SWAP3 SWAP2 POP POP JUMP JUMPDEST PUSH0 PUSH1 0x40 DUP3 ADD SWAP1 POP PUSH2 0x1F32 PUSH0 DUP4 ADD DUP6 PUSH2 0x142B JUMP JUMPDEST DUP2 DUP2 SUB PUSH1 0x20 DUP4 ADD MSTORE PUSH2 0x1F44 DUP2 DUP5 PUSH2 0x1462 JUMP JUMPDEST SWAP1 POP SWAP4 SWAP3 POP POP POP JUMP INVALID LOG2 PUSH5 0x6970667358 0x22 SLT KECCAK256 0xC6 0xBF 0xCB 0xD4 DUP1 0xB9 0xD7 SELFBALANCE SWAP4 0xBC PUSH5 0xC874720AF2 PUSH16 0x7A8AB0571E4E3B009CFD10C9AD739964 PUSH20 0x6F6C634300081E00330000000000000000000000 "
				},
				"gasEstimates": {
					"creation": {
						"codeDepositCost": "1613400",
						"executionCost": "1692",
						"totalCost": "1615092"
					},
					"external": {
						"addProduct(string,uint256)": "infinite",
						"createOrder(uint256,uint256)": "infinite",
						"getProductPrice(uint256)": "infinite",
						"isValidTransition(uint8,uint8)": "infinite",
						"orders(uint256)": "infinite",
						"productById(uint256)": "infinite",
						"products(uint256)": "infinite",
						"updateOrderStatus(uint256,uint8)": "infinite",
						"updateProductName(uint256,string,uint256)": "infinite"
					}
				},
				"methodIdentifiers": {
					"addProduct(string,uint256)": "b15247d9",
					"createOrder(uint256,uint256)": "79109baa",
					"getProductPrice(uint256)": "e7bf7dfc",
					"isValidTransition(uint8,uint8)": "79412d28",
					"orders(uint256)": "a85c38ef",
					"productById(uint256)": "a30b475f",
					"products(uint256)": "7acc0b20",
					"updateOrderStatus(uint256,uint8)": "aab3196d",
					"updateProductName(uint256,string,uint256)": "61c18c8a"
				}
			},
			"storageLayout": {
				"storage": [
					{
						"astId": 37,
						"contract": "contract/Marketplace.sol:Marketplace",
						"label": "products",
						"offset": 0,
						"slot": "0",
						"type": "t_array(t_struct(Product)19_storage)dyn_storage"
					},
					{
						"astId": 42,
						"contract": "contract/Marketplace.sol:Marketplace",
						"label": "productById",
						"offset": 0,
						"slot": "1",
						"type": "t_mapping(t_uint256,t_struct(Product)19_storage)"
					},
					{
						"astId": 47,
						"contract": "contract/Marketplace.sol:Marketplace",
						"label": "orders",
						"offset": 0,
						"slot": "2",
						"type": "t_mapping(t_uint256,t_struct(Order)33_storage)"
					},
					{
						"astId": 51,
						"contract": "contract/Marketplace.sol:Marketplace",
						"label": "orderPayments",
						"offset": 0,
						"slot": "3",
						"type": "t_mapping(t_uint256,t_uint256)"
					},
					{
						"astId": 53,
						"contract": "contract/Marketplace.sol:Marketplace",
						"label": "orderNonce",
						"offset": 0,
						"slot": "4",
						"type": "t_uint256"
					}
				],
				"types": {
					"t_address": {
						"encoding": "inplace",
						"label": "address",
						"numberOfBytes": "20"
					},
					"t_array(t_struct(Product)19_storage)dyn_storage": {
						"base": "t_struct(Product)19_storage",
						"encoding": "dynamic_array",
						"label": "struct Marketplace.Product[]",
						"numberOfBytes": "32"
					},
					"t_bool": {
						"encoding": "inplace",
						"label": "bool",
						"numberOfBytes": "1"
					},
					"t_enum(OrderStatus)8": {
						"encoding": "inplace",
						"label": "enum Marketplace.OrderStatus",
						"numberOfBytes": "1"
					},
					"t_mapping(t_uint256,t_struct(Order)33_storage)": {
						"encoding": "mapping",
						"key": "t_uint256",
						"label": "mapping(uint256 => struct Marketplace.Order)",
						"numberOfBytes": "32",
						"value": "t_struct(Order)33_storage"
					},
					"t_mapping(t_uint256,t_struct(Product)19_storage)": {
						"encoding": "mapping",
						"key": "t_uint256",
						"label": "mapping(uint256 => struct Marketplace.Product)",
						"numberOfBytes": "32",
						"value": "t_struct(Product)19_storage"
					},
					"t_mapping(t_uint256,t_uint256)": {
						"encoding": "mapping",
						"key": "t_uint256",
						"label": "mapping(uint256 => uint256)",
						"numberOfBytes": "32",
						"value": "t_uint256"
					},
					"t_string_storage": {
						"encoding": "bytes",
						"label": "string",
						"numberOfBytes": "32"
					},
					"t_struct(Order)33_storage": {
						"encoding": "inplace",
						"label": "struct Marketplace.Order",
						"members": [
							{
								"astId": 21,
								"contract": "contract/Marketplace.sol:Marketplace",
								"label": "id",
								"offset": 0,
								"slot": "0",
								"type": "t_uint256"
							},
							{
								"astId": 23,
								"contract": "contract/Marketplace.sol:Marketplace",
								"label": "buyer",
								"offset": 0,
								"slot": "1",
								"type": "t_address"
							},
							{
								"astId": 25,
								"contract": "contract/Marketplace.sol:Marketplace",
								"label": "productId",
								"offset": 0,
								"slot": "2",
								"type": "t_uint256"
							},
							{
								"astId": 27,
								"contract": "contract/Marketplace.sol:Marketplace",
								"label": "timestamp",
								"offset": 0,
								"slot": "3",
								"type": "t_uint256"
							},
							{
								"astId": 29,
								"contract": "contract/Marketplace.sol:Marketplace",
								"label": "deadline",
								"offset": 0,
								"slot": "4",
								"type": "t_uint256"
							},
							{
								"astId": 32,
								"contract": "contract/Marketplace.sol:Marketplace",
								"label": "status",
								"offset": 0,
								"slot": "5",
								"type": "t_enum(OrderStatus)8"
							}
						],
						"numberOfBytes": "192"
					},
					"t_struct(Product)19_storage": {
						"encoding": "inplace",
						"label": "struct Marketplace.Product",
						"members": [
							{
								"astId": 10,
								"contract": "contract/Marketplace.sol:Marketplace",
								"label": "id",
								"offset": 0,
								"slot": "0",
								"type": "t_uint256"
							},
							{
								"astId": 12,
								"contract": "contract/Marketplace.sol:Marketplace",
								"label": "name",
								"offset": 0,
								"slot": "1",
								"type": "t_string_storage"
							},
							{
								"astId": 14,
								"contract": "contract/Marketplace.sol:Marketplace",
								"label": "price",
								"offset": 0,
								"slot": "2",
								"type": "t_uint256"
							},
							{
								"astId": 16,
								"contract": "contract/Marketplace.sol:Marketplace",
								"label": "seller",
								"offset": 0,
								"slot": "3",
								"type": "t_address"
							},
							{
								"astId": 18,
								"contract": "contract/Marketplace.sol:Marketplace",
								"label": "isAvailable",
								"offset": 20,
								"slot": "3",
								"type": "t_bool"
							}
						],
						"numberOfBytes": "128"
					},
					"t_uint256": {
						"encoding": "inplace",
						"label": "uint256",
						"numberOfBytes": "32"
					}
				}
			},
			"userdoc": {
				"kind": "user",
				"methods": {},
				"version": 1
			}
		}
	}
}